{"abi":[{"inputs":[{"internalType":"uint256","name":"maxheight","type":"uint256"},{"internalType":"uint256","name":"minheight","type":"uint256"},{"internalType":"uint256","name":"_cost","type":"uint256"},{"internalType":"uint256","name":"id","type":"uint256"}],"stateMutability":"nonpayable","type":"constructor"},{"anonymous":false,"inputs":[{"indexed":true,"internalType":"address","name":"from","type":"address"},{"indexed":true,"internalType":"address","name":"to","type":"address"},{"indexed":true,"internalType":"uint256","name":"tokenId","type":"uint256"}],"name":"Transfer","type":"event"},{"anonymous":false,"inputs":[{"indexed":false,"internalType":"uint256","name":"idplot","type":"uint256"}],"name":"fumigacion_plot","type":"event"},{"inputs":[{"internalType":"address","name":"to","type":"address"},{"internalType":"uint256","name":"tokenId","type":"uint256"}],"name":"_mintDron","outputs":[],"stateMutability":"nonpayable","type":"function"},{"inputs":[{"internalType":"address","name":"to","type":"address"},{"internalType":"uint256","name":"tokenId","type":"uint256"},{"internalType":"bytes","name":"_data","type":"bytes"}],"name":"_safeMint","outputs":[],"stateMutability":"nonpayable","type":"function"},{"inputs":[{"internalType":"address","name":"to","type":"address"},{"internalType":"uint256","name":"tokenId","type":"uint256"}],"name":"_safeMint","outputs":[],"stateMutability":"nonpayable","type":"function"},{"inputs":[{"internalType":"address","name":"owner","type":"address"}],"name":"balanceOf","outputs":[{"internalType":"uint256","name":"balance","type":"uint256"}],"stateMutability":"view","type":"function"},{"inputs":[],"name":"cost","outputs":[{"internalType":"uint256","name":"","type":"uint256"}],"stateMutability":"view","type":"function"},{"inputs":[{"internalType":"uint256","name":"idplot","type":"uint256"}],"name":"fumigacion","outputs":[],"stateMutability":"nonpayable","type":"function"},{"inputs":[],"name":"getCost","outputs":[{"internalType":"uint256","name":"","type":"uint256"}],"stateMutability":"view","type":"function"},{"inputs":[],"name":"getDisponible","outputs":[{"internalType":"bool","name":"","type":"bool"}],"stateMutability":"view","type":"function"},{"inputs":[],"name":"getMaxHeight","outputs":[{"internalType":"uint256","name":"","type":"uint256"}],"stateMutability":"view","type":"function"},{"inputs":[],"name":"getMinHeight","outputs":[{"internalType":"uint256","name":"","type":"uint256"}],"stateMutability":"view","type":"function"},{"inputs":[],"name":"id_dron","outputs":[{"internalType":"uint256","name":"","type":"uint256"}],"stateMutability":"view","type":"function"},{"inputs":[],"name":"max_height","outputs":[{"internalType":"uint256","name":"","type":"uint256"}],"stateMutability":"view","type":"function"},{"inputs":[],"name":"min_height","outputs":[{"internalType":"uint256","name":"","type":"uint256"}],"stateMutability":"view","type":"function"},{"inputs":[],"name":"owner","outputs":[{"internalType":"address","name":"","type":"address"}],"stateMutability":"view","type":"function"},{"inputs":[{"internalType":"uint256","name":"tokenId","type":"uint256"}],"name":"ownerOf","outputs":[{"internalType":"address","name":"","type":"address"}],"stateMutability":"view","type":"function"},{"inputs":[{"internalType":"uint256","name":"","type":"uint256"}],"name":"pesticide","outputs":[{"internalType":"string","name":"","type":"string"}],"stateMutability":"view","type":"function"},{"inputs":[{"internalType":"bool","name":"estado","type":"bool"}],"name":"setDisponible","outputs":[],"stateMutability":"nonpayable","type":"function"},{"inputs":[{"internalType":"bytes4","name":"interfaceId","type":"bytes4"}],"name":"supportsInterface","outputs":[{"internalType":"bool","name":"","type":"bool"}],"stateMutability":"view","type":"function"}],"devdoc":{"kind":"dev","methods":{},"version":1},"evm":{"assembly":"    /* \"Dron.sol\":83:1662   */\n  mstore(0x40, 0x80)\n    /* \"Dron.sol\":369:728   */\n  callvalue\n  dup1\n  iszero\n  tag_1\n  jumpi\n  0x00\n  dup1\n  revert\ntag_1:\n  pop\n  mload(0x40)\n  sub(codesize, bytecodeSize)\n  dup1\n  bytecodeSize\n  dup4\n  codecopy\n  dup2\n  dup2\n  add\n  0x40\n  mstore\n  dup2\n  add\n  swap1\n  tag_2\n  swap2\n  swap1\n  tag_3\n  jump\t// in\ntag_2:\n    /* \"Dron.sol\":477:486   */\n  dup4\n    /* \"Dron.sol\":464:474   */\n  0x03\n    /* \"Dron.sol\":464:486   */\n  dup2\n  swap1\n  sstore\n  pop\n    /* \"Dron.sol\":510:519   */\n  dup3\n    /* \"Dron.sol\":497:507   */\n  0x04\n    /* \"Dron.sol\":497:519   */\n  dup2\n  swap1\n  sstore\n  pop\n    /* \"Dron.sol\":537:542   */\n  dup2\n    /* \"Dron.sol\":530:534   */\n  0x05\n    /* \"Dron.sol\":530:542   */\n  dup2\n  swap1\n  sstore\n  pop\n    /* \"Dron.sol\":563:565   */\n  dup1\n    /* \"Dron.sol\":553:560   */\n  0x02\n    /* \"Dron.sol\":553:565   */\n  dup2\n  swap1\n  sstore\n  pop\n    /* \"Dron.sol\":576:663   */\n  mload(0x40)\n  dup1\n  0xa0\n  add\n  0x40\n  mstore\n  dup1\n  mload(0x40)\n  dup1\n  0x40\n  add\n  0x40\n  mstore\n  dup1\n  0x0b\n  dup2\n  mstore\n  0x20\n  add\n  0x5065737469636964612041000000000000000000000000000000000000000000\n  dup2\n  mstore\n  pop\n  dup2\n  mstore\n  0x20\n  add\n  mload(0x40)\n  dup1\n  0x40\n  add\n  0x40\n  mstore\n  dup1\n  0x0b\n  dup2\n  mstore\n  0x20\n  add\n  0x5065737469636964612042000000000000000000000000000000000000000000\n  dup2\n  mstore\n  pop\n  dup2\n  mstore\n  0x20\n  add\n  mload(0x40)\n  dup1\n  0x40\n  add\n  0x40\n  mstore\n  dup1\n  0x0b\n  dup2\n  mstore\n  0x20\n  add\n  0x5065737469636964612043000000000000000000000000000000000000000000\n  dup2\n  mstore\n  pop\n  dup2\n  mstore\n  0x20\n  add\n  mload(0x40)\n  dup1\n  0x40\n  add\n  0x40\n  mstore\n  dup1\n  0x0b\n  dup2\n  mstore\n  0x20\n  add\n  0x5065737469636964612044000000000000000000000000000000000000000000\n  dup2\n  mstore\n  pop\n  dup2\n  mstore\n  0x20\n  add\n  mload(0x40)\n  dup1\n  0x40\n  add\n  0x40\n  mstore\n  dup1\n  0x0b\n  dup2\n  mstore\n  0x20\n  add\n  0x5065737469636964612045000000000000000000000000000000000000000000\n  dup2\n  mstore\n  pop\n  dup2\n  mstore\n  pop\n    /* \"Dron.sol\":576:585   */\n  0x06\n    /* \"Dron.sol\":576:663   */\n  swap1\n  0x05\n  tag_6\n  swap3\n  swap2\n  swap1\n  tag_7\n  jump\t// in\ntag_6:\n  pop\n    /* \"Dron.sol\":682:692   */\n  caller\n    /* \"Dron.sol\":674:679   */\n  0x07\n  0x00\n    /* \"Dron.sol\":674:692   */\n  0x0100\n  exp\n  dup2\n  sload\n  dup2\n  0xffffffffffffffffffffffffffffffffffffffff\n  mul\n  not\n  and\n  swap1\n  dup4\n  0xffffffffffffffffffffffffffffffffffffffff\n  and\n  mul\n  or\n  swap1\n  sstore\n  pop\n    /* \"Dron.sol\":716:720   */\n  0x01\n    /* \"Dron.sol\":703:713   */\n  0x07\n  0x14\n    /* \"Dron.sol\":703:720   */\n  0x0100\n  exp\n  dup2\n  sload\n  dup2\n  0xff\n  mul\n  not\n  and\n  swap1\n  dup4\n  iszero\n  iszero\n  mul\n  or\n  swap1\n  sstore\n  pop\n    /* \"Dron.sol\":369:728   */\n  pop\n  pop\n  pop\n  pop\n    /* \"Dron.sol\":83:1662   */\n  jump(tag_8)\ntag_7:\n  dup3\n  dup1\n  sload\n  dup3\n  dup3\n  sstore\n  swap1\n  0x00\n  mstore\n  keccak256(0x00, 0x20)\n  swap1\n  dup2\n  add\n  swap3\n  dup3\n  iszero\n  tag_9\n  jumpi\n  swap2\n  0x20\n  mul\n  dup3\n  add\ntag_10:\n  dup3\n  dup2\n  gt\n  iszero\n  tag_11\n  jumpi\n  dup3\n  mload\n  dup3\n  swap1\n  dup1\n  mload\n  swap1\n  0x20\n  add\n  swap1\n  tag_12\n  swap3\n  swap2\n  swap1\n  tag_13\n  jump\t// in\ntag_12:\n  pop\n  swap2\n  0x20\n  add\n  swap2\n  swap1\n  0x01\n  add\n  swap1\n  jump(tag_10)\ntag_11:\ntag_9:\n  pop\n  swap1\n  pop\n  tag_14\n  swap2\n  swap1\n  tag_15\n  jump\t// in\ntag_14:\n  pop\n  swap1\n  jump\t// out\ntag_13:\n  dup3\n  dup1\n  sload\n  tag_16\n  swap1\n  tag_17\n  jump\t// in\ntag_16:\n  swap1\n  0x00\n  mstore\n  keccak256(0x00, 0x20)\n  swap1\n  0x1f\n  add\n  0x20\n  swap1\n  div\n  dup2\n  add\n  swap3\n  dup3\n  tag_19\n  jumpi\n  0x00\n  dup6\n  sstore\n  jump(tag_18)\ntag_19:\n  dup3\n  0x1f\n  lt\n  tag_20\n  jumpi\n  dup1\n  mload\n  not(0xff)\n  and\n  dup4\n  dup1\n  add\n  or\n  dup6\n  sstore\n  jump(tag_18)\ntag_20:\n  dup3\n  dup1\n  add\n  0x01\n  add\n  dup6\n  sstore\n  dup3\n  iszero\n  tag_18\n  jumpi\n  swap2\n  dup3\n  add\ntag_21:\n  dup3\n  dup2\n  gt\n  iszero\n  tag_22\n  jumpi\n  dup3\n  mload\n  dup3\n  sstore\n  swap2\n  0x20\n  add\n  swap2\n  swap1\n  0x01\n  add\n  swap1\n  jump(tag_21)\ntag_22:\ntag_18:\n  pop\n  swap1\n  pop\n  tag_23\n  swap2\n  swap1\n  tag_24\n  jump\t// in\ntag_23:\n  pop\n  swap1\n  jump\t// out\ntag_15:\ntag_25:\n  dup1\n  dup3\n  gt\n  iszero\n  tag_26\n  jumpi\n  0x00\n  dup2\n  dup2\n  tag_27\n  swap2\n  swap1\n  tag_28\n  jump\t// in\ntag_27:\n  pop\n  0x01\n  add\n  jump(tag_25)\ntag_26:\n  pop\n  swap1\n  jump\t// out\ntag_24:\ntag_29:\n  dup1\n  dup3\n  gt\n  iszero\n  tag_30\n  jumpi\n  0x00\n  dup2\n  0x00\n  swap1\n  sstore\n  pop\n  0x01\n  add\n  jump(tag_29)\ntag_30:\n  pop\n  swap1\n  jump\t// out\ntag_28:\n  pop\n  dup1\n  sload\n  tag_31\n  swap1\n  tag_17\n  jump\t// in\ntag_31:\n  0x00\n  dup3\n  sstore\n  dup1\n  0x1f\n  lt\n  tag_33\n  jumpi\n  pop\n  jump(tag_32)\ntag_33:\n  0x1f\n  add\n  0x20\n  swap1\n  div\n  swap1\n  0x00\n  mstore\n  keccak256(0x00, 0x20)\n  swap1\n  dup2\n  add\n  swap1\n  tag_34\n  swap2\n  swap1\n  tag_24\n  jump\t// in\ntag_34:\ntag_32:\n  pop\n  jump\t// out\n    /* \"#utility.yul\":88:205   */\ntag_36:\n    /* \"#utility.yul\":197:198   */\n  0x00\n    /* \"#utility.yul\":194:195   */\n  dup1\n    /* \"#utility.yul\":187:199   */\n  revert\n    /* \"#utility.yul\":334:411   */\ntag_38:\n    /* \"#utility.yul\":371:378   */\n  0x00\n    /* \"#utility.yul\":400:405   */\n  dup2\n    /* \"#utility.yul\":389:405   */\n  swap1\n  pop\n    /* \"#utility.yul\":334:411   */\n  swap2\n  swap1\n  pop\n  jump\t// out\n    /* \"#utility.yul\":417:539   */\ntag_39:\n    /* \"#utility.yul\":490:514   */\n  tag_48\n    /* \"#utility.yul\":508:513   */\n  dup2\n    /* \"#utility.yul\":490:514   */\n  tag_38\n  jump\t// in\ntag_48:\n    /* \"#utility.yul\":483:488   */\n  dup2\n    /* \"#utility.yul\":480:515   */\n  eq\n    /* \"#utility.yul\":470:533   */\n  tag_49\n  jumpi\n    /* \"#utility.yul\":529:530   */\n  0x00\n    /* \"#utility.yul\":526:527   */\n  dup1\n    /* \"#utility.yul\":519:531   */\n  revert\n    /* \"#utility.yul\":470:533   */\ntag_49:\n    /* \"#utility.yul\":417:539   */\n  pop\n  jump\t// out\n    /* \"#utility.yul\":545:688   */\ntag_40:\n    /* \"#utility.yul\":602:607   */\n  0x00\n    /* \"#utility.yul\":633:639   */\n  dup2\n    /* \"#utility.yul\":627:640   */\n  mload\n    /* \"#utility.yul\":618:640   */\n  swap1\n  pop\n    /* \"#utility.yul\":649:682   */\n  tag_51\n    /* \"#utility.yul\":676:681   */\n  dup2\n    /* \"#utility.yul\":649:682   */\n  tag_39\n  jump\t// in\ntag_51:\n    /* \"#utility.yul\":545:688   */\n  swap3\n  swap2\n  pop\n  pop\n  jump\t// out\n    /* \"#utility.yul\":694:1514   */\ntag_3:\n    /* \"#utility.yul\":791:797   */\n  0x00\n    /* \"#utility.yul\":799:805   */\n  dup1\n    /* \"#utility.yul\":807:813   */\n  0x00\n    /* \"#utility.yul\":815:821   */\n  dup1\n    /* \"#utility.yul\":864:867   */\n  0x80\n    /* \"#utility.yul\":852:861   */\n  dup6\n    /* \"#utility.yul\":843:850   */\n  dup8\n    /* \"#utility.yul\":839:862   */\n  sub\n    /* \"#utility.yul\":835:868   */\n  slt\n    /* \"#utility.yul\":832:952   */\n  iszero\n  tag_53\n  jumpi\n    /* \"#utility.yul\":871:950   */\n  tag_54\n  tag_36\n  jump\t// in\ntag_54:\n    /* \"#utility.yul\":832:952   */\ntag_53:\n    /* \"#utility.yul\":991:992   */\n  0x00\n    /* \"#utility.yul\":1016:1080   */\n  tag_55\n    /* \"#utility.yul\":1072:1079   */\n  dup8\n    /* \"#utility.yul\":1063:1069   */\n  dup3\n    /* \"#utility.yul\":1052:1061   */\n  dup9\n    /* \"#utility.yul\":1048:1070   */\n  add\n    /* \"#utility.yul\":1016:1080   */\n  tag_40\n  jump\t// in\ntag_55:\n    /* \"#utility.yul\":1006:1080   */\n  swap5\n  pop\n    /* \"#utility.yul\":962:1090   */\n  pop\n    /* \"#utility.yul\":1129:1131   */\n  0x20\n    /* \"#utility.yul\":1155:1219   */\n  tag_56\n    /* \"#utility.yul\":1211:1218   */\n  dup8\n    /* \"#utility.yul\":1202:1208   */\n  dup3\n    /* \"#utility.yul\":1191:1200   */\n  dup9\n    /* \"#utility.yul\":1187:1209   */\n  add\n    /* \"#utility.yul\":1155:1219   */\n  tag_40\n  jump\t// in\ntag_56:\n    /* \"#utility.yul\":1145:1219   */\n  swap4\n  pop\n    /* \"#utility.yul\":1100:1229   */\n  pop\n    /* \"#utility.yul\":1268:1270   */\n  0x40\n    /* \"#utility.yul\":1294:1358   */\n  tag_57\n    /* \"#utility.yul\":1350:1357   */\n  dup8\n    /* \"#utility.yul\":1341:1347   */\n  dup3\n    /* \"#utility.yul\":1330:1339   */\n  dup9\n    /* \"#utility.yul\":1326:1348   */\n  add\n    /* \"#utility.yul\":1294:1358   */\n  tag_40\n  jump\t// in\ntag_57:\n    /* \"#utility.yul\":1284:1358   */\n  swap3\n  pop\n    /* \"#utility.yul\":1239:1368   */\n  pop\n    /* \"#utility.yul\":1407:1409   */\n  0x60\n    /* \"#utility.yul\":1433:1497   */\n  tag_58\n    /* \"#utility.yul\":1489:1496   */\n  dup8\n    /* \"#utility.yul\":1480:1486   */\n  dup3\n    /* \"#utility.yul\":1469:1478   */\n  dup9\n    /* \"#utility.yul\":1465:1487   */\n  add\n    /* \"#utility.yul\":1433:1497   */\n  tag_40\n  jump\t// in\ntag_58:\n    /* \"#utility.yul\":1423:1497   */\n  swap2\n  pop\n    /* \"#utility.yul\":1378:1507   */\n  pop\n    /* \"#utility.yul\":694:1514   */\n  swap3\n  swap6\n  swap2\n  swap5\n  pop\n  swap3\n  pop\n  jump\t// out\n    /* \"#utility.yul\":1520:1700   */\ntag_41:\n    /* \"#utility.yul\":1568:1645   */\n  0x4e487b7100000000000000000000000000000000000000000000000000000000\n    /* \"#utility.yul\":1565:1566   */\n  0x00\n    /* \"#utility.yul\":1558:1646   */\n  mstore\n    /* \"#utility.yul\":1665:1669   */\n  0x22\n    /* \"#utility.yul\":1662:1663   */\n  0x04\n    /* \"#utility.yul\":1655:1670   */\n  mstore\n    /* \"#utility.yul\":1689:1693   */\n  0x24\n    /* \"#utility.yul\":1686:1687   */\n  0x00\n    /* \"#utility.yul\":1679:1694   */\n  revert\n    /* \"#utility.yul\":1706:2026   */\ntag_17:\n    /* \"#utility.yul\":1750:1756   */\n  0x00\n    /* \"#utility.yul\":1787:1788   */\n  0x02\n    /* \"#utility.yul\":1781:1785   */\n  dup3\n    /* \"#utility.yul\":1777:1789   */\n  div\n    /* \"#utility.yul\":1767:1789   */\n  swap1\n  pop\n    /* \"#utility.yul\":1834:1835   */\n  0x01\n    /* \"#utility.yul\":1828:1832   */\n  dup3\n    /* \"#utility.yul\":1824:1836   */\n  and\n    /* \"#utility.yul\":1855:1873   */\n  dup1\n    /* \"#utility.yul\":1845:1926   */\n  tag_61\n  jumpi\n    /* \"#utility.yul\":1911:1915   */\n  0x7f\n    /* \"#utility.yul\":1903:1909   */\n  dup3\n    /* \"#utility.yul\":1899:1916   */\n  and\n    /* \"#utility.yul\":1889:1916   */\n  swap2\n  pop\n    /* \"#utility.yul\":1845:1926   */\ntag_61:\n    /* \"#utility.yul\":1973:1975   */\n  0x20\n    /* \"#utility.yul\":1965:1971   */\n  dup3\n    /* \"#utility.yul\":1962:1976   */\n  lt\n    /* \"#utility.yul\":1942:1960   */\n  dup2\n    /* \"#utility.yul\":1939:1977   */\n  sub\n    /* \"#utility.yul\":1936:2020   */\n  tag_62\n  jumpi\n    /* \"#utility.yul\":1992:2010   */\n  tag_63\n  tag_41\n  jump\t// in\ntag_63:\n    /* \"#utility.yul\":1936:2020   */\ntag_62:\n    /* \"#utility.yul\":1757:2026   */\n  pop\n    /* \"#utility.yul\":1706:2026   */\n  swap2\n  swap1\n  pop\n  jump\t// out\n    /* \"Dron.sol\":83:1662   */\ntag_8:\n  dataSize(sub_0)\n  dup1\n  dataOffset(sub_0)\n  0x00\n  codecopy\n  0x00\n  return\nstop\n\nsub_0: assembly {\n        /* \"Dron.sol\":83:1662   */\n      mstore(0x40, 0x80)\n      callvalue\n      dup1\n      iszero\n      tag_1\n      jumpi\n      0x00\n      dup1\n      revert\n    tag_1:\n      pop\n      jumpi(tag_2, lt(calldatasize, 0x04))\n      shr(0xe0, calldataload(0x00))\n      dup1\n      0x6352211e\n      gt\n      tag_21\n      jumpi\n      dup1\n      0xb3e1c718\n      gt\n      tag_22\n      jumpi\n      dup1\n      0xb3e1c718\n      eq\n      tag_16\n      jumpi\n      dup1\n      0xbd3e19d4\n      eq\n      tag_17\n      jumpi\n      dup1\n      0xcf22b577\n      eq\n      tag_18\n      jumpi\n      dup1\n      0xe2fb9893\n      eq\n      tag_19\n      jumpi\n      dup1\n      0xe7bcebf0\n      eq\n      tag_20\n      jumpi\n      jump(tag_2)\n    tag_22:\n      dup1\n      0x6352211e\n      eq\n      tag_12\n      jumpi\n      dup1\n      0x6a4f832b\n      eq\n      tag_13\n      jumpi\n      dup1\n      0x70a08231\n      eq\n      tag_14\n      jumpi\n      dup1\n      0x8da5cb5b\n      eq\n      tag_15\n      jumpi\n      jump(tag_2)\n    tag_21:\n      dup1\n      0x1e7ec0f3\n      gt\n      tag_23\n      jumpi\n      dup1\n      0x1e7ec0f3\n      eq\n      tag_7\n      jumpi\n      dup1\n      0x2b81ff95\n      eq\n      tag_8\n      jumpi\n      dup1\n      0x32b93996\n      eq\n      tag_9\n      jumpi\n      dup1\n      0x3fbaa475\n      eq\n      tag_10\n      jumpi\n      dup1\n      0x49befa85\n      eq\n      tag_11\n      jumpi\n      jump(tag_2)\n    tag_23:\n      dup1\n      0xfef856\n      eq\n      tag_3\n      jumpi\n      dup1\n      0x01ffc9a7\n      eq\n      tag_4\n      jumpi\n      dup1\n      0x13faede6\n      eq\n      tag_5\n      jumpi\n      dup1\n      0x175f4eae\n      eq\n      tag_6\n      jumpi\n    tag_2:\n      0x00\n      dup1\n      revert\n        /* \"Dron.sol\":1472:1564   */\n    tag_3:\n      tag_24\n      tag_25\n      jump\t// in\n    tag_24:\n      mload(0x40)\n      tag_26\n      swap2\n      swap1\n      tag_27\n      jump\t// in\n    tag_26:\n      mload(0x40)\n      dup1\n      swap2\n      sub\n      swap1\n      return\n        /* \"ERC165.sol\":128:290   */\n    tag_4:\n      tag_28\n      0x04\n      dup1\n      calldatasize\n      sub\n      dup2\n      add\n      swap1\n      tag_29\n      swap2\n      swap1\n      tag_30\n      jump\t// in\n    tag_29:\n      tag_31\n      jump\t// in\n    tag_28:\n      mload(0x40)\n      tag_32\n      swap2\n      swap1\n      tag_27\n      jump\t// in\n    tag_32:\n      mload(0x40)\n      dup1\n      swap2\n      sub\n      swap1\n      return\n        /* \"Dron.sol\":209:229   */\n    tag_5:\n      tag_33\n      tag_34\n      jump\t// in\n    tag_33:\n      mload(0x40)\n      tag_35\n      swap2\n      swap1\n      tag_36\n      jump\t// in\n    tag_35:\n      mload(0x40)\n      dup1\n      swap2\n      sub\n      swap1\n      return\n        /* \"Dron.sol\":236:261   */\n    tag_6:\n      tag_37\n      0x04\n      dup1\n      calldatasize\n      sub\n      dup2\n      add\n      swap1\n      tag_38\n      swap2\n      swap1\n      tag_39\n      jump\t// in\n    tag_38:\n      tag_40\n      jump\t// in\n    tag_37:\n      mload(0x40)\n      tag_41\n      swap2\n      swap1\n      tag_42\n      jump\t// in\n    tag_41:\n      mload(0x40)\n      dup1\n      swap2\n      sub\n      swap1\n      return\n        /* \"Dron.sol\":899:1096   */\n    tag_7:\n      tag_43\n      0x04\n      dup1\n      calldatasize\n      sub\n      dup2\n      add\n      swap1\n      tag_44\n      swap2\n      swap1\n      tag_39\n      jump\t// in\n    tag_44:\n      tag_45\n      jump\t// in\n    tag_43:\n      stop\n        /* \"Dron.sol\":1572:1659   */\n    tag_8:\n      tag_46\n      0x04\n      dup1\n      calldatasize\n      sub\n      dup2\n      add\n      swap1\n      tag_47\n      swap2\n      swap1\n      tag_48\n      jump\t// in\n    tag_47:\n      tag_49\n      jump\t// in\n    tag_46:\n      stop\n        /* \"Dron.sol\":177:202   */\n    tag_9:\n      tag_50\n      tag_51\n      jump\t// in\n    tag_50:\n      mload(0x40)\n      tag_52\n      swap2\n      swap1\n      tag_36\n      jump\t// in\n    tag_52:\n      mload(0x40)\n      dup1\n      swap2\n      sub\n      swap1\n      return\n        /* \"Dron.sol\":145:170   */\n    tag_10:\n      tag_53\n      tag_54\n      jump\t// in\n    tag_53:\n      mload(0x40)\n      tag_55\n      swap2\n      swap1\n      tag_36\n      jump\t// in\n    tag_55:\n      mload(0x40)\n      dup1\n      swap2\n      sub\n      swap1\n      return\n        /* \"Dron.sol\":1368:1464   */\n    tag_11:\n      tag_56\n      tag_57\n      jump\t// in\n    tag_56:\n      mload(0x40)\n      tag_58\n      swap2\n      swap1\n      tag_36\n      jump\t// in\n    tag_58:\n      mload(0x40)\n      dup1\n      swap2\n      sub\n      swap1\n      return\n        /* \"ERC721.sol\":624:852   */\n    tag_12:\n      tag_59\n      0x04\n      dup1\n      calldatasize\n      sub\n      dup2\n      add\n      swap1\n      tag_60\n      swap2\n      swap1\n      tag_39\n      jump\t// in\n    tag_60:\n      tag_61\n      jump\t// in\n    tag_59:\n      mload(0x40)\n      tag_62\n      swap2\n      swap1\n      tag_63\n      jump\t// in\n    tag_62:\n      mload(0x40)\n      dup1\n      swap2\n      sub\n      swap1\n      return\n        /* \"ERC721.sol\":1108:1302   */\n    tag_13:\n      tag_64\n      0x04\n      dup1\n      calldatasize\n      sub\n      dup2\n      add\n      swap1\n      tag_65\n      swap2\n      swap1\n      tag_66\n      jump\t// in\n    tag_65:\n      tag_67\n      jump\t// in\n    tag_64:\n      stop\n        /* \"ERC721.sol\":863:984   */\n    tag_14:\n      tag_68\n      0x04\n      dup1\n      calldatasize\n      sub\n      dup2\n      add\n      swap1\n      tag_69\n      swap2\n      swap1\n      tag_70\n      jump\t// in\n    tag_69:\n      tag_71\n      jump\t// in\n    tag_68:\n      mload(0x40)\n      tag_72\n      swap2\n      swap1\n      tag_36\n      jump\t// in\n    tag_72:\n      mload(0x40)\n      dup1\n      swap2\n      sub\n      swap1\n      return\n        /* \"Dron.sol\":268:288   */\n    tag_15:\n      tag_73\n      tag_74\n      jump\t// in\n    tag_73:\n      mload(0x40)\n      tag_75\n      swap2\n      swap1\n      tag_63\n      jump\t// in\n    tag_75:\n      mload(0x40)\n      dup1\n      swap2\n      sub\n      swap1\n      return\n        /* \"ERC721.sol\":992:1099   */\n    tag_16:\n      tag_76\n      0x04\n      dup1\n      calldatasize\n      sub\n      dup2\n      add\n      swap1\n      tag_77\n      swap2\n      swap1\n      tag_78\n      jump\t// in\n    tag_77:\n      tag_79\n      jump\t// in\n    tag_76:\n      stop\n        /* \"Dron.sol\":1170:1255   */\n    tag_17:\n      tag_80\n      tag_81\n      jump\t// in\n    tag_80:\n      mload(0x40)\n      tag_82\n      swap2\n      swap1\n      tag_36\n      jump\t// in\n    tag_82:\n      mload(0x40)\n      dup1\n      swap2\n      sub\n      swap1\n      return\n        /* \"Dron.sol\":1264:1360   */\n    tag_18:\n      tag_83\n      tag_84\n      jump\t// in\n    tag_83:\n      mload(0x40)\n      tag_85\n      swap2\n      swap1\n      tag_36\n      jump\t// in\n    tag_85:\n      mload(0x40)\n      dup1\n      swap2\n      sub\n      swap1\n      return\n        /* \"Dron.sol\":736:887   */\n    tag_19:\n      tag_86\n      0x04\n      dup1\n      calldatasize\n      sub\n      dup2\n      add\n      swap1\n      tag_87\n      swap2\n      swap1\n      tag_78\n      jump\t// in\n    tag_87:\n      tag_88\n      jump\t// in\n    tag_86:\n      stop\n        /* \"Dron.sol\":116:138   */\n    tag_20:\n      tag_89\n      tag_90\n      jump\t// in\n    tag_89:\n      mload(0x40)\n      tag_91\n      swap2\n      swap1\n      tag_36\n      jump\t// in\n    tag_91:\n      mload(0x40)\n      dup1\n      swap2\n      sub\n      swap1\n      return\n        /* \"Dron.sol\":1472:1564   */\n    tag_25:\n        /* \"Dron.sol\":1517:1521   */\n      0x00\n        /* \"Dron.sol\":1546:1556   */\n      0x07\n      0x14\n      swap1\n      sload\n      swap1\n      0x0100\n      exp\n      swap1\n      div\n      0xff\n      and\n        /* \"Dron.sol\":1539:1556   */\n      swap1\n      pop\n        /* \"Dron.sol\":1472:1564   */\n      swap1\n      jump\t// out\n        /* \"ERC165.sol\":128:290   */\n    tag_31:\n        /* \"ERC165.sol\":213:217   */\n      0x00\n        /* \"ERC165.sol\":257:282   */\n      0x01ffc9a700000000000000000000000000000000000000000000000000000000\n        /* \"ERC165.sol\":242:282   */\n      not(0xffffffffffffffffffffffffffffffffffffffffffffffffffffffff)\n      and\n        /* \"ERC165.sol\":242:253   */\n      dup3\n        /* \"ERC165.sol\":242:282   */\n      not(0xffffffffffffffffffffffffffffffffffffffffffffffffffffffff)\n      and\n      eq\n        /* \"ERC165.sol\":235:282   */\n      swap1\n      pop\n        /* \"ERC165.sol\":128:290   */\n      swap2\n      swap1\n      pop\n      jump\t// out\n        /* \"Dron.sol\":209:229   */\n    tag_34:\n      sload(0x05)\n      dup2\n      jump\t// out\n        /* \"Dron.sol\":236:261   */\n    tag_40:\n      0x06\n      dup2\n      dup2\n      sload\n      dup2\n      lt\n      tag_94\n      jumpi\n      0x00\n      dup1\n      revert\n    tag_94:\n      swap1\n      0x00\n      mstore\n      keccak256(0x00, 0x20)\n      add\n      0x00\n      swap2\n      pop\n      swap1\n      pop\n      dup1\n      sload\n      tag_96\n      swap1\n      tag_97\n      jump\t// in\n    tag_96:\n      dup1\n      0x1f\n      add\n      0x20\n      dup1\n      swap2\n      div\n      mul\n      0x20\n      add\n      mload(0x40)\n      swap1\n      dup2\n      add\n      0x40\n      mstore\n      dup1\n      swap3\n      swap2\n      swap1\n      dup2\n      dup2\n      mstore\n      0x20\n      add\n      dup3\n      dup1\n      sload\n      tag_98\n      swap1\n      tag_97\n      jump\t// in\n    tag_98:\n      dup1\n      iszero\n      tag_99\n      jumpi\n      dup1\n      0x1f\n      lt\n      tag_100\n      jumpi\n      0x0100\n      dup1\n      dup4\n      sload\n      div\n      mul\n      dup4\n      mstore\n      swap2\n      0x20\n      add\n      swap2\n      jump(tag_99)\n    tag_100:\n      dup3\n      add\n      swap2\n      swap1\n      0x00\n      mstore\n      keccak256(0x00, 0x20)\n      swap1\n    tag_101:\n      dup2\n      sload\n      dup2\n      mstore\n      swap1\n      0x01\n      add\n      swap1\n      0x20\n      add\n      dup1\n      dup4\n      gt\n      tag_101\n      jumpi\n      dup3\n      swap1\n      sub\n      0x1f\n      and\n      dup3\n      add\n      swap2\n    tag_99:\n      pop\n      pop\n      pop\n      pop\n      pop\n      dup2\n      jump\t// out\n        /* \"Dron.sol\":899:1096   */\n    tag_45:\n        /* \"Dron.sol\":1041:1046   */\n      0x07\n      0x00\n      swap1\n      sload\n      swap1\n      0x0100\n      exp\n      swap1\n      div\n      0xffffffffffffffffffffffffffffffffffffffff\n      and\n        /* \"Dron.sol\":1027:1046   */\n      0xffffffffffffffffffffffffffffffffffffffff\n      and\n        /* \"Dron.sol\":1027:1037   */\n      caller\n        /* \"Dron.sol\":1027:1046   */\n      0xffffffffffffffffffffffffffffffffffffffff\n      and\n      eq\n        /* \"Dron.sol\":1018:1047   */\n      tag_103\n      jumpi\n      0x00\n      dup1\n      revert\n    tag_103:\n        /* \"Dron.sol\":1064:1088   */\n      0x127988bd735ffa5c5534fd889e7069d274b48e633535f314e203463f4ebf87a3\n        /* \"Dron.sol\":1081:1087   */\n      dup2\n        /* \"Dron.sol\":1064:1088   */\n      mload(0x40)\n      tag_104\n      swap2\n      swap1\n      tag_36\n      jump\t// in\n    tag_104:\n      mload(0x40)\n      dup1\n      swap2\n      sub\n      swap1\n      log1\n        /* \"Dron.sol\":899:1096   */\n      pop\n      jump\t// out\n        /* \"Dron.sol\":1572:1659   */\n    tag_49:\n        /* \"Dron.sol\":1645:1651   */\n      dup1\n        /* \"Dron.sol\":1634:1644   */\n      0x07\n      0x14\n        /* \"Dron.sol\":1634:1651   */\n      0x0100\n      exp\n      dup2\n      sload\n      dup2\n      0xff\n      mul\n      not\n      and\n      swap1\n      dup4\n      iszero\n      iszero\n      mul\n      or\n      swap1\n      sstore\n      pop\n        /* \"Dron.sol\":1572:1659   */\n      pop\n      jump\t// out\n        /* \"Dron.sol\":177:202   */\n    tag_51:\n      sload(0x04)\n      dup2\n      jump\t// out\n        /* \"Dron.sol\":145:170   */\n    tag_54:\n      sload(0x03)\n      dup2\n      jump\t// out\n        /* \"Dron.sol\":1368:1464   */\n    tag_57:\n        /* \"Dron.sol\":1414:1421   */\n      0x00\n        /* \"Dron.sol\":1446:1456   */\n      sload(0x04)\n        /* \"Dron.sol\":1439:1456   */\n      swap1\n      pop\n        /* \"Dron.sol\":1368:1464   */\n      swap1\n      jump\t// out\n        /* \"ERC721.sol\":624:852   */\n    tag_61:\n        /* \"ERC721.sol\":697:704   */\n      0x00\n        /* \"ERC721.sol\":722:735   */\n      dup1\n        /* \"ERC721.sol\":738:745   */\n      0x00\n        /* \"ERC721.sol\":738:754   */\n      dup1\n        /* \"ERC721.sol\":746:753   */\n      dup5\n        /* \"ERC721.sol\":738:754   */\n      dup2\n      mstore\n      0x20\n      add\n      swap1\n      dup2\n      mstore\n      0x20\n      add\n      0x00\n      keccak256\n      0x00\n      swap1\n      sload\n      swap1\n      0x0100\n      exp\n      swap1\n      div\n      0xffffffffffffffffffffffffffffffffffffffff\n      and\n        /* \"ERC721.sol\":722:754   */\n      swap1\n      pop\n        /* \"ERC721.sol\":791:792   */\n      0x00\n        /* \"ERC721.sol\":774:793   */\n      0xffffffffffffffffffffffffffffffffffffffff\n      and\n        /* \"ERC721.sol\":774:779   */\n      dup2\n        /* \"ERC721.sol\":774:793   */\n      0xffffffffffffffffffffffffffffffffffffffff\n      and\n      sub\n        /* \"ERC721.sol\":765:821   */\n      tag_108\n      jumpi\n      mload(0x40)\n      0x08c379a000000000000000000000000000000000000000000000000000000000\n      dup2\n      mstore\n      0x04\n      add\n      tag_109\n      swap1\n      tag_110\n      jump\t// in\n    tag_109:\n      mload(0x40)\n      dup1\n      swap2\n      sub\n      swap1\n      revert\n    tag_108:\n        /* \"ERC721.sol\":839:844   */\n      dup1\n        /* \"ERC721.sol\":832:844   */\n      swap2\n      pop\n      pop\n        /* \"ERC721.sol\":624:852   */\n      swap2\n      swap1\n      pop\n      jump\t// out\n        /* \"ERC721.sol\":1108:1302   */\n    tag_67:\n        /* \"ERC721.sol\":1202:1220   */\n      tag_112\n        /* \"ERC721.sol\":1208:1210   */\n      dup4\n        /* \"ERC721.sol\":1212:1219   */\n      dup4\n        /* \"ERC721.sol\":1202:1207   */\n      tag_113\n        /* \"ERC721.sol\":1202:1220   */\n      jump\t// in\n    tag_112:\n        /* \"ERC721.sol\":1239:1293   */\n      tag_114\n        /* \"ERC721.sol\":1270:1271   */\n      0x00\n        /* \"ERC721.sol\":1274:1276   */\n      dup5\n        /* \"ERC721.sol\":1278:1285   */\n      dup5\n        /* \"ERC721.sol\":1287:1292   */\n      dup5\n        /* \"ERC721.sol\":1239:1261   */\n      tag_115\n        /* \"ERC721.sol\":1239:1293   */\n      jump\t// in\n    tag_114:\n        /* \"ERC721.sol\":1231:1294   */\n      tag_116\n      jumpi\n      0x00\n      dup1\n      revert\n    tag_116:\n        /* \"ERC721.sol\":1108:1302   */\n      pop\n      pop\n      pop\n      jump\t// out\n        /* \"ERC721.sol\":863:984   */\n    tag_71:\n        /* \"ERC721.sol\":920:935   */\n      0x00\n        /* \"ERC721.sol\":960:969   */\n      0x01\n        /* \"ERC721.sol\":960:976   */\n      0x00\n        /* \"ERC721.sol\":970:975   */\n      dup4\n        /* \"ERC721.sol\":960:976   */\n      0xffffffffffffffffffffffffffffffffffffffff\n      and\n      0xffffffffffffffffffffffffffffffffffffffff\n      and\n      dup2\n      mstore\n      0x20\n      add\n      swap1\n      dup2\n      mstore\n      0x20\n      add\n      0x00\n      keccak256\n      sload\n        /* \"ERC721.sol\":953:976   */\n      swap1\n      pop\n        /* \"ERC721.sol\":863:984   */\n      swap2\n      swap1\n      pop\n      jump\t// out\n        /* \"Dron.sol\":268:288   */\n    tag_74:\n      0x07\n      0x00\n      swap1\n      sload\n      swap1\n      0x0100\n      exp\n      swap1\n      div\n      0xffffffffffffffffffffffffffffffffffffffff\n      and\n      dup2\n      jump\t// out\n        /* \"ERC721.sol\":992:1099   */\n    tag_79:\n        /* \"ERC721.sol\":1065:1091   */\n      tag_119\n        /* \"ERC721.sol\":1076:1078   */\n      dup3\n        /* \"ERC721.sol\":1079:1086   */\n      dup3\n        /* \"ERC721.sol\":1065:1091   */\n      mload(0x40)\n      dup1\n      0x20\n      add\n      0x40\n      mstore\n      dup1\n      0x00\n      dup2\n      mstore\n      pop\n        /* \"ERC721.sol\":1065:1074   */\n      tag_67\n        /* \"ERC721.sol\":1065:1091   */\n      jump\t// in\n    tag_119:\n        /* \"ERC721.sol\":992:1099   */\n      pop\n      pop\n      jump\t// out\n        /* \"Dron.sol\":1170:1255   */\n    tag_81:\n        /* \"Dron.sol\":1211:1218   */\n      0x00\n        /* \"Dron.sol\":1243:1247   */\n      sload(0x05)\n        /* \"Dron.sol\":1236:1247   */\n      swap1\n      pop\n        /* \"Dron.sol\":1170:1255   */\n      swap1\n      jump\t// out\n        /* \"Dron.sol\":1264:1360   */\n    tag_84:\n        /* \"Dron.sol\":1310:1317   */\n      0x00\n        /* \"Dron.sol\":1342:1352   */\n      sload(0x03)\n        /* \"Dron.sol\":1335:1352   */\n      swap1\n      pop\n        /* \"Dron.sol\":1264:1360   */\n      swap1\n      jump\t// out\n        /* \"Dron.sol\":736:887   */\n    tag_88:\n        /* \"Dron.sol\":850:879   */\n      tag_123\n        /* \"Dron.sol\":867:869   */\n      dup3\n        /* \"Dron.sol\":871:878   */\n      dup3\n        /* \"Dron.sol\":850:866   */\n      tag_79\n        /* \"Dron.sol\":850:879   */\n      jump\t// in\n    tag_123:\n        /* \"Dron.sol\":736:887   */\n      pop\n      pop\n      jump\t// out\n        /* \"Dron.sol\":116:138   */\n    tag_90:\n      sload(0x02)\n      dup2\n      jump\t// out\n        /* \"ERC721.sol\":1310:1786   */\n    tag_113:\n        /* \"ERC721.sol\":1410:1411   */\n      0x00\n        /* \"ERC721.sol\":1396:1412   */\n      0xffffffffffffffffffffffffffffffffffffffff\n      and\n        /* \"ERC721.sol\":1396:1398   */\n      dup3\n        /* \"ERC721.sol\":1396:1412   */\n      0xffffffffffffffffffffffffffffffffffffffff\n      and\n      sub\n        /* \"ERC721.sol\":1388:1455   */\n      tag_125\n      jumpi\n      mload(0x40)\n      0x08c379a000000000000000000000000000000000000000000000000000000000\n      dup2\n      mstore\n      0x04\n      add\n      tag_126\n      swap1\n      tag_127\n      jump\t// in\n    tag_126:\n      mload(0x40)\n      dup1\n      swap2\n      sub\n      swap1\n      revert\n    tag_125:\n        /* \"ERC721.sol\":1476:1492   */\n      tag_128\n        /* \"ERC721.sol\":1484:1491   */\n      dup2\n        /* \"ERC721.sol\":1476:1483   */\n      tag_129\n        /* \"ERC721.sol\":1476:1492   */\n      jump\t// in\n    tag_128:\n        /* \"ERC721.sol\":1475:1492   */\n      iszero\n        /* \"ERC721.sol\":1466:1531   */\n      tag_130\n      jumpi\n      mload(0x40)\n      0x08c379a000000000000000000000000000000000000000000000000000000000\n      dup2\n      mstore\n      0x04\n      add\n      tag_131\n      swap1\n      tag_132\n      jump\t// in\n    tag_131:\n      mload(0x40)\n      dup1\n      swap2\n      sub\n      swap1\n      revert\n    tag_130:\n        /* \"ERC721.sol\":1694:1695   */\n      0x01\n        /* \"ERC721.sol\":1679:1688   */\n      dup1\n        /* \"ERC721.sol\":1679:1692   */\n      0x00\n        /* \"ERC721.sol\":1689:1691   */\n      dup5\n        /* \"ERC721.sol\":1679:1692   */\n      0xffffffffffffffffffffffffffffffffffffffff\n      and\n      0xffffffffffffffffffffffffffffffffffffffff\n      and\n      dup2\n      mstore\n      0x20\n      add\n      swap1\n      dup2\n      mstore\n      0x20\n      add\n      0x00\n      keccak256\n      0x00\n        /* \"ERC721.sol\":1679:1695   */\n      dup3\n      dup3\n      sload\n      tag_133\n      swap2\n      swap1\n      tag_134\n      jump\t// in\n    tag_133:\n      swap3\n      pop\n      pop\n      dup2\n      swap1\n      sstore\n      pop\n        /* \"ERC721.sol\":1725:1727   */\n      dup2\n        /* \"ERC721.sol\":1706:1713   */\n      0x00\n        /* \"ERC721.sol\":1706:1722   */\n      dup1\n        /* \"ERC721.sol\":1714:1721   */\n      dup4\n        /* \"ERC721.sol\":1706:1722   */\n      dup2\n      mstore\n      0x20\n      add\n      swap1\n      dup2\n      mstore\n      0x20\n      add\n      0x00\n      keccak256\n      0x00\n        /* \"ERC721.sol\":1706:1727   */\n      0x0100\n      exp\n      dup2\n      sload\n      dup2\n      0xffffffffffffffffffffffffffffffffffffffff\n      mul\n      not\n      and\n      swap1\n      dup4\n      0xffffffffffffffffffffffffffffffffffffffff\n      and\n      mul\n      or\n      swap1\n      sstore\n      pop\n        /* \"ERC721.sol\":1770:1777   */\n      dup1\n        /* \"ERC721.sol\":1766:1768   */\n      dup3\n        /* \"ERC721.sol\":1745:1778   */\n      0xffffffffffffffffffffffffffffffffffffffff\n      and\n        /* \"ERC721.sol\":1762:1763   */\n      0x00\n        /* \"ERC721.sol\":1745:1778   */\n      0xffffffffffffffffffffffffffffffffffffffff\n      and\n      0xddf252ad1be2c89b69c2b068fc378daa952ba7f163c4a11628f55a4df523b3ef\n      mload(0x40)\n      mload(0x40)\n      dup1\n      swap2\n      sub\n      swap1\n      log4\n        /* \"ERC721.sol\":1310:1786   */\n      pop\n      pop\n      jump\t// out\n        /* \"ERC721.sol\":1965:2754   */\n    tag_115:\n        /* \"ERC721.sol\":2077:2081   */\n      0x00\n        /* \"ERC721.sol\":2104:2118   */\n      tag_136\n        /* \"ERC721.sol\":2115:2117   */\n      dup5\n        /* \"ERC721.sol\":2104:2114   */\n      tag_137\n        /* \"ERC721.sol\":2104:2118   */\n      jump\t// in\n    tag_136:\n        /* \"ERC721.sol\":2100:2747   */\n      iszero\n      tag_138\n      jumpi\n        /* \"ERC721.sol\":2165:2167   */\n      dup4\n        /* \"ERC721.sol\":2149:2185   */\n      0xffffffffffffffffffffffffffffffffffffffff\n      and\n      0x150b7a02\n        /* \"ERC721.sol\":2186:2196   */\n      caller\n        /* \"ERC721.sol\":2198:2202   */\n      dup8\n        /* \"ERC721.sol\":2204:2211   */\n      dup7\n        /* \"ERC721.sol\":2213:2218   */\n      dup7\n        /* \"ERC721.sol\":2149:2219   */\n      mload(0x40)\n      dup6\n      0xffffffff\n      and\n      0xe0\n      shl\n      dup2\n      mstore\n      0x04\n      add\n      tag_139\n      swap5\n      swap4\n      swap3\n      swap2\n      swap1\n      tag_140\n      jump\t// in\n    tag_139:\n      0x20\n      mload(0x40)\n      dup1\n      dup4\n      sub\n      dup2\n      0x00\n      dup8\n      gas\n      call\n      swap3\n      pop\n      pop\n      pop\n      dup1\n      iszero\n      tag_141\n      jumpi\n      pop\n      mload(0x40)\n      returndatasize\n      not(0x1f)\n      0x1f\n      dup3\n      add\n      and\n      dup3\n      add\n      dup1\n      0x40\n      mstore\n      pop\n      dup2\n      add\n      swap1\n      tag_142\n      swap2\n      swap1\n      tag_143\n      jump\t// in\n    tag_142:\n      0x01\n    tag_141:\n        /* \"ERC721.sol\":2145:2672   */\n      tag_144\n      jumpi\n      returndatasize\n      dup1\n      0x00\n      dup2\n      eq\n      tag_149\n      jumpi\n      mload(0x40)\n      swap2\n      pop\n      and(add(returndatasize, 0x3f), not(0x1f))\n      dup3\n      add\n      0x40\n      mstore\n      returndatasize\n      dup3\n      mstore\n      returndatasize\n      0x00\n      0x20\n      dup5\n      add\n      returndatacopy\n      jump(tag_148)\n    tag_149:\n      0x60\n      swap2\n      pop\n    tag_148:\n      pop\n        /* \"ERC721.sol\":2406:2407   */\n      0x00\n        /* \"ERC721.sol\":2389:2395   */\n      dup2\n        /* \"ERC721.sol\":2389:2402   */\n      mload\n        /* \"ERC721.sol\":2389:2407   */\n      sub\n        /* \"ERC721.sol\":2385:2657   */\n      tag_150\n      jumpi\n        /* \"ERC721.sol\":2432:2492   */\n      mload(0x40)\n      0x08c379a000000000000000000000000000000000000000000000000000000000\n      dup2\n      mstore\n      0x04\n      add\n      tag_151\n      swap1\n      tag_152\n      jump\t// in\n    tag_151:\n      mload(0x40)\n      dup1\n      swap2\n      sub\n      swap1\n      revert\n        /* \"ERC721.sol\":2385:2657   */\n    tag_150:\n        /* \"ERC721.sol\":2607:2613   */\n      dup1\n        /* \"ERC721.sol\":2601:2614   */\n      mload\n        /* \"ERC721.sol\":2592:2598   */\n      dup2\n        /* \"ERC721.sol\":2588:2590   */\n      0x20\n        /* \"ERC721.sol\":2584:2599   */\n      add\n        /* \"ERC721.sol\":2577:2615   */\n      revert\n        /* \"ERC721.sol\":2145:2672   */\n    tag_144:\n        /* \"ERC721.sol\":2280:2321   */\n      shl(0xe0, 0x150b7a02)\n        /* \"ERC721.sol\":2270:2321   */\n      not(0xffffffffffffffffffffffffffffffffffffffffffffffffffffffff)\n      and\n        /* \"ERC721.sol\":2270:2276   */\n      dup2\n        /* \"ERC721.sol\":2270:2321   */\n      not(0xffffffffffffffffffffffffffffffffffffffffffffffffffffffff)\n      and\n      eq\n        /* \"ERC721.sol\":2263:2321   */\n      swap2\n      pop\n      pop\n      jump(tag_135)\n        /* \"ERC721.sol\":2100:2747   */\n    tag_138:\n        /* \"ERC721.sol\":2731:2735   */\n      0x01\n        /* \"ERC721.sol\":2724:2735   */\n      swap1\n      pop\n        /* \"ERC721.sol\":1965:2754   */\n    tag_135:\n      swap5\n      swap4\n      pop\n      pop\n      pop\n      pop\n      jump\t// out\n        /* \"ERC721.sol\":1797:1957   */\n    tag_129:\n        /* \"ERC721.sol\":1862:1866   */\n      0x00\n        /* \"ERC721.sol\":1918:1919   */\n      dup1\n        /* \"ERC721.sol\":1891:1920   */\n      0xffffffffffffffffffffffffffffffffffffffff\n      and\n        /* \"ERC721.sol\":1891:1898   */\n      0x00\n        /* \"ERC721.sol\":1891:1907   */\n      dup1\n        /* \"ERC721.sol\":1899:1906   */\n      dup5\n        /* \"ERC721.sol\":1891:1907   */\n      dup2\n      mstore\n      0x20\n      add\n      swap1\n      dup2\n      mstore\n      0x20\n      add\n      0x00\n      keccak256\n      0x00\n      swap1\n      sload\n      swap1\n      0x0100\n      exp\n      swap1\n      div\n      0xffffffffffffffffffffffffffffffffffffffff\n      and\n        /* \"ERC721.sol\":1891:1920   */\n      0xffffffffffffffffffffffffffffffffffffffff\n      and\n      eq\n      iszero\n        /* \"ERC721.sol\":1884:1920   */\n      swap1\n      pop\n        /* \"ERC721.sol\":1797:1957   */\n      swap2\n      swap1\n      pop\n      jump\t// out\n        /* \"ERC721.sol\":2762:2967   */\n    tag_137:\n        /* \"ERC721.sol\":2819:2823   */\n      0x00\n        /* \"ERC721.sol\":2841:2852   */\n      dup1\n        /* \"ERC721.sol\":2917:2922   */\n      dup3\n        /* \"ERC721.sol\":2905:2923   */\n      extcodesize\n        /* \"ERC721.sol\":2897:2923   */\n      swap1\n      pop\n        /* \"ERC721.sol\":2957:2958   */\n      0x00\n        /* \"ERC721.sol\":2952:2956   */\n      dup2\n        /* \"ERC721.sol\":2952:2958   */\n      0xffffffff\n      and\n      gt\n        /* \"ERC721.sol\":2944:2959   */\n      swap2\n      pop\n      pop\n        /* \"ERC721.sol\":2762:2967   */\n      swap2\n      swap1\n      pop\n      jump\t// out\n        /* \"#utility.yul\":7:97   */\n    tag_158:\n        /* \"#utility.yul\":41:48   */\n      0x00\n        /* \"#utility.yul\":84:89   */\n      dup2\n        /* \"#utility.yul\":77:90   */\n      iszero\n        /* \"#utility.yul\":70:91   */\n      iszero\n        /* \"#utility.yul\":59:91   */\n      swap1\n      pop\n        /* \"#utility.yul\":7:97   */\n      swap2\n      swap1\n      pop\n      jump\t// out\n        /* \"#utility.yul\":103:212   */\n    tag_159:\n        /* \"#utility.yul\":184:205   */\n      tag_208\n        /* \"#utility.yul\":199:204   */\n      dup2\n        /* \"#utility.yul\":184:205   */\n      tag_158\n      jump\t// in\n    tag_208:\n        /* \"#utility.yul\":179:182   */\n      dup3\n        /* \"#utility.yul\":172:206   */\n      mstore\n        /* \"#utility.yul\":103:212   */\n      pop\n      pop\n      jump\t// out\n        /* \"#utility.yul\":218:428   */\n    tag_27:\n        /* \"#utility.yul\":305:309   */\n      0x00\n        /* \"#utility.yul\":343:345   */\n      0x20\n        /* \"#utility.yul\":332:341   */\n      dup3\n        /* \"#utility.yul\":328:346   */\n      add\n        /* \"#utility.yul\":320:346   */\n      swap1\n      pop\n        /* \"#utility.yul\":356:421   */\n      tag_210\n        /* \"#utility.yul\":418:419   */\n      0x00\n        /* \"#utility.yul\":407:416   */\n      dup4\n        /* \"#utility.yul\":403:420   */\n      add\n        /* \"#utility.yul\":394:400   */\n      dup5\n        /* \"#utility.yul\":356:421   */\n      tag_159\n      jump\t// in\n    tag_210:\n        /* \"#utility.yul\":218:428   */\n      swap3\n      swap2\n      pop\n      pop\n      jump\t// out\n        /* \"#utility.yul\":434:509   */\n    tag_160:\n        /* \"#utility.yul\":467:473   */\n      0x00\n        /* \"#utility.yul\":500:502   */\n      0x40\n        /* \"#utility.yul\":494:503   */\n      mload\n        /* \"#utility.yul\":484:503   */\n      swap1\n      pop\n        /* \"#utility.yul\":434:509   */\n      swap1\n      jump\t// out\n        /* \"#utility.yul\":515:632   */\n    tag_161:\n        /* \"#utility.yul\":624:625   */\n      0x00\n        /* \"#utility.yul\":621:622   */\n      dup1\n        /* \"#utility.yul\":614:626   */\n      revert\n        /* \"#utility.yul\":638:755   */\n    tag_162:\n        /* \"#utility.yul\":747:748   */\n      0x00\n        /* \"#utility.yul\":744:745   */\n      dup1\n        /* \"#utility.yul\":737:749   */\n      revert\n        /* \"#utility.yul\":761:910   */\n    tag_163:\n        /* \"#utility.yul\":797:804   */\n      0x00\n        /* \"#utility.yul\":837:903   */\n      0xffffffff00000000000000000000000000000000000000000000000000000000\n        /* \"#utility.yul\":830:835   */\n      dup3\n        /* \"#utility.yul\":826:904   */\n      and\n        /* \"#utility.yul\":815:904   */\n      swap1\n      pop\n        /* \"#utility.yul\":761:910   */\n      swap2\n      swap1\n      pop\n      jump\t// out\n        /* \"#utility.yul\":916:1036   */\n    tag_164:\n        /* \"#utility.yul\":988:1011   */\n      tag_216\n        /* \"#utility.yul\":1005:1010   */\n      dup2\n        /* \"#utility.yul\":988:1011   */\n      tag_163\n      jump\t// in\n    tag_216:\n        /* \"#utility.yul\":981:986   */\n      dup2\n        /* \"#utility.yul\":978:1012   */\n      eq\n        /* \"#utility.yul\":968:1030   */\n      tag_217\n      jumpi\n        /* \"#utility.yul\":1026:1027   */\n      0x00\n        /* \"#utility.yul\":1023:1024   */\n      dup1\n        /* \"#utility.yul\":1016:1028   */\n      revert\n        /* \"#utility.yul\":968:1030   */\n    tag_217:\n        /* \"#utility.yul\":916:1036   */\n      pop\n      jump\t// out\n        /* \"#utility.yul\":1042:1179   */\n    tag_165:\n        /* \"#utility.yul\":1087:1092   */\n      0x00\n        /* \"#utility.yul\":1125:1131   */\n      dup2\n        /* \"#utility.yul\":1112:1132   */\n      calldataload\n        /* \"#utility.yul\":1103:1132   */\n      swap1\n      pop\n        /* \"#utility.yul\":1141:1173   */\n      tag_219\n        /* \"#utility.yul\":1167:1172   */\n      dup2\n        /* \"#utility.yul\":1141:1173   */\n      tag_164\n      jump\t// in\n    tag_219:\n        /* \"#utility.yul\":1042:1179   */\n      swap3\n      swap2\n      pop\n      pop\n      jump\t// out\n        /* \"#utility.yul\":1185:1512   */\n    tag_30:\n        /* \"#utility.yul\":1243:1249   */\n      0x00\n        /* \"#utility.yul\":1292:1294   */\n      0x20\n        /* \"#utility.yul\":1280:1289   */\n      dup3\n        /* \"#utility.yul\":1271:1278   */\n      dup5\n        /* \"#utility.yul\":1267:1290   */\n      sub\n        /* \"#utility.yul\":1263:1295   */\n      slt\n        /* \"#utility.yul\":1260:1379   */\n      iszero\n      tag_221\n      jumpi\n        /* \"#utility.yul\":1298:1377   */\n      tag_222\n      tag_161\n      jump\t// in\n    tag_222:\n        /* \"#utility.yul\":1260:1379   */\n    tag_221:\n        /* \"#utility.yul\":1418:1419   */\n      0x00\n        /* \"#utility.yul\":1443:1495   */\n      tag_223\n        /* \"#utility.yul\":1487:1494   */\n      dup5\n        /* \"#utility.yul\":1478:1484   */\n      dup3\n        /* \"#utility.yul\":1467:1476   */\n      dup6\n        /* \"#utility.yul\":1463:1485   */\n      add\n        /* \"#utility.yul\":1443:1495   */\n      tag_165\n      jump\t// in\n    tag_223:\n        /* \"#utility.yul\":1433:1495   */\n      swap2\n      pop\n        /* \"#utility.yul\":1389:1505   */\n      pop\n        /* \"#utility.yul\":1185:1512   */\n      swap3\n      swap2\n      pop\n      pop\n      jump\t// out\n        /* \"#utility.yul\":1518:1595   */\n    tag_166:\n        /* \"#utility.yul\":1555:1562   */\n      0x00\n        /* \"#utility.yul\":1584:1589   */\n      dup2\n        /* \"#utility.yul\":1573:1589   */\n      swap1\n      pop\n        /* \"#utility.yul\":1518:1595   */\n      swap2\n      swap1\n      pop\n      jump\t// out\n        /* \"#utility.yul\":1601:1719   */\n    tag_167:\n        /* \"#utility.yul\":1688:1712   */\n      tag_226\n        /* \"#utility.yul\":1706:1711   */\n      dup2\n        /* \"#utility.yul\":1688:1712   */\n      tag_166\n      jump\t// in\n    tag_226:\n        /* \"#utility.yul\":1683:1686   */\n      dup3\n        /* \"#utility.yul\":1676:1713   */\n      mstore\n        /* \"#utility.yul\":1601:1719   */\n      pop\n      pop\n      jump\t// out\n        /* \"#utility.yul\":1725:1947   */\n    tag_36:\n        /* \"#utility.yul\":1818:1822   */\n      0x00\n        /* \"#utility.yul\":1856:1858   */\n      0x20\n        /* \"#utility.yul\":1845:1854   */\n      dup3\n        /* \"#utility.yul\":1841:1859   */\n      add\n        /* \"#utility.yul\":1833:1859   */\n      swap1\n      pop\n        /* \"#utility.yul\":1869:1940   */\n      tag_228\n        /* \"#utility.yul\":1937:1938   */\n      0x00\n        /* \"#utility.yul\":1926:1935   */\n      dup4\n        /* \"#utility.yul\":1922:1939   */\n      add\n        /* \"#utility.yul\":1913:1919   */\n      dup5\n        /* \"#utility.yul\":1869:1940   */\n      tag_167\n      jump\t// in\n    tag_228:\n        /* \"#utility.yul\":1725:1947   */\n      swap3\n      swap2\n      pop\n      pop\n      jump\t// out\n        /* \"#utility.yul\":1953:2075   */\n    tag_168:\n        /* \"#utility.yul\":2026:2050   */\n      tag_230\n        /* \"#utility.yul\":2044:2049   */\n      dup2\n        /* \"#utility.yul\":2026:2050   */\n      tag_166\n      jump\t// in\n    tag_230:\n        /* \"#utility.yul\":2019:2024   */\n      dup2\n        /* \"#utility.yul\":2016:2051   */\n      eq\n        /* \"#utility.yul\":2006:2069   */\n      tag_231\n      jumpi\n        /* \"#utility.yul\":2065:2066   */\n      0x00\n        /* \"#utility.yul\":2062:2063   */\n      dup1\n        /* \"#utility.yul\":2055:2067   */\n      revert\n        /* \"#utility.yul\":2006:2069   */\n    tag_231:\n        /* \"#utility.yul\":1953:2075   */\n      pop\n      jump\t// out\n        /* \"#utility.yul\":2081:2220   */\n    tag_169:\n        /* \"#utility.yul\":2127:2132   */\n      0x00\n        /* \"#utility.yul\":2165:2171   */\n      dup2\n        /* \"#utility.yul\":2152:2172   */\n      calldataload\n        /* \"#utility.yul\":2143:2172   */\n      swap1\n      pop\n        /* \"#utility.yul\":2181:2214   */\n      tag_233\n        /* \"#utility.yul\":2208:2213   */\n      dup2\n        /* \"#utility.yul\":2181:2214   */\n      tag_168\n      jump\t// in\n    tag_233:\n        /* \"#utility.yul\":2081:2220   */\n      swap3\n      swap2\n      pop\n      pop\n      jump\t// out\n        /* \"#utility.yul\":2226:2555   */\n    tag_39:\n        /* \"#utility.yul\":2285:2291   */\n      0x00\n        /* \"#utility.yul\":2334:2336   */\n      0x20\n        /* \"#utility.yul\":2322:2331   */\n      dup3\n        /* \"#utility.yul\":2313:2320   */\n      dup5\n        /* \"#utility.yul\":2309:2332   */\n      sub\n        /* \"#utility.yul\":2305:2337   */\n      slt\n        /* \"#utility.yul\":2302:2421   */\n      iszero\n      tag_235\n      jumpi\n        /* \"#utility.yul\":2340:2419   */\n      tag_236\n      tag_161\n      jump\t// in\n    tag_236:\n        /* \"#utility.yul\":2302:2421   */\n    tag_235:\n        /* \"#utility.yul\":2460:2461   */\n      0x00\n        /* \"#utility.yul\":2485:2538   */\n      tag_237\n        /* \"#utility.yul\":2530:2537   */\n      dup5\n        /* \"#utility.yul\":2521:2527   */\n      dup3\n        /* \"#utility.yul\":2510:2519   */\n      dup6\n        /* \"#utility.yul\":2506:2528   */\n      add\n        /* \"#utility.yul\":2485:2538   */\n      tag_169\n      jump\t// in\n    tag_237:\n        /* \"#utility.yul\":2475:2538   */\n      swap2\n      pop\n        /* \"#utility.yul\":2431:2548   */\n      pop\n        /* \"#utility.yul\":2226:2555   */\n      swap3\n      swap2\n      pop\n      pop\n      jump\t// out\n        /* \"#utility.yul\":2561:2660   */\n    tag_170:\n        /* \"#utility.yul\":2613:2619   */\n      0x00\n        /* \"#utility.yul\":2647:2652   */\n      dup2\n        /* \"#utility.yul\":2641:2653   */\n      mload\n        /* \"#utility.yul\":2631:2653   */\n      swap1\n      pop\n        /* \"#utility.yul\":2561:2660   */\n      swap2\n      swap1\n      pop\n      jump\t// out\n        /* \"#utility.yul\":2666:2835   */\n    tag_171:\n        /* \"#utility.yul\":2750:2761   */\n      0x00\n        /* \"#utility.yul\":2784:2790   */\n      dup3\n        /* \"#utility.yul\":2779:2782   */\n      dup3\n        /* \"#utility.yul\":2772:2791   */\n      mstore\n        /* \"#utility.yul\":2824:2828   */\n      0x20\n        /* \"#utility.yul\":2819:2822   */\n      dup3\n        /* \"#utility.yul\":2815:2829   */\n      add\n        /* \"#utility.yul\":2800:2829   */\n      swap1\n      pop\n        /* \"#utility.yul\":2666:2835   */\n      swap3\n      swap2\n      pop\n      pop\n      jump\t// out\n        /* \"#utility.yul\":2841:3148   */\n    tag_172:\n        /* \"#utility.yul\":2909:2910   */\n      0x00\n        /* \"#utility.yul\":2919:3032   */\n    tag_241:\n        /* \"#utility.yul\":2933:2939   */\n      dup4\n        /* \"#utility.yul\":2930:2931   */\n      dup2\n        /* \"#utility.yul\":2927:2940   */\n      lt\n        /* \"#utility.yul\":2919:3032   */\n      iszero\n      tag_243\n      jumpi\n        /* \"#utility.yul\":3018:3019   */\n      dup1\n        /* \"#utility.yul\":3013:3016   */\n      dup3\n        /* \"#utility.yul\":3009:3020   */\n      add\n        /* \"#utility.yul\":3003:3021   */\n      mload\n        /* \"#utility.yul\":2999:3000   */\n      dup2\n        /* \"#utility.yul\":2994:2997   */\n      dup5\n        /* \"#utility.yul\":2990:3001   */\n      add\n        /* \"#utility.yul\":2983:3022   */\n      mstore\n        /* \"#utility.yul\":2955:2957   */\n      0x20\n        /* \"#utility.yul\":2952:2953   */\n      dup2\n        /* \"#utility.yul\":2948:2958   */\n      add\n        /* \"#utility.yul\":2943:2958   */\n      swap1\n      pop\n        /* \"#utility.yul\":2919:3032   */\n      jump(tag_241)\n    tag_243:\n        /* \"#utility.yul\":3050:3056   */\n      dup4\n        /* \"#utility.yul\":3047:3048   */\n      dup2\n        /* \"#utility.yul\":3044:3057   */\n      gt\n        /* \"#utility.yul\":3041:3142   */\n      iszero\n      tag_244\n      jumpi\n        /* \"#utility.yul\":3130:3131   */\n      0x00\n        /* \"#utility.yul\":3121:3127   */\n      dup5\n        /* \"#utility.yul\":3116:3119   */\n      dup5\n        /* \"#utility.yul\":3112:3128   */\n      add\n        /* \"#utility.yul\":3105:3132   */\n      mstore\n        /* \"#utility.yul\":3041:3142   */\n    tag_244:\n        /* \"#utility.yul\":2890:3148   */\n      pop\n        /* \"#utility.yul\":2841:3148   */\n      pop\n      pop\n      pop\n      jump\t// out\n        /* \"#utility.yul\":3154:3256   */\n    tag_173:\n        /* \"#utility.yul\":3195:3201   */\n      0x00\n        /* \"#utility.yul\":3246:3248   */\n      0x1f\n        /* \"#utility.yul\":3242:3249   */\n      not\n        /* \"#utility.yul\":3237:3239   */\n      0x1f\n        /* \"#utility.yul\":3230:3235   */\n      dup4\n        /* \"#utility.yul\":3226:3240   */\n      add\n        /* \"#utility.yul\":3222:3250   */\n      and\n        /* \"#utility.yul\":3212:3250   */\n      swap1\n      pop\n        /* \"#utility.yul\":3154:3256   */\n      swap2\n      swap1\n      pop\n      jump\t// out\n        /* \"#utility.yul\":3262:3626   */\n    tag_174:\n        /* \"#utility.yul\":3350:3353   */\n      0x00\n        /* \"#utility.yul\":3378:3417   */\n      tag_247\n        /* \"#utility.yul\":3411:3416   */\n      dup3\n        /* \"#utility.yul\":3378:3417   */\n      tag_170\n      jump\t// in\n    tag_247:\n        /* \"#utility.yul\":3433:3504   */\n      tag_248\n        /* \"#utility.yul\":3497:3503   */\n      dup2\n        /* \"#utility.yul\":3492:3495   */\n      dup6\n        /* \"#utility.yul\":3433:3504   */\n      tag_171\n      jump\t// in\n    tag_248:\n        /* \"#utility.yul\":3426:3504   */\n      swap4\n      pop\n        /* \"#utility.yul\":3513:3565   */\n      tag_249\n        /* \"#utility.yul\":3558:3564   */\n      dup2\n        /* \"#utility.yul\":3553:3556   */\n      dup6\n        /* \"#utility.yul\":3546:3550   */\n      0x20\n        /* \"#utility.yul\":3539:3544   */\n      dup7\n        /* \"#utility.yul\":3535:3551   */\n      add\n        /* \"#utility.yul\":3513:3565   */\n      tag_172\n      jump\t// in\n    tag_249:\n        /* \"#utility.yul\":3590:3619   */\n      tag_250\n        /* \"#utility.yul\":3612:3618   */\n      dup2\n        /* \"#utility.yul\":3590:3619   */\n      tag_173\n      jump\t// in\n    tag_250:\n        /* \"#utility.yul\":3585:3588   */\n      dup5\n        /* \"#utility.yul\":3581:3620   */\n      add\n        /* \"#utility.yul\":3574:3620   */\n      swap2\n      pop\n        /* \"#utility.yul\":3354:3626   */\n      pop\n        /* \"#utility.yul\":3262:3626   */\n      swap3\n      swap2\n      pop\n      pop\n      jump\t// out\n        /* \"#utility.yul\":3632:3945   */\n    tag_42:\n        /* \"#utility.yul\":3745:3749   */\n      0x00\n        /* \"#utility.yul\":3783:3785   */\n      0x20\n        /* \"#utility.yul\":3772:3781   */\n      dup3\n        /* \"#utility.yul\":3768:3786   */\n      add\n        /* \"#utility.yul\":3760:3786   */\n      swap1\n      pop\n        /* \"#utility.yul\":3832:3841   */\n      dup2\n        /* \"#utility.yul\":3826:3830   */\n      dup2\n        /* \"#utility.yul\":3822:3842   */\n      sub\n        /* \"#utility.yul\":3818:3819   */\n      0x00\n        /* \"#utility.yul\":3807:3816   */\n      dup4\n        /* \"#utility.yul\":3803:3820   */\n      add\n        /* \"#utility.yul\":3796:3843   */\n      mstore\n        /* \"#utility.yul\":3860:3938   */\n      tag_252\n        /* \"#utility.yul\":3933:3937   */\n      dup2\n        /* \"#utility.yul\":3924:3930   */\n      dup5\n        /* \"#utility.yul\":3860:3938   */\n      tag_174\n      jump\t// in\n    tag_252:\n        /* \"#utility.yul\":3852:3938   */\n      swap1\n      pop\n        /* \"#utility.yul\":3632:3945   */\n      swap3\n      swap2\n      pop\n      pop\n      jump\t// out\n        /* \"#utility.yul\":3951:4067   */\n    tag_175:\n        /* \"#utility.yul\":4021:4042   */\n      tag_254\n        /* \"#utility.yul\":4036:4041   */\n      dup2\n        /* \"#utility.yul\":4021:4042   */\n      tag_158\n      jump\t// in\n    tag_254:\n        /* \"#utility.yul\":4014:4019   */\n      dup2\n        /* \"#utility.yul\":4011:4043   */\n      eq\n        /* \"#utility.yul\":4001:4061   */\n      tag_255\n      jumpi\n        /* \"#utility.yul\":4057:4058   */\n      0x00\n        /* \"#utility.yul\":4054:4055   */\n      dup1\n        /* \"#utility.yul\":4047:4059   */\n      revert\n        /* \"#utility.yul\":4001:4061   */\n    tag_255:\n        /* \"#utility.yul\":3951:4067   */\n      pop\n      jump\t// out\n        /* \"#utility.yul\":4073:4206   */\n    tag_176:\n        /* \"#utility.yul\":4116:4121   */\n      0x00\n        /* \"#utility.yul\":4154:4160   */\n      dup2\n        /* \"#utility.yul\":4141:4161   */\n      calldataload\n        /* \"#utility.yul\":4132:4161   */\n      swap1\n      pop\n        /* \"#utility.yul\":4170:4200   */\n      tag_257\n        /* \"#utility.yul\":4194:4199   */\n      dup2\n        /* \"#utility.yul\":4170:4200   */\n      tag_175\n      jump\t// in\n    tag_257:\n        /* \"#utility.yul\":4073:4206   */\n      swap3\n      swap2\n      pop\n      pop\n      jump\t// out\n        /* \"#utility.yul\":4212:4535   */\n    tag_48:\n        /* \"#utility.yul\":4268:4274   */\n      0x00\n        /* \"#utility.yul\":4317:4319   */\n      0x20\n        /* \"#utility.yul\":4305:4314   */\n      dup3\n        /* \"#utility.yul\":4296:4303   */\n      dup5\n        /* \"#utility.yul\":4292:4315   */\n      sub\n        /* \"#utility.yul\":4288:4320   */\n      slt\n        /* \"#utility.yul\":4285:4404   */\n      iszero\n      tag_259\n      jumpi\n        /* \"#utility.yul\":4323:4402   */\n      tag_260\n      tag_161\n      jump\t// in\n    tag_260:\n        /* \"#utility.yul\":4285:4404   */\n    tag_259:\n        /* \"#utility.yul\":4443:4444   */\n      0x00\n        /* \"#utility.yul\":4468:4518   */\n      tag_261\n        /* \"#utility.yul\":4510:4517   */\n      dup5\n        /* \"#utility.yul\":4501:4507   */\n      dup3\n        /* \"#utility.yul\":4490:4499   */\n      dup6\n        /* \"#utility.yul\":4486:4508   */\n      add\n        /* \"#utility.yul\":4468:4518   */\n      tag_176\n      jump\t// in\n    tag_261:\n        /* \"#utility.yul\":4458:4518   */\n      swap2\n      pop\n        /* \"#utility.yul\":4414:4528   */\n      pop\n        /* \"#utility.yul\":4212:4535   */\n      swap3\n      swap2\n      pop\n      pop\n      jump\t// out\n        /* \"#utility.yul\":4541:4667   */\n    tag_177:\n        /* \"#utility.yul\":4578:4585   */\n      0x00\n        /* \"#utility.yul\":4618:4660   */\n      0xffffffffffffffffffffffffffffffffffffffff\n        /* \"#utility.yul\":4611:4616   */\n      dup3\n        /* \"#utility.yul\":4607:4661   */\n      and\n        /* \"#utility.yul\":4596:4661   */\n      swap1\n      pop\n        /* \"#utility.yul\":4541:4667   */\n      swap2\n      swap1\n      pop\n      jump\t// out\n        /* \"#utility.yul\":4673:4769   */\n    tag_178:\n        /* \"#utility.yul\":4710:4717   */\n      0x00\n        /* \"#utility.yul\":4739:4763   */\n      tag_264\n        /* \"#utility.yul\":4757:4762   */\n      dup3\n        /* \"#utility.yul\":4739:4763   */\n      tag_177\n      jump\t// in\n    tag_264:\n        /* \"#utility.yul\":4728:4763   */\n      swap1\n      pop\n        /* \"#utility.yul\":4673:4769   */\n      swap2\n      swap1\n      pop\n      jump\t// out\n        /* \"#utility.yul\":4775:4893   */\n    tag_179:\n        /* \"#utility.yul\":4862:4886   */\n      tag_266\n        /* \"#utility.yul\":4880:4885   */\n      dup2\n        /* \"#utility.yul\":4862:4886   */\n      tag_178\n      jump\t// in\n    tag_266:\n        /* \"#utility.yul\":4857:4860   */\n      dup3\n        /* \"#utility.yul\":4850:4887   */\n      mstore\n        /* \"#utility.yul\":4775:4893   */\n      pop\n      pop\n      jump\t// out\n        /* \"#utility.yul\":4899:5121   */\n    tag_63:\n        /* \"#utility.yul\":4992:4996   */\n      0x00\n        /* \"#utility.yul\":5030:5032   */\n      0x20\n        /* \"#utility.yul\":5019:5028   */\n      dup3\n        /* \"#utility.yul\":5015:5033   */\n      add\n        /* \"#utility.yul\":5007:5033   */\n      swap1\n      pop\n        /* \"#utility.yul\":5043:5114   */\n      tag_268\n        /* \"#utility.yul\":5111:5112   */\n      0x00\n        /* \"#utility.yul\":5100:5109   */\n      dup4\n        /* \"#utility.yul\":5096:5113   */\n      add\n        /* \"#utility.yul\":5087:5093   */\n      dup5\n        /* \"#utility.yul\":5043:5114   */\n      tag_179\n      jump\t// in\n    tag_268:\n        /* \"#utility.yul\":4899:5121   */\n      swap3\n      swap2\n      pop\n      pop\n      jump\t// out\n        /* \"#utility.yul\":5127:5249   */\n    tag_180:\n        /* \"#utility.yul\":5200:5224   */\n      tag_270\n        /* \"#utility.yul\":5218:5223   */\n      dup2\n        /* \"#utility.yul\":5200:5224   */\n      tag_178\n      jump\t// in\n    tag_270:\n        /* \"#utility.yul\":5193:5198   */\n      dup2\n        /* \"#utility.yul\":5190:5225   */\n      eq\n        /* \"#utility.yul\":5180:5243   */\n      tag_271\n      jumpi\n        /* \"#utility.yul\":5239:5240   */\n      0x00\n        /* \"#utility.yul\":5236:5237   */\n      dup1\n        /* \"#utility.yul\":5229:5241   */\n      revert\n        /* \"#utility.yul\":5180:5243   */\n    tag_271:\n        /* \"#utility.yul\":5127:5249   */\n      pop\n      jump\t// out\n        /* \"#utility.yul\":5255:5394   */\n    tag_181:\n        /* \"#utility.yul\":5301:5306   */\n      0x00\n        /* \"#utility.yul\":5339:5345   */\n      dup2\n        /* \"#utility.yul\":5326:5346   */\n      calldataload\n        /* \"#utility.yul\":5317:5346   */\n      swap1\n      pop\n        /* \"#utility.yul\":5355:5388   */\n      tag_273\n        /* \"#utility.yul\":5382:5387   */\n      dup2\n        /* \"#utility.yul\":5355:5388   */\n      tag_180\n      jump\t// in\n    tag_273:\n        /* \"#utility.yul\":5255:5394   */\n      swap3\n      swap2\n      pop\n      pop\n      jump\t// out\n        /* \"#utility.yul\":5400:5517   */\n    tag_182:\n        /* \"#utility.yul\":5509:5510   */\n      0x00\n        /* \"#utility.yul\":5506:5507   */\n      dup1\n        /* \"#utility.yul\":5499:5511   */\n      revert\n        /* \"#utility.yul\":5523:5640   */\n    tag_183:\n        /* \"#utility.yul\":5632:5633   */\n      0x00\n        /* \"#utility.yul\":5629:5630   */\n      dup1\n        /* \"#utility.yul\":5622:5634   */\n      revert\n        /* \"#utility.yul\":5646:5826   */\n    tag_184:\n        /* \"#utility.yul\":5694:5771   */\n      0x4e487b7100000000000000000000000000000000000000000000000000000000\n        /* \"#utility.yul\":5691:5692   */\n      0x00\n        /* \"#utility.yul\":5684:5772   */\n      mstore\n        /* \"#utility.yul\":5791:5795   */\n      0x41\n        /* \"#utility.yul\":5788:5789   */\n      0x04\n        /* \"#utility.yul\":5781:5796   */\n      mstore\n        /* \"#utility.yul\":5815:5819   */\n      0x24\n        /* \"#utility.yul\":5812:5813   */\n      0x00\n        /* \"#utility.yul\":5805:5820   */\n      revert\n        /* \"#utility.yul\":5832:6113   */\n    tag_185:\n        /* \"#utility.yul\":5915:5942   */\n      tag_278\n        /* \"#utility.yul\":5937:5941   */\n      dup3\n        /* \"#utility.yul\":5915:5942   */\n      tag_173\n      jump\t// in\n    tag_278:\n        /* \"#utility.yul\":5907:5913   */\n      dup2\n        /* \"#utility.yul\":5903:5943   */\n      add\n        /* \"#utility.yul\":6045:6051   */\n      dup2\n        /* \"#utility.yul\":6033:6043   */\n      dup2\n        /* \"#utility.yul\":6030:6052   */\n      lt\n        /* \"#utility.yul\":6009:6027   */\n      0xffffffffffffffff\n        /* \"#utility.yul\":5997:6007   */\n      dup3\n        /* \"#utility.yul\":5994:6028   */\n      gt\n        /* \"#utility.yul\":5991:6053   */\n      or\n        /* \"#utility.yul\":5988:6076   */\n      iszero\n      tag_279\n      jumpi\n        /* \"#utility.yul\":6056:6074   */\n      tag_280\n      tag_184\n      jump\t// in\n    tag_280:\n        /* \"#utility.yul\":5988:6076   */\n    tag_279:\n        /* \"#utility.yul\":6096:6106   */\n      dup1\n        /* \"#utility.yul\":6092:6094   */\n      0x40\n        /* \"#utility.yul\":6085:6107   */\n      mstore\n        /* \"#utility.yul\":5875:6113   */\n      pop\n        /* \"#utility.yul\":5832:6113   */\n      pop\n      pop\n      jump\t// out\n        /* \"#utility.yul\":6119:6248   */\n    tag_186:\n        /* \"#utility.yul\":6153:6159   */\n      0x00\n        /* \"#utility.yul\":6180:6200   */\n      tag_282\n      tag_160\n      jump\t// in\n    tag_282:\n        /* \"#utility.yul\":6170:6200   */\n      swap1\n      pop\n        /* \"#utility.yul\":6209:6242   */\n      tag_283\n        /* \"#utility.yul\":6237:6241   */\n      dup3\n        /* \"#utility.yul\":6229:6235   */\n      dup3\n        /* \"#utility.yul\":6209:6242   */\n      tag_185\n      jump\t// in\n    tag_283:\n        /* \"#utility.yul\":6119:6248   */\n      swap2\n      swap1\n      pop\n      jump\t// out\n        /* \"#utility.yul\":6254:6561   */\n    tag_187:\n        /* \"#utility.yul\":6315:6319   */\n      0x00\n        /* \"#utility.yul\":6405:6423   */\n      0xffffffffffffffff\n        /* \"#utility.yul\":6397:6403   */\n      dup3\n        /* \"#utility.yul\":6394:6424   */\n      gt\n        /* \"#utility.yul\":6391:6447   */\n      iszero\n      tag_285\n      jumpi\n        /* \"#utility.yul\":6427:6445   */\n      tag_286\n      tag_184\n      jump\t// in\n    tag_286:\n        /* \"#utility.yul\":6391:6447   */\n    tag_285:\n        /* \"#utility.yul\":6465:6494   */\n      tag_287\n        /* \"#utility.yul\":6487:6493   */\n      dup3\n        /* \"#utility.yul\":6465:6494   */\n      tag_173\n      jump\t// in\n    tag_287:\n        /* \"#utility.yul\":6457:6494   */\n      swap1\n      pop\n        /* \"#utility.yul\":6549:6553   */\n      0x20\n        /* \"#utility.yul\":6543:6547   */\n      dup2\n        /* \"#utility.yul\":6539:6554   */\n      add\n        /* \"#utility.yul\":6531:6554   */\n      swap1\n      pop\n        /* \"#utility.yul\":6254:6561   */\n      swap2\n      swap1\n      pop\n      jump\t// out\n        /* \"#utility.yul\":6567:6721   */\n    tag_188:\n        /* \"#utility.yul\":6651:6657   */\n      dup3\n        /* \"#utility.yul\":6646:6649   */\n      dup2\n        /* \"#utility.yul\":6641:6644   */\n      dup4\n        /* \"#utility.yul\":6628:6658   */\n      calldatacopy\n        /* \"#utility.yul\":6713:6714   */\n      0x00\n        /* \"#utility.yul\":6704:6710   */\n      dup4\n        /* \"#utility.yul\":6699:6702   */\n      dup4\n        /* \"#utility.yul\":6695:6711   */\n      add\n        /* \"#utility.yul\":6688:6715   */\n      mstore\n        /* \"#utility.yul\":6567:6721   */\n      pop\n      pop\n      pop\n      jump\t// out\n        /* \"#utility.yul\":6727:7137   */\n    tag_189:\n        /* \"#utility.yul\":6804:6809   */\n      0x00\n        /* \"#utility.yul\":6829:6894   */\n      tag_290\n        /* \"#utility.yul\":6845:6893   */\n      tag_291\n        /* \"#utility.yul\":6886:6892   */\n      dup5\n        /* \"#utility.yul\":6845:6893   */\n      tag_187\n      jump\t// in\n    tag_291:\n        /* \"#utility.yul\":6829:6894   */\n      tag_186\n      jump\t// in\n    tag_290:\n        /* \"#utility.yul\":6820:6894   */\n      swap1\n      pop\n        /* \"#utility.yul\":6917:6923   */\n      dup3\n        /* \"#utility.yul\":6910:6915   */\n      dup2\n        /* \"#utility.yul\":6903:6924   */\n      mstore\n        /* \"#utility.yul\":6955:6959   */\n      0x20\n        /* \"#utility.yul\":6948:6953   */\n      dup2\n        /* \"#utility.yul\":6944:6960   */\n      add\n        /* \"#utility.yul\":6993:6996   */\n      dup5\n        /* \"#utility.yul\":6984:6990   */\n      dup5\n        /* \"#utility.yul\":6979:6982   */\n      dup5\n        /* \"#utility.yul\":6975:6991   */\n      add\n        /* \"#utility.yul\":6972:6997   */\n      gt\n        /* \"#utility.yul\":6969:7081   */\n      iszero\n      tag_292\n      jumpi\n        /* \"#utility.yul\":7000:7079   */\n      tag_293\n      tag_183\n      jump\t// in\n    tag_293:\n        /* \"#utility.yul\":6969:7081   */\n    tag_292:\n        /* \"#utility.yul\":7090:7131   */\n      tag_294\n        /* \"#utility.yul\":7124:7130   */\n      dup5\n        /* \"#utility.yul\":7119:7122   */\n      dup3\n        /* \"#utility.yul\":7114:7117   */\n      dup6\n        /* \"#utility.yul\":7090:7131   */\n      tag_188\n      jump\t// in\n    tag_294:\n        /* \"#utility.yul\":6810:7137   */\n      pop\n        /* \"#utility.yul\":6727:7137   */\n      swap4\n      swap3\n      pop\n      pop\n      pop\n      jump\t// out\n        /* \"#utility.yul\":7156:7494   */\n    tag_190:\n        /* \"#utility.yul\":7211:7216   */\n      0x00\n        /* \"#utility.yul\":7260:7263   */\n      dup3\n        /* \"#utility.yul\":7253:7257   */\n      0x1f\n        /* \"#utility.yul\":7245:7251   */\n      dup4\n        /* \"#utility.yul\":7241:7258   */\n      add\n        /* \"#utility.yul\":7237:7264   */\n      slt\n        /* \"#utility.yul\":7227:7349   */\n      tag_296\n      jumpi\n        /* \"#utility.yul\":7268:7347   */\n      tag_297\n      tag_182\n      jump\t// in\n    tag_297:\n        /* \"#utility.yul\":7227:7349   */\n    tag_296:\n        /* \"#utility.yul\":7385:7391   */\n      dup2\n        /* \"#utility.yul\":7372:7392   */\n      calldataload\n        /* \"#utility.yul\":7410:7488   */\n      tag_298\n        /* \"#utility.yul\":7484:7487   */\n      dup5\n        /* \"#utility.yul\":7476:7482   */\n      dup3\n        /* \"#utility.yul\":7469:7473   */\n      0x20\n        /* \"#utility.yul\":7461:7467   */\n      dup7\n        /* \"#utility.yul\":7457:7474   */\n      add\n        /* \"#utility.yul\":7410:7488   */\n      tag_189\n      jump\t// in\n    tag_298:\n        /* \"#utility.yul\":7401:7488   */\n      swap2\n      pop\n        /* \"#utility.yul\":7217:7494   */\n      pop\n        /* \"#utility.yul\":7156:7494   */\n      swap3\n      swap2\n      pop\n      pop\n      jump\t// out\n        /* \"#utility.yul\":7500:8297   */\n    tag_66:\n        /* \"#utility.yul\":7586:7592   */\n      0x00\n        /* \"#utility.yul\":7594:7600   */\n      dup1\n        /* \"#utility.yul\":7602:7608   */\n      0x00\n        /* \"#utility.yul\":7651:7653   */\n      0x60\n        /* \"#utility.yul\":7639:7648   */\n      dup5\n        /* \"#utility.yul\":7630:7637   */\n      dup7\n        /* \"#utility.yul\":7626:7649   */\n      sub\n        /* \"#utility.yul\":7622:7654   */\n      slt\n        /* \"#utility.yul\":7619:7738   */\n      iszero\n      tag_300\n      jumpi\n        /* \"#utility.yul\":7657:7736   */\n      tag_301\n      tag_161\n      jump\t// in\n    tag_301:\n        /* \"#utility.yul\":7619:7738   */\n    tag_300:\n        /* \"#utility.yul\":7777:7778   */\n      0x00\n        /* \"#utility.yul\":7802:7855   */\n      tag_302\n        /* \"#utility.yul\":7847:7854   */\n      dup7\n        /* \"#utility.yul\":7838:7844   */\n      dup3\n        /* \"#utility.yul\":7827:7836   */\n      dup8\n        /* \"#utility.yul\":7823:7845   */\n      add\n        /* \"#utility.yul\":7802:7855   */\n      tag_181\n      jump\t// in\n    tag_302:\n        /* \"#utility.yul\":7792:7855   */\n      swap4\n      pop\n        /* \"#utility.yul\":7748:7865   */\n      pop\n        /* \"#utility.yul\":7904:7906   */\n      0x20\n        /* \"#utility.yul\":7930:7983   */\n      tag_303\n        /* \"#utility.yul\":7975:7982   */\n      dup7\n        /* \"#utility.yul\":7966:7972   */\n      dup3\n        /* \"#utility.yul\":7955:7964   */\n      dup8\n        /* \"#utility.yul\":7951:7973   */\n      add\n        /* \"#utility.yul\":7930:7983   */\n      tag_169\n      jump\t// in\n    tag_303:\n        /* \"#utility.yul\":7920:7983   */\n      swap3\n      pop\n        /* \"#utility.yul\":7875:7993   */\n      pop\n        /* \"#utility.yul\":8060:8062   */\n      0x40\n        /* \"#utility.yul\":8049:8058   */\n      dup5\n        /* \"#utility.yul\":8045:8063   */\n      add\n        /* \"#utility.yul\":8032:8064   */\n      calldataload\n        /* \"#utility.yul\":8091:8109   */\n      0xffffffffffffffff\n        /* \"#utility.yul\":8083:8089   */\n      dup2\n        /* \"#utility.yul\":8080:8110   */\n      gt\n        /* \"#utility.yul\":8077:8194   */\n      iszero\n      tag_304\n      jumpi\n        /* \"#utility.yul\":8113:8192   */\n      tag_305\n      tag_162\n      jump\t// in\n    tag_305:\n        /* \"#utility.yul\":8077:8194   */\n    tag_304:\n        /* \"#utility.yul\":8218:8280   */\n      tag_306\n        /* \"#utility.yul\":8272:8279   */\n      dup7\n        /* \"#utility.yul\":8263:8269   */\n      dup3\n        /* \"#utility.yul\":8252:8261   */\n      dup8\n        /* \"#utility.yul\":8248:8270   */\n      add\n        /* \"#utility.yul\":8218:8280   */\n      tag_190\n      jump\t// in\n    tag_306:\n        /* \"#utility.yul\":8208:8280   */\n      swap2\n      pop\n        /* \"#utility.yul\":8003:8290   */\n      pop\n        /* \"#utility.yul\":7500:8297   */\n      swap3\n      pop\n      swap3\n      pop\n      swap3\n      jump\t// out\n        /* \"#utility.yul\":8303:8632   */\n    tag_70:\n        /* \"#utility.yul\":8362:8368   */\n      0x00\n        /* \"#utility.yul\":8411:8413   */\n      0x20\n        /* \"#utility.yul\":8399:8408   */\n      dup3\n        /* \"#utility.yul\":8390:8397   */\n      dup5\n        /* \"#utility.yul\":8386:8409   */\n      sub\n        /* \"#utility.yul\":8382:8414   */\n      slt\n        /* \"#utility.yul\":8379:8498   */\n      iszero\n      tag_308\n      jumpi\n        /* \"#utility.yul\":8417:8496   */\n      tag_309\n      tag_161\n      jump\t// in\n    tag_309:\n        /* \"#utility.yul\":8379:8498   */\n    tag_308:\n        /* \"#utility.yul\":8537:8538   */\n      0x00\n        /* \"#utility.yul\":8562:8615   */\n      tag_310\n        /* \"#utility.yul\":8607:8614   */\n      dup5\n        /* \"#utility.yul\":8598:8604   */\n      dup3\n        /* \"#utility.yul\":8587:8596   */\n      dup6\n        /* \"#utility.yul\":8583:8605   */\n      add\n        /* \"#utility.yul\":8562:8615   */\n      tag_181\n      jump\t// in\n    tag_310:\n        /* \"#utility.yul\":8552:8615   */\n      swap2\n      pop\n        /* \"#utility.yul\":8508:8625   */\n      pop\n        /* \"#utility.yul\":8303:8632   */\n      swap3\n      swap2\n      pop\n      pop\n      jump\t// out\n        /* \"#utility.yul\":8638:9112   */\n    tag_78:\n        /* \"#utility.yul\":8706:8712   */\n      0x00\n        /* \"#utility.yul\":8714:8720   */\n      dup1\n        /* \"#utility.yul\":8763:8765   */\n      0x40\n        /* \"#utility.yul\":8751:8760   */\n      dup4\n        /* \"#utility.yul\":8742:8749   */\n      dup6\n        /* \"#utility.yul\":8738:8761   */\n      sub\n        /* \"#utility.yul\":8734:8766   */\n      slt\n        /* \"#utility.yul\":8731:8850   */\n      iszero\n      tag_312\n      jumpi\n        /* \"#utility.yul\":8769:8848   */\n      tag_313\n      tag_161\n      jump\t// in\n    tag_313:\n        /* \"#utility.yul\":8731:8850   */\n    tag_312:\n        /* \"#utility.yul\":8889:8890   */\n      0x00\n        /* \"#utility.yul\":8914:8967   */\n      tag_314\n        /* \"#utility.yul\":8959:8966   */\n      dup6\n        /* \"#utility.yul\":8950:8956   */\n      dup3\n        /* \"#utility.yul\":8939:8948   */\n      dup7\n        /* \"#utility.yul\":8935:8957   */\n      add\n        /* \"#utility.yul\":8914:8967   */\n      tag_181\n      jump\t// in\n    tag_314:\n        /* \"#utility.yul\":8904:8967   */\n      swap3\n      pop\n        /* \"#utility.yul\":8860:8977   */\n      pop\n        /* \"#utility.yul\":9016:9018   */\n      0x20\n        /* \"#utility.yul\":9042:9095   */\n      tag_315\n        /* \"#utility.yul\":9087:9094   */\n      dup6\n        /* \"#utility.yul\":9078:9084   */\n      dup3\n        /* \"#utility.yul\":9067:9076   */\n      dup7\n        /* \"#utility.yul\":9063:9085   */\n      add\n        /* \"#utility.yul\":9042:9095   */\n      tag_169\n      jump\t// in\n    tag_315:\n        /* \"#utility.yul\":9032:9095   */\n      swap2\n      pop\n        /* \"#utility.yul\":8987:9105   */\n      pop\n        /* \"#utility.yul\":8638:9112   */\n      swap3\n      pop\n      swap3\n      swap1\n      pop\n      jump\t// out\n        /* \"#utility.yul\":9118:9298   */\n    tag_191:\n        /* \"#utility.yul\":9166:9243   */\n      0x4e487b7100000000000000000000000000000000000000000000000000000000\n        /* \"#utility.yul\":9163:9164   */\n      0x00\n        /* \"#utility.yul\":9156:9244   */\n      mstore\n        /* \"#utility.yul\":9263:9267   */\n      0x22\n        /* \"#utility.yul\":9260:9261   */\n      0x04\n        /* \"#utility.yul\":9253:9268   */\n      mstore\n        /* \"#utility.yul\":9287:9291   */\n      0x24\n        /* \"#utility.yul\":9284:9285   */\n      0x00\n        /* \"#utility.yul\":9277:9292   */\n      revert\n        /* \"#utility.yul\":9304:9624   */\n    tag_97:\n        /* \"#utility.yul\":9348:9354   */\n      0x00\n        /* \"#utility.yul\":9385:9386   */\n      0x02\n        /* \"#utility.yul\":9379:9383   */\n      dup3\n        /* \"#utility.yul\":9375:9387   */\n      div\n        /* \"#utility.yul\":9365:9387   */\n      swap1\n      pop\n        /* \"#utility.yul\":9432:9433   */\n      0x01\n        /* \"#utility.yul\":9426:9430   */\n      dup3\n        /* \"#utility.yul\":9422:9434   */\n      and\n        /* \"#utility.yul\":9453:9471   */\n      dup1\n        /* \"#utility.yul\":9443:9524   */\n      tag_318\n      jumpi\n        /* \"#utility.yul\":9509:9513   */\n      0x7f\n        /* \"#utility.yul\":9501:9507   */\n      dup3\n        /* \"#utility.yul\":9497:9514   */\n      and\n        /* \"#utility.yul\":9487:9514   */\n      swap2\n      pop\n        /* \"#utility.yul\":9443:9524   */\n    tag_318:\n        /* \"#utility.yul\":9571:9573   */\n      0x20\n        /* \"#utility.yul\":9563:9569   */\n      dup3\n        /* \"#utility.yul\":9560:9574   */\n      lt\n        /* \"#utility.yul\":9540:9558   */\n      dup2\n        /* \"#utility.yul\":9537:9575   */\n      sub\n        /* \"#utility.yul\":9534:9618   */\n      tag_319\n      jumpi\n        /* \"#utility.yul\":9590:9608   */\n      tag_320\n      tag_191\n      jump\t// in\n    tag_320:\n        /* \"#utility.yul\":9534:9618   */\n    tag_319:\n        /* \"#utility.yul\":9355:9624   */\n      pop\n        /* \"#utility.yul\":9304:9624   */\n      swap2\n      swap1\n      pop\n      jump\t// out\n        /* \"#utility.yul\":9630:9803   */\n    tag_192:\n        /* \"#utility.yul\":9770:9795   */\n      0x546f6b656e20696420646f6573206e6f74206578697374000000000000000000\n        /* \"#utility.yul\":9766:9767   */\n      0x00\n        /* \"#utility.yul\":9758:9764   */\n      dup3\n        /* \"#utility.yul\":9754:9768   */\n      add\n        /* \"#utility.yul\":9747:9796   */\n      mstore\n        /* \"#utility.yul\":9630:9803   */\n      pop\n      jump\t// out\n        /* \"#utility.yul\":9809:10175   */\n    tag_193:\n        /* \"#utility.yul\":9951:9954   */\n      0x00\n        /* \"#utility.yul\":9972:10039   */\n      tag_323\n        /* \"#utility.yul\":10036:10038   */\n      0x17\n        /* \"#utility.yul\":10031:10034   */\n      dup4\n        /* \"#utility.yul\":9972:10039   */\n      tag_171\n      jump\t// in\n    tag_323:\n        /* \"#utility.yul\":9965:10039   */\n      swap2\n      pop\n        /* \"#utility.yul\":10048:10141   */\n      tag_324\n        /* \"#utility.yul\":10137:10140   */\n      dup3\n        /* \"#utility.yul\":10048:10141   */\n      tag_192\n      jump\t// in\n    tag_324:\n        /* \"#utility.yul\":10166:10168   */\n      0x20\n        /* \"#utility.yul\":10161:10164   */\n      dup3\n        /* \"#utility.yul\":10157:10169   */\n      add\n        /* \"#utility.yul\":10150:10169   */\n      swap1\n      pop\n        /* \"#utility.yul\":9809:10175   */\n      swap2\n      swap1\n      pop\n      jump\t// out\n        /* \"#utility.yul\":10181:10600   */\n    tag_110:\n        /* \"#utility.yul\":10347:10351   */\n      0x00\n        /* \"#utility.yul\":10385:10387   */\n      0x20\n        /* \"#utility.yul\":10374:10383   */\n      dup3\n        /* \"#utility.yul\":10370:10388   */\n      add\n        /* \"#utility.yul\":10362:10388   */\n      swap1\n      pop\n        /* \"#utility.yul\":10434:10443   */\n      dup2\n        /* \"#utility.yul\":10428:10432   */\n      dup2\n        /* \"#utility.yul\":10424:10444   */\n      sub\n        /* \"#utility.yul\":10420:10421   */\n      0x00\n        /* \"#utility.yul\":10409:10418   */\n      dup4\n        /* \"#utility.yul\":10405:10422   */\n      add\n        /* \"#utility.yul\":10398:10445   */\n      mstore\n        /* \"#utility.yul\":10462:10593   */\n      tag_326\n        /* \"#utility.yul\":10588:10592   */\n      dup2\n        /* \"#utility.yul\":10462:10593   */\n      tag_193\n      jump\t// in\n    tag_326:\n        /* \"#utility.yul\":10454:10593   */\n      swap1\n      pop\n        /* \"#utility.yul\":10181:10600   */\n      swap2\n      swap1\n      pop\n      jump\t// out\n        /* \"#utility.yul\":10606:10831   */\n    tag_194:\n        /* \"#utility.yul\":10746:10780   */\n      0x455243373231204552524f523a206d696e7420746f20746865207a65726f2061\n        /* \"#utility.yul\":10742:10743   */\n      0x00\n        /* \"#utility.yul\":10734:10740   */\n      dup3\n        /* \"#utility.yul\":10730:10744   */\n      add\n        /* \"#utility.yul\":10723:10781   */\n      mstore\n        /* \"#utility.yul\":10815:10823   */\n      0x6464726573730000000000000000000000000000000000000000000000000000\n        /* \"#utility.yul\":10810:10812   */\n      0x20\n        /* \"#utility.yul\":10802:10808   */\n      dup3\n        /* \"#utility.yul\":10798:10813   */\n      add\n        /* \"#utility.yul\":10791:10824   */\n      mstore\n        /* \"#utility.yul\":10606:10831   */\n      pop\n      jump\t// out\n        /* \"#utility.yul\":10837:11203   */\n    tag_195:\n        /* \"#utility.yul\":10979:10982   */\n      0x00\n        /* \"#utility.yul\":11000:11067   */\n      tag_329\n        /* \"#utility.yul\":11064:11066   */\n      0x26\n        /* \"#utility.yul\":11059:11062   */\n      dup4\n        /* \"#utility.yul\":11000:11067   */\n      tag_171\n      jump\t// in\n    tag_329:\n        /* \"#utility.yul\":10993:11067   */\n      swap2\n      pop\n        /* \"#utility.yul\":11076:11169   */\n      tag_330\n        /* \"#utility.yul\":11165:11168   */\n      dup3\n        /* \"#utility.yul\":11076:11169   */\n      tag_194\n      jump\t// in\n    tag_330:\n        /* \"#utility.yul\":11194:11196   */\n      0x40\n        /* \"#utility.yul\":11189:11192   */\n      dup3\n        /* \"#utility.yul\":11185:11197   */\n      add\n        /* \"#utility.yul\":11178:11197   */\n      swap1\n      pop\n        /* \"#utility.yul\":10837:11203   */\n      swap2\n      swap1\n      pop\n      jump\t// out\n        /* \"#utility.yul\":11209:11628   */\n    tag_127:\n        /* \"#utility.yul\":11375:11379   */\n      0x00\n        /* \"#utility.yul\":11413:11415   */\n      0x20\n        /* \"#utility.yul\":11402:11411   */\n      dup3\n        /* \"#utility.yul\":11398:11416   */\n      add\n        /* \"#utility.yul\":11390:11416   */\n      swap1\n      pop\n        /* \"#utility.yul\":11462:11471   */\n      dup2\n        /* \"#utility.yul\":11456:11460   */\n      dup2\n        /* \"#utility.yul\":11452:11472   */\n      sub\n        /* \"#utility.yul\":11448:11449   */\n      0x00\n        /* \"#utility.yul\":11437:11446   */\n      dup4\n        /* \"#utility.yul\":11433:11450   */\n      add\n        /* \"#utility.yul\":11426:11473   */\n      mstore\n        /* \"#utility.yul\":11490:11621   */\n      tag_332\n        /* \"#utility.yul\":11616:11620   */\n      dup2\n        /* \"#utility.yul\":11490:11621   */\n      tag_195\n      jump\t// in\n    tag_332:\n        /* \"#utility.yul\":11482:11621   */\n      swap1\n      pop\n        /* \"#utility.yul\":11209:11628   */\n      swap2\n      swap1\n      pop\n      jump\t// out\n        /* \"#utility.yul\":11634:11855   */\n    tag_196:\n        /* \"#utility.yul\":11774:11808   */\n      0x455243373231204552524f523a20546f6b656e20616c7265616479206d696e74\n        /* \"#utility.yul\":11770:11771   */\n      0x00\n        /* \"#utility.yul\":11762:11768   */\n      dup3\n        /* \"#utility.yul\":11758:11772   */\n      add\n        /* \"#utility.yul\":11751:11809   */\n      mstore\n        /* \"#utility.yul\":11843:11847   */\n      0x6564000000000000000000000000000000000000000000000000000000000000\n        /* \"#utility.yul\":11838:11840   */\n      0x20\n        /* \"#utility.yul\":11830:11836   */\n      dup3\n        /* \"#utility.yul\":11826:11841   */\n      add\n        /* \"#utility.yul\":11819:11848   */\n      mstore\n        /* \"#utility.yul\":11634:11855   */\n      pop\n      jump\t// out\n        /* \"#utility.yul\":11861:12227   */\n    tag_197:\n        /* \"#utility.yul\":12003:12006   */\n      0x00\n        /* \"#utility.yul\":12024:12091   */\n      tag_335\n        /* \"#utility.yul\":12088:12090   */\n      0x22\n        /* \"#utility.yul\":12083:12086   */\n      dup4\n        /* \"#utility.yul\":12024:12091   */\n      tag_171\n      jump\t// in\n    tag_335:\n        /* \"#utility.yul\":12017:12091   */\n      swap2\n      pop\n        /* \"#utility.yul\":12100:12193   */\n      tag_336\n        /* \"#utility.yul\":12189:12192   */\n      dup3\n        /* \"#utility.yul\":12100:12193   */\n      tag_196\n      jump\t// in\n    tag_336:\n        /* \"#utility.yul\":12218:12220   */\n      0x40\n        /* \"#utility.yul\":12213:12216   */\n      dup3\n        /* \"#utility.yul\":12209:12221   */\n      add\n        /* \"#utility.yul\":12202:12221   */\n      swap1\n      pop\n        /* \"#utility.yul\":11861:12227   */\n      swap2\n      swap1\n      pop\n      jump\t// out\n        /* \"#utility.yul\":12233:12652   */\n    tag_132:\n        /* \"#utility.yul\":12399:12403   */\n      0x00\n        /* \"#utility.yul\":12437:12439   */\n      0x20\n        /* \"#utility.yul\":12426:12435   */\n      dup3\n        /* \"#utility.yul\":12422:12440   */\n      add\n        /* \"#utility.yul\":12414:12440   */\n      swap1\n      pop\n        /* \"#utility.yul\":12486:12495   */\n      dup2\n        /* \"#utility.yul\":12480:12484   */\n      dup2\n        /* \"#utility.yul\":12476:12496   */\n      sub\n        /* \"#utility.yul\":12472:12473   */\n      0x00\n        /* \"#utility.yul\":12461:12470   */\n      dup4\n        /* \"#utility.yul\":12457:12474   */\n      add\n        /* \"#utility.yul\":12450:12497   */\n      mstore\n        /* \"#utility.yul\":12514:12645   */\n      tag_338\n        /* \"#utility.yul\":12640:12644   */\n      dup2\n        /* \"#utility.yul\":12514:12645   */\n      tag_197\n      jump\t// in\n    tag_338:\n        /* \"#utility.yul\":12506:12645   */\n      swap1\n      pop\n        /* \"#utility.yul\":12233:12652   */\n      swap2\n      swap1\n      pop\n      jump\t// out\n        /* \"#utility.yul\":12658:12838   */\n    tag_198:\n        /* \"#utility.yul\":12706:12783   */\n      0x4e487b7100000000000000000000000000000000000000000000000000000000\n        /* \"#utility.yul\":12703:12704   */\n      0x00\n        /* \"#utility.yul\":12696:12784   */\n      mstore\n        /* \"#utility.yul\":12803:12807   */\n      0x11\n        /* \"#utility.yul\":12800:12801   */\n      0x04\n        /* \"#utility.yul\":12793:12808   */\n      mstore\n        /* \"#utility.yul\":12827:12831   */\n      0x24\n        /* \"#utility.yul\":12824:12825   */\n      0x00\n        /* \"#utility.yul\":12817:12832   */\n      revert\n        /* \"#utility.yul\":12844:13149   */\n    tag_134:\n        /* \"#utility.yul\":12884:12887   */\n      0x00\n        /* \"#utility.yul\":12903:12923   */\n      tag_341\n        /* \"#utility.yul\":12921:12922   */\n      dup3\n        /* \"#utility.yul\":12903:12923   */\n      tag_166\n      jump\t// in\n    tag_341:\n        /* \"#utility.yul\":12898:12923   */\n      swap2\n      pop\n        /* \"#utility.yul\":12937:12957   */\n      tag_342\n        /* \"#utility.yul\":12955:12956   */\n      dup4\n        /* \"#utility.yul\":12937:12957   */\n      tag_166\n      jump\t// in\n    tag_342:\n        /* \"#utility.yul\":12932:12957   */\n      swap3\n      pop\n        /* \"#utility.yul\":13091:13092   */\n      dup3\n        /* \"#utility.yul\":13023:13089   */\n      0xffffffffffffffffffffffffffffffffffffffffffffffffffffffffffffffff\n        /* \"#utility.yul\":13019:13093   */\n      sub\n        /* \"#utility.yul\":13016:13017   */\n      dup3\n        /* \"#utility.yul\":13013:13094   */\n      gt\n        /* \"#utility.yul\":13010:13117   */\n      iszero\n      tag_343\n      jumpi\n        /* \"#utility.yul\":13097:13115   */\n      tag_344\n      tag_198\n      jump\t// in\n    tag_344:\n        /* \"#utility.yul\":13010:13117   */\n    tag_343:\n        /* \"#utility.yul\":13141:13142   */\n      dup3\n        /* \"#utility.yul\":13138:13139   */\n      dup3\n        /* \"#utility.yul\":13134:13143   */\n      add\n        /* \"#utility.yul\":13127:13143   */\n      swap1\n      pop\n        /* \"#utility.yul\":12844:13149   */\n      swap3\n      swap2\n      pop\n      pop\n      jump\t// out\n        /* \"#utility.yul\":13155:13253   */\n    tag_199:\n        /* \"#utility.yul\":13206:13212   */\n      0x00\n        /* \"#utility.yul\":13240:13245   */\n      dup2\n        /* \"#utility.yul\":13234:13246   */\n      mload\n        /* \"#utility.yul\":13224:13246   */\n      swap1\n      pop\n        /* \"#utility.yul\":13155:13253   */\n      swap2\n      swap1\n      pop\n      jump\t// out\n        /* \"#utility.yul\":13259:13427   */\n    tag_200:\n        /* \"#utility.yul\":13342:13353   */\n      0x00\n        /* \"#utility.yul\":13376:13382   */\n      dup3\n        /* \"#utility.yul\":13371:13374   */\n      dup3\n        /* \"#utility.yul\":13364:13383   */\n      mstore\n        /* \"#utility.yul\":13416:13420   */\n      0x20\n        /* \"#utility.yul\":13411:13414   */\n      dup3\n        /* \"#utility.yul\":13407:13421   */\n      add\n        /* \"#utility.yul\":13392:13421   */\n      swap1\n      pop\n        /* \"#utility.yul\":13259:13427   */\n      swap3\n      swap2\n      pop\n      pop\n      jump\t// out\n        /* \"#utility.yul\":13433:13793   */\n    tag_201:\n        /* \"#utility.yul\":13519:13522   */\n      0x00\n        /* \"#utility.yul\":13547:13585   */\n      tag_348\n        /* \"#utility.yul\":13579:13584   */\n      dup3\n        /* \"#utility.yul\":13547:13585   */\n      tag_199\n      jump\t// in\n    tag_348:\n        /* \"#utility.yul\":13601:13671   */\n      tag_349\n        /* \"#utility.yul\":13664:13670   */\n      dup2\n        /* \"#utility.yul\":13659:13662   */\n      dup6\n        /* \"#utility.yul\":13601:13671   */\n      tag_200\n      jump\t// in\n    tag_349:\n        /* \"#utility.yul\":13594:13671   */\n      swap4\n      pop\n        /* \"#utility.yul\":13680:13732   */\n      tag_350\n        /* \"#utility.yul\":13725:13731   */\n      dup2\n        /* \"#utility.yul\":13720:13723   */\n      dup6\n        /* \"#utility.yul\":13713:13717   */\n      0x20\n        /* \"#utility.yul\":13706:13711   */\n      dup7\n        /* \"#utility.yul\":13702:13718   */\n      add\n        /* \"#utility.yul\":13680:13732   */\n      tag_172\n      jump\t// in\n    tag_350:\n        /* \"#utility.yul\":13757:13786   */\n      tag_351\n        /* \"#utility.yul\":13779:13785   */\n      dup2\n        /* \"#utility.yul\":13757:13786   */\n      tag_173\n      jump\t// in\n    tag_351:\n        /* \"#utility.yul\":13752:13755   */\n      dup5\n        /* \"#utility.yul\":13748:13787   */\n      add\n        /* \"#utility.yul\":13741:13787   */\n      swap2\n      pop\n        /* \"#utility.yul\":13523:13793   */\n      pop\n        /* \"#utility.yul\":13433:13793   */\n      swap3\n      swap2\n      pop\n      pop\n      jump\t// out\n        /* \"#utility.yul\":13799:14439   */\n    tag_140:\n        /* \"#utility.yul\":13994:13998   */\n      0x00\n        /* \"#utility.yul\":14032:14035   */\n      0x80\n        /* \"#utility.yul\":14021:14030   */\n      dup3\n        /* \"#utility.yul\":14017:14036   */\n      add\n        /* \"#utility.yul\":14009:14036   */\n      swap1\n      pop\n        /* \"#utility.yul\":14046:14117   */\n      tag_353\n        /* \"#utility.yul\":14114:14115   */\n      0x00\n        /* \"#utility.yul\":14103:14112   */\n      dup4\n        /* \"#utility.yul\":14099:14116   */\n      add\n        /* \"#utility.yul\":14090:14096   */\n      dup8\n        /* \"#utility.yul\":14046:14117   */\n      tag_179\n      jump\t// in\n    tag_353:\n        /* \"#utility.yul\":14127:14199   */\n      tag_354\n        /* \"#utility.yul\":14195:14197   */\n      0x20\n        /* \"#utility.yul\":14184:14193   */\n      dup4\n        /* \"#utility.yul\":14180:14198   */\n      add\n        /* \"#utility.yul\":14171:14177   */\n      dup7\n        /* \"#utility.yul\":14127:14199   */\n      tag_179\n      jump\t// in\n    tag_354:\n        /* \"#utility.yul\":14209:14281   */\n      tag_355\n        /* \"#utility.yul\":14277:14279   */\n      0x40\n        /* \"#utility.yul\":14266:14275   */\n      dup4\n        /* \"#utility.yul\":14262:14280   */\n      add\n        /* \"#utility.yul\":14253:14259   */\n      dup6\n        /* \"#utility.yul\":14209:14281   */\n      tag_167\n      jump\t// in\n    tag_355:\n        /* \"#utility.yul\":14328:14337   */\n      dup2\n        /* \"#utility.yul\":14322:14326   */\n      dup2\n        /* \"#utility.yul\":14318:14338   */\n      sub\n        /* \"#utility.yul\":14313:14315   */\n      0x60\n        /* \"#utility.yul\":14302:14311   */\n      dup4\n        /* \"#utility.yul\":14298:14316   */\n      add\n        /* \"#utility.yul\":14291:14339   */\n      mstore\n        /* \"#utility.yul\":14356:14432   */\n      tag_356\n        /* \"#utility.yul\":14427:14431   */\n      dup2\n        /* \"#utility.yul\":14418:14424   */\n      dup5\n        /* \"#utility.yul\":14356:14432   */\n      tag_201\n      jump\t// in\n    tag_356:\n        /* \"#utility.yul\":14348:14432   */\n      swap1\n      pop\n        /* \"#utility.yul\":13799:14439   */\n      swap6\n      swap5\n      pop\n      pop\n      pop\n      pop\n      pop\n      jump\t// out\n        /* \"#utility.yul\":14445:14586   */\n    tag_202:\n        /* \"#utility.yul\":14501:14506   */\n      0x00\n        /* \"#utility.yul\":14532:14538   */\n      dup2\n        /* \"#utility.yul\":14526:14539   */\n      mload\n        /* \"#utility.yul\":14517:14539   */\n      swap1\n      pop\n        /* \"#utility.yul\":14548:14580   */\n      tag_358\n        /* \"#utility.yul\":14574:14579   */\n      dup2\n        /* \"#utility.yul\":14548:14580   */\n      tag_164\n      jump\t// in\n    tag_358:\n        /* \"#utility.yul\":14445:14586   */\n      swap3\n      swap2\n      pop\n      pop\n      jump\t// out\n        /* \"#utility.yul\":14592:14941   */\n    tag_143:\n        /* \"#utility.yul\":14661:14667   */\n      0x00\n        /* \"#utility.yul\":14710:14712   */\n      0x20\n        /* \"#utility.yul\":14698:14707   */\n      dup3\n        /* \"#utility.yul\":14689:14696   */\n      dup5\n        /* \"#utility.yul\":14685:14708   */\n      sub\n        /* \"#utility.yul\":14681:14713   */\n      slt\n        /* \"#utility.yul\":14678:14797   */\n      iszero\n      tag_360\n      jumpi\n        /* \"#utility.yul\":14716:14795   */\n      tag_361\n      tag_161\n      jump\t// in\n    tag_361:\n        /* \"#utility.yul\":14678:14797   */\n    tag_360:\n        /* \"#utility.yul\":14836:14837   */\n      0x00\n        /* \"#utility.yul\":14861:14924   */\n      tag_362\n        /* \"#utility.yul\":14916:14923   */\n      dup5\n        /* \"#utility.yul\":14907:14913   */\n      dup3\n        /* \"#utility.yul\":14896:14905   */\n      dup6\n        /* \"#utility.yul\":14892:14914   */\n      add\n        /* \"#utility.yul\":14861:14924   */\n      tag_202\n      jump\t// in\n    tag_362:\n        /* \"#utility.yul\":14851:14924   */\n      swap2\n      pop\n        /* \"#utility.yul\":14807:14934   */\n      pop\n        /* \"#utility.yul\":14592:14941   */\n      swap3\n      swap2\n      pop\n      pop\n      jump\t// out\n        /* \"#utility.yul\":14947:15184   */\n    tag_203:\n        /* \"#utility.yul\":15087:15121   */\n      0x4552433732313a207472616e7366657220746f206e6f6e204552433732315265\n        /* \"#utility.yul\":15083:15084   */\n      0x00\n        /* \"#utility.yul\":15075:15081   */\n      dup3\n        /* \"#utility.yul\":15071:15085   */\n      add\n        /* \"#utility.yul\":15064:15122   */\n      mstore\n        /* \"#utility.yul\":15156:15176   */\n      0x63656976657220696d706c656d656e7465720000000000000000000000000000\n        /* \"#utility.yul\":15151:15153   */\n      0x20\n        /* \"#utility.yul\":15143:15149   */\n      dup3\n        /* \"#utility.yul\":15139:15154   */\n      add\n        /* \"#utility.yul\":15132:15177   */\n      mstore\n        /* \"#utility.yul\":14947:15184   */\n      pop\n      jump\t// out\n        /* \"#utility.yul\":15190:15556   */\n    tag_204:\n        /* \"#utility.yul\":15332:15335   */\n      0x00\n        /* \"#utility.yul\":15353:15420   */\n      tag_365\n        /* \"#utility.yul\":15417:15419   */\n      0x32\n        /* \"#utility.yul\":15412:15415   */\n      dup4\n        /* \"#utility.yul\":15353:15420   */\n      tag_171\n      jump\t// in\n    tag_365:\n        /* \"#utility.yul\":15346:15420   */\n      swap2\n      pop\n        /* \"#utility.yul\":15429:15522   */\n      tag_366\n        /* \"#utility.yul\":15518:15521   */\n      dup3\n        /* \"#utility.yul\":15429:15522   */\n      tag_203\n      jump\t// in\n    tag_366:\n        /* \"#utility.yul\":15547:15549   */\n      0x40\n        /* \"#utility.yul\":15542:15545   */\n      dup3\n        /* \"#utility.yul\":15538:15550   */\n      add\n        /* \"#utility.yul\":15531:15550   */\n      swap1\n      pop\n        /* \"#utility.yul\":15190:15556   */\n      swap2\n      swap1\n      pop\n      jump\t// out\n        /* \"#utility.yul\":15562:15981   */\n    tag_152:\n        /* \"#utility.yul\":15728:15732   */\n      0x00\n        /* \"#utility.yul\":15766:15768   */\n      0x20\n        /* \"#utility.yul\":15755:15764   */\n      dup3\n        /* \"#utility.yul\":15751:15769   */\n      add\n        /* \"#utility.yul\":15743:15769   */\n      swap1\n      pop\n        /* \"#utility.yul\":15815:15824   */\n      dup2\n        /* \"#utility.yul\":15809:15813   */\n      dup2\n        /* \"#utility.yul\":15805:15825   */\n      sub\n        /* \"#utility.yul\":15801:15802   */\n      0x00\n        /* \"#utility.yul\":15790:15799   */\n      dup4\n        /* \"#utility.yul\":15786:15803   */\n      add\n        /* \"#utility.yul\":15779:15826   */\n      mstore\n        /* \"#utility.yul\":15843:15974   */\n      tag_368\n        /* \"#utility.yul\":15969:15973   */\n      dup2\n        /* \"#utility.yul\":15843:15974   */\n      tag_204\n      jump\t// in\n    tag_368:\n        /* \"#utility.yul\":15835:15974   */\n      swap1\n      pop\n        /* \"#utility.yul\":15562:15981   */\n      swap2\n      swap1\n      pop\n      jump\t// out\n\n    auxdata: 0xa264697066735822122035dea26807b63f4bc6d6320d16cbf7d8a3038a555aecb4e72a0c1d746e671b3e64736f6c634300080d0033\n}\n","bytecode":{"linkReferences":{},"object":"60806040523480156200001157600080fd5b5060405162001875380380620018758339818101604052810190620000379190620003c1565b836003819055508260048190555081600581905550806002819055506040518060a001604052806040518060400160405280600b81526020017f506573746963696461204100000000000000000000000000000000000000000081525081526020016040518060400160405280600b81526020017f506573746963696461204200000000000000000000000000000000000000000081525081526020016040518060400160405280600b81526020017f506573746963696461204300000000000000000000000000000000000000000081525081526020016040518060400160405280600b81526020017f506573746963696461204400000000000000000000000000000000000000000081525081526020016040518060400160405280600b81526020017f5065737469636964612045000000000000000000000000000000000000000000815250815250600690600562000195929190620001fc565b5033600760006101000a81548173ffffffffffffffffffffffffffffffffffffffff021916908373ffffffffffffffffffffffffffffffffffffffff1602179055506001600760146101000a81548160ff0219169083151502179055505050505062000497565b82805482825590600052602060002090810192821562000250579160200282015b828111156200024f5782518290805190602001906200023e92919062000263565b50916020019190600101906200021d565b5b5090506200025f9190620002f4565b5090565b828054620002719062000462565b90600052602060002090601f016020900481019282620002955760008555620002e1565b82601f10620002b057805160ff1916838001178555620002e1565b82800160010185558215620002e1579182015b82811115620002e0578251825591602001919060010190620002c3565b5b509050620002f091906200031c565b5090565b5b808211156200031857600081816200030e91906200033b565b50600101620002f5565b5090565b5b80821115620003375760008160009055506001016200031d565b5090565b508054620003499062000462565b6000825580601f106200035d57506200037e565b601f0160209004906000526020600020908101906200037d91906200031c565b5b50565b600080fd5b6000819050919050565b6200039b8162000386565b8114620003a757600080fd5b50565b600081519050620003bb8162000390565b92915050565b60008060008060808587031215620003de57620003dd62000381565b5b6000620003ee87828801620003aa565b94505060206200040187828801620003aa565b93505060406200041487828801620003aa565b92505060606200042787828801620003aa565b91505092959194509250565b7f4e487b7100000000000000000000000000000000000000000000000000000000600052602260045260246000fd5b600060028204905060018216806200047b57607f821691505b60208210810362000491576200049062000433565b5b50919050565b6113ce80620004a76000396000f3fe608060405234801561001057600080fd5b50600436106101155760003560e01c80636352211e116100a2578063b3e1c71811610071578063b3e1c718146102e2578063bd3e19d4146102fe578063cf22b5771461031c578063e2fb98931461033a578063e7bcebf01461035657610115565b80636352211e146102485780636a4f832b1461027857806370a08231146102945780638da5cb5b146102c457610115565b80631e7ec0f3116100e95780631e7ec0f3146101b65780632b81ff95146101d257806332b93996146101ee5780633fbaa4751461020c57806349befa851461022a57610115565b8062fef8561461011a57806301ffc9a71461013857806313faede614610168578063175f4eae14610186575b600080fd5b610122610374565b60405161012f9190610ac0565b60405180910390f35b610152600480360381019061014d9190610b47565b61038b565b60405161015f9190610ac0565b60405180910390f35b6101706103f5565b60405161017d9190610b8d565b60405180910390f35b6101a0600480360381019061019b9190610bd4565b6103fb565b6040516101ad9190610c9a565b60405180910390f35b6101d060048036038101906101cb9190610bd4565b6104a7565b005b6101ec60048036038101906101e79190610ce8565b61053b565b005b6101f6610558565b6040516102039190610b8d565b60405180910390f35b61021461055e565b6040516102219190610b8d565b60405180910390f35b610232610564565b60405161023f9190610b8d565b60405180910390f35b610262600480360381019061025d9190610bd4565b61056e565b60405161026f9190610d56565b60405180910390f35b610292600480360381019061028d9190610ed2565b61061e565b005b6102ae60048036038101906102a99190610f41565b610643565b6040516102bb9190610b8d565b60405180910390f35b6102cc61068c565b6040516102d99190610d56565b60405180910390f35b6102fc60048036038101906102f79190610f6e565b6106b2565b005b6103066106d0565b6040516103139190610b8d565b60405180910390f35b6103246106da565b6040516103319190610b8d565b60405180910390f35b610354600480360381019061034f9190610f6e565b6106e4565b005b61035e6106f2565b60405161036b9190610b8d565b60405180910390f35b6000600760149054906101000a900460ff16905090565b60007f01ffc9a7000000000000000000000000000000000000000000000000000000007bffffffffffffffffffffffffffffffffffffffffffffffffffffffff1916827bffffffffffffffffffffffffffffffffffffffffffffffffffffffff1916149050919050565b60055481565b6006818154811061040b57600080fd5b90600052602060002001600091509050805461042690610fdd565b80601f016020809104026020016040519081016040528092919081815260200182805461045290610fdd565b801561049f5780601f106104745761010080835404028352916020019161049f565b820191906000526020600020905b81548152906001019060200180831161048257829003601f168201915b505050505081565b600760009054906101000a900473ffffffffffffffffffffffffffffffffffffffff1673ffffffffffffffffffffffffffffffffffffffff163373ffffffffffffffffffffffffffffffffffffffff161461050157600080fd5b7f127988bd735ffa5c5534fd889e7069d274b48e633535f314e203463f4ebf87a3816040516105309190610b8d565b60405180910390a150565b80600760146101000a81548160ff02191690831515021790555050565b60045481565b60035481565b6000600454905090565b60008060008084815260200190815260200160002060009054906101000a900473ffffffffffffffffffffffffffffffffffffffff169050600073ffffffffffffffffffffffffffffffffffffffff168173ffffffffffffffffffffffffffffffffffffffff1603610615576040517f08c379a000000000000000000000000000000000000000000000000000000000815260040161060c9061105a565b60405180910390fd5b80915050919050565b61062883836106f8565b61063560008484846108b7565b61063e57600080fd5b505050565b6000600160008373ffffffffffffffffffffffffffffffffffffffff1673ffffffffffffffffffffffffffffffffffffffff168152602001908152602001600020549050919050565b600760009054906101000a900473ffffffffffffffffffffffffffffffffffffffff1681565b6106cc82826040518060200160405280600081525061061e565b5050565b6000600554905090565b6000600354905090565b6106ee82826106b2565b5050565b60025481565b600073ffffffffffffffffffffffffffffffffffffffff168273ffffffffffffffffffffffffffffffffffffffff1603610767576040517f08c379a000000000000000000000000000000000000000000000000000000000815260040161075e906110ec565b60405180910390fd5b61077081610a21565b156107b0576040517f08c379a00000000000000000000000000000000000000000000000000000000081526004016107a79061117e565b60405180910390fd5b60018060008473ffffffffffffffffffffffffffffffffffffffff1673ffffffffffffffffffffffffffffffffffffffff16815260200190815260200160002060008282546107ff91906111cd565b925050819055508160008083815260200190815260200160002060006101000a81548173ffffffffffffffffffffffffffffffffffffffff021916908373ffffffffffffffffffffffffffffffffffffffff160217905550808273ffffffffffffffffffffffffffffffffffffffff16600073ffffffffffffffffffffffffffffffffffffffff167fddf252ad1be2c89b69c2b068fc378daa952ba7f163c4a11628f55a4df523b3ef60405160405180910390a45050565b60006108c284610a8c565b15610a14578373ffffffffffffffffffffffffffffffffffffffff1663150b7a02338786866040518563ffffffff1660e01b81526004016109069493929190611278565b6020604051808303816000875af192505050801561094257506040513d601f19601f8201168201806040525081019061093f91906112d9565b60015b6109c4573d8060008114610972576040519150601f19603f3d011682016040523d82523d6000602084013e610977565b606091505b5060008151036109bc576040517f08c379a00000000000000000000000000000000000000000000000000000000081526004016109b390611378565b60405180910390fd5b805181602001fd5b63150b7a0260e01b7bffffffffffffffffffffffffffffffffffffffffffffffffffffffff1916817bffffffffffffffffffffffffffffffffffffffffffffffffffffffff191614915050610a19565b600190505b949350505050565b60008073ffffffffffffffffffffffffffffffffffffffff1660008084815260200190815260200160002060009054906101000a900473ffffffffffffffffffffffffffffffffffffffff1673ffffffffffffffffffffffffffffffffffffffff1614159050919050565b600080823b905060008163ffffffff1611915050919050565b60008115159050919050565b610aba81610aa5565b82525050565b6000602082019050610ad56000830184610ab1565b92915050565b6000604051905090565b600080fd5b600080fd5b60007fffffffff0000000000000000000000000000000000000000000000000000000082169050919050565b610b2481610aef565b8114610b2f57600080fd5b50565b600081359050610b4181610b1b565b92915050565b600060208284031215610b5d57610b5c610ae5565b5b6000610b6b84828501610b32565b91505092915050565b6000819050919050565b610b8781610b74565b82525050565b6000602082019050610ba26000830184610b7e565b92915050565b610bb181610b74565b8114610bbc57600080fd5b50565b600081359050610bce81610ba8565b92915050565b600060208284031215610bea57610be9610ae5565b5b6000610bf884828501610bbf565b91505092915050565b600081519050919050565b600082825260208201905092915050565b60005b83811015610c3b578082015181840152602081019050610c20565b83811115610c4a576000848401525b50505050565b6000601f19601f8301169050919050565b6000610c6c82610c01565b610c768185610c0c565b9350610c86818560208601610c1d565b610c8f81610c50565b840191505092915050565b60006020820190508181036000830152610cb48184610c61565b905092915050565b610cc581610aa5565b8114610cd057600080fd5b50565b600081359050610ce281610cbc565b92915050565b600060208284031215610cfe57610cfd610ae5565b5b6000610d0c84828501610cd3565b91505092915050565b600073ffffffffffffffffffffffffffffffffffffffff82169050919050565b6000610d4082610d15565b9050919050565b610d5081610d35565b82525050565b6000602082019050610d6b6000830184610d47565b92915050565b610d7a81610d35565b8114610d8557600080fd5b50565b600081359050610d9781610d71565b92915050565b600080fd5b600080fd5b7f4e487b7100000000000000000000000000000000000000000000000000000000600052604160045260246000fd5b610ddf82610c50565b810181811067ffffffffffffffff82111715610dfe57610dfd610da7565b5b80604052505050565b6000610e11610adb565b9050610e1d8282610dd6565b919050565b600067ffffffffffffffff821115610e3d57610e3c610da7565b5b610e4682610c50565b9050602081019050919050565b82818337600083830152505050565b6000610e75610e7084610e22565b610e07565b905082815260208101848484011115610e9157610e90610da2565b5b610e9c848285610e53565b509392505050565b600082601f830112610eb957610eb8610d9d565b5b8135610ec9848260208601610e62565b91505092915050565b600080600060608486031215610eeb57610eea610ae5565b5b6000610ef986828701610d88565b9350506020610f0a86828701610bbf565b925050604084013567ffffffffffffffff811115610f2b57610f2a610aea565b5b610f3786828701610ea4565b9150509250925092565b600060208284031215610f5757610f56610ae5565b5b6000610f6584828501610d88565b91505092915050565b60008060408385031215610f8557610f84610ae5565b5b6000610f9385828601610d88565b9250506020610fa485828601610bbf565b9150509250929050565b7f4e487b7100000000000000000000000000000000000000000000000000000000600052602260045260246000fd5b60006002820490506001821680610ff557607f821691505b60208210810361100857611007610fae565b5b50919050565b7f546f6b656e20696420646f6573206e6f74206578697374000000000000000000600082015250565b6000611044601783610c0c565b915061104f8261100e565b602082019050919050565b6000602082019050818103600083015261107381611037565b9050919050565b7f455243373231204552524f523a206d696e7420746f20746865207a65726f206160008201527f6464726573730000000000000000000000000000000000000000000000000000602082015250565b60006110d6602683610c0c565b91506110e18261107a565b604082019050919050565b60006020820190508181036000830152611105816110c9565b9050919050565b7f455243373231204552524f523a20546f6b656e20616c7265616479206d696e7460008201527f6564000000000000000000000000000000000000000000000000000000000000602082015250565b6000611168602283610c0c565b91506111738261110c565b604082019050919050565b600060208201905081810360008301526111978161115b565b9050919050565b7f4e487b7100000000000000000000000000000000000000000000000000000000600052601160045260246000fd5b60006111d882610b74565b91506111e383610b74565b9250827fffffffffffffffffffffffffffffffffffffffffffffffffffffffffffffffff038211156112185761121761119e565b5b828201905092915050565b600081519050919050565b600082825260208201905092915050565b600061124a82611223565b611254818561122e565b9350611264818560208601610c1d565b61126d81610c50565b840191505092915050565b600060808201905061128d6000830187610d47565b61129a6020830186610d47565b6112a76040830185610b7e565b81810360608301526112b9818461123f565b905095945050505050565b6000815190506112d381610b1b565b92915050565b6000602082840312156112ef576112ee610ae5565b5b60006112fd848285016112c4565b91505092915050565b7f4552433732313a207472616e7366657220746f206e6f6e20455243373231526560008201527f63656976657220696d706c656d656e7465720000000000000000000000000000602082015250565b6000611362603283610c0c565b915061136d82611306565b604082019050919050565b6000602082019050818103600083015261139181611355565b905091905056fea264697066735822122035dea26807b63f4bc6d6320d16cbf7d8a3038a555aecb4e72a0c1d746e671b3e64736f6c634300080d0033","opcodes":"PUSH1 0x80 PUSH1 0x40 MSTORE CALLVALUE DUP1 ISZERO PUSH3 0x11 JUMPI PUSH1 0x0 DUP1 REVERT JUMPDEST POP PUSH1 0x40 MLOAD PUSH3 0x1875 CODESIZE SUB DUP1 PUSH3 0x1875 DUP4 CODECOPY DUP2 DUP2 ADD PUSH1 0x40 MSTORE DUP2 ADD SWAP1 PUSH3 0x37 SWAP2 SWAP1 PUSH3 0x3C1 JUMP JUMPDEST DUP4 PUSH1 0x3 DUP2 SWAP1 SSTORE POP DUP3 PUSH1 0x4 DUP2 SWAP1 SSTORE POP DUP2 PUSH1 0x5 DUP2 SWAP1 SSTORE POP DUP1 PUSH1 0x2 DUP2 SWAP1 SSTORE POP PUSH1 0x40 MLOAD DUP1 PUSH1 0xA0 ADD PUSH1 0x40 MSTORE DUP1 PUSH1 0x40 MLOAD DUP1 PUSH1 0x40 ADD PUSH1 0x40 MSTORE DUP1 PUSH1 0xB DUP2 MSTORE PUSH1 0x20 ADD PUSH32 0x5065737469636964612041000000000000000000000000000000000000000000 DUP2 MSTORE POP DUP2 MSTORE PUSH1 0x20 ADD PUSH1 0x40 MLOAD DUP1 PUSH1 0x40 ADD PUSH1 0x40 MSTORE DUP1 PUSH1 0xB DUP2 MSTORE PUSH1 0x20 ADD PUSH32 0x5065737469636964612042000000000000000000000000000000000000000000 DUP2 MSTORE POP DUP2 MSTORE PUSH1 0x20 ADD PUSH1 0x40 MLOAD DUP1 PUSH1 0x40 ADD PUSH1 0x40 MSTORE DUP1 PUSH1 0xB DUP2 MSTORE PUSH1 0x20 ADD PUSH32 0x5065737469636964612043000000000000000000000000000000000000000000 DUP2 MSTORE POP DUP2 MSTORE PUSH1 0x20 ADD PUSH1 0x40 MLOAD DUP1 PUSH1 0x40 ADD PUSH1 0x40 MSTORE DUP1 PUSH1 0xB DUP2 MSTORE PUSH1 0x20 ADD PUSH32 0x5065737469636964612044000000000000000000000000000000000000000000 DUP2 MSTORE POP DUP2 MSTORE PUSH1 0x20 ADD PUSH1 0x40 MLOAD DUP1 PUSH1 0x40 ADD PUSH1 0x40 MSTORE DUP1 PUSH1 0xB DUP2 MSTORE PUSH1 0x20 ADD PUSH32 0x5065737469636964612045000000000000000000000000000000000000000000 DUP2 MSTORE POP DUP2 MSTORE POP PUSH1 0x6 SWAP1 PUSH1 0x5 PUSH3 0x195 SWAP3 SWAP2 SWAP1 PUSH3 0x1FC JUMP JUMPDEST POP CALLER PUSH1 0x7 PUSH1 0x0 PUSH2 0x100 EXP DUP2 SLOAD DUP2 PUSH20 0xFFFFFFFFFFFFFFFFFFFFFFFFFFFFFFFFFFFFFFFF MUL NOT AND SWAP1 DUP4 PUSH20 0xFFFFFFFFFFFFFFFFFFFFFFFFFFFFFFFFFFFFFFFF AND MUL OR SWAP1 SSTORE POP PUSH1 0x1 PUSH1 0x7 PUSH1 0x14 PUSH2 0x100 EXP DUP2 SLOAD DUP2 PUSH1 0xFF MUL NOT AND SWAP1 DUP4 ISZERO ISZERO MUL OR SWAP1 SSTORE POP POP POP POP POP PUSH3 0x497 JUMP JUMPDEST DUP3 DUP1 SLOAD DUP3 DUP3 SSTORE SWAP1 PUSH1 0x0 MSTORE PUSH1 0x20 PUSH1 0x0 KECCAK256 SWAP1 DUP2 ADD SWAP3 DUP3 ISZERO PUSH3 0x250 JUMPI SWAP2 PUSH1 0x20 MUL DUP3 ADD JUMPDEST DUP3 DUP2 GT ISZERO PUSH3 0x24F JUMPI DUP3 MLOAD DUP3 SWAP1 DUP1 MLOAD SWAP1 PUSH1 0x20 ADD SWAP1 PUSH3 0x23E SWAP3 SWAP2 SWAP1 PUSH3 0x263 JUMP JUMPDEST POP SWAP2 PUSH1 0x20 ADD SWAP2 SWAP1 PUSH1 0x1 ADD SWAP1 PUSH3 0x21D JUMP JUMPDEST JUMPDEST POP SWAP1 POP PUSH3 0x25F SWAP2 SWAP1 PUSH3 0x2F4 JUMP JUMPDEST POP SWAP1 JUMP JUMPDEST DUP3 DUP1 SLOAD PUSH3 0x271 SWAP1 PUSH3 0x462 JUMP JUMPDEST SWAP1 PUSH1 0x0 MSTORE PUSH1 0x20 PUSH1 0x0 KECCAK256 SWAP1 PUSH1 0x1F ADD PUSH1 0x20 SWAP1 DIV DUP2 ADD SWAP3 DUP3 PUSH3 0x295 JUMPI PUSH1 0x0 DUP6 SSTORE PUSH3 0x2E1 JUMP JUMPDEST DUP3 PUSH1 0x1F LT PUSH3 0x2B0 JUMPI DUP1 MLOAD PUSH1 0xFF NOT AND DUP4 DUP1 ADD OR DUP6 SSTORE PUSH3 0x2E1 JUMP JUMPDEST DUP3 DUP1 ADD PUSH1 0x1 ADD DUP6 SSTORE DUP3 ISZERO PUSH3 0x2E1 JUMPI SWAP2 DUP3 ADD JUMPDEST DUP3 DUP2 GT ISZERO PUSH3 0x2E0 JUMPI DUP3 MLOAD DUP3 SSTORE SWAP2 PUSH1 0x20 ADD SWAP2 SWAP1 PUSH1 0x1 ADD SWAP1 PUSH3 0x2C3 JUMP JUMPDEST JUMPDEST POP SWAP1 POP PUSH3 0x2F0 SWAP2 SWAP1 PUSH3 0x31C JUMP JUMPDEST POP SWAP1 JUMP JUMPDEST JUMPDEST DUP1 DUP3 GT ISZERO PUSH3 0x318 JUMPI PUSH1 0x0 DUP2 DUP2 PUSH3 0x30E SWAP2 SWAP1 PUSH3 0x33B JUMP JUMPDEST POP PUSH1 0x1 ADD PUSH3 0x2F5 JUMP JUMPDEST POP SWAP1 JUMP JUMPDEST JUMPDEST DUP1 DUP3 GT ISZERO PUSH3 0x337 JUMPI PUSH1 0x0 DUP2 PUSH1 0x0 SWAP1 SSTORE POP PUSH1 0x1 ADD PUSH3 0x31D JUMP JUMPDEST POP SWAP1 JUMP JUMPDEST POP DUP1 SLOAD PUSH3 0x349 SWAP1 PUSH3 0x462 JUMP JUMPDEST PUSH1 0x0 DUP3 SSTORE DUP1 PUSH1 0x1F LT PUSH3 0x35D JUMPI POP PUSH3 0x37E JUMP JUMPDEST PUSH1 0x1F ADD PUSH1 0x20 SWAP1 DIV SWAP1 PUSH1 0x0 MSTORE PUSH1 0x20 PUSH1 0x0 KECCAK256 SWAP1 DUP2 ADD SWAP1 PUSH3 0x37D SWAP2 SWAP1 PUSH3 0x31C JUMP JUMPDEST JUMPDEST POP JUMP JUMPDEST PUSH1 0x0 DUP1 REVERT JUMPDEST PUSH1 0x0 DUP2 SWAP1 POP SWAP2 SWAP1 POP JUMP JUMPDEST PUSH3 0x39B DUP2 PUSH3 0x386 JUMP JUMPDEST DUP2 EQ PUSH3 0x3A7 JUMPI PUSH1 0x0 DUP1 REVERT JUMPDEST POP JUMP JUMPDEST PUSH1 0x0 DUP2 MLOAD SWAP1 POP PUSH3 0x3BB DUP2 PUSH3 0x390 JUMP JUMPDEST SWAP3 SWAP2 POP POP JUMP JUMPDEST PUSH1 0x0 DUP1 PUSH1 0x0 DUP1 PUSH1 0x80 DUP6 DUP8 SUB SLT ISZERO PUSH3 0x3DE JUMPI PUSH3 0x3DD PUSH3 0x381 JUMP JUMPDEST JUMPDEST PUSH1 0x0 PUSH3 0x3EE DUP8 DUP3 DUP9 ADD PUSH3 0x3AA JUMP JUMPDEST SWAP5 POP POP PUSH1 0x20 PUSH3 0x401 DUP8 DUP3 DUP9 ADD PUSH3 0x3AA JUMP JUMPDEST SWAP4 POP POP PUSH1 0x40 PUSH3 0x414 DUP8 DUP3 DUP9 ADD PUSH3 0x3AA JUMP JUMPDEST SWAP3 POP POP PUSH1 0x60 PUSH3 0x427 DUP8 DUP3 DUP9 ADD PUSH3 0x3AA JUMP JUMPDEST SWAP2 POP POP SWAP3 SWAP6 SWAP2 SWAP5 POP SWAP3 POP JUMP JUMPDEST PUSH32 0x4E487B7100000000000000000000000000000000000000000000000000000000 PUSH1 0x0 MSTORE PUSH1 0x22 PUSH1 0x4 MSTORE PUSH1 0x24 PUSH1 0x0 REVERT JUMPDEST PUSH1 0x0 PUSH1 0x2 DUP3 DIV SWAP1 POP PUSH1 0x1 DUP3 AND DUP1 PUSH3 0x47B JUMPI PUSH1 0x7F DUP3 AND SWAP2 POP JUMPDEST PUSH1 0x20 DUP3 LT DUP2 SUB PUSH3 0x491 JUMPI PUSH3 0x490 PUSH3 0x433 JUMP JUMPDEST JUMPDEST POP SWAP2 SWAP1 POP JUMP JUMPDEST PUSH2 0x13CE DUP1 PUSH3 0x4A7 PUSH1 0x0 CODECOPY PUSH1 0x0 RETURN INVALID PUSH1 0x80 PUSH1 0x40 MSTORE CALLVALUE DUP1 ISZERO PUSH2 0x10 JUMPI PUSH1 0x0 DUP1 REVERT JUMPDEST POP PUSH1 0x4 CALLDATASIZE LT PUSH2 0x115 JUMPI PUSH1 0x0 CALLDATALOAD PUSH1 0xE0 SHR DUP1 PUSH4 0x6352211E GT PUSH2 0xA2 JUMPI DUP1 PUSH4 0xB3E1C718 GT PUSH2 0x71 JUMPI DUP1 PUSH4 0xB3E1C718 EQ PUSH2 0x2E2 JUMPI DUP1 PUSH4 0xBD3E19D4 EQ PUSH2 0x2FE JUMPI DUP1 PUSH4 0xCF22B577 EQ PUSH2 0x31C JUMPI DUP1 PUSH4 0xE2FB9893 EQ PUSH2 0x33A JUMPI DUP1 PUSH4 0xE7BCEBF0 EQ PUSH2 0x356 JUMPI PUSH2 0x115 JUMP JUMPDEST DUP1 PUSH4 0x6352211E EQ PUSH2 0x248 JUMPI DUP1 PUSH4 0x6A4F832B EQ PUSH2 0x278 JUMPI DUP1 PUSH4 0x70A08231 EQ PUSH2 0x294 JUMPI DUP1 PUSH4 0x8DA5CB5B EQ PUSH2 0x2C4 JUMPI PUSH2 0x115 JUMP JUMPDEST DUP1 PUSH4 0x1E7EC0F3 GT PUSH2 0xE9 JUMPI DUP1 PUSH4 0x1E7EC0F3 EQ PUSH2 0x1B6 JUMPI DUP1 PUSH4 0x2B81FF95 EQ PUSH2 0x1D2 JUMPI DUP1 PUSH4 0x32B93996 EQ PUSH2 0x1EE JUMPI DUP1 PUSH4 0x3FBAA475 EQ PUSH2 0x20C JUMPI DUP1 PUSH4 0x49BEFA85 EQ PUSH2 0x22A JUMPI PUSH2 0x115 JUMP JUMPDEST DUP1 PUSH3 0xFEF856 EQ PUSH2 0x11A JUMPI DUP1 PUSH4 0x1FFC9A7 EQ PUSH2 0x138 JUMPI DUP1 PUSH4 0x13FAEDE6 EQ PUSH2 0x168 JUMPI DUP1 PUSH4 0x175F4EAE EQ PUSH2 0x186 JUMPI JUMPDEST PUSH1 0x0 DUP1 REVERT JUMPDEST PUSH2 0x122 PUSH2 0x374 JUMP JUMPDEST PUSH1 0x40 MLOAD PUSH2 0x12F SWAP2 SWAP1 PUSH2 0xAC0 JUMP JUMPDEST PUSH1 0x40 MLOAD DUP1 SWAP2 SUB SWAP1 RETURN JUMPDEST PUSH2 0x152 PUSH1 0x4 DUP1 CALLDATASIZE SUB DUP2 ADD SWAP1 PUSH2 0x14D SWAP2 SWAP1 PUSH2 0xB47 JUMP JUMPDEST PUSH2 0x38B JUMP JUMPDEST PUSH1 0x40 MLOAD PUSH2 0x15F SWAP2 SWAP1 PUSH2 0xAC0 JUMP JUMPDEST PUSH1 0x40 MLOAD DUP1 SWAP2 SUB SWAP1 RETURN JUMPDEST PUSH2 0x170 PUSH2 0x3F5 JUMP JUMPDEST PUSH1 0x40 MLOAD PUSH2 0x17D SWAP2 SWAP1 PUSH2 0xB8D JUMP JUMPDEST PUSH1 0x40 MLOAD DUP1 SWAP2 SUB SWAP1 RETURN JUMPDEST PUSH2 0x1A0 PUSH1 0x4 DUP1 CALLDATASIZE SUB DUP2 ADD SWAP1 PUSH2 0x19B SWAP2 SWAP1 PUSH2 0xBD4 JUMP JUMPDEST PUSH2 0x3FB JUMP JUMPDEST PUSH1 0x40 MLOAD PUSH2 0x1AD SWAP2 SWAP1 PUSH2 0xC9A JUMP JUMPDEST PUSH1 0x40 MLOAD DUP1 SWAP2 SUB SWAP1 RETURN JUMPDEST PUSH2 0x1D0 PUSH1 0x4 DUP1 CALLDATASIZE SUB DUP2 ADD SWAP1 PUSH2 0x1CB SWAP2 SWAP1 PUSH2 0xBD4 JUMP JUMPDEST PUSH2 0x4A7 JUMP JUMPDEST STOP JUMPDEST PUSH2 0x1EC PUSH1 0x4 DUP1 CALLDATASIZE SUB DUP2 ADD SWAP1 PUSH2 0x1E7 SWAP2 SWAP1 PUSH2 0xCE8 JUMP JUMPDEST PUSH2 0x53B JUMP JUMPDEST STOP JUMPDEST PUSH2 0x1F6 PUSH2 0x558 JUMP JUMPDEST PUSH1 0x40 MLOAD PUSH2 0x203 SWAP2 SWAP1 PUSH2 0xB8D JUMP JUMPDEST PUSH1 0x40 MLOAD DUP1 SWAP2 SUB SWAP1 RETURN JUMPDEST PUSH2 0x214 PUSH2 0x55E JUMP JUMPDEST PUSH1 0x40 MLOAD PUSH2 0x221 SWAP2 SWAP1 PUSH2 0xB8D JUMP JUMPDEST PUSH1 0x40 MLOAD DUP1 SWAP2 SUB SWAP1 RETURN JUMPDEST PUSH2 0x232 PUSH2 0x564 JUMP JUMPDEST PUSH1 0x40 MLOAD PUSH2 0x23F SWAP2 SWAP1 PUSH2 0xB8D JUMP JUMPDEST PUSH1 0x40 MLOAD DUP1 SWAP2 SUB SWAP1 RETURN JUMPDEST PUSH2 0x262 PUSH1 0x4 DUP1 CALLDATASIZE SUB DUP2 ADD SWAP1 PUSH2 0x25D SWAP2 SWAP1 PUSH2 0xBD4 JUMP JUMPDEST PUSH2 0x56E JUMP JUMPDEST PUSH1 0x40 MLOAD PUSH2 0x26F SWAP2 SWAP1 PUSH2 0xD56 JUMP JUMPDEST PUSH1 0x40 MLOAD DUP1 SWAP2 SUB SWAP1 RETURN JUMPDEST PUSH2 0x292 PUSH1 0x4 DUP1 CALLDATASIZE SUB DUP2 ADD SWAP1 PUSH2 0x28D SWAP2 SWAP1 PUSH2 0xED2 JUMP JUMPDEST PUSH2 0x61E JUMP JUMPDEST STOP JUMPDEST PUSH2 0x2AE PUSH1 0x4 DUP1 CALLDATASIZE SUB DUP2 ADD SWAP1 PUSH2 0x2A9 SWAP2 SWAP1 PUSH2 0xF41 JUMP JUMPDEST PUSH2 0x643 JUMP JUMPDEST PUSH1 0x40 MLOAD PUSH2 0x2BB SWAP2 SWAP1 PUSH2 0xB8D JUMP JUMPDEST PUSH1 0x40 MLOAD DUP1 SWAP2 SUB SWAP1 RETURN JUMPDEST PUSH2 0x2CC PUSH2 0x68C JUMP JUMPDEST PUSH1 0x40 MLOAD PUSH2 0x2D9 SWAP2 SWAP1 PUSH2 0xD56 JUMP JUMPDEST PUSH1 0x40 MLOAD DUP1 SWAP2 SUB SWAP1 RETURN JUMPDEST PUSH2 0x2FC PUSH1 0x4 DUP1 CALLDATASIZE SUB DUP2 ADD SWAP1 PUSH2 0x2F7 SWAP2 SWAP1 PUSH2 0xF6E JUMP JUMPDEST PUSH2 0x6B2 JUMP JUMPDEST STOP JUMPDEST PUSH2 0x306 PUSH2 0x6D0 JUMP JUMPDEST PUSH1 0x40 MLOAD PUSH2 0x313 SWAP2 SWAP1 PUSH2 0xB8D JUMP JUMPDEST PUSH1 0x40 MLOAD DUP1 SWAP2 SUB SWAP1 RETURN JUMPDEST PUSH2 0x324 PUSH2 0x6DA JUMP JUMPDEST PUSH1 0x40 MLOAD PUSH2 0x331 SWAP2 SWAP1 PUSH2 0xB8D JUMP JUMPDEST PUSH1 0x40 MLOAD DUP1 SWAP2 SUB SWAP1 RETURN JUMPDEST PUSH2 0x354 PUSH1 0x4 DUP1 CALLDATASIZE SUB DUP2 ADD SWAP1 PUSH2 0x34F SWAP2 SWAP1 PUSH2 0xF6E JUMP JUMPDEST PUSH2 0x6E4 JUMP JUMPDEST STOP JUMPDEST PUSH2 0x35E PUSH2 0x6F2 JUMP JUMPDEST PUSH1 0x40 MLOAD PUSH2 0x36B SWAP2 SWAP1 PUSH2 0xB8D JUMP JUMPDEST PUSH1 0x40 MLOAD DUP1 SWAP2 SUB SWAP1 RETURN JUMPDEST PUSH1 0x0 PUSH1 0x7 PUSH1 0x14 SWAP1 SLOAD SWAP1 PUSH2 0x100 EXP SWAP1 DIV PUSH1 0xFF AND SWAP1 POP SWAP1 JUMP JUMPDEST PUSH1 0x0 PUSH32 0x1FFC9A700000000000000000000000000000000000000000000000000000000 PUSH28 0xFFFFFFFFFFFFFFFFFFFFFFFFFFFFFFFFFFFFFFFFFFFFFFFFFFFFFFFF NOT AND DUP3 PUSH28 0xFFFFFFFFFFFFFFFFFFFFFFFFFFFFFFFFFFFFFFFFFFFFFFFFFFFFFFFF NOT AND EQ SWAP1 POP SWAP2 SWAP1 POP JUMP JUMPDEST PUSH1 0x5 SLOAD DUP2 JUMP JUMPDEST PUSH1 0x6 DUP2 DUP2 SLOAD DUP2 LT PUSH2 0x40B JUMPI PUSH1 0x0 DUP1 REVERT JUMPDEST SWAP1 PUSH1 0x0 MSTORE PUSH1 0x20 PUSH1 0x0 KECCAK256 ADD PUSH1 0x0 SWAP2 POP SWAP1 POP DUP1 SLOAD PUSH2 0x426 SWAP1 PUSH2 0xFDD JUMP JUMPDEST DUP1 PUSH1 0x1F ADD PUSH1 0x20 DUP1 SWAP2 DIV MUL PUSH1 0x20 ADD PUSH1 0x40 MLOAD SWAP1 DUP2 ADD PUSH1 0x40 MSTORE DUP1 SWAP3 SWAP2 SWAP1 DUP2 DUP2 MSTORE PUSH1 0x20 ADD DUP3 DUP1 SLOAD PUSH2 0x452 SWAP1 PUSH2 0xFDD JUMP JUMPDEST DUP1 ISZERO PUSH2 0x49F JUMPI DUP1 PUSH1 0x1F LT PUSH2 0x474 JUMPI PUSH2 0x100 DUP1 DUP4 SLOAD DIV MUL DUP4 MSTORE SWAP2 PUSH1 0x20 ADD SWAP2 PUSH2 0x49F JUMP JUMPDEST DUP3 ADD SWAP2 SWAP1 PUSH1 0x0 MSTORE PUSH1 0x20 PUSH1 0x0 KECCAK256 SWAP1 JUMPDEST DUP2 SLOAD DUP2 MSTORE SWAP1 PUSH1 0x1 ADD SWAP1 PUSH1 0x20 ADD DUP1 DUP4 GT PUSH2 0x482 JUMPI DUP3 SWAP1 SUB PUSH1 0x1F AND DUP3 ADD SWAP2 JUMPDEST POP POP POP POP POP DUP2 JUMP JUMPDEST PUSH1 0x7 PUSH1 0x0 SWAP1 SLOAD SWAP1 PUSH2 0x100 EXP SWAP1 DIV PUSH20 0xFFFFFFFFFFFFFFFFFFFFFFFFFFFFFFFFFFFFFFFF AND PUSH20 0xFFFFFFFFFFFFFFFFFFFFFFFFFFFFFFFFFFFFFFFF AND CALLER PUSH20 0xFFFFFFFFFFFFFFFFFFFFFFFFFFFFFFFFFFFFFFFF AND EQ PUSH2 0x501 JUMPI PUSH1 0x0 DUP1 REVERT JUMPDEST PUSH32 0x127988BD735FFA5C5534FD889E7069D274B48E633535F314E203463F4EBF87A3 DUP2 PUSH1 0x40 MLOAD PUSH2 0x530 SWAP2 SWAP1 PUSH2 0xB8D JUMP JUMPDEST PUSH1 0x40 MLOAD DUP1 SWAP2 SUB SWAP1 LOG1 POP JUMP JUMPDEST DUP1 PUSH1 0x7 PUSH1 0x14 PUSH2 0x100 EXP DUP2 SLOAD DUP2 PUSH1 0xFF MUL NOT AND SWAP1 DUP4 ISZERO ISZERO MUL OR SWAP1 SSTORE POP POP JUMP JUMPDEST PUSH1 0x4 SLOAD DUP2 JUMP JUMPDEST PUSH1 0x3 SLOAD DUP2 JUMP JUMPDEST PUSH1 0x0 PUSH1 0x4 SLOAD SWAP1 POP SWAP1 JUMP JUMPDEST PUSH1 0x0 DUP1 PUSH1 0x0 DUP1 DUP5 DUP2 MSTORE PUSH1 0x20 ADD SWAP1 DUP2 MSTORE PUSH1 0x20 ADD PUSH1 0x0 KECCAK256 PUSH1 0x0 SWAP1 SLOAD SWAP1 PUSH2 0x100 EXP SWAP1 DIV PUSH20 0xFFFFFFFFFFFFFFFFFFFFFFFFFFFFFFFFFFFFFFFF AND SWAP1 POP PUSH1 0x0 PUSH20 0xFFFFFFFFFFFFFFFFFFFFFFFFFFFFFFFFFFFFFFFF AND DUP2 PUSH20 0xFFFFFFFFFFFFFFFFFFFFFFFFFFFFFFFFFFFFFFFF AND SUB PUSH2 0x615 JUMPI PUSH1 0x40 MLOAD PUSH32 0x8C379A000000000000000000000000000000000000000000000000000000000 DUP2 MSTORE PUSH1 0x4 ADD PUSH2 0x60C SWAP1 PUSH2 0x105A JUMP JUMPDEST PUSH1 0x40 MLOAD DUP1 SWAP2 SUB SWAP1 REVERT JUMPDEST DUP1 SWAP2 POP POP SWAP2 SWAP1 POP JUMP JUMPDEST PUSH2 0x628 DUP4 DUP4 PUSH2 0x6F8 JUMP JUMPDEST PUSH2 0x635 PUSH1 0x0 DUP5 DUP5 DUP5 PUSH2 0x8B7 JUMP JUMPDEST PUSH2 0x63E JUMPI PUSH1 0x0 DUP1 REVERT JUMPDEST POP POP POP JUMP JUMPDEST PUSH1 0x0 PUSH1 0x1 PUSH1 0x0 DUP4 PUSH20 0xFFFFFFFFFFFFFFFFFFFFFFFFFFFFFFFFFFFFFFFF AND PUSH20 0xFFFFFFFFFFFFFFFFFFFFFFFFFFFFFFFFFFFFFFFF AND DUP2 MSTORE PUSH1 0x20 ADD SWAP1 DUP2 MSTORE PUSH1 0x20 ADD PUSH1 0x0 KECCAK256 SLOAD SWAP1 POP SWAP2 SWAP1 POP JUMP JUMPDEST PUSH1 0x7 PUSH1 0x0 SWAP1 SLOAD SWAP1 PUSH2 0x100 EXP SWAP1 DIV PUSH20 0xFFFFFFFFFFFFFFFFFFFFFFFFFFFFFFFFFFFFFFFF AND DUP2 JUMP JUMPDEST PUSH2 0x6CC DUP3 DUP3 PUSH1 0x40 MLOAD DUP1 PUSH1 0x20 ADD PUSH1 0x40 MSTORE DUP1 PUSH1 0x0 DUP2 MSTORE POP PUSH2 0x61E JUMP JUMPDEST POP POP JUMP JUMPDEST PUSH1 0x0 PUSH1 0x5 SLOAD SWAP1 POP SWAP1 JUMP JUMPDEST PUSH1 0x0 PUSH1 0x3 SLOAD SWAP1 POP SWAP1 JUMP JUMPDEST PUSH2 0x6EE DUP3 DUP3 PUSH2 0x6B2 JUMP JUMPDEST POP POP JUMP JUMPDEST PUSH1 0x2 SLOAD DUP2 JUMP JUMPDEST PUSH1 0x0 PUSH20 0xFFFFFFFFFFFFFFFFFFFFFFFFFFFFFFFFFFFFFFFF AND DUP3 PUSH20 0xFFFFFFFFFFFFFFFFFFFFFFFFFFFFFFFFFFFFFFFF AND SUB PUSH2 0x767 JUMPI PUSH1 0x40 MLOAD PUSH32 0x8C379A000000000000000000000000000000000000000000000000000000000 DUP2 MSTORE PUSH1 0x4 ADD PUSH2 0x75E SWAP1 PUSH2 0x10EC JUMP JUMPDEST PUSH1 0x40 MLOAD DUP1 SWAP2 SUB SWAP1 REVERT JUMPDEST PUSH2 0x770 DUP2 PUSH2 0xA21 JUMP JUMPDEST ISZERO PUSH2 0x7B0 JUMPI PUSH1 0x40 MLOAD PUSH32 0x8C379A000000000000000000000000000000000000000000000000000000000 DUP2 MSTORE PUSH1 0x4 ADD PUSH2 0x7A7 SWAP1 PUSH2 0x117E JUMP JUMPDEST PUSH1 0x40 MLOAD DUP1 SWAP2 SUB SWAP1 REVERT JUMPDEST PUSH1 0x1 DUP1 PUSH1 0x0 DUP5 PUSH20 0xFFFFFFFFFFFFFFFFFFFFFFFFFFFFFFFFFFFFFFFF AND PUSH20 0xFFFFFFFFFFFFFFFFFFFFFFFFFFFFFFFFFFFFFFFF AND DUP2 MSTORE PUSH1 0x20 ADD SWAP1 DUP2 MSTORE PUSH1 0x20 ADD PUSH1 0x0 KECCAK256 PUSH1 0x0 DUP3 DUP3 SLOAD PUSH2 0x7FF SWAP2 SWAP1 PUSH2 0x11CD JUMP JUMPDEST SWAP3 POP POP DUP2 SWAP1 SSTORE POP DUP2 PUSH1 0x0 DUP1 DUP4 DUP2 MSTORE PUSH1 0x20 ADD SWAP1 DUP2 MSTORE PUSH1 0x20 ADD PUSH1 0x0 KECCAK256 PUSH1 0x0 PUSH2 0x100 EXP DUP2 SLOAD DUP2 PUSH20 0xFFFFFFFFFFFFFFFFFFFFFFFFFFFFFFFFFFFFFFFF MUL NOT AND SWAP1 DUP4 PUSH20 0xFFFFFFFFFFFFFFFFFFFFFFFFFFFFFFFFFFFFFFFF AND MUL OR SWAP1 SSTORE POP DUP1 DUP3 PUSH20 0xFFFFFFFFFFFFFFFFFFFFFFFFFFFFFFFFFFFFFFFF AND PUSH1 0x0 PUSH20 0xFFFFFFFFFFFFFFFFFFFFFFFFFFFFFFFFFFFFFFFF AND PUSH32 0xDDF252AD1BE2C89B69C2B068FC378DAA952BA7F163C4A11628F55A4DF523B3EF PUSH1 0x40 MLOAD PUSH1 0x40 MLOAD DUP1 SWAP2 SUB SWAP1 LOG4 POP POP JUMP JUMPDEST PUSH1 0x0 PUSH2 0x8C2 DUP5 PUSH2 0xA8C JUMP JUMPDEST ISZERO PUSH2 0xA14 JUMPI DUP4 PUSH20 0xFFFFFFFFFFFFFFFFFFFFFFFFFFFFFFFFFFFFFFFF AND PUSH4 0x150B7A02 CALLER DUP8 DUP7 DUP7 PUSH1 0x40 MLOAD DUP6 PUSH4 0xFFFFFFFF AND PUSH1 0xE0 SHL DUP2 MSTORE PUSH1 0x4 ADD PUSH2 0x906 SWAP5 SWAP4 SWAP3 SWAP2 SWAP1 PUSH2 0x1278 JUMP JUMPDEST PUSH1 0x20 PUSH1 0x40 MLOAD DUP1 DUP4 SUB DUP2 PUSH1 0x0 DUP8 GAS CALL SWAP3 POP POP POP DUP1 ISZERO PUSH2 0x942 JUMPI POP PUSH1 0x40 MLOAD RETURNDATASIZE PUSH1 0x1F NOT PUSH1 0x1F DUP3 ADD AND DUP3 ADD DUP1 PUSH1 0x40 MSTORE POP DUP2 ADD SWAP1 PUSH2 0x93F SWAP2 SWAP1 PUSH2 0x12D9 JUMP JUMPDEST PUSH1 0x1 JUMPDEST PUSH2 0x9C4 JUMPI RETURNDATASIZE DUP1 PUSH1 0x0 DUP2 EQ PUSH2 0x972 JUMPI PUSH1 0x40 MLOAD SWAP2 POP PUSH1 0x1F NOT PUSH1 0x3F RETURNDATASIZE ADD AND DUP3 ADD PUSH1 0x40 MSTORE RETURNDATASIZE DUP3 MSTORE RETURNDATASIZE PUSH1 0x0 PUSH1 0x20 DUP5 ADD RETURNDATACOPY PUSH2 0x977 JUMP JUMPDEST PUSH1 0x60 SWAP2 POP JUMPDEST POP PUSH1 0x0 DUP2 MLOAD SUB PUSH2 0x9BC JUMPI PUSH1 0x40 MLOAD PUSH32 0x8C379A000000000000000000000000000000000000000000000000000000000 DUP2 MSTORE PUSH1 0x4 ADD PUSH2 0x9B3 SWAP1 PUSH2 0x1378 JUMP JUMPDEST PUSH1 0x40 MLOAD DUP1 SWAP2 SUB SWAP1 REVERT JUMPDEST DUP1 MLOAD DUP2 PUSH1 0x20 ADD REVERT JUMPDEST PUSH4 0x150B7A02 PUSH1 0xE0 SHL PUSH28 0xFFFFFFFFFFFFFFFFFFFFFFFFFFFFFFFFFFFFFFFFFFFFFFFFFFFFFFFF NOT AND DUP2 PUSH28 0xFFFFFFFFFFFFFFFFFFFFFFFFFFFFFFFFFFFFFFFFFFFFFFFFFFFFFFFF NOT AND EQ SWAP2 POP POP PUSH2 0xA19 JUMP JUMPDEST PUSH1 0x1 SWAP1 POP JUMPDEST SWAP5 SWAP4 POP POP POP POP JUMP JUMPDEST PUSH1 0x0 DUP1 PUSH20 0xFFFFFFFFFFFFFFFFFFFFFFFFFFFFFFFFFFFFFFFF AND PUSH1 0x0 DUP1 DUP5 DUP2 MSTORE PUSH1 0x20 ADD SWAP1 DUP2 MSTORE PUSH1 0x20 ADD PUSH1 0x0 KECCAK256 PUSH1 0x0 SWAP1 SLOAD SWAP1 PUSH2 0x100 EXP SWAP1 DIV PUSH20 0xFFFFFFFFFFFFFFFFFFFFFFFFFFFFFFFFFFFFFFFF AND PUSH20 0xFFFFFFFFFFFFFFFFFFFFFFFFFFFFFFFFFFFFFFFF AND EQ ISZERO SWAP1 POP SWAP2 SWAP1 POP JUMP JUMPDEST PUSH1 0x0 DUP1 DUP3 EXTCODESIZE SWAP1 POP PUSH1 0x0 DUP2 PUSH4 0xFFFFFFFF AND GT SWAP2 POP POP SWAP2 SWAP1 POP JUMP JUMPDEST PUSH1 0x0 DUP2 ISZERO ISZERO SWAP1 POP SWAP2 SWAP1 POP JUMP JUMPDEST PUSH2 0xABA DUP2 PUSH2 0xAA5 JUMP JUMPDEST DUP3 MSTORE POP POP JUMP JUMPDEST PUSH1 0x0 PUSH1 0x20 DUP3 ADD SWAP1 POP PUSH2 0xAD5 PUSH1 0x0 DUP4 ADD DUP5 PUSH2 0xAB1 JUMP JUMPDEST SWAP3 SWAP2 POP POP JUMP JUMPDEST PUSH1 0x0 PUSH1 0x40 MLOAD SWAP1 POP SWAP1 JUMP JUMPDEST PUSH1 0x0 DUP1 REVERT JUMPDEST PUSH1 0x0 DUP1 REVERT JUMPDEST PUSH1 0x0 PUSH32 0xFFFFFFFF00000000000000000000000000000000000000000000000000000000 DUP3 AND SWAP1 POP SWAP2 SWAP1 POP JUMP JUMPDEST PUSH2 0xB24 DUP2 PUSH2 0xAEF JUMP JUMPDEST DUP2 EQ PUSH2 0xB2F JUMPI PUSH1 0x0 DUP1 REVERT JUMPDEST POP JUMP JUMPDEST PUSH1 0x0 DUP2 CALLDATALOAD SWAP1 POP PUSH2 0xB41 DUP2 PUSH2 0xB1B JUMP JUMPDEST SWAP3 SWAP2 POP POP JUMP JUMPDEST PUSH1 0x0 PUSH1 0x20 DUP3 DUP5 SUB SLT ISZERO PUSH2 0xB5D JUMPI PUSH2 0xB5C PUSH2 0xAE5 JUMP JUMPDEST JUMPDEST PUSH1 0x0 PUSH2 0xB6B DUP5 DUP3 DUP6 ADD PUSH2 0xB32 JUMP JUMPDEST SWAP2 POP POP SWAP3 SWAP2 POP POP JUMP JUMPDEST PUSH1 0x0 DUP2 SWAP1 POP SWAP2 SWAP1 POP JUMP JUMPDEST PUSH2 0xB87 DUP2 PUSH2 0xB74 JUMP JUMPDEST DUP3 MSTORE POP POP JUMP JUMPDEST PUSH1 0x0 PUSH1 0x20 DUP3 ADD SWAP1 POP PUSH2 0xBA2 PUSH1 0x0 DUP4 ADD DUP5 PUSH2 0xB7E JUMP JUMPDEST SWAP3 SWAP2 POP POP JUMP JUMPDEST PUSH2 0xBB1 DUP2 PUSH2 0xB74 JUMP JUMPDEST DUP2 EQ PUSH2 0xBBC JUMPI PUSH1 0x0 DUP1 REVERT JUMPDEST POP JUMP JUMPDEST PUSH1 0x0 DUP2 CALLDATALOAD SWAP1 POP PUSH2 0xBCE DUP2 PUSH2 0xBA8 JUMP JUMPDEST SWAP3 SWAP2 POP POP JUMP JUMPDEST PUSH1 0x0 PUSH1 0x20 DUP3 DUP5 SUB SLT ISZERO PUSH2 0xBEA JUMPI PUSH2 0xBE9 PUSH2 0xAE5 JUMP JUMPDEST JUMPDEST PUSH1 0x0 PUSH2 0xBF8 DUP5 DUP3 DUP6 ADD PUSH2 0xBBF JUMP JUMPDEST SWAP2 POP POP SWAP3 SWAP2 POP POP JUMP JUMPDEST PUSH1 0x0 DUP2 MLOAD SWAP1 POP SWAP2 SWAP1 POP JUMP JUMPDEST PUSH1 0x0 DUP3 DUP3 MSTORE PUSH1 0x20 DUP3 ADD SWAP1 POP SWAP3 SWAP2 POP POP JUMP JUMPDEST PUSH1 0x0 JUMPDEST DUP4 DUP2 LT ISZERO PUSH2 0xC3B JUMPI DUP1 DUP3 ADD MLOAD DUP2 DUP5 ADD MSTORE PUSH1 0x20 DUP2 ADD SWAP1 POP PUSH2 0xC20 JUMP JUMPDEST DUP4 DUP2 GT ISZERO PUSH2 0xC4A JUMPI PUSH1 0x0 DUP5 DUP5 ADD MSTORE JUMPDEST POP POP POP POP JUMP JUMPDEST PUSH1 0x0 PUSH1 0x1F NOT PUSH1 0x1F DUP4 ADD AND SWAP1 POP SWAP2 SWAP1 POP JUMP JUMPDEST PUSH1 0x0 PUSH2 0xC6C DUP3 PUSH2 0xC01 JUMP JUMPDEST PUSH2 0xC76 DUP2 DUP6 PUSH2 0xC0C JUMP JUMPDEST SWAP4 POP PUSH2 0xC86 DUP2 DUP6 PUSH1 0x20 DUP7 ADD PUSH2 0xC1D JUMP JUMPDEST PUSH2 0xC8F DUP2 PUSH2 0xC50 JUMP JUMPDEST DUP5 ADD SWAP2 POP POP SWAP3 SWAP2 POP POP JUMP JUMPDEST PUSH1 0x0 PUSH1 0x20 DUP3 ADD SWAP1 POP DUP2 DUP2 SUB PUSH1 0x0 DUP4 ADD MSTORE PUSH2 0xCB4 DUP2 DUP5 PUSH2 0xC61 JUMP JUMPDEST SWAP1 POP SWAP3 SWAP2 POP POP JUMP JUMPDEST PUSH2 0xCC5 DUP2 PUSH2 0xAA5 JUMP JUMPDEST DUP2 EQ PUSH2 0xCD0 JUMPI PUSH1 0x0 DUP1 REVERT JUMPDEST POP JUMP JUMPDEST PUSH1 0x0 DUP2 CALLDATALOAD SWAP1 POP PUSH2 0xCE2 DUP2 PUSH2 0xCBC JUMP JUMPDEST SWAP3 SWAP2 POP POP JUMP JUMPDEST PUSH1 0x0 PUSH1 0x20 DUP3 DUP5 SUB SLT ISZERO PUSH2 0xCFE JUMPI PUSH2 0xCFD PUSH2 0xAE5 JUMP JUMPDEST JUMPDEST PUSH1 0x0 PUSH2 0xD0C DUP5 DUP3 DUP6 ADD PUSH2 0xCD3 JUMP JUMPDEST SWAP2 POP POP SWAP3 SWAP2 POP POP JUMP JUMPDEST PUSH1 0x0 PUSH20 0xFFFFFFFFFFFFFFFFFFFFFFFFFFFFFFFFFFFFFFFF DUP3 AND SWAP1 POP SWAP2 SWAP1 POP JUMP JUMPDEST PUSH1 0x0 PUSH2 0xD40 DUP3 PUSH2 0xD15 JUMP JUMPDEST SWAP1 POP SWAP2 SWAP1 POP JUMP JUMPDEST PUSH2 0xD50 DUP2 PUSH2 0xD35 JUMP JUMPDEST DUP3 MSTORE POP POP JUMP JUMPDEST PUSH1 0x0 PUSH1 0x20 DUP3 ADD SWAP1 POP PUSH2 0xD6B PUSH1 0x0 DUP4 ADD DUP5 PUSH2 0xD47 JUMP JUMPDEST SWAP3 SWAP2 POP POP JUMP JUMPDEST PUSH2 0xD7A DUP2 PUSH2 0xD35 JUMP JUMPDEST DUP2 EQ PUSH2 0xD85 JUMPI PUSH1 0x0 DUP1 REVERT JUMPDEST POP JUMP JUMPDEST PUSH1 0x0 DUP2 CALLDATALOAD SWAP1 POP PUSH2 0xD97 DUP2 PUSH2 0xD71 JUMP JUMPDEST SWAP3 SWAP2 POP POP JUMP JUMPDEST PUSH1 0x0 DUP1 REVERT JUMPDEST PUSH1 0x0 DUP1 REVERT JUMPDEST PUSH32 0x4E487B7100000000000000000000000000000000000000000000000000000000 PUSH1 0x0 MSTORE PUSH1 0x41 PUSH1 0x4 MSTORE PUSH1 0x24 PUSH1 0x0 REVERT JUMPDEST PUSH2 0xDDF DUP3 PUSH2 0xC50 JUMP JUMPDEST DUP2 ADD DUP2 DUP2 LT PUSH8 0xFFFFFFFFFFFFFFFF DUP3 GT OR ISZERO PUSH2 0xDFE JUMPI PUSH2 0xDFD PUSH2 0xDA7 JUMP JUMPDEST JUMPDEST DUP1 PUSH1 0x40 MSTORE POP POP POP JUMP JUMPDEST PUSH1 0x0 PUSH2 0xE11 PUSH2 0xADB JUMP JUMPDEST SWAP1 POP PUSH2 0xE1D DUP3 DUP3 PUSH2 0xDD6 JUMP JUMPDEST SWAP2 SWAP1 POP JUMP JUMPDEST PUSH1 0x0 PUSH8 0xFFFFFFFFFFFFFFFF DUP3 GT ISZERO PUSH2 0xE3D JUMPI PUSH2 0xE3C PUSH2 0xDA7 JUMP JUMPDEST JUMPDEST PUSH2 0xE46 DUP3 PUSH2 0xC50 JUMP JUMPDEST SWAP1 POP PUSH1 0x20 DUP2 ADD SWAP1 POP SWAP2 SWAP1 POP JUMP JUMPDEST DUP3 DUP2 DUP4 CALLDATACOPY PUSH1 0x0 DUP4 DUP4 ADD MSTORE POP POP POP JUMP JUMPDEST PUSH1 0x0 PUSH2 0xE75 PUSH2 0xE70 DUP5 PUSH2 0xE22 JUMP JUMPDEST PUSH2 0xE07 JUMP JUMPDEST SWAP1 POP DUP3 DUP2 MSTORE PUSH1 0x20 DUP2 ADD DUP5 DUP5 DUP5 ADD GT ISZERO PUSH2 0xE91 JUMPI PUSH2 0xE90 PUSH2 0xDA2 JUMP JUMPDEST JUMPDEST PUSH2 0xE9C DUP5 DUP3 DUP6 PUSH2 0xE53 JUMP JUMPDEST POP SWAP4 SWAP3 POP POP POP JUMP JUMPDEST PUSH1 0x0 DUP3 PUSH1 0x1F DUP4 ADD SLT PUSH2 0xEB9 JUMPI PUSH2 0xEB8 PUSH2 0xD9D JUMP JUMPDEST JUMPDEST DUP2 CALLDATALOAD PUSH2 0xEC9 DUP5 DUP3 PUSH1 0x20 DUP7 ADD PUSH2 0xE62 JUMP JUMPDEST SWAP2 POP POP SWAP3 SWAP2 POP POP JUMP JUMPDEST PUSH1 0x0 DUP1 PUSH1 0x0 PUSH1 0x60 DUP5 DUP7 SUB SLT ISZERO PUSH2 0xEEB JUMPI PUSH2 0xEEA PUSH2 0xAE5 JUMP JUMPDEST JUMPDEST PUSH1 0x0 PUSH2 0xEF9 DUP7 DUP3 DUP8 ADD PUSH2 0xD88 JUMP JUMPDEST SWAP4 POP POP PUSH1 0x20 PUSH2 0xF0A DUP7 DUP3 DUP8 ADD PUSH2 0xBBF JUMP JUMPDEST SWAP3 POP POP PUSH1 0x40 DUP5 ADD CALLDATALOAD PUSH8 0xFFFFFFFFFFFFFFFF DUP2 GT ISZERO PUSH2 0xF2B JUMPI PUSH2 0xF2A PUSH2 0xAEA JUMP JUMPDEST JUMPDEST PUSH2 0xF37 DUP7 DUP3 DUP8 ADD PUSH2 0xEA4 JUMP JUMPDEST SWAP2 POP POP SWAP3 POP SWAP3 POP SWAP3 JUMP JUMPDEST PUSH1 0x0 PUSH1 0x20 DUP3 DUP5 SUB SLT ISZERO PUSH2 0xF57 JUMPI PUSH2 0xF56 PUSH2 0xAE5 JUMP JUMPDEST JUMPDEST PUSH1 0x0 PUSH2 0xF65 DUP5 DUP3 DUP6 ADD PUSH2 0xD88 JUMP JUMPDEST SWAP2 POP POP SWAP3 SWAP2 POP POP JUMP JUMPDEST PUSH1 0x0 DUP1 PUSH1 0x40 DUP4 DUP6 SUB SLT ISZERO PUSH2 0xF85 JUMPI PUSH2 0xF84 PUSH2 0xAE5 JUMP JUMPDEST JUMPDEST PUSH1 0x0 PUSH2 0xF93 DUP6 DUP3 DUP7 ADD PUSH2 0xD88 JUMP JUMPDEST SWAP3 POP POP PUSH1 0x20 PUSH2 0xFA4 DUP6 DUP3 DUP7 ADD PUSH2 0xBBF JUMP JUMPDEST SWAP2 POP POP SWAP3 POP SWAP3 SWAP1 POP JUMP JUMPDEST PUSH32 0x4E487B7100000000000000000000000000000000000000000000000000000000 PUSH1 0x0 MSTORE PUSH1 0x22 PUSH1 0x4 MSTORE PUSH1 0x24 PUSH1 0x0 REVERT JUMPDEST PUSH1 0x0 PUSH1 0x2 DUP3 DIV SWAP1 POP PUSH1 0x1 DUP3 AND DUP1 PUSH2 0xFF5 JUMPI PUSH1 0x7F DUP3 AND SWAP2 POP JUMPDEST PUSH1 0x20 DUP3 LT DUP2 SUB PUSH2 0x1008 JUMPI PUSH2 0x1007 PUSH2 0xFAE JUMP JUMPDEST JUMPDEST POP SWAP2 SWAP1 POP JUMP JUMPDEST PUSH32 0x546F6B656E20696420646F6573206E6F74206578697374000000000000000000 PUSH1 0x0 DUP3 ADD MSTORE POP JUMP JUMPDEST PUSH1 0x0 PUSH2 0x1044 PUSH1 0x17 DUP4 PUSH2 0xC0C JUMP JUMPDEST SWAP2 POP PUSH2 0x104F DUP3 PUSH2 0x100E JUMP JUMPDEST PUSH1 0x20 DUP3 ADD SWAP1 POP SWAP2 SWAP1 POP JUMP JUMPDEST PUSH1 0x0 PUSH1 0x20 DUP3 ADD SWAP1 POP DUP2 DUP2 SUB PUSH1 0x0 DUP4 ADD MSTORE PUSH2 0x1073 DUP2 PUSH2 0x1037 JUMP JUMPDEST SWAP1 POP SWAP2 SWAP1 POP JUMP JUMPDEST PUSH32 0x455243373231204552524F523A206D696E7420746F20746865207A65726F2061 PUSH1 0x0 DUP3 ADD MSTORE PUSH32 0x6464726573730000000000000000000000000000000000000000000000000000 PUSH1 0x20 DUP3 ADD MSTORE POP JUMP JUMPDEST PUSH1 0x0 PUSH2 0x10D6 PUSH1 0x26 DUP4 PUSH2 0xC0C JUMP JUMPDEST SWAP2 POP PUSH2 0x10E1 DUP3 PUSH2 0x107A JUMP JUMPDEST PUSH1 0x40 DUP3 ADD SWAP1 POP SWAP2 SWAP1 POP JUMP JUMPDEST PUSH1 0x0 PUSH1 0x20 DUP3 ADD SWAP1 POP DUP2 DUP2 SUB PUSH1 0x0 DUP4 ADD MSTORE PUSH2 0x1105 DUP2 PUSH2 0x10C9 JUMP JUMPDEST SWAP1 POP SWAP2 SWAP1 POP JUMP JUMPDEST PUSH32 0x455243373231204552524F523A20546F6B656E20616C7265616479206D696E74 PUSH1 0x0 DUP3 ADD MSTORE PUSH32 0x6564000000000000000000000000000000000000000000000000000000000000 PUSH1 0x20 DUP3 ADD MSTORE POP JUMP JUMPDEST PUSH1 0x0 PUSH2 0x1168 PUSH1 0x22 DUP4 PUSH2 0xC0C JUMP JUMPDEST SWAP2 POP PUSH2 0x1173 DUP3 PUSH2 0x110C JUMP JUMPDEST PUSH1 0x40 DUP3 ADD SWAP1 POP SWAP2 SWAP1 POP JUMP JUMPDEST PUSH1 0x0 PUSH1 0x20 DUP3 ADD SWAP1 POP DUP2 DUP2 SUB PUSH1 0x0 DUP4 ADD MSTORE PUSH2 0x1197 DUP2 PUSH2 0x115B JUMP JUMPDEST SWAP1 POP SWAP2 SWAP1 POP JUMP JUMPDEST PUSH32 0x4E487B7100000000000000000000000000000000000000000000000000000000 PUSH1 0x0 MSTORE PUSH1 0x11 PUSH1 0x4 MSTORE PUSH1 0x24 PUSH1 0x0 REVERT JUMPDEST PUSH1 0x0 PUSH2 0x11D8 DUP3 PUSH2 0xB74 JUMP JUMPDEST SWAP2 POP PUSH2 0x11E3 DUP4 PUSH2 0xB74 JUMP JUMPDEST SWAP3 POP DUP3 PUSH32 0xFFFFFFFFFFFFFFFFFFFFFFFFFFFFFFFFFFFFFFFFFFFFFFFFFFFFFFFFFFFFFFFF SUB DUP3 GT ISZERO PUSH2 0x1218 JUMPI PUSH2 0x1217 PUSH2 0x119E JUMP JUMPDEST JUMPDEST DUP3 DUP3 ADD SWAP1 POP SWAP3 SWAP2 POP POP JUMP JUMPDEST PUSH1 0x0 DUP2 MLOAD SWAP1 POP SWAP2 SWAP1 POP JUMP JUMPDEST PUSH1 0x0 DUP3 DUP3 MSTORE PUSH1 0x20 DUP3 ADD SWAP1 POP SWAP3 SWAP2 POP POP JUMP JUMPDEST PUSH1 0x0 PUSH2 0x124A DUP3 PUSH2 0x1223 JUMP JUMPDEST PUSH2 0x1254 DUP2 DUP6 PUSH2 0x122E JUMP JUMPDEST SWAP4 POP PUSH2 0x1264 DUP2 DUP6 PUSH1 0x20 DUP7 ADD PUSH2 0xC1D JUMP JUMPDEST PUSH2 0x126D DUP2 PUSH2 0xC50 JUMP JUMPDEST DUP5 ADD SWAP2 POP POP SWAP3 SWAP2 POP POP JUMP JUMPDEST PUSH1 0x0 PUSH1 0x80 DUP3 ADD SWAP1 POP PUSH2 0x128D PUSH1 0x0 DUP4 ADD DUP8 PUSH2 0xD47 JUMP JUMPDEST PUSH2 0x129A PUSH1 0x20 DUP4 ADD DUP7 PUSH2 0xD47 JUMP JUMPDEST PUSH2 0x12A7 PUSH1 0x40 DUP4 ADD DUP6 PUSH2 0xB7E JUMP JUMPDEST DUP2 DUP2 SUB PUSH1 0x60 DUP4 ADD MSTORE PUSH2 0x12B9 DUP2 DUP5 PUSH2 0x123F JUMP JUMPDEST SWAP1 POP SWAP6 SWAP5 POP POP POP POP POP JUMP JUMPDEST PUSH1 0x0 DUP2 MLOAD SWAP1 POP PUSH2 0x12D3 DUP2 PUSH2 0xB1B JUMP JUMPDEST SWAP3 SWAP2 POP POP JUMP JUMPDEST PUSH1 0x0 PUSH1 0x20 DUP3 DUP5 SUB SLT ISZERO PUSH2 0x12EF JUMPI PUSH2 0x12EE PUSH2 0xAE5 JUMP JUMPDEST JUMPDEST PUSH1 0x0 PUSH2 0x12FD DUP5 DUP3 DUP6 ADD PUSH2 0x12C4 JUMP JUMPDEST SWAP2 POP POP SWAP3 SWAP2 POP POP JUMP JUMPDEST PUSH32 0x4552433732313A207472616E7366657220746F206E6F6E204552433732315265 PUSH1 0x0 DUP3 ADD MSTORE PUSH32 0x63656976657220696D706C656D656E7465720000000000000000000000000000 PUSH1 0x20 DUP3 ADD MSTORE POP JUMP JUMPDEST PUSH1 0x0 PUSH2 0x1362 PUSH1 0x32 DUP4 PUSH2 0xC0C JUMP JUMPDEST SWAP2 POP PUSH2 0x136D DUP3 PUSH2 0x1306 JUMP JUMPDEST PUSH1 0x40 DUP3 ADD SWAP1 POP SWAP2 SWAP1 POP JUMP JUMPDEST PUSH1 0x0 PUSH1 0x20 DUP3 ADD SWAP1 POP DUP2 DUP2 SUB PUSH1 0x0 DUP4 ADD MSTORE PUSH2 0x1391 DUP2 PUSH2 0x1355 JUMP JUMPDEST SWAP1 POP SWAP2 SWAP1 POP JUMP INVALID LOG2 PUSH5 0x6970667358 0x22 SLT KECCAK256 CALLDATALOAD 0xDE LOG2 PUSH9 0x7B63F4BC6D6320D16 0xCB 0xF7 0xD8 LOG3 SUB DUP11 SSTORE GAS 0xEC 0xB4 0xE7 0x2A 0xC SAR PUSH21 0x6E671B3E64736F6C634300080D0033000000000000 "},"gasEstimates":{"creation":{"codeDepositCost":"1014000","executionCost":"infinite","totalCost":"infinite"},"external":{"_mintDron(address,uint256)":"infinite","_safeMint(address,uint256)":"infinite","_safeMint(address,uint256,bytes)":"infinite","balanceOf(address)":"2908","cost()":"2497","fumigacion(uint256)":"infinite","getCost()":"2481","getDisponible()":"2553","getMaxHeight()":"2503","getMinHeight()":"2548","id_dron()":"2539","max_height()":"2518","min_height()":"2496","owner()":"2603","ownerOf(uint256)":"2979","pesticide(uint256)":"infinite","setDisponible(bool)":"24774","supportsInterface(bytes4)":"684"}},"methodIdentifiers":{"_mintDron(address,uint256)":"e2fb9893","_safeMint(address,uint256)":"b3e1c718","_safeMint(address,uint256,bytes)":"6a4f832b","balanceOf(address)":"70a08231","cost()":"13faede6","fumigacion(uint256)":"1e7ec0f3","getCost()":"bd3e19d4","getDisponible()":"00fef856","getMaxHeight()":"cf22b577","getMinHeight()":"49befa85","id_dron()":"e7bcebf0","max_height()":"3fbaa475","min_height()":"32b93996","owner()":"8da5cb5b","ownerOf(uint256)":"6352211e","pesticide(uint256)":"175f4eae","setDisponible(bool)":"2b81ff95","supportsInterface(bytes4)":"01ffc9a7"}},"storageLayout":{"storage":[{"astId":1383,"contract":"Dron.sol:Dron","label":"_owners","offset":0,"slot":"0","type":"t_mapping(t_uint256,t_address)"},{"astId":1387,"contract":"Dron.sol:Dron","label":"_balances","offset":0,"slot":"1","type":"t_mapping(t_address,t_uint256)"},{"astId":745,"contract":"Dron.sol:Dron","label":"id_dron","offset":0,"slot":"2","type":"t_uint256"},{"astId":747,"contract":"Dron.sol:Dron","label":"max_height","offset":0,"slot":"3","type":"t_uint256"},{"astId":749,"contract":"Dron.sol:Dron","label":"min_height","offset":0,"slot":"4","type":"t_uint256"},{"astId":751,"contract":"Dron.sol:Dron","label":"cost","offset":0,"slot":"5","type":"t_uint256"},{"astId":754,"contract":"Dron.sol:Dron","label":"pesticide","offset":0,"slot":"6","type":"t_array(t_string_storage)dyn_storage"},{"astId":756,"contract":"Dron.sol:Dron","label":"owner","offset":0,"slot":"7","type":"t_address"},{"astId":758,"contract":"Dron.sol:Dron","label":"disponible","offset":20,"slot":"7","type":"t_bool"}],"types":{"t_address":{"encoding":"inplace","label":"address","numberOfBytes":"20"},"t_array(t_string_storage)dyn_storage":{"base":"t_string_storage","encoding":"dynamic_array","label":"string[]","numberOfBytes":"32"},"t_bool":{"encoding":"inplace","label":"bool","numberOfBytes":"1"},"t_mapping(t_address,t_uint256)":{"encoding":"mapping","key":"t_address","label":"mapping(address => uint256)","numberOfBytes":"32","value":"t_uint256"},"t_mapping(t_uint256,t_address)":{"encoding":"mapping","key":"t_uint256","label":"mapping(uint256 => address)","numberOfBytes":"32","value":"t_address"},"t_string_storage":{"encoding":"bytes","label":"string","numberOfBytes":"32"},"t_uint256":{"encoding":"inplace","label":"uint256","numberOfBytes":"32"}}},"userdoc":{"kind":"user","methods":{},"version":1}}