{"abi":[{"inputs":[],"stateMutability":"nonpayable","type":"constructor"},{"anonymous":false,"inputs":[{"indexed":false,"internalType":"uint256","name":"id_dron","type":"uint256"},{"indexed":false,"internalType":"uint256","name":"id_plot","type":"uint256"}],"name":"ContrataDronFumigador","type":"event"},{"anonymous":false,"inputs":[{"indexed":false,"internalType":"address","name":"buyer","type":"address"},{"indexed":false,"internalType":"uint256","name":"amount","type":"uint256"}],"name":"Sold","type":"event"},{"inputs":[{"internalType":"uint256","name":"iddron","type":"uint256"},{"internalType":"uint256","name":"idplot","type":"uint256"}],"name":"ContrataDron","outputs":[{"internalType":"bool","name":"success","type":"bool"}],"stateMutability":"payable","type":"function"},{"inputs":[{"internalType":"uint256","name":"iddron","type":"uint256"},{"internalType":"uint256","name":"idplot","type":"uint256"}],"name":"aceptaTrabajos","outputs":[],"stateMutability":"nonpayable","type":"function"},{"inputs":[{"internalType":"uint256","name":"_amount","type":"uint256"}],"name":"buyTokens","outputs":[{"internalType":"bool","name":"success","type":"bool"}],"stateMutability":"payable","type":"function"},{"inputs":[{"internalType":"address","name":"dir","type":"address"}],"name":"getBalanceOf","outputs":[{"internalType":"uint256","name":"","type":"uint256"}],"stateMutability":"view","type":"function"},{"inputs":[{"internalType":"uint256","name":"iddron","type":"uint256"}],"name":"getCost","outputs":[{"internalType":"uint256","name":"","type":"uint256"}],"stateMutability":"view","type":"function"},{"inputs":[],"name":"getDronesDisponibles","outputs":[{"internalType":"uint256[]","name":"","type":"uint256[]"}],"stateMutability":"view","type":"function"},{"inputs":[{"internalType":"uint256","name":"iddron","type":"uint256"}],"name":"getMaxHeight","outputs":[{"internalType":"uint256","name":"","type":"uint256"}],"stateMutability":"view","type":"function"},{"inputs":[{"internalType":"uint256","name":"iddron","type":"uint256"}],"name":"getMinHeight","outputs":[{"internalType":"uint256","name":"","type":"uint256"}],"stateMutability":"view","type":"function"},{"inputs":[],"name":"getTrabajosDisponibles","outputs":[{"internalType":"uint256[]","name":"","type":"uint256[]"}],"stateMutability":"view","type":"function"},{"inputs":[],"name":"get_idDron","outputs":[{"internalType":"uint256","name":"","type":"uint256"}],"stateMutability":"view","type":"function"},{"inputs":[],"name":"get_idPlot","outputs":[{"internalType":"uint256","name":"","type":"uint256"}],"stateMutability":"view","type":"function"},{"inputs":[{"internalType":"uint256","name":"maxheight","type":"uint256"},{"internalType":"uint256","name":"minheight","type":"uint256"},{"internalType":"uint256","name":"cost","type":"uint256"}],"name":"registraDron","outputs":[{"internalType":"bool","name":"success","type":"bool"}],"stateMutability":"nonpayable","type":"function"},{"inputs":[{"internalType":"uint256","name":"maxheight","type":"uint256"},{"internalType":"uint256","name":"minheight","type":"uint256"},{"internalType":"string","name":"_pesticide","type":"string"}],"name":"registraPlot","outputs":[{"internalType":"bool","name":"success","type":"bool"}],"stateMutability":"nonpayable","type":"function"},{"inputs":[{"internalType":"uint256","name":"a","type":"uint256"},{"internalType":"uint256","name":"b","type":"uint256"}],"name":"safeAdd","outputs":[{"internalType":"uint256","name":"c","type":"uint256"}],"stateMutability":"pure","type":"function"},{"inputs":[{"internalType":"uint256","name":"a","type":"uint256"},{"internalType":"uint256","name":"b","type":"uint256"}],"name":"safeDiv","outputs":[{"internalType":"uint256","name":"c","type":"uint256"}],"stateMutability":"pure","type":"function"},{"inputs":[{"internalType":"uint256","name":"a","type":"uint256"},{"internalType":"uint256","name":"b","type":"uint256"}],"name":"safeMul","outputs":[{"internalType":"uint256","name":"c","type":"uint256"}],"stateMutability":"pure","type":"function"},{"inputs":[{"internalType":"uint256","name":"a","type":"uint256"},{"internalType":"uint256","name":"b","type":"uint256"}],"name":"safeSub","outputs":[{"internalType":"uint256","name":"c","type":"uint256"}],"stateMutability":"pure","type":"function"}],"devdoc":{"kind":"dev","methods":{},"version":1},"evm":{"assembly":"    /* \"Dron_Company.sol\":151:6114  contract Dron_Company is SafeMath... */\n  mstore(0x40, 0x80)\n    /* \"Dron_Company.sol\":650:782  constructor () ... */\n  callvalue\n  dup1\n  iszero\n  tag_1\n  jumpi\n  0x00\n  dup1\n  revert\ntag_1:\n  pop\n    /* \"Dron_Company.sol\":690:700  msg.sender */\n  caller\n    /* \"Dron_Company.sol\":682:687  owner */\n  0x03\n  0x00\n    /* \"Dron_Company.sol\":682:700  owner = msg.sender */\n  0x0100\n  exp\n  dup2\n  sload\n  dup2\n  0xffffffffffffffffffffffffffffffffffffffff\n  mul\n  not\n  and\n  swap1\n  dup4\n  0xffffffffffffffffffffffffffffffffffffffff\n  and\n  mul\n  or\n  swap1\n  sstore\n  pop\n    /* \"Dron_Company.sol\":719:730  new ERC20() */\n  mload(0x40)\n  tag_4\n  swap1\n  tag_5\n  jump\t// in\ntag_4:\n  mload(0x40)\n  dup1\n  swap2\n  sub\n  swap1\n  0x00\n  create\n  dup1\n  iszero\n  dup1\n  iszero\n  tag_6\n  jumpi\n  returndatasize\n  0x00\n  dup1\n  returndatacopy\n  revert(0x00, returndatasize)\ntag_6:\n  pop\n    /* \"Dron_Company.sol\":711:716  token */\n  0x07\n  0x00\n    /* \"Dron_Company.sol\":711:730  token = new ERC20() */\n  0x0100\n  exp\n  dup2\n  sload\n  dup2\n  0xffffffffffffffffffffffffffffffffffffffff\n  mul\n  not\n  and\n  swap1\n  dup4\n  0xffffffffffffffffffffffffffffffffffffffff\n  and\n  mul\n  or\n  swap1\n  sstore\n  pop\n    /* \"Dron_Company.sol\":751:752  0 */\n  0x00\n    /* \"Dron_Company.sol\":741:748  id_dron */\n  dup1\n    /* \"Dron_Company.sol\":741:752  id_dron = 0 */\n  dup2\n  swap1\n  sstore\n  pop\n    /* \"Dron_Company.sol\":773:774  0 */\n  0x00\n    /* \"Dron_Company.sol\":763:770  id_plot */\n  0x01\n    /* \"Dron_Company.sol\":763:774  id_plot = 0 */\n  dup2\n  swap1\n  sstore\n  pop\n    /* \"Dron_Company.sol\":151:6114  contract Dron_Company is SafeMath... */\n  jump(tag_7)\ntag_5:\n  dataSize(sub_1)\n  dup1\n  dataOffset(sub_1)\n  dup4\n  codecopy\n  add\n  swap1\n  jump\t// out\ntag_7:\n  dataSize(sub_0)\n  dup1\n  dataOffset(sub_0)\n  0x00\n  codecopy\n  0x00\n  return\nstop\n\nsub_0: assembly {\n        /* \"Dron_Company.sol\":151:6114  contract Dron_Company is SafeMath... */\n      mstore(0x40, 0x80)\n      jumpi(tag_1, lt(calldatasize, 0x04))\n      shr(0xe0, calldataload(0x00))\n      dup1\n      0xa293d1e8\n      gt\n      tag_19\n      jumpi\n      dup1\n      0xcac43eb4\n      gt\n      tag_20\n      jumpi\n      dup1\n      0xcac43eb4\n      eq\n      tag_14\n      jumpi\n      dup1\n      0xce308132\n      eq\n      tag_15\n      jumpi\n      dup1\n      0xd05c78da\n      eq\n      tag_16\n      jumpi\n      dup1\n      0xd3838f52\n      eq\n      tag_17\n      jumpi\n      dup1\n      0xe6cb9013\n      eq\n      tag_18\n      jumpi\n      jump(tag_1)\n    tag_20:\n      dup1\n      0xa293d1e8\n      eq\n      tag_10\n      jumpi\n      dup1\n      0xb5931f7c\n      eq\n      tag_11\n      jumpi\n      dup1\n      0xb6ac6de5\n      eq\n      tag_12\n      jumpi\n      dup1\n      0xb9058947\n      eq\n      tag_13\n      jumpi\n      jump(tag_1)\n    tag_19:\n      dup1\n      0x46c12c47\n      gt\n      tag_21\n      jumpi\n      dup1\n      0x46c12c47\n      eq\n      tag_6\n      jumpi\n      dup1\n      0x5792c584\n      eq\n      tag_7\n      jumpi\n      dup1\n      0x5a4dd47d\n      eq\n      tag_8\n      jumpi\n      dup1\n      0x9b96eece\n      eq\n      tag_9\n      jumpi\n      jump(tag_1)\n    tag_21:\n      dup1\n      0x0aefd3a9\n      eq\n      tag_2\n      jumpi\n      dup1\n      0x0c8946dc\n      eq\n      tag_3\n      jumpi\n      dup1\n      0x15740214\n      eq\n      tag_4\n      jumpi\n      dup1\n      0x3610724e\n      eq\n      tag_5\n      jumpi\n    tag_1:\n      0x00\n      dup1\n      revert\n        /* \"Dron_Company.sol\":790:1288  function registraDron (uint256 maxheight, uint256 minheight, uint256 cost) public returns (bool success)... */\n    tag_2:\n      callvalue\n      dup1\n      iszero\n      tag_22\n      jumpi\n      0x00\n      dup1\n      revert\n    tag_22:\n      pop\n      tag_23\n      0x04\n      dup1\n      calldatasize\n      sub\n      dup2\n      add\n      swap1\n      tag_24\n      swap2\n      swap1\n      tag_25\n      jump\t// in\n    tag_24:\n      tag_26\n      jump\t// in\n    tag_23:\n      mload(0x40)\n      tag_27\n      swap2\n      swap1\n      tag_28\n      jump\t// in\n    tag_27:\n      mload(0x40)\n      dup1\n      swap2\n      sub\n      swap1\n      return\n        /* \"Dron_Company.sol\":5645:5773  function getMaxHeight(uint256 iddron) public view returns (uint256)... */\n    tag_3:\n      callvalue\n      dup1\n      iszero\n      tag_29\n      jumpi\n      0x00\n      dup1\n      revert\n    tag_29:\n      pop\n      tag_30\n      0x04\n      dup1\n      calldatasize\n      sub\n      dup2\n      add\n      swap1\n      tag_31\n      swap2\n      swap1\n      tag_32\n      jump\t// in\n    tag_31:\n      tag_33\n      jump\t// in\n    tag_30:\n      mload(0x40)\n      tag_34\n      swap2\n      swap1\n      tag_35\n      jump\t// in\n    tag_34:\n      mload(0x40)\n      dup1\n      swap2\n      sub\n      swap1\n      return\n        /* \"Dron_Company.sol\":3602:4055  function aceptaTrabajos (uint256 iddron, uint256 idplot) public... */\n    tag_4:\n      callvalue\n      dup1\n      iszero\n      tag_36\n      jumpi\n      0x00\n      dup1\n      revert\n    tag_36:\n      pop\n      tag_37\n      0x04\n      dup1\n      calldatasize\n      sub\n      dup2\n      add\n      swap1\n      tag_38\n      swap2\n      swap1\n      tag_39\n      jump\t// in\n    tag_38:\n      tag_40\n      jump\t// in\n    tag_37:\n      stop\n        /* \"Dron_Company.sol\":4705:5122  function buyTokens(uint256 _amount) public payable returns (bool success) ... */\n    tag_5:\n      tag_41\n      0x04\n      dup1\n      calldatasize\n      sub\n      dup2\n      add\n      swap1\n      tag_42\n      swap2\n      swap1\n      tag_32\n      jump\t// in\n    tag_42:\n      tag_43\n      jump\t// in\n    tag_41:\n      mload(0x40)\n      tag_44\n      swap2\n      swap1\n      tag_28\n      jump\t// in\n    tag_44:\n      mload(0x40)\n      dup1\n      swap2\n      sub\n      swap1\n      return\n        /* \"Dron_Company.sol\":4063:4697  function getTrabajosDisponibles() public view returns(uint256[] memory)... */\n    tag_6:\n      callvalue\n      dup1\n      iszero\n      tag_45\n      jumpi\n      0x00\n      dup1\n      revert\n    tag_45:\n      pop\n      tag_46\n      tag_47\n      jump\t// in\n    tag_46:\n      mload(0x40)\n      tag_48\n      swap2\n      swap1\n      tag_49\n      jump\t// in\n    tag_48:\n      mload(0x40)\n      dup1\n      swap2\n      sub\n      swap1\n      return\n        /* \"Dron_Company.sol\":1296:2006  function registraPlot (uint256 maxheight, uint256 minheight, string memory _pesticide) public returns (bool success)... */\n    tag_7:\n      callvalue\n      dup1\n      iszero\n      tag_50\n      jumpi\n      0x00\n      dup1\n      revert\n    tag_50:\n      pop\n      tag_51\n      0x04\n      dup1\n      calldatasize\n      sub\n      dup2\n      add\n      swap1\n      tag_52\n      swap2\n      swap1\n      tag_53\n      jump\t// in\n    tag_52:\n      tag_54\n      jump\t// in\n    tag_51:\n      mload(0x40)\n      tag_55\n      swap2\n      swap1\n      tag_28\n      jump\t// in\n    tag_55:\n      mload(0x40)\n      dup1\n      swap2\n      sub\n      swap1\n      return\n        /* \"Dron_Company.sol\":5519:5637  function getCost(uint256 iddron) public view returns (uint256)... */\n    tag_8:\n      callvalue\n      dup1\n      iszero\n      tag_56\n      jumpi\n      0x00\n      dup1\n      revert\n    tag_56:\n      pop\n      tag_57\n      0x04\n      dup1\n      calldatasize\n      sub\n      dup2\n      add\n      swap1\n      tag_58\n      swap2\n      swap1\n      tag_32\n      jump\t// in\n    tag_58:\n      tag_59\n      jump\t// in\n    tag_57:\n      mload(0x40)\n      tag_60\n      swap2\n      swap1\n      tag_35\n      jump\t// in\n    tag_60:\n      mload(0x40)\n      dup1\n      swap2\n      sub\n      swap1\n      return\n        /* \"Dron_Company.sol\":5130:5244  function getBalanceOf (address dir) public view returns (uint)... */\n    tag_9:\n      callvalue\n      dup1\n      iszero\n      tag_61\n      jumpi\n      0x00\n      dup1\n      revert\n    tag_61:\n      pop\n      tag_62\n      0x04\n      dup1\n      calldatasize\n      sub\n      dup2\n      add\n      swap1\n      tag_63\n      swap2\n      swap1\n      tag_64\n      jump\t// in\n    tag_63:\n      tag_65\n      jump\t// in\n    tag_62:\n      mload(0x40)\n      tag_66\n      swap2\n      swap1\n      tag_35\n      jump\t// in\n    tag_66:\n      mload(0x40)\n      dup1\n      swap2\n      sub\n      swap1\n      return\n        /* \"SafeMath.sol\":211:313   */\n    tag_10:\n      callvalue\n      dup1\n      iszero\n      tag_67\n      jumpi\n      0x00\n      dup1\n      revert\n    tag_67:\n      pop\n      tag_68\n      0x04\n      dup1\n      calldatasize\n      sub\n      dup2\n      add\n      swap1\n      tag_69\n      swap2\n      swap1\n      tag_39\n      jump\t// in\n    tag_69:\n      tag_70\n      jump\t// in\n    tag_68:\n      mload(0x40)\n      tag_71\n      swap2\n      swap1\n      tag_35\n      jump\t// in\n    tag_71:\n      mload(0x40)\n      dup1\n      swap2\n      sub\n      swap1\n      return\n        /* \"SafeMath.sol\":442:548   */\n    tag_11:\n      callvalue\n      dup1\n      iszero\n      tag_72\n      jumpi\n      0x00\n      dup1\n      revert\n    tag_72:\n      pop\n      tag_73\n      0x04\n      dup1\n      calldatasize\n      sub\n      dup2\n      add\n      swap1\n      tag_74\n      swap2\n      swap1\n      tag_39\n      jump\t// in\n    tag_74:\n      tag_75\n      jump\t// in\n    tag_73:\n      mload(0x40)\n      tag_76\n      swap2\n      swap1\n      tag_35\n      jump\t// in\n    tag_76:\n      mload(0x40)\n      dup1\n      swap2\n      sub\n      swap1\n      return\n        /* \"Dron_Company.sol\":2467:3594  function ContrataDron (uint256 iddron, uint256 idplot) public payable returns (bool success)... */\n    tag_12:\n      tag_77\n      0x04\n      dup1\n      calldatasize\n      sub\n      dup2\n      add\n      swap1\n      tag_78\n      swap2\n      swap1\n      tag_39\n      jump\t// in\n    tag_78:\n      tag_79\n      jump\t// in\n    tag_77:\n      mload(0x40)\n      tag_80\n      swap2\n      swap1\n      tag_28\n      jump\t// in\n    tag_80:\n      mload(0x40)\n      dup1\n      swap2\n      sub\n      swap1\n      return\n        /* \"Dron_Company.sol\":5327:5416  function get_idDron() public view returns(uint256)... */\n    tag_13:\n      callvalue\n      dup1\n      iszero\n      tag_81\n      jumpi\n      0x00\n      dup1\n      revert\n    tag_81:\n      pop\n      tag_82\n      tag_83\n      jump\t// in\n    tag_82:\n      mload(0x40)\n      tag_84\n      swap2\n      swap1\n      tag_35\n      jump\t// in\n    tag_84:\n      mload(0x40)\n      dup1\n      swap2\n      sub\n      swap1\n      return\n        /* \"Dron_Company.sol\":5781:5909  function getMinHeight(uint256 iddron) public view returns (uint256)... */\n    tag_14:\n      callvalue\n      dup1\n      iszero\n      tag_85\n      jumpi\n      0x00\n      dup1\n      revert\n    tag_85:\n      pop\n      tag_86\n      0x04\n      dup1\n      calldatasize\n      sub\n      dup2\n      add\n      swap1\n      tag_87\n      swap2\n      swap1\n      tag_32\n      jump\t// in\n    tag_87:\n      tag_88\n      jump\t// in\n    tag_86:\n      mload(0x40)\n      tag_89\n      swap2\n      swap1\n      tag_35\n      jump\t// in\n    tag_89:\n      mload(0x40)\n      dup1\n      swap2\n      sub\n      swap1\n      return\n        /* \"Dron_Company.sol\":5424:5513  function get_idPlot() public view returns(uint256)... */\n    tag_15:\n      callvalue\n      dup1\n      iszero\n      tag_90\n      jumpi\n      0x00\n      dup1\n      revert\n    tag_90:\n      pop\n      tag_91\n      tag_92\n      jump\t// in\n    tag_91:\n      mload(0x40)\n      tag_93\n      swap2\n      swap1\n      tag_35\n      jump\t// in\n    tag_93:\n      mload(0x40)\n      dup1\n      swap2\n      sub\n      swap1\n      return\n        /* \"SafeMath.sol\":334:441   */\n    tag_16:\n      callvalue\n      dup1\n      iszero\n      tag_94\n      jumpi\n      0x00\n      dup1\n      revert\n    tag_94:\n      pop\n      tag_95\n      0x04\n      dup1\n      calldatasize\n      sub\n      dup2\n      add\n      swap1\n      tag_96\n      swap2\n      swap1\n      tag_39\n      jump\t// in\n    tag_96:\n      tag_97\n      jump\t// in\n    tag_95:\n      mload(0x40)\n      tag_98\n      swap2\n      swap1\n      tag_35\n      jump\t// in\n    tag_98:\n      mload(0x40)\n      dup1\n      swap2\n      sub\n      swap1\n      return\n        /* \"Dron_Company.sol\":2072:2459  function getDronesDisponibles() public view returns(uint256[] memory)... */\n    tag_17:\n      callvalue\n      dup1\n      iszero\n      tag_99\n      jumpi\n      0x00\n      dup1\n      revert\n    tag_99:\n      pop\n      tag_100\n      tag_101\n      jump\t// in\n    tag_100:\n      mload(0x40)\n      tag_102\n      swap2\n      swap1\n      tag_49\n      jump\t// in\n    tag_102:\n      mload(0x40)\n      dup1\n      swap2\n      sub\n      swap1\n      return\n        /* \"SafeMath.sol\":89:205   */\n    tag_18:\n      callvalue\n      dup1\n      iszero\n      tag_103\n      jumpi\n      0x00\n      dup1\n      revert\n    tag_103:\n      pop\n      tag_104\n      0x04\n      dup1\n      calldatasize\n      sub\n      dup2\n      add\n      swap1\n      tag_105\n      swap2\n      swap1\n      tag_39\n      jump\t// in\n    tag_105:\n      tag_106\n      jump\t// in\n    tag_104:\n      mload(0x40)\n      tag_107\n      swap2\n      swap1\n      tag_35\n      jump\t// in\n    tag_107:\n      mload(0x40)\n      dup1\n      swap2\n      sub\n      swap1\n      return\n        /* \"Dron_Company.sol\":790:1288  function registraDron (uint256 maxheight, uint256 minheight, uint256 cost) public returns (bool success)... */\n    tag_26:\n        /* \"Dron_Company.sol\":881:893  bool success */\n      0x00\n        /* \"Dron_Company.sol\":929:938  minheight */\n      dup3\n        /* \"Dron_Company.sol\":919:928  maxheight */\n      dup5\n        /* \"Dron_Company.sol\":919:938  maxheight>minheight */\n      gt\n        /* \"Dron_Company.sol\":911:939  require(maxheight>minheight) */\n      tag_109\n      jumpi\n      0x00\n      dup1\n      revert\n    tag_109:\n        /* \"Dron_Company.sol\":965:966  0 */\n      0x00\n        /* \"Dron_Company.sol\":958:962  cost */\n      dup3\n        /* \"Dron_Company.sol\":958:966  cost > 0 */\n      gt\n        /* \"Dron_Company.sol\":950:967  require(cost > 0) */\n      tag_110\n      jumpi\n      0x00\n      dup1\n      revert\n    tag_110:\n        /* \"Dron_Company.sol\":998:999  0 */\n      0x00\n        /* \"Dron_Company.sol\":986:995  maxheight */\n      dup5\n        /* \"Dron_Company.sol\":986:999  maxheight > 0 */\n      gt\n        /* \"Dron_Company.sol\":978:1000  require(maxheight > 0) */\n      tag_111\n      jumpi\n      0x00\n      dup1\n      revert\n    tag_111:\n        /* \"Dron_Company.sol\":1031:1032  0 */\n      0x00\n        /* \"Dron_Company.sol\":1019:1028  minheight */\n      dup4\n        /* \"Dron_Company.sol\":1019:1032  minheight > 0 */\n      gt\n        /* \"Dron_Company.sol\":1011:1033  require(minheight > 0) */\n      tag_112\n      jumpi\n      0x00\n      dup1\n      revert\n    tag_112:\n        /* \"Dron_Company.sol\":1086:1087  1 */\n      0x01\n        /* \"Dron_Company.sol\":1077:1084  id_dron */\n      0x00\n      dup1\n        /* \"Dron_Company.sol\":1077:1087  id_dron+=1 */\n      dup3\n      dup3\n      sload\n      tag_113\n      swap2\n      swap1\n      tag_114\n      jump\t// in\n    tag_113:\n      swap3\n      pop\n      pop\n      dup2\n      swap1\n      sstore\n      pop\n        /* \"Dron_Company.sol\":1098:1107  Dron dron */\n      0x00\n        /* \"Dron_Company.sol\":1121:1130  maxheight */\n      dup5\n        /* \"Dron_Company.sol\":1132:1141  minheight */\n      dup5\n        /* \"Dron_Company.sol\":1143:1147  cost */\n      dup5\n        /* \"Dron_Company.sol\":1149:1156  id_dron */\n      sload(0x00)\n        /* \"Dron_Company.sol\":1111:1157  new Dron (maxheight, minheight, cost, id_dron) */\n      mload(0x40)\n      tag_115\n      swap1\n      tag_116\n      jump\t// in\n    tag_115:\n      tag_117\n      swap5\n      swap4\n      swap3\n      swap2\n      swap1\n      tag_118\n      jump\t// in\n    tag_117:\n      mload(0x40)\n      dup1\n      swap2\n      sub\n      swap1\n      0x00\n      create\n      dup1\n      iszero\n      dup1\n      iszero\n      tag_119\n      jumpi\n      returndatasize\n      0x00\n      dup1\n      returndatacopy\n      revert(0x00, returndatasize)\n    tag_119:\n      pop\n        /* \"Dron_Company.sol\":1098:1157  Dron dron  = new Dron (maxheight, minheight, cost, id_dron) */\n      swap1\n      pop\n        /* \"Dron_Company.sol\":1187:1191  dron */\n      dup1\n        /* \"Dron_Company.sol\":1169:1175  drones */\n      0x04\n        /* \"Dron_Company.sol\":1169:1184  drones[id_dron] */\n      0x00\n        /* \"Dron_Company.sol\":1176:1183  id_dron */\n      dup1\n      sload\n        /* \"Dron_Company.sol\":1169:1184  drones[id_dron] */\n      dup2\n      mstore\n      0x20\n      add\n      swap1\n      dup2\n      mstore\n      0x20\n      add\n      0x00\n      keccak256\n      0x00\n        /* \"Dron_Company.sol\":1169:1191  drones[id_dron] = dron */\n      0x0100\n      exp\n      dup2\n      sload\n      dup2\n      0xffffffffffffffffffffffffffffffffffffffff\n      mul\n      not\n      and\n      swap1\n      dup4\n      0xffffffffffffffffffffffffffffffffffffffff\n      and\n      mul\n      or\n      swap1\n      sstore\n      pop\n        /* \"Dron_Company.sol\":1223:1227  dron */\n      dup1\n        /* \"Dron_Company.sol\":1223:1237  dron._mintDron */\n      0xffffffffffffffffffffffffffffffffffffffff\n      and\n      0xe2fb9893\n        /* \"Dron_Company.sol\":1238:1248  msg.sender */\n      caller\n        /* \"Dron_Company.sol\":1250:1257  id_dron */\n      sload(0x00)\n        /* \"Dron_Company.sol\":1223:1258  dron._mintDron(msg.sender, id_dron) */\n      mload(0x40)\n      dup4\n      0xffffffff\n      and\n      0xe0\n      shl\n      dup2\n      mstore\n      0x04\n      add\n      tag_120\n      swap3\n      swap2\n      swap1\n      tag_121\n      jump\t// in\n    tag_120:\n      0x00\n      mload(0x40)\n      dup1\n      dup4\n      sub\n      dup2\n      0x00\n      dup8\n      dup1\n      extcodesize\n      iszero\n      dup1\n      iszero\n      tag_122\n      jumpi\n      0x00\n      dup1\n      revert\n    tag_122:\n      pop\n      gas\n      call\n      iszero\n      dup1\n      iszero\n      tag_124\n      jumpi\n      returndatasize\n      0x00\n      dup1\n      returndatacopy\n      revert(0x00, returndatasize)\n    tag_124:\n      pop\n      pop\n      pop\n      pop\n        /* \"Dron_Company.sol\":1276:1280  true */\n      0x01\n        /* \"Dron_Company.sol\":1269:1280  return true */\n      swap2\n      pop\n      pop\n        /* \"Dron_Company.sol\":790:1288  function registraDron (uint256 maxheight, uint256 minheight, uint256 cost) public returns (bool success)... */\n      swap4\n      swap3\n      pop\n      pop\n      pop\n      jump\t// out\n        /* \"Dron_Company.sol\":5645:5773  function getMaxHeight(uint256 iddron) public view returns (uint256)... */\n    tag_33:\n        /* \"Dron_Company.sol\":5704:5711  uint256 */\n      0x00\n        /* \"Dron_Company.sol\":5736:5742  drones */\n      0x04\n        /* \"Dron_Company.sol\":5736:5750  drones[iddron] */\n      0x00\n        /* \"Dron_Company.sol\":5743:5749  iddron */\n      dup4\n        /* \"Dron_Company.sol\":5736:5750  drones[iddron] */\n      dup2\n      mstore\n      0x20\n      add\n      swap1\n      dup2\n      mstore\n      0x20\n      add\n      0x00\n      keccak256\n      0x00\n      swap1\n      sload\n      swap1\n      0x0100\n      exp\n      swap1\n      div\n      0xffffffffffffffffffffffffffffffffffffffff\n      and\n        /* \"Dron_Company.sol\":5736:5763  drones[iddron].getMaxHeight */\n      0xffffffffffffffffffffffffffffffffffffffff\n      and\n      0xcf22b577\n        /* \"Dron_Company.sol\":5736:5765  drones[iddron].getMaxHeight() */\n      mload(0x40)\n      dup2\n      0xffffffff\n      and\n      0xe0\n      shl\n      dup2\n      mstore\n      0x04\n      add\n      0x20\n      mload(0x40)\n      dup1\n      dup4\n      sub\n      dup2\n      dup7\n      gas\n      staticcall\n      iszero\n      dup1\n      iszero\n      tag_127\n      jumpi\n      returndatasize\n      0x00\n      dup1\n      returndatacopy\n      revert(0x00, returndatasize)\n    tag_127:\n      pop\n      pop\n      pop\n      pop\n      mload(0x40)\n      returndatasize\n      not(0x1f)\n      0x1f\n      dup3\n      add\n      and\n      dup3\n      add\n      dup1\n      0x40\n      mstore\n      pop\n      dup2\n      add\n      swap1\n      tag_128\n      swap2\n      swap1\n      tag_129\n      jump\t// in\n    tag_128:\n        /* \"Dron_Company.sol\":5729:5765  return drones[iddron].getMaxHeight() */\n      swap1\n      pop\n        /* \"Dron_Company.sol\":5645:5773  function getMaxHeight(uint256 iddron) public view returns (uint256)... */\n      swap2\n      swap1\n      pop\n      jump\t// out\n        /* \"Dron_Company.sol\":3602:4055  function aceptaTrabajos (uint256 iddron, uint256 idplot) public... */\n    tag_40:\n        /* \"Dron_Company.sol\":3701:3702  0 */\n      0x00\n        /* \"Dron_Company.sol\":3691:3697  iddron */\n      dup3\n        /* \"Dron_Company.sol\":3691:3702  iddron != 0 */\n      eq\n      iszero\n        /* \"Dron_Company.sol\":3691:3717  iddron != 0 && idplot != 0 */\n      dup1\n      iszero\n      tag_131\n      jumpi\n      pop\n        /* \"Dron_Company.sol\":3716:3717  0 */\n      0x00\n        /* \"Dron_Company.sol\":3706:3712  idplot */\n      dup2\n        /* \"Dron_Company.sol\":3706:3717  idplot != 0 */\n      eq\n      iszero\n        /* \"Dron_Company.sol\":3691:3717  iddron != 0 && idplot != 0 */\n    tag_131:\n        /* \"Dron_Company.sol\":3682:3718  require (iddron != 0 && idplot != 0) */\n      tag_132\n      jumpi\n      0x00\n      dup1\n      revert\n    tag_132:\n        /* \"Dron_Company.sol\":3752:3758  drones */\n      0x04\n        /* \"Dron_Company.sol\":3752:3766  drones[iddron] */\n      0x00\n        /* \"Dron_Company.sol\":3759:3765  iddron */\n      dup4\n        /* \"Dron_Company.sol\":3752:3766  drones[iddron] */\n      dup2\n      mstore\n      0x20\n      add\n      swap1\n      dup2\n      mstore\n      0x20\n      add\n      0x00\n      keccak256\n      0x00\n      swap1\n      sload\n      swap1\n      0x0100\n      exp\n      swap1\n      div\n      0xffffffffffffffffffffffffffffffffffffffff\n      and\n        /* \"Dron_Company.sol\":3752:3774  drones[iddron].ownerOf */\n      0xffffffffffffffffffffffffffffffffffffffff\n      and\n      0x6352211e\n        /* \"Dron_Company.sol\":3775:3781  iddron */\n      dup4\n        /* \"Dron_Company.sol\":3752:3782  drones[iddron].ownerOf(iddron) */\n      mload(0x40)\n      dup3\n      0xffffffff\n      and\n      0xe0\n      shl\n      dup2\n      mstore\n      0x04\n      add\n      tag_133\n      swap2\n      swap1\n      tag_35\n      jump\t// in\n    tag_133:\n      0x20\n      mload(0x40)\n      dup1\n      dup4\n      sub\n      dup2\n      dup7\n      gas\n      staticcall\n      iszero\n      dup1\n      iszero\n      tag_135\n      jumpi\n      returndatasize\n      0x00\n      dup1\n      returndatacopy\n      revert(0x00, returndatasize)\n    tag_135:\n      pop\n      pop\n      pop\n      pop\n      mload(0x40)\n      returndatasize\n      not(0x1f)\n      0x1f\n      dup3\n      add\n      and\n      dup3\n      add\n      dup1\n      0x40\n      mstore\n      pop\n      dup2\n      add\n      swap1\n      tag_136\n      swap2\n      swap1\n      tag_137\n      jump\t// in\n    tag_136:\n        /* \"Dron_Company.sol\":3738:3782  msg.sender == drones[iddron].ownerOf(iddron) */\n      0xffffffffffffffffffffffffffffffffffffffff\n      and\n        /* \"Dron_Company.sol\":3738:3748  msg.sender */\n      caller\n        /* \"Dron_Company.sol\":3738:3782  msg.sender == drones[iddron].ownerOf(iddron) */\n      0xffffffffffffffffffffffffffffffffffffffff\n      and\n      eq\n        /* \"Dron_Company.sol\":3729:3783  require (msg.sender == drones[iddron].ownerOf(iddron)) */\n      tag_138\n      jumpi\n      0x00\n      dup1\n      revert\n    tag_138:\n        /* \"Dron_Company.sol\":3833:3839  iddron */\n      dup2\n        /* \"Dron_Company.sol\":3803:3821  trabajosPendientes */\n      0x06\n        /* \"Dron_Company.sol\":3803:3829  trabajosPendientes[idplot] */\n      0x00\n        /* \"Dron_Company.sol\":3822:3828  idplot */\n      dup4\n        /* \"Dron_Company.sol\":3803:3829  trabajosPendientes[idplot] */\n      dup2\n      mstore\n      0x20\n      add\n      swap1\n      dup2\n      mstore\n      0x20\n      add\n      0x00\n      keccak256\n      sload\n        /* \"Dron_Company.sol\":3803:3839  trabajosPendientes[idplot] == iddron */\n      eq\n        /* \"Dron_Company.sol\":3794:3840  require (trabajosPendientes[idplot] == iddron) */\n      tag_139\n      jumpi\n      0x00\n      dup1\n      revert\n    tag_139:\n        /* \"Dron_Company.sol\":3852:3858  drones */\n      0x04\n        /* \"Dron_Company.sol\":3852:3866  drones[iddron] */\n      0x00\n        /* \"Dron_Company.sol\":3859:3865  iddron */\n      dup4\n        /* \"Dron_Company.sol\":3852:3866  drones[iddron] */\n      dup2\n      mstore\n      0x20\n      add\n      swap1\n      dup2\n      mstore\n      0x20\n      add\n      0x00\n      keccak256\n      0x00\n      swap1\n      sload\n      swap1\n      0x0100\n      exp\n      swap1\n      div\n      0xffffffffffffffffffffffffffffffffffffffff\n      and\n        /* \"Dron_Company.sol\":3852:3877  drones[iddron].fumigacion */\n      0xffffffffffffffffffffffffffffffffffffffff\n      and\n      0x1e7ec0f3\n        /* \"Dron_Company.sol\":3878:3884  idplot */\n      dup3\n        /* \"Dron_Company.sol\":3852:3885  drones[iddron].fumigacion(idplot) */\n      mload(0x40)\n      dup3\n      0xffffffff\n      and\n      0xe0\n      shl\n      dup2\n      mstore\n      0x04\n      add\n      tag_140\n      swap2\n      swap1\n      tag_35\n      jump\t// in\n    tag_140:\n      0x00\n      mload(0x40)\n      dup1\n      dup4\n      sub\n      dup2\n      0x00\n      dup8\n      dup1\n      extcodesize\n      iszero\n      dup1\n      iszero\n      tag_141\n      jumpi\n      0x00\n      dup1\n      revert\n    tag_141:\n      pop\n      gas\n      call\n      iszero\n      dup1\n      iszero\n      tag_143\n      jumpi\n      returndatasize\n      0x00\n      dup1\n      returndatacopy\n      revert(0x00, returndatasize)\n    tag_143:\n      pop\n      pop\n      pop\n      pop\n        /* \"Dron_Company.sol\":3897:3902  plots */\n      0x05\n        /* \"Dron_Company.sol\":3897:3910  plots[idplot] */\n      0x00\n        /* \"Dron_Company.sol\":3903:3909  idplot */\n      dup3\n        /* \"Dron_Company.sol\":3897:3910  plots[idplot] */\n      dup2\n      mstore\n      0x20\n      add\n      swap1\n      dup2\n      mstore\n      0x20\n      add\n      0x00\n      keccak256\n      0x00\n      swap1\n      sload\n      swap1\n      0x0100\n      exp\n      swap1\n      div\n      0xffffffffffffffffffffffffffffffffffffffff\n      and\n        /* \"Dron_Company.sol\":3897:3922  plots[idplot].setAtendido */\n      0xffffffffffffffffffffffffffffffffffffffff\n      and\n      0x4a627aeb\n        /* \"Dron_Company.sol\":3923:3927  true */\n      0x01\n        /* \"Dron_Company.sol\":3897:3928  plots[idplot].setAtendido(true) */\n      mload(0x40)\n      dup3\n      0xffffffff\n      and\n      0xe0\n      shl\n      dup2\n      mstore\n      0x04\n      add\n      tag_144\n      swap2\n      swap1\n      tag_28\n      jump\t// in\n    tag_144:\n      0x00\n      mload(0x40)\n      dup1\n      dup4\n      sub\n      dup2\n      0x00\n      dup8\n      dup1\n      extcodesize\n      iszero\n      dup1\n      iszero\n      tag_145\n      jumpi\n      0x00\n      dup1\n      revert\n    tag_145:\n      pop\n      gas\n      call\n      iszero\n      dup1\n      iszero\n      tag_147\n      jumpi\n      returndatasize\n      0x00\n      dup1\n      returndatacopy\n      revert(0x00, returndatasize)\n    tag_147:\n      pop\n      pop\n      pop\n      pop\n        /* \"Dron_Company.sol\":3939:3945  drones */\n      0x04\n        /* \"Dron_Company.sol\":3939:3953  drones[iddron] */\n      0x00\n        /* \"Dron_Company.sol\":3946:3952  iddron */\n      dup4\n        /* \"Dron_Company.sol\":3939:3953  drones[iddron] */\n      dup2\n      mstore\n      0x20\n      add\n      swap1\n      dup2\n      mstore\n      0x20\n      add\n      0x00\n      keccak256\n      0x00\n      swap1\n      sload\n      swap1\n      0x0100\n      exp\n      swap1\n      div\n      0xffffffffffffffffffffffffffffffffffffffff\n      and\n        /* \"Dron_Company.sol\":3939:3967  drones[iddron].setDisponible */\n      0xffffffffffffffffffffffffffffffffffffffff\n      and\n      0x2b81ff95\n        /* \"Dron_Company.sol\":3968:3972  true */\n      0x01\n        /* \"Dron_Company.sol\":3939:3973  drones[iddron].setDisponible(true) */\n      mload(0x40)\n      dup3\n      0xffffffff\n      and\n      0xe0\n      shl\n      dup2\n      mstore\n      0x04\n      add\n      tag_148\n      swap2\n      swap1\n      tag_28\n      jump\t// in\n    tag_148:\n      0x00\n      mload(0x40)\n      dup1\n      dup4\n      sub\n      dup2\n      0x00\n      dup8\n      dup1\n      extcodesize\n      iszero\n      dup1\n      iszero\n      tag_149\n      jumpi\n      0x00\n      dup1\n      revert\n    tag_149:\n      pop\n      gas\n      call\n      iszero\n      dup1\n      iszero\n      tag_151\n      jumpi\n      returndatasize\n      0x00\n      dup1\n      returndatacopy\n      revert(0x00, returndatasize)\n    tag_151:\n      pop\n      pop\n      pop\n      pop\n        /* \"Dron_Company.sol\":4011:4012  0 */\n      0x00\n        /* \"Dron_Company.sol\":3984:4002  trabajosPendientes */\n      0x06\n        /* \"Dron_Company.sol\":3984:4010  trabajosPendientes[idplot] */\n      0x00\n        /* \"Dron_Company.sol\":4003:4009  idplot */\n      dup4\n        /* \"Dron_Company.sol\":3984:4010  trabajosPendientes[idplot] */\n      dup2\n      mstore\n      0x20\n      add\n      swap1\n      dup2\n      mstore\n      0x20\n      add\n      0x00\n      keccak256\n        /* \"Dron_Company.sol\":3984:4012  trabajosPendientes[idplot]=0 */\n      dup2\n      swap1\n      sstore\n      pop\n        /* \"Dron_Company.sol\":4046:4047  1 */\n      0x01\n        /* \"Dron_Company.sol\":4035:4045  n_trabajos */\n      sload(0x02)\n        /* \"Dron_Company.sol\":4035:4047  n_trabajos-1 */\n      tag_152\n      swap2\n      swap1\n      tag_153\n      jump\t// in\n    tag_152:\n        /* \"Dron_Company.sol\":4023:4033  n_trabajos */\n      0x02\n        /* \"Dron_Company.sol\":4023:4047  n_trabajos= n_trabajos-1 */\n      dup2\n      swap1\n      sstore\n      pop\n        /* \"Dron_Company.sol\":3602:4055  function aceptaTrabajos (uint256 iddron, uint256 idplot) public... */\n      pop\n      pop\n      jump\t// out\n        /* \"Dron_Company.sol\":4705:5122  function buyTokens(uint256 _amount) public payable returns (bool success) ... */\n    tag_43:\n        /* \"Dron_Company.sol\":4765:4777  bool success */\n      0x00\n        /* \"Dron_Company.sol\":4816:4838  safeMul(_amount, 1000) */\n      tag_155\n        /* \"Dron_Company.sol\":4824:4831  _amount */\n      dup3\n        /* \"Dron_Company.sol\":4833:4837  1000 */\n      0x03e8\n        /* \"Dron_Company.sol\":4816:4823  safeMul */\n      tag_97\n        /* \"Dron_Company.sol\":4816:4838  safeMul(_amount, 1000) */\n      jump\t// in\n    tag_155:\n        /* \"Dron_Company.sol\":4804:4813  msg.value */\n      callvalue\n        /* \"Dron_Company.sol\":4804:4838  msg.value > safeMul(_amount, 1000) */\n      gt\n        /* \"Dron_Company.sol\":4796:4839  require(msg.value > safeMul(_amount, 1000)) */\n      tag_156\n      jumpi\n      0x00\n      dup1\n      revert\n    tag_156:\n        /* \"Dron_Company.sol\":4852:4871  uint256 amountToBuy */\n      0x00\n        /* \"Dron_Company.sol\":4874:4907  safeMul(_amount, uint256(10)**18) */\n      tag_157\n        /* \"Dron_Company.sol\":4882:4889  _amount */\n      dup4\n        /* \"Dron_Company.sol\":4904:4906  18 */\n      0x12\n        /* \"Dron_Company.sol\":4899:4901  10 */\n      0x0a\n        /* \"Dron_Company.sol\":4891:4906  uint256(10)**18 */\n      tag_158\n      swap2\n      swap1\n      tag_159\n      jump\t// in\n    tag_158:\n        /* \"Dron_Company.sol\":4874:4881  safeMul */\n      tag_97\n        /* \"Dron_Company.sol\":4874:4907  safeMul(_amount, uint256(10)**18) */\n      jump\t// in\n    tag_157:\n        /* \"Dron_Company.sol\":4852:4907  uint256 amountToBuy = safeMul(_amount, uint256(10)**18) */\n      swap1\n      pop\n        /* \"Dron_Company.sol\":4962:4973  amountToBuy */\n      dup1\n        /* \"Dron_Company.sol\":4928:4933  token */\n      0x07\n      0x00\n      swap1\n      sload\n      swap1\n      0x0100\n      exp\n      swap1\n      div\n      0xffffffffffffffffffffffffffffffffffffffff\n      and\n        /* \"Dron_Company.sol\":4928:4943  token.balanceOf */\n      0xffffffffffffffffffffffffffffffffffffffff\n      and\n      0x70a08231\n        /* \"Dron_Company.sol\":4952:4956  this */\n      address\n        /* \"Dron_Company.sol\":4928:4958  token.balanceOf(address(this)) */\n      mload(0x40)\n      dup3\n      0xffffffff\n      and\n      0xe0\n      shl\n      dup2\n      mstore\n      0x04\n      add\n      tag_160\n      swap2\n      swap1\n      tag_161\n      jump\t// in\n    tag_160:\n      0x20\n      mload(0x40)\n      dup1\n      dup4\n      sub\n      dup2\n      dup7\n      gas\n      staticcall\n      iszero\n      dup1\n      iszero\n      tag_163\n      jumpi\n      returndatasize\n      0x00\n      dup1\n      returndatacopy\n      revert(0x00, returndatasize)\n    tag_163:\n      pop\n      pop\n      pop\n      pop\n      mload(0x40)\n      returndatasize\n      not(0x1f)\n      0x1f\n      dup3\n      add\n      and\n      dup3\n      add\n      dup1\n      0x40\n      mstore\n      pop\n      dup2\n      add\n      swap1\n      tag_164\n      swap2\n      swap1\n      tag_129\n      jump\t// in\n    tag_164:\n        /* \"Dron_Company.sol\":4928:4973  token.balanceOf(address(this)) >= amountToBuy */\n      lt\n      iszero\n        /* \"Dron_Company.sol\":4920:4974  require(token.balanceOf(address(this)) >= amountToBuy) */\n      tag_165\n      jumpi\n      0x00\n      dup1\n      revert\n    tag_165:\n        /* \"Dron_Company.sol\":5003:5008  token */\n      0x07\n      0x00\n      swap1\n      sload\n      swap1\n      0x0100\n      exp\n      swap1\n      div\n      0xffffffffffffffffffffffffffffffffffffffff\n      and\n        /* \"Dron_Company.sol\":5003:5017  token.transfer */\n      0xffffffffffffffffffffffffffffffffffffffff\n      and\n      0xa9059cbb\n        /* \"Dron_Company.sol\":5018:5028  msg.sender */\n      caller\n        /* \"Dron_Company.sol\":5030:5041  amountToBuy */\n      dup4\n        /* \"Dron_Company.sol\":5003:5042  token.transfer(msg.sender, amountToBuy) */\n      mload(0x40)\n      dup4\n      0xffffffff\n      and\n      0xe0\n      shl\n      dup2\n      mstore\n      0x04\n      add\n      tag_166\n      swap3\n      swap2\n      swap1\n      tag_121\n      jump\t// in\n    tag_166:\n      0x20\n      mload(0x40)\n      dup1\n      dup4\n      sub\n      dup2\n      0x00\n      dup8\n      gas\n      call\n      iszero\n      dup1\n      iszero\n      tag_168\n      jumpi\n      returndatasize\n      0x00\n      dup1\n      returndatacopy\n      revert(0x00, returndatasize)\n    tag_168:\n      pop\n      pop\n      pop\n      pop\n      mload(0x40)\n      returndatasize\n      not(0x1f)\n      0x1f\n      dup3\n      add\n      and\n      dup3\n      add\n      dup1\n      0x40\n      mstore\n      pop\n      dup2\n      add\n      swap1\n      tag_169\n      swap2\n      swap1\n      tag_170\n      jump\t// in\n    tag_169:\n        /* \"Dron_Company.sol\":4995:5043  require(token.transfer(msg.sender, amountToBuy)) */\n      tag_171\n      jumpi\n      0x00\n      dup1\n      revert\n    tag_171:\n        /* \"Dron_Company.sol\":5061:5090  Sold(msg.sender, amountToBuy) */\n      0xae92ab4b6f8f401ead768d3273e6bb937a13e39827d19c6376e8fd4512a05d9a\n        /* \"Dron_Company.sol\":5066:5076  msg.sender */\n      caller\n        /* \"Dron_Company.sol\":5078:5089  amountToBuy */\n      dup3\n        /* \"Dron_Company.sol\":5061:5090  Sold(msg.sender, amountToBuy) */\n      mload(0x40)\n      tag_172\n      swap3\n      swap2\n      swap1\n      tag_121\n      jump\t// in\n    tag_172:\n      mload(0x40)\n      dup1\n      swap2\n      sub\n      swap1\n      log1\n        /* \"Dron_Company.sol\":5110:5114  true */\n      0x01\n        /* \"Dron_Company.sol\":5103:5114  return true */\n      swap2\n      pop\n      pop\n        /* \"Dron_Company.sol\":4705:5122  function buyTokens(uint256 _amount) public payable returns (bool success) ... */\n      swap2\n      swap1\n      pop\n      jump\t// out\n        /* \"Dron_Company.sol\":4063:4697  function getTrabajosDisponibles() public view returns(uint256[] memory)... */\n    tag_47:\n        /* \"Dron_Company.sol\":4117:4133  uint256[] memory */\n      0x60\n        /* \"Dron_Company.sol\":4151:4182  uint256 [] memory trabajosOwner */\n      0x00\n        /* \"Dron_Company.sol\":4201:4211  n_trabajos */\n      sload(0x02)\n        /* \"Dron_Company.sol\":4185:4212  new uint256 [] (n_trabajos) */\n      0xffffffffffffffff\n      dup2\n      gt\n      iszero\n      tag_174\n      jumpi\n      tag_175\n      tag_176\n      jump\t// in\n    tag_175:\n    tag_174:\n      mload(0x40)\n      swap1\n      dup1\n      dup3\n      mstore\n      dup1\n      0x20\n      mul\n      0x20\n      add\n      dup3\n      add\n      0x40\n      mstore\n      dup1\n      iszero\n      tag_177\n      jumpi\n      dup2\n      0x20\n      add\n      0x20\n      dup3\n      mul\n      dup1\n      calldatasize\n      dup4\n      calldatacopy\n      dup1\n      dup3\n      add\n      swap2\n      pop\n      pop\n      swap1\n      pop\n    tag_177:\n      pop\n        /* \"Dron_Company.sol\":4151:4212  uint256 [] memory trabajosOwner = new uint256 [] (n_trabajos) */\n      swap1\n      pop\n        /* \"Dron_Company.sol\":4223:4229  uint n */\n      0x00\n        /* \"Dron_Company.sol\":4259:4265  uint i */\n      dup1\n        /* \"Dron_Company.sol\":4266:4267  1 */\n      0x01\n        /* \"Dron_Company.sol\":4259:4267  uint i=1 */\n      swap1\n      pop\n        /* \"Dron_Company.sol\":4254:4659  for (uint i=1; i<=n_trabajos; i++)... */\n    tag_178:\n        /* \"Dron_Company.sol\":4272:4282  n_trabajos */\n      sload(0x02)\n        /* \"Dron_Company.sol\":4269:4270  i */\n      dup2\n        /* \"Dron_Company.sol\":4269:4282  i<=n_trabajos */\n      gt\n        /* \"Dron_Company.sol\":4254:4659  for (uint i=1; i<=n_trabajos; i++)... */\n      tag_179\n      jumpi\n        /* \"Dron_Company.sol\":4313:4327  uint256 iddron */\n      0x00\n        /* \"Dron_Company.sol\":4330:4348  trabajosPendientes */\n      0x06\n        /* \"Dron_Company.sol\":4330:4351  trabajosPendientes[i] */\n      0x00\n        /* \"Dron_Company.sol\":4349:4350  i */\n      dup4\n        /* \"Dron_Company.sol\":4330:4351  trabajosPendientes[i] */\n      dup2\n      mstore\n      0x20\n      add\n      swap1\n      dup2\n      mstore\n      0x20\n      add\n      0x00\n      keccak256\n      sload\n        /* \"Dron_Company.sol\":4313:4351  uint256 iddron = trabajosPendientes[i] */\n      swap1\n      pop\n        /* \"Dron_Company.sol\":4394:4395  0 */\n      0x00\n        /* \"Dron_Company.sol\":4384:4390  iddron */\n      dup2\n        /* \"Dron_Company.sol\":4384:4395  iddron != 0 */\n      eq\n        /* \"Dron_Company.sol\":4380:4648  if (iddron != 0)... */\n      tag_181\n      jumpi\n        /* \"Dron_Company.sol\":4429:4447  address dron_owner */\n      0x00\n        /* \"Dron_Company.sol\":4450:4456  drones */\n      0x04\n        /* \"Dron_Company.sol\":4450:4464  drones[iddron] */\n      0x00\n        /* \"Dron_Company.sol\":4457:4463  iddron */\n      dup4\n        /* \"Dron_Company.sol\":4450:4464  drones[iddron] */\n      dup2\n      mstore\n      0x20\n      add\n      swap1\n      dup2\n      mstore\n      0x20\n      add\n      0x00\n      keccak256\n      0x00\n      swap1\n      sload\n      swap1\n      0x0100\n      exp\n      swap1\n      div\n      0xffffffffffffffffffffffffffffffffffffffff\n      and\n        /* \"Dron_Company.sol\":4450:4472  drones[iddron].ownerOf */\n      0xffffffffffffffffffffffffffffffffffffffff\n      and\n      0x6352211e\n        /* \"Dron_Company.sol\":4473:4479  iddron */\n      dup4\n        /* \"Dron_Company.sol\":4450:4480  drones[iddron].ownerOf(iddron) */\n      mload(0x40)\n      dup3\n      0xffffffff\n      and\n      0xe0\n      shl\n      dup2\n      mstore\n      0x04\n      add\n      tag_182\n      swap2\n      swap1\n      tag_35\n      jump\t// in\n    tag_182:\n      0x20\n      mload(0x40)\n      dup1\n      dup4\n      sub\n      dup2\n      dup7\n      gas\n      staticcall\n      iszero\n      dup1\n      iszero\n      tag_184\n      jumpi\n      returndatasize\n      0x00\n      dup1\n      returndatacopy\n      revert(0x00, returndatasize)\n    tag_184:\n      pop\n      pop\n      pop\n      pop\n      mload(0x40)\n      returndatasize\n      not(0x1f)\n      0x1f\n      dup3\n      add\n      and\n      dup3\n      add\n      dup1\n      0x40\n      mstore\n      pop\n      dup2\n      add\n      swap1\n      tag_185\n      swap2\n      swap1\n      tag_137\n      jump\t// in\n    tag_185:\n        /* \"Dron_Company.sol\":4429:4480  address dron_owner = drones[iddron].ownerOf(iddron) */\n      swap1\n      pop\n        /* \"Dron_Company.sol\":4517:4527  msg.sender */\n      caller\n        /* \"Dron_Company.sol\":4503:4527  dron_owner == msg.sender */\n      0xffffffffffffffffffffffffffffffffffffffff\n      and\n        /* \"Dron_Company.sol\":4503:4513  dron_owner */\n      dup2\n        /* \"Dron_Company.sol\":4503:4527  dron_owner == msg.sender */\n      0xffffffffffffffffffffffffffffffffffffffff\n      and\n      sub\n        /* \"Dron_Company.sol\":4499:4633  if (dron_owner == msg.sender)... */\n      tag_186\n      jumpi\n        /* \"Dron_Company.sol\":4586:4587  i */\n      dup3\n        /* \"Dron_Company.sol\":4569:4582  trabajosOwner */\n      dup6\n        /* \"Dron_Company.sol\":4583:4584  n */\n      dup6\n        /* \"Dron_Company.sol\":4569:4585  trabajosOwner[n] */\n      dup2\n      mload\n      dup2\n      lt\n      tag_187\n      jumpi\n      tag_188\n      tag_189\n      jump\t// in\n    tag_188:\n    tag_187:\n      0x20\n      mul\n      0x20\n      add\n      add\n        /* \"Dron_Company.sol\":4569:4587  trabajosOwner[n]=i */\n      dup2\n      dup2\n      mstore\n      pop\n      pop\n        /* \"Dron_Company.sol\":4610:4613  n++ */\n      dup4\n      dup1\n      tag_190\n      swap1\n      tag_191\n      jump\t// in\n    tag_190:\n      swap5\n      pop\n      pop\n        /* \"Dron_Company.sol\":4499:4633  if (dron_owner == msg.sender)... */\n    tag_186:\n        /* \"Dron_Company.sol\":4410:4648  {... */\n      pop\n        /* \"Dron_Company.sol\":4380:4648  if (iddron != 0)... */\n    tag_181:\n        /* \"Dron_Company.sol\":4298:4659  {... */\n      pop\n        /* \"Dron_Company.sol\":4284:4287  i++ */\n      dup1\n      dup1\n      tag_192\n      swap1\n      tag_191\n      jump\t// in\n    tag_192:\n      swap2\n      pop\n      pop\n        /* \"Dron_Company.sol\":4254:4659  for (uint i=1; i<=n_trabajos; i++)... */\n      jump(tag_178)\n    tag_179:\n      pop\n        /* \"Dron_Company.sol\":4676:4689  trabajosOwner */\n      dup2\n        /* \"Dron_Company.sol\":4669:4689  return trabajosOwner */\n      swap3\n      pop\n      pop\n      pop\n        /* \"Dron_Company.sol\":4063:4697  function getTrabajosDisponibles() public view returns(uint256[] memory)... */\n      swap1\n      jump\t// out\n        /* \"Dron_Company.sol\":1296:2006  function registraPlot (uint256 maxheight, uint256 minheight, string memory _pesticide) public returns (bool success)... */\n    tag_54:\n        /* \"Dron_Company.sol\":1399:1411  bool success */\n      0x00\n        /* \"Dron_Company.sol\":1447:1456  minheight */\n      dup3\n        /* \"Dron_Company.sol\":1437:1446  maxheight */\n      dup5\n        /* \"Dron_Company.sol\":1437:1456  maxheight>minheight */\n      gt\n        /* \"Dron_Company.sol\":1429:1457  require(maxheight>minheight) */\n      tag_194\n      jumpi\n      0x00\n      dup1\n      revert\n    tag_194:\n        /* \"Dron_Company.sol\":1488:1489  0 */\n      0x00\n        /* \"Dron_Company.sol\":1476:1485  maxheight */\n      dup5\n        /* \"Dron_Company.sol\":1476:1489  maxheight > 0 */\n      gt\n        /* \"Dron_Company.sol\":1468:1490  require(maxheight > 0) */\n      tag_195\n      jumpi\n      0x00\n      dup1\n      revert\n    tag_195:\n        /* \"Dron_Company.sol\":1521:1522  0 */\n      0x00\n        /* \"Dron_Company.sol\":1509:1518  minheight */\n      dup4\n        /* \"Dron_Company.sol\":1509:1522  minheight > 0 */\n      gt\n        /* \"Dron_Company.sol\":1501:1523  require(minheight > 0) */\n      tag_196\n      jumpi\n      0x00\n      dup1\n      revert\n    tag_196:\n        /* \"Dron_Company.sol\":1543:1584  compareStrings(_pesticide, \"Pesticida A\") */\n      tag_197\n        /* \"Dron_Company.sol\":1558:1568  _pesticide */\n      dup3\n        /* \"Dron_Company.sol\":1543:1584  compareStrings(_pesticide, \"Pesticida A\") */\n      mload(0x40)\n      dup1\n      0x40\n      add\n      0x40\n      mstore\n      dup1\n      0x0b\n      dup2\n      mstore\n      0x20\n      add\n      0x5065737469636964612041000000000000000000000000000000000000000000\n      dup2\n      mstore\n      pop\n        /* \"Dron_Company.sol\":1543:1557  compareStrings */\n      tag_198\n        /* \"Dron_Company.sol\":1543:1584  compareStrings(_pesticide, \"Pesticida A\") */\n      jump\t// in\n    tag_197:\n        /* \"Dron_Company.sol\":1543:1629  compareStrings(_pesticide, \"Pesticida A\") || compareStrings(_pesticide, \"Pesticida B\") */\n      dup1\n      tag_199\n      jumpi\n      pop\n        /* \"Dron_Company.sol\":1588:1629  compareStrings(_pesticide, \"Pesticida B\") */\n      tag_200\n        /* \"Dron_Company.sol\":1603:1613  _pesticide */\n      dup3\n        /* \"Dron_Company.sol\":1588:1629  compareStrings(_pesticide, \"Pesticida B\") */\n      mload(0x40)\n      dup1\n      0x40\n      add\n      0x40\n      mstore\n      dup1\n      0x0b\n      dup2\n      mstore\n      0x20\n      add\n      0x5065737469636964612042000000000000000000000000000000000000000000\n      dup2\n      mstore\n      pop\n        /* \"Dron_Company.sol\":1588:1602  compareStrings */\n      tag_198\n        /* \"Dron_Company.sol\":1588:1629  compareStrings(_pesticide, \"Pesticida B\") */\n      jump\t// in\n    tag_200:\n        /* \"Dron_Company.sol\":1543:1629  compareStrings(_pesticide, \"Pesticida A\") || compareStrings(_pesticide, \"Pesticida B\") */\n    tag_199:\n        /* \"Dron_Company.sol\":1543:1673  compareStrings(_pesticide, \"Pesticida A\") || compareStrings(_pesticide, \"Pesticida B\") ||compareStrings(_pesticide, \"Pesticida C\") */\n      dup1\n      tag_201\n      jumpi\n      pop\n        /* \"Dron_Company.sol\":1632:1673  compareStrings(_pesticide, \"Pesticida C\") */\n      tag_202\n        /* \"Dron_Company.sol\":1647:1657  _pesticide */\n      dup3\n        /* \"Dron_Company.sol\":1632:1673  compareStrings(_pesticide, \"Pesticida C\") */\n      mload(0x40)\n      dup1\n      0x40\n      add\n      0x40\n      mstore\n      dup1\n      0x0b\n      dup2\n      mstore\n      0x20\n      add\n      0x5065737469636964612043000000000000000000000000000000000000000000\n      dup2\n      mstore\n      pop\n        /* \"Dron_Company.sol\":1632:1646  compareStrings */\n      tag_198\n        /* \"Dron_Company.sol\":1632:1673  compareStrings(_pesticide, \"Pesticida C\") */\n      jump\t// in\n    tag_202:\n        /* \"Dron_Company.sol\":1543:1673  compareStrings(_pesticide, \"Pesticida A\") || compareStrings(_pesticide, \"Pesticida B\") ||compareStrings(_pesticide, \"Pesticida C\") */\n    tag_201:\n        /* \"Dron_Company.sol\":1543:1728  compareStrings(_pesticide, \"Pesticida A\") || compareStrings(_pesticide, \"Pesticida B\") ||compareStrings(_pesticide, \"Pesticida C\") ... */\n      dup1\n      tag_203\n      jumpi\n      pop\n        /* \"Dron_Company.sol\":1687:1728  compareStrings(_pesticide, \"Pesticida D\") */\n      tag_204\n        /* \"Dron_Company.sol\":1702:1712  _pesticide */\n      dup3\n        /* \"Dron_Company.sol\":1687:1728  compareStrings(_pesticide, \"Pesticida D\") */\n      mload(0x40)\n      dup1\n      0x40\n      add\n      0x40\n      mstore\n      dup1\n      0x0b\n      dup2\n      mstore\n      0x20\n      add\n      0x5065737469636964612044000000000000000000000000000000000000000000\n      dup2\n      mstore\n      pop\n        /* \"Dron_Company.sol\":1687:1701  compareStrings */\n      tag_198\n        /* \"Dron_Company.sol\":1687:1728  compareStrings(_pesticide, \"Pesticida D\") */\n      jump\t// in\n    tag_204:\n        /* \"Dron_Company.sol\":1543:1728  compareStrings(_pesticide, \"Pesticida A\") || compareStrings(_pesticide, \"Pesticida B\") ||compareStrings(_pesticide, \"Pesticida C\") ... */\n    tag_203:\n        /* \"Dron_Company.sol\":1543:1772  compareStrings(_pesticide, \"Pesticida A\") || compareStrings(_pesticide, \"Pesticida B\") ||compareStrings(_pesticide, \"Pesticida C\") ... */\n      dup1\n      tag_205\n      jumpi\n      pop\n        /* \"Dron_Company.sol\":1731:1772  compareStrings(_pesticide, \"Pesticida E\") */\n      tag_206\n        /* \"Dron_Company.sol\":1746:1756  _pesticide */\n      dup3\n        /* \"Dron_Company.sol\":1731:1772  compareStrings(_pesticide, \"Pesticida E\") */\n      mload(0x40)\n      dup1\n      0x40\n      add\n      0x40\n      mstore\n      dup1\n      0x0b\n      dup2\n      mstore\n      0x20\n      add\n      0x5065737469636964612045000000000000000000000000000000000000000000\n      dup2\n      mstore\n      pop\n        /* \"Dron_Company.sol\":1731:1745  compareStrings */\n      tag_198\n        /* \"Dron_Company.sol\":1731:1772  compareStrings(_pesticide, \"Pesticida E\") */\n      jump\t// in\n    tag_206:\n        /* \"Dron_Company.sol\":1543:1772  compareStrings(_pesticide, \"Pesticida A\") || compareStrings(_pesticide, \"Pesticida B\") ||compareStrings(_pesticide, \"Pesticida C\") ... */\n    tag_205:\n        /* \"Dron_Company.sol\":1534:1773  require (compareStrings(_pesticide, \"Pesticida A\") || compareStrings(_pesticide, \"Pesticida B\") ||compareStrings(_pesticide, \"Pesticida C\") ... */\n      tag_207\n      jumpi\n      0x00\n      dup1\n      revert\n    tag_207:\n        /* \"Dron_Company.sol\":1795:1796  1 */\n      0x01\n        /* \"Dron_Company.sol\":1786:1793  id_plot */\n      dup1\n      0x00\n        /* \"Dron_Company.sol\":1786:1796  id_plot+=1 */\n      dup3\n      dup3\n      sload\n      tag_208\n      swap2\n      swap1\n      tag_114\n      jump\t// in\n    tag_208:\n      swap3\n      pop\n      pop\n      dup2\n      swap1\n      sstore\n      pop\n        /* \"Dron_Company.sol\":1807:1816  Plot plot */\n      0x00\n        /* \"Dron_Company.sol\":1830:1839  maxheight */\n      dup5\n        /* \"Dron_Company.sol\":1841:1850  minheight */\n      dup5\n        /* \"Dron_Company.sol\":1852:1859  id_plot */\n      sload(0x01)\n        /* \"Dron_Company.sol\":1861:1871  _pesticide */\n      dup6\n        /* \"Dron_Company.sol\":1820:1872  new Plot (maxheight, minheight, id_plot, _pesticide) */\n      mload(0x40)\n      tag_209\n      swap1\n      tag_210\n      jump\t// in\n    tag_209:\n      tag_211\n      swap5\n      swap4\n      swap3\n      swap2\n      swap1\n      tag_212\n      jump\t// in\n    tag_211:\n      mload(0x40)\n      dup1\n      swap2\n      sub\n      swap1\n      0x00\n      create\n      dup1\n      iszero\n      dup1\n      iszero\n      tag_213\n      jumpi\n      returndatasize\n      0x00\n      dup1\n      returndatacopy\n      revert(0x00, returndatasize)\n    tag_213:\n      pop\n        /* \"Dron_Company.sol\":1807:1872  Plot plot  = new Plot (maxheight, minheight, id_plot, _pesticide) */\n      swap1\n      pop\n        /* \"Dron_Company.sol\":1901:1905  plot */\n      dup1\n        /* \"Dron_Company.sol\":1884:1889  plots */\n      0x05\n        /* \"Dron_Company.sol\":1884:1898  plots[id_plot] */\n      0x00\n        /* \"Dron_Company.sol\":1890:1897  id_plot */\n      sload(0x01)\n        /* \"Dron_Company.sol\":1884:1898  plots[id_plot] */\n      dup2\n      mstore\n      0x20\n      add\n      swap1\n      dup2\n      mstore\n      0x20\n      add\n      0x00\n      keccak256\n      0x00\n        /* \"Dron_Company.sol\":1884:1905  plots[id_plot] = plot */\n      0x0100\n      exp\n      dup2\n      sload\n      dup2\n      0xffffffffffffffffffffffffffffffffffffffff\n      mul\n      not\n      and\n      swap1\n      dup4\n      0xffffffffffffffffffffffffffffffffffffffff\n      and\n      mul\n      or\n      swap1\n      sstore\n      pop\n        /* \"Dron_Company.sol\":1939:1943  plot */\n      dup1\n        /* \"Dron_Company.sol\":1939:1953  plot._mintPlot */\n      0xffffffffffffffffffffffffffffffffffffffff\n      and\n      0x7194c2e8\n        /* \"Dron_Company.sol\":1954:1964  msg.sender */\n      caller\n        /* \"Dron_Company.sol\":1966:1973  id_plot */\n      sload(0x01)\n        /* \"Dron_Company.sol\":1939:1974  plot._mintPlot(msg.sender, id_plot) */\n      mload(0x40)\n      dup4\n      0xffffffff\n      and\n      0xe0\n      shl\n      dup2\n      mstore\n      0x04\n      add\n      tag_214\n      swap3\n      swap2\n      swap1\n      tag_121\n      jump\t// in\n    tag_214:\n      0x00\n      mload(0x40)\n      dup1\n      dup4\n      sub\n      dup2\n      0x00\n      dup8\n      dup1\n      extcodesize\n      iszero\n      dup1\n      iszero\n      tag_215\n      jumpi\n      0x00\n      dup1\n      revert\n    tag_215:\n      pop\n      gas\n      call\n      iszero\n      dup1\n      iszero\n      tag_217\n      jumpi\n      returndatasize\n      0x00\n      dup1\n      returndatacopy\n      revert(0x00, returndatasize)\n    tag_217:\n      pop\n      pop\n      pop\n      pop\n        /* \"Dron_Company.sol\":1994:1998  true */\n      0x01\n        /* \"Dron_Company.sol\":1987:1998  return true */\n      swap2\n      pop\n      pop\n        /* \"Dron_Company.sol\":1296:2006  function registraPlot (uint256 maxheight, uint256 minheight, string memory _pesticide) public returns (bool success)... */\n      swap4\n      swap3\n      pop\n      pop\n      pop\n      jump\t// out\n        /* \"Dron_Company.sol\":5519:5637  function getCost(uint256 iddron) public view returns (uint256)... */\n    tag_59:\n        /* \"Dron_Company.sol\":5573:5580  uint256 */\n      0x00\n        /* \"Dron_Company.sol\":5605:5611  drones */\n      0x04\n        /* \"Dron_Company.sol\":5605:5619  drones[iddron] */\n      0x00\n        /* \"Dron_Company.sol\":5612:5618  iddron */\n      dup4\n        /* \"Dron_Company.sol\":5605:5619  drones[iddron] */\n      dup2\n      mstore\n      0x20\n      add\n      swap1\n      dup2\n      mstore\n      0x20\n      add\n      0x00\n      keccak256\n      0x00\n      swap1\n      sload\n      swap1\n      0x0100\n      exp\n      swap1\n      div\n      0xffffffffffffffffffffffffffffffffffffffff\n      and\n        /* \"Dron_Company.sol\":5605:5627  drones[iddron].getCost */\n      0xffffffffffffffffffffffffffffffffffffffff\n      and\n      0xbd3e19d4\n        /* \"Dron_Company.sol\":5605:5629  drones[iddron].getCost() */\n      mload(0x40)\n      dup2\n      0xffffffff\n      and\n      0xe0\n      shl\n      dup2\n      mstore\n      0x04\n      add\n      0x20\n      mload(0x40)\n      dup1\n      dup4\n      sub\n      dup2\n      dup7\n      gas\n      staticcall\n      iszero\n      dup1\n      iszero\n      tag_220\n      jumpi\n      returndatasize\n      0x00\n      dup1\n      returndatacopy\n      revert(0x00, returndatasize)\n    tag_220:\n      pop\n      pop\n      pop\n      pop\n      mload(0x40)\n      returndatasize\n      not(0x1f)\n      0x1f\n      dup3\n      add\n      and\n      dup3\n      add\n      dup1\n      0x40\n      mstore\n      pop\n      dup2\n      add\n      swap1\n      tag_221\n      swap2\n      swap1\n      tag_129\n      jump\t// in\n    tag_221:\n        /* \"Dron_Company.sol\":5598:5629  return drones[iddron].getCost() */\n      swap1\n      pop\n        /* \"Dron_Company.sol\":5519:5637  function getCost(uint256 iddron) public view returns (uint256)... */\n      swap2\n      swap1\n      pop\n      jump\t// out\n        /* \"Dron_Company.sol\":5130:5244  function getBalanceOf (address dir) public view returns (uint)... */\n    tag_65:\n        /* \"Dron_Company.sol\":5187:5191  uint */\n      0x00\n        /* \"Dron_Company.sol\":5216:5221  token */\n      0x07\n      0x00\n      swap1\n      sload\n      swap1\n      0x0100\n      exp\n      swap1\n      div\n      0xffffffffffffffffffffffffffffffffffffffff\n      and\n        /* \"Dron_Company.sol\":5216:5231  token.balanceOf */\n      0xffffffffffffffffffffffffffffffffffffffff\n      and\n      0x70a08231\n        /* \"Dron_Company.sol\":5232:5235  dir */\n      dup4\n        /* \"Dron_Company.sol\":5216:5236  token.balanceOf(dir) */\n      mload(0x40)\n      dup3\n      0xffffffff\n      and\n      0xe0\n      shl\n      dup2\n      mstore\n      0x04\n      add\n      tag_223\n      swap2\n      swap1\n      tag_161\n      jump\t// in\n    tag_223:\n      0x20\n      mload(0x40)\n      dup1\n      dup4\n      sub\n      dup2\n      dup7\n      gas\n      staticcall\n      iszero\n      dup1\n      iszero\n      tag_225\n      jumpi\n      returndatasize\n      0x00\n      dup1\n      returndatacopy\n      revert(0x00, returndatasize)\n    tag_225:\n      pop\n      pop\n      pop\n      pop\n      mload(0x40)\n      returndatasize\n      not(0x1f)\n      0x1f\n      dup3\n      add\n      and\n      dup3\n      add\n      dup1\n      0x40\n      mstore\n      pop\n      dup2\n      add\n      swap1\n      tag_226\n      swap2\n      swap1\n      tag_129\n      jump\t// in\n    tag_226:\n        /* \"Dron_Company.sol\":5209:5236  return token.balanceOf(dir) */\n      swap1\n      pop\n        /* \"Dron_Company.sol\":5130:5244  function getBalanceOf (address dir) public view returns (uint)... */\n      swap2\n      swap1\n      pop\n      jump\t// out\n        /* \"SafeMath.sol\":211:313   */\n    tag_70:\n        /* \"SafeMath.sol\":265:271   */\n      0x00\n        /* \"SafeMath.sol\":297:298   */\n      dup3\n        /* \"SafeMath.sol\":292:293   */\n      dup3\n        /* \"SafeMath.sol\":292:298   */\n      gt\n      iszero\n        /* \"SafeMath.sol\":284:299   */\n      tag_228\n      jumpi\n      0x00\n      dup1\n      revert\n    tag_228:\n        /* \"SafeMath.sol\":309:310   */\n      dup2\n        /* \"SafeMath.sol\":305:306   */\n      dup4\n        /* \"SafeMath.sol\":305:310   */\n      tag_229\n      swap2\n      swap1\n      tag_153\n      jump\t// in\n    tag_229:\n        /* \"SafeMath.sol\":301:310   */\n      swap1\n      pop\n        /* \"SafeMath.sol\":211:313   */\n      swap3\n      swap2\n      pop\n      pop\n      jump\t// out\n        /* \"SafeMath.sol\":442:548   */\n    tag_75:\n        /* \"SafeMath.sol\":496:502   */\n      0x00\n        /* \"SafeMath.sol\":518:519   */\n      dup1\n        /* \"SafeMath.sol\":514:515   */\n      dup3\n        /* \"SafeMath.sol\":514:519   */\n      gt\n        /* \"SafeMath.sol\":506:520   */\n      tag_231\n      jumpi\n      0x00\n      dup1\n      revert\n    tag_231:\n        /* \"SafeMath.sol\":539:540   */\n      dup2\n        /* \"SafeMath.sol\":535:536   */\n      dup4\n        /* \"SafeMath.sol\":535:540   */\n      tag_232\n      swap2\n      swap1\n      tag_233\n      jump\t// in\n    tag_232:\n        /* \"SafeMath.sol\":531:540   */\n      swap1\n      pop\n        /* \"SafeMath.sol\":442:548   */\n      swap3\n      swap2\n      pop\n      pop\n      jump\t// out\n        /* \"Dron_Company.sol\":2467:3594  function ContrataDron (uint256 iddron, uint256 idplot) public payable returns (bool success)... */\n    tag_79:\n        /* \"Dron_Company.sol\":2546:2558  bool success */\n      0x00\n        /* \"Dron_Company.sol\":2596:2597  0 */\n      dup1\n        /* \"Dron_Company.sol\":2586:2592  iddron */\n      dup4\n        /* \"Dron_Company.sol\":2586:2597  iddron != 0 */\n      eq\n      iszero\n        /* \"Dron_Company.sol\":2586:2612  iddron != 0 && idplot != 0 */\n      dup1\n      iszero\n      tag_235\n      jumpi\n      pop\n        /* \"Dron_Company.sol\":2611:2612  0 */\n      0x00\n        /* \"Dron_Company.sol\":2601:2607  idplot */\n      dup3\n        /* \"Dron_Company.sol\":2601:2612  idplot != 0 */\n      eq\n      iszero\n        /* \"Dron_Company.sol\":2586:2612  iddron != 0 && idplot != 0 */\n    tag_235:\n        /* \"Dron_Company.sol\":2577:2613  require (iddron != 0 && idplot != 0) */\n      tag_236\n      jumpi\n      0x00\n      dup1\n      revert\n    tag_236:\n        /* \"Dron_Company.sol\":2624:2642  address dron_owner */\n      0x00\n        /* \"Dron_Company.sol\":2645:2651  drones */\n      0x04\n        /* \"Dron_Company.sol\":2645:2659  drones[iddron] */\n      0x00\n        /* \"Dron_Company.sol\":2652:2658  iddron */\n      dup6\n        /* \"Dron_Company.sol\":2645:2659  drones[iddron] */\n      dup2\n      mstore\n      0x20\n      add\n      swap1\n      dup2\n      mstore\n      0x20\n      add\n      0x00\n      keccak256\n      0x00\n      swap1\n      sload\n      swap1\n      0x0100\n      exp\n      swap1\n      div\n      0xffffffffffffffffffffffffffffffffffffffff\n      and\n        /* \"Dron_Company.sol\":2645:2667  drones[iddron].ownerOf */\n      0xffffffffffffffffffffffffffffffffffffffff\n      and\n      0x6352211e\n        /* \"Dron_Company.sol\":2668:2674  iddron */\n      dup6\n        /* \"Dron_Company.sol\":2645:2675  drones[iddron].ownerOf(iddron) */\n      mload(0x40)\n      dup3\n      0xffffffff\n      and\n      0xe0\n      shl\n      dup2\n      mstore\n      0x04\n      add\n      tag_237\n      swap2\n      swap1\n      tag_35\n      jump\t// in\n    tag_237:\n      0x20\n      mload(0x40)\n      dup1\n      dup4\n      sub\n      dup2\n      dup7\n      gas\n      staticcall\n      iszero\n      dup1\n      iszero\n      tag_239\n      jumpi\n      returndatasize\n      0x00\n      dup1\n      returndatacopy\n      revert(0x00, returndatasize)\n    tag_239:\n      pop\n      pop\n      pop\n      pop\n      mload(0x40)\n      returndatasize\n      not(0x1f)\n      0x1f\n      dup3\n      add\n      and\n      dup3\n      add\n      dup1\n      0x40\n      mstore\n      pop\n      dup2\n      add\n      swap1\n      tag_240\n      swap2\n      swap1\n      tag_137\n      jump\t// in\n    tag_240:\n        /* \"Dron_Company.sol\":2624:2675  address dron_owner = drones[iddron].ownerOf(iddron) */\n      swap1\n      pop\n        /* \"Dron_Company.sol\":2686:2704  address plot_owner */\n      0x00\n        /* \"Dron_Company.sol\":2707:2712  plots */\n      0x05\n        /* \"Dron_Company.sol\":2707:2720  plots[idplot] */\n      0x00\n        /* \"Dron_Company.sol\":2713:2719  idplot */\n      dup6\n        /* \"Dron_Company.sol\":2707:2720  plots[idplot] */\n      dup2\n      mstore\n      0x20\n      add\n      swap1\n      dup2\n      mstore\n      0x20\n      add\n      0x00\n      keccak256\n      0x00\n      swap1\n      sload\n      swap1\n      0x0100\n      exp\n      swap1\n      div\n      0xffffffffffffffffffffffffffffffffffffffff\n      and\n        /* \"Dron_Company.sol\":2707:2728  plots[idplot].ownerOf */\n      0xffffffffffffffffffffffffffffffffffffffff\n      and\n      0x6352211e\n        /* \"Dron_Company.sol\":2729:2735  idplot */\n      dup6\n        /* \"Dron_Company.sol\":2707:2736  plots[idplot].ownerOf(idplot) */\n      mload(0x40)\n      dup3\n      0xffffffff\n      and\n      0xe0\n      shl\n      dup2\n      mstore\n      0x04\n      add\n      tag_241\n      swap2\n      swap1\n      tag_35\n      jump\t// in\n    tag_241:\n      0x20\n      mload(0x40)\n      dup1\n      dup4\n      sub\n      dup2\n      dup7\n      gas\n      staticcall\n      iszero\n      dup1\n      iszero\n      tag_243\n      jumpi\n      returndatasize\n      0x00\n      dup1\n      returndatacopy\n      revert(0x00, returndatasize)\n    tag_243:\n      pop\n      pop\n      pop\n      pop\n      mload(0x40)\n      returndatasize\n      not(0x1f)\n      0x1f\n      dup3\n      add\n      and\n      dup3\n      add\n      dup1\n      0x40\n      mstore\n      pop\n      dup2\n      add\n      swap1\n      tag_244\n      swap2\n      swap1\n      tag_137\n      jump\t// in\n    tag_244:\n        /* \"Dron_Company.sol\":2686:2736  address plot_owner = plots[idplot].ownerOf(idplot) */\n      swap1\n      pop\n        /* \"Dron_Company.sol\":2772:2782  plot_owner */\n      dup1\n        /* \"Dron_Company.sol\":2758:2782  msg.sender == plot_owner */\n      0xffffffffffffffffffffffffffffffffffffffff\n      and\n        /* \"Dron_Company.sol\":2758:2768  msg.sender */\n      caller\n        /* \"Dron_Company.sol\":2758:2782  msg.sender == plot_owner */\n      0xffffffffffffffffffffffffffffffffffffffff\n      and\n      eq\n        /* \"Dron_Company.sol\":2749:2783  require (msg.sender == plot_owner) */\n      tag_245\n      jumpi\n      0x00\n      dup1\n      revert\n    tag_245:\n        /* \"Dron_Company.sol\":2806:2811  plots */\n      0x05\n        /* \"Dron_Company.sol\":2806:2819  plots[idplot] */\n      0x00\n        /* \"Dron_Company.sol\":2812:2818  idplot */\n      dup6\n        /* \"Dron_Company.sol\":2806:2819  plots[idplot] */\n      dup2\n      mstore\n      0x20\n      add\n      swap1\n      dup2\n      mstore\n      0x20\n      add\n      0x00\n      keccak256\n      0x00\n      swap1\n      sload\n      swap1\n      0x0100\n      exp\n      swap1\n      div\n      0xffffffffffffffffffffffffffffffffffffffff\n      and\n        /* \"Dron_Company.sol\":2806:2831  plots[idplot].getAtendido */\n      0xffffffffffffffffffffffffffffffffffffffff\n      and\n      0x7cf6b53b\n        /* \"Dron_Company.sol\":2806:2833  plots[idplot].getAtendido() */\n      mload(0x40)\n      dup2\n      0xffffffff\n      and\n      0xe0\n      shl\n      dup2\n      mstore\n      0x04\n      add\n      0x20\n      mload(0x40)\n      dup1\n      dup4\n      sub\n      dup2\n      dup7\n      gas\n      staticcall\n      iszero\n      dup1\n      iszero\n      tag_247\n      jumpi\n      returndatasize\n      0x00\n      dup1\n      returndatacopy\n      revert(0x00, returndatasize)\n    tag_247:\n      pop\n      pop\n      pop\n      pop\n      mload(0x40)\n      returndatasize\n      not(0x1f)\n      0x1f\n      dup3\n      add\n      and\n      dup3\n      add\n      dup1\n      0x40\n      mstore\n      pop\n      dup2\n      add\n      swap1\n      tag_248\n      swap2\n      swap1\n      tag_170\n      jump\t// in\n    tag_248:\n        /* \"Dron_Company.sol\":2805:2833  !plots[idplot].getAtendido() */\n      iszero\n        /* \"Dron_Company.sol\":2797:2834  require(!plots[idplot].getAtendido()) */\n      tag_249\n      jumpi\n      0x00\n      dup1\n      revert\n    tag_249:\n        /* \"Dron_Company.sol\":2853:2859  drones */\n      0x04\n        /* \"Dron_Company.sol\":2853:2867  drones[iddron] */\n      0x00\n        /* \"Dron_Company.sol\":2860:2866  iddron */\n      dup7\n        /* \"Dron_Company.sol\":2853:2867  drones[iddron] */\n      dup2\n      mstore\n      0x20\n      add\n      swap1\n      dup2\n      mstore\n      0x20\n      add\n      0x00\n      keccak256\n      0x00\n      swap1\n      sload\n      swap1\n      0x0100\n      exp\n      swap1\n      div\n      0xffffffffffffffffffffffffffffffffffffffff\n      and\n        /* \"Dron_Company.sol\":2853:2881  drones[iddron].getDisponible */\n      0xffffffffffffffffffffffffffffffffffffffff\n      and\n      0xfef856\n        /* \"Dron_Company.sol\":2853:2883  drones[iddron].getDisponible() */\n      mload(0x40)\n      dup2\n      0xffffffff\n      and\n      0xe0\n      shl\n      dup2\n      mstore\n      0x04\n      add\n      0x20\n      mload(0x40)\n      dup1\n      dup4\n      sub\n      dup2\n      dup7\n      gas\n      staticcall\n      iszero\n      dup1\n      iszero\n      tag_251\n      jumpi\n      returndatasize\n      0x00\n      dup1\n      returndatacopy\n      revert(0x00, returndatasize)\n    tag_251:\n      pop\n      pop\n      pop\n      pop\n      mload(0x40)\n      returndatasize\n      not(0x1f)\n      0x1f\n      dup3\n      add\n      and\n      dup3\n      add\n      dup1\n      0x40\n      mstore\n      pop\n      dup2\n      add\n      swap1\n      tag_252\n      swap2\n      swap1\n      tag_170\n      jump\t// in\n    tag_252:\n        /* \"Dron_Company.sol\":2845:2884  require(drones[iddron].getDisponible()) */\n      tag_253\n      jumpi\n      0x00\n      dup1\n      revert\n    tag_253:\n        /* \"Dron_Company.sol\":2938:2944  drones */\n      0x04\n        /* \"Dron_Company.sol\":2938:2952  drones[iddron] */\n      0x00\n        /* \"Dron_Company.sol\":2945:2951  iddron */\n      dup7\n        /* \"Dron_Company.sol\":2938:2952  drones[iddron] */\n      dup2\n      mstore\n      0x20\n      add\n      swap1\n      dup2\n      mstore\n      0x20\n      add\n      0x00\n      keccak256\n      0x00\n      swap1\n      sload\n      swap1\n      0x0100\n      exp\n      swap1\n      div\n      0xffffffffffffffffffffffffffffffffffffffff\n      and\n        /* \"Dron_Company.sol\":2938:2965  drones[iddron].getMaxHeight */\n      0xffffffffffffffffffffffffffffffffffffffff\n      and\n      0xcf22b577\n        /* \"Dron_Company.sol\":2938:2967  drones[iddron].getMaxHeight() */\n      mload(0x40)\n      dup2\n      0xffffffff\n      and\n      0xe0\n      shl\n      dup2\n      mstore\n      0x04\n      add\n      0x20\n      mload(0x40)\n      dup1\n      dup4\n      sub\n      dup2\n      dup7\n      gas\n      staticcall\n      iszero\n      dup1\n      iszero\n      tag_255\n      jumpi\n      returndatasize\n      0x00\n      dup1\n      returndatacopy\n      revert(0x00, returndatasize)\n    tag_255:\n      pop\n      pop\n      pop\n      pop\n      mload(0x40)\n      returndatasize\n      not(0x1f)\n      0x1f\n      dup3\n      add\n      and\n      dup3\n      add\n      dup1\n      0x40\n      mstore\n      pop\n      dup2\n      add\n      swap1\n      tag_256\n      swap2\n      swap1\n      tag_129\n      jump\t// in\n    tag_256:\n        /* \"Dron_Company.sol\":2906:2911  plots */\n      0x05\n        /* \"Dron_Company.sol\":2906:2919  plots[idplot] */\n      0x00\n        /* \"Dron_Company.sol\":2912:2918  idplot */\n      dup7\n        /* \"Dron_Company.sol\":2906:2919  plots[idplot] */\n      dup2\n      mstore\n      0x20\n      add\n      swap1\n      dup2\n      mstore\n      0x20\n      add\n      0x00\n      keccak256\n      0x00\n      swap1\n      sload\n      swap1\n      0x0100\n      exp\n      swap1\n      div\n      0xffffffffffffffffffffffffffffffffffffffff\n      and\n        /* \"Dron_Company.sol\":2906:2932  plots[idplot].getMaxHeight */\n      0xffffffffffffffffffffffffffffffffffffffff\n      and\n      0xcf22b577\n        /* \"Dron_Company.sol\":2906:2934  plots[idplot].getMaxHeight() */\n      mload(0x40)\n      dup2\n      0xffffffff\n      and\n      0xe0\n      shl\n      dup2\n      mstore\n      0x04\n      add\n      0x20\n      mload(0x40)\n      dup1\n      dup4\n      sub\n      dup2\n      dup7\n      gas\n      staticcall\n      iszero\n      dup1\n      iszero\n      tag_258\n      jumpi\n      returndatasize\n      0x00\n      dup1\n      returndatacopy\n      revert(0x00, returndatasize)\n    tag_258:\n      pop\n      pop\n      pop\n      pop\n      mload(0x40)\n      returndatasize\n      not(0x1f)\n      0x1f\n      dup3\n      add\n      and\n      dup3\n      add\n      dup1\n      0x40\n      mstore\n      pop\n      dup2\n      add\n      swap1\n      tag_259\n      swap2\n      swap1\n      tag_129\n      jump\t// in\n    tag_259:\n        /* \"Dron_Company.sol\":2906:2967  plots[idplot].getMaxHeight() >= drones[iddron].getMaxHeight() */\n      lt\n      iszero\n        /* \"Dron_Company.sol\":2897:2968  require (plots[idplot].getMaxHeight() >= drones[iddron].getMaxHeight()) */\n      tag_260\n      jumpi\n      0x00\n      dup1\n      revert\n    tag_260:\n        /* \"Dron_Company.sol\":3020:3026  drones */\n      0x04\n        /* \"Dron_Company.sol\":3020:3034  drones[iddron] */\n      0x00\n        /* \"Dron_Company.sol\":3027:3033  iddron */\n      dup7\n        /* \"Dron_Company.sol\":3020:3034  drones[iddron] */\n      dup2\n      mstore\n      0x20\n      add\n      swap1\n      dup2\n      mstore\n      0x20\n      add\n      0x00\n      keccak256\n      0x00\n      swap1\n      sload\n      swap1\n      0x0100\n      exp\n      swap1\n      div\n      0xffffffffffffffffffffffffffffffffffffffff\n      and\n        /* \"Dron_Company.sol\":3020:3047  drones[iddron].getMinHeight */\n      0xffffffffffffffffffffffffffffffffffffffff\n      and\n      0x49befa85\n        /* \"Dron_Company.sol\":3020:3049  drones[iddron].getMinHeight() */\n      mload(0x40)\n      dup2\n      0xffffffff\n      and\n      0xe0\n      shl\n      dup2\n      mstore\n      0x04\n      add\n      0x20\n      mload(0x40)\n      dup1\n      dup4\n      sub\n      dup2\n      dup7\n      gas\n      staticcall\n      iszero\n      dup1\n      iszero\n      tag_262\n      jumpi\n      returndatasize\n      0x00\n      dup1\n      returndatacopy\n      revert(0x00, returndatasize)\n    tag_262:\n      pop\n      pop\n      pop\n      pop\n      mload(0x40)\n      returndatasize\n      not(0x1f)\n      0x1f\n      dup3\n      add\n      and\n      dup3\n      add\n      dup1\n      0x40\n      mstore\n      pop\n      dup2\n      add\n      swap1\n      tag_263\n      swap2\n      swap1\n      tag_129\n      jump\t// in\n    tag_263:\n        /* \"Dron_Company.sol\":2988:2993  plots */\n      0x05\n        /* \"Dron_Company.sol\":2988:3001  plots[idplot] */\n      0x00\n        /* \"Dron_Company.sol\":2994:3000  idplot */\n      dup7\n        /* \"Dron_Company.sol\":2988:3001  plots[idplot] */\n      dup2\n      mstore\n      0x20\n      add\n      swap1\n      dup2\n      mstore\n      0x20\n      add\n      0x00\n      keccak256\n      0x00\n      swap1\n      sload\n      swap1\n      0x0100\n      exp\n      swap1\n      div\n      0xffffffffffffffffffffffffffffffffffffffff\n      and\n        /* \"Dron_Company.sol\":2988:3014  plots[idplot].getMinHeight */\n      0xffffffffffffffffffffffffffffffffffffffff\n      and\n      0x49befa85\n        /* \"Dron_Company.sol\":2988:3016  plots[idplot].getMinHeight() */\n      mload(0x40)\n      dup2\n      0xffffffff\n      and\n      0xe0\n      shl\n      dup2\n      mstore\n      0x04\n      add\n      0x20\n      mload(0x40)\n      dup1\n      dup4\n      sub\n      dup2\n      dup7\n      gas\n      staticcall\n      iszero\n      dup1\n      iszero\n      tag_265\n      jumpi\n      returndatasize\n      0x00\n      dup1\n      returndatacopy\n      revert(0x00, returndatasize)\n    tag_265:\n      pop\n      pop\n      pop\n      pop\n      mload(0x40)\n      returndatasize\n      not(0x1f)\n      0x1f\n      dup3\n      add\n      and\n      dup3\n      add\n      dup1\n      0x40\n      mstore\n      pop\n      dup2\n      add\n      swap1\n      tag_266\n      swap2\n      swap1\n      tag_129\n      jump\t// in\n    tag_266:\n        /* \"Dron_Company.sol\":2988:3049  plots[idplot].getMinHeight() <= drones[iddron].getMinHeight() */\n      gt\n      iszero\n        /* \"Dron_Company.sol\":2979:3050  require (plots[idplot].getMinHeight() <= drones[iddron].getMinHeight()) */\n      tag_267\n      jumpi\n      0x00\n      dup1\n      revert\n    tag_267:\n        /* \"Dron_Company.sol\":3063:3077  uint256 tokens */\n      0x00\n        /* \"Dron_Company.sol\":3080:3086  drones */\n      0x04\n        /* \"Dron_Company.sol\":3080:3094  drones[iddron] */\n      0x00\n        /* \"Dron_Company.sol\":3087:3093  iddron */\n      dup8\n        /* \"Dron_Company.sol\":3080:3094  drones[iddron] */\n      dup2\n      mstore\n      0x20\n      add\n      swap1\n      dup2\n      mstore\n      0x20\n      add\n      0x00\n      keccak256\n      0x00\n      swap1\n      sload\n      swap1\n      0x0100\n      exp\n      swap1\n      div\n      0xffffffffffffffffffffffffffffffffffffffff\n      and\n        /* \"Dron_Company.sol\":3080:3102  drones[iddron].getCost */\n      0xffffffffffffffffffffffffffffffffffffffff\n      and\n      0xbd3e19d4\n        /* \"Dron_Company.sol\":3080:3104  drones[iddron].getCost() */\n      mload(0x40)\n      dup2\n      0xffffffff\n      and\n      0xe0\n      shl\n      dup2\n      mstore\n      0x04\n      add\n      0x20\n      mload(0x40)\n      dup1\n      dup4\n      sub\n      dup2\n      dup7\n      gas\n      staticcall\n      iszero\n      dup1\n      iszero\n      tag_269\n      jumpi\n      returndatasize\n      0x00\n      dup1\n      returndatacopy\n      revert(0x00, returndatasize)\n    tag_269:\n      pop\n      pop\n      pop\n      pop\n      mload(0x40)\n      returndatasize\n      not(0x1f)\n      0x1f\n      dup3\n      add\n      and\n      dup3\n      add\n      dup1\n      0x40\n      mstore\n      pop\n      dup2\n      add\n      swap1\n      tag_270\n      swap2\n      swap1\n      tag_129\n      jump\t// in\n    tag_270:\n        /* \"Dron_Company.sol\":3063:3104  uint256 tokens = drones[iddron].getCost() */\n      swap1\n      pop\n        /* \"Dron_Company.sol\":3116:3135  uint256 amountToBuy */\n      0x00\n        /* \"Dron_Company.sol\":3138:3170  safeMul(tokens, uint256(10)**18) */\n      tag_271\n        /* \"Dron_Company.sol\":3146:3152  tokens */\n      dup3\n        /* \"Dron_Company.sol\":3167:3169  18 */\n      0x12\n        /* \"Dron_Company.sol\":3162:3164  10 */\n      0x0a\n        /* \"Dron_Company.sol\":3154:3169  uint256(10)**18 */\n      tag_272\n      swap2\n      swap1\n      tag_159\n      jump\t// in\n    tag_272:\n        /* \"Dron_Company.sol\":3138:3145  safeMul */\n      tag_97\n        /* \"Dron_Company.sol\":3138:3170  safeMul(tokens, uint256(10)**18) */\n      jump\t// in\n    tag_271:\n        /* \"Dron_Company.sol\":3116:3170  uint256 amountToBuy = safeMul(tokens, uint256(10)**18) */\n      swap1\n      pop\n        /* \"Dron_Company.sol\":3220:3231  amountToBuy */\n      dup1\n        /* \"Dron_Company.sol\":3190:3195  token */\n      0x07\n      0x00\n      swap1\n      sload\n      swap1\n      0x0100\n      exp\n      swap1\n      div\n      0xffffffffffffffffffffffffffffffffffffffff\n      and\n        /* \"Dron_Company.sol\":3190:3205  token.balanceOf */\n      0xffffffffffffffffffffffffffffffffffffffff\n      and\n      0x70a08231\n        /* \"Dron_Company.sol\":3206:3216  msg.sender */\n      caller\n        /* \"Dron_Company.sol\":3190:3217  token.balanceOf(msg.sender) */\n      mload(0x40)\n      dup3\n      0xffffffff\n      and\n      0xe0\n      shl\n      dup2\n      mstore\n      0x04\n      add\n      tag_273\n      swap2\n      swap1\n      tag_161\n      jump\t// in\n    tag_273:\n      0x20\n      mload(0x40)\n      dup1\n      dup4\n      sub\n      dup2\n      dup7\n      gas\n      staticcall\n      iszero\n      dup1\n      iszero\n      tag_275\n      jumpi\n      returndatasize\n      0x00\n      dup1\n      returndatacopy\n      revert(0x00, returndatasize)\n    tag_275:\n      pop\n      pop\n      pop\n      pop\n      mload(0x40)\n      returndatasize\n      not(0x1f)\n      0x1f\n      dup3\n      add\n      and\n      dup3\n      add\n      dup1\n      0x40\n      mstore\n      pop\n      dup2\n      add\n      swap1\n      tag_276\n      swap2\n      swap1\n      tag_129\n      jump\t// in\n    tag_276:\n        /* \"Dron_Company.sol\":3190:3231  token.balanceOf(msg.sender)>= amountToBuy */\n      lt\n      iszero\n        /* \"Dron_Company.sol\":3181:3232  require (token.balanceOf(msg.sender)>= amountToBuy) */\n      tag_277\n      jumpi\n      0x00\n      dup1\n      revert\n    tag_277:\n        /* \"Dron_Company.sol\":3252:3257  token */\n      0x07\n      0x00\n      swap1\n      sload\n      swap1\n      0x0100\n      exp\n      swap1\n      div\n      0xffffffffffffffffffffffffffffffffffffffff\n      and\n        /* \"Dron_Company.sol\":3252:3265  token.approve */\n      0xffffffffffffffffffffffffffffffffffffffff\n      and\n      0x095ea7b3\n        /* \"Dron_Company.sol\":3266:3276  plot_owner */\n      dup5\n        /* \"Dron_Company.sol\":3279:3290  amountToBuy */\n      dup4\n        /* \"Dron_Company.sol\":3252:3291  token.approve(plot_owner,  amountToBuy) */\n      mload(0x40)\n      dup4\n      0xffffffff\n      and\n      0xe0\n      shl\n      dup2\n      mstore\n      0x04\n      add\n      tag_278\n      swap3\n      swap2\n      swap1\n      tag_121\n      jump\t// in\n    tag_278:\n      0x20\n      mload(0x40)\n      dup1\n      dup4\n      sub\n      dup2\n      0x00\n      dup8\n      gas\n      call\n      iszero\n      dup1\n      iszero\n      tag_280\n      jumpi\n      returndatasize\n      0x00\n      dup1\n      returndatacopy\n      revert(0x00, returndatasize)\n    tag_280:\n      pop\n      pop\n      pop\n      pop\n      mload(0x40)\n      returndatasize\n      not(0x1f)\n      0x1f\n      dup3\n      add\n      and\n      dup3\n      add\n      dup1\n      0x40\n      mstore\n      pop\n      dup2\n      add\n      swap1\n      tag_281\n      swap2\n      swap1\n      tag_170\n      jump\t// in\n    tag_281:\n        /* \"Dron_Company.sol\":3243:3292  require (token.approve(plot_owner,  amountToBuy)) */\n      tag_282\n      jumpi\n      0x00\n      dup1\n      revert\n    tag_282:\n        /* \"Dron_Company.sol\":3312:3317  token */\n      0x07\n      0x00\n      swap1\n      sload\n      swap1\n      0x0100\n      exp\n      swap1\n      div\n      0xffffffffffffffffffffffffffffffffffffffff\n      and\n        /* \"Dron_Company.sol\":3312:3330  token.transferFrom */\n      0xffffffffffffffffffffffffffffffffffffffff\n      and\n      0x23b872dd\n        /* \"Dron_Company.sol\":3332:3342  plot_owner */\n      dup5\n        /* \"Dron_Company.sol\":3344:3354  dron_owner */\n      dup7\n        /* \"Dron_Company.sol\":3356:3367  amountToBuy */\n      dup5\n        /* \"Dron_Company.sol\":3312:3368  token.transferFrom (plot_owner, dron_owner, amountToBuy) */\n      mload(0x40)\n      dup5\n      0xffffffff\n      and\n      0xe0\n      shl\n      dup2\n      mstore\n      0x04\n      add\n      tag_283\n      swap4\n      swap3\n      swap2\n      swap1\n      tag_284\n      jump\t// in\n    tag_283:\n      0x20\n      mload(0x40)\n      dup1\n      dup4\n      sub\n      dup2\n      0x00\n      dup8\n      gas\n      call\n      iszero\n      dup1\n      iszero\n      tag_286\n      jumpi\n      returndatasize\n      0x00\n      dup1\n      returndatacopy\n      revert(0x00, returndatasize)\n    tag_286:\n      pop\n      pop\n      pop\n      pop\n      mload(0x40)\n      returndatasize\n      not(0x1f)\n      0x1f\n      dup3\n      add\n      and\n      dup3\n      add\n      dup1\n      0x40\n      mstore\n      pop\n      dup2\n      add\n      swap1\n      tag_287\n      swap2\n      swap1\n      tag_170\n      jump\t// in\n    tag_287:\n        /* \"Dron_Company.sol\":3303:3392  require (token.transferFrom (plot_owner, dron_owner, amountToBuy), \"ERROR AL TRANSFERIR\") */\n      tag_288\n      jumpi\n      mload(0x40)\n      0x08c379a000000000000000000000000000000000000000000000000000000000\n      dup2\n      mstore\n      0x04\n      add\n      tag_289\n      swap1\n      tag_290\n      jump\t// in\n    tag_289:\n      mload(0x40)\n      dup1\n      swap2\n      sub\n      swap1\n      revert\n    tag_288:\n        /* \"Dron_Company.sol\":3403:3413  n_trabajos */\n      0x02\n      0x00\n        /* \"Dron_Company.sol\":3403:3415  n_trabajos++ */\n      dup2\n      sload\n      dup1\n      swap3\n      swap2\n      swap1\n      tag_291\n      swap1\n      tag_191\n      jump\t// in\n    tag_291:\n      swap2\n      swap1\n      pop\n      sstore\n      pop\n        /* \"Dron_Company.sol\":3455:3461  iddron */\n      dup7\n        /* \"Dron_Company.sol\":3426:3444  trabajosPendientes */\n      0x06\n        /* \"Dron_Company.sol\":3426:3452  trabajosPendientes[idplot] */\n      0x00\n        /* \"Dron_Company.sol\":3445:3451  idplot */\n      dup9\n        /* \"Dron_Company.sol\":3426:3452  trabajosPendientes[idplot] */\n      dup2\n      mstore\n      0x20\n      add\n      swap1\n      dup2\n      mstore\n      0x20\n      add\n      0x00\n      keccak256\n        /* \"Dron_Company.sol\":3426:3461  trabajosPendientes[idplot] = iddron */\n      dup2\n      swap1\n      sstore\n      pop\n        /* \"Dron_Company.sol\":3473:3479  drones */\n      0x04\n        /* \"Dron_Company.sol\":3473:3487  drones[iddron] */\n      0x00\n        /* \"Dron_Company.sol\":3480:3486  iddron */\n      dup9\n        /* \"Dron_Company.sol\":3473:3487  drones[iddron] */\n      dup2\n      mstore\n      0x20\n      add\n      swap1\n      dup2\n      mstore\n      0x20\n      add\n      0x00\n      keccak256\n      0x00\n      swap1\n      sload\n      swap1\n      0x0100\n      exp\n      swap1\n      div\n      0xffffffffffffffffffffffffffffffffffffffff\n      and\n        /* \"Dron_Company.sol\":3473:3501  drones[iddron].setDisponible */\n      0xffffffffffffffffffffffffffffffffffffffff\n      and\n      0x2b81ff95\n        /* \"Dron_Company.sol\":3502:3507  false */\n      0x00\n        /* \"Dron_Company.sol\":3473:3508  drones[iddron].setDisponible(false) */\n      mload(0x40)\n      dup3\n      0xffffffff\n      and\n      0xe0\n      shl\n      dup2\n      mstore\n      0x04\n      add\n      tag_292\n      swap2\n      swap1\n      tag_28\n      jump\t// in\n    tag_292:\n      0x00\n      mload(0x40)\n      dup1\n      dup4\n      sub\n      dup2\n      0x00\n      dup8\n      dup1\n      extcodesize\n      iszero\n      dup1\n      iszero\n      tag_293\n      jumpi\n      0x00\n      dup1\n      revert\n    tag_293:\n      pop\n      gas\n      call\n      iszero\n      dup1\n      iszero\n      tag_295\n      jumpi\n      returndatasize\n      0x00\n      dup1\n      returndatacopy\n      revert(0x00, returndatasize)\n    tag_295:\n      pop\n      pop\n      pop\n      pop\n        /* \"Dron_Company.sol\":3526:3564  ContrataDronFumigador (iddron, idplot) */\n      0xad6d0c0810a0bd7cfc65b4fa3f7e7ddea11a181fa6f2ce924480219dadb0d560\n        /* \"Dron_Company.sol\":3549:3555  iddron */\n      dup8\n        /* \"Dron_Company.sol\":3557:3563  idplot */\n      dup8\n        /* \"Dron_Company.sol\":3526:3564  ContrataDronFumigador (iddron, idplot) */\n      mload(0x40)\n      tag_296\n      swap3\n      swap2\n      swap1\n      tag_297\n      jump\t// in\n    tag_296:\n      mload(0x40)\n      dup1\n      swap2\n      sub\n      swap1\n      log1\n        /* \"Dron_Company.sol\":3582:3586  true */\n      0x01\n        /* \"Dron_Company.sol\":3575:3586  return true */\n      swap5\n      pop\n      pop\n      pop\n      pop\n      pop\n        /* \"Dron_Company.sol\":2467:3594  function ContrataDron (uint256 iddron, uint256 idplot) public payable returns (bool success)... */\n      swap3\n      swap2\n      pop\n      pop\n      jump\t// out\n        /* \"Dron_Company.sol\":5327:5416  function get_idDron() public view returns(uint256)... */\n    tag_83:\n        /* \"Dron_Company.sol\":5369:5376  uint256 */\n      0x00\n        /* \"Dron_Company.sol\":5401:5408  id_dron */\n      dup1\n      sload\n        /* \"Dron_Company.sol\":5394:5408  return id_dron */\n      swap1\n      pop\n        /* \"Dron_Company.sol\":5327:5416  function get_idDron() public view returns(uint256)... */\n      swap1\n      jump\t// out\n        /* \"Dron_Company.sol\":5781:5909  function getMinHeight(uint256 iddron) public view returns (uint256)... */\n    tag_88:\n        /* \"Dron_Company.sol\":5840:5847  uint256 */\n      0x00\n        /* \"Dron_Company.sol\":5872:5878  drones */\n      0x04\n        /* \"Dron_Company.sol\":5872:5886  drones[iddron] */\n      0x00\n        /* \"Dron_Company.sol\":5879:5885  iddron */\n      dup4\n        /* \"Dron_Company.sol\":5872:5886  drones[iddron] */\n      dup2\n      mstore\n      0x20\n      add\n      swap1\n      dup2\n      mstore\n      0x20\n      add\n      0x00\n      keccak256\n      0x00\n      swap1\n      sload\n      swap1\n      0x0100\n      exp\n      swap1\n      div\n      0xffffffffffffffffffffffffffffffffffffffff\n      and\n        /* \"Dron_Company.sol\":5872:5899  drones[iddron].getMinHeight */\n      0xffffffffffffffffffffffffffffffffffffffff\n      and\n      0x49befa85\n        /* \"Dron_Company.sol\":5872:5901  drones[iddron].getMinHeight() */\n      mload(0x40)\n      dup2\n      0xffffffff\n      and\n      0xe0\n      shl\n      dup2\n      mstore\n      0x04\n      add\n      0x20\n      mload(0x40)\n      dup1\n      dup4\n      sub\n      dup2\n      dup7\n      gas\n      staticcall\n      iszero\n      dup1\n      iszero\n      tag_301\n      jumpi\n      returndatasize\n      0x00\n      dup1\n      returndatacopy\n      revert(0x00, returndatasize)\n    tag_301:\n      pop\n      pop\n      pop\n      pop\n      mload(0x40)\n      returndatasize\n      not(0x1f)\n      0x1f\n      dup3\n      add\n      and\n      dup3\n      add\n      dup1\n      0x40\n      mstore\n      pop\n      dup2\n      add\n      swap1\n      tag_302\n      swap2\n      swap1\n      tag_129\n      jump\t// in\n    tag_302:\n        /* \"Dron_Company.sol\":5865:5901  return drones[iddron].getMinHeight() */\n      swap1\n      pop\n        /* \"Dron_Company.sol\":5781:5909  function getMinHeight(uint256 iddron) public view returns (uint256)... */\n      swap2\n      swap1\n      pop\n      jump\t// out\n        /* \"Dron_Company.sol\":5424:5513  function get_idPlot() public view returns(uint256)... */\n    tag_92:\n        /* \"Dron_Company.sol\":5466:5473  uint256 */\n      0x00\n        /* \"Dron_Company.sol\":5498:5505  id_plot */\n      sload(0x01)\n        /* \"Dron_Company.sol\":5491:5505  return id_plot */\n      swap1\n      pop\n        /* \"Dron_Company.sol\":5424:5513  function get_idPlot() public view returns(uint256)... */\n      swap1\n      jump\t// out\n        /* \"SafeMath.sol\":334:441   */\n    tag_97:\n        /* \"SafeMath.sol\":388:394   */\n      0x00\n        /* \"SafeMath.sol\":406:407   */\n      dup2\n        /* \"SafeMath.sol\":402:403   */\n      dup4\n        /* \"SafeMath.sol\":402:407   */\n      tag_305\n      swap2\n      swap1\n      tag_306\n      jump\t// in\n    tag_305:\n        /* \"SafeMath.sol\":398:407   */\n      swap1\n      pop\n        /* \"SafeMath.sol\":422:423   */\n      0x00\n        /* \"SafeMath.sol\":417:418   */\n      dup4\n        /* \"SafeMath.sol\":417:423   */\n      eq\n        /* \"SafeMath.sol\":417:437   */\n      dup1\n      tag_307\n      jumpi\n      pop\n        /* \"SafeMath.sol\":436:437   */\n      dup2\n        /* \"SafeMath.sol\":431:432   */\n      dup4\n        /* \"SafeMath.sol\":427:428   */\n      dup3\n        /* \"SafeMath.sol\":427:432   */\n      tag_308\n      swap2\n      swap1\n      tag_233\n      jump\t// in\n    tag_308:\n        /* \"SafeMath.sol\":427:437   */\n      eq\n        /* \"SafeMath.sol\":417:437   */\n    tag_307:\n        /* \"SafeMath.sol\":409:438   */\n      tag_309\n      jumpi\n      0x00\n      dup1\n      revert\n    tag_309:\n        /* \"SafeMath.sol\":334:441   */\n      swap3\n      swap2\n      pop\n      pop\n      jump\t// out\n        /* \"Dron_Company.sol\":2072:2459  function getDronesDisponibles() public view returns(uint256[] memory)... */\n    tag_101:\n        /* \"Dron_Company.sol\":2124:2140  uint256[] memory */\n      0x60\n        /* \"Dron_Company.sol\":2158:2187  uint256 [] memory drones_disp */\n      0x00\n        /* \"Dron_Company.sol\":2205:2212  id_dron */\n      dup1\n      sload\n        /* \"Dron_Company.sol\":2190:2213  new uint256 [](id_dron) */\n      0xffffffffffffffff\n      dup2\n      gt\n      iszero\n      tag_311\n      jumpi\n      tag_312\n      tag_176\n      jump\t// in\n    tag_312:\n    tag_311:\n      mload(0x40)\n      swap1\n      dup1\n      dup3\n      mstore\n      dup1\n      0x20\n      mul\n      0x20\n      add\n      dup3\n      add\n      0x40\n      mstore\n      dup1\n      iszero\n      tag_313\n      jumpi\n      dup2\n      0x20\n      add\n      0x20\n      dup3\n      mul\n      dup1\n      calldatasize\n      dup4\n      calldatacopy\n      dup1\n      dup3\n      add\n      swap2\n      pop\n      pop\n      swap1\n      pop\n    tag_313:\n      pop\n        /* \"Dron_Company.sol\":2158:2213  uint256 [] memory drones_disp = new uint256 [](id_dron) */\n      swap1\n      pop\n        /* \"Dron_Company.sol\":2224:2230  uint n */\n      0x00\n        /* \"Dron_Company.sol\":2250:2256  uint i */\n      dup1\n        /* \"Dron_Company.sol\":2257:2258  1 */\n      0x01\n        /* \"Dron_Company.sol\":2250:2258  uint i=1 */\n      swap1\n      pop\n        /* \"Dron_Company.sol\":2245:2423  for (uint i=1; i<=id_dron; i++)... */\n    tag_314:\n        /* \"Dron_Company.sol\":2263:2270  id_dron */\n      sload(0x00)\n        /* \"Dron_Company.sol\":2260:2261  i */\n      dup2\n        /* \"Dron_Company.sol\":2260:2270  i<=id_dron */\n      gt\n        /* \"Dron_Company.sol\":2245:2423  for (uint i=1; i<=id_dron; i++)... */\n      tag_315\n      jumpi\n        /* \"Dron_Company.sol\":2303:2309  drones */\n      0x04\n        /* \"Dron_Company.sol\":2303:2312  drones[i] */\n      0x00\n        /* \"Dron_Company.sol\":2310:2311  i */\n      dup3\n        /* \"Dron_Company.sol\":2303:2312  drones[i] */\n      dup2\n      mstore\n      0x20\n      add\n      swap1\n      dup2\n      mstore\n      0x20\n      add\n      0x00\n      keccak256\n      0x00\n      swap1\n      sload\n      swap1\n      0x0100\n      exp\n      swap1\n      div\n      0xffffffffffffffffffffffffffffffffffffffff\n      and\n        /* \"Dron_Company.sol\":2303:2326  drones[i].getDisponible */\n      0xffffffffffffffffffffffffffffffffffffffff\n      and\n      0xfef856\n        /* \"Dron_Company.sol\":2303:2328  drones[i].getDisponible() */\n      mload(0x40)\n      dup2\n      0xffffffff\n      and\n      0xe0\n      shl\n      dup2\n      mstore\n      0x04\n      add\n      0x20\n      mload(0x40)\n      dup1\n      dup4\n      sub\n      dup2\n      dup7\n      gas\n      staticcall\n      iszero\n      dup1\n      iszero\n      tag_318\n      jumpi\n      returndatasize\n      0x00\n      dup1\n      returndatacopy\n      revert(0x00, returndatasize)\n    tag_318:\n      pop\n      pop\n      pop\n      pop\n      mload(0x40)\n      returndatasize\n      not(0x1f)\n      0x1f\n      dup3\n      add\n      and\n      dup3\n      add\n      dup1\n      0x40\n      mstore\n      pop\n      dup2\n      add\n      swap1\n      tag_319\n      swap2\n      swap1\n      tag_170\n      jump\t// in\n    tag_319:\n        /* \"Dron_Company.sol\":2300:2412  if(drones[i].getDisponible())... */\n      iszero\n      tag_320\n      jumpi\n        /* \"Dron_Company.sol\":2375:2376  i */\n      dup1\n        /* \"Dron_Company.sol\":2360:2371  drones_disp */\n      dup4\n        /* \"Dron_Company.sol\":2372:2373  n */\n      dup4\n        /* \"Dron_Company.sol\":2360:2374  drones_disp[n] */\n      dup2\n      mload\n      dup2\n      lt\n      tag_321\n      jumpi\n      tag_322\n      tag_189\n      jump\t// in\n    tag_322:\n    tag_321:\n      0x20\n      mul\n      0x20\n      add\n      add\n        /* \"Dron_Company.sol\":2360:2376  drones_disp[n]=i */\n      dup2\n      dup2\n      mstore\n      pop\n      pop\n        /* \"Dron_Company.sol\":2394:2397  n++ */\n      dup2\n      dup1\n      tag_323\n      swap1\n      tag_191\n      jump\t// in\n    tag_323:\n      swap3\n      pop\n      pop\n        /* \"Dron_Company.sol\":2300:2412  if(drones[i].getDisponible())... */\n    tag_320:\n        /* \"Dron_Company.sol\":2272:2275  i++ */\n      dup1\n      dup1\n      tag_324\n      swap1\n      tag_191\n      jump\t// in\n    tag_324:\n      swap2\n      pop\n      pop\n        /* \"Dron_Company.sol\":2245:2423  for (uint i=1; i<=id_dron; i++)... */\n      jump(tag_314)\n    tag_315:\n      pop\n        /* \"Dron_Company.sol\":2440:2451  drones_disp */\n      dup2\n        /* \"Dron_Company.sol\":2433:2451  return drones_disp */\n      swap3\n      pop\n      pop\n      pop\n        /* \"Dron_Company.sol\":2072:2459  function getDronesDisponibles() public view returns(uint256[] memory)... */\n      swap1\n      jump\t// out\n        /* \"SafeMath.sol\":89:205   */\n    tag_106:\n        /* \"SafeMath.sol\":143:149   */\n      0x00\n        /* \"SafeMath.sol\":170:171   */\n      dup2\n        /* \"SafeMath.sol\":166:167   */\n      dup4\n        /* \"SafeMath.sol\":166:171   */\n      tag_326\n      swap2\n      swap1\n      tag_114\n      jump\t// in\n    tag_326:\n        /* \"SafeMath.sol\":162:171   */\n      swap1\n      pop\n        /* \"SafeMath.sol\":195:196   */\n      dup3\n        /* \"SafeMath.sol\":190:191   */\n      dup2\n        /* \"SafeMath.sol\":190:196   */\n      lt\n      iszero\n        /* \"SafeMath.sol\":182:197   */\n      tag_327\n      jumpi\n      0x00\n      dup1\n      revert\n    tag_327:\n        /* \"SafeMath.sol\":89:205   */\n      swap3\n      swap2\n      pop\n      pop\n      jump\t// out\n        /* \"Dron_Company.sol\":5917:6106  function compareStrings(string memory a, string memory b) internal pure returns (bool) ... */\n    tag_198:\n        /* \"Dron_Company.sol\":5998:6002  bool */\n      0x00\n        /* \"Dron_Company.sol\":6093:6094  b */\n      dup2\n        /* \"Dron_Company.sol\":6075:6096  abi.encodePacked((b)) */\n      add(0x20, mload(0x40))\n      tag_329\n      swap2\n      swap1\n      tag_330\n      jump\t// in\n    tag_329:\n      mload(0x40)\n      0x20\n      dup2\n      dup4\n      sub\n      sub\n      dup2\n      mstore\n      swap1\n      0x40\n      mstore\n        /* \"Dron_Company.sol\":6065:6097  keccak256(abi.encodePacked((b))) */\n      dup1\n      mload\n      swap1\n      0x20\n      add\n      keccak256\n        /* \"Dron_Company.sol\":6057:6058  a */\n      dup4\n        /* \"Dron_Company.sol\":6039:6060  abi.encodePacked((a)) */\n      add(0x20, mload(0x40))\n      tag_331\n      swap2\n      swap1\n      tag_330\n      jump\t// in\n    tag_331:\n      mload(0x40)\n      0x20\n      dup2\n      dup4\n      sub\n      sub\n      dup2\n      mstore\n      swap1\n      0x40\n      mstore\n        /* \"Dron_Company.sol\":6029:6061  keccak256(abi.encodePacked((a))) */\n      dup1\n      mload\n      swap1\n      0x20\n      add\n      keccak256\n        /* \"Dron_Company.sol\":6029:6097  keccak256(abi.encodePacked((a))) == keccak256(abi.encodePacked((b))) */\n      eq\n        /* \"Dron_Company.sol\":6021:6098  return (keccak256(abi.encodePacked((a))) == keccak256(abi.encodePacked((b)))) */\n      swap1\n      pop\n        /* \"Dron_Company.sol\":5917:6106  function compareStrings(string memory a, string memory b) internal pure returns (bool) ... */\n      swap3\n      swap2\n      pop\n      pop\n      jump\t// out\n    tag_116:\n      dataSize(sub_0)\n      dup1\n      dataOffset(sub_0)\n      dup4\n      codecopy\n      add\n      swap1\n      jump\t// out\n    tag_210:\n      dataSize(sub_1)\n      dup1\n      dataOffset(sub_1)\n      dup4\n      codecopy\n      add\n      swap1\n      jump\t// out\n        /* \"#utility.yul\":7:82   */\n    tag_332:\n        /* \"#utility.yul\":40:46   */\n      0x00\n        /* \"#utility.yul\":73:75   */\n      0x40\n        /* \"#utility.yul\":67:76   */\n      mload\n        /* \"#utility.yul\":57:76   */\n      swap1\n      pop\n        /* \"#utility.yul\":7:82   */\n      swap1\n      jump\t// out\n        /* \"#utility.yul\":88:205   */\n    tag_333:\n        /* \"#utility.yul\":197:198   */\n      0x00\n        /* \"#utility.yul\":194:195   */\n      dup1\n        /* \"#utility.yul\":187:199   */\n      revert\n        /* \"#utility.yul\":211:328   */\n    tag_334:\n        /* \"#utility.yul\":320:321   */\n      0x00\n        /* \"#utility.yul\":317:318   */\n      dup1\n        /* \"#utility.yul\":310:322   */\n      revert\n        /* \"#utility.yul\":334:411   */\n    tag_335:\n        /* \"#utility.yul\":371:378   */\n      0x00\n        /* \"#utility.yul\":400:405   */\n      dup2\n        /* \"#utility.yul\":389:405   */\n      swap1\n      pop\n        /* \"#utility.yul\":334:411   */\n      swap2\n      swap1\n      pop\n      jump\t// out\n        /* \"#utility.yul\":417:539   */\n    tag_336:\n        /* \"#utility.yul\":490:514   */\n      tag_386\n        /* \"#utility.yul\":508:513   */\n      dup2\n        /* \"#utility.yul\":490:514   */\n      tag_335\n      jump\t// in\n    tag_386:\n        /* \"#utility.yul\":483:488   */\n      dup2\n        /* \"#utility.yul\":480:515   */\n      eq\n        /* \"#utility.yul\":470:533   */\n      tag_387\n      jumpi\n        /* \"#utility.yul\":529:530   */\n      0x00\n        /* \"#utility.yul\":526:527   */\n      dup1\n        /* \"#utility.yul\":519:531   */\n      revert\n        /* \"#utility.yul\":470:533   */\n    tag_387:\n        /* \"#utility.yul\":417:539   */\n      pop\n      jump\t// out\n        /* \"#utility.yul\":545:684   */\n    tag_337:\n        /* \"#utility.yul\":591:596   */\n      0x00\n        /* \"#utility.yul\":629:635   */\n      dup2\n        /* \"#utility.yul\":616:636   */\n      calldataload\n        /* \"#utility.yul\":607:636   */\n      swap1\n      pop\n        /* \"#utility.yul\":645:678   */\n      tag_389\n        /* \"#utility.yul\":672:677   */\n      dup2\n        /* \"#utility.yul\":645:678   */\n      tag_336\n      jump\t// in\n    tag_389:\n        /* \"#utility.yul\":545:684   */\n      swap3\n      swap2\n      pop\n      pop\n      jump\t// out\n        /* \"#utility.yul\":690:1309   */\n    tag_25:\n        /* \"#utility.yul\":767:773   */\n      0x00\n        /* \"#utility.yul\":775:781   */\n      dup1\n        /* \"#utility.yul\":783:789   */\n      0x00\n        /* \"#utility.yul\":832:834   */\n      0x60\n        /* \"#utility.yul\":820:829   */\n      dup5\n        /* \"#utility.yul\":811:818   */\n      dup7\n        /* \"#utility.yul\":807:830   */\n      sub\n        /* \"#utility.yul\":803:835   */\n      slt\n        /* \"#utility.yul\":800:919   */\n      iszero\n      tag_391\n      jumpi\n        /* \"#utility.yul\":838:917   */\n      tag_392\n      tag_333\n      jump\t// in\n    tag_392:\n        /* \"#utility.yul\":800:919   */\n    tag_391:\n        /* \"#utility.yul\":958:959   */\n      0x00\n        /* \"#utility.yul\":983:1036   */\n      tag_393\n        /* \"#utility.yul\":1028:1035   */\n      dup7\n        /* \"#utility.yul\":1019:1025   */\n      dup3\n        /* \"#utility.yul\":1008:1017   */\n      dup8\n        /* \"#utility.yul\":1004:1026   */\n      add\n        /* \"#utility.yul\":983:1036   */\n      tag_337\n      jump\t// in\n    tag_393:\n        /* \"#utility.yul\":973:1036   */\n      swap4\n      pop\n        /* \"#utility.yul\":929:1046   */\n      pop\n        /* \"#utility.yul\":1085:1087   */\n      0x20\n        /* \"#utility.yul\":1111:1164   */\n      tag_394\n        /* \"#utility.yul\":1156:1163   */\n      dup7\n        /* \"#utility.yul\":1147:1153   */\n      dup3\n        /* \"#utility.yul\":1136:1145   */\n      dup8\n        /* \"#utility.yul\":1132:1154   */\n      add\n        /* \"#utility.yul\":1111:1164   */\n      tag_337\n      jump\t// in\n    tag_394:\n        /* \"#utility.yul\":1101:1164   */\n      swap3\n      pop\n        /* \"#utility.yul\":1056:1174   */\n      pop\n        /* \"#utility.yul\":1213:1215   */\n      0x40\n        /* \"#utility.yul\":1239:1292   */\n      tag_395\n        /* \"#utility.yul\":1284:1291   */\n      dup7\n        /* \"#utility.yul\":1275:1281   */\n      dup3\n        /* \"#utility.yul\":1264:1273   */\n      dup8\n        /* \"#utility.yul\":1260:1282   */\n      add\n        /* \"#utility.yul\":1239:1292   */\n      tag_337\n      jump\t// in\n    tag_395:\n        /* \"#utility.yul\":1229:1292   */\n      swap2\n      pop\n        /* \"#utility.yul\":1184:1302   */\n      pop\n        /* \"#utility.yul\":690:1309   */\n      swap3\n      pop\n      swap3\n      pop\n      swap3\n      jump\t// out\n        /* \"#utility.yul\":1315:1405   */\n    tag_338:\n        /* \"#utility.yul\":1349:1356   */\n      0x00\n        /* \"#utility.yul\":1392:1397   */\n      dup2\n        /* \"#utility.yul\":1385:1398   */\n      iszero\n        /* \"#utility.yul\":1378:1399   */\n      iszero\n        /* \"#utility.yul\":1367:1399   */\n      swap1\n      pop\n        /* \"#utility.yul\":1315:1405   */\n      swap2\n      swap1\n      pop\n      jump\t// out\n        /* \"#utility.yul\":1411:1520   */\n    tag_339:\n        /* \"#utility.yul\":1492:1513   */\n      tag_398\n        /* \"#utility.yul\":1507:1512   */\n      dup2\n        /* \"#utility.yul\":1492:1513   */\n      tag_338\n      jump\t// in\n    tag_398:\n        /* \"#utility.yul\":1487:1490   */\n      dup3\n        /* \"#utility.yul\":1480:1514   */\n      mstore\n        /* \"#utility.yul\":1411:1520   */\n      pop\n      pop\n      jump\t// out\n        /* \"#utility.yul\":1526:1736   */\n    tag_28:\n        /* \"#utility.yul\":1613:1617   */\n      0x00\n        /* \"#utility.yul\":1651:1653   */\n      0x20\n        /* \"#utility.yul\":1640:1649   */\n      dup3\n        /* \"#utility.yul\":1636:1654   */\n      add\n        /* \"#utility.yul\":1628:1654   */\n      swap1\n      pop\n        /* \"#utility.yul\":1664:1729   */\n      tag_400\n        /* \"#utility.yul\":1726:1727   */\n      0x00\n        /* \"#utility.yul\":1715:1724   */\n      dup4\n        /* \"#utility.yul\":1711:1728   */\n      add\n        /* \"#utility.yul\":1702:1708   */\n      dup5\n        /* \"#utility.yul\":1664:1729   */\n      tag_339\n      jump\t// in\n    tag_400:\n        /* \"#utility.yul\":1526:1736   */\n      swap3\n      swap2\n      pop\n      pop\n      jump\t// out\n        /* \"#utility.yul\":1742:2071   */\n    tag_32:\n        /* \"#utility.yul\":1801:1807   */\n      0x00\n        /* \"#utility.yul\":1850:1852   */\n      0x20\n        /* \"#utility.yul\":1838:1847   */\n      dup3\n        /* \"#utility.yul\":1829:1836   */\n      dup5\n        /* \"#utility.yul\":1825:1848   */\n      sub\n        /* \"#utility.yul\":1821:1853   */\n      slt\n        /* \"#utility.yul\":1818:1937   */\n      iszero\n      tag_402\n      jumpi\n        /* \"#utility.yul\":1856:1935   */\n      tag_403\n      tag_333\n      jump\t// in\n    tag_403:\n        /* \"#utility.yul\":1818:1937   */\n    tag_402:\n        /* \"#utility.yul\":1976:1977   */\n      0x00\n        /* \"#utility.yul\":2001:2054   */\n      tag_404\n        /* \"#utility.yul\":2046:2053   */\n      dup5\n        /* \"#utility.yul\":2037:2043   */\n      dup3\n        /* \"#utility.yul\":2026:2035   */\n      dup6\n        /* \"#utility.yul\":2022:2044   */\n      add\n        /* \"#utility.yul\":2001:2054   */\n      tag_337\n      jump\t// in\n    tag_404:\n        /* \"#utility.yul\":1991:2054   */\n      swap2\n      pop\n        /* \"#utility.yul\":1947:2064   */\n      pop\n        /* \"#utility.yul\":1742:2071   */\n      swap3\n      swap2\n      pop\n      pop\n      jump\t// out\n        /* \"#utility.yul\":2077:2195   */\n    tag_340:\n        /* \"#utility.yul\":2164:2188   */\n      tag_406\n        /* \"#utility.yul\":2182:2187   */\n      dup2\n        /* \"#utility.yul\":2164:2188   */\n      tag_335\n      jump\t// in\n    tag_406:\n        /* \"#utility.yul\":2159:2162   */\n      dup3\n        /* \"#utility.yul\":2152:2189   */\n      mstore\n        /* \"#utility.yul\":2077:2195   */\n      pop\n      pop\n      jump\t// out\n        /* \"#utility.yul\":2201:2423   */\n    tag_35:\n        /* \"#utility.yul\":2294:2298   */\n      0x00\n        /* \"#utility.yul\":2332:2334   */\n      0x20\n        /* \"#utility.yul\":2321:2330   */\n      dup3\n        /* \"#utility.yul\":2317:2335   */\n      add\n        /* \"#utility.yul\":2309:2335   */\n      swap1\n      pop\n        /* \"#utility.yul\":2345:2416   */\n      tag_408\n        /* \"#utility.yul\":2413:2414   */\n      0x00\n        /* \"#utility.yul\":2402:2411   */\n      dup4\n        /* \"#utility.yul\":2398:2415   */\n      add\n        /* \"#utility.yul\":2389:2395   */\n      dup5\n        /* \"#utility.yul\":2345:2416   */\n      tag_340\n      jump\t// in\n    tag_408:\n        /* \"#utility.yul\":2201:2423   */\n      swap3\n      swap2\n      pop\n      pop\n      jump\t// out\n        /* \"#utility.yul\":2429:2903   */\n    tag_39:\n        /* \"#utility.yul\":2497:2503   */\n      0x00\n        /* \"#utility.yul\":2505:2511   */\n      dup1\n        /* \"#utility.yul\":2554:2556   */\n      0x40\n        /* \"#utility.yul\":2542:2551   */\n      dup4\n        /* \"#utility.yul\":2533:2540   */\n      dup6\n        /* \"#utility.yul\":2529:2552   */\n      sub\n        /* \"#utility.yul\":2525:2557   */\n      slt\n        /* \"#utility.yul\":2522:2641   */\n      iszero\n      tag_410\n      jumpi\n        /* \"#utility.yul\":2560:2639   */\n      tag_411\n      tag_333\n      jump\t// in\n    tag_411:\n        /* \"#utility.yul\":2522:2641   */\n    tag_410:\n        /* \"#utility.yul\":2680:2681   */\n      0x00\n        /* \"#utility.yul\":2705:2758   */\n      tag_412\n        /* \"#utility.yul\":2750:2757   */\n      dup6\n        /* \"#utility.yul\":2741:2747   */\n      dup3\n        /* \"#utility.yul\":2730:2739   */\n      dup7\n        /* \"#utility.yul\":2726:2748   */\n      add\n        /* \"#utility.yul\":2705:2758   */\n      tag_337\n      jump\t// in\n    tag_412:\n        /* \"#utility.yul\":2695:2758   */\n      swap3\n      pop\n        /* \"#utility.yul\":2651:2768   */\n      pop\n        /* \"#utility.yul\":2807:2809   */\n      0x20\n        /* \"#utility.yul\":2833:2886   */\n      tag_413\n        /* \"#utility.yul\":2878:2885   */\n      dup6\n        /* \"#utility.yul\":2869:2875   */\n      dup3\n        /* \"#utility.yul\":2858:2867   */\n      dup7\n        /* \"#utility.yul\":2854:2876   */\n      add\n        /* \"#utility.yul\":2833:2886   */\n      tag_337\n      jump\t// in\n    tag_413:\n        /* \"#utility.yul\":2823:2886   */\n      swap2\n      pop\n        /* \"#utility.yul\":2778:2896   */\n      pop\n        /* \"#utility.yul\":2429:2903   */\n      swap3\n      pop\n      swap3\n      swap1\n      pop\n      jump\t// out\n        /* \"#utility.yul\":2909:3023   */\n    tag_341:\n        /* \"#utility.yul\":2976:2982   */\n      0x00\n        /* \"#utility.yul\":3010:3015   */\n      dup2\n        /* \"#utility.yul\":3004:3016   */\n      mload\n        /* \"#utility.yul\":2994:3016   */\n      swap1\n      pop\n        /* \"#utility.yul\":2909:3023   */\n      swap2\n      swap1\n      pop\n      jump\t// out\n        /* \"#utility.yul\":3029:3213   */\n    tag_342:\n        /* \"#utility.yul\":3128:3139   */\n      0x00\n        /* \"#utility.yul\":3162:3168   */\n      dup3\n        /* \"#utility.yul\":3157:3160   */\n      dup3\n        /* \"#utility.yul\":3150:3169   */\n      mstore\n        /* \"#utility.yul\":3202:3206   */\n      0x20\n        /* \"#utility.yul\":3197:3200   */\n      dup3\n        /* \"#utility.yul\":3193:3207   */\n      add\n        /* \"#utility.yul\":3178:3207   */\n      swap1\n      pop\n        /* \"#utility.yul\":3029:3213   */\n      swap3\n      swap2\n      pop\n      pop\n      jump\t// out\n        /* \"#utility.yul\":3219:3351   */\n    tag_343:\n        /* \"#utility.yul\":3286:3290   */\n      0x00\n        /* \"#utility.yul\":3309:3312   */\n      dup2\n        /* \"#utility.yul\":3301:3312   */\n      swap1\n      pop\n        /* \"#utility.yul\":3339:3343   */\n      0x20\n        /* \"#utility.yul\":3334:3337   */\n      dup3\n        /* \"#utility.yul\":3330:3344   */\n      add\n        /* \"#utility.yul\":3322:3344   */\n      swap1\n      pop\n        /* \"#utility.yul\":3219:3351   */\n      swap2\n      swap1\n      pop\n      jump\t// out\n        /* \"#utility.yul\":3357:3465   */\n    tag_344:\n        /* \"#utility.yul\":3434:3458   */\n      tag_418\n        /* \"#utility.yul\":3452:3457   */\n      dup2\n        /* \"#utility.yul\":3434:3458   */\n      tag_335\n      jump\t// in\n    tag_418:\n        /* \"#utility.yul\":3429:3432   */\n      dup3\n        /* \"#utility.yul\":3422:3459   */\n      mstore\n        /* \"#utility.yul\":3357:3465   */\n      pop\n      pop\n      jump\t// out\n        /* \"#utility.yul\":3471:3650   */\n    tag_345:\n        /* \"#utility.yul\":3540:3550   */\n      0x00\n        /* \"#utility.yul\":3561:3607   */\n      tag_420\n        /* \"#utility.yul\":3603:3606   */\n      dup4\n        /* \"#utility.yul\":3595:3601   */\n      dup4\n        /* \"#utility.yul\":3561:3607   */\n      tag_344\n      jump\t// in\n    tag_420:\n        /* \"#utility.yul\":3639:3643   */\n      0x20\n        /* \"#utility.yul\":3634:3637   */\n      dup4\n        /* \"#utility.yul\":3630:3644   */\n      add\n        /* \"#utility.yul\":3616:3644   */\n      swap1\n      pop\n        /* \"#utility.yul\":3471:3650   */\n      swap3\n      swap2\n      pop\n      pop\n      jump\t// out\n        /* \"#utility.yul\":3656:3769   */\n    tag_346:\n        /* \"#utility.yul\":3726:3730   */\n      0x00\n        /* \"#utility.yul\":3758:3762   */\n      0x20\n        /* \"#utility.yul\":3753:3756   */\n      dup3\n        /* \"#utility.yul\":3749:3763   */\n      add\n        /* \"#utility.yul\":3741:3763   */\n      swap1\n      pop\n        /* \"#utility.yul\":3656:3769   */\n      swap2\n      swap1\n      pop\n      jump\t// out\n        /* \"#utility.yul\":3805:4537   */\n    tag_347:\n        /* \"#utility.yul\":3924:3927   */\n      0x00\n        /* \"#utility.yul\":3953:4007   */\n      tag_423\n        /* \"#utility.yul\":4001:4006   */\n      dup3\n        /* \"#utility.yul\":3953:4007   */\n      tag_341\n      jump\t// in\n    tag_423:\n        /* \"#utility.yul\":4023:4109   */\n      tag_424\n        /* \"#utility.yul\":4102:4108   */\n      dup2\n        /* \"#utility.yul\":4097:4100   */\n      dup6\n        /* \"#utility.yul\":4023:4109   */\n      tag_342\n      jump\t// in\n    tag_424:\n        /* \"#utility.yul\":4016:4109   */\n      swap4\n      pop\n        /* \"#utility.yul\":4133:4189   */\n      tag_425\n        /* \"#utility.yul\":4183:4188   */\n      dup4\n        /* \"#utility.yul\":4133:4189   */\n      tag_343\n      jump\t// in\n    tag_425:\n        /* \"#utility.yul\":4212:4219   */\n      dup1\n        /* \"#utility.yul\":4243:4244   */\n      0x00\n        /* \"#utility.yul\":4228:4512   */\n    tag_426:\n        /* \"#utility.yul\":4253:4259   */\n      dup4\n        /* \"#utility.yul\":4250:4251   */\n      dup2\n        /* \"#utility.yul\":4247:4260   */\n      lt\n        /* \"#utility.yul\":4228:4512   */\n      iszero\n      tag_428\n      jumpi\n        /* \"#utility.yul\":4329:4335   */\n      dup2\n        /* \"#utility.yul\":4323:4336   */\n      mload\n        /* \"#utility.yul\":4356:4419   */\n      tag_429\n        /* \"#utility.yul\":4415:4418   */\n      dup9\n        /* \"#utility.yul\":4400:4413   */\n      dup3\n        /* \"#utility.yul\":4356:4419   */\n      tag_345\n      jump\t// in\n    tag_429:\n        /* \"#utility.yul\":4349:4419   */\n      swap8\n      pop\n        /* \"#utility.yul\":4442:4502   */\n      tag_430\n        /* \"#utility.yul\":4495:4501   */\n      dup4\n        /* \"#utility.yul\":4442:4502   */\n      tag_346\n      jump\t// in\n    tag_430:\n        /* \"#utility.yul\":4432:4502   */\n      swap3\n      pop\n        /* \"#utility.yul\":4288:4512   */\n      pop\n        /* \"#utility.yul\":4275:4276   */\n      0x01\n        /* \"#utility.yul\":4272:4273   */\n      dup2\n        /* \"#utility.yul\":4268:4277   */\n      add\n        /* \"#utility.yul\":4263:4277   */\n      swap1\n      pop\n        /* \"#utility.yul\":4228:4512   */\n      jump(tag_426)\n    tag_428:\n        /* \"#utility.yul\":4232:4246   */\n      pop\n        /* \"#utility.yul\":4528:4531   */\n      dup6\n        /* \"#utility.yul\":4521:4531   */\n      swap4\n      pop\n        /* \"#utility.yul\":3929:4537   */\n      pop\n      pop\n      pop\n        /* \"#utility.yul\":3805:4537   */\n      swap3\n      swap2\n      pop\n      pop\n      jump\t// out\n        /* \"#utility.yul\":4543:4916   */\n    tag_49:\n        /* \"#utility.yul\":4686:4690   */\n      0x00\n        /* \"#utility.yul\":4724:4726   */\n      0x20\n        /* \"#utility.yul\":4713:4722   */\n      dup3\n        /* \"#utility.yul\":4709:4727   */\n      add\n        /* \"#utility.yul\":4701:4727   */\n      swap1\n      pop\n        /* \"#utility.yul\":4773:4782   */\n      dup2\n        /* \"#utility.yul\":4767:4771   */\n      dup2\n        /* \"#utility.yul\":4763:4783   */\n      sub\n        /* \"#utility.yul\":4759:4760   */\n      0x00\n        /* \"#utility.yul\":4748:4757   */\n      dup4\n        /* \"#utility.yul\":4744:4761   */\n      add\n        /* \"#utility.yul\":4737:4784   */\n      mstore\n        /* \"#utility.yul\":4801:4909   */\n      tag_432\n        /* \"#utility.yul\":4904:4908   */\n      dup2\n        /* \"#utility.yul\":4895:4901   */\n      dup5\n        /* \"#utility.yul\":4801:4909   */\n      tag_347\n      jump\t// in\n    tag_432:\n        /* \"#utility.yul\":4793:4909   */\n      swap1\n      pop\n        /* \"#utility.yul\":4543:4916   */\n      swap3\n      swap2\n      pop\n      pop\n      jump\t// out\n        /* \"#utility.yul\":4922:5039   */\n    tag_348:\n        /* \"#utility.yul\":5031:5032   */\n      0x00\n        /* \"#utility.yul\":5028:5029   */\n      dup1\n        /* \"#utility.yul\":5021:5033   */\n      revert\n        /* \"#utility.yul\":5045:5162   */\n    tag_349:\n        /* \"#utility.yul\":5154:5155   */\n      0x00\n        /* \"#utility.yul\":5151:5152   */\n      dup1\n        /* \"#utility.yul\":5144:5156   */\n      revert\n        /* \"#utility.yul\":5168:5270   */\n    tag_350:\n        /* \"#utility.yul\":5209:5215   */\n      0x00\n        /* \"#utility.yul\":5260:5262   */\n      0x1f\n        /* \"#utility.yul\":5256:5263   */\n      not\n        /* \"#utility.yul\":5251:5253   */\n      0x1f\n        /* \"#utility.yul\":5244:5249   */\n      dup4\n        /* \"#utility.yul\":5240:5254   */\n      add\n        /* \"#utility.yul\":5236:5264   */\n      and\n        /* \"#utility.yul\":5226:5264   */\n      swap1\n      pop\n        /* \"#utility.yul\":5168:5270   */\n      swap2\n      swap1\n      pop\n      jump\t// out\n        /* \"#utility.yul\":5276:5456   */\n    tag_176:\n        /* \"#utility.yul\":5324:5401   */\n      0x4e487b7100000000000000000000000000000000000000000000000000000000\n        /* \"#utility.yul\":5321:5322   */\n      0x00\n        /* \"#utility.yul\":5314:5402   */\n      mstore\n        /* \"#utility.yul\":5421:5425   */\n      0x41\n        /* \"#utility.yul\":5418:5419   */\n      0x04\n        /* \"#utility.yul\":5411:5426   */\n      mstore\n        /* \"#utility.yul\":5445:5449   */\n      0x24\n        /* \"#utility.yul\":5442:5443   */\n      0x00\n        /* \"#utility.yul\":5435:5450   */\n      revert\n        /* \"#utility.yul\":5462:5743   */\n    tag_351:\n        /* \"#utility.yul\":5545:5572   */\n      tag_438\n        /* \"#utility.yul\":5567:5571   */\n      dup3\n        /* \"#utility.yul\":5545:5572   */\n      tag_350\n      jump\t// in\n    tag_438:\n        /* \"#utility.yul\":5537:5543   */\n      dup2\n        /* \"#utility.yul\":5533:5573   */\n      add\n        /* \"#utility.yul\":5675:5681   */\n      dup2\n        /* \"#utility.yul\":5663:5673   */\n      dup2\n        /* \"#utility.yul\":5660:5682   */\n      lt\n        /* \"#utility.yul\":5639:5657   */\n      0xffffffffffffffff\n        /* \"#utility.yul\":5627:5637   */\n      dup3\n        /* \"#utility.yul\":5624:5658   */\n      gt\n        /* \"#utility.yul\":5621:5683   */\n      or\n        /* \"#utility.yul\":5618:5706   */\n      iszero\n      tag_439\n      jumpi\n        /* \"#utility.yul\":5686:5704   */\n      tag_440\n      tag_176\n      jump\t// in\n    tag_440:\n        /* \"#utility.yul\":5618:5706   */\n    tag_439:\n        /* \"#utility.yul\":5726:5736   */\n      dup1\n        /* \"#utility.yul\":5722:5724   */\n      0x40\n        /* \"#utility.yul\":5715:5737   */\n      mstore\n        /* \"#utility.yul\":5505:5743   */\n      pop\n        /* \"#utility.yul\":5462:5743   */\n      pop\n      pop\n      jump\t// out\n        /* \"#utility.yul\":5749:5878   */\n    tag_352:\n        /* \"#utility.yul\":5783:5789   */\n      0x00\n        /* \"#utility.yul\":5810:5830   */\n      tag_442\n      tag_332\n      jump\t// in\n    tag_442:\n        /* \"#utility.yul\":5800:5830   */\n      swap1\n      pop\n        /* \"#utility.yul\":5839:5872   */\n      tag_443\n        /* \"#utility.yul\":5867:5871   */\n      dup3\n        /* \"#utility.yul\":5859:5865   */\n      dup3\n        /* \"#utility.yul\":5839:5872   */\n      tag_351\n      jump\t// in\n    tag_443:\n        /* \"#utility.yul\":5749:5878   */\n      swap2\n      swap1\n      pop\n      jump\t// out\n        /* \"#utility.yul\":5884:6192   */\n    tag_353:\n        /* \"#utility.yul\":5946:5950   */\n      0x00\n        /* \"#utility.yul\":6036:6054   */\n      0xffffffffffffffff\n        /* \"#utility.yul\":6028:6034   */\n      dup3\n        /* \"#utility.yul\":6025:6055   */\n      gt\n        /* \"#utility.yul\":6022:6078   */\n      iszero\n      tag_445\n      jumpi\n        /* \"#utility.yul\":6058:6076   */\n      tag_446\n      tag_176\n      jump\t// in\n    tag_446:\n        /* \"#utility.yul\":6022:6078   */\n    tag_445:\n        /* \"#utility.yul\":6096:6125   */\n      tag_447\n        /* \"#utility.yul\":6118:6124   */\n      dup3\n        /* \"#utility.yul\":6096:6125   */\n      tag_350\n      jump\t// in\n    tag_447:\n        /* \"#utility.yul\":6088:6125   */\n      swap1\n      pop\n        /* \"#utility.yul\":6180:6184   */\n      0x20\n        /* \"#utility.yul\":6174:6178   */\n      dup2\n        /* \"#utility.yul\":6170:6185   */\n      add\n        /* \"#utility.yul\":6162:6185   */\n      swap1\n      pop\n        /* \"#utility.yul\":5884:6192   */\n      swap2\n      swap1\n      pop\n      jump\t// out\n        /* \"#utility.yul\":6198:6352   */\n    tag_354:\n        /* \"#utility.yul\":6282:6288   */\n      dup3\n        /* \"#utility.yul\":6277:6280   */\n      dup2\n        /* \"#utility.yul\":6272:6275   */\n      dup4\n        /* \"#utility.yul\":6259:6289   */\n      calldatacopy\n        /* \"#utility.yul\":6344:6345   */\n      0x00\n        /* \"#utility.yul\":6335:6341   */\n      dup4\n        /* \"#utility.yul\":6330:6333   */\n      dup4\n        /* \"#utility.yul\":6326:6342   */\n      add\n        /* \"#utility.yul\":6319:6346   */\n      mstore\n        /* \"#utility.yul\":6198:6352   */\n      pop\n      pop\n      pop\n      jump\t// out\n        /* \"#utility.yul\":6358:6770   */\n    tag_355:\n        /* \"#utility.yul\":6436:6441   */\n      0x00\n        /* \"#utility.yul\":6461:6527   */\n      tag_450\n        /* \"#utility.yul\":6477:6526   */\n      tag_451\n        /* \"#utility.yul\":6519:6525   */\n      dup5\n        /* \"#utility.yul\":6477:6526   */\n      tag_353\n      jump\t// in\n    tag_451:\n        /* \"#utility.yul\":6461:6527   */\n      tag_352\n      jump\t// in\n    tag_450:\n        /* \"#utility.yul\":6452:6527   */\n      swap1\n      pop\n        /* \"#utility.yul\":6550:6556   */\n      dup3\n        /* \"#utility.yul\":6543:6548   */\n      dup2\n        /* \"#utility.yul\":6536:6557   */\n      mstore\n        /* \"#utility.yul\":6588:6592   */\n      0x20\n        /* \"#utility.yul\":6581:6586   */\n      dup2\n        /* \"#utility.yul\":6577:6593   */\n      add\n        /* \"#utility.yul\":6626:6629   */\n      dup5\n        /* \"#utility.yul\":6617:6623   */\n      dup5\n        /* \"#utility.yul\":6612:6615   */\n      dup5\n        /* \"#utility.yul\":6608:6624   */\n      add\n        /* \"#utility.yul\":6605:6630   */\n      gt\n        /* \"#utility.yul\":6602:6714   */\n      iszero\n      tag_452\n      jumpi\n        /* \"#utility.yul\":6633:6712   */\n      tag_453\n      tag_349\n      jump\t// in\n    tag_453:\n        /* \"#utility.yul\":6602:6714   */\n    tag_452:\n        /* \"#utility.yul\":6723:6764   */\n      tag_454\n        /* \"#utility.yul\":6757:6763   */\n      dup5\n        /* \"#utility.yul\":6752:6755   */\n      dup3\n        /* \"#utility.yul\":6747:6750   */\n      dup6\n        /* \"#utility.yul\":6723:6764   */\n      tag_354\n      jump\t// in\n    tag_454:\n        /* \"#utility.yul\":6442:6770   */\n      pop\n        /* \"#utility.yul\":6358:6770   */\n      swap4\n      swap3\n      pop\n      pop\n      pop\n      jump\t// out\n        /* \"#utility.yul\":6790:7130   */\n    tag_356:\n        /* \"#utility.yul\":6846:6851   */\n      0x00\n        /* \"#utility.yul\":6895:6898   */\n      dup3\n        /* \"#utility.yul\":6888:6892   */\n      0x1f\n        /* \"#utility.yul\":6880:6886   */\n      dup4\n        /* \"#utility.yul\":6876:6893   */\n      add\n        /* \"#utility.yul\":6872:6899   */\n      slt\n        /* \"#utility.yul\":6862:6984   */\n      tag_456\n      jumpi\n        /* \"#utility.yul\":6903:6982   */\n      tag_457\n      tag_348\n      jump\t// in\n    tag_457:\n        /* \"#utility.yul\":6862:6984   */\n    tag_456:\n        /* \"#utility.yul\":7020:7026   */\n      dup2\n        /* \"#utility.yul\":7007:7027   */\n      calldataload\n        /* \"#utility.yul\":7045:7124   */\n      tag_458\n        /* \"#utility.yul\":7120:7123   */\n      dup5\n        /* \"#utility.yul\":7112:7118   */\n      dup3\n        /* \"#utility.yul\":7105:7109   */\n      0x20\n        /* \"#utility.yul\":7097:7103   */\n      dup7\n        /* \"#utility.yul\":7093:7110   */\n      add\n        /* \"#utility.yul\":7045:7124   */\n      tag_355\n      jump\t// in\n    tag_458:\n        /* \"#utility.yul\":7036:7124   */\n      swap2\n      pop\n        /* \"#utility.yul\":6852:7130   */\n      pop\n        /* \"#utility.yul\":6790:7130   */\n      swap3\n      swap2\n      pop\n      pop\n      jump\t// out\n        /* \"#utility.yul\":7136:7935   */\n    tag_53:\n        /* \"#utility.yul\":7223:7229   */\n      0x00\n        /* \"#utility.yul\":7231:7237   */\n      dup1\n        /* \"#utility.yul\":7239:7245   */\n      0x00\n        /* \"#utility.yul\":7288:7290   */\n      0x60\n        /* \"#utility.yul\":7276:7285   */\n      dup5\n        /* \"#utility.yul\":7267:7274   */\n      dup7\n        /* \"#utility.yul\":7263:7286   */\n      sub\n        /* \"#utility.yul\":7259:7291   */\n      slt\n        /* \"#utility.yul\":7256:7375   */\n      iszero\n      tag_460\n      jumpi\n        /* \"#utility.yul\":7294:7373   */\n      tag_461\n      tag_333\n      jump\t// in\n    tag_461:\n        /* \"#utility.yul\":7256:7375   */\n    tag_460:\n        /* \"#utility.yul\":7414:7415   */\n      0x00\n        /* \"#utility.yul\":7439:7492   */\n      tag_462\n        /* \"#utility.yul\":7484:7491   */\n      dup7\n        /* \"#utility.yul\":7475:7481   */\n      dup3\n        /* \"#utility.yul\":7464:7473   */\n      dup8\n        /* \"#utility.yul\":7460:7482   */\n      add\n        /* \"#utility.yul\":7439:7492   */\n      tag_337\n      jump\t// in\n    tag_462:\n        /* \"#utility.yul\":7429:7492   */\n      swap4\n      pop\n        /* \"#utility.yul\":7385:7502   */\n      pop\n        /* \"#utility.yul\":7541:7543   */\n      0x20\n        /* \"#utility.yul\":7567:7620   */\n      tag_463\n        /* \"#utility.yul\":7612:7619   */\n      dup7\n        /* \"#utility.yul\":7603:7609   */\n      dup3\n        /* \"#utility.yul\":7592:7601   */\n      dup8\n        /* \"#utility.yul\":7588:7610   */\n      add\n        /* \"#utility.yul\":7567:7620   */\n      tag_337\n      jump\t// in\n    tag_463:\n        /* \"#utility.yul\":7557:7620   */\n      swap3\n      pop\n        /* \"#utility.yul\":7512:7630   */\n      pop\n        /* \"#utility.yul\":7697:7699   */\n      0x40\n        /* \"#utility.yul\":7686:7695   */\n      dup5\n        /* \"#utility.yul\":7682:7700   */\n      add\n        /* \"#utility.yul\":7669:7701   */\n      calldataload\n        /* \"#utility.yul\":7728:7746   */\n      0xffffffffffffffff\n        /* \"#utility.yul\":7720:7726   */\n      dup2\n        /* \"#utility.yul\":7717:7747   */\n      gt\n        /* \"#utility.yul\":7714:7831   */\n      iszero\n      tag_464\n      jumpi\n        /* \"#utility.yul\":7750:7829   */\n      tag_465\n      tag_334\n      jump\t// in\n    tag_465:\n        /* \"#utility.yul\":7714:7831   */\n    tag_464:\n        /* \"#utility.yul\":7855:7918   */\n      tag_466\n        /* \"#utility.yul\":7910:7917   */\n      dup7\n        /* \"#utility.yul\":7901:7907   */\n      dup3\n        /* \"#utility.yul\":7890:7899   */\n      dup8\n        /* \"#utility.yul\":7886:7908   */\n      add\n        /* \"#utility.yul\":7855:7918   */\n      tag_356\n      jump\t// in\n    tag_466:\n        /* \"#utility.yul\":7845:7918   */\n      swap2\n      pop\n        /* \"#utility.yul\":7640:7928   */\n      pop\n        /* \"#utility.yul\":7136:7935   */\n      swap3\n      pop\n      swap3\n      pop\n      swap3\n      jump\t// out\n        /* \"#utility.yul\":7941:8067   */\n    tag_357:\n        /* \"#utility.yul\":7978:7985   */\n      0x00\n        /* \"#utility.yul\":8018:8060   */\n      0xffffffffffffffffffffffffffffffffffffffff\n        /* \"#utility.yul\":8011:8016   */\n      dup3\n        /* \"#utility.yul\":8007:8061   */\n      and\n        /* \"#utility.yul\":7996:8061   */\n      swap1\n      pop\n        /* \"#utility.yul\":7941:8067   */\n      swap2\n      swap1\n      pop\n      jump\t// out\n        /* \"#utility.yul\":8073:8169   */\n    tag_358:\n        /* \"#utility.yul\":8110:8117   */\n      0x00\n        /* \"#utility.yul\":8139:8163   */\n      tag_469\n        /* \"#utility.yul\":8157:8162   */\n      dup3\n        /* \"#utility.yul\":8139:8163   */\n      tag_357\n      jump\t// in\n    tag_469:\n        /* \"#utility.yul\":8128:8163   */\n      swap1\n      pop\n        /* \"#utility.yul\":8073:8169   */\n      swap2\n      swap1\n      pop\n      jump\t// out\n        /* \"#utility.yul\":8175:8297   */\n    tag_359:\n        /* \"#utility.yul\":8248:8272   */\n      tag_471\n        /* \"#utility.yul\":8266:8271   */\n      dup2\n        /* \"#utility.yul\":8248:8272   */\n      tag_358\n      jump\t// in\n    tag_471:\n        /* \"#utility.yul\":8241:8246   */\n      dup2\n        /* \"#utility.yul\":8238:8273   */\n      eq\n        /* \"#utility.yul\":8228:8291   */\n      tag_472\n      jumpi\n        /* \"#utility.yul\":8287:8288   */\n      0x00\n        /* \"#utility.yul\":8284:8285   */\n      dup1\n        /* \"#utility.yul\":8277:8289   */\n      revert\n        /* \"#utility.yul\":8228:8291   */\n    tag_472:\n        /* \"#utility.yul\":8175:8297   */\n      pop\n      jump\t// out\n        /* \"#utility.yul\":8303:8442   */\n    tag_360:\n        /* \"#utility.yul\":8349:8354   */\n      0x00\n        /* \"#utility.yul\":8387:8393   */\n      dup2\n        /* \"#utility.yul\":8374:8394   */\n      calldataload\n        /* \"#utility.yul\":8365:8394   */\n      swap1\n      pop\n        /* \"#utility.yul\":8403:8436   */\n      tag_474\n        /* \"#utility.yul\":8430:8435   */\n      dup2\n        /* \"#utility.yul\":8403:8436   */\n      tag_359\n      jump\t// in\n    tag_474:\n        /* \"#utility.yul\":8303:8442   */\n      swap3\n      swap2\n      pop\n      pop\n      jump\t// out\n        /* \"#utility.yul\":8448:8777   */\n    tag_64:\n        /* \"#utility.yul\":8507:8513   */\n      0x00\n        /* \"#utility.yul\":8556:8558   */\n      0x20\n        /* \"#utility.yul\":8544:8553   */\n      dup3\n        /* \"#utility.yul\":8535:8542   */\n      dup5\n        /* \"#utility.yul\":8531:8554   */\n      sub\n        /* \"#utility.yul\":8527:8559   */\n      slt\n        /* \"#utility.yul\":8524:8643   */\n      iszero\n      tag_476\n      jumpi\n        /* \"#utility.yul\":8562:8641   */\n      tag_477\n      tag_333\n      jump\t// in\n    tag_477:\n        /* \"#utility.yul\":8524:8643   */\n    tag_476:\n        /* \"#utility.yul\":8682:8683   */\n      0x00\n        /* \"#utility.yul\":8707:8760   */\n      tag_478\n        /* \"#utility.yul\":8752:8759   */\n      dup5\n        /* \"#utility.yul\":8743:8749   */\n      dup3\n        /* \"#utility.yul\":8732:8741   */\n      dup6\n        /* \"#utility.yul\":8728:8750   */\n      add\n        /* \"#utility.yul\":8707:8760   */\n      tag_360\n      jump\t// in\n    tag_478:\n        /* \"#utility.yul\":8697:8760   */\n      swap2\n      pop\n        /* \"#utility.yul\":8653:8770   */\n      pop\n        /* \"#utility.yul\":8448:8777   */\n      swap3\n      swap2\n      pop\n      pop\n      jump\t// out\n        /* \"#utility.yul\":8783:8963   */\n    tag_361:\n        /* \"#utility.yul\":8831:8908   */\n      0x4e487b7100000000000000000000000000000000000000000000000000000000\n        /* \"#utility.yul\":8828:8829   */\n      0x00\n        /* \"#utility.yul\":8821:8909   */\n      mstore\n        /* \"#utility.yul\":8928:8932   */\n      0x11\n        /* \"#utility.yul\":8925:8926   */\n      0x04\n        /* \"#utility.yul\":8918:8933   */\n      mstore\n        /* \"#utility.yul\":8952:8956   */\n      0x24\n        /* \"#utility.yul\":8949:8950   */\n      0x00\n        /* \"#utility.yul\":8942:8957   */\n      revert\n        /* \"#utility.yul\":8969:9274   */\n    tag_114:\n        /* \"#utility.yul\":9009:9012   */\n      0x00\n        /* \"#utility.yul\":9028:9048   */\n      tag_481\n        /* \"#utility.yul\":9046:9047   */\n      dup3\n        /* \"#utility.yul\":9028:9048   */\n      tag_335\n      jump\t// in\n    tag_481:\n        /* \"#utility.yul\":9023:9048   */\n      swap2\n      pop\n        /* \"#utility.yul\":9062:9082   */\n      tag_482\n        /* \"#utility.yul\":9080:9081   */\n      dup4\n        /* \"#utility.yul\":9062:9082   */\n      tag_335\n      jump\t// in\n    tag_482:\n        /* \"#utility.yul\":9057:9082   */\n      swap3\n      pop\n        /* \"#utility.yul\":9216:9217   */\n      dup3\n        /* \"#utility.yul\":9148:9214   */\n      0xffffffffffffffffffffffffffffffffffffffffffffffffffffffffffffffff\n        /* \"#utility.yul\":9144:9218   */\n      sub\n        /* \"#utility.yul\":9141:9142   */\n      dup3\n        /* \"#utility.yul\":9138:9219   */\n      gt\n        /* \"#utility.yul\":9135:9242   */\n      iszero\n      tag_483\n      jumpi\n        /* \"#utility.yul\":9222:9240   */\n      tag_484\n      tag_361\n      jump\t// in\n    tag_484:\n        /* \"#utility.yul\":9135:9242   */\n    tag_483:\n        /* \"#utility.yul\":9266:9267   */\n      dup3\n        /* \"#utility.yul\":9263:9264   */\n      dup3\n        /* \"#utility.yul\":9259:9268   */\n      add\n        /* \"#utility.yul\":9252:9268   */\n      swap1\n      pop\n        /* \"#utility.yul\":8969:9274   */\n      swap3\n      swap2\n      pop\n      pop\n      jump\t// out\n        /* \"#utility.yul\":9280:9833   */\n    tag_118:\n        /* \"#utility.yul\":9457:9461   */\n      0x00\n        /* \"#utility.yul\":9495:9498   */\n      0x80\n        /* \"#utility.yul\":9484:9493   */\n      dup3\n        /* \"#utility.yul\":9480:9499   */\n      add\n        /* \"#utility.yul\":9472:9499   */\n      swap1\n      pop\n        /* \"#utility.yul\":9509:9580   */\n      tag_486\n        /* \"#utility.yul\":9577:9578   */\n      0x00\n        /* \"#utility.yul\":9566:9575   */\n      dup4\n        /* \"#utility.yul\":9562:9579   */\n      add\n        /* \"#utility.yul\":9553:9559   */\n      dup8\n        /* \"#utility.yul\":9509:9580   */\n      tag_340\n      jump\t// in\n    tag_486:\n        /* \"#utility.yul\":9590:9662   */\n      tag_487\n        /* \"#utility.yul\":9658:9660   */\n      0x20\n        /* \"#utility.yul\":9647:9656   */\n      dup4\n        /* \"#utility.yul\":9643:9661   */\n      add\n        /* \"#utility.yul\":9634:9640   */\n      dup7\n        /* \"#utility.yul\":9590:9662   */\n      tag_340\n      jump\t// in\n    tag_487:\n        /* \"#utility.yul\":9672:9744   */\n      tag_488\n        /* \"#utility.yul\":9740:9742   */\n      0x40\n        /* \"#utility.yul\":9729:9738   */\n      dup4\n        /* \"#utility.yul\":9725:9743   */\n      add\n        /* \"#utility.yul\":9716:9722   */\n      dup6\n        /* \"#utility.yul\":9672:9744   */\n      tag_340\n      jump\t// in\n    tag_488:\n        /* \"#utility.yul\":9754:9826   */\n      tag_489\n        /* \"#utility.yul\":9822:9824   */\n      0x60\n        /* \"#utility.yul\":9811:9820   */\n      dup4\n        /* \"#utility.yul\":9807:9825   */\n      add\n        /* \"#utility.yul\":9798:9804   */\n      dup5\n        /* \"#utility.yul\":9754:9826   */\n      tag_340\n      jump\t// in\n    tag_489:\n        /* \"#utility.yul\":9280:9833   */\n      swap6\n      swap5\n      pop\n      pop\n      pop\n      pop\n      pop\n      jump\t// out\n        /* \"#utility.yul\":9839:9957   */\n    tag_362:\n        /* \"#utility.yul\":9926:9950   */\n      tag_491\n        /* \"#utility.yul\":9944:9949   */\n      dup2\n        /* \"#utility.yul\":9926:9950   */\n      tag_358\n      jump\t// in\n    tag_491:\n        /* \"#utility.yul\":9921:9924   */\n      dup3\n        /* \"#utility.yul\":9914:9951   */\n      mstore\n        /* \"#utility.yul\":9839:9957   */\n      pop\n      pop\n      jump\t// out\n        /* \"#utility.yul\":9963:10295   */\n    tag_121:\n        /* \"#utility.yul\":10084:10088   */\n      0x00\n        /* \"#utility.yul\":10122:10124   */\n      0x40\n        /* \"#utility.yul\":10111:10120   */\n      dup3\n        /* \"#utility.yul\":10107:10125   */\n      add\n        /* \"#utility.yul\":10099:10125   */\n      swap1\n      pop\n        /* \"#utility.yul\":10135:10206   */\n      tag_493\n        /* \"#utility.yul\":10203:10204   */\n      0x00\n        /* \"#utility.yul\":10192:10201   */\n      dup4\n        /* \"#utility.yul\":10188:10205   */\n      add\n        /* \"#utility.yul\":10179:10185   */\n      dup6\n        /* \"#utility.yul\":10135:10206   */\n      tag_362\n      jump\t// in\n    tag_493:\n        /* \"#utility.yul\":10216:10288   */\n      tag_494\n        /* \"#utility.yul\":10284:10286   */\n      0x20\n        /* \"#utility.yul\":10273:10282   */\n      dup4\n        /* \"#utility.yul\":10269:10287   */\n      add\n        /* \"#utility.yul\":10260:10266   */\n      dup5\n        /* \"#utility.yul\":10216:10288   */\n      tag_340\n      jump\t// in\n    tag_494:\n        /* \"#utility.yul\":9963:10295   */\n      swap4\n      swap3\n      pop\n      pop\n      pop\n      jump\t// out\n        /* \"#utility.yul\":10301:10444   */\n    tag_363:\n        /* \"#utility.yul\":10358:10363   */\n      0x00\n        /* \"#utility.yul\":10389:10395   */\n      dup2\n        /* \"#utility.yul\":10383:10396   */\n      mload\n        /* \"#utility.yul\":10374:10396   */\n      swap1\n      pop\n        /* \"#utility.yul\":10405:10438   */\n      tag_496\n        /* \"#utility.yul\":10432:10437   */\n      dup2\n        /* \"#utility.yul\":10405:10438   */\n      tag_336\n      jump\t// in\n    tag_496:\n        /* \"#utility.yul\":10301:10444   */\n      swap3\n      swap2\n      pop\n      pop\n      jump\t// out\n        /* \"#utility.yul\":10450:10801   */\n    tag_129:\n        /* \"#utility.yul\":10520:10526   */\n      0x00\n        /* \"#utility.yul\":10569:10571   */\n      0x20\n        /* \"#utility.yul\":10557:10566   */\n      dup3\n        /* \"#utility.yul\":10548:10555   */\n      dup5\n        /* \"#utility.yul\":10544:10567   */\n      sub\n        /* \"#utility.yul\":10540:10572   */\n      slt\n        /* \"#utility.yul\":10537:10656   */\n      iszero\n      tag_498\n      jumpi\n        /* \"#utility.yul\":10575:10654   */\n      tag_499\n      tag_333\n      jump\t// in\n    tag_499:\n        /* \"#utility.yul\":10537:10656   */\n    tag_498:\n        /* \"#utility.yul\":10695:10696   */\n      0x00\n        /* \"#utility.yul\":10720:10784   */\n      tag_500\n        /* \"#utility.yul\":10776:10783   */\n      dup5\n        /* \"#utility.yul\":10767:10773   */\n      dup3\n        /* \"#utility.yul\":10756:10765   */\n      dup6\n        /* \"#utility.yul\":10752:10774   */\n      add\n        /* \"#utility.yul\":10720:10784   */\n      tag_363\n      jump\t// in\n    tag_500:\n        /* \"#utility.yul\":10710:10784   */\n      swap2\n      pop\n        /* \"#utility.yul\":10666:10794   */\n      pop\n        /* \"#utility.yul\":10450:10801   */\n      swap3\n      swap2\n      pop\n      pop\n      jump\t// out\n        /* \"#utility.yul\":10807:10950   */\n    tag_364:\n        /* \"#utility.yul\":10864:10869   */\n      0x00\n        /* \"#utility.yul\":10895:10901   */\n      dup2\n        /* \"#utility.yul\":10889:10902   */\n      mload\n        /* \"#utility.yul\":10880:10902   */\n      swap1\n      pop\n        /* \"#utility.yul\":10911:10944   */\n      tag_502\n        /* \"#utility.yul\":10938:10943   */\n      dup2\n        /* \"#utility.yul\":10911:10944   */\n      tag_359\n      jump\t// in\n    tag_502:\n        /* \"#utility.yul\":10807:10950   */\n      swap3\n      swap2\n      pop\n      pop\n      jump\t// out\n        /* \"#utility.yul\":10956:11307   */\n    tag_137:\n        /* \"#utility.yul\":11026:11032   */\n      0x00\n        /* \"#utility.yul\":11075:11077   */\n      0x20\n        /* \"#utility.yul\":11063:11072   */\n      dup3\n        /* \"#utility.yul\":11054:11061   */\n      dup5\n        /* \"#utility.yul\":11050:11073   */\n      sub\n        /* \"#utility.yul\":11046:11078   */\n      slt\n        /* \"#utility.yul\":11043:11162   */\n      iszero\n      tag_504\n      jumpi\n        /* \"#utility.yul\":11081:11160   */\n      tag_505\n      tag_333\n      jump\t// in\n    tag_505:\n        /* \"#utility.yul\":11043:11162   */\n    tag_504:\n        /* \"#utility.yul\":11201:11202   */\n      0x00\n        /* \"#utility.yul\":11226:11290   */\n      tag_506\n        /* \"#utility.yul\":11282:11289   */\n      dup5\n        /* \"#utility.yul\":11273:11279   */\n      dup3\n        /* \"#utility.yul\":11262:11271   */\n      dup6\n        /* \"#utility.yul\":11258:11280   */\n      add\n        /* \"#utility.yul\":11226:11290   */\n      tag_364\n      jump\t// in\n    tag_506:\n        /* \"#utility.yul\":11216:11290   */\n      swap2\n      pop\n        /* \"#utility.yul\":11172:11300   */\n      pop\n        /* \"#utility.yul\":10956:11307   */\n      swap3\n      swap2\n      pop\n      pop\n      jump\t// out\n        /* \"#utility.yul\":11313:11504   */\n    tag_153:\n        /* \"#utility.yul\":11353:11357   */\n      0x00\n        /* \"#utility.yul\":11373:11393   */\n      tag_508\n        /* \"#utility.yul\":11391:11392   */\n      dup3\n        /* \"#utility.yul\":11373:11393   */\n      tag_335\n      jump\t// in\n    tag_508:\n        /* \"#utility.yul\":11368:11393   */\n      swap2\n      pop\n        /* \"#utility.yul\":11407:11427   */\n      tag_509\n        /* \"#utility.yul\":11425:11426   */\n      dup4\n        /* \"#utility.yul\":11407:11427   */\n      tag_335\n      jump\t// in\n    tag_509:\n        /* \"#utility.yul\":11402:11427   */\n      swap3\n      pop\n        /* \"#utility.yul\":11446:11447   */\n      dup3\n        /* \"#utility.yul\":11443:11444   */\n      dup3\n        /* \"#utility.yul\":11440:11448   */\n      lt\n        /* \"#utility.yul\":11437:11471   */\n      iszero\n      tag_510\n      jumpi\n        /* \"#utility.yul\":11451:11469   */\n      tag_511\n      tag_361\n      jump\t// in\n    tag_511:\n        /* \"#utility.yul\":11437:11471   */\n    tag_510:\n        /* \"#utility.yul\":11496:11497   */\n      dup3\n        /* \"#utility.yul\":11493:11494   */\n      dup3\n        /* \"#utility.yul\":11489:11498   */\n      sub\n        /* \"#utility.yul\":11481:11498   */\n      swap1\n      pop\n        /* \"#utility.yul\":11313:11504   */\n      swap3\n      swap2\n      pop\n      pop\n      jump\t// out\n        /* \"#utility.yul\":11510:11612   */\n    tag_365:\n        /* \"#utility.yul\":11552:11560   */\n      0x00\n        /* \"#utility.yul\":11599:11604   */\n      dup2\n        /* \"#utility.yul\":11596:11597   */\n      0x01\n        /* \"#utility.yul\":11592:11605   */\n      shr\n        /* \"#utility.yul\":11571:11605   */\n      swap1\n      pop\n        /* \"#utility.yul\":11510:11612   */\n      swap2\n      swap1\n      pop\n      jump\t// out\n        /* \"#utility.yul\":11618:12466   */\n    tag_366:\n        /* \"#utility.yul\":11679:11684   */\n      0x00\n        /* \"#utility.yul\":11686:11690   */\n      dup1\n        /* \"#utility.yul\":11710:11716   */\n      dup3\n        /* \"#utility.yul\":11701:11716   */\n      swap2\n      pop\n        /* \"#utility.yul\":11734:11739   */\n      dup4\n        /* \"#utility.yul\":11725:11739   */\n      swap1\n      pop\n        /* \"#utility.yul\":11748:12460   */\n    tag_514:\n        /* \"#utility.yul\":11769:11770   */\n      0x01\n        /* \"#utility.yul\":11759:11767   */\n      dup6\n        /* \"#utility.yul\":11756:11771   */\n      gt\n        /* \"#utility.yul\":11748:12460   */\n      iszero\n      tag_516\n      jumpi\n        /* \"#utility.yul\":11864:11868   */\n      dup1\n        /* \"#utility.yul\":11859:11862   */\n      dup7\n        /* \"#utility.yul\":11855:11869   */\n      div\n        /* \"#utility.yul\":11849:11853   */\n      dup2\n        /* \"#utility.yul\":11846:11870   */\n      gt\n        /* \"#utility.yul\":11843:11893   */\n      iszero\n      tag_517\n      jumpi\n        /* \"#utility.yul\":11873:11891   */\n      tag_518\n      tag_361\n      jump\t// in\n    tag_518:\n        /* \"#utility.yul\":11843:11893   */\n    tag_517:\n        /* \"#utility.yul\":11923:11924   */\n      0x01\n        /* \"#utility.yul\":11913:11921   */\n      dup6\n        /* \"#utility.yul\":11909:11925   */\n      and\n        /* \"#utility.yul\":11906:12357   */\n      iszero\n      tag_519\n      jumpi\n        /* \"#utility.yul\":12338:12342   */\n      dup1\n        /* \"#utility.yul\":12331:12336   */\n      dup3\n        /* \"#utility.yul\":12327:12343   */\n      mul\n        /* \"#utility.yul\":12318:12343   */\n      swap2\n      pop\n        /* \"#utility.yul\":11906:12357   */\n    tag_519:\n        /* \"#utility.yul\":12388:12392   */\n      dup1\n        /* \"#utility.yul\":12382:12386   */\n      dup2\n        /* \"#utility.yul\":12378:12393   */\n      mul\n        /* \"#utility.yul\":12370:12393   */\n      swap1\n      pop\n        /* \"#utility.yul\":12418:12450   */\n      tag_520\n        /* \"#utility.yul\":12441:12449   */\n      dup6\n        /* \"#utility.yul\":12418:12450   */\n      tag_365\n      jump\t// in\n    tag_520:\n        /* \"#utility.yul\":12406:12450   */\n      swap5\n      pop\n        /* \"#utility.yul\":11748:12460   */\n      jump(tag_514)\n    tag_516:\n        /* \"#utility.yul\":11618:12466   */\n      swap5\n      pop\n      swap5\n      swap3\n      pop\n      pop\n      pop\n      jump\t// out\n        /* \"#utility.yul\":12472:13545   */\n    tag_367:\n        /* \"#utility.yul\":12526:12531   */\n      0x00\n        /* \"#utility.yul\":12717:12725   */\n      dup3\n        /* \"#utility.yul\":12707:12747   */\n      tag_522\n      jumpi\n        /* \"#utility.yul\":12738:12739   */\n      0x01\n        /* \"#utility.yul\":12729:12739   */\n      swap1\n      pop\n        /* \"#utility.yul\":12740:12745   */\n      jump(tag_521)\n        /* \"#utility.yul\":12707:12747   */\n    tag_522:\n        /* \"#utility.yul\":12766:12770   */\n      dup2\n        /* \"#utility.yul\":12756:12792   */\n      tag_523\n      jumpi\n        /* \"#utility.yul\":12783:12784   */\n      0x00\n        /* \"#utility.yul\":12774:12784   */\n      swap1\n      pop\n        /* \"#utility.yul\":12785:12790   */\n      jump(tag_521)\n        /* \"#utility.yul\":12756:12792   */\n    tag_523:\n        /* \"#utility.yul\":12852:12856   */\n      dup2\n        /* \"#utility.yul\":12900:12901   */\n      0x01\n        /* \"#utility.yul\":12895:12922   */\n      dup2\n      eq\n      tag_525\n      jumpi\n        /* \"#utility.yul\":12936:12937   */\n      0x02\n        /* \"#utility.yul\":12931:13122   */\n      dup2\n      eq\n      tag_526\n      jumpi\n        /* \"#utility.yul\":12845:13122   */\n      jump(tag_524)\n        /* \"#utility.yul\":12895:12922   */\n    tag_525:\n        /* \"#utility.yul\":12913:12914   */\n      0x01\n        /* \"#utility.yul\":12904:12914   */\n      swap2\n      pop\n        /* \"#utility.yul\":12915:12920   */\n      pop\n      jump(tag_521)\n        /* \"#utility.yul\":12931:13122   */\n    tag_526:\n        /* \"#utility.yul\":12976:12979   */\n      0xff\n        /* \"#utility.yul\":12966:12974   */\n      dup5\n        /* \"#utility.yul\":12963:12980   */\n      gt\n        /* \"#utility.yul\":12960:13003   */\n      iszero\n      tag_527\n      jumpi\n        /* \"#utility.yul\":12983:13001   */\n      tag_528\n      tag_361\n      jump\t// in\n    tag_528:\n        /* \"#utility.yul\":12960:13003   */\n    tag_527:\n        /* \"#utility.yul\":13032:13040   */\n      dup4\n        /* \"#utility.yul\":13029:13030   */\n      0x02\n        /* \"#utility.yul\":13025:13041   */\n      exp\n        /* \"#utility.yul\":13016:13041   */\n      swap2\n      pop\n        /* \"#utility.yul\":13067:13070   */\n      dup5\n        /* \"#utility.yul\":13060:13065   */\n      dup3\n        /* \"#utility.yul\":13057:13071   */\n      gt\n        /* \"#utility.yul\":13054:13094   */\n      iszero\n      tag_529\n      jumpi\n        /* \"#utility.yul\":13074:13092   */\n      tag_530\n      tag_361\n      jump\t// in\n    tag_530:\n        /* \"#utility.yul\":13054:13094   */\n    tag_529:\n        /* \"#utility.yul\":13107:13112   */\n      pop\n      jump(tag_521)\n        /* \"#utility.yul\":12845:13122   */\n    tag_524:\n      pop\n        /* \"#utility.yul\":13231:13233   */\n      0x20\n        /* \"#utility.yul\":13221:13229   */\n      dup4\n        /* \"#utility.yul\":13218:13234   */\n      lt\n        /* \"#utility.yul\":13212:13215   */\n      0x0133\n        /* \"#utility.yul\":13206:13210   */\n      dup4\n        /* \"#utility.yul\":13203:13216   */\n      lt\n        /* \"#utility.yul\":13199:13235   */\n      and\n        /* \"#utility.yul\":13181:13183   */\n      0x4e\n        /* \"#utility.yul\":13171:13179   */\n      dup5\n        /* \"#utility.yul\":13168:13184   */\n      lt\n        /* \"#utility.yul\":13163:13165   */\n      0x0b\n        /* \"#utility.yul\":13157:13161   */\n      dup5\n        /* \"#utility.yul\":13154:13166   */\n      lt\n        /* \"#utility.yul\":13150:13185   */\n      and\n        /* \"#utility.yul\":13134:13245   */\n      or\n        /* \"#utility.yul\":13131:13377   */\n      iszero\n      tag_531\n      jumpi\n        /* \"#utility.yul\":13287:13295   */\n      dup3\n        /* \"#utility.yul\":13281:13285   */\n      dup3\n        /* \"#utility.yul\":13277:13296   */\n      exp\n        /* \"#utility.yul\":13268:13296   */\n      swap1\n      pop\n        /* \"#utility.yul\":13322:13325   */\n      dup4\n        /* \"#utility.yul\":13315:13320   */\n      dup2\n        /* \"#utility.yul\":13312:13326   */\n      gt\n        /* \"#utility.yul\":13309:13349   */\n      iszero\n      tag_532\n      jumpi\n        /* \"#utility.yul\":13329:13347   */\n      tag_533\n      tag_361\n      jump\t// in\n    tag_533:\n        /* \"#utility.yul\":13309:13349   */\n    tag_532:\n        /* \"#utility.yul\":13362:13367   */\n      jump(tag_521)\n        /* \"#utility.yul\":13131:13377   */\n    tag_531:\n        /* \"#utility.yul\":13402:13444   */\n      tag_534\n        /* \"#utility.yul\":13440:13443   */\n      dup5\n        /* \"#utility.yul\":13430:13438   */\n      dup5\n        /* \"#utility.yul\":13424:13428   */\n      dup5\n        /* \"#utility.yul\":13421:13422   */\n      0x01\n        /* \"#utility.yul\":13402:13444   */\n      tag_366\n      jump\t// in\n    tag_534:\n        /* \"#utility.yul\":13387:13444   */\n      swap3\n      pop\n      swap1\n      pop\n        /* \"#utility.yul\":13476:13480   */\n      dup2\n        /* \"#utility.yul\":13471:13474   */\n      dup5\n        /* \"#utility.yul\":13467:13481   */\n      div\n        /* \"#utility.yul\":13460:13465   */\n      dup2\n        /* \"#utility.yul\":13457:13482   */\n      gt\n        /* \"#utility.yul\":13454:13505   */\n      iszero\n      tag_535\n      jumpi\n        /* \"#utility.yul\":13485:13503   */\n      tag_536\n      tag_361\n      jump\t// in\n    tag_536:\n        /* \"#utility.yul\":13454:13505   */\n    tag_535:\n        /* \"#utility.yul\":13534:13538   */\n      dup2\n        /* \"#utility.yul\":13527:13532   */\n      dup2\n        /* \"#utility.yul\":13523:13539   */\n      mul\n        /* \"#utility.yul\":13514:13539   */\n      swap1\n      pop\n        /* \"#utility.yul\":12472:13545   */\n    tag_521:\n      swap4\n      swap3\n      pop\n      pop\n      pop\n      jump\t// out\n        /* \"#utility.yul\":13551:13637   */\n    tag_368:\n        /* \"#utility.yul\":13586:13593   */\n      0x00\n        /* \"#utility.yul\":13626:13630   */\n      0xff\n        /* \"#utility.yul\":13619:13624   */\n      dup3\n        /* \"#utility.yul\":13615:13631   */\n      and\n        /* \"#utility.yul\":13604:13631   */\n      swap1\n      pop\n        /* \"#utility.yul\":13551:13637   */\n      swap2\n      swap1\n      pop\n      jump\t// out\n        /* \"#utility.yul\":13643:13924   */\n    tag_159:\n        /* \"#utility.yul\":13701:13706   */\n      0x00\n        /* \"#utility.yul\":13725:13748   */\n      tag_539\n        /* \"#utility.yul\":13743:13747   */\n      dup3\n        /* \"#utility.yul\":13725:13748   */\n      tag_335\n      jump\t// in\n    tag_539:\n        /* \"#utility.yul\":13717:13748   */\n      swap2\n      pop\n        /* \"#utility.yul\":13769:13794   */\n      tag_540\n        /* \"#utility.yul\":13785:13793   */\n      dup4\n        /* \"#utility.yul\":13769:13794   */\n      tag_368\n      jump\t// in\n    tag_540:\n        /* \"#utility.yul\":13757:13794   */\n      swap3\n      pop\n        /* \"#utility.yul\":13813:13917   */\n      tag_541\n        /* \"#utility.yul\":13850:13916   */\n      0xffffffffffffffffffffffffffffffffffffffffffffffffffffffffffffffff\n        /* \"#utility.yul\":13840:13848   */\n      dup5\n        /* \"#utility.yul\":13834:13838   */\n      dup5\n        /* \"#utility.yul\":13813:13917   */\n      tag_367\n      jump\t// in\n    tag_541:\n        /* \"#utility.yul\":13804:13917   */\n      swap1\n      pop\n        /* \"#utility.yul\":13643:13924   */\n      swap3\n      swap2\n      pop\n      pop\n      jump\t// out\n        /* \"#utility.yul\":13930:14152   */\n    tag_161:\n        /* \"#utility.yul\":14023:14027   */\n      0x00\n        /* \"#utility.yul\":14061:14063   */\n      0x20\n        /* \"#utility.yul\":14050:14059   */\n      dup3\n        /* \"#utility.yul\":14046:14064   */\n      add\n        /* \"#utility.yul\":14038:14064   */\n      swap1\n      pop\n        /* \"#utility.yul\":14074:14145   */\n      tag_543\n        /* \"#utility.yul\":14142:14143   */\n      0x00\n        /* \"#utility.yul\":14131:14140   */\n      dup4\n        /* \"#utility.yul\":14127:14144   */\n      add\n        /* \"#utility.yul\":14118:14124   */\n      dup5\n        /* \"#utility.yul\":14074:14145   */\n      tag_362\n      jump\t// in\n    tag_543:\n        /* \"#utility.yul\":13930:14152   */\n      swap3\n      swap2\n      pop\n      pop\n      jump\t// out\n        /* \"#utility.yul\":14158:14274   */\n    tag_369:\n        /* \"#utility.yul\":14228:14249   */\n      tag_545\n        /* \"#utility.yul\":14243:14248   */\n      dup2\n        /* \"#utility.yul\":14228:14249   */\n      tag_338\n      jump\t// in\n    tag_545:\n        /* \"#utility.yul\":14221:14226   */\n      dup2\n        /* \"#utility.yul\":14218:14250   */\n      eq\n        /* \"#utility.yul\":14208:14268   */\n      tag_546\n      jumpi\n        /* \"#utility.yul\":14264:14265   */\n      0x00\n        /* \"#utility.yul\":14261:14262   */\n      dup1\n        /* \"#utility.yul\":14254:14266   */\n      revert\n        /* \"#utility.yul\":14208:14268   */\n    tag_546:\n        /* \"#utility.yul\":14158:14274   */\n      pop\n      jump\t// out\n        /* \"#utility.yul\":14280:14417   */\n    tag_370:\n        /* \"#utility.yul\":14334:14339   */\n      0x00\n        /* \"#utility.yul\":14365:14371   */\n      dup2\n        /* \"#utility.yul\":14359:14372   */\n      mload\n        /* \"#utility.yul\":14350:14372   */\n      swap1\n      pop\n        /* \"#utility.yul\":14381:14411   */\n      tag_548\n        /* \"#utility.yul\":14405:14410   */\n      dup2\n        /* \"#utility.yul\":14381:14411   */\n      tag_369\n      jump\t// in\n    tag_548:\n        /* \"#utility.yul\":14280:14417   */\n      swap3\n      swap2\n      pop\n      pop\n      jump\t// out\n        /* \"#utility.yul\":14423:14768   */\n    tag_170:\n        /* \"#utility.yul\":14490:14496   */\n      0x00\n        /* \"#utility.yul\":14539:14541   */\n      0x20\n        /* \"#utility.yul\":14527:14536   */\n      dup3\n        /* \"#utility.yul\":14518:14525   */\n      dup5\n        /* \"#utility.yul\":14514:14537   */\n      sub\n        /* \"#utility.yul\":14510:14542   */\n      slt\n        /* \"#utility.yul\":14507:14626   */\n      iszero\n      tag_550\n      jumpi\n        /* \"#utility.yul\":14545:14624   */\n      tag_551\n      tag_333\n      jump\t// in\n    tag_551:\n        /* \"#utility.yul\":14507:14626   */\n    tag_550:\n        /* \"#utility.yul\":14665:14666   */\n      0x00\n        /* \"#utility.yul\":14690:14751   */\n      tag_552\n        /* \"#utility.yul\":14743:14750   */\n      dup5\n        /* \"#utility.yul\":14734:14740   */\n      dup3\n        /* \"#utility.yul\":14723:14732   */\n      dup6\n        /* \"#utility.yul\":14719:14741   */\n      add\n        /* \"#utility.yul\":14690:14751   */\n      tag_370\n      jump\t// in\n    tag_552:\n        /* \"#utility.yul\":14680:14751   */\n      swap2\n      pop\n        /* \"#utility.yul\":14636:14761   */\n      pop\n        /* \"#utility.yul\":14423:14768   */\n      swap3\n      swap2\n      pop\n      pop\n      jump\t// out\n        /* \"#utility.yul\":14774:14954   */\n    tag_189:\n        /* \"#utility.yul\":14822:14899   */\n      0x4e487b7100000000000000000000000000000000000000000000000000000000\n        /* \"#utility.yul\":14819:14820   */\n      0x00\n        /* \"#utility.yul\":14812:14900   */\n      mstore\n        /* \"#utility.yul\":14919:14923   */\n      0x32\n        /* \"#utility.yul\":14916:14917   */\n      0x04\n        /* \"#utility.yul\":14909:14924   */\n      mstore\n        /* \"#utility.yul\":14943:14947   */\n      0x24\n        /* \"#utility.yul\":14940:14941   */\n      0x00\n        /* \"#utility.yul\":14933:14948   */\n      revert\n        /* \"#utility.yul\":14960:15193   */\n    tag_191:\n        /* \"#utility.yul\":14999:15002   */\n      0x00\n        /* \"#utility.yul\":15022:15046   */\n      tag_555\n        /* \"#utility.yul\":15040:15045   */\n      dup3\n        /* \"#utility.yul\":15022:15046   */\n      tag_335\n      jump\t// in\n    tag_555:\n        /* \"#utility.yul\":15013:15046   */\n      swap2\n      pop\n        /* \"#utility.yul\":15068:15134   */\n      0xffffffffffffffffffffffffffffffffffffffffffffffffffffffffffffffff\n        /* \"#utility.yul\":15061:15066   */\n      dup3\n        /* \"#utility.yul\":15058:15135   */\n      sub\n        /* \"#utility.yul\":15055:15158   */\n      tag_556\n      jumpi\n        /* \"#utility.yul\":15138:15156   */\n      tag_557\n      tag_361\n      jump\t// in\n    tag_557:\n        /* \"#utility.yul\":15055:15158   */\n    tag_556:\n        /* \"#utility.yul\":15185:15186   */\n      0x01\n        /* \"#utility.yul\":15178:15183   */\n      dup3\n        /* \"#utility.yul\":15174:15187   */\n      add\n        /* \"#utility.yul\":15167:15187   */\n      swap1\n      pop\n        /* \"#utility.yul\":14960:15193   */\n      swap2\n      swap1\n      pop\n      jump\t// out\n        /* \"#utility.yul\":15199:15298   */\n    tag_371:\n        /* \"#utility.yul\":15251:15257   */\n      0x00\n        /* \"#utility.yul\":15285:15290   */\n      dup2\n        /* \"#utility.yul\":15279:15291   */\n      mload\n        /* \"#utility.yul\":15269:15291   */\n      swap1\n      pop\n        /* \"#utility.yul\":15199:15298   */\n      swap2\n      swap1\n      pop\n      jump\t// out\n        /* \"#utility.yul\":15304:15473   */\n    tag_372:\n        /* \"#utility.yul\":15388:15399   */\n      0x00\n        /* \"#utility.yul\":15422:15428   */\n      dup3\n        /* \"#utility.yul\":15417:15420   */\n      dup3\n        /* \"#utility.yul\":15410:15429   */\n      mstore\n        /* \"#utility.yul\":15462:15466   */\n      0x20\n        /* \"#utility.yul\":15457:15460   */\n      dup3\n        /* \"#utility.yul\":15453:15467   */\n      add\n        /* \"#utility.yul\":15438:15467   */\n      swap1\n      pop\n        /* \"#utility.yul\":15304:15473   */\n      swap3\n      swap2\n      pop\n      pop\n      jump\t// out\n        /* \"#utility.yul\":15479:15786   */\n    tag_373:\n        /* \"#utility.yul\":15547:15548   */\n      0x00\n        /* \"#utility.yul\":15557:15670   */\n    tag_561:\n        /* \"#utility.yul\":15571:15577   */\n      dup4\n        /* \"#utility.yul\":15568:15569   */\n      dup2\n        /* \"#utility.yul\":15565:15578   */\n      lt\n        /* \"#utility.yul\":15557:15670   */\n      iszero\n      tag_563\n      jumpi\n        /* \"#utility.yul\":15656:15657   */\n      dup1\n        /* \"#utility.yul\":15651:15654   */\n      dup3\n        /* \"#utility.yul\":15647:15658   */\n      add\n        /* \"#utility.yul\":15641:15659   */\n      mload\n        /* \"#utility.yul\":15637:15638   */\n      dup2\n        /* \"#utility.yul\":15632:15635   */\n      dup5\n        /* \"#utility.yul\":15628:15639   */\n      add\n        /* \"#utility.yul\":15621:15660   */\n      mstore\n        /* \"#utility.yul\":15593:15595   */\n      0x20\n        /* \"#utility.yul\":15590:15591   */\n      dup2\n        /* \"#utility.yul\":15586:15596   */\n      add\n        /* \"#utility.yul\":15581:15596   */\n      swap1\n      pop\n        /* \"#utility.yul\":15557:15670   */\n      jump(tag_561)\n    tag_563:\n        /* \"#utility.yul\":15688:15694   */\n      dup4\n        /* \"#utility.yul\":15685:15686   */\n      dup2\n        /* \"#utility.yul\":15682:15695   */\n      gt\n        /* \"#utility.yul\":15679:15780   */\n      iszero\n      tag_564\n      jumpi\n        /* \"#utility.yul\":15768:15769   */\n      0x00\n        /* \"#utility.yul\":15759:15765   */\n      dup5\n        /* \"#utility.yul\":15754:15757   */\n      dup5\n        /* \"#utility.yul\":15750:15766   */\n      add\n        /* \"#utility.yul\":15743:15770   */\n      mstore\n        /* \"#utility.yul\":15679:15780   */\n    tag_564:\n        /* \"#utility.yul\":15528:15786   */\n      pop\n        /* \"#utility.yul\":15479:15786   */\n      pop\n      pop\n      pop\n      jump\t// out\n        /* \"#utility.yul\":15792:16156   */\n    tag_374:\n        /* \"#utility.yul\":15880:15883   */\n      0x00\n        /* \"#utility.yul\":15908:15947   */\n      tag_566\n        /* \"#utility.yul\":15941:15946   */\n      dup3\n        /* \"#utility.yul\":15908:15947   */\n      tag_371\n      jump\t// in\n    tag_566:\n        /* \"#utility.yul\":15963:16034   */\n      tag_567\n        /* \"#utility.yul\":16027:16033   */\n      dup2\n        /* \"#utility.yul\":16022:16025   */\n      dup6\n        /* \"#utility.yul\":15963:16034   */\n      tag_372\n      jump\t// in\n    tag_567:\n        /* \"#utility.yul\":15956:16034   */\n      swap4\n      pop\n        /* \"#utility.yul\":16043:16095   */\n      tag_568\n        /* \"#utility.yul\":16088:16094   */\n      dup2\n        /* \"#utility.yul\":16083:16086   */\n      dup6\n        /* \"#utility.yul\":16076:16080   */\n      0x20\n        /* \"#utility.yul\":16069:16074   */\n      dup7\n        /* \"#utility.yul\":16065:16081   */\n      add\n        /* \"#utility.yul\":16043:16095   */\n      tag_373\n      jump\t// in\n    tag_568:\n        /* \"#utility.yul\":16120:16149   */\n      tag_569\n        /* \"#utility.yul\":16142:16148   */\n      dup2\n        /* \"#utility.yul\":16120:16149   */\n      tag_350\n      jump\t// in\n    tag_569:\n        /* \"#utility.yul\":16115:16118   */\n      dup5\n        /* \"#utility.yul\":16111:16150   */\n      add\n        /* \"#utility.yul\":16104:16150   */\n      swap2\n      pop\n        /* \"#utility.yul\":15884:16156   */\n      pop\n        /* \"#utility.yul\":15792:16156   */\n      swap3\n      swap2\n      pop\n      pop\n      jump\t// out\n        /* \"#utility.yul\":16162:16806   */\n    tag_212:\n        /* \"#utility.yul\":16359:16363   */\n      0x00\n        /* \"#utility.yul\":16397:16400   */\n      0x80\n        /* \"#utility.yul\":16386:16395   */\n      dup3\n        /* \"#utility.yul\":16382:16401   */\n      add\n        /* \"#utility.yul\":16374:16401   */\n      swap1\n      pop\n        /* \"#utility.yul\":16411:16482   */\n      tag_571\n        /* \"#utility.yul\":16479:16480   */\n      0x00\n        /* \"#utility.yul\":16468:16477   */\n      dup4\n        /* \"#utility.yul\":16464:16481   */\n      add\n        /* \"#utility.yul\":16455:16461   */\n      dup8\n        /* \"#utility.yul\":16411:16482   */\n      tag_340\n      jump\t// in\n    tag_571:\n        /* \"#utility.yul\":16492:16564   */\n      tag_572\n        /* \"#utility.yul\":16560:16562   */\n      0x20\n        /* \"#utility.yul\":16549:16558   */\n      dup4\n        /* \"#utility.yul\":16545:16563   */\n      add\n        /* \"#utility.yul\":16536:16542   */\n      dup7\n        /* \"#utility.yul\":16492:16564   */\n      tag_340\n      jump\t// in\n    tag_572:\n        /* \"#utility.yul\":16574:16646   */\n      tag_573\n        /* \"#utility.yul\":16642:16644   */\n      0x40\n        /* \"#utility.yul\":16631:16640   */\n      dup4\n        /* \"#utility.yul\":16627:16645   */\n      add\n        /* \"#utility.yul\":16618:16624   */\n      dup6\n        /* \"#utility.yul\":16574:16646   */\n      tag_340\n      jump\t// in\n    tag_573:\n        /* \"#utility.yul\":16693:16702   */\n      dup2\n        /* \"#utility.yul\":16687:16691   */\n      dup2\n        /* \"#utility.yul\":16683:16703   */\n      sub\n        /* \"#utility.yul\":16678:16680   */\n      0x60\n        /* \"#utility.yul\":16667:16676   */\n      dup4\n        /* \"#utility.yul\":16663:16681   */\n      add\n        /* \"#utility.yul\":16656:16704   */\n      mstore\n        /* \"#utility.yul\":16721:16799   */\n      tag_574\n        /* \"#utility.yul\":16794:16798   */\n      dup2\n        /* \"#utility.yul\":16785:16791   */\n      dup5\n        /* \"#utility.yul\":16721:16799   */\n      tag_374\n      jump\t// in\n    tag_574:\n        /* \"#utility.yul\":16713:16799   */\n      swap1\n      pop\n        /* \"#utility.yul\":16162:16806   */\n      swap6\n      swap5\n      pop\n      pop\n      pop\n      pop\n      pop\n      jump\t// out\n        /* \"#utility.yul\":16812:16992   */\n    tag_375:\n        /* \"#utility.yul\":16860:16937   */\n      0x4e487b7100000000000000000000000000000000000000000000000000000000\n        /* \"#utility.yul\":16857:16858   */\n      0x00\n        /* \"#utility.yul\":16850:16938   */\n      mstore\n        /* \"#utility.yul\":16957:16961   */\n      0x12\n        /* \"#utility.yul\":16954:16955   */\n      0x04\n        /* \"#utility.yul\":16947:16962   */\n      mstore\n        /* \"#utility.yul\":16981:16985   */\n      0x24\n        /* \"#utility.yul\":16978:16979   */\n      0x00\n        /* \"#utility.yul\":16971:16986   */\n      revert\n        /* \"#utility.yul\":16998:17183   */\n    tag_233:\n        /* \"#utility.yul\":17038:17039   */\n      0x00\n        /* \"#utility.yul\":17055:17075   */\n      tag_577\n        /* \"#utility.yul\":17073:17074   */\n      dup3\n        /* \"#utility.yul\":17055:17075   */\n      tag_335\n      jump\t// in\n    tag_577:\n        /* \"#utility.yul\":17050:17075   */\n      swap2\n      pop\n        /* \"#utility.yul\":17089:17109   */\n      tag_578\n        /* \"#utility.yul\":17107:17108   */\n      dup4\n        /* \"#utility.yul\":17089:17109   */\n      tag_335\n      jump\t// in\n    tag_578:\n        /* \"#utility.yul\":17084:17109   */\n      swap3\n      pop\n        /* \"#utility.yul\":17128:17129   */\n      dup3\n        /* \"#utility.yul\":17118:17153   */\n      tag_579\n      jumpi\n        /* \"#utility.yul\":17133:17151   */\n      tag_580\n      tag_375\n      jump\t// in\n    tag_580:\n        /* \"#utility.yul\":17118:17153   */\n    tag_579:\n        /* \"#utility.yul\":17175:17176   */\n      dup3\n        /* \"#utility.yul\":17172:17173   */\n      dup3\n        /* \"#utility.yul\":17168:17177   */\n      div\n        /* \"#utility.yul\":17163:17177   */\n      swap1\n      pop\n        /* \"#utility.yul\":16998:17183   */\n      swap3\n      swap2\n      pop\n      pop\n      jump\t// out\n        /* \"#utility.yul\":17189:17631   */\n    tag_284:\n        /* \"#utility.yul\":17338:17342   */\n      0x00\n        /* \"#utility.yul\":17376:17378   */\n      0x60\n        /* \"#utility.yul\":17365:17374   */\n      dup3\n        /* \"#utility.yul\":17361:17379   */\n      add\n        /* \"#utility.yul\":17353:17379   */\n      swap1\n      pop\n        /* \"#utility.yul\":17389:17460   */\n      tag_582\n        /* \"#utility.yul\":17457:17458   */\n      0x00\n        /* \"#utility.yul\":17446:17455   */\n      dup4\n        /* \"#utility.yul\":17442:17459   */\n      add\n        /* \"#utility.yul\":17433:17439   */\n      dup7\n        /* \"#utility.yul\":17389:17460   */\n      tag_362\n      jump\t// in\n    tag_582:\n        /* \"#utility.yul\":17470:17542   */\n      tag_583\n        /* \"#utility.yul\":17538:17540   */\n      0x20\n        /* \"#utility.yul\":17527:17536   */\n      dup4\n        /* \"#utility.yul\":17523:17541   */\n      add\n        /* \"#utility.yul\":17514:17520   */\n      dup6\n        /* \"#utility.yul\":17470:17542   */\n      tag_362\n      jump\t// in\n    tag_583:\n        /* \"#utility.yul\":17552:17624   */\n      tag_584\n        /* \"#utility.yul\":17620:17622   */\n      0x40\n        /* \"#utility.yul\":17609:17618   */\n      dup4\n        /* \"#utility.yul\":17605:17623   */\n      add\n        /* \"#utility.yul\":17596:17602   */\n      dup5\n        /* \"#utility.yul\":17552:17624   */\n      tag_340\n      jump\t// in\n    tag_584:\n        /* \"#utility.yul\":17189:17631   */\n      swap5\n      swap4\n      pop\n      pop\n      pop\n      pop\n      jump\t// out\n        /* \"#utility.yul\":17637:17806   */\n    tag_376:\n        /* \"#utility.yul\":17777:17798   */\n      0x4552524f5220414c205452414e53464552495200000000000000000000000000\n        /* \"#utility.yul\":17773:17774   */\n      0x00\n        /* \"#utility.yul\":17765:17771   */\n      dup3\n        /* \"#utility.yul\":17761:17775   */\n      add\n        /* \"#utility.yul\":17754:17799   */\n      mstore\n        /* \"#utility.yul\":17637:17806   */\n      pop\n      jump\t// out\n        /* \"#utility.yul\":17812:18178   */\n    tag_377:\n        /* \"#utility.yul\":17954:17957   */\n      0x00\n        /* \"#utility.yul\":17975:18042   */\n      tag_587\n        /* \"#utility.yul\":18039:18041   */\n      0x13\n        /* \"#utility.yul\":18034:18037   */\n      dup4\n        /* \"#utility.yul\":17975:18042   */\n      tag_372\n      jump\t// in\n    tag_587:\n        /* \"#utility.yul\":17968:18042   */\n      swap2\n      pop\n        /* \"#utility.yul\":18051:18144   */\n      tag_588\n        /* \"#utility.yul\":18140:18143   */\n      dup3\n        /* \"#utility.yul\":18051:18144   */\n      tag_376\n      jump\t// in\n    tag_588:\n        /* \"#utility.yul\":18169:18171   */\n      0x20\n        /* \"#utility.yul\":18164:18167   */\n      dup3\n        /* \"#utility.yul\":18160:18172   */\n      add\n        /* \"#utility.yul\":18153:18172   */\n      swap1\n      pop\n        /* \"#utility.yul\":17812:18178   */\n      swap2\n      swap1\n      pop\n      jump\t// out\n        /* \"#utility.yul\":18184:18603   */\n    tag_290:\n        /* \"#utility.yul\":18350:18354   */\n      0x00\n        /* \"#utility.yul\":18388:18390   */\n      0x20\n        /* \"#utility.yul\":18377:18386   */\n      dup3\n        /* \"#utility.yul\":18373:18391   */\n      add\n        /* \"#utility.yul\":18365:18391   */\n      swap1\n      pop\n        /* \"#utility.yul\":18437:18446   */\n      dup2\n        /* \"#utility.yul\":18431:18435   */\n      dup2\n        /* \"#utility.yul\":18427:18447   */\n      sub\n        /* \"#utility.yul\":18423:18424   */\n      0x00\n        /* \"#utility.yul\":18412:18421   */\n      dup4\n        /* \"#utility.yul\":18408:18425   */\n      add\n        /* \"#utility.yul\":18401:18448   */\n      mstore\n        /* \"#utility.yul\":18465:18596   */\n      tag_590\n        /* \"#utility.yul\":18591:18595   */\n      dup2\n        /* \"#utility.yul\":18465:18596   */\n      tag_377\n      jump\t// in\n    tag_590:\n        /* \"#utility.yul\":18457:18596   */\n      swap1\n      pop\n        /* \"#utility.yul\":18184:18603   */\n      swap2\n      swap1\n      pop\n      jump\t// out\n        /* \"#utility.yul\":18609:18941   */\n    tag_297:\n        /* \"#utility.yul\":18730:18734   */\n      0x00\n        /* \"#utility.yul\":18768:18770   */\n      0x40\n        /* \"#utility.yul\":18757:18766   */\n      dup3\n        /* \"#utility.yul\":18753:18771   */\n      add\n        /* \"#utility.yul\":18745:18771   */\n      swap1\n      pop\n        /* \"#utility.yul\":18781:18852   */\n      tag_592\n        /* \"#utility.yul\":18849:18850   */\n      0x00\n        /* \"#utility.yul\":18838:18847   */\n      dup4\n        /* \"#utility.yul\":18834:18851   */\n      add\n        /* \"#utility.yul\":18825:18831   */\n      dup6\n        /* \"#utility.yul\":18781:18852   */\n      tag_340\n      jump\t// in\n    tag_592:\n        /* \"#utility.yul\":18862:18934   */\n      tag_593\n        /* \"#utility.yul\":18930:18932   */\n      0x20\n        /* \"#utility.yul\":18919:18928   */\n      dup4\n        /* \"#utility.yul\":18915:18933   */\n      add\n        /* \"#utility.yul\":18906:18912   */\n      dup5\n        /* \"#utility.yul\":18862:18934   */\n      tag_340\n      jump\t// in\n    tag_593:\n        /* \"#utility.yul\":18609:18941   */\n      swap4\n      swap3\n      pop\n      pop\n      pop\n      jump\t// out\n        /* \"#utility.yul\":18947:19295   */\n    tag_306:\n        /* \"#utility.yul\":18987:18994   */\n      0x00\n        /* \"#utility.yul\":19010:19030   */\n      tag_595\n        /* \"#utility.yul\":19028:19029   */\n      dup3\n        /* \"#utility.yul\":19010:19030   */\n      tag_335\n      jump\t// in\n    tag_595:\n        /* \"#utility.yul\":19005:19030   */\n      swap2\n      pop\n        /* \"#utility.yul\":19044:19064   */\n      tag_596\n        /* \"#utility.yul\":19062:19063   */\n      dup4\n        /* \"#utility.yul\":19044:19064   */\n      tag_335\n      jump\t// in\n    tag_596:\n        /* \"#utility.yul\":19039:19064   */\n      swap3\n      pop\n        /* \"#utility.yul\":19232:19233   */\n      dup2\n        /* \"#utility.yul\":19164:19230   */\n      0xffffffffffffffffffffffffffffffffffffffffffffffffffffffffffffffff\n        /* \"#utility.yul\":19160:19234   */\n      div\n        /* \"#utility.yul\":19157:19158   */\n      dup4\n        /* \"#utility.yul\":19154:19235   */\n      gt\n        /* \"#utility.yul\":19149:19150   */\n      dup3\n        /* \"#utility.yul\":19142:19151   */\n      iszero\n        /* \"#utility.yul\":19135:19152   */\n      iszero\n        /* \"#utility.yul\":19131:19236   */\n      and\n        /* \"#utility.yul\":19128:19259   */\n      iszero\n      tag_597\n      jumpi\n        /* \"#utility.yul\":19239:19257   */\n      tag_598\n      tag_361\n      jump\t// in\n    tag_598:\n        /* \"#utility.yul\":19128:19259   */\n    tag_597:\n        /* \"#utility.yul\":19287:19288   */\n      dup3\n        /* \"#utility.yul\":19284:19285   */\n      dup3\n        /* \"#utility.yul\":19280:19289   */\n      mul\n        /* \"#utility.yul\":19269:19289   */\n      swap1\n      pop\n        /* \"#utility.yul\":18947:19295   */\n      swap3\n      swap2\n      pop\n      pop\n      jump\t// out\n        /* \"#utility.yul\":19301:19449   */\n    tag_378:\n        /* \"#utility.yul\":19403:19414   */\n      0x00\n        /* \"#utility.yul\":19440:19443   */\n      dup2\n        /* \"#utility.yul\":19425:19443   */\n      swap1\n      pop\n        /* \"#utility.yul\":19301:19449   */\n      swap3\n      swap2\n      pop\n      pop\n      jump\t// out\n        /* \"#utility.yul\":19455:19832   */\n    tag_379:\n        /* \"#utility.yul\":19561:19564   */\n      0x00\n        /* \"#utility.yul\":19589:19628   */\n      tag_601\n        /* \"#utility.yul\":19622:19627   */\n      dup3\n        /* \"#utility.yul\":19589:19628   */\n      tag_371\n      jump\t// in\n    tag_601:\n        /* \"#utility.yul\":19644:19733   */\n      tag_602\n        /* \"#utility.yul\":19726:19732   */\n      dup2\n        /* \"#utility.yul\":19721:19724   */\n      dup6\n        /* \"#utility.yul\":19644:19733   */\n      tag_378\n      jump\t// in\n    tag_602:\n        /* \"#utility.yul\":19637:19733   */\n      swap4\n      pop\n        /* \"#utility.yul\":19742:19794   */\n      tag_603\n        /* \"#utility.yul\":19787:19793   */\n      dup2\n        /* \"#utility.yul\":19782:19785   */\n      dup6\n        /* \"#utility.yul\":19775:19779   */\n      0x20\n        /* \"#utility.yul\":19768:19773   */\n      dup7\n        /* \"#utility.yul\":19764:19780   */\n      add\n        /* \"#utility.yul\":19742:19794   */\n      tag_373\n      jump\t// in\n    tag_603:\n        /* \"#utility.yul\":19819:19825   */\n      dup1\n        /* \"#utility.yul\":19814:19817   */\n      dup5\n        /* \"#utility.yul\":19810:19826   */\n      add\n        /* \"#utility.yul\":19803:19826   */\n      swap2\n      pop\n        /* \"#utility.yul\":19565:19832   */\n      pop\n        /* \"#utility.yul\":19455:19832   */\n      swap3\n      swap2\n      pop\n      pop\n      jump\t// out\n        /* \"#utility.yul\":19838:20113   */\n    tag_330:\n        /* \"#utility.yul\":19970:19973   */\n      0x00\n        /* \"#utility.yul\":19992:20087   */\n      tag_605\n        /* \"#utility.yul\":20083:20086   */\n      dup3\n        /* \"#utility.yul\":20074:20080   */\n      dup5\n        /* \"#utility.yul\":19992:20087   */\n      tag_379\n      jump\t// in\n    tag_605:\n        /* \"#utility.yul\":19985:20087   */\n      swap2\n      pop\n        /* \"#utility.yul\":20104:20107   */\n      dup2\n        /* \"#utility.yul\":20097:20107   */\n      swap1\n      pop\n        /* \"#utility.yul\":19838:20113   */\n      swap3\n      swap2\n      pop\n      pop\n      jump\t// out\n    stop\n\n    sub_0: assembly {\n            /* \"Dron.sol\":83:1662   */\n          mstore(0x40, 0x80)\n            /* \"Dron.sol\":369:728   */\n          callvalue\n          dup1\n          iszero\n          tag_1\n          jumpi\n          0x00\n          dup1\n          revert\n        tag_1:\n          pop\n          mload(0x40)\n          sub(codesize, bytecodeSize)\n          dup1\n          bytecodeSize\n          dup4\n          codecopy\n          dup2\n          dup2\n          add\n          0x40\n          mstore\n          dup2\n          add\n          swap1\n          tag_2\n          swap2\n          swap1\n          tag_3\n          jump\t// in\n        tag_2:\n            /* \"Dron.sol\":477:486   */\n          dup4\n            /* \"Dron.sol\":464:474   */\n          0x03\n            /* \"Dron.sol\":464:486   */\n          dup2\n          swap1\n          sstore\n          pop\n            /* \"Dron.sol\":510:519   */\n          dup3\n            /* \"Dron.sol\":497:507   */\n          0x04\n            /* \"Dron.sol\":497:519   */\n          dup2\n          swap1\n          sstore\n          pop\n            /* \"Dron.sol\":537:542   */\n          dup2\n            /* \"Dron.sol\":530:534   */\n          0x05\n            /* \"Dron.sol\":530:542   */\n          dup2\n          swap1\n          sstore\n          pop\n            /* \"Dron.sol\":563:565   */\n          dup1\n            /* \"Dron.sol\":553:560   */\n          0x02\n            /* \"Dron.sol\":553:565   */\n          dup2\n          swap1\n          sstore\n          pop\n            /* \"Dron.sol\":576:663   */\n          mload(0x40)\n          dup1\n          0xa0\n          add\n          0x40\n          mstore\n          dup1\n          mload(0x40)\n          dup1\n          0x40\n          add\n          0x40\n          mstore\n          dup1\n          0x0b\n          dup2\n          mstore\n          0x20\n          add\n          0x5065737469636964612041000000000000000000000000000000000000000000\n          dup2\n          mstore\n          pop\n          dup2\n          mstore\n          0x20\n          add\n          mload(0x40)\n          dup1\n          0x40\n          add\n          0x40\n          mstore\n          dup1\n          0x0b\n          dup2\n          mstore\n          0x20\n          add\n          0x5065737469636964612042000000000000000000000000000000000000000000\n          dup2\n          mstore\n          pop\n          dup2\n          mstore\n          0x20\n          add\n          mload(0x40)\n          dup1\n          0x40\n          add\n          0x40\n          mstore\n          dup1\n          0x0b\n          dup2\n          mstore\n          0x20\n          add\n          0x5065737469636964612043000000000000000000000000000000000000000000\n          dup2\n          mstore\n          pop\n          dup2\n          mstore\n          0x20\n          add\n          mload(0x40)\n          dup1\n          0x40\n          add\n          0x40\n          mstore\n          dup1\n          0x0b\n          dup2\n          mstore\n          0x20\n          add\n          0x5065737469636964612044000000000000000000000000000000000000000000\n          dup2\n          mstore\n          pop\n          dup2\n          mstore\n          0x20\n          add\n          mload(0x40)\n          dup1\n          0x40\n          add\n          0x40\n          mstore\n          dup1\n          0x0b\n          dup2\n          mstore\n          0x20\n          add\n          0x5065737469636964612045000000000000000000000000000000000000000000\n          dup2\n          mstore\n          pop\n          dup2\n          mstore\n          pop\n            /* \"Dron.sol\":576:585   */\n          0x06\n            /* \"Dron.sol\":576:663   */\n          swap1\n          0x05\n          tag_6\n          swap3\n          swap2\n          swap1\n          tag_7\n          jump\t// in\n        tag_6:\n          pop\n            /* \"Dron.sol\":682:692   */\n          caller\n            /* \"Dron.sol\":674:679   */\n          0x07\n          0x00\n            /* \"Dron.sol\":674:692   */\n          0x0100\n          exp\n          dup2\n          sload\n          dup2\n          0xffffffffffffffffffffffffffffffffffffffff\n          mul\n          not\n          and\n          swap1\n          dup4\n          0xffffffffffffffffffffffffffffffffffffffff\n          and\n          mul\n          or\n          swap1\n          sstore\n          pop\n            /* \"Dron.sol\":716:720   */\n          0x01\n            /* \"Dron.sol\":703:713   */\n          0x07\n          0x14\n            /* \"Dron.sol\":703:720   */\n          0x0100\n          exp\n          dup2\n          sload\n          dup2\n          0xff\n          mul\n          not\n          and\n          swap1\n          dup4\n          iszero\n          iszero\n          mul\n          or\n          swap1\n          sstore\n          pop\n            /* \"Dron.sol\":369:728   */\n          pop\n          pop\n          pop\n          pop\n            /* \"Dron.sol\":83:1662   */\n          jump(tag_8)\n        tag_7:\n          dup3\n          dup1\n          sload\n          dup3\n          dup3\n          sstore\n          swap1\n          0x00\n          mstore\n          keccak256(0x00, 0x20)\n          swap1\n          dup2\n          add\n          swap3\n          dup3\n          iszero\n          tag_9\n          jumpi\n          swap2\n          0x20\n          mul\n          dup3\n          add\n        tag_10:\n          dup3\n          dup2\n          gt\n          iszero\n          tag_11\n          jumpi\n          dup3\n          mload\n          dup3\n          swap1\n          dup1\n          mload\n          swap1\n          0x20\n          add\n          swap1\n          tag_12\n          swap3\n          swap2\n          swap1\n          tag_13\n          jump\t// in\n        tag_12:\n          pop\n          swap2\n          0x20\n          add\n          swap2\n          swap1\n          0x01\n          add\n          swap1\n          jump(tag_10)\n        tag_11:\n        tag_9:\n          pop\n          swap1\n          pop\n          tag_14\n          swap2\n          swap1\n          tag_15\n          jump\t// in\n        tag_14:\n          pop\n          swap1\n          jump\t// out\n        tag_13:\n          dup3\n          dup1\n          sload\n          tag_16\n          swap1\n          tag_17\n          jump\t// in\n        tag_16:\n          swap1\n          0x00\n          mstore\n          keccak256(0x00, 0x20)\n          swap1\n          0x1f\n          add\n          0x20\n          swap1\n          div\n          dup2\n          add\n          swap3\n          dup3\n          tag_19\n          jumpi\n          0x00\n          dup6\n          sstore\n          jump(tag_18)\n        tag_19:\n          dup3\n          0x1f\n          lt\n          tag_20\n          jumpi\n          dup1\n          mload\n          not(0xff)\n          and\n          dup4\n          dup1\n          add\n          or\n          dup6\n          sstore\n          jump(tag_18)\n        tag_20:\n          dup3\n          dup1\n          add\n          0x01\n          add\n          dup6\n          sstore\n          dup3\n          iszero\n          tag_18\n          jumpi\n          swap2\n          dup3\n          add\n        tag_21:\n          dup3\n          dup2\n          gt\n          iszero\n          tag_22\n          jumpi\n          dup3\n          mload\n          dup3\n          sstore\n          swap2\n          0x20\n          add\n          swap2\n          swap1\n          0x01\n          add\n          swap1\n          jump(tag_21)\n        tag_22:\n        tag_18:\n          pop\n          swap1\n          pop\n          tag_23\n          swap2\n          swap1\n          tag_24\n          jump\t// in\n        tag_23:\n          pop\n          swap1\n          jump\t// out\n        tag_15:\n        tag_25:\n          dup1\n          dup3\n          gt\n          iszero\n          tag_26\n          jumpi\n          0x00\n          dup2\n          dup2\n          tag_27\n          swap2\n          swap1\n          tag_28\n          jump\t// in\n        tag_27:\n          pop\n          0x01\n          add\n          jump(tag_25)\n        tag_26:\n          pop\n          swap1\n          jump\t// out\n        tag_24:\n        tag_29:\n          dup1\n          dup3\n          gt\n          iszero\n          tag_30\n          jumpi\n          0x00\n          dup2\n          0x00\n          swap1\n          sstore\n          pop\n          0x01\n          add\n          jump(tag_29)\n        tag_30:\n          pop\n          swap1\n          jump\t// out\n        tag_28:\n          pop\n          dup1\n          sload\n          tag_31\n          swap1\n          tag_17\n          jump\t// in\n        tag_31:\n          0x00\n          dup3\n          sstore\n          dup1\n          0x1f\n          lt\n          tag_33\n          jumpi\n          pop\n          jump(tag_32)\n        tag_33:\n          0x1f\n          add\n          0x20\n          swap1\n          div\n          swap1\n          0x00\n          mstore\n          keccak256(0x00, 0x20)\n          swap1\n          dup2\n          add\n          swap1\n          tag_34\n          swap2\n          swap1\n          tag_24\n          jump\t// in\n        tag_34:\n        tag_32:\n          pop\n          jump\t// out\n            /* \"#utility.yul\":88:205   */\n        tag_36:\n            /* \"#utility.yul\":197:198   */\n          0x00\n            /* \"#utility.yul\":194:195   */\n          dup1\n            /* \"#utility.yul\":187:199   */\n          revert\n            /* \"#utility.yul\":334:411   */\n        tag_38:\n            /* \"#utility.yul\":371:378   */\n          0x00\n            /* \"#utility.yul\":400:405   */\n          dup2\n            /* \"#utility.yul\":389:405   */\n          swap1\n          pop\n            /* \"#utility.yul\":334:411   */\n          swap2\n          swap1\n          pop\n          jump\t// out\n            /* \"#utility.yul\":417:539   */\n        tag_39:\n            /* \"#utility.yul\":490:514   */\n          tag_48\n            /* \"#utility.yul\":508:513   */\n          dup2\n            /* \"#utility.yul\":490:514   */\n          tag_38\n          jump\t// in\n        tag_48:\n            /* \"#utility.yul\":483:488   */\n          dup2\n            /* \"#utility.yul\":480:515   */\n          eq\n            /* \"#utility.yul\":470:533   */\n          tag_49\n          jumpi\n            /* \"#utility.yul\":529:530   */\n          0x00\n            /* \"#utility.yul\":526:527   */\n          dup1\n            /* \"#utility.yul\":519:531   */\n          revert\n            /* \"#utility.yul\":470:533   */\n        tag_49:\n            /* \"#utility.yul\":417:539   */\n          pop\n          jump\t// out\n            /* \"#utility.yul\":545:688   */\n        tag_40:\n            /* \"#utility.yul\":602:607   */\n          0x00\n            /* \"#utility.yul\":633:639   */\n          dup2\n            /* \"#utility.yul\":627:640   */\n          mload\n            /* \"#utility.yul\":618:640   */\n          swap1\n          pop\n            /* \"#utility.yul\":649:682   */\n          tag_51\n            /* \"#utility.yul\":676:681   */\n          dup2\n            /* \"#utility.yul\":649:682   */\n          tag_39\n          jump\t// in\n        tag_51:\n            /* \"#utility.yul\":545:688   */\n          swap3\n          swap2\n          pop\n          pop\n          jump\t// out\n            /* \"#utility.yul\":694:1514   */\n        tag_3:\n            /* \"#utility.yul\":791:797   */\n          0x00\n            /* \"#utility.yul\":799:805   */\n          dup1\n            /* \"#utility.yul\":807:813   */\n          0x00\n            /* \"#utility.yul\":815:821   */\n          dup1\n            /* \"#utility.yul\":864:867   */\n          0x80\n            /* \"#utility.yul\":852:861   */\n          dup6\n            /* \"#utility.yul\":843:850   */\n          dup8\n            /* \"#utility.yul\":839:862   */\n          sub\n            /* \"#utility.yul\":835:868   */\n          slt\n            /* \"#utility.yul\":832:952   */\n          iszero\n          tag_53\n          jumpi\n            /* \"#utility.yul\":871:950   */\n          tag_54\n          tag_36\n          jump\t// in\n        tag_54:\n            /* \"#utility.yul\":832:952   */\n        tag_53:\n            /* \"#utility.yul\":991:992   */\n          0x00\n            /* \"#utility.yul\":1016:1080   */\n          tag_55\n            /* \"#utility.yul\":1072:1079   */\n          dup8\n            /* \"#utility.yul\":1063:1069   */\n          dup3\n            /* \"#utility.yul\":1052:1061   */\n          dup9\n            /* \"#utility.yul\":1048:1070   */\n          add\n            /* \"#utility.yul\":1016:1080   */\n          tag_40\n          jump\t// in\n        tag_55:\n            /* \"#utility.yul\":1006:1080   */\n          swap5\n          pop\n            /* \"#utility.yul\":962:1090   */\n          pop\n            /* \"#utility.yul\":1129:1131   */\n          0x20\n            /* \"#utility.yul\":1155:1219   */\n          tag_56\n            /* \"#utility.yul\":1211:1218   */\n          dup8\n            /* \"#utility.yul\":1202:1208   */\n          dup3\n            /* \"#utility.yul\":1191:1200   */\n          dup9\n            /* \"#utility.yul\":1187:1209   */\n          add\n            /* \"#utility.yul\":1155:1219   */\n          tag_40\n          jump\t// in\n        tag_56:\n            /* \"#utility.yul\":1145:1219   */\n          swap4\n          pop\n            /* \"#utility.yul\":1100:1229   */\n          pop\n            /* \"#utility.yul\":1268:1270   */\n          0x40\n            /* \"#utility.yul\":1294:1358   */\n          tag_57\n            /* \"#utility.yul\":1350:1357   */\n          dup8\n            /* \"#utility.yul\":1341:1347   */\n          dup3\n            /* \"#utility.yul\":1330:1339   */\n          dup9\n            /* \"#utility.yul\":1326:1348   */\n          add\n            /* \"#utility.yul\":1294:1358   */\n          tag_40\n          jump\t// in\n        tag_57:\n            /* \"#utility.yul\":1284:1358   */\n          swap3\n          pop\n            /* \"#utility.yul\":1239:1368   */\n          pop\n            /* \"#utility.yul\":1407:1409   */\n          0x60\n            /* \"#utility.yul\":1433:1497   */\n          tag_58\n            /* \"#utility.yul\":1489:1496   */\n          dup8\n            /* \"#utility.yul\":1480:1486   */\n          dup3\n            /* \"#utility.yul\":1469:1478   */\n          dup9\n            /* \"#utility.yul\":1465:1487   */\n          add\n            /* \"#utility.yul\":1433:1497   */\n          tag_40\n          jump\t// in\n        tag_58:\n            /* \"#utility.yul\":1423:1497   */\n          swap2\n          pop\n            /* \"#utility.yul\":1378:1507   */\n          pop\n            /* \"#utility.yul\":694:1514   */\n          swap3\n          swap6\n          swap2\n          swap5\n          pop\n          swap3\n          pop\n          jump\t// out\n            /* \"#utility.yul\":1520:1700   */\n        tag_41:\n            /* \"#utility.yul\":1568:1645   */\n          0x4e487b7100000000000000000000000000000000000000000000000000000000\n            /* \"#utility.yul\":1565:1566   */\n          0x00\n            /* \"#utility.yul\":1558:1646   */\n          mstore\n            /* \"#utility.yul\":1665:1669   */\n          0x22\n            /* \"#utility.yul\":1662:1663   */\n          0x04\n            /* \"#utility.yul\":1655:1670   */\n          mstore\n            /* \"#utility.yul\":1689:1693   */\n          0x24\n            /* \"#utility.yul\":1686:1687   */\n          0x00\n            /* \"#utility.yul\":1679:1694   */\n          revert\n            /* \"#utility.yul\":1706:2026   */\n        tag_17:\n            /* \"#utility.yul\":1750:1756   */\n          0x00\n            /* \"#utility.yul\":1787:1788   */\n          0x02\n            /* \"#utility.yul\":1781:1785   */\n          dup3\n            /* \"#utility.yul\":1777:1789   */\n          div\n            /* \"#utility.yul\":1767:1789   */\n          swap1\n          pop\n            /* \"#utility.yul\":1834:1835   */\n          0x01\n            /* \"#utility.yul\":1828:1832   */\n          dup3\n            /* \"#utility.yul\":1824:1836   */\n          and\n            /* \"#utility.yul\":1855:1873   */\n          dup1\n            /* \"#utility.yul\":1845:1926   */\n          tag_61\n          jumpi\n            /* \"#utility.yul\":1911:1915   */\n          0x7f\n            /* \"#utility.yul\":1903:1909   */\n          dup3\n            /* \"#utility.yul\":1899:1916   */\n          and\n            /* \"#utility.yul\":1889:1916   */\n          swap2\n          pop\n            /* \"#utility.yul\":1845:1926   */\n        tag_61:\n            /* \"#utility.yul\":1973:1975   */\n          0x20\n            /* \"#utility.yul\":1965:1971   */\n          dup3\n            /* \"#utility.yul\":1962:1976   */\n          lt\n            /* \"#utility.yul\":1942:1960   */\n          dup2\n            /* \"#utility.yul\":1939:1977   */\n          sub\n            /* \"#utility.yul\":1936:2020   */\n          tag_62\n          jumpi\n            /* \"#utility.yul\":1992:2010   */\n          tag_63\n          tag_41\n          jump\t// in\n        tag_63:\n            /* \"#utility.yul\":1936:2020   */\n        tag_62:\n            /* \"#utility.yul\":1757:2026   */\n          pop\n            /* \"#utility.yul\":1706:2026   */\n          swap2\n          swap1\n          pop\n          jump\t// out\n            /* \"Dron.sol\":83:1662   */\n        tag_8:\n          dataSize(sub_0)\n          dup1\n          dataOffset(sub_0)\n          0x00\n          codecopy\n          0x00\n          return\n        stop\n\n        sub_0: assembly {\n                /* \"Dron.sol\":83:1662   */\n              mstore(0x40, 0x80)\n              callvalue\n              dup1\n              iszero\n              tag_1\n              jumpi\n              0x00\n              dup1\n              revert\n            tag_1:\n              pop\n              jumpi(tag_2, lt(calldatasize, 0x04))\n              shr(0xe0, calldataload(0x00))\n              dup1\n              0x6352211e\n              gt\n              tag_21\n              jumpi\n              dup1\n              0xb3e1c718\n              gt\n              tag_22\n              jumpi\n              dup1\n              0xb3e1c718\n              eq\n              tag_16\n              jumpi\n              dup1\n              0xbd3e19d4\n              eq\n              tag_17\n              jumpi\n              dup1\n              0xcf22b577\n              eq\n              tag_18\n              jumpi\n              dup1\n              0xe2fb9893\n              eq\n              tag_19\n              jumpi\n              dup1\n              0xe7bcebf0\n              eq\n              tag_20\n              jumpi\n              jump(tag_2)\n            tag_22:\n              dup1\n              0x6352211e\n              eq\n              tag_12\n              jumpi\n              dup1\n              0x6a4f832b\n              eq\n              tag_13\n              jumpi\n              dup1\n              0x70a08231\n              eq\n              tag_14\n              jumpi\n              dup1\n              0x8da5cb5b\n              eq\n              tag_15\n              jumpi\n              jump(tag_2)\n            tag_21:\n              dup1\n              0x1e7ec0f3\n              gt\n              tag_23\n              jumpi\n              dup1\n              0x1e7ec0f3\n              eq\n              tag_7\n              jumpi\n              dup1\n              0x2b81ff95\n              eq\n              tag_8\n              jumpi\n              dup1\n              0x32b93996\n              eq\n              tag_9\n              jumpi\n              dup1\n              0x3fbaa475\n              eq\n              tag_10\n              jumpi\n              dup1\n              0x49befa85\n              eq\n              tag_11\n              jumpi\n              jump(tag_2)\n            tag_23:\n              dup1\n              0xfef856\n              eq\n              tag_3\n              jumpi\n              dup1\n              0x01ffc9a7\n              eq\n              tag_4\n              jumpi\n              dup1\n              0x13faede6\n              eq\n              tag_5\n              jumpi\n              dup1\n              0x175f4eae\n              eq\n              tag_6\n              jumpi\n            tag_2:\n              0x00\n              dup1\n              revert\n                /* \"Dron.sol\":1472:1564   */\n            tag_3:\n              tag_24\n              tag_25\n              jump\t// in\n            tag_24:\n              mload(0x40)\n              tag_26\n              swap2\n              swap1\n              tag_27\n              jump\t// in\n            tag_26:\n              mload(0x40)\n              dup1\n              swap2\n              sub\n              swap1\n              return\n                /* \"ERC165.sol\":128:290   */\n            tag_4:\n              tag_28\n              0x04\n              dup1\n              calldatasize\n              sub\n              dup2\n              add\n              swap1\n              tag_29\n              swap2\n              swap1\n              tag_30\n              jump\t// in\n            tag_29:\n              tag_31\n              jump\t// in\n            tag_28:\n              mload(0x40)\n              tag_32\n              swap2\n              swap1\n              tag_27\n              jump\t// in\n            tag_32:\n              mload(0x40)\n              dup1\n              swap2\n              sub\n              swap1\n              return\n                /* \"Dron.sol\":209:229   */\n            tag_5:\n              tag_33\n              tag_34\n              jump\t// in\n            tag_33:\n              mload(0x40)\n              tag_35\n              swap2\n              swap1\n              tag_36\n              jump\t// in\n            tag_35:\n              mload(0x40)\n              dup1\n              swap2\n              sub\n              swap1\n              return\n                /* \"Dron.sol\":236:261   */\n            tag_6:\n              tag_37\n              0x04\n              dup1\n              calldatasize\n              sub\n              dup2\n              add\n              swap1\n              tag_38\n              swap2\n              swap1\n              tag_39\n              jump\t// in\n            tag_38:\n              tag_40\n              jump\t// in\n            tag_37:\n              mload(0x40)\n              tag_41\n              swap2\n              swap1\n              tag_42\n              jump\t// in\n            tag_41:\n              mload(0x40)\n              dup1\n              swap2\n              sub\n              swap1\n              return\n                /* \"Dron.sol\":899:1096   */\n            tag_7:\n              tag_43\n              0x04\n              dup1\n              calldatasize\n              sub\n              dup2\n              add\n              swap1\n              tag_44\n              swap2\n              swap1\n              tag_39\n              jump\t// in\n            tag_44:\n              tag_45\n              jump\t// in\n            tag_43:\n              stop\n                /* \"Dron.sol\":1572:1659   */\n            tag_8:\n              tag_46\n              0x04\n              dup1\n              calldatasize\n              sub\n              dup2\n              add\n              swap1\n              tag_47\n              swap2\n              swap1\n              tag_48\n              jump\t// in\n            tag_47:\n              tag_49\n              jump\t// in\n            tag_46:\n              stop\n                /* \"Dron.sol\":177:202   */\n            tag_9:\n              tag_50\n              tag_51\n              jump\t// in\n            tag_50:\n              mload(0x40)\n              tag_52\n              swap2\n              swap1\n              tag_36\n              jump\t// in\n            tag_52:\n              mload(0x40)\n              dup1\n              swap2\n              sub\n              swap1\n              return\n                /* \"Dron.sol\":145:170   */\n            tag_10:\n              tag_53\n              tag_54\n              jump\t// in\n            tag_53:\n              mload(0x40)\n              tag_55\n              swap2\n              swap1\n              tag_36\n              jump\t// in\n            tag_55:\n              mload(0x40)\n              dup1\n              swap2\n              sub\n              swap1\n              return\n                /* \"Dron.sol\":1368:1464   */\n            tag_11:\n              tag_56\n              tag_57\n              jump\t// in\n            tag_56:\n              mload(0x40)\n              tag_58\n              swap2\n              swap1\n              tag_36\n              jump\t// in\n            tag_58:\n              mload(0x40)\n              dup1\n              swap2\n              sub\n              swap1\n              return\n                /* \"ERC721.sol\":624:852   */\n            tag_12:\n              tag_59\n              0x04\n              dup1\n              calldatasize\n              sub\n              dup2\n              add\n              swap1\n              tag_60\n              swap2\n              swap1\n              tag_39\n              jump\t// in\n            tag_60:\n              tag_61\n              jump\t// in\n            tag_59:\n              mload(0x40)\n              tag_62\n              swap2\n              swap1\n              tag_63\n              jump\t// in\n            tag_62:\n              mload(0x40)\n              dup1\n              swap2\n              sub\n              swap1\n              return\n                /* \"ERC721.sol\":1108:1302   */\n            tag_13:\n              tag_64\n              0x04\n              dup1\n              calldatasize\n              sub\n              dup2\n              add\n              swap1\n              tag_65\n              swap2\n              swap1\n              tag_66\n              jump\t// in\n            tag_65:\n              tag_67\n              jump\t// in\n            tag_64:\n              stop\n                /* \"ERC721.sol\":863:984   */\n            tag_14:\n              tag_68\n              0x04\n              dup1\n              calldatasize\n              sub\n              dup2\n              add\n              swap1\n              tag_69\n              swap2\n              swap1\n              tag_70\n              jump\t// in\n            tag_69:\n              tag_71\n              jump\t// in\n            tag_68:\n              mload(0x40)\n              tag_72\n              swap2\n              swap1\n              tag_36\n              jump\t// in\n            tag_72:\n              mload(0x40)\n              dup1\n              swap2\n              sub\n              swap1\n              return\n                /* \"Dron.sol\":268:288   */\n            tag_15:\n              tag_73\n              tag_74\n              jump\t// in\n            tag_73:\n              mload(0x40)\n              tag_75\n              swap2\n              swap1\n              tag_63\n              jump\t// in\n            tag_75:\n              mload(0x40)\n              dup1\n              swap2\n              sub\n              swap1\n              return\n                /* \"ERC721.sol\":992:1099   */\n            tag_16:\n              tag_76\n              0x04\n              dup1\n              calldatasize\n              sub\n              dup2\n              add\n              swap1\n              tag_77\n              swap2\n              swap1\n              tag_78\n              jump\t// in\n            tag_77:\n              tag_79\n              jump\t// in\n            tag_76:\n              stop\n                /* \"Dron.sol\":1170:1255   */\n            tag_17:\n              tag_80\n              tag_81\n              jump\t// in\n            tag_80:\n              mload(0x40)\n              tag_82\n              swap2\n              swap1\n              tag_36\n              jump\t// in\n            tag_82:\n              mload(0x40)\n              dup1\n              swap2\n              sub\n              swap1\n              return\n                /* \"Dron.sol\":1264:1360   */\n            tag_18:\n              tag_83\n              tag_84\n              jump\t// in\n            tag_83:\n              mload(0x40)\n              tag_85\n              swap2\n              swap1\n              tag_36\n              jump\t// in\n            tag_85:\n              mload(0x40)\n              dup1\n              swap2\n              sub\n              swap1\n              return\n                /* \"Dron.sol\":736:887   */\n            tag_19:\n              tag_86\n              0x04\n              dup1\n              calldatasize\n              sub\n              dup2\n              add\n              swap1\n              tag_87\n              swap2\n              swap1\n              tag_78\n              jump\t// in\n            tag_87:\n              tag_88\n              jump\t// in\n            tag_86:\n              stop\n                /* \"Dron.sol\":116:138   */\n            tag_20:\n              tag_89\n              tag_90\n              jump\t// in\n            tag_89:\n              mload(0x40)\n              tag_91\n              swap2\n              swap1\n              tag_36\n              jump\t// in\n            tag_91:\n              mload(0x40)\n              dup1\n              swap2\n              sub\n              swap1\n              return\n                /* \"Dron.sol\":1472:1564   */\n            tag_25:\n                /* \"Dron.sol\":1517:1521   */\n              0x00\n                /* \"Dron.sol\":1546:1556   */\n              0x07\n              0x14\n              swap1\n              sload\n              swap1\n              0x0100\n              exp\n              swap1\n              div\n              0xff\n              and\n                /* \"Dron.sol\":1539:1556   */\n              swap1\n              pop\n                /* \"Dron.sol\":1472:1564   */\n              swap1\n              jump\t// out\n                /* \"ERC165.sol\":128:290   */\n            tag_31:\n                /* \"ERC165.sol\":213:217   */\n              0x00\n                /* \"ERC165.sol\":257:282   */\n              0x01ffc9a700000000000000000000000000000000000000000000000000000000\n                /* \"ERC165.sol\":242:282   */\n              not(0xffffffffffffffffffffffffffffffffffffffffffffffffffffffff)\n              and\n                /* \"ERC165.sol\":242:253   */\n              dup3\n                /* \"ERC165.sol\":242:282   */\n              not(0xffffffffffffffffffffffffffffffffffffffffffffffffffffffff)\n              and\n              eq\n                /* \"ERC165.sol\":235:282   */\n              swap1\n              pop\n                /* \"ERC165.sol\":128:290   */\n              swap2\n              swap1\n              pop\n              jump\t// out\n                /* \"Dron.sol\":209:229   */\n            tag_34:\n              sload(0x05)\n              dup2\n              jump\t// out\n                /* \"Dron.sol\":236:261   */\n            tag_40:\n              0x06\n              dup2\n              dup2\n              sload\n              dup2\n              lt\n              tag_94\n              jumpi\n              0x00\n              dup1\n              revert\n            tag_94:\n              swap1\n              0x00\n              mstore\n              keccak256(0x00, 0x20)\n              add\n              0x00\n              swap2\n              pop\n              swap1\n              pop\n              dup1\n              sload\n              tag_96\n              swap1\n              tag_97\n              jump\t// in\n            tag_96:\n              dup1\n              0x1f\n              add\n              0x20\n              dup1\n              swap2\n              div\n              mul\n              0x20\n              add\n              mload(0x40)\n              swap1\n              dup2\n              add\n              0x40\n              mstore\n              dup1\n              swap3\n              swap2\n              swap1\n              dup2\n              dup2\n              mstore\n              0x20\n              add\n              dup3\n              dup1\n              sload\n              tag_98\n              swap1\n              tag_97\n              jump\t// in\n            tag_98:\n              dup1\n              iszero\n              tag_99\n              jumpi\n              dup1\n              0x1f\n              lt\n              tag_100\n              jumpi\n              0x0100\n              dup1\n              dup4\n              sload\n              div\n              mul\n              dup4\n              mstore\n              swap2\n              0x20\n              add\n              swap2\n              jump(tag_99)\n            tag_100:\n              dup3\n              add\n              swap2\n              swap1\n              0x00\n              mstore\n              keccak256(0x00, 0x20)\n              swap1\n            tag_101:\n              dup2\n              sload\n              dup2\n              mstore\n              swap1\n              0x01\n              add\n              swap1\n              0x20\n              add\n              dup1\n              dup4\n              gt\n              tag_101\n              jumpi\n              dup3\n              swap1\n              sub\n              0x1f\n              and\n              dup3\n              add\n              swap2\n            tag_99:\n              pop\n              pop\n              pop\n              pop\n              pop\n              dup2\n              jump\t// out\n                /* \"Dron.sol\":899:1096   */\n            tag_45:\n                /* \"Dron.sol\":1041:1046   */\n              0x07\n              0x00\n              swap1\n              sload\n              swap1\n              0x0100\n              exp\n              swap1\n              div\n              0xffffffffffffffffffffffffffffffffffffffff\n              and\n                /* \"Dron.sol\":1027:1046   */\n              0xffffffffffffffffffffffffffffffffffffffff\n              and\n                /* \"Dron.sol\":1027:1037   */\n              caller\n                /* \"Dron.sol\":1027:1046   */\n              0xffffffffffffffffffffffffffffffffffffffff\n              and\n              eq\n                /* \"Dron.sol\":1018:1047   */\n              tag_103\n              jumpi\n              0x00\n              dup1\n              revert\n            tag_103:\n                /* \"Dron.sol\":1064:1088   */\n              0x127988bd735ffa5c5534fd889e7069d274b48e633535f314e203463f4ebf87a3\n                /* \"Dron.sol\":1081:1087   */\n              dup2\n                /* \"Dron.sol\":1064:1088   */\n              mload(0x40)\n              tag_104\n              swap2\n              swap1\n              tag_36\n              jump\t// in\n            tag_104:\n              mload(0x40)\n              dup1\n              swap2\n              sub\n              swap1\n              log1\n                /* \"Dron.sol\":899:1096   */\n              pop\n              jump\t// out\n                /* \"Dron.sol\":1572:1659   */\n            tag_49:\n                /* \"Dron.sol\":1645:1651   */\n              dup1\n                /* \"Dron.sol\":1634:1644   */\n              0x07\n              0x14\n                /* \"Dron.sol\":1634:1651   */\n              0x0100\n              exp\n              dup2\n              sload\n              dup2\n              0xff\n              mul\n              not\n              and\n              swap1\n              dup4\n              iszero\n              iszero\n              mul\n              or\n              swap1\n              sstore\n              pop\n                /* \"Dron.sol\":1572:1659   */\n              pop\n              jump\t// out\n                /* \"Dron.sol\":177:202   */\n            tag_51:\n              sload(0x04)\n              dup2\n              jump\t// out\n                /* \"Dron.sol\":145:170   */\n            tag_54:\n              sload(0x03)\n              dup2\n              jump\t// out\n                /* \"Dron.sol\":1368:1464   */\n            tag_57:\n                /* \"Dron.sol\":1414:1421   */\n              0x00\n                /* \"Dron.sol\":1446:1456   */\n              sload(0x04)\n                /* \"Dron.sol\":1439:1456   */\n              swap1\n              pop\n                /* \"Dron.sol\":1368:1464   */\n              swap1\n              jump\t// out\n                /* \"ERC721.sol\":624:852   */\n            tag_61:\n                /* \"ERC721.sol\":697:704   */\n              0x00\n                /* \"ERC721.sol\":722:735   */\n              dup1\n                /* \"ERC721.sol\":738:745   */\n              0x00\n                /* \"ERC721.sol\":738:754   */\n              dup1\n                /* \"ERC721.sol\":746:753   */\n              dup5\n                /* \"ERC721.sol\":738:754   */\n              dup2\n              mstore\n              0x20\n              add\n              swap1\n              dup2\n              mstore\n              0x20\n              add\n              0x00\n              keccak256\n              0x00\n              swap1\n              sload\n              swap1\n              0x0100\n              exp\n              swap1\n              div\n              0xffffffffffffffffffffffffffffffffffffffff\n              and\n                /* \"ERC721.sol\":722:754   */\n              swap1\n              pop\n                /* \"ERC721.sol\":791:792   */\n              0x00\n                /* \"ERC721.sol\":774:793   */\n              0xffffffffffffffffffffffffffffffffffffffff\n              and\n                /* \"ERC721.sol\":774:779   */\n              dup2\n                /* \"ERC721.sol\":774:793   */\n              0xffffffffffffffffffffffffffffffffffffffff\n              and\n              sub\n                /* \"ERC721.sol\":765:821   */\n              tag_108\n              jumpi\n              mload(0x40)\n              0x08c379a000000000000000000000000000000000000000000000000000000000\n              dup2\n              mstore\n              0x04\n              add\n              tag_109\n              swap1\n              tag_110\n              jump\t// in\n            tag_109:\n              mload(0x40)\n              dup1\n              swap2\n              sub\n              swap1\n              revert\n            tag_108:\n                /* \"ERC721.sol\":839:844   */\n              dup1\n                /* \"ERC721.sol\":832:844   */\n              swap2\n              pop\n              pop\n                /* \"ERC721.sol\":624:852   */\n              swap2\n              swap1\n              pop\n              jump\t// out\n                /* \"ERC721.sol\":1108:1302   */\n            tag_67:\n                /* \"ERC721.sol\":1202:1220   */\n              tag_112\n                /* \"ERC721.sol\":1208:1210   */\n              dup4\n                /* \"ERC721.sol\":1212:1219   */\n              dup4\n                /* \"ERC721.sol\":1202:1207   */\n              tag_113\n                /* \"ERC721.sol\":1202:1220   */\n              jump\t// in\n            tag_112:\n                /* \"ERC721.sol\":1239:1293   */\n              tag_114\n                /* \"ERC721.sol\":1270:1271   */\n              0x00\n                /* \"ERC721.sol\":1274:1276   */\n              dup5\n                /* \"ERC721.sol\":1278:1285   */\n              dup5\n                /* \"ERC721.sol\":1287:1292   */\n              dup5\n                /* \"ERC721.sol\":1239:1261   */\n              tag_115\n                /* \"ERC721.sol\":1239:1293   */\n              jump\t// in\n            tag_114:\n                /* \"ERC721.sol\":1231:1294   */\n              tag_116\n              jumpi\n              0x00\n              dup1\n              revert\n            tag_116:\n                /* \"ERC721.sol\":1108:1302   */\n              pop\n              pop\n              pop\n              jump\t// out\n                /* \"ERC721.sol\":863:984   */\n            tag_71:\n                /* \"ERC721.sol\":920:935   */\n              0x00\n                /* \"ERC721.sol\":960:969   */\n              0x01\n                /* \"ERC721.sol\":960:976   */\n              0x00\n                /* \"ERC721.sol\":970:975   */\n              dup4\n                /* \"ERC721.sol\":960:976   */\n              0xffffffffffffffffffffffffffffffffffffffff\n              and\n              0xffffffffffffffffffffffffffffffffffffffff\n              and\n              dup2\n              mstore\n              0x20\n              add\n              swap1\n              dup2\n              mstore\n              0x20\n              add\n              0x00\n              keccak256\n              sload\n                /* \"ERC721.sol\":953:976   */\n              swap1\n              pop\n                /* \"ERC721.sol\":863:984   */\n              swap2\n              swap1\n              pop\n              jump\t// out\n                /* \"Dron.sol\":268:288   */\n            tag_74:\n              0x07\n              0x00\n              swap1\n              sload\n              swap1\n              0x0100\n              exp\n              swap1\n              div\n              0xffffffffffffffffffffffffffffffffffffffff\n              and\n              dup2\n              jump\t// out\n                /* \"ERC721.sol\":992:1099   */\n            tag_79:\n                /* \"ERC721.sol\":1065:1091   */\n              tag_119\n                /* \"ERC721.sol\":1076:1078   */\n              dup3\n                /* \"ERC721.sol\":1079:1086   */\n              dup3\n                /* \"ERC721.sol\":1065:1091   */\n              mload(0x40)\n              dup1\n              0x20\n              add\n              0x40\n              mstore\n              dup1\n              0x00\n              dup2\n              mstore\n              pop\n                /* \"ERC721.sol\":1065:1074   */\n              tag_67\n                /* \"ERC721.sol\":1065:1091   */\n              jump\t// in\n            tag_119:\n                /* \"ERC721.sol\":992:1099   */\n              pop\n              pop\n              jump\t// out\n                /* \"Dron.sol\":1170:1255   */\n            tag_81:\n                /* \"Dron.sol\":1211:1218   */\n              0x00\n                /* \"Dron.sol\":1243:1247   */\n              sload(0x05)\n                /* \"Dron.sol\":1236:1247   */\n              swap1\n              pop\n                /* \"Dron.sol\":1170:1255   */\n              swap1\n              jump\t// out\n                /* \"Dron.sol\":1264:1360   */\n            tag_84:\n                /* \"Dron.sol\":1310:1317   */\n              0x00\n                /* \"Dron.sol\":1342:1352   */\n              sload(0x03)\n                /* \"Dron.sol\":1335:1352   */\n              swap1\n              pop\n                /* \"Dron.sol\":1264:1360   */\n              swap1\n              jump\t// out\n                /* \"Dron.sol\":736:887   */\n            tag_88:\n                /* \"Dron.sol\":850:879   */\n              tag_123\n                /* \"Dron.sol\":867:869   */\n              dup3\n                /* \"Dron.sol\":871:878   */\n              dup3\n                /* \"Dron.sol\":850:866   */\n              tag_79\n                /* \"Dron.sol\":850:879   */\n              jump\t// in\n            tag_123:\n                /* \"Dron.sol\":736:887   */\n              pop\n              pop\n              jump\t// out\n                /* \"Dron.sol\":116:138   */\n            tag_90:\n              sload(0x02)\n              dup2\n              jump\t// out\n                /* \"ERC721.sol\":1310:1786   */\n            tag_113:\n                /* \"ERC721.sol\":1410:1411   */\n              0x00\n                /* \"ERC721.sol\":1396:1412   */\n              0xffffffffffffffffffffffffffffffffffffffff\n              and\n                /* \"ERC721.sol\":1396:1398   */\n              dup3\n                /* \"ERC721.sol\":1396:1412   */\n              0xffffffffffffffffffffffffffffffffffffffff\n              and\n              sub\n                /* \"ERC721.sol\":1388:1455   */\n              tag_125\n              jumpi\n              mload(0x40)\n              0x08c379a000000000000000000000000000000000000000000000000000000000\n              dup2\n              mstore\n              0x04\n              add\n              tag_126\n              swap1\n              tag_127\n              jump\t// in\n            tag_126:\n              mload(0x40)\n              dup1\n              swap2\n              sub\n              swap1\n              revert\n            tag_125:\n                /* \"ERC721.sol\":1476:1492   */\n              tag_128\n                /* \"ERC721.sol\":1484:1491   */\n              dup2\n                /* \"ERC721.sol\":1476:1483   */\n              tag_129\n                /* \"ERC721.sol\":1476:1492   */\n              jump\t// in\n            tag_128:\n                /* \"ERC721.sol\":1475:1492   */\n              iszero\n                /* \"ERC721.sol\":1466:1531   */\n              tag_130\n              jumpi\n              mload(0x40)\n              0x08c379a000000000000000000000000000000000000000000000000000000000\n              dup2\n              mstore\n              0x04\n              add\n              tag_131\n              swap1\n              tag_132\n              jump\t// in\n            tag_131:\n              mload(0x40)\n              dup1\n              swap2\n              sub\n              swap1\n              revert\n            tag_130:\n                /* \"ERC721.sol\":1694:1695   */\n              0x01\n                /* \"ERC721.sol\":1679:1688   */\n              dup1\n                /* \"ERC721.sol\":1679:1692   */\n              0x00\n                /* \"ERC721.sol\":1689:1691   */\n              dup5\n                /* \"ERC721.sol\":1679:1692   */\n              0xffffffffffffffffffffffffffffffffffffffff\n              and\n              0xffffffffffffffffffffffffffffffffffffffff\n              and\n              dup2\n              mstore\n              0x20\n              add\n              swap1\n              dup2\n              mstore\n              0x20\n              add\n              0x00\n              keccak256\n              0x00\n                /* \"ERC721.sol\":1679:1695   */\n              dup3\n              dup3\n              sload\n              tag_133\n              swap2\n              swap1\n              tag_134\n              jump\t// in\n            tag_133:\n              swap3\n              pop\n              pop\n              dup2\n              swap1\n              sstore\n              pop\n                /* \"ERC721.sol\":1725:1727   */\n              dup2\n                /* \"ERC721.sol\":1706:1713   */\n              0x00\n                /* \"ERC721.sol\":1706:1722   */\n              dup1\n                /* \"ERC721.sol\":1714:1721   */\n              dup4\n                /* \"ERC721.sol\":1706:1722   */\n              dup2\n              mstore\n              0x20\n              add\n              swap1\n              dup2\n              mstore\n              0x20\n              add\n              0x00\n              keccak256\n              0x00\n                /* \"ERC721.sol\":1706:1727   */\n              0x0100\n              exp\n              dup2\n              sload\n              dup2\n              0xffffffffffffffffffffffffffffffffffffffff\n              mul\n              not\n              and\n              swap1\n              dup4\n              0xffffffffffffffffffffffffffffffffffffffff\n              and\n              mul\n              or\n              swap1\n              sstore\n              pop\n                /* \"ERC721.sol\":1770:1777   */\n              dup1\n                /* \"ERC721.sol\":1766:1768   */\n              dup3\n                /* \"ERC721.sol\":1745:1778   */\n              0xffffffffffffffffffffffffffffffffffffffff\n              and\n                /* \"ERC721.sol\":1762:1763   */\n              0x00\n                /* \"ERC721.sol\":1745:1778   */\n              0xffffffffffffffffffffffffffffffffffffffff\n              and\n              0xddf252ad1be2c89b69c2b068fc378daa952ba7f163c4a11628f55a4df523b3ef\n              mload(0x40)\n              mload(0x40)\n              dup1\n              swap2\n              sub\n              swap1\n              log4\n                /* \"ERC721.sol\":1310:1786   */\n              pop\n              pop\n              jump\t// out\n                /* \"ERC721.sol\":1965:2754   */\n            tag_115:\n                /* \"ERC721.sol\":2077:2081   */\n              0x00\n                /* \"ERC721.sol\":2104:2118   */\n              tag_136\n                /* \"ERC721.sol\":2115:2117   */\n              dup5\n                /* \"ERC721.sol\":2104:2114   */\n              tag_137\n                /* \"ERC721.sol\":2104:2118   */\n              jump\t// in\n            tag_136:\n                /* \"ERC721.sol\":2100:2747   */\n              iszero\n              tag_138\n              jumpi\n                /* \"ERC721.sol\":2165:2167   */\n              dup4\n                /* \"ERC721.sol\":2149:2185   */\n              0xffffffffffffffffffffffffffffffffffffffff\n              and\n              0x150b7a02\n                /* \"ERC721.sol\":2186:2196   */\n              caller\n                /* \"ERC721.sol\":2198:2202   */\n              dup8\n                /* \"ERC721.sol\":2204:2211   */\n              dup7\n                /* \"ERC721.sol\":2213:2218   */\n              dup7\n                /* \"ERC721.sol\":2149:2219   */\n              mload(0x40)\n              dup6\n              0xffffffff\n              and\n              0xe0\n              shl\n              dup2\n              mstore\n              0x04\n              add\n              tag_139\n              swap5\n              swap4\n              swap3\n              swap2\n              swap1\n              tag_140\n              jump\t// in\n            tag_139:\n              0x20\n              mload(0x40)\n              dup1\n              dup4\n              sub\n              dup2\n              0x00\n              dup8\n              gas\n              call\n              swap3\n              pop\n              pop\n              pop\n              dup1\n              iszero\n              tag_141\n              jumpi\n              pop\n              mload(0x40)\n              returndatasize\n              not(0x1f)\n              0x1f\n              dup3\n              add\n              and\n              dup3\n              add\n              dup1\n              0x40\n              mstore\n              pop\n              dup2\n              add\n              swap1\n              tag_142\n              swap2\n              swap1\n              tag_143\n              jump\t// in\n            tag_142:\n              0x01\n            tag_141:\n                /* \"ERC721.sol\":2145:2672   */\n              tag_144\n              jumpi\n              returndatasize\n              dup1\n              0x00\n              dup2\n              eq\n              tag_149\n              jumpi\n              mload(0x40)\n              swap2\n              pop\n              and(add(returndatasize, 0x3f), not(0x1f))\n              dup3\n              add\n              0x40\n              mstore\n              returndatasize\n              dup3\n              mstore\n              returndatasize\n              0x00\n              0x20\n              dup5\n              add\n              returndatacopy\n              jump(tag_148)\n            tag_149:\n              0x60\n              swap2\n              pop\n            tag_148:\n              pop\n                /* \"ERC721.sol\":2406:2407   */\n              0x00\n                /* \"ERC721.sol\":2389:2395   */\n              dup2\n                /* \"ERC721.sol\":2389:2402   */\n              mload\n                /* \"ERC721.sol\":2389:2407   */\n              sub\n                /* \"ERC721.sol\":2385:2657   */\n              tag_150\n              jumpi\n                /* \"ERC721.sol\":2432:2492   */\n              mload(0x40)\n              0x08c379a000000000000000000000000000000000000000000000000000000000\n              dup2\n              mstore\n              0x04\n              add\n              tag_151\n              swap1\n              tag_152\n              jump\t// in\n            tag_151:\n              mload(0x40)\n              dup1\n              swap2\n              sub\n              swap1\n              revert\n                /* \"ERC721.sol\":2385:2657   */\n            tag_150:\n                /* \"ERC721.sol\":2607:2613   */\n              dup1\n                /* \"ERC721.sol\":2601:2614   */\n              mload\n                /* \"ERC721.sol\":2592:2598   */\n              dup2\n                /* \"ERC721.sol\":2588:2590   */\n              0x20\n                /* \"ERC721.sol\":2584:2599   */\n              add\n                /* \"ERC721.sol\":2577:2615   */\n              revert\n                /* \"ERC721.sol\":2145:2672   */\n            tag_144:\n                /* \"ERC721.sol\":2280:2321   */\n              shl(0xe0, 0x150b7a02)\n                /* \"ERC721.sol\":2270:2321   */\n              not(0xffffffffffffffffffffffffffffffffffffffffffffffffffffffff)\n              and\n                /* \"ERC721.sol\":2270:2276   */\n              dup2\n                /* \"ERC721.sol\":2270:2321   */\n              not(0xffffffffffffffffffffffffffffffffffffffffffffffffffffffff)\n              and\n              eq\n                /* \"ERC721.sol\":2263:2321   */\n              swap2\n              pop\n              pop\n              jump(tag_135)\n                /* \"ERC721.sol\":2100:2747   */\n            tag_138:\n                /* \"ERC721.sol\":2731:2735   */\n              0x01\n                /* \"ERC721.sol\":2724:2735   */\n              swap1\n              pop\n                /* \"ERC721.sol\":1965:2754   */\n            tag_135:\n              swap5\n              swap4\n              pop\n              pop\n              pop\n              pop\n              jump\t// out\n                /* \"ERC721.sol\":1797:1957   */\n            tag_129:\n                /* \"ERC721.sol\":1862:1866   */\n              0x00\n                /* \"ERC721.sol\":1918:1919   */\n              dup1\n                /* \"ERC721.sol\":1891:1920   */\n              0xffffffffffffffffffffffffffffffffffffffff\n              and\n                /* \"ERC721.sol\":1891:1898   */\n              0x00\n                /* \"ERC721.sol\":1891:1907   */\n              dup1\n                /* \"ERC721.sol\":1899:1906   */\n              dup5\n                /* \"ERC721.sol\":1891:1907   */\n              dup2\n              mstore\n              0x20\n              add\n              swap1\n              dup2\n              mstore\n              0x20\n              add\n              0x00\n              keccak256\n              0x00\n              swap1\n              sload\n              swap1\n              0x0100\n              exp\n              swap1\n              div\n              0xffffffffffffffffffffffffffffffffffffffff\n              and\n                /* \"ERC721.sol\":1891:1920   */\n              0xffffffffffffffffffffffffffffffffffffffff\n              and\n              eq\n              iszero\n                /* \"ERC721.sol\":1884:1920   */\n              swap1\n              pop\n                /* \"ERC721.sol\":1797:1957   */\n              swap2\n              swap1\n              pop\n              jump\t// out\n                /* \"ERC721.sol\":2762:2967   */\n            tag_137:\n                /* \"ERC721.sol\":2819:2823   */\n              0x00\n                /* \"ERC721.sol\":2841:2852   */\n              dup1\n                /* \"ERC721.sol\":2917:2922   */\n              dup3\n                /* \"ERC721.sol\":2905:2923   */\n              extcodesize\n                /* \"ERC721.sol\":2897:2923   */\n              swap1\n              pop\n                /* \"ERC721.sol\":2957:2958   */\n              0x00\n                /* \"ERC721.sol\":2952:2956   */\n              dup2\n                /* \"ERC721.sol\":2952:2958   */\n              0xffffffff\n              and\n              gt\n                /* \"ERC721.sol\":2944:2959   */\n              swap2\n              pop\n              pop\n                /* \"ERC721.sol\":2762:2967   */\n              swap2\n              swap1\n              pop\n              jump\t// out\n                /* \"#utility.yul\":7:97   */\n            tag_158:\n                /* \"#utility.yul\":41:48   */\n              0x00\n                /* \"#utility.yul\":84:89   */\n              dup2\n                /* \"#utility.yul\":77:90   */\n              iszero\n                /* \"#utility.yul\":70:91   */\n              iszero\n                /* \"#utility.yul\":59:91   */\n              swap1\n              pop\n                /* \"#utility.yul\":7:97   */\n              swap2\n              swap1\n              pop\n              jump\t// out\n                /* \"#utility.yul\":103:212   */\n            tag_159:\n                /* \"#utility.yul\":184:205   */\n              tag_208\n                /* \"#utility.yul\":199:204   */\n              dup2\n                /* \"#utility.yul\":184:205   */\n              tag_158\n              jump\t// in\n            tag_208:\n                /* \"#utility.yul\":179:182   */\n              dup3\n                /* \"#utility.yul\":172:206   */\n              mstore\n                /* \"#utility.yul\":103:212   */\n              pop\n              pop\n              jump\t// out\n                /* \"#utility.yul\":218:428   */\n            tag_27:\n                /* \"#utility.yul\":305:309   */\n              0x00\n                /* \"#utility.yul\":343:345   */\n              0x20\n                /* \"#utility.yul\":332:341   */\n              dup3\n                /* \"#utility.yul\":328:346   */\n              add\n                /* \"#utility.yul\":320:346   */\n              swap1\n              pop\n                /* \"#utility.yul\":356:421   */\n              tag_210\n                /* \"#utility.yul\":418:419   */\n              0x00\n                /* \"#utility.yul\":407:416   */\n              dup4\n                /* \"#utility.yul\":403:420   */\n              add\n                /* \"#utility.yul\":394:400   */\n              dup5\n                /* \"#utility.yul\":356:421   */\n              tag_159\n              jump\t// in\n            tag_210:\n                /* \"#utility.yul\":218:428   */\n              swap3\n              swap2\n              pop\n              pop\n              jump\t// out\n                /* \"#utility.yul\":434:509   */\n            tag_160:\n                /* \"#utility.yul\":467:473   */\n              0x00\n                /* \"#utility.yul\":500:502   */\n              0x40\n                /* \"#utility.yul\":494:503   */\n              mload\n                /* \"#utility.yul\":484:503   */\n              swap1\n              pop\n                /* \"#utility.yul\":434:509   */\n              swap1\n              jump\t// out\n                /* \"#utility.yul\":515:632   */\n            tag_161:\n                /* \"#utility.yul\":624:625   */\n              0x00\n                /* \"#utility.yul\":621:622   */\n              dup1\n                /* \"#utility.yul\":614:626   */\n              revert\n                /* \"#utility.yul\":638:755   */\n            tag_162:\n                /* \"#utility.yul\":747:748   */\n              0x00\n                /* \"#utility.yul\":744:745   */\n              dup1\n                /* \"#utility.yul\":737:749   */\n              revert\n                /* \"#utility.yul\":761:910   */\n            tag_163:\n                /* \"#utility.yul\":797:804   */\n              0x00\n                /* \"#utility.yul\":837:903   */\n              0xffffffff00000000000000000000000000000000000000000000000000000000\n                /* \"#utility.yul\":830:835   */\n              dup3\n                /* \"#utility.yul\":826:904   */\n              and\n                /* \"#utility.yul\":815:904   */\n              swap1\n              pop\n                /* \"#utility.yul\":761:910   */\n              swap2\n              swap1\n              pop\n              jump\t// out\n                /* \"#utility.yul\":916:1036   */\n            tag_164:\n                /* \"#utility.yul\":988:1011   */\n              tag_216\n                /* \"#utility.yul\":1005:1010   */\n              dup2\n                /* \"#utility.yul\":988:1011   */\n              tag_163\n              jump\t// in\n            tag_216:\n                /* \"#utility.yul\":981:986   */\n              dup2\n                /* \"#utility.yul\":978:1012   */\n              eq\n                /* \"#utility.yul\":968:1030   */\n              tag_217\n              jumpi\n                /* \"#utility.yul\":1026:1027   */\n              0x00\n                /* \"#utility.yul\":1023:1024   */\n              dup1\n                /* \"#utility.yul\":1016:1028   */\n              revert\n                /* \"#utility.yul\":968:1030   */\n            tag_217:\n                /* \"#utility.yul\":916:1036   */\n              pop\n              jump\t// out\n                /* \"#utility.yul\":1042:1179   */\n            tag_165:\n                /* \"#utility.yul\":1087:1092   */\n              0x00\n                /* \"#utility.yul\":1125:1131   */\n              dup2\n                /* \"#utility.yul\":1112:1132   */\n              calldataload\n                /* \"#utility.yul\":1103:1132   */\n              swap1\n              pop\n                /* \"#utility.yul\":1141:1173   */\n              tag_219\n                /* \"#utility.yul\":1167:1172   */\n              dup2\n                /* \"#utility.yul\":1141:1173   */\n              tag_164\n              jump\t// in\n            tag_219:\n                /* \"#utility.yul\":1042:1179   */\n              swap3\n              swap2\n              pop\n              pop\n              jump\t// out\n                /* \"#utility.yul\":1185:1512   */\n            tag_30:\n                /* \"#utility.yul\":1243:1249   */\n              0x00\n                /* \"#utility.yul\":1292:1294   */\n              0x20\n                /* \"#utility.yul\":1280:1289   */\n              dup3\n                /* \"#utility.yul\":1271:1278   */\n              dup5\n                /* \"#utility.yul\":1267:1290   */\n              sub\n                /* \"#utility.yul\":1263:1295   */\n              slt\n                /* \"#utility.yul\":1260:1379   */\n              iszero\n              tag_221\n              jumpi\n                /* \"#utility.yul\":1298:1377   */\n              tag_222\n              tag_161\n              jump\t// in\n            tag_222:\n                /* \"#utility.yul\":1260:1379   */\n            tag_221:\n                /* \"#utility.yul\":1418:1419   */\n              0x00\n                /* \"#utility.yul\":1443:1495   */\n              tag_223\n                /* \"#utility.yul\":1487:1494   */\n              dup5\n                /* \"#utility.yul\":1478:1484   */\n              dup3\n                /* \"#utility.yul\":1467:1476   */\n              dup6\n                /* \"#utility.yul\":1463:1485   */\n              add\n                /* \"#utility.yul\":1443:1495   */\n              tag_165\n              jump\t// in\n            tag_223:\n                /* \"#utility.yul\":1433:1495   */\n              swap2\n              pop\n                /* \"#utility.yul\":1389:1505   */\n              pop\n                /* \"#utility.yul\":1185:1512   */\n              swap3\n              swap2\n              pop\n              pop\n              jump\t// out\n                /* \"#utility.yul\":1518:1595   */\n            tag_166:\n                /* \"#utility.yul\":1555:1562   */\n              0x00\n                /* \"#utility.yul\":1584:1589   */\n              dup2\n                /* \"#utility.yul\":1573:1589   */\n              swap1\n              pop\n                /* \"#utility.yul\":1518:1595   */\n              swap2\n              swap1\n              pop\n              jump\t// out\n                /* \"#utility.yul\":1601:1719   */\n            tag_167:\n                /* \"#utility.yul\":1688:1712   */\n              tag_226\n                /* \"#utility.yul\":1706:1711   */\n              dup2\n                /* \"#utility.yul\":1688:1712   */\n              tag_166\n              jump\t// in\n            tag_226:\n                /* \"#utility.yul\":1683:1686   */\n              dup3\n                /* \"#utility.yul\":1676:1713   */\n              mstore\n                /* \"#utility.yul\":1601:1719   */\n              pop\n              pop\n              jump\t// out\n                /* \"#utility.yul\":1725:1947   */\n            tag_36:\n                /* \"#utility.yul\":1818:1822   */\n              0x00\n                /* \"#utility.yul\":1856:1858   */\n              0x20\n                /* \"#utility.yul\":1845:1854   */\n              dup3\n                /* \"#utility.yul\":1841:1859   */\n              add\n                /* \"#utility.yul\":1833:1859   */\n              swap1\n              pop\n                /* \"#utility.yul\":1869:1940   */\n              tag_228\n                /* \"#utility.yul\":1937:1938   */\n              0x00\n                /* \"#utility.yul\":1926:1935   */\n              dup4\n                /* \"#utility.yul\":1922:1939   */\n              add\n                /* \"#utility.yul\":1913:1919   */\n              dup5\n                /* \"#utility.yul\":1869:1940   */\n              tag_167\n              jump\t// in\n            tag_228:\n                /* \"#utility.yul\":1725:1947   */\n              swap3\n              swap2\n              pop\n              pop\n              jump\t// out\n                /* \"#utility.yul\":1953:2075   */\n            tag_168:\n                /* \"#utility.yul\":2026:2050   */\n              tag_230\n                /* \"#utility.yul\":2044:2049   */\n              dup2\n                /* \"#utility.yul\":2026:2050   */\n              tag_166\n              jump\t// in\n            tag_230:\n                /* \"#utility.yul\":2019:2024   */\n              dup2\n                /* \"#utility.yul\":2016:2051   */\n              eq\n                /* \"#utility.yul\":2006:2069   */\n              tag_231\n              jumpi\n                /* \"#utility.yul\":2065:2066   */\n              0x00\n                /* \"#utility.yul\":2062:2063   */\n              dup1\n                /* \"#utility.yul\":2055:2067   */\n              revert\n                /* \"#utility.yul\":2006:2069   */\n            tag_231:\n                /* \"#utility.yul\":1953:2075   */\n              pop\n              jump\t// out\n                /* \"#utility.yul\":2081:2220   */\n            tag_169:\n                /* \"#utility.yul\":2127:2132   */\n              0x00\n                /* \"#utility.yul\":2165:2171   */\n              dup2\n                /* \"#utility.yul\":2152:2172   */\n              calldataload\n                /* \"#utility.yul\":2143:2172   */\n              swap1\n              pop\n                /* \"#utility.yul\":2181:2214   */\n              tag_233\n                /* \"#utility.yul\":2208:2213   */\n              dup2\n                /* \"#utility.yul\":2181:2214   */\n              tag_168\n              jump\t// in\n            tag_233:\n                /* \"#utility.yul\":2081:2220   */\n              swap3\n              swap2\n              pop\n              pop\n              jump\t// out\n                /* \"#utility.yul\":2226:2555   */\n            tag_39:\n                /* \"#utility.yul\":2285:2291   */\n              0x00\n                /* \"#utility.yul\":2334:2336   */\n              0x20\n                /* \"#utility.yul\":2322:2331   */\n              dup3\n                /* \"#utility.yul\":2313:2320   */\n              dup5\n                /* \"#utility.yul\":2309:2332   */\n              sub\n                /* \"#utility.yul\":2305:2337   */\n              slt\n                /* \"#utility.yul\":2302:2421   */\n              iszero\n              tag_235\n              jumpi\n                /* \"#utility.yul\":2340:2419   */\n              tag_236\n              tag_161\n              jump\t// in\n            tag_236:\n                /* \"#utility.yul\":2302:2421   */\n            tag_235:\n                /* \"#utility.yul\":2460:2461   */\n              0x00\n                /* \"#utility.yul\":2485:2538   */\n              tag_237\n                /* \"#utility.yul\":2530:2537   */\n              dup5\n                /* \"#utility.yul\":2521:2527   */\n              dup3\n                /* \"#utility.yul\":2510:2519   */\n              dup6\n                /* \"#utility.yul\":2506:2528   */\n              add\n                /* \"#utility.yul\":2485:2538   */\n              tag_169\n              jump\t// in\n            tag_237:\n                /* \"#utility.yul\":2475:2538   */\n              swap2\n              pop\n                /* \"#utility.yul\":2431:2548   */\n              pop\n                /* \"#utility.yul\":2226:2555   */\n              swap3\n              swap2\n              pop\n              pop\n              jump\t// out\n                /* \"#utility.yul\":2561:2660   */\n            tag_170:\n                /* \"#utility.yul\":2613:2619   */\n              0x00\n                /* \"#utility.yul\":2647:2652   */\n              dup2\n                /* \"#utility.yul\":2641:2653   */\n              mload\n                /* \"#utility.yul\":2631:2653   */\n              swap1\n              pop\n                /* \"#utility.yul\":2561:2660   */\n              swap2\n              swap1\n              pop\n              jump\t// out\n                /* \"#utility.yul\":2666:2835   */\n            tag_171:\n                /* \"#utility.yul\":2750:2761   */\n              0x00\n                /* \"#utility.yul\":2784:2790   */\n              dup3\n                /* \"#utility.yul\":2779:2782   */\n              dup3\n                /* \"#utility.yul\":2772:2791   */\n              mstore\n                /* \"#utility.yul\":2824:2828   */\n              0x20\n                /* \"#utility.yul\":2819:2822   */\n              dup3\n                /* \"#utility.yul\":2815:2829   */\n              add\n                /* \"#utility.yul\":2800:2829   */\n              swap1\n              pop\n                /* \"#utility.yul\":2666:2835   */\n              swap3\n              swap2\n              pop\n              pop\n              jump\t// out\n                /* \"#utility.yul\":2841:3148   */\n            tag_172:\n                /* \"#utility.yul\":2909:2910   */\n              0x00\n                /* \"#utility.yul\":2919:3032   */\n            tag_241:\n                /* \"#utility.yul\":2933:2939   */\n              dup4\n                /* \"#utility.yul\":2930:2931   */\n              dup2\n                /* \"#utility.yul\":2927:2940   */\n              lt\n                /* \"#utility.yul\":2919:3032   */\n              iszero\n              tag_243\n              jumpi\n                /* \"#utility.yul\":3018:3019   */\n              dup1\n                /* \"#utility.yul\":3013:3016   */\n              dup3\n                /* \"#utility.yul\":3009:3020   */\n              add\n                /* \"#utility.yul\":3003:3021   */\n              mload\n                /* \"#utility.yul\":2999:3000   */\n              dup2\n                /* \"#utility.yul\":2994:2997   */\n              dup5\n                /* \"#utility.yul\":2990:3001   */\n              add\n                /* \"#utility.yul\":2983:3022   */\n              mstore\n                /* \"#utility.yul\":2955:2957   */\n              0x20\n                /* \"#utility.yul\":2952:2953   */\n              dup2\n                /* \"#utility.yul\":2948:2958   */\n              add\n                /* \"#utility.yul\":2943:2958   */\n              swap1\n              pop\n                /* \"#utility.yul\":2919:3032   */\n              jump(tag_241)\n            tag_243:\n                /* \"#utility.yul\":3050:3056   */\n              dup4\n                /* \"#utility.yul\":3047:3048   */\n              dup2\n                /* \"#utility.yul\":3044:3057   */\n              gt\n                /* \"#utility.yul\":3041:3142   */\n              iszero\n              tag_244\n              jumpi\n                /* \"#utility.yul\":3130:3131   */\n              0x00\n                /* \"#utility.yul\":3121:3127   */\n              dup5\n                /* \"#utility.yul\":3116:3119   */\n              dup5\n                /* \"#utility.yul\":3112:3128   */\n              add\n                /* \"#utility.yul\":3105:3132   */\n              mstore\n                /* \"#utility.yul\":3041:3142   */\n            tag_244:\n                /* \"#utility.yul\":2890:3148   */\n              pop\n                /* \"#utility.yul\":2841:3148   */\n              pop\n              pop\n              pop\n              jump\t// out\n                /* \"#utility.yul\":3154:3256   */\n            tag_173:\n                /* \"#utility.yul\":3195:3201   */\n              0x00\n                /* \"#utility.yul\":3246:3248   */\n              0x1f\n                /* \"#utility.yul\":3242:3249   */\n              not\n                /* \"#utility.yul\":3237:3239   */\n              0x1f\n                /* \"#utility.yul\":3230:3235   */\n              dup4\n                /* \"#utility.yul\":3226:3240   */\n              add\n                /* \"#utility.yul\":3222:3250   */\n              and\n                /* \"#utility.yul\":3212:3250   */\n              swap1\n              pop\n                /* \"#utility.yul\":3154:3256   */\n              swap2\n              swap1\n              pop\n              jump\t// out\n                /* \"#utility.yul\":3262:3626   */\n            tag_174:\n                /* \"#utility.yul\":3350:3353   */\n              0x00\n                /* \"#utility.yul\":3378:3417   */\n              tag_247\n                /* \"#utility.yul\":3411:3416   */\n              dup3\n                /* \"#utility.yul\":3378:3417   */\n              tag_170\n              jump\t// in\n            tag_247:\n                /* \"#utility.yul\":3433:3504   */\n              tag_248\n                /* \"#utility.yul\":3497:3503   */\n              dup2\n                /* \"#utility.yul\":3492:3495   */\n              dup6\n                /* \"#utility.yul\":3433:3504   */\n              tag_171\n              jump\t// in\n            tag_248:\n                /* \"#utility.yul\":3426:3504   */\n              swap4\n              pop\n                /* \"#utility.yul\":3513:3565   */\n              tag_249\n                /* \"#utility.yul\":3558:3564   */\n              dup2\n                /* \"#utility.yul\":3553:3556   */\n              dup6\n                /* \"#utility.yul\":3546:3550   */\n              0x20\n                /* \"#utility.yul\":3539:3544   */\n              dup7\n                /* \"#utility.yul\":3535:3551   */\n              add\n                /* \"#utility.yul\":3513:3565   */\n              tag_172\n              jump\t// in\n            tag_249:\n                /* \"#utility.yul\":3590:3619   */\n              tag_250\n                /* \"#utility.yul\":3612:3618   */\n              dup2\n                /* \"#utility.yul\":3590:3619   */\n              tag_173\n              jump\t// in\n            tag_250:\n                /* \"#utility.yul\":3585:3588   */\n              dup5\n                /* \"#utility.yul\":3581:3620   */\n              add\n                /* \"#utility.yul\":3574:3620   */\n              swap2\n              pop\n                /* \"#utility.yul\":3354:3626   */\n              pop\n                /* \"#utility.yul\":3262:3626   */\n              swap3\n              swap2\n              pop\n              pop\n              jump\t// out\n                /* \"#utility.yul\":3632:3945   */\n            tag_42:\n                /* \"#utility.yul\":3745:3749   */\n              0x00\n                /* \"#utility.yul\":3783:3785   */\n              0x20\n                /* \"#utility.yul\":3772:3781   */\n              dup3\n                /* \"#utility.yul\":3768:3786   */\n              add\n                /* \"#utility.yul\":3760:3786   */\n              swap1\n              pop\n                /* \"#utility.yul\":3832:3841   */\n              dup2\n                /* \"#utility.yul\":3826:3830   */\n              dup2\n                /* \"#utility.yul\":3822:3842   */\n              sub\n                /* \"#utility.yul\":3818:3819   */\n              0x00\n                /* \"#utility.yul\":3807:3816   */\n              dup4\n                /* \"#utility.yul\":3803:3820   */\n              add\n                /* \"#utility.yul\":3796:3843   */\n              mstore\n                /* \"#utility.yul\":3860:3938   */\n              tag_252\n                /* \"#utility.yul\":3933:3937   */\n              dup2\n                /* \"#utility.yul\":3924:3930   */\n              dup5\n                /* \"#utility.yul\":3860:3938   */\n              tag_174\n              jump\t// in\n            tag_252:\n                /* \"#utility.yul\":3852:3938   */\n              swap1\n              pop\n                /* \"#utility.yul\":3632:3945   */\n              swap3\n              swap2\n              pop\n              pop\n              jump\t// out\n                /* \"#utility.yul\":3951:4067   */\n            tag_175:\n                /* \"#utility.yul\":4021:4042   */\n              tag_254\n                /* \"#utility.yul\":4036:4041   */\n              dup2\n                /* \"#utility.yul\":4021:4042   */\n              tag_158\n              jump\t// in\n            tag_254:\n                /* \"#utility.yul\":4014:4019   */\n              dup2\n                /* \"#utility.yul\":4011:4043   */\n              eq\n                /* \"#utility.yul\":4001:4061   */\n              tag_255\n              jumpi\n                /* \"#utility.yul\":4057:4058   */\n              0x00\n                /* \"#utility.yul\":4054:4055   */\n              dup1\n                /* \"#utility.yul\":4047:4059   */\n              revert\n                /* \"#utility.yul\":4001:4061   */\n            tag_255:\n                /* \"#utility.yul\":3951:4067   */\n              pop\n              jump\t// out\n                /* \"#utility.yul\":4073:4206   */\n            tag_176:\n                /* \"#utility.yul\":4116:4121   */\n              0x00\n                /* \"#utility.yul\":4154:4160   */\n              dup2\n                /* \"#utility.yul\":4141:4161   */\n              calldataload\n                /* \"#utility.yul\":4132:4161   */\n              swap1\n              pop\n                /* \"#utility.yul\":4170:4200   */\n              tag_257\n                /* \"#utility.yul\":4194:4199   */\n              dup2\n                /* \"#utility.yul\":4170:4200   */\n              tag_175\n              jump\t// in\n            tag_257:\n                /* \"#utility.yul\":4073:4206   */\n              swap3\n              swap2\n              pop\n              pop\n              jump\t// out\n                /* \"#utility.yul\":4212:4535   */\n            tag_48:\n                /* \"#utility.yul\":4268:4274   */\n              0x00\n                /* \"#utility.yul\":4317:4319   */\n              0x20\n                /* \"#utility.yul\":4305:4314   */\n              dup3\n                /* \"#utility.yul\":4296:4303   */\n              dup5\n                /* \"#utility.yul\":4292:4315   */\n              sub\n                /* \"#utility.yul\":4288:4320   */\n              slt\n                /* \"#utility.yul\":4285:4404   */\n              iszero\n              tag_259\n              jumpi\n                /* \"#utility.yul\":4323:4402   */\n              tag_260\n              tag_161\n              jump\t// in\n            tag_260:\n                /* \"#utility.yul\":4285:4404   */\n            tag_259:\n                /* \"#utility.yul\":4443:4444   */\n              0x00\n                /* \"#utility.yul\":4468:4518   */\n              tag_261\n                /* \"#utility.yul\":4510:4517   */\n              dup5\n                /* \"#utility.yul\":4501:4507   */\n              dup3\n                /* \"#utility.yul\":4490:4499   */\n              dup6\n                /* \"#utility.yul\":4486:4508   */\n              add\n                /* \"#utility.yul\":4468:4518   */\n              tag_176\n              jump\t// in\n            tag_261:\n                /* \"#utility.yul\":4458:4518   */\n              swap2\n              pop\n                /* \"#utility.yul\":4414:4528   */\n              pop\n                /* \"#utility.yul\":4212:4535   */\n              swap3\n              swap2\n              pop\n              pop\n              jump\t// out\n                /* \"#utility.yul\":4541:4667   */\n            tag_177:\n                /* \"#utility.yul\":4578:4585   */\n              0x00\n                /* \"#utility.yul\":4618:4660   */\n              0xffffffffffffffffffffffffffffffffffffffff\n                /* \"#utility.yul\":4611:4616   */\n              dup3\n                /* \"#utility.yul\":4607:4661   */\n              and\n                /* \"#utility.yul\":4596:4661   */\n              swap1\n              pop\n                /* \"#utility.yul\":4541:4667   */\n              swap2\n              swap1\n              pop\n              jump\t// out\n                /* \"#utility.yul\":4673:4769   */\n            tag_178:\n                /* \"#utility.yul\":4710:4717   */\n              0x00\n                /* \"#utility.yul\":4739:4763   */\n              tag_264\n                /* \"#utility.yul\":4757:4762   */\n              dup3\n                /* \"#utility.yul\":4739:4763   */\n              tag_177\n              jump\t// in\n            tag_264:\n                /* \"#utility.yul\":4728:4763   */\n              swap1\n              pop\n                /* \"#utility.yul\":4673:4769   */\n              swap2\n              swap1\n              pop\n              jump\t// out\n                /* \"#utility.yul\":4775:4893   */\n            tag_179:\n                /* \"#utility.yul\":4862:4886   */\n              tag_266\n                /* \"#utility.yul\":4880:4885   */\n              dup2\n                /* \"#utility.yul\":4862:4886   */\n              tag_178\n              jump\t// in\n            tag_266:\n                /* \"#utility.yul\":4857:4860   */\n              dup3\n                /* \"#utility.yul\":4850:4887   */\n              mstore\n                /* \"#utility.yul\":4775:4893   */\n              pop\n              pop\n              jump\t// out\n                /* \"#utility.yul\":4899:5121   */\n            tag_63:\n                /* \"#utility.yul\":4992:4996   */\n              0x00\n                /* \"#utility.yul\":5030:5032   */\n              0x20\n                /* \"#utility.yul\":5019:5028   */\n              dup3\n                /* \"#utility.yul\":5015:5033   */\n              add\n                /* \"#utility.yul\":5007:5033   */\n              swap1\n              pop\n                /* \"#utility.yul\":5043:5114   */\n              tag_268\n                /* \"#utility.yul\":5111:5112   */\n              0x00\n                /* \"#utility.yul\":5100:5109   */\n              dup4\n                /* \"#utility.yul\":5096:5113   */\n              add\n                /* \"#utility.yul\":5087:5093   */\n              dup5\n                /* \"#utility.yul\":5043:5114   */\n              tag_179\n              jump\t// in\n            tag_268:\n                /* \"#utility.yul\":4899:5121   */\n              swap3\n              swap2\n              pop\n              pop\n              jump\t// out\n                /* \"#utility.yul\":5127:5249   */\n            tag_180:\n                /* \"#utility.yul\":5200:5224   */\n              tag_270\n                /* \"#utility.yul\":5218:5223   */\n              dup2\n                /* \"#utility.yul\":5200:5224   */\n              tag_178\n              jump\t// in\n            tag_270:\n                /* \"#utility.yul\":5193:5198   */\n              dup2\n                /* \"#utility.yul\":5190:5225   */\n              eq\n                /* \"#utility.yul\":5180:5243   */\n              tag_271\n              jumpi\n                /* \"#utility.yul\":5239:5240   */\n              0x00\n                /* \"#utility.yul\":5236:5237   */\n              dup1\n                /* \"#utility.yul\":5229:5241   */\n              revert\n                /* \"#utility.yul\":5180:5243   */\n            tag_271:\n                /* \"#utility.yul\":5127:5249   */\n              pop\n              jump\t// out\n                /* \"#utility.yul\":5255:5394   */\n            tag_181:\n                /* \"#utility.yul\":5301:5306   */\n              0x00\n                /* \"#utility.yul\":5339:5345   */\n              dup2\n                /* \"#utility.yul\":5326:5346   */\n              calldataload\n                /* \"#utility.yul\":5317:5346   */\n              swap1\n              pop\n                /* \"#utility.yul\":5355:5388   */\n              tag_273\n                /* \"#utility.yul\":5382:5387   */\n              dup2\n                /* \"#utility.yul\":5355:5388   */\n              tag_180\n              jump\t// in\n            tag_273:\n                /* \"#utility.yul\":5255:5394   */\n              swap3\n              swap2\n              pop\n              pop\n              jump\t// out\n                /* \"#utility.yul\":5400:5517   */\n            tag_182:\n                /* \"#utility.yul\":5509:5510   */\n              0x00\n                /* \"#utility.yul\":5506:5507   */\n              dup1\n                /* \"#utility.yul\":5499:5511   */\n              revert\n                /* \"#utility.yul\":5523:5640   */\n            tag_183:\n                /* \"#utility.yul\":5632:5633   */\n              0x00\n                /* \"#utility.yul\":5629:5630   */\n              dup1\n                /* \"#utility.yul\":5622:5634   */\n              revert\n                /* \"#utility.yul\":5646:5826   */\n            tag_184:\n                /* \"#utility.yul\":5694:5771   */\n              0x4e487b7100000000000000000000000000000000000000000000000000000000\n                /* \"#utility.yul\":5691:5692   */\n              0x00\n                /* \"#utility.yul\":5684:5772   */\n              mstore\n                /* \"#utility.yul\":5791:5795   */\n              0x41\n                /* \"#utility.yul\":5788:5789   */\n              0x04\n                /* \"#utility.yul\":5781:5796   */\n              mstore\n                /* \"#utility.yul\":5815:5819   */\n              0x24\n                /* \"#utility.yul\":5812:5813   */\n              0x00\n                /* \"#utility.yul\":5805:5820   */\n              revert\n                /* \"#utility.yul\":5832:6113   */\n            tag_185:\n                /* \"#utility.yul\":5915:5942   */\n              tag_278\n                /* \"#utility.yul\":5937:5941   */\n              dup3\n                /* \"#utility.yul\":5915:5942   */\n              tag_173\n              jump\t// in\n            tag_278:\n                /* \"#utility.yul\":5907:5913   */\n              dup2\n                /* \"#utility.yul\":5903:5943   */\n              add\n                /* \"#utility.yul\":6045:6051   */\n              dup2\n                /* \"#utility.yul\":6033:6043   */\n              dup2\n                /* \"#utility.yul\":6030:6052   */\n              lt\n                /* \"#utility.yul\":6009:6027   */\n              0xffffffffffffffff\n                /* \"#utility.yul\":5997:6007   */\n              dup3\n                /* \"#utility.yul\":5994:6028   */\n              gt\n                /* \"#utility.yul\":5991:6053   */\n              or\n                /* \"#utility.yul\":5988:6076   */\n              iszero\n              tag_279\n              jumpi\n                /* \"#utility.yul\":6056:6074   */\n              tag_280\n              tag_184\n              jump\t// in\n            tag_280:\n                /* \"#utility.yul\":5988:6076   */\n            tag_279:\n                /* \"#utility.yul\":6096:6106   */\n              dup1\n                /* \"#utility.yul\":6092:6094   */\n              0x40\n                /* \"#utility.yul\":6085:6107   */\n              mstore\n                /* \"#utility.yul\":5875:6113   */\n              pop\n                /* \"#utility.yul\":5832:6113   */\n              pop\n              pop\n              jump\t// out\n                /* \"#utility.yul\":6119:6248   */\n            tag_186:\n                /* \"#utility.yul\":6153:6159   */\n              0x00\n                /* \"#utility.yul\":6180:6200   */\n              tag_282\n              tag_160\n              jump\t// in\n            tag_282:\n                /* \"#utility.yul\":6170:6200   */\n              swap1\n              pop\n                /* \"#utility.yul\":6209:6242   */\n              tag_283\n                /* \"#utility.yul\":6237:6241   */\n              dup3\n                /* \"#utility.yul\":6229:6235   */\n              dup3\n                /* \"#utility.yul\":6209:6242   */\n              tag_185\n              jump\t// in\n            tag_283:\n                /* \"#utility.yul\":6119:6248   */\n              swap2\n              swap1\n              pop\n              jump\t// out\n                /* \"#utility.yul\":6254:6561   */\n            tag_187:\n                /* \"#utility.yul\":6315:6319   */\n              0x00\n                /* \"#utility.yul\":6405:6423   */\n              0xffffffffffffffff\n                /* \"#utility.yul\":6397:6403   */\n              dup3\n                /* \"#utility.yul\":6394:6424   */\n              gt\n                /* \"#utility.yul\":6391:6447   */\n              iszero\n              tag_285\n              jumpi\n                /* \"#utility.yul\":6427:6445   */\n              tag_286\n              tag_184\n              jump\t// in\n            tag_286:\n                /* \"#utility.yul\":6391:6447   */\n            tag_285:\n                /* \"#utility.yul\":6465:6494   */\n              tag_287\n                /* \"#utility.yul\":6487:6493   */\n              dup3\n                /* \"#utility.yul\":6465:6494   */\n              tag_173\n              jump\t// in\n            tag_287:\n                /* \"#utility.yul\":6457:6494   */\n              swap1\n              pop\n                /* \"#utility.yul\":6549:6553   */\n              0x20\n                /* \"#utility.yul\":6543:6547   */\n              dup2\n                /* \"#utility.yul\":6539:6554   */\n              add\n                /* \"#utility.yul\":6531:6554   */\n              swap1\n              pop\n                /* \"#utility.yul\":6254:6561   */\n              swap2\n              swap1\n              pop\n              jump\t// out\n                /* \"#utility.yul\":6567:6721   */\n            tag_188:\n                /* \"#utility.yul\":6651:6657   */\n              dup3\n                /* \"#utility.yul\":6646:6649   */\n              dup2\n                /* \"#utility.yul\":6641:6644   */\n              dup4\n                /* \"#utility.yul\":6628:6658   */\n              calldatacopy\n                /* \"#utility.yul\":6713:6714   */\n              0x00\n                /* \"#utility.yul\":6704:6710   */\n              dup4\n                /* \"#utility.yul\":6699:6702   */\n              dup4\n                /* \"#utility.yul\":6695:6711   */\n              add\n                /* \"#utility.yul\":6688:6715   */\n              mstore\n                /* \"#utility.yul\":6567:6721   */\n              pop\n              pop\n              pop\n              jump\t// out\n                /* \"#utility.yul\":6727:7137   */\n            tag_189:\n                /* \"#utility.yul\":6804:6809   */\n              0x00\n                /* \"#utility.yul\":6829:6894   */\n              tag_290\n                /* \"#utility.yul\":6845:6893   */\n              tag_291\n                /* \"#utility.yul\":6886:6892   */\n              dup5\n                /* \"#utility.yul\":6845:6893   */\n              tag_187\n              jump\t// in\n            tag_291:\n                /* \"#utility.yul\":6829:6894   */\n              tag_186\n              jump\t// in\n            tag_290:\n                /* \"#utility.yul\":6820:6894   */\n              swap1\n              pop\n                /* \"#utility.yul\":6917:6923   */\n              dup3\n                /* \"#utility.yul\":6910:6915   */\n              dup2\n                /* \"#utility.yul\":6903:6924   */\n              mstore\n                /* \"#utility.yul\":6955:6959   */\n              0x20\n                /* \"#utility.yul\":6948:6953   */\n              dup2\n                /* \"#utility.yul\":6944:6960   */\n              add\n                /* \"#utility.yul\":6993:6996   */\n              dup5\n                /* \"#utility.yul\":6984:6990   */\n              dup5\n                /* \"#utility.yul\":6979:6982   */\n              dup5\n                /* \"#utility.yul\":6975:6991   */\n              add\n                /* \"#utility.yul\":6972:6997   */\n              gt\n                /* \"#utility.yul\":6969:7081   */\n              iszero\n              tag_292\n              jumpi\n                /* \"#utility.yul\":7000:7079   */\n              tag_293\n              tag_183\n              jump\t// in\n            tag_293:\n                /* \"#utility.yul\":6969:7081   */\n            tag_292:\n                /* \"#utility.yul\":7090:7131   */\n              tag_294\n                /* \"#utility.yul\":7124:7130   */\n              dup5\n                /* \"#utility.yul\":7119:7122   */\n              dup3\n                /* \"#utility.yul\":7114:7117   */\n              dup6\n                /* \"#utility.yul\":7090:7131   */\n              tag_188\n              jump\t// in\n            tag_294:\n                /* \"#utility.yul\":6810:7137   */\n              pop\n                /* \"#utility.yul\":6727:7137   */\n              swap4\n              swap3\n              pop\n              pop\n              pop\n              jump\t// out\n                /* \"#utility.yul\":7156:7494   */\n            tag_190:\n                /* \"#utility.yul\":7211:7216   */\n              0x00\n                /* \"#utility.yul\":7260:7263   */\n              dup3\n                /* \"#utility.yul\":7253:7257   */\n              0x1f\n                /* \"#utility.yul\":7245:7251   */\n              dup4\n                /* \"#utility.yul\":7241:7258   */\n              add\n                /* \"#utility.yul\":7237:7264   */\n              slt\n                /* \"#utility.yul\":7227:7349   */\n              tag_296\n              jumpi\n                /* \"#utility.yul\":7268:7347   */\n              tag_297\n              tag_182\n              jump\t// in\n            tag_297:\n                /* \"#utility.yul\":7227:7349   */\n            tag_296:\n                /* \"#utility.yul\":7385:7391   */\n              dup2\n                /* \"#utility.yul\":7372:7392   */\n              calldataload\n                /* \"#utility.yul\":7410:7488   */\n              tag_298\n                /* \"#utility.yul\":7484:7487   */\n              dup5\n                /* \"#utility.yul\":7476:7482   */\n              dup3\n                /* \"#utility.yul\":7469:7473   */\n              0x20\n                /* \"#utility.yul\":7461:7467   */\n              dup7\n                /* \"#utility.yul\":7457:7474   */\n              add\n                /* \"#utility.yul\":7410:7488   */\n              tag_189\n              jump\t// in\n            tag_298:\n                /* \"#utility.yul\":7401:7488   */\n              swap2\n              pop\n                /* \"#utility.yul\":7217:7494   */\n              pop\n                /* \"#utility.yul\":7156:7494   */\n              swap3\n              swap2\n              pop\n              pop\n              jump\t// out\n                /* \"#utility.yul\":7500:8297   */\n            tag_66:\n                /* \"#utility.yul\":7586:7592   */\n              0x00\n                /* \"#utility.yul\":7594:7600   */\n              dup1\n                /* \"#utility.yul\":7602:7608   */\n              0x00\n                /* \"#utility.yul\":7651:7653   */\n              0x60\n                /* \"#utility.yul\":7639:7648   */\n              dup5\n                /* \"#utility.yul\":7630:7637   */\n              dup7\n                /* \"#utility.yul\":7626:7649   */\n              sub\n                /* \"#utility.yul\":7622:7654   */\n              slt\n                /* \"#utility.yul\":7619:7738   */\n              iszero\n              tag_300\n              jumpi\n                /* \"#utility.yul\":7657:7736   */\n              tag_301\n              tag_161\n              jump\t// in\n            tag_301:\n                /* \"#utility.yul\":7619:7738   */\n            tag_300:\n                /* \"#utility.yul\":7777:7778   */\n              0x00\n                /* \"#utility.yul\":7802:7855   */\n              tag_302\n                /* \"#utility.yul\":7847:7854   */\n              dup7\n                /* \"#utility.yul\":7838:7844   */\n              dup3\n                /* \"#utility.yul\":7827:7836   */\n              dup8\n                /* \"#utility.yul\":7823:7845   */\n              add\n                /* \"#utility.yul\":7802:7855   */\n              tag_181\n              jump\t// in\n            tag_302:\n                /* \"#utility.yul\":7792:7855   */\n              swap4\n              pop\n                /* \"#utility.yul\":7748:7865   */\n              pop\n                /* \"#utility.yul\":7904:7906   */\n              0x20\n                /* \"#utility.yul\":7930:7983   */\n              tag_303\n                /* \"#utility.yul\":7975:7982   */\n              dup7\n                /* \"#utility.yul\":7966:7972   */\n              dup3\n                /* \"#utility.yul\":7955:7964   */\n              dup8\n                /* \"#utility.yul\":7951:7973   */\n              add\n                /* \"#utility.yul\":7930:7983   */\n              tag_169\n              jump\t// in\n            tag_303:\n                /* \"#utility.yul\":7920:7983   */\n              swap3\n              pop\n                /* \"#utility.yul\":7875:7993   */\n              pop\n                /* \"#utility.yul\":8060:8062   */\n              0x40\n                /* \"#utility.yul\":8049:8058   */\n              dup5\n                /* \"#utility.yul\":8045:8063   */\n              add\n                /* \"#utility.yul\":8032:8064   */\n              calldataload\n                /* \"#utility.yul\":8091:8109   */\n              0xffffffffffffffff\n                /* \"#utility.yul\":8083:8089   */\n              dup2\n                /* \"#utility.yul\":8080:8110   */\n              gt\n                /* \"#utility.yul\":8077:8194   */\n              iszero\n              tag_304\n              jumpi\n                /* \"#utility.yul\":8113:8192   */\n              tag_305\n              tag_162\n              jump\t// in\n            tag_305:\n                /* \"#utility.yul\":8077:8194   */\n            tag_304:\n                /* \"#utility.yul\":8218:8280   */\n              tag_306\n                /* \"#utility.yul\":8272:8279   */\n              dup7\n                /* \"#utility.yul\":8263:8269   */\n              dup3\n                /* \"#utility.yul\":8252:8261   */\n              dup8\n                /* \"#utility.yul\":8248:8270   */\n              add\n                /* \"#utility.yul\":8218:8280   */\n              tag_190\n              jump\t// in\n            tag_306:\n                /* \"#utility.yul\":8208:8280   */\n              swap2\n              pop\n                /* \"#utility.yul\":8003:8290   */\n              pop\n                /* \"#utility.yul\":7500:8297   */\n              swap3\n              pop\n              swap3\n              pop\n              swap3\n              jump\t// out\n                /* \"#utility.yul\":8303:8632   */\n            tag_70:\n                /* \"#utility.yul\":8362:8368   */\n              0x00\n                /* \"#utility.yul\":8411:8413   */\n              0x20\n                /* \"#utility.yul\":8399:8408   */\n              dup3\n                /* \"#utility.yul\":8390:8397   */\n              dup5\n                /* \"#utility.yul\":8386:8409   */\n              sub\n                /* \"#utility.yul\":8382:8414   */\n              slt\n                /* \"#utility.yul\":8379:8498   */\n              iszero\n              tag_308\n              jumpi\n                /* \"#utility.yul\":8417:8496   */\n              tag_309\n              tag_161\n              jump\t// in\n            tag_309:\n                /* \"#utility.yul\":8379:8498   */\n            tag_308:\n                /* \"#utility.yul\":8537:8538   */\n              0x00\n                /* \"#utility.yul\":8562:8615   */\n              tag_310\n                /* \"#utility.yul\":8607:8614   */\n              dup5\n                /* \"#utility.yul\":8598:8604   */\n              dup3\n                /* \"#utility.yul\":8587:8596   */\n              dup6\n                /* \"#utility.yul\":8583:8605   */\n              add\n                /* \"#utility.yul\":8562:8615   */\n              tag_181\n              jump\t// in\n            tag_310:\n                /* \"#utility.yul\":8552:8615   */\n              swap2\n              pop\n                /* \"#utility.yul\":8508:8625   */\n              pop\n                /* \"#utility.yul\":8303:8632   */\n              swap3\n              swap2\n              pop\n              pop\n              jump\t// out\n                /* \"#utility.yul\":8638:9112   */\n            tag_78:\n                /* \"#utility.yul\":8706:8712   */\n              0x00\n                /* \"#utility.yul\":8714:8720   */\n              dup1\n                /* \"#utility.yul\":8763:8765   */\n              0x40\n                /* \"#utility.yul\":8751:8760   */\n              dup4\n                /* \"#utility.yul\":8742:8749   */\n              dup6\n                /* \"#utility.yul\":8738:8761   */\n              sub\n                /* \"#utility.yul\":8734:8766   */\n              slt\n                /* \"#utility.yul\":8731:8850   */\n              iszero\n              tag_312\n              jumpi\n                /* \"#utility.yul\":8769:8848   */\n              tag_313\n              tag_161\n              jump\t// in\n            tag_313:\n                /* \"#utility.yul\":8731:8850   */\n            tag_312:\n                /* \"#utility.yul\":8889:8890   */\n              0x00\n                /* \"#utility.yul\":8914:8967   */\n              tag_314\n                /* \"#utility.yul\":8959:8966   */\n              dup6\n                /* \"#utility.yul\":8950:8956   */\n              dup3\n                /* \"#utility.yul\":8939:8948   */\n              dup7\n                /* \"#utility.yul\":8935:8957   */\n              add\n                /* \"#utility.yul\":8914:8967   */\n              tag_181\n              jump\t// in\n            tag_314:\n                /* \"#utility.yul\":8904:8967   */\n              swap3\n              pop\n                /* \"#utility.yul\":8860:8977   */\n              pop\n                /* \"#utility.yul\":9016:9018   */\n              0x20\n                /* \"#utility.yul\":9042:9095   */\n              tag_315\n                /* \"#utility.yul\":9087:9094   */\n              dup6\n                /* \"#utility.yul\":9078:9084   */\n              dup3\n                /* \"#utility.yul\":9067:9076   */\n              dup7\n                /* \"#utility.yul\":9063:9085   */\n              add\n                /* \"#utility.yul\":9042:9095   */\n              tag_169\n              jump\t// in\n            tag_315:\n                /* \"#utility.yul\":9032:9095   */\n              swap2\n              pop\n                /* \"#utility.yul\":8987:9105   */\n              pop\n                /* \"#utility.yul\":8638:9112   */\n              swap3\n              pop\n              swap3\n              swap1\n              pop\n              jump\t// out\n                /* \"#utility.yul\":9118:9298   */\n            tag_191:\n                /* \"#utility.yul\":9166:9243   */\n              0x4e487b7100000000000000000000000000000000000000000000000000000000\n                /* \"#utility.yul\":9163:9164   */\n              0x00\n                /* \"#utility.yul\":9156:9244   */\n              mstore\n                /* \"#utility.yul\":9263:9267   */\n              0x22\n                /* \"#utility.yul\":9260:9261   */\n              0x04\n                /* \"#utility.yul\":9253:9268   */\n              mstore\n                /* \"#utility.yul\":9287:9291   */\n              0x24\n                /* \"#utility.yul\":9284:9285   */\n              0x00\n                /* \"#utility.yul\":9277:9292   */\n              revert\n                /* \"#utility.yul\":9304:9624   */\n            tag_97:\n                /* \"#utility.yul\":9348:9354   */\n              0x00\n                /* \"#utility.yul\":9385:9386   */\n              0x02\n                /* \"#utility.yul\":9379:9383   */\n              dup3\n                /* \"#utility.yul\":9375:9387   */\n              div\n                /* \"#utility.yul\":9365:9387   */\n              swap1\n              pop\n                /* \"#utility.yul\":9432:9433   */\n              0x01\n                /* \"#utility.yul\":9426:9430   */\n              dup3\n                /* \"#utility.yul\":9422:9434   */\n              and\n                /* \"#utility.yul\":9453:9471   */\n              dup1\n                /* \"#utility.yul\":9443:9524   */\n              tag_318\n              jumpi\n                /* \"#utility.yul\":9509:9513   */\n              0x7f\n                /* \"#utility.yul\":9501:9507   */\n              dup3\n                /* \"#utility.yul\":9497:9514   */\n              and\n                /* \"#utility.yul\":9487:9514   */\n              swap2\n              pop\n                /* \"#utility.yul\":9443:9524   */\n            tag_318:\n                /* \"#utility.yul\":9571:9573   */\n              0x20\n                /* \"#utility.yul\":9563:9569   */\n              dup3\n                /* \"#utility.yul\":9560:9574   */\n              lt\n                /* \"#utility.yul\":9540:9558   */\n              dup2\n                /* \"#utility.yul\":9537:9575   */\n              sub\n                /* \"#utility.yul\":9534:9618   */\n              tag_319\n              jumpi\n                /* \"#utility.yul\":9590:9608   */\n              tag_320\n              tag_191\n              jump\t// in\n            tag_320:\n                /* \"#utility.yul\":9534:9618   */\n            tag_319:\n                /* \"#utility.yul\":9355:9624   */\n              pop\n                /* \"#utility.yul\":9304:9624   */\n              swap2\n              swap1\n              pop\n              jump\t// out\n                /* \"#utility.yul\":9630:9803   */\n            tag_192:\n                /* \"#utility.yul\":9770:9795   */\n              0x546f6b656e20696420646f6573206e6f74206578697374000000000000000000\n                /* \"#utility.yul\":9766:9767   */\n              0x00\n                /* \"#utility.yul\":9758:9764   */\n              dup3\n                /* \"#utility.yul\":9754:9768   */\n              add\n                /* \"#utility.yul\":9747:9796   */\n              mstore\n                /* \"#utility.yul\":9630:9803   */\n              pop\n              jump\t// out\n                /* \"#utility.yul\":9809:10175   */\n            tag_193:\n                /* \"#utility.yul\":9951:9954   */\n              0x00\n                /* \"#utility.yul\":9972:10039   */\n              tag_323\n                /* \"#utility.yul\":10036:10038   */\n              0x17\n                /* \"#utility.yul\":10031:10034   */\n              dup4\n                /* \"#utility.yul\":9972:10039   */\n              tag_171\n              jump\t// in\n            tag_323:\n                /* \"#utility.yul\":9965:10039   */\n              swap2\n              pop\n                /* \"#utility.yul\":10048:10141   */\n              tag_324\n                /* \"#utility.yul\":10137:10140   */\n              dup3\n                /* \"#utility.yul\":10048:10141   */\n              tag_192\n              jump\t// in\n            tag_324:\n                /* \"#utility.yul\":10166:10168   */\n              0x20\n                /* \"#utility.yul\":10161:10164   */\n              dup3\n                /* \"#utility.yul\":10157:10169   */\n              add\n                /* \"#utility.yul\":10150:10169   */\n              swap1\n              pop\n                /* \"#utility.yul\":9809:10175   */\n              swap2\n              swap1\n              pop\n              jump\t// out\n                /* \"#utility.yul\":10181:10600   */\n            tag_110:\n                /* \"#utility.yul\":10347:10351   */\n              0x00\n                /* \"#utility.yul\":10385:10387   */\n              0x20\n                /* \"#utility.yul\":10374:10383   */\n              dup3\n                /* \"#utility.yul\":10370:10388   */\n              add\n                /* \"#utility.yul\":10362:10388   */\n              swap1\n              pop\n                /* \"#utility.yul\":10434:10443   */\n              dup2\n                /* \"#utility.yul\":10428:10432   */\n              dup2\n                /* \"#utility.yul\":10424:10444   */\n              sub\n                /* \"#utility.yul\":10420:10421   */\n              0x00\n                /* \"#utility.yul\":10409:10418   */\n              dup4\n                /* \"#utility.yul\":10405:10422   */\n              add\n                /* \"#utility.yul\":10398:10445   */\n              mstore\n                /* \"#utility.yul\":10462:10593   */\n              tag_326\n                /* \"#utility.yul\":10588:10592   */\n              dup2\n                /* \"#utility.yul\":10462:10593   */\n              tag_193\n              jump\t// in\n            tag_326:\n                /* \"#utility.yul\":10454:10593   */\n              swap1\n              pop\n                /* \"#utility.yul\":10181:10600   */\n              swap2\n              swap1\n              pop\n              jump\t// out\n                /* \"#utility.yul\":10606:10831   */\n            tag_194:\n                /* \"#utility.yul\":10746:10780   */\n              0x455243373231204552524f523a206d696e7420746f20746865207a65726f2061\n                /* \"#utility.yul\":10742:10743   */\n              0x00\n                /* \"#utility.yul\":10734:10740   */\n              dup3\n                /* \"#utility.yul\":10730:10744   */\n              add\n                /* \"#utility.yul\":10723:10781   */\n              mstore\n                /* \"#utility.yul\":10815:10823   */\n              0x6464726573730000000000000000000000000000000000000000000000000000\n                /* \"#utility.yul\":10810:10812   */\n              0x20\n                /* \"#utility.yul\":10802:10808   */\n              dup3\n                /* \"#utility.yul\":10798:10813   */\n              add\n                /* \"#utility.yul\":10791:10824   */\n              mstore\n                /* \"#utility.yul\":10606:10831   */\n              pop\n              jump\t// out\n                /* \"#utility.yul\":10837:11203   */\n            tag_195:\n                /* \"#utility.yul\":10979:10982   */\n              0x00\n                /* \"#utility.yul\":11000:11067   */\n              tag_329\n                /* \"#utility.yul\":11064:11066   */\n              0x26\n                /* \"#utility.yul\":11059:11062   */\n              dup4\n                /* \"#utility.yul\":11000:11067   */\n              tag_171\n              jump\t// in\n            tag_329:\n                /* \"#utility.yul\":10993:11067   */\n              swap2\n              pop\n                /* \"#utility.yul\":11076:11169   */\n              tag_330\n                /* \"#utility.yul\":11165:11168   */\n              dup3\n                /* \"#utility.yul\":11076:11169   */\n              tag_194\n              jump\t// in\n            tag_330:\n                /* \"#utility.yul\":11194:11196   */\n              0x40\n                /* \"#utility.yul\":11189:11192   */\n              dup3\n                /* \"#utility.yul\":11185:11197   */\n              add\n                /* \"#utility.yul\":11178:11197   */\n              swap1\n              pop\n                /* \"#utility.yul\":10837:11203   */\n              swap2\n              swap1\n              pop\n              jump\t// out\n                /* \"#utility.yul\":11209:11628   */\n            tag_127:\n                /* \"#utility.yul\":11375:11379   */\n              0x00\n                /* \"#utility.yul\":11413:11415   */\n              0x20\n                /* \"#utility.yul\":11402:11411   */\n              dup3\n                /* \"#utility.yul\":11398:11416   */\n              add\n                /* \"#utility.yul\":11390:11416   */\n              swap1\n              pop\n                /* \"#utility.yul\":11462:11471   */\n              dup2\n                /* \"#utility.yul\":11456:11460   */\n              dup2\n                /* \"#utility.yul\":11452:11472   */\n              sub\n                /* \"#utility.yul\":11448:11449   */\n              0x00\n                /* \"#utility.yul\":11437:11446   */\n              dup4\n                /* \"#utility.yul\":11433:11450   */\n              add\n                /* \"#utility.yul\":11426:11473   */\n              mstore\n                /* \"#utility.yul\":11490:11621   */\n              tag_332\n                /* \"#utility.yul\":11616:11620   */\n              dup2\n                /* \"#utility.yul\":11490:11621   */\n              tag_195\n              jump\t// in\n            tag_332:\n                /* \"#utility.yul\":11482:11621   */\n              swap1\n              pop\n                /* \"#utility.yul\":11209:11628   */\n              swap2\n              swap1\n              pop\n              jump\t// out\n                /* \"#utility.yul\":11634:11855   */\n            tag_196:\n                /* \"#utility.yul\":11774:11808   */\n              0x455243373231204552524f523a20546f6b656e20616c7265616479206d696e74\n                /* \"#utility.yul\":11770:11771   */\n              0x00\n                /* \"#utility.yul\":11762:11768   */\n              dup3\n                /* \"#utility.yul\":11758:11772   */\n              add\n                /* \"#utility.yul\":11751:11809   */\n              mstore\n                /* \"#utility.yul\":11843:11847   */\n              0x6564000000000000000000000000000000000000000000000000000000000000\n                /* \"#utility.yul\":11838:11840   */\n              0x20\n                /* \"#utility.yul\":11830:11836   */\n              dup3\n                /* \"#utility.yul\":11826:11841   */\n              add\n                /* \"#utility.yul\":11819:11848   */\n              mstore\n                /* \"#utility.yul\":11634:11855   */\n              pop\n              jump\t// out\n                /* \"#utility.yul\":11861:12227   */\n            tag_197:\n                /* \"#utility.yul\":12003:12006   */\n              0x00\n                /* \"#utility.yul\":12024:12091   */\n              tag_335\n                /* \"#utility.yul\":12088:12090   */\n              0x22\n                /* \"#utility.yul\":12083:12086   */\n              dup4\n                /* \"#utility.yul\":12024:12091   */\n              tag_171\n              jump\t// in\n            tag_335:\n                /* \"#utility.yul\":12017:12091   */\n              swap2\n              pop\n                /* \"#utility.yul\":12100:12193   */\n              tag_336\n                /* \"#utility.yul\":12189:12192   */\n              dup3\n                /* \"#utility.yul\":12100:12193   */\n              tag_196\n              jump\t// in\n            tag_336:\n                /* \"#utility.yul\":12218:12220   */\n              0x40\n                /* \"#utility.yul\":12213:12216   */\n              dup3\n                /* \"#utility.yul\":12209:12221   */\n              add\n                /* \"#utility.yul\":12202:12221   */\n              swap1\n              pop\n                /* \"#utility.yul\":11861:12227   */\n              swap2\n              swap1\n              pop\n              jump\t// out\n                /* \"#utility.yul\":12233:12652   */\n            tag_132:\n                /* \"#utility.yul\":12399:12403   */\n              0x00\n                /* \"#utility.yul\":12437:12439   */\n              0x20\n                /* \"#utility.yul\":12426:12435   */\n              dup3\n                /* \"#utility.yul\":12422:12440   */\n              add\n                /* \"#utility.yul\":12414:12440   */\n              swap1\n              pop\n                /* \"#utility.yul\":12486:12495   */\n              dup2\n                /* \"#utility.yul\":12480:12484   */\n              dup2\n                /* \"#utility.yul\":12476:12496   */\n              sub\n                /* \"#utility.yul\":12472:12473   */\n              0x00\n                /* \"#utility.yul\":12461:12470   */\n              dup4\n                /* \"#utility.yul\":12457:12474   */\n              add\n                /* \"#utility.yul\":12450:12497   */\n              mstore\n                /* \"#utility.yul\":12514:12645   */\n              tag_338\n                /* \"#utility.yul\":12640:12644   */\n              dup2\n                /* \"#utility.yul\":12514:12645   */\n              tag_197\n              jump\t// in\n            tag_338:\n                /* \"#utility.yul\":12506:12645   */\n              swap1\n              pop\n                /* \"#utility.yul\":12233:12652   */\n              swap2\n              swap1\n              pop\n              jump\t// out\n                /* \"#utility.yul\":12658:12838   */\n            tag_198:\n                /* \"#utility.yul\":12706:12783   */\n              0x4e487b7100000000000000000000000000000000000000000000000000000000\n                /* \"#utility.yul\":12703:12704   */\n              0x00\n                /* \"#utility.yul\":12696:12784   */\n              mstore\n                /* \"#utility.yul\":12803:12807   */\n              0x11\n                /* \"#utility.yul\":12800:12801   */\n              0x04\n                /* \"#utility.yul\":12793:12808   */\n              mstore\n                /* \"#utility.yul\":12827:12831   */\n              0x24\n                /* \"#utility.yul\":12824:12825   */\n              0x00\n                /* \"#utility.yul\":12817:12832   */\n              revert\n                /* \"#utility.yul\":12844:13149   */\n            tag_134:\n                /* \"#utility.yul\":12884:12887   */\n              0x00\n                /* \"#utility.yul\":12903:12923   */\n              tag_341\n                /* \"#utility.yul\":12921:12922   */\n              dup3\n                /* \"#utility.yul\":12903:12923   */\n              tag_166\n              jump\t// in\n            tag_341:\n                /* \"#utility.yul\":12898:12923   */\n              swap2\n              pop\n                /* \"#utility.yul\":12937:12957   */\n              tag_342\n                /* \"#utility.yul\":12955:12956   */\n              dup4\n                /* \"#utility.yul\":12937:12957   */\n              tag_166\n              jump\t// in\n            tag_342:\n                /* \"#utility.yul\":12932:12957   */\n              swap3\n              pop\n                /* \"#utility.yul\":13091:13092   */\n              dup3\n                /* \"#utility.yul\":13023:13089   */\n              0xffffffffffffffffffffffffffffffffffffffffffffffffffffffffffffffff\n                /* \"#utility.yul\":13019:13093   */\n              sub\n                /* \"#utility.yul\":13016:13017   */\n              dup3\n                /* \"#utility.yul\":13013:13094   */\n              gt\n                /* \"#utility.yul\":13010:13117   */\n              iszero\n              tag_343\n              jumpi\n                /* \"#utility.yul\":13097:13115   */\n              tag_344\n              tag_198\n              jump\t// in\n            tag_344:\n                /* \"#utility.yul\":13010:13117   */\n            tag_343:\n                /* \"#utility.yul\":13141:13142   */\n              dup3\n                /* \"#utility.yul\":13138:13139   */\n              dup3\n                /* \"#utility.yul\":13134:13143   */\n              add\n                /* \"#utility.yul\":13127:13143   */\n              swap1\n              pop\n                /* \"#utility.yul\":12844:13149   */\n              swap3\n              swap2\n              pop\n              pop\n              jump\t// out\n                /* \"#utility.yul\":13155:13253   */\n            tag_199:\n                /* \"#utility.yul\":13206:13212   */\n              0x00\n                /* \"#utility.yul\":13240:13245   */\n              dup2\n                /* \"#utility.yul\":13234:13246   */\n              mload\n                /* \"#utility.yul\":13224:13246   */\n              swap1\n              pop\n                /* \"#utility.yul\":13155:13253   */\n              swap2\n              swap1\n              pop\n              jump\t// out\n                /* \"#utility.yul\":13259:13427   */\n            tag_200:\n                /* \"#utility.yul\":13342:13353   */\n              0x00\n                /* \"#utility.yul\":13376:13382   */\n              dup3\n                /* \"#utility.yul\":13371:13374   */\n              dup3\n                /* \"#utility.yul\":13364:13383   */\n              mstore\n                /* \"#utility.yul\":13416:13420   */\n              0x20\n                /* \"#utility.yul\":13411:13414   */\n              dup3\n                /* \"#utility.yul\":13407:13421   */\n              add\n                /* \"#utility.yul\":13392:13421   */\n              swap1\n              pop\n                /* \"#utility.yul\":13259:13427   */\n              swap3\n              swap2\n              pop\n              pop\n              jump\t// out\n                /* \"#utility.yul\":13433:13793   */\n            tag_201:\n                /* \"#utility.yul\":13519:13522   */\n              0x00\n                /* \"#utility.yul\":13547:13585   */\n              tag_348\n                /* \"#utility.yul\":13579:13584   */\n              dup3\n                /* \"#utility.yul\":13547:13585   */\n              tag_199\n              jump\t// in\n            tag_348:\n                /* \"#utility.yul\":13601:13671   */\n              tag_349\n                /* \"#utility.yul\":13664:13670   */\n              dup2\n                /* \"#utility.yul\":13659:13662   */\n              dup6\n                /* \"#utility.yul\":13601:13671   */\n              tag_200\n              jump\t// in\n            tag_349:\n                /* \"#utility.yul\":13594:13671   */\n              swap4\n              pop\n                /* \"#utility.yul\":13680:13732   */\n              tag_350\n                /* \"#utility.yul\":13725:13731   */\n              dup2\n                /* \"#utility.yul\":13720:13723   */\n              dup6\n                /* \"#utility.yul\":13713:13717   */\n              0x20\n                /* \"#utility.yul\":13706:13711   */\n              dup7\n                /* \"#utility.yul\":13702:13718   */\n              add\n                /* \"#utility.yul\":13680:13732   */\n              tag_172\n              jump\t// in\n            tag_350:\n                /* \"#utility.yul\":13757:13786   */\n              tag_351\n                /* \"#utility.yul\":13779:13785   */\n              dup2\n                /* \"#utility.yul\":13757:13786   */\n              tag_173\n              jump\t// in\n            tag_351:\n                /* \"#utility.yul\":13752:13755   */\n              dup5\n                /* \"#utility.yul\":13748:13787   */\n              add\n                /* \"#utility.yul\":13741:13787   */\n              swap2\n              pop\n                /* \"#utility.yul\":13523:13793   */\n              pop\n                /* \"#utility.yul\":13433:13793   */\n              swap3\n              swap2\n              pop\n              pop\n              jump\t// out\n                /* \"#utility.yul\":13799:14439   */\n            tag_140:\n                /* \"#utility.yul\":13994:13998   */\n              0x00\n                /* \"#utility.yul\":14032:14035   */\n              0x80\n                /* \"#utility.yul\":14021:14030   */\n              dup3\n                /* \"#utility.yul\":14017:14036   */\n              add\n                /* \"#utility.yul\":14009:14036   */\n              swap1\n              pop\n                /* \"#utility.yul\":14046:14117   */\n              tag_353\n                /* \"#utility.yul\":14114:14115   */\n              0x00\n                /* \"#utility.yul\":14103:14112   */\n              dup4\n                /* \"#utility.yul\":14099:14116   */\n              add\n                /* \"#utility.yul\":14090:14096   */\n              dup8\n                /* \"#utility.yul\":14046:14117   */\n              tag_179\n              jump\t// in\n            tag_353:\n                /* \"#utility.yul\":14127:14199   */\n              tag_354\n                /* \"#utility.yul\":14195:14197   */\n              0x20\n                /* \"#utility.yul\":14184:14193   */\n              dup4\n                /* \"#utility.yul\":14180:14198   */\n              add\n                /* \"#utility.yul\":14171:14177   */\n              dup7\n                /* \"#utility.yul\":14127:14199   */\n              tag_179\n              jump\t// in\n            tag_354:\n                /* \"#utility.yul\":14209:14281   */\n              tag_355\n                /* \"#utility.yul\":14277:14279   */\n              0x40\n                /* \"#utility.yul\":14266:14275   */\n              dup4\n                /* \"#utility.yul\":14262:14280   */\n              add\n                /* \"#utility.yul\":14253:14259   */\n              dup6\n                /* \"#utility.yul\":14209:14281   */\n              tag_167\n              jump\t// in\n            tag_355:\n                /* \"#utility.yul\":14328:14337   */\n              dup2\n                /* \"#utility.yul\":14322:14326   */\n              dup2\n                /* \"#utility.yul\":14318:14338   */\n              sub\n                /* \"#utility.yul\":14313:14315   */\n              0x60\n                /* \"#utility.yul\":14302:14311   */\n              dup4\n                /* \"#utility.yul\":14298:14316   */\n              add\n                /* \"#utility.yul\":14291:14339   */\n              mstore\n                /* \"#utility.yul\":14356:14432   */\n              tag_356\n                /* \"#utility.yul\":14427:14431   */\n              dup2\n                /* \"#utility.yul\":14418:14424   */\n              dup5\n                /* \"#utility.yul\":14356:14432   */\n              tag_201\n              jump\t// in\n            tag_356:\n                /* \"#utility.yul\":14348:14432   */\n              swap1\n              pop\n                /* \"#utility.yul\":13799:14439   */\n              swap6\n              swap5\n              pop\n              pop\n              pop\n              pop\n              pop\n              jump\t// out\n                /* \"#utility.yul\":14445:14586   */\n            tag_202:\n                /* \"#utility.yul\":14501:14506   */\n              0x00\n                /* \"#utility.yul\":14532:14538   */\n              dup2\n                /* \"#utility.yul\":14526:14539   */\n              mload\n                /* \"#utility.yul\":14517:14539   */\n              swap1\n              pop\n                /* \"#utility.yul\":14548:14580   */\n              tag_358\n                /* \"#utility.yul\":14574:14579   */\n              dup2\n                /* \"#utility.yul\":14548:14580   */\n              tag_164\n              jump\t// in\n            tag_358:\n                /* \"#utility.yul\":14445:14586   */\n              swap3\n              swap2\n              pop\n              pop\n              jump\t// out\n                /* \"#utility.yul\":14592:14941   */\n            tag_143:\n                /* \"#utility.yul\":14661:14667   */\n              0x00\n                /* \"#utility.yul\":14710:14712   */\n              0x20\n                /* \"#utility.yul\":14698:14707   */\n              dup3\n                /* \"#utility.yul\":14689:14696   */\n              dup5\n                /* \"#utility.yul\":14685:14708   */\n              sub\n                /* \"#utility.yul\":14681:14713   */\n              slt\n                /* \"#utility.yul\":14678:14797   */\n              iszero\n              tag_360\n              jumpi\n                /* \"#utility.yul\":14716:14795   */\n              tag_361\n              tag_161\n              jump\t// in\n            tag_361:\n                /* \"#utility.yul\":14678:14797   */\n            tag_360:\n                /* \"#utility.yul\":14836:14837   */\n              0x00\n                /* \"#utility.yul\":14861:14924   */\n              tag_362\n                /* \"#utility.yul\":14916:14923   */\n              dup5\n                /* \"#utility.yul\":14907:14913   */\n              dup3\n                /* \"#utility.yul\":14896:14905   */\n              dup6\n                /* \"#utility.yul\":14892:14914   */\n              add\n                /* \"#utility.yul\":14861:14924   */\n              tag_202\n              jump\t// in\n            tag_362:\n                /* \"#utility.yul\":14851:14924   */\n              swap2\n              pop\n                /* \"#utility.yul\":14807:14934   */\n              pop\n                /* \"#utility.yul\":14592:14941   */\n              swap3\n              swap2\n              pop\n              pop\n              jump\t// out\n                /* \"#utility.yul\":14947:15184   */\n            tag_203:\n                /* \"#utility.yul\":15087:15121   */\n              0x4552433732313a207472616e7366657220746f206e6f6e204552433732315265\n                /* \"#utility.yul\":15083:15084   */\n              0x00\n                /* \"#utility.yul\":15075:15081   */\n              dup3\n                /* \"#utility.yul\":15071:15085   */\n              add\n                /* \"#utility.yul\":15064:15122   */\n              mstore\n                /* \"#utility.yul\":15156:15176   */\n              0x63656976657220696d706c656d656e7465720000000000000000000000000000\n                /* \"#utility.yul\":15151:15153   */\n              0x20\n                /* \"#utility.yul\":15143:15149   */\n              dup3\n                /* \"#utility.yul\":15139:15154   */\n              add\n                /* \"#utility.yul\":15132:15177   */\n              mstore\n                /* \"#utility.yul\":14947:15184   */\n              pop\n              jump\t// out\n                /* \"#utility.yul\":15190:15556   */\n            tag_204:\n                /* \"#utility.yul\":15332:15335   */\n              0x00\n                /* \"#utility.yul\":15353:15420   */\n              tag_365\n                /* \"#utility.yul\":15417:15419   */\n              0x32\n                /* \"#utility.yul\":15412:15415   */\n              dup4\n                /* \"#utility.yul\":15353:15420   */\n              tag_171\n              jump\t// in\n            tag_365:\n                /* \"#utility.yul\":15346:15420   */\n              swap2\n              pop\n                /* \"#utility.yul\":15429:15522   */\n              tag_366\n                /* \"#utility.yul\":15518:15521   */\n              dup3\n                /* \"#utility.yul\":15429:15522   */\n              tag_203\n              jump\t// in\n            tag_366:\n                /* \"#utility.yul\":15547:15549   */\n              0x40\n                /* \"#utility.yul\":15542:15545   */\n              dup3\n                /* \"#utility.yul\":15538:15550   */\n              add\n                /* \"#utility.yul\":15531:15550   */\n              swap1\n              pop\n                /* \"#utility.yul\":15190:15556   */\n              swap2\n              swap1\n              pop\n              jump\t// out\n                /* \"#utility.yul\":15562:15981   */\n            tag_152:\n                /* \"#utility.yul\":15728:15732   */\n              0x00\n                /* \"#utility.yul\":15766:15768   */\n              0x20\n                /* \"#utility.yul\":15755:15764   */\n              dup3\n                /* \"#utility.yul\":15751:15769   */\n              add\n                /* \"#utility.yul\":15743:15769   */\n              swap1\n              pop\n                /* \"#utility.yul\":15815:15824   */\n              dup2\n                /* \"#utility.yul\":15809:15813   */\n              dup2\n                /* \"#utility.yul\":15805:15825   */\n              sub\n                /* \"#utility.yul\":15801:15802   */\n              0x00\n                /* \"#utility.yul\":15790:15799   */\n              dup4\n                /* \"#utility.yul\":15786:15803   */\n              add\n                /* \"#utility.yul\":15779:15826   */\n              mstore\n                /* \"#utility.yul\":15843:15974   */\n              tag_368\n                /* \"#utility.yul\":15969:15973   */\n              dup2\n                /* \"#utility.yul\":15843:15974   */\n              tag_204\n              jump\t// in\n            tag_368:\n                /* \"#utility.yul\":15835:15974   */\n              swap1\n              pop\n                /* \"#utility.yul\":15562:15981   */\n              swap2\n              swap1\n              pop\n              jump\t// out\n\n            auxdata: 0xa264697066735822122035dea26807b63f4bc6d6320d16cbf7d8a3038a555aecb4e72a0c1d746e671b3e64736f6c634300080d0033\n        }\n    }\n\n    sub_1: assembly {\n            /* \"Plot.sol\":107:1219   */\n          mstore(0x40, 0x80)\n            /* \"Plot.sol\":316:599   */\n          callvalue\n          dup1\n          iszero\n          tag_1\n          jumpi\n          0x00\n          dup1\n          revert\n        tag_1:\n          pop\n          mload(0x40)\n          sub(codesize, bytecodeSize)\n          dup1\n          bytecodeSize\n          dup4\n          codecopy\n          dup2\n          dup2\n          add\n          0x40\n          mstore\n          dup2\n          add\n          swap1\n          tag_2\n          swap2\n          swap1\n          tag_3\n          jump\t// in\n        tag_2:\n            /* \"Plot.sol\":435:444   */\n          dup4\n            /* \"Plot.sol\":422:432   */\n          0x03\n            /* \"Plot.sol\":422:444   */\n          dup2\n          swap1\n          sstore\n          pop\n            /* \"Plot.sol\":468:477   */\n          dup3\n            /* \"Plot.sol\":455:465   */\n          0x04\n            /* \"Plot.sol\":455:477   */\n          dup2\n          swap1\n          sstore\n          pop\n            /* \"Plot.sol\":496:506   */\n          caller\n            /* \"Plot.sol\":488:493   */\n          0x05\n          0x00\n            /* \"Plot.sol\":488:506   */\n          0x0100\n          exp\n          dup2\n          sload\n          dup2\n          0xffffffffffffffffffffffffffffffffffffffff\n          mul\n          not\n          and\n          swap1\n          dup4\n          0xffffffffffffffffffffffffffffffffffffffff\n          and\n          mul\n          or\n          swap1\n          sstore\n          pop\n            /* \"Plot.sol\":527:529   */\n          dup2\n            /* \"Plot.sol\":517:524   */\n          0x02\n            /* \"Plot.sol\":517:529   */\n          dup2\n          swap1\n          sstore\n          pop\n            /* \"Plot.sol\":552:562   */\n          dup1\n            /* \"Plot.sol\":540:549   */\n          0x06\n            /* \"Plot.sol\":540:562   */\n          swap1\n          dup1\n          mload\n          swap1\n          0x20\n          add\n          swap1\n          tag_6\n          swap3\n          swap2\n          swap1\n          tag_7\n          jump\t// in\n        tag_6:\n          pop\n            /* \"Plot.sol\":584:589   */\n          0x00\n            /* \"Plot.sol\":573:581   */\n          0x07\n          0x00\n            /* \"Plot.sol\":573:589   */\n          0x0100\n          exp\n          dup2\n          sload\n          dup2\n          0xff\n          mul\n          not\n          and\n          swap1\n          dup4\n          iszero\n          iszero\n          mul\n          or\n          swap1\n          sstore\n          pop\n            /* \"Plot.sol\":316:599   */\n          pop\n          pop\n          pop\n          pop\n            /* \"Plot.sol\":107:1219   */\n          jump(tag_8)\n        tag_7:\n          dup3\n          dup1\n          sload\n          tag_9\n          swap1\n          tag_10\n          jump\t// in\n        tag_9:\n          swap1\n          0x00\n          mstore\n          keccak256(0x00, 0x20)\n          swap1\n          0x1f\n          add\n          0x20\n          swap1\n          div\n          dup2\n          add\n          swap3\n          dup3\n          tag_12\n          jumpi\n          0x00\n          dup6\n          sstore\n          jump(tag_11)\n        tag_12:\n          dup3\n          0x1f\n          lt\n          tag_13\n          jumpi\n          dup1\n          mload\n          not(0xff)\n          and\n          dup4\n          dup1\n          add\n          or\n          dup6\n          sstore\n          jump(tag_11)\n        tag_13:\n          dup3\n          dup1\n          add\n          0x01\n          add\n          dup6\n          sstore\n          dup3\n          iszero\n          tag_11\n          jumpi\n          swap2\n          dup3\n          add\n        tag_14:\n          dup3\n          dup2\n          gt\n          iszero\n          tag_15\n          jumpi\n          dup3\n          mload\n          dup3\n          sstore\n          swap2\n          0x20\n          add\n          swap2\n          swap1\n          0x01\n          add\n          swap1\n          jump(tag_14)\n        tag_15:\n        tag_11:\n          pop\n          swap1\n          pop\n          tag_16\n          swap2\n          swap1\n          tag_17\n          jump\t// in\n        tag_16:\n          pop\n          swap1\n          jump\t// out\n        tag_17:\n        tag_18:\n          dup1\n          dup3\n          gt\n          iszero\n          tag_19\n          jumpi\n          0x00\n          dup2\n          0x00\n          swap1\n          sstore\n          pop\n          0x01\n          add\n          jump(tag_18)\n        tag_19:\n          pop\n          swap1\n          jump\t// out\n            /* \"#utility.yul\":7:82   */\n        tag_20:\n            /* \"#utility.yul\":40:46   */\n          0x00\n            /* \"#utility.yul\":73:75   */\n          0x40\n            /* \"#utility.yul\":67:76   */\n          mload\n            /* \"#utility.yul\":57:76   */\n          swap1\n          pop\n            /* \"#utility.yul\":7:82   */\n          swap1\n          jump\t// out\n            /* \"#utility.yul\":88:205   */\n        tag_21:\n            /* \"#utility.yul\":197:198   */\n          0x00\n            /* \"#utility.yul\":194:195   */\n          dup1\n            /* \"#utility.yul\":187:199   */\n          revert\n            /* \"#utility.yul\":211:328   */\n        tag_22:\n            /* \"#utility.yul\":320:321   */\n          0x00\n            /* \"#utility.yul\":317:318   */\n          dup1\n            /* \"#utility.yul\":310:322   */\n          revert\n            /* \"#utility.yul\":334:411   */\n        tag_23:\n            /* \"#utility.yul\":371:378   */\n          0x00\n            /* \"#utility.yul\":400:405   */\n          dup2\n            /* \"#utility.yul\":389:405   */\n          swap1\n          pop\n            /* \"#utility.yul\":334:411   */\n          swap2\n          swap1\n          pop\n          jump\t// out\n            /* \"#utility.yul\":417:539   */\n        tag_24:\n            /* \"#utility.yul\":490:514   */\n          tag_43\n            /* \"#utility.yul\":508:513   */\n          dup2\n            /* \"#utility.yul\":490:514   */\n          tag_23\n          jump\t// in\n        tag_43:\n            /* \"#utility.yul\":483:488   */\n          dup2\n            /* \"#utility.yul\":480:515   */\n          eq\n            /* \"#utility.yul\":470:533   */\n          tag_44\n          jumpi\n            /* \"#utility.yul\":529:530   */\n          0x00\n            /* \"#utility.yul\":526:527   */\n          dup1\n            /* \"#utility.yul\":519:531   */\n          revert\n            /* \"#utility.yul\":470:533   */\n        tag_44:\n            /* \"#utility.yul\":417:539   */\n          pop\n          jump\t// out\n            /* \"#utility.yul\":545:688   */\n        tag_25:\n            /* \"#utility.yul\":602:607   */\n          0x00\n            /* \"#utility.yul\":633:639   */\n          dup2\n            /* \"#utility.yul\":627:640   */\n          mload\n            /* \"#utility.yul\":618:640   */\n          swap1\n          pop\n            /* \"#utility.yul\":649:682   */\n          tag_46\n            /* \"#utility.yul\":676:681   */\n          dup2\n            /* \"#utility.yul\":649:682   */\n          tag_24\n          jump\t// in\n        tag_46:\n            /* \"#utility.yul\":545:688   */\n          swap3\n          swap2\n          pop\n          pop\n          jump\t// out\n            /* \"#utility.yul\":694:811   */\n        tag_26:\n            /* \"#utility.yul\":803:804   */\n          0x00\n            /* \"#utility.yul\":800:801   */\n          dup1\n            /* \"#utility.yul\":793:805   */\n          revert\n            /* \"#utility.yul\":817:934   */\n        tag_27:\n            /* \"#utility.yul\":926:927   */\n          0x00\n            /* \"#utility.yul\":923:924   */\n          dup1\n            /* \"#utility.yul\":916:928   */\n          revert\n            /* \"#utility.yul\":940:1042   */\n        tag_28:\n            /* \"#utility.yul\":981:987   */\n          0x00\n            /* \"#utility.yul\":1032:1034   */\n          0x1f\n            /* \"#utility.yul\":1028:1035   */\n          not\n            /* \"#utility.yul\":1023:1025   */\n          0x1f\n            /* \"#utility.yul\":1016:1021   */\n          dup4\n            /* \"#utility.yul\":1012:1026   */\n          add\n            /* \"#utility.yul\":1008:1036   */\n          and\n            /* \"#utility.yul\":998:1036   */\n          swap1\n          pop\n            /* \"#utility.yul\":940:1042   */\n          swap2\n          swap1\n          pop\n          jump\t// out\n            /* \"#utility.yul\":1048:1228   */\n        tag_29:\n            /* \"#utility.yul\":1096:1173   */\n          0x4e487b7100000000000000000000000000000000000000000000000000000000\n            /* \"#utility.yul\":1093:1094   */\n          0x00\n            /* \"#utility.yul\":1086:1174   */\n          mstore\n            /* \"#utility.yul\":1193:1197   */\n          0x41\n            /* \"#utility.yul\":1190:1191   */\n          0x04\n            /* \"#utility.yul\":1183:1198   */\n          mstore\n            /* \"#utility.yul\":1217:1221   */\n          0x24\n            /* \"#utility.yul\":1214:1215   */\n          0x00\n            /* \"#utility.yul\":1207:1222   */\n          revert\n            /* \"#utility.yul\":1234:1515   */\n        tag_30:\n            /* \"#utility.yul\":1317:1344   */\n          tag_52\n            /* \"#utility.yul\":1339:1343   */\n          dup3\n            /* \"#utility.yul\":1317:1344   */\n          tag_28\n          jump\t// in\n        tag_52:\n            /* \"#utility.yul\":1309:1315   */\n          dup2\n            /* \"#utility.yul\":1305:1345   */\n          add\n            /* \"#utility.yul\":1447:1453   */\n          dup2\n            /* \"#utility.yul\":1435:1445   */\n          dup2\n            /* \"#utility.yul\":1432:1454   */\n          lt\n            /* \"#utility.yul\":1411:1429   */\n          0xffffffffffffffff\n            /* \"#utility.yul\":1399:1409   */\n          dup3\n            /* \"#utility.yul\":1396:1430   */\n          gt\n            /* \"#utility.yul\":1393:1455   */\n          or\n            /* \"#utility.yul\":1390:1478   */\n          iszero\n          tag_53\n          jumpi\n            /* \"#utility.yul\":1458:1476   */\n          tag_54\n          tag_29\n          jump\t// in\n        tag_54:\n            /* \"#utility.yul\":1390:1478   */\n        tag_53:\n            /* \"#utility.yul\":1498:1508   */\n          dup1\n            /* \"#utility.yul\":1494:1496   */\n          0x40\n            /* \"#utility.yul\":1487:1509   */\n          mstore\n            /* \"#utility.yul\":1277:1515   */\n          pop\n            /* \"#utility.yul\":1234:1515   */\n          pop\n          pop\n          jump\t// out\n            /* \"#utility.yul\":1521:1650   */\n        tag_31:\n            /* \"#utility.yul\":1555:1561   */\n          0x00\n            /* \"#utility.yul\":1582:1602   */\n          tag_56\n          tag_20\n          jump\t// in\n        tag_56:\n            /* \"#utility.yul\":1572:1602   */\n          swap1\n          pop\n            /* \"#utility.yul\":1611:1644   */\n          tag_57\n            /* \"#utility.yul\":1639:1643   */\n          dup3\n            /* \"#utility.yul\":1631:1637   */\n          dup3\n            /* \"#utility.yul\":1611:1644   */\n          tag_30\n          jump\t// in\n        tag_57:\n            /* \"#utility.yul\":1521:1650   */\n          swap2\n          swap1\n          pop\n          jump\t// out\n            /* \"#utility.yul\":1656:1964   */\n        tag_32:\n            /* \"#utility.yul\":1718:1722   */\n          0x00\n            /* \"#utility.yul\":1808:1826   */\n          0xffffffffffffffff\n            /* \"#utility.yul\":1800:1806   */\n          dup3\n            /* \"#utility.yul\":1797:1827   */\n          gt\n            /* \"#utility.yul\":1794:1850   */\n          iszero\n          tag_59\n          jumpi\n            /* \"#utility.yul\":1830:1848   */\n          tag_60\n          tag_29\n          jump\t// in\n        tag_60:\n            /* \"#utility.yul\":1794:1850   */\n        tag_59:\n            /* \"#utility.yul\":1868:1897   */\n          tag_61\n            /* \"#utility.yul\":1890:1896   */\n          dup3\n            /* \"#utility.yul\":1868:1897   */\n          tag_28\n          jump\t// in\n        tag_61:\n            /* \"#utility.yul\":1860:1897   */\n          swap1\n          pop\n            /* \"#utility.yul\":1952:1956   */\n          0x20\n            /* \"#utility.yul\":1946:1950   */\n          dup2\n            /* \"#utility.yul\":1942:1957   */\n          add\n            /* \"#utility.yul\":1934:1957   */\n          swap1\n          pop\n            /* \"#utility.yul\":1656:1964   */\n          swap2\n          swap1\n          pop\n          jump\t// out\n            /* \"#utility.yul\":1970:2277   */\n        tag_33:\n            /* \"#utility.yul\":2038:2039   */\n          0x00\n            /* \"#utility.yul\":2048:2161   */\n        tag_63:\n            /* \"#utility.yul\":2062:2068   */\n          dup4\n            /* \"#utility.yul\":2059:2060   */\n          dup2\n            /* \"#utility.yul\":2056:2069   */\n          lt\n            /* \"#utility.yul\":2048:2161   */\n          iszero\n          tag_65\n          jumpi\n            /* \"#utility.yul\":2147:2148   */\n          dup1\n            /* \"#utility.yul\":2142:2145   */\n          dup3\n            /* \"#utility.yul\":2138:2149   */\n          add\n            /* \"#utility.yul\":2132:2150   */\n          mload\n            /* \"#utility.yul\":2128:2129   */\n          dup2\n            /* \"#utility.yul\":2123:2126   */\n          dup5\n            /* \"#utility.yul\":2119:2130   */\n          add\n            /* \"#utility.yul\":2112:2151   */\n          mstore\n            /* \"#utility.yul\":2084:2086   */\n          0x20\n            /* \"#utility.yul\":2081:2082   */\n          dup2\n            /* \"#utility.yul\":2077:2087   */\n          add\n            /* \"#utility.yul\":2072:2087   */\n          swap1\n          pop\n            /* \"#utility.yul\":2048:2161   */\n          jump(tag_63)\n        tag_65:\n            /* \"#utility.yul\":2179:2185   */\n          dup4\n            /* \"#utility.yul\":2176:2177   */\n          dup2\n            /* \"#utility.yul\":2173:2186   */\n          gt\n            /* \"#utility.yul\":2170:2271   */\n          iszero\n          tag_66\n          jumpi\n            /* \"#utility.yul\":2259:2260   */\n          0x00\n            /* \"#utility.yul\":2250:2256   */\n          dup5\n            /* \"#utility.yul\":2245:2248   */\n          dup5\n            /* \"#utility.yul\":2241:2257   */\n          add\n            /* \"#utility.yul\":2234:2261   */\n          mstore\n            /* \"#utility.yul\":2170:2271   */\n        tag_66:\n            /* \"#utility.yul\":2019:2277   */\n          pop\n            /* \"#utility.yul\":1970:2277   */\n          pop\n          pop\n          pop\n          jump\t// out\n            /* \"#utility.yul\":2283:2704   */\n        tag_34:\n            /* \"#utility.yul\":2372:2377   */\n          0x00\n            /* \"#utility.yul\":2397:2463   */\n          tag_68\n            /* \"#utility.yul\":2413:2462   */\n          tag_69\n            /* \"#utility.yul\":2455:2461   */\n          dup5\n            /* \"#utility.yul\":2413:2462   */\n          tag_32\n          jump\t// in\n        tag_69:\n            /* \"#utility.yul\":2397:2463   */\n          tag_31\n          jump\t// in\n        tag_68:\n            /* \"#utility.yul\":2388:2463   */\n          swap1\n          pop\n            /* \"#utility.yul\":2486:2492   */\n          dup3\n            /* \"#utility.yul\":2479:2484   */\n          dup2\n            /* \"#utility.yul\":2472:2493   */\n          mstore\n            /* \"#utility.yul\":2524:2528   */\n          0x20\n            /* \"#utility.yul\":2517:2522   */\n          dup2\n            /* \"#utility.yul\":2513:2529   */\n          add\n            /* \"#utility.yul\":2562:2565   */\n          dup5\n            /* \"#utility.yul\":2553:2559   */\n          dup5\n            /* \"#utility.yul\":2548:2551   */\n          dup5\n            /* \"#utility.yul\":2544:2560   */\n          add\n            /* \"#utility.yul\":2541:2566   */\n          gt\n            /* \"#utility.yul\":2538:2650   */\n          iszero\n          tag_70\n          jumpi\n            /* \"#utility.yul\":2569:2648   */\n          tag_71\n          tag_27\n          jump\t// in\n        tag_71:\n            /* \"#utility.yul\":2538:2650   */\n        tag_70:\n            /* \"#utility.yul\":2659:2698   */\n          tag_72\n            /* \"#utility.yul\":2691:2697   */\n          dup5\n            /* \"#utility.yul\":2686:2689   */\n          dup3\n            /* \"#utility.yul\":2681:2684   */\n          dup6\n            /* \"#utility.yul\":2659:2698   */\n          tag_33\n          jump\t// in\n        tag_72:\n            /* \"#utility.yul\":2378:2704   */\n          pop\n            /* \"#utility.yul\":2283:2704   */\n          swap4\n          swap3\n          pop\n          pop\n          pop\n          jump\t// out\n            /* \"#utility.yul\":2724:3079   */\n        tag_35:\n            /* \"#utility.yul\":2791:2796   */\n          0x00\n            /* \"#utility.yul\":2840:2843   */\n          dup3\n            /* \"#utility.yul\":2833:2837   */\n          0x1f\n            /* \"#utility.yul\":2825:2831   */\n          dup4\n            /* \"#utility.yul\":2821:2838   */\n          add\n            /* \"#utility.yul\":2817:2844   */\n          slt\n            /* \"#utility.yul\":2807:2929   */\n          tag_74\n          jumpi\n            /* \"#utility.yul\":2848:2927   */\n          tag_75\n          tag_26\n          jump\t// in\n        tag_75:\n            /* \"#utility.yul\":2807:2929   */\n        tag_74:\n            /* \"#utility.yul\":2958:2964   */\n          dup2\n            /* \"#utility.yul\":2952:2965   */\n          mload\n            /* \"#utility.yul\":2983:3073   */\n          tag_76\n            /* \"#utility.yul\":3069:3072   */\n          dup5\n            /* \"#utility.yul\":3061:3067   */\n          dup3\n            /* \"#utility.yul\":3054:3058   */\n          0x20\n            /* \"#utility.yul\":3046:3052   */\n          dup7\n            /* \"#utility.yul\":3042:3059   */\n          add\n            /* \"#utility.yul\":2983:3073   */\n          tag_34\n          jump\t// in\n        tag_76:\n            /* \"#utility.yul\":2974:3073   */\n          swap2\n          pop\n            /* \"#utility.yul\":2797:3079   */\n          pop\n            /* \"#utility.yul\":2724:3079   */\n          swap3\n          swap2\n          pop\n          pop\n          jump\t// out\n            /* \"#utility.yul\":3085:4078   */\n        tag_3:\n            /* \"#utility.yul\":3192:3198   */\n          0x00\n            /* \"#utility.yul\":3200:3206   */\n          dup1\n            /* \"#utility.yul\":3208:3214   */\n          0x00\n            /* \"#utility.yul\":3216:3222   */\n          dup1\n            /* \"#utility.yul\":3265:3268   */\n          0x80\n            /* \"#utility.yul\":3253:3262   */\n          dup6\n            /* \"#utility.yul\":3244:3251   */\n          dup8\n            /* \"#utility.yul\":3240:3263   */\n          sub\n            /* \"#utility.yul\":3236:3269   */\n          slt\n            /* \"#utility.yul\":3233:3353   */\n          iszero\n          tag_78\n          jumpi\n            /* \"#utility.yul\":3272:3351   */\n          tag_79\n          tag_21\n          jump\t// in\n        tag_79:\n            /* \"#utility.yul\":3233:3353   */\n        tag_78:\n            /* \"#utility.yul\":3392:3393   */\n          0x00\n            /* \"#utility.yul\":3417:3481   */\n          tag_80\n            /* \"#utility.yul\":3473:3480   */\n          dup8\n            /* \"#utility.yul\":3464:3470   */\n          dup3\n            /* \"#utility.yul\":3453:3462   */\n          dup9\n            /* \"#utility.yul\":3449:3471   */\n          add\n            /* \"#utility.yul\":3417:3481   */\n          tag_25\n          jump\t// in\n        tag_80:\n            /* \"#utility.yul\":3407:3481   */\n          swap5\n          pop\n            /* \"#utility.yul\":3363:3491   */\n          pop\n            /* \"#utility.yul\":3530:3532   */\n          0x20\n            /* \"#utility.yul\":3556:3620   */\n          tag_81\n            /* \"#utility.yul\":3612:3619   */\n          dup8\n            /* \"#utility.yul\":3603:3609   */\n          dup3\n            /* \"#utility.yul\":3592:3601   */\n          dup9\n            /* \"#utility.yul\":3588:3610   */\n          add\n            /* \"#utility.yul\":3556:3620   */\n          tag_25\n          jump\t// in\n        tag_81:\n            /* \"#utility.yul\":3546:3620   */\n          swap4\n          pop\n            /* \"#utility.yul\":3501:3630   */\n          pop\n            /* \"#utility.yul\":3669:3671   */\n          0x40\n            /* \"#utility.yul\":3695:3759   */\n          tag_82\n            /* \"#utility.yul\":3751:3758   */\n          dup8\n            /* \"#utility.yul\":3742:3748   */\n          dup3\n            /* \"#utility.yul\":3731:3740   */\n          dup9\n            /* \"#utility.yul\":3727:3749   */\n          add\n            /* \"#utility.yul\":3695:3759   */\n          tag_25\n          jump\t// in\n        tag_82:\n            /* \"#utility.yul\":3685:3759   */\n          swap3\n          pop\n            /* \"#utility.yul\":3640:3769   */\n          pop\n            /* \"#utility.yul\":3829:3831   */\n          0x60\n            /* \"#utility.yul\":3818:3827   */\n          dup6\n            /* \"#utility.yul\":3814:3832   */\n          add\n            /* \"#utility.yul\":3808:3833   */\n          mload\n            /* \"#utility.yul\":3860:3878   */\n          0xffffffffffffffff\n            /* \"#utility.yul\":3852:3858   */\n          dup2\n            /* \"#utility.yul\":3849:3879   */\n          gt\n            /* \"#utility.yul\":3846:3963   */\n          iszero\n          tag_83\n          jumpi\n            /* \"#utility.yul\":3882:3961   */\n          tag_84\n          tag_22\n          jump\t// in\n        tag_84:\n            /* \"#utility.yul\":3846:3963   */\n        tag_83:\n            /* \"#utility.yul\":3987:4061   */\n          tag_85\n            /* \"#utility.yul\":4053:4060   */\n          dup8\n            /* \"#utility.yul\":4044:4050   */\n          dup3\n            /* \"#utility.yul\":4033:4042   */\n          dup9\n            /* \"#utility.yul\":4029:4051   */\n          add\n            /* \"#utility.yul\":3987:4061   */\n          tag_35\n          jump\t// in\n        tag_85:\n            /* \"#utility.yul\":3977:4061   */\n          swap2\n          pop\n            /* \"#utility.yul\":3779:4071   */\n          pop\n            /* \"#utility.yul\":3085:4078   */\n          swap3\n          swap6\n          swap2\n          swap5\n          pop\n          swap3\n          pop\n          jump\t// out\n            /* \"#utility.yul\":4084:4264   */\n        tag_36:\n            /* \"#utility.yul\":4132:4209   */\n          0x4e487b7100000000000000000000000000000000000000000000000000000000\n            /* \"#utility.yul\":4129:4130   */\n          0x00\n            /* \"#utility.yul\":4122:4210   */\n          mstore\n            /* \"#utility.yul\":4229:4233   */\n          0x22\n            /* \"#utility.yul\":4226:4227   */\n          0x04\n            /* \"#utility.yul\":4219:4234   */\n          mstore\n            /* \"#utility.yul\":4253:4257   */\n          0x24\n            /* \"#utility.yul\":4250:4251   */\n          0x00\n            /* \"#utility.yul\":4243:4258   */\n          revert\n            /* \"#utility.yul\":4270:4590   */\n        tag_10:\n            /* \"#utility.yul\":4314:4320   */\n          0x00\n            /* \"#utility.yul\":4351:4352   */\n          0x02\n            /* \"#utility.yul\":4345:4349   */\n          dup3\n            /* \"#utility.yul\":4341:4353   */\n          div\n            /* \"#utility.yul\":4331:4353   */\n          swap1\n          pop\n            /* \"#utility.yul\":4398:4399   */\n          0x01\n            /* \"#utility.yul\":4392:4396   */\n          dup3\n            /* \"#utility.yul\":4388:4400   */\n          and\n            /* \"#utility.yul\":4419:4437   */\n          dup1\n            /* \"#utility.yul\":4409:4490   */\n          tag_88\n          jumpi\n            /* \"#utility.yul\":4475:4479   */\n          0x7f\n            /* \"#utility.yul\":4467:4473   */\n          dup3\n            /* \"#utility.yul\":4463:4480   */\n          and\n            /* \"#utility.yul\":4453:4480   */\n          swap2\n          pop\n            /* \"#utility.yul\":4409:4490   */\n        tag_88:\n            /* \"#utility.yul\":4537:4539   */\n          0x20\n            /* \"#utility.yul\":4529:4535   */\n          dup3\n            /* \"#utility.yul\":4526:4540   */\n          lt\n            /* \"#utility.yul\":4506:4524   */\n          dup2\n            /* \"#utility.yul\":4503:4541   */\n          sub\n            /* \"#utility.yul\":4500:4584   */\n          tag_89\n          jumpi\n            /* \"#utility.yul\":4556:4574   */\n          tag_90\n          tag_36\n          jump\t// in\n        tag_90:\n            /* \"#utility.yul\":4500:4584   */\n        tag_89:\n            /* \"#utility.yul\":4321:4590   */\n          pop\n            /* \"#utility.yul\":4270:4590   */\n          swap2\n          swap1\n          pop\n          jump\t// out\n            /* \"Plot.sol\":107:1219   */\n        tag_8:\n          dataSize(sub_0)\n          dup1\n          dataOffset(sub_0)\n          0x00\n          codecopy\n          0x00\n          return\n        stop\n\n        sub_0: assembly {\n                /* \"Plot.sol\":107:1219   */\n              mstore(0x40, 0x80)\n              callvalue\n              dup1\n              iszero\n              tag_1\n              jumpi\n              0x00\n              dup1\n              revert\n            tag_1:\n              pop\n              jumpi(tag_2, lt(calldatasize, 0x04))\n              shr(0xe0, calldataload(0x00))\n              dup1\n              0x6352211e\n              gt\n              tag_18\n              jumpi\n              dup1\n              0x7cf6b53b\n              gt\n              tag_19\n              jumpi\n              dup1\n              0x7cf6b53b\n              eq\n              tag_14\n              jumpi\n              dup1\n              0x8da5cb5b\n              eq\n              tag_15\n              jumpi\n              dup1\n              0xb3e1c718\n              eq\n              tag_16\n              jumpi\n              dup1\n              0xcf22b577\n              eq\n              tag_17\n              jumpi\n              jump(tag_2)\n            tag_19:\n              dup1\n              0x6352211e\n              eq\n              tag_10\n              jumpi\n              dup1\n              0x6a4f832b\n              eq\n              tag_11\n              jumpi\n              dup1\n              0x70a08231\n              eq\n              tag_12\n              jumpi\n              dup1\n              0x7194c2e8\n              eq\n              tag_13\n              jumpi\n              jump(tag_2)\n            tag_18:\n              dup1\n              0x3fbaa475\n              gt\n              tag_20\n              jumpi\n              dup1\n              0x3fbaa475\n              eq\n              tag_6\n              jumpi\n              dup1\n              0x49befa85\n              eq\n              tag_7\n              jumpi\n              dup1\n              0x4a627aeb\n              eq\n              tag_8\n              jumpi\n              dup1\n              0x5ee1773d\n              eq\n              tag_9\n              jumpi\n              jump(tag_2)\n            tag_20:\n              dup1\n              0x01ffc9a7\n              eq\n              tag_3\n              jumpi\n              dup1\n              0x23b1ff00\n              eq\n              tag_4\n              jumpi\n              dup1\n              0x32b93996\n              eq\n              tag_5\n              jumpi\n            tag_2:\n              0x00\n              dup1\n              revert\n                /* \"ERC165.sol\":128:290   */\n            tag_3:\n              tag_21\n              0x04\n              dup1\n              calldatasize\n              sub\n              dup2\n              add\n              swap1\n              tag_22\n              swap2\n              swap1\n              tag_23\n              jump\t// in\n            tag_22:\n              tag_24\n              jump\t// in\n            tag_21:\n              mload(0x40)\n              tag_25\n              swap2\n              swap1\n              tag_26\n              jump\t// in\n            tag_25:\n              mload(0x40)\n              dup1\n              swap2\n              sub\n              swap1\n              return\n                /* \"Plot.sol\":260:283   */\n            tag_4:\n              tag_27\n              tag_28\n              jump\t// in\n            tag_27:\n              mload(0x40)\n              tag_29\n              swap2\n              swap1\n              tag_30\n              jump\t// in\n            tag_29:\n              mload(0x40)\n              dup1\n              swap2\n              sub\n              swap1\n              return\n                /* \"Plot.sol\":201:226   */\n            tag_5:\n              tag_31\n              tag_32\n              jump\t// in\n            tag_31:\n              mload(0x40)\n              tag_33\n              swap2\n              swap1\n              tag_34\n              jump\t// in\n            tag_33:\n              mload(0x40)\n              dup1\n              swap2\n              sub\n              swap1\n              return\n                /* \"Plot.sol\":169:194   */\n            tag_6:\n              tag_35\n              tag_36\n              jump\t// in\n            tag_35:\n              mload(0x40)\n              tag_37\n              swap2\n              swap1\n              tag_34\n              jump\t// in\n            tag_37:\n              mload(0x40)\n              dup1\n              swap2\n              sub\n              swap1\n              return\n                /* \"Plot.sol\":935:1031   */\n            tag_7:\n              tag_38\n              tag_39\n              jump\t// in\n            tag_38:\n              mload(0x40)\n              tag_40\n              swap2\n              swap1\n              tag_34\n              jump\t// in\n            tag_40:\n              mload(0x40)\n              dup1\n              swap2\n              sub\n              swap1\n              return\n                /* \"Plot.sol\":1133:1216   */\n            tag_8:\n              tag_41\n              0x04\n              dup1\n              calldatasize\n              sub\n              dup2\n              add\n              swap1\n              tag_42\n              swap2\n              swap1\n              tag_43\n              jump\t// in\n            tag_42:\n              tag_44\n              jump\t// in\n            tag_41:\n              stop\n                /* \"Plot.sol\":140:162   */\n            tag_9:\n              tag_45\n              tag_46\n              jump\t// in\n            tag_45:\n              mload(0x40)\n              tag_47\n              swap2\n              swap1\n              tag_34\n              jump\t// in\n            tag_47:\n              mload(0x40)\n              dup1\n              swap2\n              sub\n              swap1\n              return\n                /* \"ERC721.sol\":624:852   */\n            tag_10:\n              tag_48\n              0x04\n              dup1\n              calldatasize\n              sub\n              dup2\n              add\n              swap1\n              tag_49\n              swap2\n              swap1\n              tag_50\n              jump\t// in\n            tag_49:\n              tag_51\n              jump\t// in\n            tag_48:\n              mload(0x40)\n              tag_52\n              swap2\n              swap1\n              tag_53\n              jump\t// in\n            tag_52:\n              mload(0x40)\n              dup1\n              swap2\n              sub\n              swap1\n              return\n                /* \"ERC721.sol\":1108:1302   */\n            tag_11:\n              tag_54\n              0x04\n              dup1\n              calldatasize\n              sub\n              dup2\n              add\n              swap1\n              tag_55\n              swap2\n              swap1\n              tag_56\n              jump\t// in\n            tag_55:\n              tag_57\n              jump\t// in\n            tag_54:\n              stop\n                /* \"ERC721.sol\":863:984   */\n            tag_12:\n              tag_58\n              0x04\n              dup1\n              calldatasize\n              sub\n              dup2\n              add\n              swap1\n              tag_59\n              swap2\n              swap1\n              tag_60\n              jump\t// in\n            tag_59:\n              tag_61\n              jump\t// in\n            tag_58:\n              mload(0x40)\n              tag_62\n              swap2\n              swap1\n              tag_34\n              jump\t// in\n            tag_62:\n              mload(0x40)\n              dup1\n              swap2\n              sub\n              swap1\n              return\n                /* \"Plot.sol\":607:758   */\n            tag_13:\n              tag_63\n              0x04\n              dup1\n              calldatasize\n              sub\n              dup2\n              add\n              swap1\n              tag_64\n              swap2\n              swap1\n              tag_65\n              jump\t// in\n            tag_64:\n              tag_66\n              jump\t// in\n            tag_63:\n              stop\n                /* \"Plot.sol\":1039:1127   */\n            tag_14:\n              tag_67\n              tag_68\n              jump\t// in\n            tag_67:\n              mload(0x40)\n              tag_69\n              swap2\n              swap1\n              tag_26\n              jump\t// in\n            tag_69:\n              mload(0x40)\n              dup1\n              swap2\n              sub\n              swap1\n              return\n                /* \"Plot.sol\":233:253   */\n            tag_15:\n              tag_70\n              tag_71\n              jump\t// in\n            tag_70:\n              mload(0x40)\n              tag_72\n              swap2\n              swap1\n              tag_53\n              jump\t// in\n            tag_72:\n              mload(0x40)\n              dup1\n              swap2\n              sub\n              swap1\n              return\n                /* \"ERC721.sol\":992:1099   */\n            tag_16:\n              tag_73\n              0x04\n              dup1\n              calldatasize\n              sub\n              dup2\n              add\n              swap1\n              tag_74\n              swap2\n              swap1\n              tag_65\n              jump\t// in\n            tag_74:\n              tag_75\n              jump\t// in\n            tag_73:\n              stop\n                /* \"Plot.sol\":830:926   */\n            tag_17:\n              tag_76\n              tag_77\n              jump\t// in\n            tag_76:\n              mload(0x40)\n              tag_78\n              swap2\n              swap1\n              tag_34\n              jump\t// in\n            tag_78:\n              mload(0x40)\n              dup1\n              swap2\n              sub\n              swap1\n              return\n                /* \"ERC165.sol\":128:290   */\n            tag_24:\n                /* \"ERC165.sol\":213:217   */\n              0x00\n                /* \"ERC165.sol\":257:282   */\n              0x01ffc9a700000000000000000000000000000000000000000000000000000000\n                /* \"ERC165.sol\":242:282   */\n              not(0xffffffffffffffffffffffffffffffffffffffffffffffffffffffff)\n              and\n                /* \"ERC165.sol\":242:253   */\n              dup3\n                /* \"ERC165.sol\":242:282   */\n              not(0xffffffffffffffffffffffffffffffffffffffffffffffffffffffff)\n              and\n              eq\n                /* \"ERC165.sol\":235:282   */\n              swap1\n              pop\n                /* \"ERC165.sol\":128:290   */\n              swap2\n              swap1\n              pop\n              jump\t// out\n                /* \"Plot.sol\":260:283   */\n            tag_28:\n              0x06\n              dup1\n              sload\n              tag_80\n              swap1\n              tag_81\n              jump\t// in\n            tag_80:\n              dup1\n              0x1f\n              add\n              0x20\n              dup1\n              swap2\n              div\n              mul\n              0x20\n              add\n              mload(0x40)\n              swap1\n              dup2\n              add\n              0x40\n              mstore\n              dup1\n              swap3\n              swap2\n              swap1\n              dup2\n              dup2\n              mstore\n              0x20\n              add\n              dup3\n              dup1\n              sload\n              tag_82\n              swap1\n              tag_81\n              jump\t// in\n            tag_82:\n              dup1\n              iszero\n              tag_83\n              jumpi\n              dup1\n              0x1f\n              lt\n              tag_84\n              jumpi\n              0x0100\n              dup1\n              dup4\n              sload\n              div\n              mul\n              dup4\n              mstore\n              swap2\n              0x20\n              add\n              swap2\n              jump(tag_83)\n            tag_84:\n              dup3\n              add\n              swap2\n              swap1\n              0x00\n              mstore\n              keccak256(0x00, 0x20)\n              swap1\n            tag_85:\n              dup2\n              sload\n              dup2\n              mstore\n              swap1\n              0x01\n              add\n              swap1\n              0x20\n              add\n              dup1\n              dup4\n              gt\n              tag_85\n              jumpi\n              dup3\n              swap1\n              sub\n              0x1f\n              and\n              dup3\n              add\n              swap2\n            tag_83:\n              pop\n              pop\n              pop\n              pop\n              pop\n              dup2\n              jump\t// out\n                /* \"Plot.sol\":201:226   */\n            tag_32:\n              sload(0x04)\n              dup2\n              jump\t// out\n                /* \"Plot.sol\":169:194   */\n            tag_36:\n              sload(0x03)\n              dup2\n              jump\t// out\n                /* \"Plot.sol\":935:1031   */\n            tag_39:\n                /* \"Plot.sol\":981:988   */\n              0x00\n                /* \"Plot.sol\":1013:1023   */\n              sload(0x04)\n                /* \"Plot.sol\":1006:1023   */\n              swap1\n              pop\n                /* \"Plot.sol\":935:1031   */\n              swap1\n              jump\t// out\n                /* \"Plot.sol\":1133:1216   */\n            tag_44:\n                /* \"Plot.sol\":1202:1208   */\n              dup1\n                /* \"Plot.sol\":1193:1201   */\n              0x07\n              0x00\n                /* \"Plot.sol\":1193:1208   */\n              0x0100\n              exp\n              dup2\n              sload\n              dup2\n              0xff\n              mul\n              not\n              and\n              swap1\n              dup4\n              iszero\n              iszero\n              mul\n              or\n              swap1\n              sstore\n              pop\n                /* \"Plot.sol\":1133:1216   */\n              pop\n              jump\t// out\n                /* \"Plot.sol\":140:162   */\n            tag_46:\n              sload(0x02)\n              dup2\n              jump\t// out\n                /* \"ERC721.sol\":624:852   */\n            tag_51:\n                /* \"ERC721.sol\":697:704   */\n              0x00\n                /* \"ERC721.sol\":722:735   */\n              dup1\n                /* \"ERC721.sol\":738:745   */\n              0x00\n                /* \"ERC721.sol\":738:754   */\n              dup1\n                /* \"ERC721.sol\":746:753   */\n              dup5\n                /* \"ERC721.sol\":738:754   */\n              dup2\n              mstore\n              0x20\n              add\n              swap1\n              dup2\n              mstore\n              0x20\n              add\n              0x00\n              keccak256\n              0x00\n              swap1\n              sload\n              swap1\n              0x0100\n              exp\n              swap1\n              div\n              0xffffffffffffffffffffffffffffffffffffffff\n              and\n                /* \"ERC721.sol\":722:754   */\n              swap1\n              pop\n                /* \"ERC721.sol\":791:792   */\n              0x00\n                /* \"ERC721.sol\":774:793   */\n              0xffffffffffffffffffffffffffffffffffffffff\n              and\n                /* \"ERC721.sol\":774:779   */\n              dup2\n                /* \"ERC721.sol\":774:793   */\n              0xffffffffffffffffffffffffffffffffffffffff\n              and\n              sub\n                /* \"ERC721.sol\":765:821   */\n              tag_89\n              jumpi\n              mload(0x40)\n              0x08c379a000000000000000000000000000000000000000000000000000000000\n              dup2\n              mstore\n              0x04\n              add\n              tag_90\n              swap1\n              tag_91\n              jump\t// in\n            tag_90:\n              mload(0x40)\n              dup1\n              swap2\n              sub\n              swap1\n              revert\n            tag_89:\n                /* \"ERC721.sol\":839:844   */\n              dup1\n                /* \"ERC721.sol\":832:844   */\n              swap2\n              pop\n              pop\n                /* \"ERC721.sol\":624:852   */\n              swap2\n              swap1\n              pop\n              jump\t// out\n                /* \"ERC721.sol\":1108:1302   */\n            tag_57:\n                /* \"ERC721.sol\":1202:1220   */\n              tag_93\n                /* \"ERC721.sol\":1208:1210   */\n              dup4\n                /* \"ERC721.sol\":1212:1219   */\n              dup4\n                /* \"ERC721.sol\":1202:1207   */\n              tag_94\n                /* \"ERC721.sol\":1202:1220   */\n              jump\t// in\n            tag_93:\n                /* \"ERC721.sol\":1239:1293   */\n              tag_95\n                /* \"ERC721.sol\":1270:1271   */\n              0x00\n                /* \"ERC721.sol\":1274:1276   */\n              dup5\n                /* \"ERC721.sol\":1278:1285   */\n              dup5\n                /* \"ERC721.sol\":1287:1292   */\n              dup5\n                /* \"ERC721.sol\":1239:1261   */\n              tag_96\n                /* \"ERC721.sol\":1239:1293   */\n              jump\t// in\n            tag_95:\n                /* \"ERC721.sol\":1231:1294   */\n              tag_97\n              jumpi\n              0x00\n              dup1\n              revert\n            tag_97:\n                /* \"ERC721.sol\":1108:1302   */\n              pop\n              pop\n              pop\n              jump\t// out\n                /* \"ERC721.sol\":863:984   */\n            tag_61:\n                /* \"ERC721.sol\":920:935   */\n              0x00\n                /* \"ERC721.sol\":960:969   */\n              0x01\n                /* \"ERC721.sol\":960:976   */\n              0x00\n                /* \"ERC721.sol\":970:975   */\n              dup4\n                /* \"ERC721.sol\":960:976   */\n              0xffffffffffffffffffffffffffffffffffffffff\n              and\n              0xffffffffffffffffffffffffffffffffffffffff\n              and\n              dup2\n              mstore\n              0x20\n              add\n              swap1\n              dup2\n              mstore\n              0x20\n              add\n              0x00\n              keccak256\n              sload\n                /* \"ERC721.sol\":953:976   */\n              swap1\n              pop\n                /* \"ERC721.sol\":863:984   */\n              swap2\n              swap1\n              pop\n              jump\t// out\n                /* \"Plot.sol\":607:758   */\n            tag_66:\n                /* \"Plot.sol\":721:750   */\n              tag_100\n                /* \"Plot.sol\":738:740   */\n              dup3\n                /* \"Plot.sol\":742:749   */\n              dup3\n                /* \"Plot.sol\":721:737   */\n              tag_75\n                /* \"Plot.sol\":721:750   */\n              jump\t// in\n            tag_100:\n                /* \"Plot.sol\":607:758   */\n              pop\n              pop\n              jump\t// out\n                /* \"Plot.sol\":1039:1127   */\n            tag_68:\n                /* \"Plot.sol\":1082:1086   */\n              0x00\n                /* \"Plot.sol\":1111:1119   */\n              0x07\n              0x00\n              swap1\n              sload\n              swap1\n              0x0100\n              exp\n              swap1\n              div\n              0xff\n              and\n                /* \"Plot.sol\":1104:1119   */\n              swap1\n              pop\n                /* \"Plot.sol\":1039:1127   */\n              swap1\n              jump\t// out\n                /* \"Plot.sol\":233:253   */\n            tag_71:\n              0x05\n              0x00\n              swap1\n              sload\n              swap1\n              0x0100\n              exp\n              swap1\n              div\n              0xffffffffffffffffffffffffffffffffffffffff\n              and\n              dup2\n              jump\t// out\n                /* \"ERC721.sol\":992:1099   */\n            tag_75:\n                /* \"ERC721.sol\":1065:1091   */\n              tag_103\n                /* \"ERC721.sol\":1076:1078   */\n              dup3\n                /* \"ERC721.sol\":1079:1086   */\n              dup3\n                /* \"ERC721.sol\":1065:1091   */\n              mload(0x40)\n              dup1\n              0x20\n              add\n              0x40\n              mstore\n              dup1\n              0x00\n              dup2\n              mstore\n              pop\n                /* \"ERC721.sol\":1065:1074   */\n              tag_57\n                /* \"ERC721.sol\":1065:1091   */\n              jump\t// in\n            tag_103:\n                /* \"ERC721.sol\":992:1099   */\n              pop\n              pop\n              jump\t// out\n                /* \"Plot.sol\":830:926   */\n            tag_77:\n                /* \"Plot.sol\":876:883   */\n              0x00\n                /* \"Plot.sol\":908:918   */\n              sload(0x03)\n                /* \"Plot.sol\":901:918   */\n              swap1\n              pop\n                /* \"Plot.sol\":830:926   */\n              swap1\n              jump\t// out\n                /* \"ERC721.sol\":1310:1786   */\n            tag_94:\n                /* \"ERC721.sol\":1410:1411   */\n              0x00\n                /* \"ERC721.sol\":1396:1412   */\n              0xffffffffffffffffffffffffffffffffffffffff\n              and\n                /* \"ERC721.sol\":1396:1398   */\n              dup3\n                /* \"ERC721.sol\":1396:1412   */\n              0xffffffffffffffffffffffffffffffffffffffff\n              and\n              sub\n                /* \"ERC721.sol\":1388:1455   */\n              tag_106\n              jumpi\n              mload(0x40)\n              0x08c379a000000000000000000000000000000000000000000000000000000000\n              dup2\n              mstore\n              0x04\n              add\n              tag_107\n              swap1\n              tag_108\n              jump\t// in\n            tag_107:\n              mload(0x40)\n              dup1\n              swap2\n              sub\n              swap1\n              revert\n            tag_106:\n                /* \"ERC721.sol\":1476:1492   */\n              tag_109\n                /* \"ERC721.sol\":1484:1491   */\n              dup2\n                /* \"ERC721.sol\":1476:1483   */\n              tag_110\n                /* \"ERC721.sol\":1476:1492   */\n              jump\t// in\n            tag_109:\n                /* \"ERC721.sol\":1475:1492   */\n              iszero\n                /* \"ERC721.sol\":1466:1531   */\n              tag_111\n              jumpi\n              mload(0x40)\n              0x08c379a000000000000000000000000000000000000000000000000000000000\n              dup2\n              mstore\n              0x04\n              add\n              tag_112\n              swap1\n              tag_113\n              jump\t// in\n            tag_112:\n              mload(0x40)\n              dup1\n              swap2\n              sub\n              swap1\n              revert\n            tag_111:\n                /* \"ERC721.sol\":1694:1695   */\n              0x01\n                /* \"ERC721.sol\":1679:1688   */\n              dup1\n                /* \"ERC721.sol\":1679:1692   */\n              0x00\n                /* \"ERC721.sol\":1689:1691   */\n              dup5\n                /* \"ERC721.sol\":1679:1692   */\n              0xffffffffffffffffffffffffffffffffffffffff\n              and\n              0xffffffffffffffffffffffffffffffffffffffff\n              and\n              dup2\n              mstore\n              0x20\n              add\n              swap1\n              dup2\n              mstore\n              0x20\n              add\n              0x00\n              keccak256\n              0x00\n                /* \"ERC721.sol\":1679:1695   */\n              dup3\n              dup3\n              sload\n              tag_114\n              swap2\n              swap1\n              tag_115\n              jump\t// in\n            tag_114:\n              swap3\n              pop\n              pop\n              dup2\n              swap1\n              sstore\n              pop\n                /* \"ERC721.sol\":1725:1727   */\n              dup2\n                /* \"ERC721.sol\":1706:1713   */\n              0x00\n                /* \"ERC721.sol\":1706:1722   */\n              dup1\n                /* \"ERC721.sol\":1714:1721   */\n              dup4\n                /* \"ERC721.sol\":1706:1722   */\n              dup2\n              mstore\n              0x20\n              add\n              swap1\n              dup2\n              mstore\n              0x20\n              add\n              0x00\n              keccak256\n              0x00\n                /* \"ERC721.sol\":1706:1727   */\n              0x0100\n              exp\n              dup2\n              sload\n              dup2\n              0xffffffffffffffffffffffffffffffffffffffff\n              mul\n              not\n              and\n              swap1\n              dup4\n              0xffffffffffffffffffffffffffffffffffffffff\n              and\n              mul\n              or\n              swap1\n              sstore\n              pop\n                /* \"ERC721.sol\":1770:1777   */\n              dup1\n                /* \"ERC721.sol\":1766:1768   */\n              dup3\n                /* \"ERC721.sol\":1745:1778   */\n              0xffffffffffffffffffffffffffffffffffffffff\n              and\n                /* \"ERC721.sol\":1762:1763   */\n              0x00\n                /* \"ERC721.sol\":1745:1778   */\n              0xffffffffffffffffffffffffffffffffffffffff\n              and\n              0xddf252ad1be2c89b69c2b068fc378daa952ba7f163c4a11628f55a4df523b3ef\n              mload(0x40)\n              mload(0x40)\n              dup1\n              swap2\n              sub\n              swap1\n              log4\n                /* \"ERC721.sol\":1310:1786   */\n              pop\n              pop\n              jump\t// out\n                /* \"ERC721.sol\":1965:2754   */\n            tag_96:\n                /* \"ERC721.sol\":2077:2081   */\n              0x00\n                /* \"ERC721.sol\":2104:2118   */\n              tag_117\n                /* \"ERC721.sol\":2115:2117   */\n              dup5\n                /* \"ERC721.sol\":2104:2114   */\n              tag_118\n                /* \"ERC721.sol\":2104:2118   */\n              jump\t// in\n            tag_117:\n                /* \"ERC721.sol\":2100:2747   */\n              iszero\n              tag_119\n              jumpi\n                /* \"ERC721.sol\":2165:2167   */\n              dup4\n                /* \"ERC721.sol\":2149:2185   */\n              0xffffffffffffffffffffffffffffffffffffffff\n              and\n              0x150b7a02\n                /* \"ERC721.sol\":2186:2196   */\n              caller\n                /* \"ERC721.sol\":2198:2202   */\n              dup8\n                /* \"ERC721.sol\":2204:2211   */\n              dup7\n                /* \"ERC721.sol\":2213:2218   */\n              dup7\n                /* \"ERC721.sol\":2149:2219   */\n              mload(0x40)\n              dup6\n              0xffffffff\n              and\n              0xe0\n              shl\n              dup2\n              mstore\n              0x04\n              add\n              tag_120\n              swap5\n              swap4\n              swap3\n              swap2\n              swap1\n              tag_121\n              jump\t// in\n            tag_120:\n              0x20\n              mload(0x40)\n              dup1\n              dup4\n              sub\n              dup2\n              0x00\n              dup8\n              gas\n              call\n              swap3\n              pop\n              pop\n              pop\n              dup1\n              iszero\n              tag_122\n              jumpi\n              pop\n              mload(0x40)\n              returndatasize\n              not(0x1f)\n              0x1f\n              dup3\n              add\n              and\n              dup3\n              add\n              dup1\n              0x40\n              mstore\n              pop\n              dup2\n              add\n              swap1\n              tag_123\n              swap2\n              swap1\n              tag_124\n              jump\t// in\n            tag_123:\n              0x01\n            tag_122:\n                /* \"ERC721.sol\":2145:2672   */\n              tag_125\n              jumpi\n              returndatasize\n              dup1\n              0x00\n              dup2\n              eq\n              tag_130\n              jumpi\n              mload(0x40)\n              swap2\n              pop\n              and(add(returndatasize, 0x3f), not(0x1f))\n              dup3\n              add\n              0x40\n              mstore\n              returndatasize\n              dup3\n              mstore\n              returndatasize\n              0x00\n              0x20\n              dup5\n              add\n              returndatacopy\n              jump(tag_129)\n            tag_130:\n              0x60\n              swap2\n              pop\n            tag_129:\n              pop\n                /* \"ERC721.sol\":2406:2407   */\n              0x00\n                /* \"ERC721.sol\":2389:2395   */\n              dup2\n                /* \"ERC721.sol\":2389:2402   */\n              mload\n                /* \"ERC721.sol\":2389:2407   */\n              sub\n                /* \"ERC721.sol\":2385:2657   */\n              tag_131\n              jumpi\n                /* \"ERC721.sol\":2432:2492   */\n              mload(0x40)\n              0x08c379a000000000000000000000000000000000000000000000000000000000\n              dup2\n              mstore\n              0x04\n              add\n              tag_132\n              swap1\n              tag_133\n              jump\t// in\n            tag_132:\n              mload(0x40)\n              dup1\n              swap2\n              sub\n              swap1\n              revert\n                /* \"ERC721.sol\":2385:2657   */\n            tag_131:\n                /* \"ERC721.sol\":2607:2613   */\n              dup1\n                /* \"ERC721.sol\":2601:2614   */\n              mload\n                /* \"ERC721.sol\":2592:2598   */\n              dup2\n                /* \"ERC721.sol\":2588:2590   */\n              0x20\n                /* \"ERC721.sol\":2584:2599   */\n              add\n                /* \"ERC721.sol\":2577:2615   */\n              revert\n                /* \"ERC721.sol\":2145:2672   */\n            tag_125:\n                /* \"ERC721.sol\":2280:2321   */\n              shl(0xe0, 0x150b7a02)\n                /* \"ERC721.sol\":2270:2321   */\n              not(0xffffffffffffffffffffffffffffffffffffffffffffffffffffffff)\n              and\n                /* \"ERC721.sol\":2270:2276   */\n              dup2\n                /* \"ERC721.sol\":2270:2321   */\n              not(0xffffffffffffffffffffffffffffffffffffffffffffffffffffffff)\n              and\n              eq\n                /* \"ERC721.sol\":2263:2321   */\n              swap2\n              pop\n              pop\n              jump(tag_116)\n                /* \"ERC721.sol\":2100:2747   */\n            tag_119:\n                /* \"ERC721.sol\":2731:2735   */\n              0x01\n                /* \"ERC721.sol\":2724:2735   */\n              swap1\n              pop\n                /* \"ERC721.sol\":1965:2754   */\n            tag_116:\n              swap5\n              swap4\n              pop\n              pop\n              pop\n              pop\n              jump\t// out\n                /* \"ERC721.sol\":1797:1957   */\n            tag_110:\n                /* \"ERC721.sol\":1862:1866   */\n              0x00\n                /* \"ERC721.sol\":1918:1919   */\n              dup1\n                /* \"ERC721.sol\":1891:1920   */\n              0xffffffffffffffffffffffffffffffffffffffff\n              and\n                /* \"ERC721.sol\":1891:1898   */\n              0x00\n                /* \"ERC721.sol\":1891:1907   */\n              dup1\n                /* \"ERC721.sol\":1899:1906   */\n              dup5\n                /* \"ERC721.sol\":1891:1907   */\n              dup2\n              mstore\n              0x20\n              add\n              swap1\n              dup2\n              mstore\n              0x20\n              add\n              0x00\n              keccak256\n              0x00\n              swap1\n              sload\n              swap1\n              0x0100\n              exp\n              swap1\n              div\n              0xffffffffffffffffffffffffffffffffffffffff\n              and\n                /* \"ERC721.sol\":1891:1920   */\n              0xffffffffffffffffffffffffffffffffffffffff\n              and\n              eq\n              iszero\n                /* \"ERC721.sol\":1884:1920   */\n              swap1\n              pop\n                /* \"ERC721.sol\":1797:1957   */\n              swap2\n              swap1\n              pop\n              jump\t// out\n                /* \"ERC721.sol\":2762:2967   */\n            tag_118:\n                /* \"ERC721.sol\":2819:2823   */\n              0x00\n                /* \"ERC721.sol\":2841:2852   */\n              dup1\n                /* \"ERC721.sol\":2917:2922   */\n              dup3\n                /* \"ERC721.sol\":2905:2923   */\n              extcodesize\n                /* \"ERC721.sol\":2897:2923   */\n              swap1\n              pop\n                /* \"ERC721.sol\":2957:2958   */\n              0x00\n                /* \"ERC721.sol\":2952:2956   */\n              dup2\n                /* \"ERC721.sol\":2952:2958   */\n              0xffffffff\n              and\n              gt\n                /* \"ERC721.sol\":2944:2959   */\n              swap2\n              pop\n              pop\n                /* \"ERC721.sol\":2762:2967   */\n              swap2\n              swap1\n              pop\n              jump\t// out\n                /* \"#utility.yul\":7:82   */\n            tag_139:\n                /* \"#utility.yul\":40:46   */\n              0x00\n                /* \"#utility.yul\":73:75   */\n              0x40\n                /* \"#utility.yul\":67:76   */\n              mload\n                /* \"#utility.yul\":57:76   */\n              swap1\n              pop\n                /* \"#utility.yul\":7:82   */\n              swap1\n              jump\t// out\n                /* \"#utility.yul\":88:205   */\n            tag_140:\n                /* \"#utility.yul\":197:198   */\n              0x00\n                /* \"#utility.yul\":194:195   */\n              dup1\n                /* \"#utility.yul\":187:199   */\n              revert\n                /* \"#utility.yul\":211:328   */\n            tag_141:\n                /* \"#utility.yul\":320:321   */\n              0x00\n                /* \"#utility.yul\":317:318   */\n              dup1\n                /* \"#utility.yul\":310:322   */\n              revert\n                /* \"#utility.yul\":334:483   */\n            tag_142:\n                /* \"#utility.yul\":370:377   */\n              0x00\n                /* \"#utility.yul\":410:476   */\n              0xffffffff00000000000000000000000000000000000000000000000000000000\n                /* \"#utility.yul\":403:408   */\n              dup3\n                /* \"#utility.yul\":399:477   */\n              and\n                /* \"#utility.yul\":388:477   */\n              swap1\n              pop\n                /* \"#utility.yul\":334:483   */\n              swap2\n              swap1\n              pop\n              jump\t// out\n                /* \"#utility.yul\":489:609   */\n            tag_143:\n                /* \"#utility.yul\":561:584   */\n              tag_192\n                /* \"#utility.yul\":578:583   */\n              dup2\n                /* \"#utility.yul\":561:584   */\n              tag_142\n              jump\t// in\n            tag_192:\n                /* \"#utility.yul\":554:559   */\n              dup2\n                /* \"#utility.yul\":551:585   */\n              eq\n                /* \"#utility.yul\":541:603   */\n              tag_193\n              jumpi\n                /* \"#utility.yul\":599:600   */\n              0x00\n                /* \"#utility.yul\":596:597   */\n              dup1\n                /* \"#utility.yul\":589:601   */\n              revert\n                /* \"#utility.yul\":541:603   */\n            tag_193:\n                /* \"#utility.yul\":489:609   */\n              pop\n              jump\t// out\n                /* \"#utility.yul\":615:752   */\n            tag_144:\n                /* \"#utility.yul\":660:665   */\n              0x00\n                /* \"#utility.yul\":698:704   */\n              dup2\n                /* \"#utility.yul\":685:705   */\n              calldataload\n                /* \"#utility.yul\":676:705   */\n              swap1\n              pop\n                /* \"#utility.yul\":714:746   */\n              tag_195\n                /* \"#utility.yul\":740:745   */\n              dup2\n                /* \"#utility.yul\":714:746   */\n              tag_143\n              jump\t// in\n            tag_195:\n                /* \"#utility.yul\":615:752   */\n              swap3\n              swap2\n              pop\n              pop\n              jump\t// out\n                /* \"#utility.yul\":758:1085   */\n            tag_23:\n                /* \"#utility.yul\":816:822   */\n              0x00\n                /* \"#utility.yul\":865:867   */\n              0x20\n                /* \"#utility.yul\":853:862   */\n              dup3\n                /* \"#utility.yul\":844:851   */\n              dup5\n                /* \"#utility.yul\":840:863   */\n              sub\n                /* \"#utility.yul\":836:868   */\n              slt\n                /* \"#utility.yul\":833:952   */\n              iszero\n              tag_197\n              jumpi\n                /* \"#utility.yul\":871:950   */\n              tag_198\n              tag_140\n              jump\t// in\n            tag_198:\n                /* \"#utility.yul\":833:952   */\n            tag_197:\n                /* \"#utility.yul\":991:992   */\n              0x00\n                /* \"#utility.yul\":1016:1068   */\n              tag_199\n                /* \"#utility.yul\":1060:1067   */\n              dup5\n                /* \"#utility.yul\":1051:1057   */\n              dup3\n                /* \"#utility.yul\":1040:1049   */\n              dup6\n                /* \"#utility.yul\":1036:1058   */\n              add\n                /* \"#utility.yul\":1016:1068   */\n              tag_144\n              jump\t// in\n            tag_199:\n                /* \"#utility.yul\":1006:1068   */\n              swap2\n              pop\n                /* \"#utility.yul\":962:1078   */\n              pop\n                /* \"#utility.yul\":758:1085   */\n              swap3\n              swap2\n              pop\n              pop\n              jump\t// out\n                /* \"#utility.yul\":1091:1181   */\n            tag_145:\n                /* \"#utility.yul\":1125:1132   */\n              0x00\n                /* \"#utility.yul\":1168:1173   */\n              dup2\n                /* \"#utility.yul\":1161:1174   */\n              iszero\n                /* \"#utility.yul\":1154:1175   */\n              iszero\n                /* \"#utility.yul\":1143:1175   */\n              swap1\n              pop\n                /* \"#utility.yul\":1091:1181   */\n              swap2\n              swap1\n              pop\n              jump\t// out\n                /* \"#utility.yul\":1187:1296   */\n            tag_146:\n                /* \"#utility.yul\":1268:1289   */\n              tag_202\n                /* \"#utility.yul\":1283:1288   */\n              dup2\n                /* \"#utility.yul\":1268:1289   */\n              tag_145\n              jump\t// in\n            tag_202:\n                /* \"#utility.yul\":1263:1266   */\n              dup3\n                /* \"#utility.yul\":1256:1290   */\n              mstore\n                /* \"#utility.yul\":1187:1296   */\n              pop\n              pop\n              jump\t// out\n                /* \"#utility.yul\":1302:1512   */\n            tag_26:\n                /* \"#utility.yul\":1389:1393   */\n              0x00\n                /* \"#utility.yul\":1427:1429   */\n              0x20\n                /* \"#utility.yul\":1416:1425   */\n              dup3\n                /* \"#utility.yul\":1412:1430   */\n              add\n                /* \"#utility.yul\":1404:1430   */\n              swap1\n              pop\n                /* \"#utility.yul\":1440:1505   */\n              tag_204\n                /* \"#utility.yul\":1502:1503   */\n              0x00\n                /* \"#utility.yul\":1491:1500   */\n              dup4\n                /* \"#utility.yul\":1487:1504   */\n              add\n                /* \"#utility.yul\":1478:1484   */\n              dup5\n                /* \"#utility.yul\":1440:1505   */\n              tag_146\n              jump\t// in\n            tag_204:\n                /* \"#utility.yul\":1302:1512   */\n              swap3\n              swap2\n              pop\n              pop\n              jump\t// out\n                /* \"#utility.yul\":1518:1617   */\n            tag_147:\n                /* \"#utility.yul\":1570:1576   */\n              0x00\n                /* \"#utility.yul\":1604:1609   */\n              dup2\n                /* \"#utility.yul\":1598:1610   */\n              mload\n                /* \"#utility.yul\":1588:1610   */\n              swap1\n              pop\n                /* \"#utility.yul\":1518:1617   */\n              swap2\n              swap1\n              pop\n              jump\t// out\n                /* \"#utility.yul\":1623:1792   */\n            tag_148:\n                /* \"#utility.yul\":1707:1718   */\n              0x00\n                /* \"#utility.yul\":1741:1747   */\n              dup3\n                /* \"#utility.yul\":1736:1739   */\n              dup3\n                /* \"#utility.yul\":1729:1748   */\n              mstore\n                /* \"#utility.yul\":1781:1785   */\n              0x20\n                /* \"#utility.yul\":1776:1779   */\n              dup3\n                /* \"#utility.yul\":1772:1786   */\n              add\n                /* \"#utility.yul\":1757:1786   */\n              swap1\n              pop\n                /* \"#utility.yul\":1623:1792   */\n              swap3\n              swap2\n              pop\n              pop\n              jump\t// out\n                /* \"#utility.yul\":1798:2105   */\n            tag_149:\n                /* \"#utility.yul\":1866:1867   */\n              0x00\n                /* \"#utility.yul\":1876:1989   */\n            tag_208:\n                /* \"#utility.yul\":1890:1896   */\n              dup4\n                /* \"#utility.yul\":1887:1888   */\n              dup2\n                /* \"#utility.yul\":1884:1897   */\n              lt\n                /* \"#utility.yul\":1876:1989   */\n              iszero\n              tag_210\n              jumpi\n                /* \"#utility.yul\":1975:1976   */\n              dup1\n                /* \"#utility.yul\":1970:1973   */\n              dup3\n                /* \"#utility.yul\":1966:1977   */\n              add\n                /* \"#utility.yul\":1960:1978   */\n              mload\n                /* \"#utility.yul\":1956:1957   */\n              dup2\n                /* \"#utility.yul\":1951:1954   */\n              dup5\n                /* \"#utility.yul\":1947:1958   */\n              add\n                /* \"#utility.yul\":1940:1979   */\n              mstore\n                /* \"#utility.yul\":1912:1914   */\n              0x20\n                /* \"#utility.yul\":1909:1910   */\n              dup2\n                /* \"#utility.yul\":1905:1915   */\n              add\n                /* \"#utility.yul\":1900:1915   */\n              swap1\n              pop\n                /* \"#utility.yul\":1876:1989   */\n              jump(tag_208)\n            tag_210:\n                /* \"#utility.yul\":2007:2013   */\n              dup4\n                /* \"#utility.yul\":2004:2005   */\n              dup2\n                /* \"#utility.yul\":2001:2014   */\n              gt\n                /* \"#utility.yul\":1998:2099   */\n              iszero\n              tag_211\n              jumpi\n                /* \"#utility.yul\":2087:2088   */\n              0x00\n                /* \"#utility.yul\":2078:2084   */\n              dup5\n                /* \"#utility.yul\":2073:2076   */\n              dup5\n                /* \"#utility.yul\":2069:2085   */\n              add\n                /* \"#utility.yul\":2062:2089   */\n              mstore\n                /* \"#utility.yul\":1998:2099   */\n            tag_211:\n                /* \"#utility.yul\":1847:2105   */\n              pop\n                /* \"#utility.yul\":1798:2105   */\n              pop\n              pop\n              pop\n              jump\t// out\n                /* \"#utility.yul\":2111:2213   */\n            tag_150:\n                /* \"#utility.yul\":2152:2158   */\n              0x00\n                /* \"#utility.yul\":2203:2205   */\n              0x1f\n                /* \"#utility.yul\":2199:2206   */\n              not\n                /* \"#utility.yul\":2194:2196   */\n              0x1f\n                /* \"#utility.yul\":2187:2192   */\n              dup4\n                /* \"#utility.yul\":2183:2197   */\n              add\n                /* \"#utility.yul\":2179:2207   */\n              and\n                /* \"#utility.yul\":2169:2207   */\n              swap1\n              pop\n                /* \"#utility.yul\":2111:2213   */\n              swap2\n              swap1\n              pop\n              jump\t// out\n                /* \"#utility.yul\":2219:2583   */\n            tag_151:\n                /* \"#utility.yul\":2307:2310   */\n              0x00\n                /* \"#utility.yul\":2335:2374   */\n              tag_214\n                /* \"#utility.yul\":2368:2373   */\n              dup3\n                /* \"#utility.yul\":2335:2374   */\n              tag_147\n              jump\t// in\n            tag_214:\n                /* \"#utility.yul\":2390:2461   */\n              tag_215\n                /* \"#utility.yul\":2454:2460   */\n              dup2\n                /* \"#utility.yul\":2449:2452   */\n              dup6\n                /* \"#utility.yul\":2390:2461   */\n              tag_148\n              jump\t// in\n            tag_215:\n                /* \"#utility.yul\":2383:2461   */\n              swap4\n              pop\n                /* \"#utility.yul\":2470:2522   */\n              tag_216\n                /* \"#utility.yul\":2515:2521   */\n              dup2\n                /* \"#utility.yul\":2510:2513   */\n              dup6\n                /* \"#utility.yul\":2503:2507   */\n              0x20\n                /* \"#utility.yul\":2496:2501   */\n              dup7\n                /* \"#utility.yul\":2492:2508   */\n              add\n                /* \"#utility.yul\":2470:2522   */\n              tag_149\n              jump\t// in\n            tag_216:\n                /* \"#utility.yul\":2547:2576   */\n              tag_217\n                /* \"#utility.yul\":2569:2575   */\n              dup2\n                /* \"#utility.yul\":2547:2576   */\n              tag_150\n              jump\t// in\n            tag_217:\n                /* \"#utility.yul\":2542:2545   */\n              dup5\n                /* \"#utility.yul\":2538:2577   */\n              add\n                /* \"#utility.yul\":2531:2577   */\n              swap2\n              pop\n                /* \"#utility.yul\":2311:2583   */\n              pop\n                /* \"#utility.yul\":2219:2583   */\n              swap3\n              swap2\n              pop\n              pop\n              jump\t// out\n                /* \"#utility.yul\":2589:2902   */\n            tag_30:\n                /* \"#utility.yul\":2702:2706   */\n              0x00\n                /* \"#utility.yul\":2740:2742   */\n              0x20\n                /* \"#utility.yul\":2729:2738   */\n              dup3\n                /* \"#utility.yul\":2725:2743   */\n              add\n                /* \"#utility.yul\":2717:2743   */\n              swap1\n              pop\n                /* \"#utility.yul\":2789:2798   */\n              dup2\n                /* \"#utility.yul\":2783:2787   */\n              dup2\n                /* \"#utility.yul\":2779:2799   */\n              sub\n                /* \"#utility.yul\":2775:2776   */\n              0x00\n                /* \"#utility.yul\":2764:2773   */\n              dup4\n                /* \"#utility.yul\":2760:2777   */\n              add\n                /* \"#utility.yul\":2753:2800   */\n              mstore\n                /* \"#utility.yul\":2817:2895   */\n              tag_219\n                /* \"#utility.yul\":2890:2894   */\n              dup2\n                /* \"#utility.yul\":2881:2887   */\n              dup5\n                /* \"#utility.yul\":2817:2895   */\n              tag_151\n              jump\t// in\n            tag_219:\n                /* \"#utility.yul\":2809:2895   */\n              swap1\n              pop\n                /* \"#utility.yul\":2589:2902   */\n              swap3\n              swap2\n              pop\n              pop\n              jump\t// out\n                /* \"#utility.yul\":2908:2985   */\n            tag_152:\n                /* \"#utility.yul\":2945:2952   */\n              0x00\n                /* \"#utility.yul\":2974:2979   */\n              dup2\n                /* \"#utility.yul\":2963:2979   */\n              swap1\n              pop\n                /* \"#utility.yul\":2908:2985   */\n              swap2\n              swap1\n              pop\n              jump\t// out\n                /* \"#utility.yul\":2991:3109   */\n            tag_153:\n                /* \"#utility.yul\":3078:3102   */\n              tag_222\n                /* \"#utility.yul\":3096:3101   */\n              dup2\n                /* \"#utility.yul\":3078:3102   */\n              tag_152\n              jump\t// in\n            tag_222:\n                /* \"#utility.yul\":3073:3076   */\n              dup3\n                /* \"#utility.yul\":3066:3103   */\n              mstore\n                /* \"#utility.yul\":2991:3109   */\n              pop\n              pop\n              jump\t// out\n                /* \"#utility.yul\":3115:3337   */\n            tag_34:\n                /* \"#utility.yul\":3208:3212   */\n              0x00\n                /* \"#utility.yul\":3246:3248   */\n              0x20\n                /* \"#utility.yul\":3235:3244   */\n              dup3\n                /* \"#utility.yul\":3231:3249   */\n              add\n                /* \"#utility.yul\":3223:3249   */\n              swap1\n              pop\n                /* \"#utility.yul\":3259:3330   */\n              tag_224\n                /* \"#utility.yul\":3327:3328   */\n              0x00\n                /* \"#utility.yul\":3316:3325   */\n              dup4\n                /* \"#utility.yul\":3312:3329   */\n              add\n                /* \"#utility.yul\":3303:3309   */\n              dup5\n                /* \"#utility.yul\":3259:3330   */\n              tag_153\n              jump\t// in\n            tag_224:\n                /* \"#utility.yul\":3115:3337   */\n              swap3\n              swap2\n              pop\n              pop\n              jump\t// out\n                /* \"#utility.yul\":3343:3459   */\n            tag_154:\n                /* \"#utility.yul\":3413:3434   */\n              tag_226\n                /* \"#utility.yul\":3428:3433   */\n              dup2\n                /* \"#utility.yul\":3413:3434   */\n              tag_145\n              jump\t// in\n            tag_226:\n                /* \"#utility.yul\":3406:3411   */\n              dup2\n                /* \"#utility.yul\":3403:3435   */\n              eq\n                /* \"#utility.yul\":3393:3453   */\n              tag_227\n              jumpi\n                /* \"#utility.yul\":3449:3450   */\n              0x00\n                /* \"#utility.yul\":3446:3447   */\n              dup1\n                /* \"#utility.yul\":3439:3451   */\n              revert\n                /* \"#utility.yul\":3393:3453   */\n            tag_227:\n                /* \"#utility.yul\":3343:3459   */\n              pop\n              jump\t// out\n                /* \"#utility.yul\":3465:3598   */\n            tag_155:\n                /* \"#utility.yul\":3508:3513   */\n              0x00\n                /* \"#utility.yul\":3546:3552   */\n              dup2\n                /* \"#utility.yul\":3533:3553   */\n              calldataload\n                /* \"#utility.yul\":3524:3553   */\n              swap1\n              pop\n                /* \"#utility.yul\":3562:3592   */\n              tag_229\n                /* \"#utility.yul\":3586:3591   */\n              dup2\n                /* \"#utility.yul\":3562:3592   */\n              tag_154\n              jump\t// in\n            tag_229:\n                /* \"#utility.yul\":3465:3598   */\n              swap3\n              swap2\n              pop\n              pop\n              jump\t// out\n                /* \"#utility.yul\":3604:3927   */\n            tag_43:\n                /* \"#utility.yul\":3660:3666   */\n              0x00\n                /* \"#utility.yul\":3709:3711   */\n              0x20\n                /* \"#utility.yul\":3697:3706   */\n              dup3\n                /* \"#utility.yul\":3688:3695   */\n              dup5\n                /* \"#utility.yul\":3684:3707   */\n              sub\n                /* \"#utility.yul\":3680:3712   */\n              slt\n                /* \"#utility.yul\":3677:3796   */\n              iszero\n              tag_231\n              jumpi\n                /* \"#utility.yul\":3715:3794   */\n              tag_232\n              tag_140\n              jump\t// in\n            tag_232:\n                /* \"#utility.yul\":3677:3796   */\n            tag_231:\n                /* \"#utility.yul\":3835:3836   */\n              0x00\n                /* \"#utility.yul\":3860:3910   */\n              tag_233\n                /* \"#utility.yul\":3902:3909   */\n              dup5\n                /* \"#utility.yul\":3893:3899   */\n              dup3\n                /* \"#utility.yul\":3882:3891   */\n              dup6\n                /* \"#utility.yul\":3878:3900   */\n              add\n                /* \"#utility.yul\":3860:3910   */\n              tag_155\n              jump\t// in\n            tag_233:\n                /* \"#utility.yul\":3850:3910   */\n              swap2\n              pop\n                /* \"#utility.yul\":3806:3920   */\n              pop\n                /* \"#utility.yul\":3604:3927   */\n              swap3\n              swap2\n              pop\n              pop\n              jump\t// out\n                /* \"#utility.yul\":3933:4055   */\n            tag_156:\n                /* \"#utility.yul\":4006:4030   */\n              tag_235\n                /* \"#utility.yul\":4024:4029   */\n              dup2\n                /* \"#utility.yul\":4006:4030   */\n              tag_152\n              jump\t// in\n            tag_235:\n                /* \"#utility.yul\":3999:4004   */\n              dup2\n                /* \"#utility.yul\":3996:4031   */\n              eq\n                /* \"#utility.yul\":3986:4049   */\n              tag_236\n              jumpi\n                /* \"#utility.yul\":4045:4046   */\n              0x00\n                /* \"#utility.yul\":4042:4043   */\n              dup1\n                /* \"#utility.yul\":4035:4047   */\n              revert\n                /* \"#utility.yul\":3986:4049   */\n            tag_236:\n                /* \"#utility.yul\":3933:4055   */\n              pop\n              jump\t// out\n                /* \"#utility.yul\":4061:4200   */\n            tag_157:\n                /* \"#utility.yul\":4107:4112   */\n              0x00\n                /* \"#utility.yul\":4145:4151   */\n              dup2\n                /* \"#utility.yul\":4132:4152   */\n              calldataload\n                /* \"#utility.yul\":4123:4152   */\n              swap1\n              pop\n                /* \"#utility.yul\":4161:4194   */\n              tag_238\n                /* \"#utility.yul\":4188:4193   */\n              dup2\n                /* \"#utility.yul\":4161:4194   */\n              tag_156\n              jump\t// in\n            tag_238:\n                /* \"#utility.yul\":4061:4200   */\n              swap3\n              swap2\n              pop\n              pop\n              jump\t// out\n                /* \"#utility.yul\":4206:4535   */\n            tag_50:\n                /* \"#utility.yul\":4265:4271   */\n              0x00\n                /* \"#utility.yul\":4314:4316   */\n              0x20\n                /* \"#utility.yul\":4302:4311   */\n              dup3\n                /* \"#utility.yul\":4293:4300   */\n              dup5\n                /* \"#utility.yul\":4289:4312   */\n              sub\n                /* \"#utility.yul\":4285:4317   */\n              slt\n                /* \"#utility.yul\":4282:4401   */\n              iszero\n              tag_240\n              jumpi\n                /* \"#utility.yul\":4320:4399   */\n              tag_241\n              tag_140\n              jump\t// in\n            tag_241:\n                /* \"#utility.yul\":4282:4401   */\n            tag_240:\n                /* \"#utility.yul\":4440:4441   */\n              0x00\n                /* \"#utility.yul\":4465:4518   */\n              tag_242\n                /* \"#utility.yul\":4510:4517   */\n              dup5\n                /* \"#utility.yul\":4501:4507   */\n              dup3\n                /* \"#utility.yul\":4490:4499   */\n              dup6\n                /* \"#utility.yul\":4486:4508   */\n              add\n                /* \"#utility.yul\":4465:4518   */\n              tag_157\n              jump\t// in\n            tag_242:\n                /* \"#utility.yul\":4455:4518   */\n              swap2\n              pop\n                /* \"#utility.yul\":4411:4528   */\n              pop\n                /* \"#utility.yul\":4206:4535   */\n              swap3\n              swap2\n              pop\n              pop\n              jump\t// out\n                /* \"#utility.yul\":4541:4667   */\n            tag_158:\n                /* \"#utility.yul\":4578:4585   */\n              0x00\n                /* \"#utility.yul\":4618:4660   */\n              0xffffffffffffffffffffffffffffffffffffffff\n                /* \"#utility.yul\":4611:4616   */\n              dup3\n                /* \"#utility.yul\":4607:4661   */\n              and\n                /* \"#utility.yul\":4596:4661   */\n              swap1\n              pop\n                /* \"#utility.yul\":4541:4667   */\n              swap2\n              swap1\n              pop\n              jump\t// out\n                /* \"#utility.yul\":4673:4769   */\n            tag_159:\n                /* \"#utility.yul\":4710:4717   */\n              0x00\n                /* \"#utility.yul\":4739:4763   */\n              tag_245\n                /* \"#utility.yul\":4757:4762   */\n              dup3\n                /* \"#utility.yul\":4739:4763   */\n              tag_158\n              jump\t// in\n            tag_245:\n                /* \"#utility.yul\":4728:4763   */\n              swap1\n              pop\n                /* \"#utility.yul\":4673:4769   */\n              swap2\n              swap1\n              pop\n              jump\t// out\n                /* \"#utility.yul\":4775:4893   */\n            tag_160:\n                /* \"#utility.yul\":4862:4886   */\n              tag_247\n                /* \"#utility.yul\":4880:4885   */\n              dup2\n                /* \"#utility.yul\":4862:4886   */\n              tag_159\n              jump\t// in\n            tag_247:\n                /* \"#utility.yul\":4857:4860   */\n              dup3\n                /* \"#utility.yul\":4850:4887   */\n              mstore\n                /* \"#utility.yul\":4775:4893   */\n              pop\n              pop\n              jump\t// out\n                /* \"#utility.yul\":4899:5121   */\n            tag_53:\n                /* \"#utility.yul\":4992:4996   */\n              0x00\n                /* \"#utility.yul\":5030:5032   */\n              0x20\n                /* \"#utility.yul\":5019:5028   */\n              dup3\n                /* \"#utility.yul\":5015:5033   */\n              add\n                /* \"#utility.yul\":5007:5033   */\n              swap1\n              pop\n                /* \"#utility.yul\":5043:5114   */\n              tag_249\n                /* \"#utility.yul\":5111:5112   */\n              0x00\n                /* \"#utility.yul\":5100:5109   */\n              dup4\n                /* \"#utility.yul\":5096:5113   */\n              add\n                /* \"#utility.yul\":5087:5093   */\n              dup5\n                /* \"#utility.yul\":5043:5114   */\n              tag_160\n              jump\t// in\n            tag_249:\n                /* \"#utility.yul\":4899:5121   */\n              swap3\n              swap2\n              pop\n              pop\n              jump\t// out\n                /* \"#utility.yul\":5127:5249   */\n            tag_161:\n                /* \"#utility.yul\":5200:5224   */\n              tag_251\n                /* \"#utility.yul\":5218:5223   */\n              dup2\n                /* \"#utility.yul\":5200:5224   */\n              tag_159\n              jump\t// in\n            tag_251:\n                /* \"#utility.yul\":5193:5198   */\n              dup2\n                /* \"#utility.yul\":5190:5225   */\n              eq\n                /* \"#utility.yul\":5180:5243   */\n              tag_252\n              jumpi\n                /* \"#utility.yul\":5239:5240   */\n              0x00\n                /* \"#utility.yul\":5236:5237   */\n              dup1\n                /* \"#utility.yul\":5229:5241   */\n              revert\n                /* \"#utility.yul\":5180:5243   */\n            tag_252:\n                /* \"#utility.yul\":5127:5249   */\n              pop\n              jump\t// out\n                /* \"#utility.yul\":5255:5394   */\n            tag_162:\n                /* \"#utility.yul\":5301:5306   */\n              0x00\n                /* \"#utility.yul\":5339:5345   */\n              dup2\n                /* \"#utility.yul\":5326:5346   */\n              calldataload\n                /* \"#utility.yul\":5317:5346   */\n              swap1\n              pop\n                /* \"#utility.yul\":5355:5388   */\n              tag_254\n                /* \"#utility.yul\":5382:5387   */\n              dup2\n                /* \"#utility.yul\":5355:5388   */\n              tag_161\n              jump\t// in\n            tag_254:\n                /* \"#utility.yul\":5255:5394   */\n              swap3\n              swap2\n              pop\n              pop\n              jump\t// out\n                /* \"#utility.yul\":5400:5517   */\n            tag_163:\n                /* \"#utility.yul\":5509:5510   */\n              0x00\n                /* \"#utility.yul\":5506:5507   */\n              dup1\n                /* \"#utility.yul\":5499:5511   */\n              revert\n                /* \"#utility.yul\":5523:5640   */\n            tag_164:\n                /* \"#utility.yul\":5632:5633   */\n              0x00\n                /* \"#utility.yul\":5629:5630   */\n              dup1\n                /* \"#utility.yul\":5622:5634   */\n              revert\n                /* \"#utility.yul\":5646:5826   */\n            tag_165:\n                /* \"#utility.yul\":5694:5771   */\n              0x4e487b7100000000000000000000000000000000000000000000000000000000\n                /* \"#utility.yul\":5691:5692   */\n              0x00\n                /* \"#utility.yul\":5684:5772   */\n              mstore\n                /* \"#utility.yul\":5791:5795   */\n              0x41\n                /* \"#utility.yul\":5788:5789   */\n              0x04\n                /* \"#utility.yul\":5781:5796   */\n              mstore\n                /* \"#utility.yul\":5815:5819   */\n              0x24\n                /* \"#utility.yul\":5812:5813   */\n              0x00\n                /* \"#utility.yul\":5805:5820   */\n              revert\n                /* \"#utility.yul\":5832:6113   */\n            tag_166:\n                /* \"#utility.yul\":5915:5942   */\n              tag_259\n                /* \"#utility.yul\":5937:5941   */\n              dup3\n                /* \"#utility.yul\":5915:5942   */\n              tag_150\n              jump\t// in\n            tag_259:\n                /* \"#utility.yul\":5907:5913   */\n              dup2\n                /* \"#utility.yul\":5903:5943   */\n              add\n                /* \"#utility.yul\":6045:6051   */\n              dup2\n                /* \"#utility.yul\":6033:6043   */\n              dup2\n                /* \"#utility.yul\":6030:6052   */\n              lt\n                /* \"#utility.yul\":6009:6027   */\n              0xffffffffffffffff\n                /* \"#utility.yul\":5997:6007   */\n              dup3\n                /* \"#utility.yul\":5994:6028   */\n              gt\n                /* \"#utility.yul\":5991:6053   */\n              or\n                /* \"#utility.yul\":5988:6076   */\n              iszero\n              tag_260\n              jumpi\n                /* \"#utility.yul\":6056:6074   */\n              tag_261\n              tag_165\n              jump\t// in\n            tag_261:\n                /* \"#utility.yul\":5988:6076   */\n            tag_260:\n                /* \"#utility.yul\":6096:6106   */\n              dup1\n                /* \"#utility.yul\":6092:6094   */\n              0x40\n                /* \"#utility.yul\":6085:6107   */\n              mstore\n                /* \"#utility.yul\":5875:6113   */\n              pop\n                /* \"#utility.yul\":5832:6113   */\n              pop\n              pop\n              jump\t// out\n                /* \"#utility.yul\":6119:6248   */\n            tag_167:\n                /* \"#utility.yul\":6153:6159   */\n              0x00\n                /* \"#utility.yul\":6180:6200   */\n              tag_263\n              tag_139\n              jump\t// in\n            tag_263:\n                /* \"#utility.yul\":6170:6200   */\n              swap1\n              pop\n                /* \"#utility.yul\":6209:6242   */\n              tag_264\n                /* \"#utility.yul\":6237:6241   */\n              dup3\n                /* \"#utility.yul\":6229:6235   */\n              dup3\n                /* \"#utility.yul\":6209:6242   */\n              tag_166\n              jump\t// in\n            tag_264:\n                /* \"#utility.yul\":6119:6248   */\n              swap2\n              swap1\n              pop\n              jump\t// out\n                /* \"#utility.yul\":6254:6561   */\n            tag_168:\n                /* \"#utility.yul\":6315:6319   */\n              0x00\n                /* \"#utility.yul\":6405:6423   */\n              0xffffffffffffffff\n                /* \"#utility.yul\":6397:6403   */\n              dup3\n                /* \"#utility.yul\":6394:6424   */\n              gt\n                /* \"#utility.yul\":6391:6447   */\n              iszero\n              tag_266\n              jumpi\n                /* \"#utility.yul\":6427:6445   */\n              tag_267\n              tag_165\n              jump\t// in\n            tag_267:\n                /* \"#utility.yul\":6391:6447   */\n            tag_266:\n                /* \"#utility.yul\":6465:6494   */\n              tag_268\n                /* \"#utility.yul\":6487:6493   */\n              dup3\n                /* \"#utility.yul\":6465:6494   */\n              tag_150\n              jump\t// in\n            tag_268:\n                /* \"#utility.yul\":6457:6494   */\n              swap1\n              pop\n                /* \"#utility.yul\":6549:6553   */\n              0x20\n                /* \"#utility.yul\":6543:6547   */\n              dup2\n                /* \"#utility.yul\":6539:6554   */\n              add\n                /* \"#utility.yul\":6531:6554   */\n              swap1\n              pop\n                /* \"#utility.yul\":6254:6561   */\n              swap2\n              swap1\n              pop\n              jump\t// out\n                /* \"#utility.yul\":6567:6721   */\n            tag_169:\n                /* \"#utility.yul\":6651:6657   */\n              dup3\n                /* \"#utility.yul\":6646:6649   */\n              dup2\n                /* \"#utility.yul\":6641:6644   */\n              dup4\n                /* \"#utility.yul\":6628:6658   */\n              calldatacopy\n                /* \"#utility.yul\":6713:6714   */\n              0x00\n                /* \"#utility.yul\":6704:6710   */\n              dup4\n                /* \"#utility.yul\":6699:6702   */\n              dup4\n                /* \"#utility.yul\":6695:6711   */\n              add\n                /* \"#utility.yul\":6688:6715   */\n              mstore\n                /* \"#utility.yul\":6567:6721   */\n              pop\n              pop\n              pop\n              jump\t// out\n                /* \"#utility.yul\":6727:7137   */\n            tag_170:\n                /* \"#utility.yul\":6804:6809   */\n              0x00\n                /* \"#utility.yul\":6829:6894   */\n              tag_271\n                /* \"#utility.yul\":6845:6893   */\n              tag_272\n                /* \"#utility.yul\":6886:6892   */\n              dup5\n                /* \"#utility.yul\":6845:6893   */\n              tag_168\n              jump\t// in\n            tag_272:\n                /* \"#utility.yul\":6829:6894   */\n              tag_167\n              jump\t// in\n            tag_271:\n                /* \"#utility.yul\":6820:6894   */\n              swap1\n              pop\n                /* \"#utility.yul\":6917:6923   */\n              dup3\n                /* \"#utility.yul\":6910:6915   */\n              dup2\n                /* \"#utility.yul\":6903:6924   */\n              mstore\n                /* \"#utility.yul\":6955:6959   */\n              0x20\n                /* \"#utility.yul\":6948:6953   */\n              dup2\n                /* \"#utility.yul\":6944:6960   */\n              add\n                /* \"#utility.yul\":6993:6996   */\n              dup5\n                /* \"#utility.yul\":6984:6990   */\n              dup5\n                /* \"#utility.yul\":6979:6982   */\n              dup5\n                /* \"#utility.yul\":6975:6991   */\n              add\n                /* \"#utility.yul\":6972:6997   */\n              gt\n                /* \"#utility.yul\":6969:7081   */\n              iszero\n              tag_273\n              jumpi\n                /* \"#utility.yul\":7000:7079   */\n              tag_274\n              tag_164\n              jump\t// in\n            tag_274:\n                /* \"#utility.yul\":6969:7081   */\n            tag_273:\n                /* \"#utility.yul\":7090:7131   */\n              tag_275\n                /* \"#utility.yul\":7124:7130   */\n              dup5\n                /* \"#utility.yul\":7119:7122   */\n              dup3\n                /* \"#utility.yul\":7114:7117   */\n              dup6\n                /* \"#utility.yul\":7090:7131   */\n              tag_169\n              jump\t// in\n            tag_275:\n                /* \"#utility.yul\":6810:7137   */\n              pop\n                /* \"#utility.yul\":6727:7137   */\n              swap4\n              swap3\n              pop\n              pop\n              pop\n              jump\t// out\n                /* \"#utility.yul\":7156:7494   */\n            tag_171:\n                /* \"#utility.yul\":7211:7216   */\n              0x00\n                /* \"#utility.yul\":7260:7263   */\n              dup3\n                /* \"#utility.yul\":7253:7257   */\n              0x1f\n                /* \"#utility.yul\":7245:7251   */\n              dup4\n                /* \"#utility.yul\":7241:7258   */\n              add\n                /* \"#utility.yul\":7237:7264   */\n              slt\n                /* \"#utility.yul\":7227:7349   */\n              tag_277\n              jumpi\n                /* \"#utility.yul\":7268:7347   */\n              tag_278\n              tag_163\n              jump\t// in\n            tag_278:\n                /* \"#utility.yul\":7227:7349   */\n            tag_277:\n                /* \"#utility.yul\":7385:7391   */\n              dup2\n                /* \"#utility.yul\":7372:7392   */\n              calldataload\n                /* \"#utility.yul\":7410:7488   */\n              tag_279\n                /* \"#utility.yul\":7484:7487   */\n              dup5\n                /* \"#utility.yul\":7476:7482   */\n              dup3\n                /* \"#utility.yul\":7469:7473   */\n              0x20\n                /* \"#utility.yul\":7461:7467   */\n              dup7\n                /* \"#utility.yul\":7457:7474   */\n              add\n                /* \"#utility.yul\":7410:7488   */\n              tag_170\n              jump\t// in\n            tag_279:\n                /* \"#utility.yul\":7401:7488   */\n              swap2\n              pop\n                /* \"#utility.yul\":7217:7494   */\n              pop\n                /* \"#utility.yul\":7156:7494   */\n              swap3\n              swap2\n              pop\n              pop\n              jump\t// out\n                /* \"#utility.yul\":7500:8297   */\n            tag_56:\n                /* \"#utility.yul\":7586:7592   */\n              0x00\n                /* \"#utility.yul\":7594:7600   */\n              dup1\n                /* \"#utility.yul\":7602:7608   */\n              0x00\n                /* \"#utility.yul\":7651:7653   */\n              0x60\n                /* \"#utility.yul\":7639:7648   */\n              dup5\n                /* \"#utility.yul\":7630:7637   */\n              dup7\n                /* \"#utility.yul\":7626:7649   */\n              sub\n                /* \"#utility.yul\":7622:7654   */\n              slt\n                /* \"#utility.yul\":7619:7738   */\n              iszero\n              tag_281\n              jumpi\n                /* \"#utility.yul\":7657:7736   */\n              tag_282\n              tag_140\n              jump\t// in\n            tag_282:\n                /* \"#utility.yul\":7619:7738   */\n            tag_281:\n                /* \"#utility.yul\":7777:7778   */\n              0x00\n                /* \"#utility.yul\":7802:7855   */\n              tag_283\n                /* \"#utility.yul\":7847:7854   */\n              dup7\n                /* \"#utility.yul\":7838:7844   */\n              dup3\n                /* \"#utility.yul\":7827:7836   */\n              dup8\n                /* \"#utility.yul\":7823:7845   */\n              add\n                /* \"#utility.yul\":7802:7855   */\n              tag_162\n              jump\t// in\n            tag_283:\n                /* \"#utility.yul\":7792:7855   */\n              swap4\n              pop\n                /* \"#utility.yul\":7748:7865   */\n              pop\n                /* \"#utility.yul\":7904:7906   */\n              0x20\n                /* \"#utility.yul\":7930:7983   */\n              tag_284\n                /* \"#utility.yul\":7975:7982   */\n              dup7\n                /* \"#utility.yul\":7966:7972   */\n              dup3\n                /* \"#utility.yul\":7955:7964   */\n              dup8\n                /* \"#utility.yul\":7951:7973   */\n              add\n                /* \"#utility.yul\":7930:7983   */\n              tag_157\n              jump\t// in\n            tag_284:\n                /* \"#utility.yul\":7920:7983   */\n              swap3\n              pop\n                /* \"#utility.yul\":7875:7993   */\n              pop\n                /* \"#utility.yul\":8060:8062   */\n              0x40\n                /* \"#utility.yul\":8049:8058   */\n              dup5\n                /* \"#utility.yul\":8045:8063   */\n              add\n                /* \"#utility.yul\":8032:8064   */\n              calldataload\n                /* \"#utility.yul\":8091:8109   */\n              0xffffffffffffffff\n                /* \"#utility.yul\":8083:8089   */\n              dup2\n                /* \"#utility.yul\":8080:8110   */\n              gt\n                /* \"#utility.yul\":8077:8194   */\n              iszero\n              tag_285\n              jumpi\n                /* \"#utility.yul\":8113:8192   */\n              tag_286\n              tag_141\n              jump\t// in\n            tag_286:\n                /* \"#utility.yul\":8077:8194   */\n            tag_285:\n                /* \"#utility.yul\":8218:8280   */\n              tag_287\n                /* \"#utility.yul\":8272:8279   */\n              dup7\n                /* \"#utility.yul\":8263:8269   */\n              dup3\n                /* \"#utility.yul\":8252:8261   */\n              dup8\n                /* \"#utility.yul\":8248:8270   */\n              add\n                /* \"#utility.yul\":8218:8280   */\n              tag_171\n              jump\t// in\n            tag_287:\n                /* \"#utility.yul\":8208:8280   */\n              swap2\n              pop\n                /* \"#utility.yul\":8003:8290   */\n              pop\n                /* \"#utility.yul\":7500:8297   */\n              swap3\n              pop\n              swap3\n              pop\n              swap3\n              jump\t// out\n                /* \"#utility.yul\":8303:8632   */\n            tag_60:\n                /* \"#utility.yul\":8362:8368   */\n              0x00\n                /* \"#utility.yul\":8411:8413   */\n              0x20\n                /* \"#utility.yul\":8399:8408   */\n              dup3\n                /* \"#utility.yul\":8390:8397   */\n              dup5\n                /* \"#utility.yul\":8386:8409   */\n              sub\n                /* \"#utility.yul\":8382:8414   */\n              slt\n                /* \"#utility.yul\":8379:8498   */\n              iszero\n              tag_289\n              jumpi\n                /* \"#utility.yul\":8417:8496   */\n              tag_290\n              tag_140\n              jump\t// in\n            tag_290:\n                /* \"#utility.yul\":8379:8498   */\n            tag_289:\n                /* \"#utility.yul\":8537:8538   */\n              0x00\n                /* \"#utility.yul\":8562:8615   */\n              tag_291\n                /* \"#utility.yul\":8607:8614   */\n              dup5\n                /* \"#utility.yul\":8598:8604   */\n              dup3\n                /* \"#utility.yul\":8587:8596   */\n              dup6\n                /* \"#utility.yul\":8583:8605   */\n              add\n                /* \"#utility.yul\":8562:8615   */\n              tag_162\n              jump\t// in\n            tag_291:\n                /* \"#utility.yul\":8552:8615   */\n              swap2\n              pop\n                /* \"#utility.yul\":8508:8625   */\n              pop\n                /* \"#utility.yul\":8303:8632   */\n              swap3\n              swap2\n              pop\n              pop\n              jump\t// out\n                /* \"#utility.yul\":8638:9112   */\n            tag_65:\n                /* \"#utility.yul\":8706:8712   */\n              0x00\n                /* \"#utility.yul\":8714:8720   */\n              dup1\n                /* \"#utility.yul\":8763:8765   */\n              0x40\n                /* \"#utility.yul\":8751:8760   */\n              dup4\n                /* \"#utility.yul\":8742:8749   */\n              dup6\n                /* \"#utility.yul\":8738:8761   */\n              sub\n                /* \"#utility.yul\":8734:8766   */\n              slt\n                /* \"#utility.yul\":8731:8850   */\n              iszero\n              tag_293\n              jumpi\n                /* \"#utility.yul\":8769:8848   */\n              tag_294\n              tag_140\n              jump\t// in\n            tag_294:\n                /* \"#utility.yul\":8731:8850   */\n            tag_293:\n                /* \"#utility.yul\":8889:8890   */\n              0x00\n                /* \"#utility.yul\":8914:8967   */\n              tag_295\n                /* \"#utility.yul\":8959:8966   */\n              dup6\n                /* \"#utility.yul\":8950:8956   */\n              dup3\n                /* \"#utility.yul\":8939:8948   */\n              dup7\n                /* \"#utility.yul\":8935:8957   */\n              add\n                /* \"#utility.yul\":8914:8967   */\n              tag_162\n              jump\t// in\n            tag_295:\n                /* \"#utility.yul\":8904:8967   */\n              swap3\n              pop\n                /* \"#utility.yul\":8860:8977   */\n              pop\n                /* \"#utility.yul\":9016:9018   */\n              0x20\n                /* \"#utility.yul\":9042:9095   */\n              tag_296\n                /* \"#utility.yul\":9087:9094   */\n              dup6\n                /* \"#utility.yul\":9078:9084   */\n              dup3\n                /* \"#utility.yul\":9067:9076   */\n              dup7\n                /* \"#utility.yul\":9063:9085   */\n              add\n                /* \"#utility.yul\":9042:9095   */\n              tag_157\n              jump\t// in\n            tag_296:\n                /* \"#utility.yul\":9032:9095   */\n              swap2\n              pop\n                /* \"#utility.yul\":8987:9105   */\n              pop\n                /* \"#utility.yul\":8638:9112   */\n              swap3\n              pop\n              swap3\n              swap1\n              pop\n              jump\t// out\n                /* \"#utility.yul\":9118:9298   */\n            tag_172:\n                /* \"#utility.yul\":9166:9243   */\n              0x4e487b7100000000000000000000000000000000000000000000000000000000\n                /* \"#utility.yul\":9163:9164   */\n              0x00\n                /* \"#utility.yul\":9156:9244   */\n              mstore\n                /* \"#utility.yul\":9263:9267   */\n              0x22\n                /* \"#utility.yul\":9260:9261   */\n              0x04\n                /* \"#utility.yul\":9253:9268   */\n              mstore\n                /* \"#utility.yul\":9287:9291   */\n              0x24\n                /* \"#utility.yul\":9284:9285   */\n              0x00\n                /* \"#utility.yul\":9277:9292   */\n              revert\n                /* \"#utility.yul\":9304:9624   */\n            tag_81:\n                /* \"#utility.yul\":9348:9354   */\n              0x00\n                /* \"#utility.yul\":9385:9386   */\n              0x02\n                /* \"#utility.yul\":9379:9383   */\n              dup3\n                /* \"#utility.yul\":9375:9387   */\n              div\n                /* \"#utility.yul\":9365:9387   */\n              swap1\n              pop\n                /* \"#utility.yul\":9432:9433   */\n              0x01\n                /* \"#utility.yul\":9426:9430   */\n              dup3\n                /* \"#utility.yul\":9422:9434   */\n              and\n                /* \"#utility.yul\":9453:9471   */\n              dup1\n                /* \"#utility.yul\":9443:9524   */\n              tag_299\n              jumpi\n                /* \"#utility.yul\":9509:9513   */\n              0x7f\n                /* \"#utility.yul\":9501:9507   */\n              dup3\n                /* \"#utility.yul\":9497:9514   */\n              and\n                /* \"#utility.yul\":9487:9514   */\n              swap2\n              pop\n                /* \"#utility.yul\":9443:9524   */\n            tag_299:\n                /* \"#utility.yul\":9571:9573   */\n              0x20\n                /* \"#utility.yul\":9563:9569   */\n              dup3\n                /* \"#utility.yul\":9560:9574   */\n              lt\n                /* \"#utility.yul\":9540:9558   */\n              dup2\n                /* \"#utility.yul\":9537:9575   */\n              sub\n                /* \"#utility.yul\":9534:9618   */\n              tag_300\n              jumpi\n                /* \"#utility.yul\":9590:9608   */\n              tag_301\n              tag_172\n              jump\t// in\n            tag_301:\n                /* \"#utility.yul\":9534:9618   */\n            tag_300:\n                /* \"#utility.yul\":9355:9624   */\n              pop\n                /* \"#utility.yul\":9304:9624   */\n              swap2\n              swap1\n              pop\n              jump\t// out\n                /* \"#utility.yul\":9630:9803   */\n            tag_173:\n                /* \"#utility.yul\":9770:9795   */\n              0x546f6b656e20696420646f6573206e6f74206578697374000000000000000000\n                /* \"#utility.yul\":9766:9767   */\n              0x00\n                /* \"#utility.yul\":9758:9764   */\n              dup3\n                /* \"#utility.yul\":9754:9768   */\n              add\n                /* \"#utility.yul\":9747:9796   */\n              mstore\n                /* \"#utility.yul\":9630:9803   */\n              pop\n              jump\t// out\n                /* \"#utility.yul\":9809:10175   */\n            tag_174:\n                /* \"#utility.yul\":9951:9954   */\n              0x00\n                /* \"#utility.yul\":9972:10039   */\n              tag_304\n                /* \"#utility.yul\":10036:10038   */\n              0x17\n                /* \"#utility.yul\":10031:10034   */\n              dup4\n                /* \"#utility.yul\":9972:10039   */\n              tag_148\n              jump\t// in\n            tag_304:\n                /* \"#utility.yul\":9965:10039   */\n              swap2\n              pop\n                /* \"#utility.yul\":10048:10141   */\n              tag_305\n                /* \"#utility.yul\":10137:10140   */\n              dup3\n                /* \"#utility.yul\":10048:10141   */\n              tag_173\n              jump\t// in\n            tag_305:\n                /* \"#utility.yul\":10166:10168   */\n              0x20\n                /* \"#utility.yul\":10161:10164   */\n              dup3\n                /* \"#utility.yul\":10157:10169   */\n              add\n                /* \"#utility.yul\":10150:10169   */\n              swap1\n              pop\n                /* \"#utility.yul\":9809:10175   */\n              swap2\n              swap1\n              pop\n              jump\t// out\n                /* \"#utility.yul\":10181:10600   */\n            tag_91:\n                /* \"#utility.yul\":10347:10351   */\n              0x00\n                /* \"#utility.yul\":10385:10387   */\n              0x20\n                /* \"#utility.yul\":10374:10383   */\n              dup3\n                /* \"#utility.yul\":10370:10388   */\n              add\n                /* \"#utility.yul\":10362:10388   */\n              swap1\n              pop\n                /* \"#utility.yul\":10434:10443   */\n              dup2\n                /* \"#utility.yul\":10428:10432   */\n              dup2\n                /* \"#utility.yul\":10424:10444   */\n              sub\n                /* \"#utility.yul\":10420:10421   */\n              0x00\n                /* \"#utility.yul\":10409:10418   */\n              dup4\n                /* \"#utility.yul\":10405:10422   */\n              add\n                /* \"#utility.yul\":10398:10445   */\n              mstore\n                /* \"#utility.yul\":10462:10593   */\n              tag_307\n                /* \"#utility.yul\":10588:10592   */\n              dup2\n                /* \"#utility.yul\":10462:10593   */\n              tag_174\n              jump\t// in\n            tag_307:\n                /* \"#utility.yul\":10454:10593   */\n              swap1\n              pop\n                /* \"#utility.yul\":10181:10600   */\n              swap2\n              swap1\n              pop\n              jump\t// out\n                /* \"#utility.yul\":10606:10831   */\n            tag_175:\n                /* \"#utility.yul\":10746:10780   */\n              0x455243373231204552524f523a206d696e7420746f20746865207a65726f2061\n                /* \"#utility.yul\":10742:10743   */\n              0x00\n                /* \"#utility.yul\":10734:10740   */\n              dup3\n                /* \"#utility.yul\":10730:10744   */\n              add\n                /* \"#utility.yul\":10723:10781   */\n              mstore\n                /* \"#utility.yul\":10815:10823   */\n              0x6464726573730000000000000000000000000000000000000000000000000000\n                /* \"#utility.yul\":10810:10812   */\n              0x20\n                /* \"#utility.yul\":10802:10808   */\n              dup3\n                /* \"#utility.yul\":10798:10813   */\n              add\n                /* \"#utility.yul\":10791:10824   */\n              mstore\n                /* \"#utility.yul\":10606:10831   */\n              pop\n              jump\t// out\n                /* \"#utility.yul\":10837:11203   */\n            tag_176:\n                /* \"#utility.yul\":10979:10982   */\n              0x00\n                /* \"#utility.yul\":11000:11067   */\n              tag_310\n                /* \"#utility.yul\":11064:11066   */\n              0x26\n                /* \"#utility.yul\":11059:11062   */\n              dup4\n                /* \"#utility.yul\":11000:11067   */\n              tag_148\n              jump\t// in\n            tag_310:\n                /* \"#utility.yul\":10993:11067   */\n              swap2\n              pop\n                /* \"#utility.yul\":11076:11169   */\n              tag_311\n                /* \"#utility.yul\":11165:11168   */\n              dup3\n                /* \"#utility.yul\":11076:11169   */\n              tag_175\n              jump\t// in\n            tag_311:\n                /* \"#utility.yul\":11194:11196   */\n              0x40\n                /* \"#utility.yul\":11189:11192   */\n              dup3\n                /* \"#utility.yul\":11185:11197   */\n              add\n                /* \"#utility.yul\":11178:11197   */\n              swap1\n              pop\n                /* \"#utility.yul\":10837:11203   */\n              swap2\n              swap1\n              pop\n              jump\t// out\n                /* \"#utility.yul\":11209:11628   */\n            tag_108:\n                /* \"#utility.yul\":11375:11379   */\n              0x00\n                /* \"#utility.yul\":11413:11415   */\n              0x20\n                /* \"#utility.yul\":11402:11411   */\n              dup3\n                /* \"#utility.yul\":11398:11416   */\n              add\n                /* \"#utility.yul\":11390:11416   */\n              swap1\n              pop\n                /* \"#utility.yul\":11462:11471   */\n              dup2\n                /* \"#utility.yul\":11456:11460   */\n              dup2\n                /* \"#utility.yul\":11452:11472   */\n              sub\n                /* \"#utility.yul\":11448:11449   */\n              0x00\n                /* \"#utility.yul\":11437:11446   */\n              dup4\n                /* \"#utility.yul\":11433:11450   */\n              add\n                /* \"#utility.yul\":11426:11473   */\n              mstore\n                /* \"#utility.yul\":11490:11621   */\n              tag_313\n                /* \"#utility.yul\":11616:11620   */\n              dup2\n                /* \"#utility.yul\":11490:11621   */\n              tag_176\n              jump\t// in\n            tag_313:\n                /* \"#utility.yul\":11482:11621   */\n              swap1\n              pop\n                /* \"#utility.yul\":11209:11628   */\n              swap2\n              swap1\n              pop\n              jump\t// out\n                /* \"#utility.yul\":11634:11855   */\n            tag_177:\n                /* \"#utility.yul\":11774:11808   */\n              0x455243373231204552524f523a20546f6b656e20616c7265616479206d696e74\n                /* \"#utility.yul\":11770:11771   */\n              0x00\n                /* \"#utility.yul\":11762:11768   */\n              dup3\n                /* \"#utility.yul\":11758:11772   */\n              add\n                /* \"#utility.yul\":11751:11809   */\n              mstore\n                /* \"#utility.yul\":11843:11847   */\n              0x6564000000000000000000000000000000000000000000000000000000000000\n                /* \"#utility.yul\":11838:11840   */\n              0x20\n                /* \"#utility.yul\":11830:11836   */\n              dup3\n                /* \"#utility.yul\":11826:11841   */\n              add\n                /* \"#utility.yul\":11819:11848   */\n              mstore\n                /* \"#utility.yul\":11634:11855   */\n              pop\n              jump\t// out\n                /* \"#utility.yul\":11861:12227   */\n            tag_178:\n                /* \"#utility.yul\":12003:12006   */\n              0x00\n                /* \"#utility.yul\":12024:12091   */\n              tag_316\n                /* \"#utility.yul\":12088:12090   */\n              0x22\n                /* \"#utility.yul\":12083:12086   */\n              dup4\n                /* \"#utility.yul\":12024:12091   */\n              tag_148\n              jump\t// in\n            tag_316:\n                /* \"#utility.yul\":12017:12091   */\n              swap2\n              pop\n                /* \"#utility.yul\":12100:12193   */\n              tag_317\n                /* \"#utility.yul\":12189:12192   */\n              dup3\n                /* \"#utility.yul\":12100:12193   */\n              tag_177\n              jump\t// in\n            tag_317:\n                /* \"#utility.yul\":12218:12220   */\n              0x40\n                /* \"#utility.yul\":12213:12216   */\n              dup3\n                /* \"#utility.yul\":12209:12221   */\n              add\n                /* \"#utility.yul\":12202:12221   */\n              swap1\n              pop\n                /* \"#utility.yul\":11861:12227   */\n              swap2\n              swap1\n              pop\n              jump\t// out\n                /* \"#utility.yul\":12233:12652   */\n            tag_113:\n                /* \"#utility.yul\":12399:12403   */\n              0x00\n                /* \"#utility.yul\":12437:12439   */\n              0x20\n                /* \"#utility.yul\":12426:12435   */\n              dup3\n                /* \"#utility.yul\":12422:12440   */\n              add\n                /* \"#utility.yul\":12414:12440   */\n              swap1\n              pop\n                /* \"#utility.yul\":12486:12495   */\n              dup2\n                /* \"#utility.yul\":12480:12484   */\n              dup2\n                /* \"#utility.yul\":12476:12496   */\n              sub\n                /* \"#utility.yul\":12472:12473   */\n              0x00\n                /* \"#utility.yul\":12461:12470   */\n              dup4\n                /* \"#utility.yul\":12457:12474   */\n              add\n                /* \"#utility.yul\":12450:12497   */\n              mstore\n                /* \"#utility.yul\":12514:12645   */\n              tag_319\n                /* \"#utility.yul\":12640:12644   */\n              dup2\n                /* \"#utility.yul\":12514:12645   */\n              tag_178\n              jump\t// in\n            tag_319:\n                /* \"#utility.yul\":12506:12645   */\n              swap1\n              pop\n                /* \"#utility.yul\":12233:12652   */\n              swap2\n              swap1\n              pop\n              jump\t// out\n                /* \"#utility.yul\":12658:12838   */\n            tag_179:\n                /* \"#utility.yul\":12706:12783   */\n              0x4e487b7100000000000000000000000000000000000000000000000000000000\n                /* \"#utility.yul\":12703:12704   */\n              0x00\n                /* \"#utility.yul\":12696:12784   */\n              mstore\n                /* \"#utility.yul\":12803:12807   */\n              0x11\n                /* \"#utility.yul\":12800:12801   */\n              0x04\n                /* \"#utility.yul\":12793:12808   */\n              mstore\n                /* \"#utility.yul\":12827:12831   */\n              0x24\n                /* \"#utility.yul\":12824:12825   */\n              0x00\n                /* \"#utility.yul\":12817:12832   */\n              revert\n                /* \"#utility.yul\":12844:13149   */\n            tag_115:\n                /* \"#utility.yul\":12884:12887   */\n              0x00\n                /* \"#utility.yul\":12903:12923   */\n              tag_322\n                /* \"#utility.yul\":12921:12922   */\n              dup3\n                /* \"#utility.yul\":12903:12923   */\n              tag_152\n              jump\t// in\n            tag_322:\n                /* \"#utility.yul\":12898:12923   */\n              swap2\n              pop\n                /* \"#utility.yul\":12937:12957   */\n              tag_323\n                /* \"#utility.yul\":12955:12956   */\n              dup4\n                /* \"#utility.yul\":12937:12957   */\n              tag_152\n              jump\t// in\n            tag_323:\n                /* \"#utility.yul\":12932:12957   */\n              swap3\n              pop\n                /* \"#utility.yul\":13091:13092   */\n              dup3\n                /* \"#utility.yul\":13023:13089   */\n              0xffffffffffffffffffffffffffffffffffffffffffffffffffffffffffffffff\n                /* \"#utility.yul\":13019:13093   */\n              sub\n                /* \"#utility.yul\":13016:13017   */\n              dup3\n                /* \"#utility.yul\":13013:13094   */\n              gt\n                /* \"#utility.yul\":13010:13117   */\n              iszero\n              tag_324\n              jumpi\n                /* \"#utility.yul\":13097:13115   */\n              tag_325\n              tag_179\n              jump\t// in\n            tag_325:\n                /* \"#utility.yul\":13010:13117   */\n            tag_324:\n                /* \"#utility.yul\":13141:13142   */\n              dup3\n                /* \"#utility.yul\":13138:13139   */\n              dup3\n                /* \"#utility.yul\":13134:13143   */\n              add\n                /* \"#utility.yul\":13127:13143   */\n              swap1\n              pop\n                /* \"#utility.yul\":12844:13149   */\n              swap3\n              swap2\n              pop\n              pop\n              jump\t// out\n                /* \"#utility.yul\":13155:13253   */\n            tag_180:\n                /* \"#utility.yul\":13206:13212   */\n              0x00\n                /* \"#utility.yul\":13240:13245   */\n              dup2\n                /* \"#utility.yul\":13234:13246   */\n              mload\n                /* \"#utility.yul\":13224:13246   */\n              swap1\n              pop\n                /* \"#utility.yul\":13155:13253   */\n              swap2\n              swap1\n              pop\n              jump\t// out\n                /* \"#utility.yul\":13259:13427   */\n            tag_181:\n                /* \"#utility.yul\":13342:13353   */\n              0x00\n                /* \"#utility.yul\":13376:13382   */\n              dup3\n                /* \"#utility.yul\":13371:13374   */\n              dup3\n                /* \"#utility.yul\":13364:13383   */\n              mstore\n                /* \"#utility.yul\":13416:13420   */\n              0x20\n                /* \"#utility.yul\":13411:13414   */\n              dup3\n                /* \"#utility.yul\":13407:13421   */\n              add\n                /* \"#utility.yul\":13392:13421   */\n              swap1\n              pop\n                /* \"#utility.yul\":13259:13427   */\n              swap3\n              swap2\n              pop\n              pop\n              jump\t// out\n                /* \"#utility.yul\":13433:13793   */\n            tag_182:\n                /* \"#utility.yul\":13519:13522   */\n              0x00\n                /* \"#utility.yul\":13547:13585   */\n              tag_329\n                /* \"#utility.yul\":13579:13584   */\n              dup3\n                /* \"#utility.yul\":13547:13585   */\n              tag_180\n              jump\t// in\n            tag_329:\n                /* \"#utility.yul\":13601:13671   */\n              tag_330\n                /* \"#utility.yul\":13664:13670   */\n              dup2\n                /* \"#utility.yul\":13659:13662   */\n              dup6\n                /* \"#utility.yul\":13601:13671   */\n              tag_181\n              jump\t// in\n            tag_330:\n                /* \"#utility.yul\":13594:13671   */\n              swap4\n              pop\n                /* \"#utility.yul\":13680:13732   */\n              tag_331\n                /* \"#utility.yul\":13725:13731   */\n              dup2\n                /* \"#utility.yul\":13720:13723   */\n              dup6\n                /* \"#utility.yul\":13713:13717   */\n              0x20\n                /* \"#utility.yul\":13706:13711   */\n              dup7\n                /* \"#utility.yul\":13702:13718   */\n              add\n                /* \"#utility.yul\":13680:13732   */\n              tag_149\n              jump\t// in\n            tag_331:\n                /* \"#utility.yul\":13757:13786   */\n              tag_332\n                /* \"#utility.yul\":13779:13785   */\n              dup2\n                /* \"#utility.yul\":13757:13786   */\n              tag_150\n              jump\t// in\n            tag_332:\n                /* \"#utility.yul\":13752:13755   */\n              dup5\n                /* \"#utility.yul\":13748:13787   */\n              add\n                /* \"#utility.yul\":13741:13787   */\n              swap2\n              pop\n                /* \"#utility.yul\":13523:13793   */\n              pop\n                /* \"#utility.yul\":13433:13793   */\n              swap3\n              swap2\n              pop\n              pop\n              jump\t// out\n                /* \"#utility.yul\":13799:14439   */\n            tag_121:\n                /* \"#utility.yul\":13994:13998   */\n              0x00\n                /* \"#utility.yul\":14032:14035   */\n              0x80\n                /* \"#utility.yul\":14021:14030   */\n              dup3\n                /* \"#utility.yul\":14017:14036   */\n              add\n                /* \"#utility.yul\":14009:14036   */\n              swap1\n              pop\n                /* \"#utility.yul\":14046:14117   */\n              tag_334\n                /* \"#utility.yul\":14114:14115   */\n              0x00\n                /* \"#utility.yul\":14103:14112   */\n              dup4\n                /* \"#utility.yul\":14099:14116   */\n              add\n                /* \"#utility.yul\":14090:14096   */\n              dup8\n                /* \"#utility.yul\":14046:14117   */\n              tag_160\n              jump\t// in\n            tag_334:\n                /* \"#utility.yul\":14127:14199   */\n              tag_335\n                /* \"#utility.yul\":14195:14197   */\n              0x20\n                /* \"#utility.yul\":14184:14193   */\n              dup4\n                /* \"#utility.yul\":14180:14198   */\n              add\n                /* \"#utility.yul\":14171:14177   */\n              dup7\n                /* \"#utility.yul\":14127:14199   */\n              tag_160\n              jump\t// in\n            tag_335:\n                /* \"#utility.yul\":14209:14281   */\n              tag_336\n                /* \"#utility.yul\":14277:14279   */\n              0x40\n                /* \"#utility.yul\":14266:14275   */\n              dup4\n                /* \"#utility.yul\":14262:14280   */\n              add\n                /* \"#utility.yul\":14253:14259   */\n              dup6\n                /* \"#utility.yul\":14209:14281   */\n              tag_153\n              jump\t// in\n            tag_336:\n                /* \"#utility.yul\":14328:14337   */\n              dup2\n                /* \"#utility.yul\":14322:14326   */\n              dup2\n                /* \"#utility.yul\":14318:14338   */\n              sub\n                /* \"#utility.yul\":14313:14315   */\n              0x60\n                /* \"#utility.yul\":14302:14311   */\n              dup4\n                /* \"#utility.yul\":14298:14316   */\n              add\n                /* \"#utility.yul\":14291:14339   */\n              mstore\n                /* \"#utility.yul\":14356:14432   */\n              tag_337\n                /* \"#utility.yul\":14427:14431   */\n              dup2\n                /* \"#utility.yul\":14418:14424   */\n              dup5\n                /* \"#utility.yul\":14356:14432   */\n              tag_182\n              jump\t// in\n            tag_337:\n                /* \"#utility.yul\":14348:14432   */\n              swap1\n              pop\n                /* \"#utility.yul\":13799:14439   */\n              swap6\n              swap5\n              pop\n              pop\n              pop\n              pop\n              pop\n              jump\t// out\n                /* \"#utility.yul\":14445:14586   */\n            tag_183:\n                /* \"#utility.yul\":14501:14506   */\n              0x00\n                /* \"#utility.yul\":14532:14538   */\n              dup2\n                /* \"#utility.yul\":14526:14539   */\n              mload\n                /* \"#utility.yul\":14517:14539   */\n              swap1\n              pop\n                /* \"#utility.yul\":14548:14580   */\n              tag_339\n                /* \"#utility.yul\":14574:14579   */\n              dup2\n                /* \"#utility.yul\":14548:14580   */\n              tag_143\n              jump\t// in\n            tag_339:\n                /* \"#utility.yul\":14445:14586   */\n              swap3\n              swap2\n              pop\n              pop\n              jump\t// out\n                /* \"#utility.yul\":14592:14941   */\n            tag_124:\n                /* \"#utility.yul\":14661:14667   */\n              0x00\n                /* \"#utility.yul\":14710:14712   */\n              0x20\n                /* \"#utility.yul\":14698:14707   */\n              dup3\n                /* \"#utility.yul\":14689:14696   */\n              dup5\n                /* \"#utility.yul\":14685:14708   */\n              sub\n                /* \"#utility.yul\":14681:14713   */\n              slt\n                /* \"#utility.yul\":14678:14797   */\n              iszero\n              tag_341\n              jumpi\n                /* \"#utility.yul\":14716:14795   */\n              tag_342\n              tag_140\n              jump\t// in\n            tag_342:\n                /* \"#utility.yul\":14678:14797   */\n            tag_341:\n                /* \"#utility.yul\":14836:14837   */\n              0x00\n                /* \"#utility.yul\":14861:14924   */\n              tag_343\n                /* \"#utility.yul\":14916:14923   */\n              dup5\n                /* \"#utility.yul\":14907:14913   */\n              dup3\n                /* \"#utility.yul\":14896:14905   */\n              dup6\n                /* \"#utility.yul\":14892:14914   */\n              add\n                /* \"#utility.yul\":14861:14924   */\n              tag_183\n              jump\t// in\n            tag_343:\n                /* \"#utility.yul\":14851:14924   */\n              swap2\n              pop\n                /* \"#utility.yul\":14807:14934   */\n              pop\n                /* \"#utility.yul\":14592:14941   */\n              swap3\n              swap2\n              pop\n              pop\n              jump\t// out\n                /* \"#utility.yul\":14947:15184   */\n            tag_184:\n                /* \"#utility.yul\":15087:15121   */\n              0x4552433732313a207472616e7366657220746f206e6f6e204552433732315265\n                /* \"#utility.yul\":15083:15084   */\n              0x00\n                /* \"#utility.yul\":15075:15081   */\n              dup3\n                /* \"#utility.yul\":15071:15085   */\n              add\n                /* \"#utility.yul\":15064:15122   */\n              mstore\n                /* \"#utility.yul\":15156:15176   */\n              0x63656976657220696d706c656d656e7465720000000000000000000000000000\n                /* \"#utility.yul\":15151:15153   */\n              0x20\n                /* \"#utility.yul\":15143:15149   */\n              dup3\n                /* \"#utility.yul\":15139:15154   */\n              add\n                /* \"#utility.yul\":15132:15177   */\n              mstore\n                /* \"#utility.yul\":14947:15184   */\n              pop\n              jump\t// out\n                /* \"#utility.yul\":15190:15556   */\n            tag_185:\n                /* \"#utility.yul\":15332:15335   */\n              0x00\n                /* \"#utility.yul\":15353:15420   */\n              tag_346\n                /* \"#utility.yul\":15417:15419   */\n              0x32\n                /* \"#utility.yul\":15412:15415   */\n              dup4\n                /* \"#utility.yul\":15353:15420   */\n              tag_148\n              jump\t// in\n            tag_346:\n                /* \"#utility.yul\":15346:15420   */\n              swap2\n              pop\n                /* \"#utility.yul\":15429:15522   */\n              tag_347\n                /* \"#utility.yul\":15518:15521   */\n              dup3\n                /* \"#utility.yul\":15429:15522   */\n              tag_184\n              jump\t// in\n            tag_347:\n                /* \"#utility.yul\":15547:15549   */\n              0x40\n                /* \"#utility.yul\":15542:15545   */\n              dup3\n                /* \"#utility.yul\":15538:15550   */\n              add\n                /* \"#utility.yul\":15531:15550   */\n              swap1\n              pop\n                /* \"#utility.yul\":15190:15556   */\n              swap2\n              swap1\n              pop\n              jump\t// out\n                /* \"#utility.yul\":15562:15981   */\n            tag_133:\n                /* \"#utility.yul\":15728:15732   */\n              0x00\n                /* \"#utility.yul\":15766:15768   */\n              0x20\n                /* \"#utility.yul\":15755:15764   */\n              dup3\n                /* \"#utility.yul\":15751:15769   */\n              add\n                /* \"#utility.yul\":15743:15769   */\n              swap1\n              pop\n                /* \"#utility.yul\":15815:15824   */\n              dup2\n                /* \"#utility.yul\":15809:15813   */\n              dup2\n                /* \"#utility.yul\":15805:15825   */\n              sub\n                /* \"#utility.yul\":15801:15802   */\n              0x00\n                /* \"#utility.yul\":15790:15799   */\n              dup4\n                /* \"#utility.yul\":15786:15803   */\n              add\n                /* \"#utility.yul\":15779:15826   */\n              mstore\n                /* \"#utility.yul\":15843:15974   */\n              tag_349\n                /* \"#utility.yul\":15969:15973   */\n              dup2\n                /* \"#utility.yul\":15843:15974   */\n              tag_185\n              jump\t// in\n            tag_349:\n                /* \"#utility.yul\":15835:15974   */\n              swap1\n              pop\n                /* \"#utility.yul\":15562:15981   */\n              swap2\n              swap1\n              pop\n              jump\t// out\n\n            auxdata: 0xa2646970667358221220ebd8b68419cad969fc7b8ff50457a1469e336f7fe52a9f85ab7a69b14fbd538964736f6c634300080d0033\n        }\n    }\n\n    auxdata: 0xa26469706673582212206bdcbdcedfec65d89e26043596f3170223a00de59cf80b2dfce7575201c44cc964736f6c634300080d0033\n}\n\nsub_1: assembly {\n        /* \"ERC20.sol\":110:2036   */\n      mstore(0x40, 0x80)\n        /* \"ERC20.sol\":467:732   */\n      callvalue\n      dup1\n      iszero\n      tag_1\n      jumpi\n      0x00\n      dup1\n      revert\n    tag_1:\n      pop\n        /* \"ERC20.sol\":493:511   */\n      mload(0x40)\n      dup1\n      0x40\n      add\n      0x40\n      mstore\n      dup1\n      0x09\n      dup2\n      mstore\n      0x20\n      add\n      0x554e4952544f4b454e0000000000000000000000000000000000000000000000\n      dup2\n      mstore\n      pop\n        /* \"ERC20.sol\":493:497   */\n      0x00\n        /* \"ERC20.sol\":493:511   */\n      swap1\n      dup1\n      mload\n      swap1\n      0x20\n      add\n      swap1\n      tag_4\n      swap3\n      swap2\n      swap1\n      tag_5\n      jump\t// in\n    tag_4:\n      pop\n        /* \"ERC20.sol\":522:537   */\n      mload(0x40)\n      dup1\n      0x40\n      add\n      0x40\n      mstore\n      dup1\n      0x04\n      dup2\n      mstore\n      0x20\n      add\n      0x554e544b00000000000000000000000000000000000000000000000000000000\n      dup2\n      mstore\n      pop\n        /* \"ERC20.sol\":522:528   */\n      0x01\n        /* \"ERC20.sol\":522:537   */\n      swap1\n      dup1\n      mload\n      swap1\n      0x20\n      add\n      swap1\n      tag_6\n      swap3\n      swap2\n      swap1\n      tag_5\n      jump\t// in\n    tag_6:\n      pop\n        /* \"ERC20.sol\":559:561   */\n      0x12\n        /* \"ERC20.sol\":548:556   */\n      0x02\n      0x00\n        /* \"ERC20.sol\":548:561   */\n      0x0100\n      exp\n      dup2\n      sload\n      dup2\n      0xff\n      mul\n      not\n      and\n      swap1\n      dup4\n      0xff\n      and\n      mul\n      or\n      swap1\n      sstore\n      pop\n        /* \"ERC20.sol\":587:611   */\n      0x152d02c7e14af6800000\n        /* \"ERC20.sol\":572:584   */\n      0x03\n        /* \"ERC20.sol\":572:611   */\n      dup2\n      swap1\n      sstore\n      pop\n        /* \"ERC20.sol\":647:659   */\n      sload(0x03)\n        /* \"ERC20.sol\":624:632   */\n      0x04\n        /* \"ERC20.sol\":624:644   */\n      0x00\n        /* \"ERC20.sol\":633:643   */\n      caller\n        /* \"ERC20.sol\":624:644   */\n      0xffffffffffffffffffffffffffffffffffffffff\n      and\n      0xffffffffffffffffffffffffffffffffffffffff\n      and\n      dup2\n      mstore\n      0x20\n      add\n      swap1\n      dup2\n      mstore\n      0x20\n      add\n      0x00\n      keccak256\n        /* \"ERC20.sol\":624:659   */\n      dup2\n      swap1\n      sstore\n      pop\n        /* \"ERC20.sol\":704:708   */\n      address\n        /* \"ERC20.sol\":675:724   */\n      0xffffffffffffffffffffffffffffffffffffffff\n      and\n        /* \"ERC20.sol\":692:693   */\n      0x00\n        /* \"ERC20.sol\":675:724   */\n      0xffffffffffffffffffffffffffffffffffffffff\n      and\n      0xddf252ad1be2c89b69c2b068fc378daa952ba7f163c4a11628f55a4df523b3ef\n        /* \"ERC20.sol\":711:723   */\n      sload(0x03)\n        /* \"ERC20.sol\":675:724   */\n      mload(0x40)\n      tag_7\n      swap2\n      swap1\n      tag_8\n      jump\t// in\n    tag_7:\n      mload(0x40)\n      dup1\n      swap2\n      sub\n      swap1\n      log3\n        /* \"ERC20.sol\":110:2036   */\n      jump(tag_9)\n    tag_5:\n      dup3\n      dup1\n      sload\n      tag_10\n      swap1\n      tag_11\n      jump\t// in\n    tag_10:\n      swap1\n      0x00\n      mstore\n      keccak256(0x00, 0x20)\n      swap1\n      0x1f\n      add\n      0x20\n      swap1\n      div\n      dup2\n      add\n      swap3\n      dup3\n      tag_13\n      jumpi\n      0x00\n      dup6\n      sstore\n      jump(tag_12)\n    tag_13:\n      dup3\n      0x1f\n      lt\n      tag_14\n      jumpi\n      dup1\n      mload\n      not(0xff)\n      and\n      dup4\n      dup1\n      add\n      or\n      dup6\n      sstore\n      jump(tag_12)\n    tag_14:\n      dup3\n      dup1\n      add\n      0x01\n      add\n      dup6\n      sstore\n      dup3\n      iszero\n      tag_12\n      jumpi\n      swap2\n      dup3\n      add\n    tag_15:\n      dup3\n      dup2\n      gt\n      iszero\n      tag_16\n      jumpi\n      dup3\n      mload\n      dup3\n      sstore\n      swap2\n      0x20\n      add\n      swap2\n      swap1\n      0x01\n      add\n      swap1\n      jump(tag_15)\n    tag_16:\n    tag_12:\n      pop\n      swap1\n      pop\n      tag_17\n      swap2\n      swap1\n      tag_18\n      jump\t// in\n    tag_17:\n      pop\n      swap1\n      jump\t// out\n    tag_18:\n    tag_19:\n      dup1\n      dup3\n      gt\n      iszero\n      tag_20\n      jumpi\n      0x00\n      dup2\n      0x00\n      swap1\n      sstore\n      pop\n      0x01\n      add\n      jump(tag_19)\n    tag_20:\n      pop\n      swap1\n      jump\t// out\n        /* \"#utility.yul\":7:84   */\n    tag_21:\n        /* \"#utility.yul\":44:51   */\n      0x00\n        /* \"#utility.yul\":73:78   */\n      dup2\n        /* \"#utility.yul\":62:78   */\n      swap1\n      pop\n        /* \"#utility.yul\":7:84   */\n      swap2\n      swap1\n      pop\n      jump\t// out\n        /* \"#utility.yul\":90:208   */\n    tag_22:\n        /* \"#utility.yul\":177:201   */\n      tag_27\n        /* \"#utility.yul\":195:200   */\n      dup2\n        /* \"#utility.yul\":177:201   */\n      tag_21\n      jump\t// in\n    tag_27:\n        /* \"#utility.yul\":172:175   */\n      dup3\n        /* \"#utility.yul\":165:202   */\n      mstore\n        /* \"#utility.yul\":90:208   */\n      pop\n      pop\n      jump\t// out\n        /* \"#utility.yul\":214:436   */\n    tag_8:\n        /* \"#utility.yul\":307:311   */\n      0x00\n        /* \"#utility.yul\":345:347   */\n      0x20\n        /* \"#utility.yul\":334:343   */\n      dup3\n        /* \"#utility.yul\":330:348   */\n      add\n        /* \"#utility.yul\":322:348   */\n      swap1\n      pop\n        /* \"#utility.yul\":358:429   */\n      tag_29\n        /* \"#utility.yul\":426:427   */\n      0x00\n        /* \"#utility.yul\":415:424   */\n      dup4\n        /* \"#utility.yul\":411:428   */\n      add\n        /* \"#utility.yul\":402:408   */\n      dup5\n        /* \"#utility.yul\":358:429   */\n      tag_22\n      jump\t// in\n    tag_29:\n        /* \"#utility.yul\":214:436   */\n      swap3\n      swap2\n      pop\n      pop\n      jump\t// out\n        /* \"#utility.yul\":442:622   */\n    tag_23:\n        /* \"#utility.yul\":490:567   */\n      0x4e487b7100000000000000000000000000000000000000000000000000000000\n        /* \"#utility.yul\":487:488   */\n      0x00\n        /* \"#utility.yul\":480:568   */\n      mstore\n        /* \"#utility.yul\":587:591   */\n      0x22\n        /* \"#utility.yul\":584:585   */\n      0x04\n        /* \"#utility.yul\":577:592   */\n      mstore\n        /* \"#utility.yul\":611:615   */\n      0x24\n        /* \"#utility.yul\":608:609   */\n      0x00\n        /* \"#utility.yul\":601:616   */\n      revert\n        /* \"#utility.yul\":628:948   */\n    tag_11:\n        /* \"#utility.yul\":672:678   */\n      0x00\n        /* \"#utility.yul\":709:710   */\n      0x02\n        /* \"#utility.yul\":703:707   */\n      dup3\n        /* \"#utility.yul\":699:711   */\n      div\n        /* \"#utility.yul\":689:711   */\n      swap1\n      pop\n        /* \"#utility.yul\":756:757   */\n      0x01\n        /* \"#utility.yul\":750:754   */\n      dup3\n        /* \"#utility.yul\":746:758   */\n      and\n        /* \"#utility.yul\":777:795   */\n      dup1\n        /* \"#utility.yul\":767:848   */\n      tag_32\n      jumpi\n        /* \"#utility.yul\":833:837   */\n      0x7f\n        /* \"#utility.yul\":825:831   */\n      dup3\n        /* \"#utility.yul\":821:838   */\n      and\n        /* \"#utility.yul\":811:838   */\n      swap2\n      pop\n        /* \"#utility.yul\":767:848   */\n    tag_32:\n        /* \"#utility.yul\":895:897   */\n      0x20\n        /* \"#utility.yul\":887:893   */\n      dup3\n        /* \"#utility.yul\":884:898   */\n      lt\n        /* \"#utility.yul\":864:882   */\n      dup2\n        /* \"#utility.yul\":861:899   */\n      sub\n        /* \"#utility.yul\":858:942   */\n      tag_33\n      jumpi\n        /* \"#utility.yul\":914:932   */\n      tag_34\n      tag_23\n      jump\t// in\n    tag_34:\n        /* \"#utility.yul\":858:942   */\n    tag_33:\n        /* \"#utility.yul\":679:948   */\n      pop\n        /* \"#utility.yul\":628:948   */\n      swap2\n      swap1\n      pop\n      jump\t// out\n        /* \"ERC20.sol\":110:2036   */\n    tag_9:\n      dataSize(sub_0)\n      dup1\n      dataOffset(sub_0)\n      0x00\n      codecopy\n      0x00\n      return\n    stop\n\n    sub_0: assembly {\n            /* \"ERC20.sol\":110:2036   */\n          mstore(0x40, 0x80)\n          callvalue\n          dup1\n          iszero\n          tag_1\n          jumpi\n          0x00\n          dup1\n          revert\n        tag_1:\n          pop\n          jumpi(tag_2, lt(calldatasize, 0x04))\n          shr(0xe0, calldataload(0x00))\n          dup1\n          0x95d89b41\n          gt\n          tag_17\n          jumpi\n          dup1\n          0xb5931f7c\n          gt\n          tag_18\n          jumpi\n          dup1\n          0xb5931f7c\n          eq\n          tag_13\n          jumpi\n          dup1\n          0xd05c78da\n          eq\n          tag_14\n          jumpi\n          dup1\n          0xdd62ed3e\n          eq\n          tag_15\n          jumpi\n          dup1\n          0xe6cb9013\n          eq\n          tag_16\n          jumpi\n          jump(tag_2)\n        tag_18:\n          dup1\n          0x95d89b41\n          eq\n          tag_10\n          jumpi\n          dup1\n          0xa293d1e8\n          eq\n          tag_11\n          jumpi\n          dup1\n          0xa9059cbb\n          eq\n          tag_12\n          jumpi\n          jump(tag_2)\n        tag_17:\n          dup1\n          0x23b872dd\n          gt\n          tag_19\n          jumpi\n          dup1\n          0x23b872dd\n          eq\n          tag_6\n          jumpi\n          dup1\n          0x313ce567\n          eq\n          tag_7\n          jumpi\n          dup1\n          0x3eaaf86b\n          eq\n          tag_8\n          jumpi\n          dup1\n          0x70a08231\n          eq\n          tag_9\n          jumpi\n          jump(tag_2)\n        tag_19:\n          dup1\n          0x06fdde03\n          eq\n          tag_3\n          jumpi\n          dup1\n          0x095ea7b3\n          eq\n          tag_4\n          jumpi\n          dup1\n          0x18160ddd\n          eq\n          tag_5\n          jumpi\n        tag_2:\n          0x00\n          dup1\n          revert\n            /* \"ERC20.sol\":152:170   */\n        tag_3:\n          tag_20\n          tag_21\n          jump\t// in\n        tag_20:\n          mload(0x40)\n          tag_22\n          swap2\n          swap1\n          tag_23\n          jump\t// in\n        tag_22:\n          mload(0x40)\n          dup1\n          swap2\n          sub\n          swap1\n          return\n            /* \"ERC20.sol\":1129:1334   */\n        tag_4:\n          tag_24\n          0x04\n          dup1\n          calldatasize\n          sub\n          dup2\n          add\n          swap1\n          tag_25\n          swap2\n          swap1\n          tag_26\n          jump\t// in\n        tag_25:\n          tag_27\n          jump\t// in\n        tag_24:\n          mload(0x40)\n          tag_28\n          swap2\n          swap1\n          tag_29\n          jump\t// in\n        tag_28:\n          mload(0x40)\n          dup1\n          swap2\n          sub\n          swap1\n          return\n            /* \"ERC20.sol\":740:852   */\n        tag_5:\n          tag_30\n          tag_31\n          jump\t// in\n        tag_30:\n          mload(0x40)\n          tag_32\n          swap2\n          swap1\n          tag_33\n          jump\t// in\n        tag_32:\n          mload(0x40)\n          dup1\n          swap2\n          sub\n          swap1\n          return\n            /* \"ERC20.sol\":1690:2031   */\n        tag_6:\n          tag_34\n          0x04\n          dup1\n          calldatasize\n          sub\n          dup2\n          add\n          swap1\n          tag_35\n          swap2\n          swap1\n          tag_36\n          jump\t// in\n        tag_35:\n          tag_37\n          jump\t// in\n        tag_34:\n          mload(0x40)\n          tag_38\n          swap2\n          swap1\n          tag_29\n          jump\t// in\n        tag_38:\n          mload(0x40)\n          dup1\n          swap2\n          sub\n          swap1\n          return\n            /* \"ERC20.sol\":204:225   */\n        tag_7:\n          tag_39\n          tag_40\n          jump\t// in\n        tag_39:\n          mload(0x40)\n          tag_41\n          swap2\n          swap1\n          tag_42\n          jump\t// in\n        tag_41:\n          mload(0x40)\n          dup1\n          swap2\n          sub\n          swap1\n          return\n            /* \"ERC20.sol\":283:310   */\n        tag_8:\n          tag_43\n          tag_44\n          jump\t// in\n        tag_43:\n          mload(0x40)\n          tag_45\n          swap2\n          swap1\n          tag_33\n          jump\t// in\n        tag_45:\n          mload(0x40)\n          dup1\n          swap2\n          sub\n          swap1\n          return\n            /* \"ERC20.sol\":860:972   */\n        tag_9:\n          tag_46\n          0x04\n          dup1\n          calldatasize\n          sub\n          dup2\n          add\n          swap1\n          tag_47\n          swap2\n          swap1\n          tag_48\n          jump\t// in\n        tag_47:\n          tag_49\n          jump\t// in\n        tag_46:\n          mload(0x40)\n          tag_50\n          swap2\n          swap1\n          tag_33\n          jump\t// in\n        tag_50:\n          mload(0x40)\n          dup1\n          swap2\n          sub\n          swap1\n          return\n            /* \"ERC20.sol\":177:197   */\n        tag_10:\n          tag_51\n          tag_52\n          jump\t// in\n        tag_51:\n          mload(0x40)\n          tag_53\n          swap2\n          swap1\n          tag_23\n          jump\t// in\n        tag_53:\n          mload(0x40)\n          dup1\n          swap2\n          sub\n          swap1\n          return\n            /* \"SafeMath.sol\":211:313   */\n        tag_11:\n          tag_54\n          0x04\n          dup1\n          calldatasize\n          sub\n          dup2\n          add\n          swap1\n          tag_55\n          swap2\n          swap1\n          tag_56\n          jump\t// in\n        tag_55:\n          tag_57\n          jump\t// in\n        tag_54:\n          mload(0x40)\n          tag_58\n          swap2\n          swap1\n          tag_33\n          jump\t// in\n        tag_58:\n          mload(0x40)\n          dup1\n          swap2\n          sub\n          swap1\n          return\n            /* \"ERC20.sol\":1342:1682   */\n        tag_12:\n          tag_59\n          0x04\n          dup1\n          calldatasize\n          sub\n          dup2\n          add\n          swap1\n          tag_60\n          swap2\n          swap1\n          tag_26\n          jump\t// in\n        tag_60:\n          tag_61\n          jump\t// in\n        tag_59:\n          mload(0x40)\n          tag_62\n          swap2\n          swap1\n          tag_29\n          jump\t// in\n        tag_62:\n          mload(0x40)\n          dup1\n          swap2\n          sub\n          swap1\n          return\n            /* \"SafeMath.sol\":442:548   */\n        tag_13:\n          tag_63\n          0x04\n          dup1\n          calldatasize\n          sub\n          dup2\n          add\n          swap1\n          tag_64\n          swap2\n          swap1\n          tag_56\n          jump\t// in\n        tag_64:\n          tag_65\n          jump\t// in\n        tag_63:\n          mload(0x40)\n          tag_66\n          swap2\n          swap1\n          tag_33\n          jump\t// in\n        tag_66:\n          mload(0x40)\n          dup1\n          swap2\n          sub\n          swap1\n          return\n            /* \"SafeMath.sol\":334:441   */\n        tag_14:\n          tag_67\n          0x04\n          dup1\n          calldatasize\n          sub\n          dup2\n          add\n          swap1\n          tag_68\n          swap2\n          swap1\n          tag_56\n          jump\t// in\n        tag_68:\n          tag_69\n          jump\t// in\n        tag_67:\n          mload(0x40)\n          tag_70\n          swap2\n          swap1\n          tag_33\n          jump\t// in\n        tag_70:\n          mload(0x40)\n          dup1\n          swap2\n          sub\n          swap1\n          return\n            /* \"ERC20.sol\":980:1121   */\n        tag_15:\n          tag_71\n          0x04\n          dup1\n          calldatasize\n          sub\n          dup2\n          add\n          swap1\n          tag_72\n          swap2\n          swap1\n          tag_73\n          jump\t// in\n        tag_72:\n          tag_74\n          jump\t// in\n        tag_71:\n          mload(0x40)\n          tag_75\n          swap2\n          swap1\n          tag_33\n          jump\t// in\n        tag_75:\n          mload(0x40)\n          dup1\n          swap2\n          sub\n          swap1\n          return\n            /* \"SafeMath.sol\":89:205   */\n        tag_16:\n          tag_76\n          0x04\n          dup1\n          calldatasize\n          sub\n          dup2\n          add\n          swap1\n          tag_77\n          swap2\n          swap1\n          tag_56\n          jump\t// in\n        tag_77:\n          tag_78\n          jump\t// in\n        tag_76:\n          mload(0x40)\n          tag_79\n          swap2\n          swap1\n          tag_33\n          jump\t// in\n        tag_79:\n          mload(0x40)\n          dup1\n          swap2\n          sub\n          swap1\n          return\n            /* \"ERC20.sol\":152:170   */\n        tag_21:\n          0x00\n          dup1\n          sload\n          tag_80\n          swap1\n          tag_81\n          jump\t// in\n        tag_80:\n          dup1\n          0x1f\n          add\n          0x20\n          dup1\n          swap2\n          div\n          mul\n          0x20\n          add\n          mload(0x40)\n          swap1\n          dup2\n          add\n          0x40\n          mstore\n          dup1\n          swap3\n          swap2\n          swap1\n          dup2\n          dup2\n          mstore\n          0x20\n          add\n          dup3\n          dup1\n          sload\n          tag_82\n          swap1\n          tag_81\n          jump\t// in\n        tag_82:\n          dup1\n          iszero\n          tag_83\n          jumpi\n          dup1\n          0x1f\n          lt\n          tag_84\n          jumpi\n          0x0100\n          dup1\n          dup4\n          sload\n          div\n          mul\n          dup4\n          mstore\n          swap2\n          0x20\n          add\n          swap2\n          jump(tag_83)\n        tag_84:\n          dup3\n          add\n          swap2\n          swap1\n          0x00\n          mstore\n          keccak256(0x00, 0x20)\n          swap1\n        tag_85:\n          dup2\n          sload\n          dup2\n          mstore\n          swap1\n          0x01\n          add\n          swap1\n          0x20\n          add\n          dup1\n          dup4\n          gt\n          tag_85\n          jumpi\n          dup3\n          swap1\n          sub\n          0x1f\n          and\n          dup3\n          add\n          swap2\n        tag_83:\n          pop\n          pop\n          pop\n          pop\n          pop\n          dup2\n          jump\t// out\n            /* \"ERC20.sol\":1129:1334   */\n        tag_27:\n            /* \"ERC20.sol\":1193:1205   */\n          0x00\n            /* \"ERC20.sol\":1250:1256   */\n          dup2\n            /* \"ERC20.sol\":1218:1225   */\n          0x05\n            /* \"ERC20.sol\":1218:1237   */\n          0x00\n            /* \"ERC20.sol\":1226:1236   */\n          caller\n            /* \"ERC20.sol\":1218:1237   */\n          0xffffffffffffffffffffffffffffffffffffffff\n          and\n          0xffffffffffffffffffffffffffffffffffffffff\n          and\n          dup2\n          mstore\n          0x20\n          add\n          swap1\n          dup2\n          mstore\n          0x20\n          add\n          0x00\n          keccak256\n            /* \"ERC20.sol\":1218:1247   */\n          0x00\n            /* \"ERC20.sol\":1238:1246   */\n          dup6\n            /* \"ERC20.sol\":1218:1247   */\n          0xffffffffffffffffffffffffffffffffffffffff\n          and\n          0xffffffffffffffffffffffffffffffffffffffff\n          and\n          dup2\n          mstore\n          0x20\n          add\n          swap1\n          dup2\n          mstore\n          0x20\n          add\n          0x00\n          keccak256\n            /* \"ERC20.sol\":1218:1256   */\n          dup2\n          swap1\n          sstore\n          pop\n            /* \"ERC20.sol\":1287:1295   */\n          dup3\n            /* \"ERC20.sol\":1266:1304   */\n          0xffffffffffffffffffffffffffffffffffffffff\n          and\n            /* \"ERC20.sol\":1275:1285   */\n          caller\n            /* \"ERC20.sol\":1266:1304   */\n          0xffffffffffffffffffffffffffffffffffffffff\n          and\n          0x8c5be1e5ebec7d5bd14f71427d1e84f3dd0314c0f7b2291e5b200ac8c7c3b925\n            /* \"ERC20.sol\":1297:1303   */\n          dup5\n            /* \"ERC20.sol\":1266:1304   */\n          mload(0x40)\n          tag_87\n          swap2\n          swap1\n          tag_33\n          jump\t// in\n        tag_87:\n          mload(0x40)\n          dup1\n          swap2\n          sub\n          swap1\n          log3\n            /* \"ERC20.sol\":1322:1326   */\n          0x01\n            /* \"ERC20.sol\":1315:1326   */\n          swap1\n          pop\n            /* \"ERC20.sol\":1129:1334   */\n          swap3\n          swap2\n          pop\n          pop\n          jump\t// out\n            /* \"ERC20.sol\":740:852   */\n        tag_31:\n            /* \"ERC20.sol\":784:788   */\n          0x00\n            /* \"ERC20.sol\":824:832   */\n          0x04\n            /* \"ERC20.sol\":824:844   */\n          0x00\n            /* \"ERC20.sol\":841:842   */\n          dup1\n            /* \"ERC20.sol\":824:844   */\n          0xffffffffffffffffffffffffffffffffffffffff\n          and\n          0xffffffffffffffffffffffffffffffffffffffff\n          and\n          dup2\n          mstore\n          0x20\n          add\n          swap1\n          dup2\n          mstore\n          0x20\n          add\n          0x00\n          keccak256\n          sload\n            /* \"ERC20.sol\":808:820   */\n          sload(0x03)\n            /* \"ERC20.sol\":808:844   */\n          tag_89\n          swap2\n          swap1\n          tag_90\n          jump\t// in\n        tag_89:\n            /* \"ERC20.sol\":801:844   */\n          swap1\n          pop\n            /* \"ERC20.sol\":740:852   */\n          swap1\n          jump\t// out\n            /* \"ERC20.sol\":1690:2031   */\n        tag_37:\n            /* \"ERC20.sol\":1770:1782   */\n          0x00\n            /* \"ERC20.sol\":1818:1819   */\n          dup1\n            /* \"ERC20.sol\":1803:1820   */\n          0xffffffffffffffffffffffffffffffffffffffff\n          and\n            /* \"ERC20.sol\":1803:1806   */\n          dup4\n            /* \"ERC20.sol\":1803:1820   */\n          0xffffffffffffffffffffffffffffffffffffffff\n          and\n          sub\n            /* \"ERC20.sol\":1795:1821   */\n          tag_92\n          jumpi\n          0x00\n          dup1\n          revert\n        tag_92:\n            /* \"ERC20.sol\":1868:1875   */\n          dup2\n            /* \"ERC20.sol\":1840:1847   */\n          0x05\n            /* \"ERC20.sol\":1840:1859   */\n          0x00\n            /* \"ERC20.sol\":1848:1858   */\n          caller\n            /* \"ERC20.sol\":1840:1859   */\n          0xffffffffffffffffffffffffffffffffffffffff\n          and\n          0xffffffffffffffffffffffffffffffffffffffff\n          and\n          dup2\n          mstore\n          0x20\n          add\n          swap1\n          dup2\n          mstore\n          0x20\n          add\n          0x00\n          keccak256\n            /* \"ERC20.sol\":1840:1866   */\n          0x00\n            /* \"ERC20.sol\":1860:1865   */\n          dup7\n            /* \"ERC20.sol\":1840:1866   */\n          0xffffffffffffffffffffffffffffffffffffffff\n          and\n          0xffffffffffffffffffffffffffffffffffffffff\n          and\n          dup2\n          mstore\n          0x20\n          add\n          swap1\n          dup2\n          mstore\n          0x20\n          add\n          0x00\n          keccak256\n          sload\n            /* \"ERC20.sol\":1840:1875   */\n          lt\n          iszero\n            /* \"ERC20.sol\":1832:1876   */\n          tag_93\n          jumpi\n          0x00\n          dup1\n          revert\n        tag_93:\n            /* \"ERC20.sol\":1912:1919   */\n          dup2\n            /* \"ERC20.sol\":1895:1903   */\n          0x04\n            /* \"ERC20.sol\":1895:1910   */\n          0x00\n            /* \"ERC20.sol\":1904:1909   */\n          dup7\n            /* \"ERC20.sol\":1895:1910   */\n          0xffffffffffffffffffffffffffffffffffffffff\n          and\n          0xffffffffffffffffffffffffffffffffffffffff\n          and\n          dup2\n          mstore\n          0x20\n          add\n          swap1\n          dup2\n          mstore\n          0x20\n          add\n          0x00\n          keccak256\n          sload\n            /* \"ERC20.sol\":1895:1919   */\n          lt\n          iszero\n            /* \"ERC20.sol\":1895:1932   */\n          dup1\n          iszero\n          tag_94\n          jumpi\n          pop\n            /* \"ERC20.sol\":1931:1932   */\n          0x00\n            /* \"ERC20.sol\":1923:1930   */\n          dup3\n            /* \"ERC20.sol\":1923:1932   */\n          gt\n            /* \"ERC20.sol\":1895:1932   */\n        tag_94:\n            /* \"ERC20.sol\":1887:1933   */\n          tag_95\n          jumpi\n          0x00\n          dup1\n          revert\n        tag_95:\n            /* \"ERC20.sol\":1961:1968   */\n          dup2\n            /* \"ERC20.sol\":1944:1952   */\n          0x04\n            /* \"ERC20.sol\":1944:1959   */\n          0x00\n            /* \"ERC20.sol\":1953:1958   */\n          dup7\n            /* \"ERC20.sol\":1944:1959   */\n          0xffffffffffffffffffffffffffffffffffffffff\n          and\n          0xffffffffffffffffffffffffffffffffffffffff\n          and\n          dup2\n          mstore\n          0x20\n          add\n          swap1\n          dup2\n          mstore\n          0x20\n          add\n          0x00\n          keccak256\n          0x00\n            /* \"ERC20.sol\":1944:1968   */\n          dup3\n          dup3\n          sload\n          tag_96\n          swap2\n          swap1\n          tag_90\n          jump\t// in\n        tag_96:\n          swap3\n          pop\n          pop\n          dup2\n          swap1\n          sstore\n          pop\n            /* \"ERC20.sol\":1994:2001   */\n          dup2\n            /* \"ERC20.sol\":1979:1987   */\n          0x04\n            /* \"ERC20.sol\":1979:1992   */\n          0x00\n            /* \"ERC20.sol\":1988:1991   */\n          dup6\n            /* \"ERC20.sol\":1979:1992   */\n          0xffffffffffffffffffffffffffffffffffffffff\n          and\n          0xffffffffffffffffffffffffffffffffffffffff\n          and\n          dup2\n          mstore\n          0x20\n          add\n          swap1\n          dup2\n          mstore\n          0x20\n          add\n          0x00\n          keccak256\n          0x00\n            /* \"ERC20.sol\":1979:2001   */\n          dup3\n          dup3\n          sload\n          tag_97\n          swap2\n          swap1\n          tag_98\n          jump\t// in\n        tag_97:\n          swap3\n          pop\n          pop\n          dup2\n          swap1\n          sstore\n          pop\n            /* \"ERC20.sol\":2019:2023   */\n          0x01\n            /* \"ERC20.sol\":2012:2023   */\n          swap1\n          pop\n            /* \"ERC20.sol\":1690:2031   */\n          swap4\n          swap3\n          pop\n          pop\n          pop\n          jump\t// out\n            /* \"ERC20.sol\":204:225   */\n        tag_40:\n          0x02\n          0x00\n          swap1\n          sload\n          swap1\n          0x0100\n          exp\n          swap1\n          div\n          0xff\n          and\n          dup2\n          jump\t// out\n            /* \"ERC20.sol\":283:310   */\n        tag_44:\n          sload(0x03)\n          dup2\n          jump\t// out\n            /* \"ERC20.sol\":860:972   */\n        tag_49:\n            /* \"ERC20.sol\":916:928   */\n          0x00\n            /* \"ERC20.sol\":948:956   */\n          0x04\n            /* \"ERC20.sol\":948:964   */\n          0x00\n            /* \"ERC20.sol\":957:963   */\n          dup4\n            /* \"ERC20.sol\":948:964   */\n          0xffffffffffffffffffffffffffffffffffffffff\n          and\n          0xffffffffffffffffffffffffffffffffffffffff\n          and\n          dup2\n          mstore\n          0x20\n          add\n          swap1\n          dup2\n          mstore\n          0x20\n          add\n          0x00\n          keccak256\n          sload\n            /* \"ERC20.sol\":941:964   */\n          swap1\n          pop\n            /* \"ERC20.sol\":860:972   */\n          swap2\n          swap1\n          pop\n          jump\t// out\n            /* \"ERC20.sol\":177:197   */\n        tag_52:\n          0x01\n          dup1\n          sload\n          tag_100\n          swap1\n          tag_81\n          jump\t// in\n        tag_100:\n          dup1\n          0x1f\n          add\n          0x20\n          dup1\n          swap2\n          div\n          mul\n          0x20\n          add\n          mload(0x40)\n          swap1\n          dup2\n          add\n          0x40\n          mstore\n          dup1\n          swap3\n          swap2\n          swap1\n          dup2\n          dup2\n          mstore\n          0x20\n          add\n          dup3\n          dup1\n          sload\n          tag_101\n          swap1\n          tag_81\n          jump\t// in\n        tag_101:\n          dup1\n          iszero\n          tag_102\n          jumpi\n          dup1\n          0x1f\n          lt\n          tag_103\n          jumpi\n          0x0100\n          dup1\n          dup4\n          sload\n          div\n          mul\n          dup4\n          mstore\n          swap2\n          0x20\n          add\n          swap2\n          jump(tag_102)\n        tag_103:\n          dup3\n          add\n          swap2\n          swap1\n          0x00\n          mstore\n          keccak256(0x00, 0x20)\n          swap1\n        tag_104:\n          dup2\n          sload\n          dup2\n          mstore\n          swap1\n          0x01\n          add\n          swap1\n          0x20\n          add\n          dup1\n          dup4\n          gt\n          tag_104\n          jumpi\n          dup3\n          swap1\n          sub\n          0x1f\n          and\n          dup3\n          add\n          swap2\n        tag_102:\n          pop\n          pop\n          pop\n          pop\n          pop\n          dup2\n          jump\t// out\n            /* \"SafeMath.sol\":211:313   */\n        tag_57:\n            /* \"SafeMath.sol\":265:271   */\n          0x00\n            /* \"SafeMath.sol\":297:298   */\n          dup3\n            /* \"SafeMath.sol\":292:293   */\n          dup3\n            /* \"SafeMath.sol\":292:298   */\n          gt\n          iszero\n            /* \"SafeMath.sol\":284:299   */\n          tag_106\n          jumpi\n          0x00\n          dup1\n          revert\n        tag_106:\n            /* \"SafeMath.sol\":309:310   */\n          dup2\n            /* \"SafeMath.sol\":305:306   */\n          dup4\n            /* \"SafeMath.sol\":305:310   */\n          tag_107\n          swap2\n          swap1\n          tag_90\n          jump\t// in\n        tag_107:\n            /* \"SafeMath.sol\":301:310   */\n          swap1\n          pop\n            /* \"SafeMath.sol\":211:313   */\n          swap3\n          swap2\n          pop\n          pop\n          jump\t// out\n            /* \"ERC20.sol\":1342:1682   */\n        tag_61:\n            /* \"ERC20.sol\":1401:1413   */\n          0x00\n            /* \"ERC20.sol\":1458:1464   */\n          dup2\n            /* \"ERC20.sol\":1434:1442   */\n          0x04\n            /* \"ERC20.sol\":1434:1454   */\n          0x00\n            /* \"ERC20.sol\":1443:1453   */\n          caller\n            /* \"ERC20.sol\":1434:1454   */\n          0xffffffffffffffffffffffffffffffffffffffff\n          and\n          0xffffffffffffffffffffffffffffffffffffffff\n          and\n          dup2\n          mstore\n          0x20\n          add\n          swap1\n          dup2\n          mstore\n          0x20\n          add\n          0x00\n          keccak256\n          sload\n            /* \"ERC20.sol\":1434:1464   */\n          lt\n          iszero\n            /* \"ERC20.sol\":1434:1478   */\n          dup1\n          iszero\n          tag_109\n          jumpi\n          pop\n            /* \"ERC20.sol\":1477:1478   */\n          0x00\n            /* \"ERC20.sol\":1468:1474   */\n          dup3\n            /* \"ERC20.sol\":1468:1478   */\n          gt\n            /* \"ERC20.sol\":1434:1478   */\n        tag_109:\n            /* \"ERC20.sol\":1426:1479   */\n          tag_110\n          jumpi\n          0x00\n          dup1\n          revert\n        tag_110:\n            /* \"ERC20.sol\":1510:1547   */\n          tag_111\n            /* \"ERC20.sol\":1518:1526   */\n          0x04\n            /* \"ERC20.sol\":1518:1538   */\n          0x00\n            /* \"ERC20.sol\":1527:1537   */\n          caller\n            /* \"ERC20.sol\":1518:1538   */\n          0xffffffffffffffffffffffffffffffffffffffff\n          and\n          0xffffffffffffffffffffffffffffffffffffffff\n          and\n          dup2\n          mstore\n          0x20\n          add\n          swap1\n          dup2\n          mstore\n          0x20\n          add\n          0x00\n          keccak256\n          sload\n            /* \"ERC20.sol\":1540:1546   */\n          dup4\n            /* \"ERC20.sol\":1510:1517   */\n          tag_57\n            /* \"ERC20.sol\":1510:1547   */\n          jump\t// in\n        tag_111:\n            /* \"ERC20.sol\":1487:1495   */\n          0x04\n            /* \"ERC20.sol\":1487:1507   */\n          0x00\n            /* \"ERC20.sol\":1496:1506   */\n          caller\n            /* \"ERC20.sol\":1487:1507   */\n          0xffffffffffffffffffffffffffffffffffffffff\n          and\n          0xffffffffffffffffffffffffffffffffffffffff\n          and\n          dup2\n          mstore\n          0x20\n          add\n          swap1\n          dup2\n          mstore\n          0x20\n          add\n          0x00\n          keccak256\n            /* \"ERC20.sol\":1487:1547   */\n          dup2\n          swap1\n          sstore\n          pop\n            /* \"ERC20.sol\":1570:1599   */\n          tag_112\n            /* \"ERC20.sol\":1578:1586   */\n          0x04\n            /* \"ERC20.sol\":1578:1590   */\n          0x00\n            /* \"ERC20.sol\":1587:1589   */\n          dup6\n            /* \"ERC20.sol\":1578:1590   */\n          0xffffffffffffffffffffffffffffffffffffffff\n          and\n          0xffffffffffffffffffffffffffffffffffffffff\n          and\n          dup2\n          mstore\n          0x20\n          add\n          swap1\n          dup2\n          mstore\n          0x20\n          add\n          0x00\n          keccak256\n          sload\n            /* \"ERC20.sol\":1592:1598   */\n          dup4\n            /* \"ERC20.sol\":1570:1577   */\n          tag_78\n            /* \"ERC20.sol\":1570:1599   */\n          jump\t// in\n        tag_112:\n            /* \"ERC20.sol\":1555:1563   */\n          0x04\n            /* \"ERC20.sol\":1555:1567   */\n          0x00\n            /* \"ERC20.sol\":1564:1566   */\n          dup6\n            /* \"ERC20.sol\":1555:1567   */\n          0xffffffffffffffffffffffffffffffffffffffff\n          and\n          0xffffffffffffffffffffffffffffffffffffffff\n          and\n          dup2\n          mstore\n          0x20\n          add\n          swap1\n          dup2\n          mstore\n          0x20\n          add\n          0x00\n          keccak256\n            /* \"ERC20.sol\":1555:1599   */\n          dup2\n          swap1\n          sstore\n          pop\n            /* \"ERC20.sol\":1633:1635   */\n          dup3\n            /* \"ERC20.sol\":1612:1644   */\n          0xffffffffffffffffffffffffffffffffffffffff\n          and\n            /* \"ERC20.sol\":1621:1631   */\n          caller\n            /* \"ERC20.sol\":1612:1644   */\n          0xffffffffffffffffffffffffffffffffffffffff\n          and\n          0xddf252ad1be2c89b69c2b068fc378daa952ba7f163c4a11628f55a4df523b3ef\n            /* \"ERC20.sol\":1637:1643   */\n          dup5\n            /* \"ERC20.sol\":1612:1644   */\n          mload(0x40)\n          tag_113\n          swap2\n          swap1\n          tag_33\n          jump\t// in\n        tag_113:\n          mload(0x40)\n          dup1\n          swap2\n          sub\n          swap1\n          log3\n            /* \"ERC20.sol\":1669:1673   */\n          0x01\n            /* \"ERC20.sol\":1662:1673   */\n          swap1\n          pop\n            /* \"ERC20.sol\":1342:1682   */\n          swap3\n          swap2\n          pop\n          pop\n          jump\t// out\n            /* \"SafeMath.sol\":442:548   */\n        tag_65:\n            /* \"SafeMath.sol\":496:502   */\n          0x00\n            /* \"SafeMath.sol\":518:519   */\n          dup1\n            /* \"SafeMath.sol\":514:515   */\n          dup3\n            /* \"SafeMath.sol\":514:519   */\n          gt\n            /* \"SafeMath.sol\":506:520   */\n          tag_115\n          jumpi\n          0x00\n          dup1\n          revert\n        tag_115:\n            /* \"SafeMath.sol\":539:540   */\n          dup2\n            /* \"SafeMath.sol\":535:536   */\n          dup4\n            /* \"SafeMath.sol\":535:540   */\n          tag_116\n          swap2\n          swap1\n          tag_117\n          jump\t// in\n        tag_116:\n            /* \"SafeMath.sol\":531:540   */\n          swap1\n          pop\n            /* \"SafeMath.sol\":442:548   */\n          swap3\n          swap2\n          pop\n          pop\n          jump\t// out\n            /* \"SafeMath.sol\":334:441   */\n        tag_69:\n            /* \"SafeMath.sol\":388:394   */\n          0x00\n            /* \"SafeMath.sol\":406:407   */\n          dup2\n            /* \"SafeMath.sol\":402:403   */\n          dup4\n            /* \"SafeMath.sol\":402:407   */\n          tag_119\n          swap2\n          swap1\n          tag_120\n          jump\t// in\n        tag_119:\n            /* \"SafeMath.sol\":398:407   */\n          swap1\n          pop\n            /* \"SafeMath.sol\":422:423   */\n          0x00\n            /* \"SafeMath.sol\":417:418   */\n          dup4\n            /* \"SafeMath.sol\":417:423   */\n          eq\n            /* \"SafeMath.sol\":417:437   */\n          dup1\n          tag_121\n          jumpi\n          pop\n            /* \"SafeMath.sol\":436:437   */\n          dup2\n            /* \"SafeMath.sol\":431:432   */\n          dup4\n            /* \"SafeMath.sol\":427:428   */\n          dup3\n            /* \"SafeMath.sol\":427:432   */\n          tag_122\n          swap2\n          swap1\n          tag_117\n          jump\t// in\n        tag_122:\n            /* \"SafeMath.sol\":427:437   */\n          eq\n            /* \"SafeMath.sol\":417:437   */\n        tag_121:\n            /* \"SafeMath.sol\":409:438   */\n          tag_123\n          jumpi\n          0x00\n          dup1\n          revert\n        tag_123:\n            /* \"SafeMath.sol\":334:441   */\n          swap3\n          swap2\n          pop\n          pop\n          jump\t// out\n            /* \"ERC20.sol\":980:1121   */\n        tag_74:\n            /* \"ERC20.sol\":1054:1068   */\n          0x00\n            /* \"ERC20.sol\":1088:1095   */\n          0x05\n            /* \"ERC20.sol\":1088:1103   */\n          0x00\n            /* \"ERC20.sol\":1096:1102   */\n          dup5\n            /* \"ERC20.sol\":1088:1103   */\n          0xffffffffffffffffffffffffffffffffffffffff\n          and\n          0xffffffffffffffffffffffffffffffffffffffff\n          and\n          dup2\n          mstore\n          0x20\n          add\n          swap1\n          dup2\n          mstore\n          0x20\n          add\n          0x00\n          keccak256\n            /* \"ERC20.sol\":1088:1113   */\n          0x00\n            /* \"ERC20.sol\":1104:1112   */\n          dup4\n            /* \"ERC20.sol\":1088:1113   */\n          0xffffffffffffffffffffffffffffffffffffffff\n          and\n          0xffffffffffffffffffffffffffffffffffffffff\n          and\n          dup2\n          mstore\n          0x20\n          add\n          swap1\n          dup2\n          mstore\n          0x20\n          add\n          0x00\n          keccak256\n          sload\n            /* \"ERC20.sol\":1081:1113   */\n          swap1\n          pop\n            /* \"ERC20.sol\":980:1121   */\n          swap3\n          swap2\n          pop\n          pop\n          jump\t// out\n            /* \"SafeMath.sol\":89:205   */\n        tag_78:\n            /* \"SafeMath.sol\":143:149   */\n          0x00\n            /* \"SafeMath.sol\":170:171   */\n          dup2\n            /* \"SafeMath.sol\":166:167   */\n          dup4\n            /* \"SafeMath.sol\":166:171   */\n          tag_126\n          swap2\n          swap1\n          tag_98\n          jump\t// in\n        tag_126:\n            /* \"SafeMath.sol\":162:171   */\n          swap1\n          pop\n            /* \"SafeMath.sol\":195:196   */\n          dup3\n            /* \"SafeMath.sol\":190:191   */\n          dup2\n            /* \"SafeMath.sol\":190:196   */\n          lt\n          iszero\n            /* \"SafeMath.sol\":182:197   */\n          tag_127\n          jumpi\n          0x00\n          dup1\n          revert\n        tag_127:\n            /* \"SafeMath.sol\":89:205   */\n          swap3\n          swap2\n          pop\n          pop\n          jump\t// out\n            /* \"#utility.yul\":7:106   */\n        tag_128:\n            /* \"#utility.yul\":59:65   */\n          0x00\n            /* \"#utility.yul\":93:98   */\n          dup2\n            /* \"#utility.yul\":87:99   */\n          mload\n            /* \"#utility.yul\":77:99   */\n          swap1\n          pop\n            /* \"#utility.yul\":7:106   */\n          swap2\n          swap1\n          pop\n          jump\t// out\n            /* \"#utility.yul\":112:281   */\n        tag_129:\n            /* \"#utility.yul\":196:207   */\n          0x00\n            /* \"#utility.yul\":230:236   */\n          dup3\n            /* \"#utility.yul\":225:228   */\n          dup3\n            /* \"#utility.yul\":218:237   */\n          mstore\n            /* \"#utility.yul\":270:274   */\n          0x20\n            /* \"#utility.yul\":265:268   */\n          dup3\n            /* \"#utility.yul\":261:275   */\n          add\n            /* \"#utility.yul\":246:275   */\n          swap1\n          pop\n            /* \"#utility.yul\":112:281   */\n          swap3\n          swap2\n          pop\n          pop\n          jump\t// out\n            /* \"#utility.yul\":287:594   */\n        tag_130:\n            /* \"#utility.yul\":355:356   */\n          0x00\n            /* \"#utility.yul\":365:478   */\n        tag_155:\n            /* \"#utility.yul\":379:385   */\n          dup4\n            /* \"#utility.yul\":376:377   */\n          dup2\n            /* \"#utility.yul\":373:386   */\n          lt\n            /* \"#utility.yul\":365:478   */\n          iszero\n          tag_157\n          jumpi\n            /* \"#utility.yul\":464:465   */\n          dup1\n            /* \"#utility.yul\":459:462   */\n          dup3\n            /* \"#utility.yul\":455:466   */\n          add\n            /* \"#utility.yul\":449:467   */\n          mload\n            /* \"#utility.yul\":445:446   */\n          dup2\n            /* \"#utility.yul\":440:443   */\n          dup5\n            /* \"#utility.yul\":436:447   */\n          add\n            /* \"#utility.yul\":429:468   */\n          mstore\n            /* \"#utility.yul\":401:403   */\n          0x20\n            /* \"#utility.yul\":398:399   */\n          dup2\n            /* \"#utility.yul\":394:404   */\n          add\n            /* \"#utility.yul\":389:404   */\n          swap1\n          pop\n            /* \"#utility.yul\":365:478   */\n          jump(tag_155)\n        tag_157:\n            /* \"#utility.yul\":496:502   */\n          dup4\n            /* \"#utility.yul\":493:494   */\n          dup2\n            /* \"#utility.yul\":490:503   */\n          gt\n            /* \"#utility.yul\":487:588   */\n          iszero\n          tag_158\n          jumpi\n            /* \"#utility.yul\":576:577   */\n          0x00\n            /* \"#utility.yul\":567:573   */\n          dup5\n            /* \"#utility.yul\":562:565   */\n          dup5\n            /* \"#utility.yul\":558:574   */\n          add\n            /* \"#utility.yul\":551:578   */\n          mstore\n            /* \"#utility.yul\":487:588   */\n        tag_158:\n            /* \"#utility.yul\":336:594   */\n          pop\n            /* \"#utility.yul\":287:594   */\n          pop\n          pop\n          pop\n          jump\t// out\n            /* \"#utility.yul\":600:702   */\n        tag_131:\n            /* \"#utility.yul\":641:647   */\n          0x00\n            /* \"#utility.yul\":692:694   */\n          0x1f\n            /* \"#utility.yul\":688:695   */\n          not\n            /* \"#utility.yul\":683:685   */\n          0x1f\n            /* \"#utility.yul\":676:681   */\n          dup4\n            /* \"#utility.yul\":672:686   */\n          add\n            /* \"#utility.yul\":668:696   */\n          and\n            /* \"#utility.yul\":658:696   */\n          swap1\n          pop\n            /* \"#utility.yul\":600:702   */\n          swap2\n          swap1\n          pop\n          jump\t// out\n            /* \"#utility.yul\":708:1072   */\n        tag_132:\n            /* \"#utility.yul\":796:799   */\n          0x00\n            /* \"#utility.yul\":824:863   */\n          tag_161\n            /* \"#utility.yul\":857:862   */\n          dup3\n            /* \"#utility.yul\":824:863   */\n          tag_128\n          jump\t// in\n        tag_161:\n            /* \"#utility.yul\":879:950   */\n          tag_162\n            /* \"#utility.yul\":943:949   */\n          dup2\n            /* \"#utility.yul\":938:941   */\n          dup6\n            /* \"#utility.yul\":879:950   */\n          tag_129\n          jump\t// in\n        tag_162:\n            /* \"#utility.yul\":872:950   */\n          swap4\n          pop\n            /* \"#utility.yul\":959:1011   */\n          tag_163\n            /* \"#utility.yul\":1004:1010   */\n          dup2\n            /* \"#utility.yul\":999:1002   */\n          dup6\n            /* \"#utility.yul\":992:996   */\n          0x20\n            /* \"#utility.yul\":985:990   */\n          dup7\n            /* \"#utility.yul\":981:997   */\n          add\n            /* \"#utility.yul\":959:1011   */\n          tag_130\n          jump\t// in\n        tag_163:\n            /* \"#utility.yul\":1036:1065   */\n          tag_164\n            /* \"#utility.yul\":1058:1064   */\n          dup2\n            /* \"#utility.yul\":1036:1065   */\n          tag_131\n          jump\t// in\n        tag_164:\n            /* \"#utility.yul\":1031:1034   */\n          dup5\n            /* \"#utility.yul\":1027:1066   */\n          add\n            /* \"#utility.yul\":1020:1066   */\n          swap2\n          pop\n            /* \"#utility.yul\":800:1072   */\n          pop\n            /* \"#utility.yul\":708:1072   */\n          swap3\n          swap2\n          pop\n          pop\n          jump\t// out\n            /* \"#utility.yul\":1078:1391   */\n        tag_23:\n            /* \"#utility.yul\":1191:1195   */\n          0x00\n            /* \"#utility.yul\":1229:1231   */\n          0x20\n            /* \"#utility.yul\":1218:1227   */\n          dup3\n            /* \"#utility.yul\":1214:1232   */\n          add\n            /* \"#utility.yul\":1206:1232   */\n          swap1\n          pop\n            /* \"#utility.yul\":1278:1287   */\n          dup2\n            /* \"#utility.yul\":1272:1276   */\n          dup2\n            /* \"#utility.yul\":1268:1288   */\n          sub\n            /* \"#utility.yul\":1264:1265   */\n          0x00\n            /* \"#utility.yul\":1253:1262   */\n          dup4\n            /* \"#utility.yul\":1249:1266   */\n          add\n            /* \"#utility.yul\":1242:1289   */\n          mstore\n            /* \"#utility.yul\":1306:1384   */\n          tag_166\n            /* \"#utility.yul\":1379:1383   */\n          dup2\n            /* \"#utility.yul\":1370:1376   */\n          dup5\n            /* \"#utility.yul\":1306:1384   */\n          tag_132\n          jump\t// in\n        tag_166:\n            /* \"#utility.yul\":1298:1384   */\n          swap1\n          pop\n            /* \"#utility.yul\":1078:1391   */\n          swap3\n          swap2\n          pop\n          pop\n          jump\t// out\n            /* \"#utility.yul\":1478:1595   */\n        tag_134:\n            /* \"#utility.yul\":1587:1588   */\n          0x00\n            /* \"#utility.yul\":1584:1585   */\n          dup1\n            /* \"#utility.yul\":1577:1589   */\n          revert\n            /* \"#utility.yul\":1724:1850   */\n        tag_136:\n            /* \"#utility.yul\":1761:1768   */\n          0x00\n            /* \"#utility.yul\":1801:1843   */\n          0xffffffffffffffffffffffffffffffffffffffff\n            /* \"#utility.yul\":1794:1799   */\n          dup3\n            /* \"#utility.yul\":1790:1844   */\n          and\n            /* \"#utility.yul\":1779:1844   */\n          swap1\n          pop\n            /* \"#utility.yul\":1724:1850   */\n          swap2\n          swap1\n          pop\n          jump\t// out\n            /* \"#utility.yul\":1856:1952   */\n        tag_137:\n            /* \"#utility.yul\":1893:1900   */\n          0x00\n            /* \"#utility.yul\":1922:1946   */\n          tag_172\n            /* \"#utility.yul\":1940:1945   */\n          dup3\n            /* \"#utility.yul\":1922:1946   */\n          tag_136\n          jump\t// in\n        tag_172:\n            /* \"#utility.yul\":1911:1946   */\n          swap1\n          pop\n            /* \"#utility.yul\":1856:1952   */\n          swap2\n          swap1\n          pop\n          jump\t// out\n            /* \"#utility.yul\":1958:2080   */\n        tag_138:\n            /* \"#utility.yul\":2031:2055   */\n          tag_174\n            /* \"#utility.yul\":2049:2054   */\n          dup2\n            /* \"#utility.yul\":2031:2055   */\n          tag_137\n          jump\t// in\n        tag_174:\n            /* \"#utility.yul\":2024:2029   */\n          dup2\n            /* \"#utility.yul\":2021:2056   */\n          eq\n            /* \"#utility.yul\":2011:2074   */\n          tag_175\n          jumpi\n            /* \"#utility.yul\":2070:2071   */\n          0x00\n            /* \"#utility.yul\":2067:2068   */\n          dup1\n            /* \"#utility.yul\":2060:2072   */\n          revert\n            /* \"#utility.yul\":2011:2074   */\n        tag_175:\n            /* \"#utility.yul\":1958:2080   */\n          pop\n          jump\t// out\n            /* \"#utility.yul\":2086:2225   */\n        tag_139:\n            /* \"#utility.yul\":2132:2137   */\n          0x00\n            /* \"#utility.yul\":2170:2176   */\n          dup2\n            /* \"#utility.yul\":2157:2177   */\n          calldataload\n            /* \"#utility.yul\":2148:2177   */\n          swap1\n          pop\n            /* \"#utility.yul\":2186:2219   */\n          tag_177\n            /* \"#utility.yul\":2213:2218   */\n          dup2\n            /* \"#utility.yul\":2186:2219   */\n          tag_138\n          jump\t// in\n        tag_177:\n            /* \"#utility.yul\":2086:2225   */\n          swap3\n          swap2\n          pop\n          pop\n          jump\t// out\n            /* \"#utility.yul\":2231:2308   */\n        tag_140:\n            /* \"#utility.yul\":2268:2275   */\n          0x00\n            /* \"#utility.yul\":2297:2302   */\n          dup2\n            /* \"#utility.yul\":2286:2302   */\n          swap1\n          pop\n            /* \"#utility.yul\":2231:2308   */\n          swap2\n          swap1\n          pop\n          jump\t// out\n            /* \"#utility.yul\":2314:2436   */\n        tag_141:\n            /* \"#utility.yul\":2387:2411   */\n          tag_180\n            /* \"#utility.yul\":2405:2410   */\n          dup2\n            /* \"#utility.yul\":2387:2411   */\n          tag_140\n          jump\t// in\n        tag_180:\n            /* \"#utility.yul\":2380:2385   */\n          dup2\n            /* \"#utility.yul\":2377:2412   */\n          eq\n            /* \"#utility.yul\":2367:2430   */\n          tag_181\n          jumpi\n            /* \"#utility.yul\":2426:2427   */\n          0x00\n            /* \"#utility.yul\":2423:2424   */\n          dup1\n            /* \"#utility.yul\":2416:2428   */\n          revert\n            /* \"#utility.yul\":2367:2430   */\n        tag_181:\n            /* \"#utility.yul\":2314:2436   */\n          pop\n          jump\t// out\n            /* \"#utility.yul\":2442:2581   */\n        tag_142:\n            /* \"#utility.yul\":2488:2493   */\n          0x00\n            /* \"#utility.yul\":2526:2532   */\n          dup2\n            /* \"#utility.yul\":2513:2533   */\n          calldataload\n            /* \"#utility.yul\":2504:2533   */\n          swap1\n          pop\n            /* \"#utility.yul\":2542:2575   */\n          tag_183\n            /* \"#utility.yul\":2569:2574   */\n          dup2\n            /* \"#utility.yul\":2542:2575   */\n          tag_141\n          jump\t// in\n        tag_183:\n            /* \"#utility.yul\":2442:2581   */\n          swap3\n          swap2\n          pop\n          pop\n          jump\t// out\n            /* \"#utility.yul\":2587:3061   */\n        tag_26:\n            /* \"#utility.yul\":2655:2661   */\n          0x00\n            /* \"#utility.yul\":2663:2669   */\n          dup1\n            /* \"#utility.yul\":2712:2714   */\n          0x40\n            /* \"#utility.yul\":2700:2709   */\n          dup4\n            /* \"#utility.yul\":2691:2698   */\n          dup6\n            /* \"#utility.yul\":2687:2710   */\n          sub\n            /* \"#utility.yul\":2683:2715   */\n          slt\n            /* \"#utility.yul\":2680:2799   */\n          iszero\n          tag_185\n          jumpi\n            /* \"#utility.yul\":2718:2797   */\n          tag_186\n          tag_134\n          jump\t// in\n        tag_186:\n            /* \"#utility.yul\":2680:2799   */\n        tag_185:\n            /* \"#utility.yul\":2838:2839   */\n          0x00\n            /* \"#utility.yul\":2863:2916   */\n          tag_187\n            /* \"#utility.yul\":2908:2915   */\n          dup6\n            /* \"#utility.yul\":2899:2905   */\n          dup3\n            /* \"#utility.yul\":2888:2897   */\n          dup7\n            /* \"#utility.yul\":2884:2906   */\n          add\n            /* \"#utility.yul\":2863:2916   */\n          tag_139\n          jump\t// in\n        tag_187:\n            /* \"#utility.yul\":2853:2916   */\n          swap3\n          pop\n            /* \"#utility.yul\":2809:2926   */\n          pop\n            /* \"#utility.yul\":2965:2967   */\n          0x20\n            /* \"#utility.yul\":2991:3044   */\n          tag_188\n            /* \"#utility.yul\":3036:3043   */\n          dup6\n            /* \"#utility.yul\":3027:3033   */\n          dup3\n            /* \"#utility.yul\":3016:3025   */\n          dup7\n            /* \"#utility.yul\":3012:3034   */\n          add\n            /* \"#utility.yul\":2991:3044   */\n          tag_142\n          jump\t// in\n        tag_188:\n            /* \"#utility.yul\":2981:3044   */\n          swap2\n          pop\n            /* \"#utility.yul\":2936:3054   */\n          pop\n            /* \"#utility.yul\":2587:3061   */\n          swap3\n          pop\n          swap3\n          swap1\n          pop\n          jump\t// out\n            /* \"#utility.yul\":3067:3157   */\n        tag_143:\n            /* \"#utility.yul\":3101:3108   */\n          0x00\n            /* \"#utility.yul\":3144:3149   */\n          dup2\n            /* \"#utility.yul\":3137:3150   */\n          iszero\n            /* \"#utility.yul\":3130:3151   */\n          iszero\n            /* \"#utility.yul\":3119:3151   */\n          swap1\n          pop\n            /* \"#utility.yul\":3067:3157   */\n          swap2\n          swap1\n          pop\n          jump\t// out\n            /* \"#utility.yul\":3163:3272   */\n        tag_144:\n            /* \"#utility.yul\":3244:3265   */\n          tag_191\n            /* \"#utility.yul\":3259:3264   */\n          dup2\n            /* \"#utility.yul\":3244:3265   */\n          tag_143\n          jump\t// in\n        tag_191:\n            /* \"#utility.yul\":3239:3242   */\n          dup3\n            /* \"#utility.yul\":3232:3266   */\n          mstore\n            /* \"#utility.yul\":3163:3272   */\n          pop\n          pop\n          jump\t// out\n            /* \"#utility.yul\":3278:3488   */\n        tag_29:\n            /* \"#utility.yul\":3365:3369   */\n          0x00\n            /* \"#utility.yul\":3403:3405   */\n          0x20\n            /* \"#utility.yul\":3392:3401   */\n          dup3\n            /* \"#utility.yul\":3388:3406   */\n          add\n            /* \"#utility.yul\":3380:3406   */\n          swap1\n          pop\n            /* \"#utility.yul\":3416:3481   */\n          tag_193\n            /* \"#utility.yul\":3478:3479   */\n          0x00\n            /* \"#utility.yul\":3467:3476   */\n          dup4\n            /* \"#utility.yul\":3463:3480   */\n          add\n            /* \"#utility.yul\":3454:3460   */\n          dup5\n            /* \"#utility.yul\":3416:3481   */\n          tag_144\n          jump\t// in\n        tag_193:\n            /* \"#utility.yul\":3278:3488   */\n          swap3\n          swap2\n          pop\n          pop\n          jump\t// out\n            /* \"#utility.yul\":3494:3612   */\n        tag_145:\n            /* \"#utility.yul\":3581:3605   */\n          tag_195\n            /* \"#utility.yul\":3599:3604   */\n          dup2\n            /* \"#utility.yul\":3581:3605   */\n          tag_140\n          jump\t// in\n        tag_195:\n            /* \"#utility.yul\":3576:3579   */\n          dup3\n            /* \"#utility.yul\":3569:3606   */\n          mstore\n            /* \"#utility.yul\":3494:3612   */\n          pop\n          pop\n          jump\t// out\n            /* \"#utility.yul\":3618:3840   */\n        tag_33:\n            /* \"#utility.yul\":3711:3715   */\n          0x00\n            /* \"#utility.yul\":3749:3751   */\n          0x20\n            /* \"#utility.yul\":3738:3747   */\n          dup3\n            /* \"#utility.yul\":3734:3752   */\n          add\n            /* \"#utility.yul\":3726:3752   */\n          swap1\n          pop\n            /* \"#utility.yul\":3762:3833   */\n          tag_197\n            /* \"#utility.yul\":3830:3831   */\n          0x00\n            /* \"#utility.yul\":3819:3828   */\n          dup4\n            /* \"#utility.yul\":3815:3832   */\n          add\n            /* \"#utility.yul\":3806:3812   */\n          dup5\n            /* \"#utility.yul\":3762:3833   */\n          tag_145\n          jump\t// in\n        tag_197:\n            /* \"#utility.yul\":3618:3840   */\n          swap3\n          swap2\n          pop\n          pop\n          jump\t// out\n            /* \"#utility.yul\":3846:4465   */\n        tag_36:\n            /* \"#utility.yul\":3923:3929   */\n          0x00\n            /* \"#utility.yul\":3931:3937   */\n          dup1\n            /* \"#utility.yul\":3939:3945   */\n          0x00\n            /* \"#utility.yul\":3988:3990   */\n          0x60\n            /* \"#utility.yul\":3976:3985   */\n          dup5\n            /* \"#utility.yul\":3967:3974   */\n          dup7\n            /* \"#utility.yul\":3963:3986   */\n          sub\n            /* \"#utility.yul\":3959:3991   */\n          slt\n            /* \"#utility.yul\":3956:4075   */\n          iszero\n          tag_199\n          jumpi\n            /* \"#utility.yul\":3994:4073   */\n          tag_200\n          tag_134\n          jump\t// in\n        tag_200:\n            /* \"#utility.yul\":3956:4075   */\n        tag_199:\n            /* \"#utility.yul\":4114:4115   */\n          0x00\n            /* \"#utility.yul\":4139:4192   */\n          tag_201\n            /* \"#utility.yul\":4184:4191   */\n          dup7\n            /* \"#utility.yul\":4175:4181   */\n          dup3\n            /* \"#utility.yul\":4164:4173   */\n          dup8\n            /* \"#utility.yul\":4160:4182   */\n          add\n            /* \"#utility.yul\":4139:4192   */\n          tag_139\n          jump\t// in\n        tag_201:\n            /* \"#utility.yul\":4129:4192   */\n          swap4\n          pop\n            /* \"#utility.yul\":4085:4202   */\n          pop\n            /* \"#utility.yul\":4241:4243   */\n          0x20\n            /* \"#utility.yul\":4267:4320   */\n          tag_202\n            /* \"#utility.yul\":4312:4319   */\n          dup7\n            /* \"#utility.yul\":4303:4309   */\n          dup3\n            /* \"#utility.yul\":4292:4301   */\n          dup8\n            /* \"#utility.yul\":4288:4310   */\n          add\n            /* \"#utility.yul\":4267:4320   */\n          tag_139\n          jump\t// in\n        tag_202:\n            /* \"#utility.yul\":4257:4320   */\n          swap3\n          pop\n            /* \"#utility.yul\":4212:4330   */\n          pop\n            /* \"#utility.yul\":4369:4371   */\n          0x40\n            /* \"#utility.yul\":4395:4448   */\n          tag_203\n            /* \"#utility.yul\":4440:4447   */\n          dup7\n            /* \"#utility.yul\":4431:4437   */\n          dup3\n            /* \"#utility.yul\":4420:4429   */\n          dup8\n            /* \"#utility.yul\":4416:4438   */\n          add\n            /* \"#utility.yul\":4395:4448   */\n          tag_142\n          jump\t// in\n        tag_203:\n            /* \"#utility.yul\":4385:4448   */\n          swap2\n          pop\n            /* \"#utility.yul\":4340:4458   */\n          pop\n            /* \"#utility.yul\":3846:4465   */\n          swap3\n          pop\n          swap3\n          pop\n          swap3\n          jump\t// out\n            /* \"#utility.yul\":4471:4557   */\n        tag_146:\n            /* \"#utility.yul\":4506:4513   */\n          0x00\n            /* \"#utility.yul\":4546:4550   */\n          0xff\n            /* \"#utility.yul\":4539:4544   */\n          dup3\n            /* \"#utility.yul\":4535:4551   */\n          and\n            /* \"#utility.yul\":4524:4551   */\n          swap1\n          pop\n            /* \"#utility.yul\":4471:4557   */\n          swap2\n          swap1\n          pop\n          jump\t// out\n            /* \"#utility.yul\":4563:4675   */\n        tag_147:\n            /* \"#utility.yul\":4646:4668   */\n          tag_206\n            /* \"#utility.yul\":4662:4667   */\n          dup2\n            /* \"#utility.yul\":4646:4668   */\n          tag_146\n          jump\t// in\n        tag_206:\n            /* \"#utility.yul\":4641:4644   */\n          dup3\n            /* \"#utility.yul\":4634:4669   */\n          mstore\n            /* \"#utility.yul\":4563:4675   */\n          pop\n          pop\n          jump\t// out\n            /* \"#utility.yul\":4681:4895   */\n        tag_42:\n            /* \"#utility.yul\":4770:4774   */\n          0x00\n            /* \"#utility.yul\":4808:4810   */\n          0x20\n            /* \"#utility.yul\":4797:4806   */\n          dup3\n            /* \"#utility.yul\":4793:4811   */\n          add\n            /* \"#utility.yul\":4785:4811   */\n          swap1\n          pop\n            /* \"#utility.yul\":4821:4888   */\n          tag_208\n            /* \"#utility.yul\":4885:4886   */\n          0x00\n            /* \"#utility.yul\":4874:4883   */\n          dup4\n            /* \"#utility.yul\":4870:4887   */\n          add\n            /* \"#utility.yul\":4861:4867   */\n          dup5\n            /* \"#utility.yul\":4821:4888   */\n          tag_147\n          jump\t// in\n        tag_208:\n            /* \"#utility.yul\":4681:4895   */\n          swap3\n          swap2\n          pop\n          pop\n          jump\t// out\n            /* \"#utility.yul\":4901:5230   */\n        tag_48:\n            /* \"#utility.yul\":4960:4966   */\n          0x00\n            /* \"#utility.yul\":5009:5011   */\n          0x20\n            /* \"#utility.yul\":4997:5006   */\n          dup3\n            /* \"#utility.yul\":4988:4995   */\n          dup5\n            /* \"#utility.yul\":4984:5007   */\n          sub\n            /* \"#utility.yul\":4980:5012   */\n          slt\n            /* \"#utility.yul\":4977:5096   */\n          iszero\n          tag_210\n          jumpi\n            /* \"#utility.yul\":5015:5094   */\n          tag_211\n          tag_134\n          jump\t// in\n        tag_211:\n            /* \"#utility.yul\":4977:5096   */\n        tag_210:\n            /* \"#utility.yul\":5135:5136   */\n          0x00\n            /* \"#utility.yul\":5160:5213   */\n          tag_212\n            /* \"#utility.yul\":5205:5212   */\n          dup5\n            /* \"#utility.yul\":5196:5202   */\n          dup3\n            /* \"#utility.yul\":5185:5194   */\n          dup6\n            /* \"#utility.yul\":5181:5203   */\n          add\n            /* \"#utility.yul\":5160:5213   */\n          tag_139\n          jump\t// in\n        tag_212:\n            /* \"#utility.yul\":5150:5213   */\n          swap2\n          pop\n            /* \"#utility.yul\":5106:5223   */\n          pop\n            /* \"#utility.yul\":4901:5230   */\n          swap3\n          swap2\n          pop\n          pop\n          jump\t// out\n            /* \"#utility.yul\":5236:5710   */\n        tag_56:\n            /* \"#utility.yul\":5304:5310   */\n          0x00\n            /* \"#utility.yul\":5312:5318   */\n          dup1\n            /* \"#utility.yul\":5361:5363   */\n          0x40\n            /* \"#utility.yul\":5349:5358   */\n          dup4\n            /* \"#utility.yul\":5340:5347   */\n          dup6\n            /* \"#utility.yul\":5336:5359   */\n          sub\n            /* \"#utility.yul\":5332:5364   */\n          slt\n            /* \"#utility.yul\":5329:5448   */\n          iszero\n          tag_214\n          jumpi\n            /* \"#utility.yul\":5367:5446   */\n          tag_215\n          tag_134\n          jump\t// in\n        tag_215:\n            /* \"#utility.yul\":5329:5448   */\n        tag_214:\n            /* \"#utility.yul\":5487:5488   */\n          0x00\n            /* \"#utility.yul\":5512:5565   */\n          tag_216\n            /* \"#utility.yul\":5557:5564   */\n          dup6\n            /* \"#utility.yul\":5548:5554   */\n          dup3\n            /* \"#utility.yul\":5537:5546   */\n          dup7\n            /* \"#utility.yul\":5533:5555   */\n          add\n            /* \"#utility.yul\":5512:5565   */\n          tag_142\n          jump\t// in\n        tag_216:\n            /* \"#utility.yul\":5502:5565   */\n          swap3\n          pop\n            /* \"#utility.yul\":5458:5575   */\n          pop\n            /* \"#utility.yul\":5614:5616   */\n          0x20\n            /* \"#utility.yul\":5640:5693   */\n          tag_217\n            /* \"#utility.yul\":5685:5692   */\n          dup6\n            /* \"#utility.yul\":5676:5682   */\n          dup3\n            /* \"#utility.yul\":5665:5674   */\n          dup7\n            /* \"#utility.yul\":5661:5683   */\n          add\n            /* \"#utility.yul\":5640:5693   */\n          tag_142\n          jump\t// in\n        tag_217:\n            /* \"#utility.yul\":5630:5693   */\n          swap2\n          pop\n            /* \"#utility.yul\":5585:5703   */\n          pop\n            /* \"#utility.yul\":5236:5710   */\n          swap3\n          pop\n          swap3\n          swap1\n          pop\n          jump\t// out\n            /* \"#utility.yul\":5716:6190   */\n        tag_73:\n            /* \"#utility.yul\":5784:5790   */\n          0x00\n            /* \"#utility.yul\":5792:5798   */\n          dup1\n            /* \"#utility.yul\":5841:5843   */\n          0x40\n            /* \"#utility.yul\":5829:5838   */\n          dup4\n            /* \"#utility.yul\":5820:5827   */\n          dup6\n            /* \"#utility.yul\":5816:5839   */\n          sub\n            /* \"#utility.yul\":5812:5844   */\n          slt\n            /* \"#utility.yul\":5809:5928   */\n          iszero\n          tag_219\n          jumpi\n            /* \"#utility.yul\":5847:5926   */\n          tag_220\n          tag_134\n          jump\t// in\n        tag_220:\n            /* \"#utility.yul\":5809:5928   */\n        tag_219:\n            /* \"#utility.yul\":5967:5968   */\n          0x00\n            /* \"#utility.yul\":5992:6045   */\n          tag_221\n            /* \"#utility.yul\":6037:6044   */\n          dup6\n            /* \"#utility.yul\":6028:6034   */\n          dup3\n            /* \"#utility.yul\":6017:6026   */\n          dup7\n            /* \"#utility.yul\":6013:6035   */\n          add\n            /* \"#utility.yul\":5992:6045   */\n          tag_139\n          jump\t// in\n        tag_221:\n            /* \"#utility.yul\":5982:6045   */\n          swap3\n          pop\n            /* \"#utility.yul\":5938:6055   */\n          pop\n            /* \"#utility.yul\":6094:6096   */\n          0x20\n            /* \"#utility.yul\":6120:6173   */\n          tag_222\n            /* \"#utility.yul\":6165:6172   */\n          dup6\n            /* \"#utility.yul\":6156:6162   */\n          dup3\n            /* \"#utility.yul\":6145:6154   */\n          dup7\n            /* \"#utility.yul\":6141:6163   */\n          add\n            /* \"#utility.yul\":6120:6173   */\n          tag_139\n          jump\t// in\n        tag_222:\n            /* \"#utility.yul\":6110:6173   */\n          swap2\n          pop\n            /* \"#utility.yul\":6065:6183   */\n          pop\n            /* \"#utility.yul\":5716:6190   */\n          swap3\n          pop\n          swap3\n          swap1\n          pop\n          jump\t// out\n            /* \"#utility.yul\":6196:6376   */\n        tag_148:\n            /* \"#utility.yul\":6244:6321   */\n          0x4e487b7100000000000000000000000000000000000000000000000000000000\n            /* \"#utility.yul\":6241:6242   */\n          0x00\n            /* \"#utility.yul\":6234:6322   */\n          mstore\n            /* \"#utility.yul\":6341:6345   */\n          0x22\n            /* \"#utility.yul\":6338:6339   */\n          0x04\n            /* \"#utility.yul\":6331:6346   */\n          mstore\n            /* \"#utility.yul\":6365:6369   */\n          0x24\n            /* \"#utility.yul\":6362:6363   */\n          0x00\n            /* \"#utility.yul\":6355:6370   */\n          revert\n            /* \"#utility.yul\":6382:6702   */\n        tag_81:\n            /* \"#utility.yul\":6426:6432   */\n          0x00\n            /* \"#utility.yul\":6463:6464   */\n          0x02\n            /* \"#utility.yul\":6457:6461   */\n          dup3\n            /* \"#utility.yul\":6453:6465   */\n          div\n            /* \"#utility.yul\":6443:6465   */\n          swap1\n          pop\n            /* \"#utility.yul\":6510:6511   */\n          0x01\n            /* \"#utility.yul\":6504:6508   */\n          dup3\n            /* \"#utility.yul\":6500:6512   */\n          and\n            /* \"#utility.yul\":6531:6549   */\n          dup1\n            /* \"#utility.yul\":6521:6602   */\n          tag_225\n          jumpi\n            /* \"#utility.yul\":6587:6591   */\n          0x7f\n            /* \"#utility.yul\":6579:6585   */\n          dup3\n            /* \"#utility.yul\":6575:6592   */\n          and\n            /* \"#utility.yul\":6565:6592   */\n          swap2\n          pop\n            /* \"#utility.yul\":6521:6602   */\n        tag_225:\n            /* \"#utility.yul\":6649:6651   */\n          0x20\n            /* \"#utility.yul\":6641:6647   */\n          dup3\n            /* \"#utility.yul\":6638:6652   */\n          lt\n            /* \"#utility.yul\":6618:6636   */\n          dup2\n            /* \"#utility.yul\":6615:6653   */\n          sub\n            /* \"#utility.yul\":6612:6696   */\n          tag_226\n          jumpi\n            /* \"#utility.yul\":6668:6686   */\n          tag_227\n          tag_148\n          jump\t// in\n        tag_227:\n            /* \"#utility.yul\":6612:6696   */\n        tag_226:\n            /* \"#utility.yul\":6433:6702   */\n          pop\n            /* \"#utility.yul\":6382:6702   */\n          swap2\n          swap1\n          pop\n          jump\t// out\n            /* \"#utility.yul\":6708:6888   */\n        tag_149:\n            /* \"#utility.yul\":6756:6833   */\n          0x4e487b7100000000000000000000000000000000000000000000000000000000\n            /* \"#utility.yul\":6753:6754   */\n          0x00\n            /* \"#utility.yul\":6746:6834   */\n          mstore\n            /* \"#utility.yul\":6853:6857   */\n          0x11\n            /* \"#utility.yul\":6850:6851   */\n          0x04\n            /* \"#utility.yul\":6843:6858   */\n          mstore\n            /* \"#utility.yul\":6877:6881   */\n          0x24\n            /* \"#utility.yul\":6874:6875   */\n          0x00\n            /* \"#utility.yul\":6867:6882   */\n          revert\n            /* \"#utility.yul\":6894:7085   */\n        tag_90:\n            /* \"#utility.yul\":6934:6938   */\n          0x00\n            /* \"#utility.yul\":6954:6974   */\n          tag_230\n            /* \"#utility.yul\":6972:6973   */\n          dup3\n            /* \"#utility.yul\":6954:6974   */\n          tag_140\n          jump\t// in\n        tag_230:\n            /* \"#utility.yul\":6949:6974   */\n          swap2\n          pop\n            /* \"#utility.yul\":6988:7008   */\n          tag_231\n            /* \"#utility.yul\":7006:7007   */\n          dup4\n            /* \"#utility.yul\":6988:7008   */\n          tag_140\n          jump\t// in\n        tag_231:\n            /* \"#utility.yul\":6983:7008   */\n          swap3\n          pop\n            /* \"#utility.yul\":7027:7028   */\n          dup3\n            /* \"#utility.yul\":7024:7025   */\n          dup3\n            /* \"#utility.yul\":7021:7029   */\n          lt\n            /* \"#utility.yul\":7018:7052   */\n          iszero\n          tag_232\n          jumpi\n            /* \"#utility.yul\":7032:7050   */\n          tag_233\n          tag_149\n          jump\t// in\n        tag_233:\n            /* \"#utility.yul\":7018:7052   */\n        tag_232:\n            /* \"#utility.yul\":7077:7078   */\n          dup3\n            /* \"#utility.yul\":7074:7075   */\n          dup3\n            /* \"#utility.yul\":7070:7079   */\n          sub\n            /* \"#utility.yul\":7062:7079   */\n          swap1\n          pop\n            /* \"#utility.yul\":6894:7085   */\n          swap3\n          swap2\n          pop\n          pop\n          jump\t// out\n            /* \"#utility.yul\":7091:7396   */\n        tag_98:\n            /* \"#utility.yul\":7131:7134   */\n          0x00\n            /* \"#utility.yul\":7150:7170   */\n          tag_235\n            /* \"#utility.yul\":7168:7169   */\n          dup3\n            /* \"#utility.yul\":7150:7170   */\n          tag_140\n          jump\t// in\n        tag_235:\n            /* \"#utility.yul\":7145:7170   */\n          swap2\n          pop\n            /* \"#utility.yul\":7184:7204   */\n          tag_236\n            /* \"#utility.yul\":7202:7203   */\n          dup4\n            /* \"#utility.yul\":7184:7204   */\n          tag_140\n          jump\t// in\n        tag_236:\n            /* \"#utility.yul\":7179:7204   */\n          swap3\n          pop\n            /* \"#utility.yul\":7338:7339   */\n          dup3\n            /* \"#utility.yul\":7270:7336   */\n          0xffffffffffffffffffffffffffffffffffffffffffffffffffffffffffffffff\n            /* \"#utility.yul\":7266:7340   */\n          sub\n            /* \"#utility.yul\":7263:7264   */\n          dup3\n            /* \"#utility.yul\":7260:7341   */\n          gt\n            /* \"#utility.yul\":7257:7364   */\n          iszero\n          tag_237\n          jumpi\n            /* \"#utility.yul\":7344:7362   */\n          tag_238\n          tag_149\n          jump\t// in\n        tag_238:\n            /* \"#utility.yul\":7257:7364   */\n        tag_237:\n            /* \"#utility.yul\":7388:7389   */\n          dup3\n            /* \"#utility.yul\":7385:7386   */\n          dup3\n            /* \"#utility.yul\":7381:7390   */\n          add\n            /* \"#utility.yul\":7374:7390   */\n          swap1\n          pop\n            /* \"#utility.yul\":7091:7396   */\n          swap3\n          swap2\n          pop\n          pop\n          jump\t// out\n            /* \"#utility.yul\":7402:7582   */\n        tag_150:\n            /* \"#utility.yul\":7450:7527   */\n          0x4e487b7100000000000000000000000000000000000000000000000000000000\n            /* \"#utility.yul\":7447:7448   */\n          0x00\n            /* \"#utility.yul\":7440:7528   */\n          mstore\n            /* \"#utility.yul\":7547:7551   */\n          0x12\n            /* \"#utility.yul\":7544:7545   */\n          0x04\n            /* \"#utility.yul\":7537:7552   */\n          mstore\n            /* \"#utility.yul\":7571:7575   */\n          0x24\n            /* \"#utility.yul\":7568:7569   */\n          0x00\n            /* \"#utility.yul\":7561:7576   */\n          revert\n            /* \"#utility.yul\":7588:7773   */\n        tag_117:\n            /* \"#utility.yul\":7628:7629   */\n          0x00\n            /* \"#utility.yul\":7645:7665   */\n          tag_241\n            /* \"#utility.yul\":7663:7664   */\n          dup3\n            /* \"#utility.yul\":7645:7665   */\n          tag_140\n          jump\t// in\n        tag_241:\n            /* \"#utility.yul\":7640:7665   */\n          swap2\n          pop\n            /* \"#utility.yul\":7679:7699   */\n          tag_242\n            /* \"#utility.yul\":7697:7698   */\n          dup4\n            /* \"#utility.yul\":7679:7699   */\n          tag_140\n          jump\t// in\n        tag_242:\n            /* \"#utility.yul\":7674:7699   */\n          swap3\n          pop\n            /* \"#utility.yul\":7718:7719   */\n          dup3\n            /* \"#utility.yul\":7708:7743   */\n          tag_243\n          jumpi\n            /* \"#utility.yul\":7723:7741   */\n          tag_244\n          tag_150\n          jump\t// in\n        tag_244:\n            /* \"#utility.yul\":7708:7743   */\n        tag_243:\n            /* \"#utility.yul\":7765:7766   */\n          dup3\n            /* \"#utility.yul\":7762:7763   */\n          dup3\n            /* \"#utility.yul\":7758:7767   */\n          div\n            /* \"#utility.yul\":7753:7767   */\n          swap1\n          pop\n            /* \"#utility.yul\":7588:7773   */\n          swap3\n          swap2\n          pop\n          pop\n          jump\t// out\n            /* \"#utility.yul\":7779:8127   */\n        tag_120:\n            /* \"#utility.yul\":7819:7826   */\n          0x00\n            /* \"#utility.yul\":7842:7862   */\n          tag_246\n            /* \"#utility.yul\":7860:7861   */\n          dup3\n            /* \"#utility.yul\":7842:7862   */\n          tag_140\n          jump\t// in\n        tag_246:\n            /* \"#utility.yul\":7837:7862   */\n          swap2\n          pop\n            /* \"#utility.yul\":7876:7896   */\n          tag_247\n            /* \"#utility.yul\":7894:7895   */\n          dup4\n            /* \"#utility.yul\":7876:7896   */\n          tag_140\n          jump\t// in\n        tag_247:\n            /* \"#utility.yul\":7871:7896   */\n          swap3\n          pop\n            /* \"#utility.yul\":8064:8065   */\n          dup2\n            /* \"#utility.yul\":7996:8062   */\n          0xffffffffffffffffffffffffffffffffffffffffffffffffffffffffffffffff\n            /* \"#utility.yul\":7992:8066   */\n          div\n            /* \"#utility.yul\":7989:7990   */\n          dup4\n            /* \"#utility.yul\":7986:8067   */\n          gt\n            /* \"#utility.yul\":7981:7982   */\n          dup3\n            /* \"#utility.yul\":7974:7983   */\n          iszero\n            /* \"#utility.yul\":7967:7984   */\n          iszero\n            /* \"#utility.yul\":7963:8068   */\n          and\n            /* \"#utility.yul\":7960:8091   */\n          iszero\n          tag_248\n          jumpi\n            /* \"#utility.yul\":8071:8089   */\n          tag_249\n          tag_149\n          jump\t// in\n        tag_249:\n            /* \"#utility.yul\":7960:8091   */\n        tag_248:\n            /* \"#utility.yul\":8119:8120   */\n          dup3\n            /* \"#utility.yul\":8116:8117   */\n          dup3\n            /* \"#utility.yul\":8112:8121   */\n          mul\n            /* \"#utility.yul\":8101:8121   */\n          swap1\n          pop\n            /* \"#utility.yul\":7779:8127   */\n          swap3\n          swap2\n          pop\n          pop\n          jump\t// out\n\n        auxdata: 0xa2646970667358221220dcf758d0502bc5fffc6693979998f5c444c5213f7bf2aa65d658fa373b2be32f64736f6c634300080d0033\n    }\n}\n","bytecode":{"linkReferences":{},"object":"60806040523480156200001157600080fd5b5033600360006101000a81548173ffffffffffffffffffffffffffffffffffffffff021916908373ffffffffffffffffffffffffffffffffffffffff1602179055506040516200006190620000d4565b604051809103906000f0801580156200007e573d6000803e3d6000fd5b50600760006101000a81548173ffffffffffffffffffffffffffffffffffffffff021916908373ffffffffffffffffffffffffffffffffffffffff160217905550600080819055506000600181905550620000e2565b6112f48062005c6983390190565b615b7780620000f26000396000f3fe608060405260043610620001165760003560e01c8063a293d1e811620000a3578063cac43eb4116200006d578063cac43eb414620003f1578063ce3081321462000435578063d05c78da1462000465578063d3838f5214620004a9578063e6cb901314620004d95762000116565b8063a293d1e81462000303578063b5931f7c1462000347578063b6ac6de5146200038b578063b905894714620003c15762000116565b806346c12c4711620000e557806346c12c4714620002075780635792c58414620002375780635a4dd47d146200027b5780639b96eece14620002bf5762000116565b80630aefd3a9146200011b5780630c8946dc146200015f5780631574021414620001a35780633610724e14620001d1575b600080fd5b3480156200012857600080fd5b5062000147600480360381019062000141919062001fd7565b6200051d565b60405162000156919062002050565b60405180910390f35b3480156200016c57600080fd5b506200018b60048036038101906200018591906200206d565b62000688565b6040516200019a9190620020b0565b60405180910390f35b348015620001b057600080fd5b50620001cf6004803603810190620001c99190620020cd565b62000736565b005b620001ef6004803603810190620001e991906200206d565b62000a79565b604051620001fe919062002050565b60405180910390f35b3480156200021457600080fd5b506200021f62000c56565b6040516200022e9190620021e2565b60405180910390f35b3480156200024457600080fd5b506200026360048036038101906200025d919062002368565b62000e1e565b60405162000272919062002050565b60405180910390f35b3480156200028857600080fd5b50620002a76004803603810190620002a191906200206d565b620010eb565b604051620002b69190620020b0565b60405180910390f35b348015620002cc57600080fd5b50620002eb6004803603810190620002e5919062002448565b62001199565b604051620002fa9190620020b0565b60405180910390f35b3480156200031057600080fd5b506200032f6004803603810190620003299190620020cd565b62001243565b6040516200033e9190620020b0565b60405180910390f35b3480156200035457600080fd5b506200037360048036038101906200036d9190620020cd565b62001269565b604051620003829190620020b0565b60405180910390f35b620003a96004803603810190620003a39190620020cd565b6200128e565b604051620003b8919062002050565b60405180910390f35b348015620003ce57600080fd5b50620003d962001c87565b604051620003e89190620020b0565b60405180910390f35b348015620003fe57600080fd5b506200041d60048036038101906200041791906200206d565b62001c90565b6040516200042c9190620020b0565b60405180910390f35b3480156200044257600080fd5b506200044d62001d3e565b6040516200045c9190620020b0565b60405180910390f35b3480156200047257600080fd5b506200049160048036038101906200048b9190620020cd565b62001d48565b604051620004a09190620020b0565b60405180910390f35b348015620004b657600080fd5b50620004c162001d86565b604051620004d09190620021e2565b60405180910390f35b348015620004e657600080fd5b50620005056004803603810190620004ff9190620020cd565b62001ee9565b604051620005149190620020b0565b60405180910390f35b60008284116200052c57600080fd5b600082116200053a57600080fd5b600084116200054857600080fd5b600083116200055657600080fd5b60016000808282546200056a9190620024a9565b925050819055506000848484600054604051620005879062001f6c565b62000596949392919062002506565b604051809103906000f080158015620005b3573d6000803e3d6000fd5b50905080600460008054815260200190815260200160002060006101000a81548173ffffffffffffffffffffffffffffffffffffffff021916908373ffffffffffffffffffffffffffffffffffffffff1602179055508073ffffffffffffffffffffffffffffffffffffffff1663e2fb9893336000546040518363ffffffff1660e01b81526004016200064892919062002564565b600060405180830381600087803b1580156200066357600080fd5b505af115801562000678573d6000803e3d6000fd5b5050505060019150509392505050565b60006004600083815260200190815260200160002060009054906101000a900473ffffffffffffffffffffffffffffffffffffffff1673ffffffffffffffffffffffffffffffffffffffff1663cf22b5776040518163ffffffff1660e01b8152600401602060405180830381865afa15801562000709573d6000803e3d6000fd5b505050506040513d601f19601f820116820180604052508101906200072f9190620025a8565b9050919050565b6000821415801562000749575060008114155b6200075357600080fd5b6004600083815260200190815260200160002060009054906101000a900473ffffffffffffffffffffffffffffffffffffffff1673ffffffffffffffffffffffffffffffffffffffff16636352211e836040518263ffffffff1660e01b8152600401620007c19190620020b0565b602060405180830381865afa158015620007df573d6000803e3d6000fd5b505050506040513d601f19601f82011682018060405250810190620008059190620025f1565b73ffffffffffffffffffffffffffffffffffffffff163373ffffffffffffffffffffffffffffffffffffffff16146200083d57600080fd5b816006600083815260200190815260200160002054146200085d57600080fd5b6004600083815260200190815260200160002060009054906101000a900473ffffffffffffffffffffffffffffffffffffffff1673ffffffffffffffffffffffffffffffffffffffff16631e7ec0f3826040518263ffffffff1660e01b8152600401620008cb9190620020b0565b600060405180830381600087803b158015620008e657600080fd5b505af1158015620008fb573d6000803e3d6000fd5b505050506005600082815260200190815260200160002060009054906101000a900473ffffffffffffffffffffffffffffffffffffffff1673ffffffffffffffffffffffffffffffffffffffff16634a627aeb60016040518263ffffffff1660e01b81526004016200096e919062002050565b600060405180830381600087803b1580156200098957600080fd5b505af11580156200099e573d6000803e3d6000fd5b505050506004600083815260200190815260200160002060009054906101000a900473ffffffffffffffffffffffffffffffffffffffff1673ffffffffffffffffffffffffffffffffffffffff16632b81ff9560016040518263ffffffff1660e01b815260040162000a11919062002050565b600060405180830381600087803b15801562000a2c57600080fd5b505af115801562000a41573d6000803e3d6000fd5b5050505060006006600083815260200190815260200160002081905550600160025462000a6f919062002623565b6002819055505050565b600062000a89826103e862001d48565b341162000a9557600080fd5b600062000ab2836012600a62000aac9190620027bf565b62001d48565b905080600760009054906101000a900473ffffffffffffffffffffffffffffffffffffffff1673ffffffffffffffffffffffffffffffffffffffff166370a08231306040518263ffffffff1660e01b815260040162000b12919062002810565b602060405180830381865afa15801562000b30573d6000803e3d6000fd5b505050506040513d601f19601f8201168201806040525081019062000b569190620025a8565b101562000b6257600080fd5b600760009054906101000a900473ffffffffffffffffffffffffffffffffffffffff1673ffffffffffffffffffffffffffffffffffffffff1663a9059cbb33836040518363ffffffff1660e01b815260040162000bc192919062002564565b6020604051808303816000875af115801562000be1573d6000803e3d6000fd5b505050506040513d601f19601f8201168201806040525081019062000c0791906200285e565b62000c1157600080fd5b7fae92ab4b6f8f401ead768d3273e6bb937a13e39827d19c6376e8fd4512a05d9a338260405162000c4492919062002564565b60405180910390a16001915050919050565b6060600060025467ffffffffffffffff81111562000c795762000c7862002221565b5b60405190808252806020026020018201604052801562000ca85781602001602082028036833780820191505090505b509050600080600190505b600254811162000e15576000600660008381526020019081526020016000205490506000811462000dfe5760006004600083815260200190815260200160002060009054906101000a900473ffffffffffffffffffffffffffffffffffffffff1673ffffffffffffffffffffffffffffffffffffffff16636352211e836040518263ffffffff1660e01b815260040162000d4e9190620020b0565b602060405180830381865afa15801562000d6c573d6000803e3d6000fd5b505050506040513d601f19601f8201168201806040525081019062000d929190620025f1565b90503373ffffffffffffffffffffffffffffffffffffffff168173ffffffffffffffffffffffffffffffffffffffff160362000dfc578285858151811062000ddf5762000dde62002890565b5b602002602001018181525050838062000df890620028bf565b9450505b505b50808062000e0c90620028bf565b91505062000cb3565b50819250505090565b600082841162000e2d57600080fd5b6000841162000e3b57600080fd5b6000831162000e4957600080fd5b62000e8a826040518060400160405280600b81526020017f506573746963696461204100000000000000000000000000000000000000000081525062001f0f565b8062000ed3575062000ed2826040518060400160405280600b81526020017f506573746963696461204200000000000000000000000000000000000000000081525062001f0f565b5b8062000f1c575062000f1b826040518060400160405280600b81526020017f506573746963696461204300000000000000000000000000000000000000000081525062001f0f565b5b8062000f65575062000f64826040518060400160405280600b81526020017f506573746963696461204400000000000000000000000000000000000000000081525062001f0f565b5b8062000fae575062000fad826040518060400160405280600b81526020017f506573746963696461204500000000000000000000000000000000000000000081525062001f0f565b5b62000fb857600080fd5b600180600082825462000fcc9190620024a9565b92505081905550600084846001548560405162000fe99062001f7a565b62000ff894939291906200299f565b604051809103906000f08015801562001015573d6000803e3d6000fd5b5090508060056000600154815260200190815260200160002060006101000a81548173ffffffffffffffffffffffffffffffffffffffff021916908373ffffffffffffffffffffffffffffffffffffffff1602179055508073ffffffffffffffffffffffffffffffffffffffff16637194c2e8336001546040518363ffffffff1660e01b8152600401620010ab92919062002564565b600060405180830381600087803b158015620010c657600080fd5b505af1158015620010db573d6000803e3d6000fd5b5050505060019150509392505050565b60006004600083815260200190815260200160002060009054906101000a900473ffffffffffffffffffffffffffffffffffffffff1673ffffffffffffffffffffffffffffffffffffffff1663bd3e19d46040518163ffffffff1660e01b8152600401602060405180830381865afa1580156200116c573d6000803e3d6000fd5b505050506040513d601f19601f82011682018060405250810190620011929190620025a8565b9050919050565b6000600760009054906101000a900473ffffffffffffffffffffffffffffffffffffffff1673ffffffffffffffffffffffffffffffffffffffff166370a08231836040518263ffffffff1660e01b8152600401620011f8919062002810565b602060405180830381865afa15801562001216573d6000803e3d6000fd5b505050506040513d601f19601f820116820180604052508101906200123c9190620025a8565b9050919050565b6000828211156200125357600080fd5b818362001261919062002623565b905092915050565b60008082116200127857600080fd5b818362001286919062002a22565b905092915050565b6000808314158015620012a2575060008214155b620012ac57600080fd5b60006004600085815260200190815260200160002060009054906101000a900473ffffffffffffffffffffffffffffffffffffffff1673ffffffffffffffffffffffffffffffffffffffff16636352211e856040518263ffffffff1660e01b81526004016200131c9190620020b0565b602060405180830381865afa1580156200133a573d6000803e3d6000fd5b505050506040513d601f19601f82011682018060405250810190620013609190620025f1565b905060006005600085815260200190815260200160002060009054906101000a900473ffffffffffffffffffffffffffffffffffffffff1673ffffffffffffffffffffffffffffffffffffffff16636352211e856040518263ffffffff1660e01b8152600401620013d29190620020b0565b602060405180830381865afa158015620013f0573d6000803e3d6000fd5b505050506040513d601f19601f82011682018060405250810190620014169190620025f1565b90508073ffffffffffffffffffffffffffffffffffffffff163373ffffffffffffffffffffffffffffffffffffffff16146200145157600080fd5b6005600085815260200190815260200160002060009054906101000a900473ffffffffffffffffffffffffffffffffffffffff1673ffffffffffffffffffffffffffffffffffffffff16637cf6b53b6040518163ffffffff1660e01b8152600401602060405180830381865afa158015620014d0573d6000803e3d6000fd5b505050506040513d601f19601f82011682018060405250810190620014f691906200285e565b156200150157600080fd5b6004600086815260200190815260200160002060009054906101000a900473ffffffffffffffffffffffffffffffffffffffff1673ffffffffffffffffffffffffffffffffffffffff1662fef8566040518163ffffffff1660e01b8152600401602060405180830381865afa1580156200157f573d6000803e3d6000fd5b505050506040513d601f19601f82011682018060405250810190620015a591906200285e565b620015af57600080fd5b6004600086815260200190815260200160002060009054906101000a900473ffffffffffffffffffffffffffffffffffffffff1673ffffffffffffffffffffffffffffffffffffffff1663cf22b5776040518163ffffffff1660e01b8152600401602060405180830381865afa1580156200162e573d6000803e3d6000fd5b505050506040513d601f19601f82011682018060405250810190620016549190620025a8565b6005600086815260200190815260200160002060009054906101000a900473ffffffffffffffffffffffffffffffffffffffff1673ffffffffffffffffffffffffffffffffffffffff1663cf22b5776040518163ffffffff1660e01b8152600401602060405180830381865afa158015620016d3573d6000803e3d6000fd5b505050506040513d601f19601f82011682018060405250810190620016f99190620025a8565b10156200170557600080fd5b6004600086815260200190815260200160002060009054906101000a900473ffffffffffffffffffffffffffffffffffffffff1673ffffffffffffffffffffffffffffffffffffffff166349befa856040518163ffffffff1660e01b8152600401602060405180830381865afa15801562001784573d6000803e3d6000fd5b505050506040513d601f19601f82011682018060405250810190620017aa9190620025a8565b6005600086815260200190815260200160002060009054906101000a900473ffffffffffffffffffffffffffffffffffffffff1673ffffffffffffffffffffffffffffffffffffffff166349befa856040518163ffffffff1660e01b8152600401602060405180830381865afa15801562001829573d6000803e3d6000fd5b505050506040513d601f19601f820116820180604052508101906200184f9190620025a8565b11156200185b57600080fd5b60006004600087815260200190815260200160002060009054906101000a900473ffffffffffffffffffffffffffffffffffffffff1673ffffffffffffffffffffffffffffffffffffffff1663bd3e19d46040518163ffffffff1660e01b8152600401602060405180830381865afa158015620018dc573d6000803e3d6000fd5b505050506040513d601f19601f82011682018060405250810190620019029190620025a8565b9050600062001921826012600a6200191b9190620027bf565b62001d48565b905080600760009054906101000a900473ffffffffffffffffffffffffffffffffffffffff1673ffffffffffffffffffffffffffffffffffffffff166370a08231336040518263ffffffff1660e01b815260040162001981919062002810565b602060405180830381865afa1580156200199f573d6000803e3d6000fd5b505050506040513d601f19601f82011682018060405250810190620019c59190620025a8565b1015620019d157600080fd5b600760009054906101000a900473ffffffffffffffffffffffffffffffffffffffff1673ffffffffffffffffffffffffffffffffffffffff1663095ea7b384836040518363ffffffff1660e01b815260040162001a3092919062002564565b6020604051808303816000875af115801562001a50573d6000803e3d6000fd5b505050506040513d601f19601f8201168201806040525081019062001a7691906200285e565b62001a8057600080fd5b600760009054906101000a900473ffffffffffffffffffffffffffffffffffffffff1673ffffffffffffffffffffffffffffffffffffffff166323b872dd8486846040518463ffffffff1660e01b815260040162001ae19392919062002a5a565b6020604051808303816000875af115801562001b01573d6000803e3d6000fd5b505050506040513d601f19601f8201168201806040525081019062001b2791906200285e565b62001b69576040517f08c379a000000000000000000000000000000000000000000000000000000000815260040162001b609062002ae7565b60405180910390fd5b6002600081548092919062001b7e90620028bf565b91905055508660066000888152602001908152602001600020819055506004600088815260200190815260200160002060009054906101000a900473ffffffffffffffffffffffffffffffffffffffff1673ffffffffffffffffffffffffffffffffffffffff16632b81ff9560006040518263ffffffff1660e01b815260040162001c0a919062002050565b600060405180830381600087803b15801562001c2557600080fd5b505af115801562001c3a573d6000803e3d6000fd5b505050507fad6d0c0810a0bd7cfc65b4fa3f7e7ddea11a181fa6f2ce924480219dadb0d560878760405162001c7192919062002b09565b60405180910390a1600194505050505092915050565b60008054905090565b60006004600083815260200190815260200160002060009054906101000a900473ffffffffffffffffffffffffffffffffffffffff1673ffffffffffffffffffffffffffffffffffffffff166349befa856040518163ffffffff1660e01b8152600401602060405180830381865afa15801562001d11573d6000803e3d6000fd5b505050506040513d601f19601f8201168201806040525081019062001d379190620025a8565b9050919050565b6000600154905090565b6000818362001d58919062002b36565b9050600083148062001d76575081838262001d74919062002a22565b145b62001d8057600080fd5b92915050565b60606000805467ffffffffffffffff81111562001da85762001da762002221565b5b60405190808252806020026020018201604052801562001dd75781602001602082028036833780820191505090505b509050600080600190505b600054811162001ee0576004600082815260200190815260200160002060009054906101000a900473ffffffffffffffffffffffffffffffffffffffff1673ffffffffffffffffffffffffffffffffffffffff1662fef8566040518163ffffffff1660e01b8152600401602060405180830381865afa15801562001e6a573d6000803e3d6000fd5b505050506040513d601f19601f8201168201806040525081019062001e9091906200285e565b1562001eca578083838151811062001ead5762001eac62002890565b5b602002602001018181525050818062001ec690620028bf565b9250505b808062001ed790620028bf565b91505062001de2565b50819250505090565b6000818362001ef99190620024a9565b90508281101562001f0957600080fd5b92915050565b60008160405160200162001f24919062002bd9565b604051602081830303815290604052805190602001208360405160200162001f4d919062002bd9565b6040516020818303038152906040528051906020012014905092915050565b6118758062002bf383390190565b6116da806200446883390190565b6000604051905090565b600080fd5b600080fd5b6000819050919050565b62001fb18162001f9c565b811462001fbd57600080fd5b50565b60008135905062001fd18162001fa6565b92915050565b60008060006060848603121562001ff35762001ff262001f92565b5b6000620020038682870162001fc0565b9350506020620020168682870162001fc0565b9250506040620020298682870162001fc0565b9150509250925092565b60008115159050919050565b6200204a8162002033565b82525050565b60006020820190506200206760008301846200203f565b92915050565b60006020828403121562002086576200208562001f92565b5b6000620020968482850162001fc0565b91505092915050565b620020aa8162001f9c565b82525050565b6000602082019050620020c760008301846200209f565b92915050565b60008060408385031215620020e757620020e662001f92565b5b6000620020f78582860162001fc0565b92505060206200210a8582860162001fc0565b9150509250929050565b600081519050919050565b600082825260208201905092915050565b6000819050602082019050919050565b6200214b8162001f9c565b82525050565b60006200215f838362002140565b60208301905092915050565b6000602082019050919050565b6000620021858262002114565b6200219181856200211f565b93506200219e8362002130565b8060005b83811015620021d5578151620021b9888262002151565b9750620021c6836200216b565b925050600181019050620021a2565b5085935050505092915050565b60006020820190508181036000830152620021fe818462002178565b905092915050565b600080fd5b600080fd5b6000601f19601f8301169050919050565b7f4e487b7100000000000000000000000000000000000000000000000000000000600052604160045260246000fd5b6200225b8262002210565b810181811067ffffffffffffffff821117156200227d576200227c62002221565b5b80604052505050565b60006200229262001f88565b9050620022a0828262002250565b919050565b600067ffffffffffffffff821115620022c357620022c262002221565b5b620022ce8262002210565b9050602081019050919050565b82818337600083830152505050565b600062002301620022fb84620022a5565b62002286565b90508281526020810184848401111562002320576200231f6200220b565b5b6200232d848285620022db565b509392505050565b600082601f8301126200234d576200234c62002206565b5b81356200235f848260208601620022ea565b91505092915050565b60008060006060848603121562002384576200238362001f92565b5b6000620023948682870162001fc0565b9350506020620023a78682870162001fc0565b925050604084013567ffffffffffffffff811115620023cb57620023ca62001f97565b5b620023d98682870162002335565b9150509250925092565b600073ffffffffffffffffffffffffffffffffffffffff82169050919050565b60006200241082620023e3565b9050919050565b620024228162002403565b81146200242e57600080fd5b50565b600081359050620024428162002417565b92915050565b60006020828403121562002461576200246062001f92565b5b6000620024718482850162002431565b91505092915050565b7f4e487b7100000000000000000000000000000000000000000000000000000000600052601160045260246000fd5b6000620024b68262001f9c565b9150620024c38362001f9c565b9250827fffffffffffffffffffffffffffffffffffffffffffffffffffffffffffffffff03821115620024fb57620024fa6200247a565b5b828201905092915050565b60006080820190506200251d60008301876200209f565b6200252c60208301866200209f565b6200253b60408301856200209f565b6200254a60608301846200209f565b95945050505050565b6200255e8162002403565b82525050565b60006040820190506200257b600083018562002553565b6200258a60208301846200209f565b9392505050565b600081519050620025a28162001fa6565b92915050565b600060208284031215620025c157620025c062001f92565b5b6000620025d18482850162002591565b91505092915050565b600081519050620025eb8162002417565b92915050565b6000602082840312156200260a576200260962001f92565b5b60006200261a84828501620025da565b91505092915050565b6000620026308262001f9c565b91506200263d8362001f9c565b9250828210156200265357620026526200247a565b5b828203905092915050565b60008160011c9050919050565b6000808291508390505b6001851115620026bd578086048111156200269557620026946200247a565b5b6001851615620026a55780820291505b8081029050620026b5856200265e565b945062002675565b94509492505050565b600082620026d85760019050620027ab565b81620026e85760009050620027ab565b81600181146200270157600281146200270c5762002742565b6001915050620027ab565b60ff8411156200272157620027206200247a565b5b8360020a9150848211156200273b576200273a6200247a565b5b50620027ab565b5060208310610133831016604e8410600b84101617156200277c5782820a9050838111156200277657620027756200247a565b5b620027ab565b6200278b84848460016200266b565b92509050818404811115620027a557620027a46200247a565b5b81810290505b9392505050565b600060ff82169050919050565b6000620027cc8262001f9c565b9150620027d983620027b2565b9250620028087fffffffffffffffffffffffffffffffffffffffffffffffffffffffffffffffff8484620026c6565b905092915050565b600060208201905062002827600083018462002553565b92915050565b620028388162002033565b81146200284457600080fd5b50565b60008151905062002858816200282d565b92915050565b60006020828403121562002877576200287662001f92565b5b6000620028878482850162002847565b91505092915050565b7f4e487b7100000000000000000000000000000000000000000000000000000000600052603260045260246000fd5b6000620028cc8262001f9c565b91507fffffffffffffffffffffffffffffffffffffffffffffffffffffffffffffffff82036200290157620029006200247a565b5b600182019050919050565b600081519050919050565b600082825260208201905092915050565b60005b83811015620029485780820151818401526020810190506200292b565b8381111562002958576000848401525b50505050565b60006200296b826200290c565b62002977818562002917565b93506200298981856020860162002928565b620029948162002210565b840191505092915050565b6000608082019050620029b660008301876200209f565b620029c560208301866200209f565b620029d460408301856200209f565b8181036060830152620029e881846200295e565b905095945050505050565b7f4e487b7100000000000000000000000000000000000000000000000000000000600052601260045260246000fd5b600062002a2f8262001f9c565b915062002a3c8362001f9c565b92508262002a4f5762002a4e620029f3565b5b828204905092915050565b600060608201905062002a71600083018662002553565b62002a80602083018562002553565b62002a8f60408301846200209f565b949350505050565b7f4552524f5220414c205452414e53464552495200000000000000000000000000600082015250565b600062002acf60138362002917565b915062002adc8262002a97565b602082019050919050565b6000602082019050818103600083015262002b028162002ac0565b9050919050565b600060408201905062002b2060008301856200209f565b62002b2f60208301846200209f565b9392505050565b600062002b438262001f9c565b915062002b508362001f9c565b9250817fffffffffffffffffffffffffffffffffffffffffffffffffffffffffffffffff048311821515161562002b8c5762002b8b6200247a565b5b828202905092915050565b600081905092915050565b600062002baf826200290c565b62002bbb818562002b97565b935062002bcd81856020860162002928565b80840191505092915050565b600062002be7828462002ba2565b91508190509291505056fe60806040523480156200001157600080fd5b5060405162001875380380620018758339818101604052810190620000379190620003c1565b836003819055508260048190555081600581905550806002819055506040518060a001604052806040518060400160405280600b81526020017f506573746963696461204100000000000000000000000000000000000000000081525081526020016040518060400160405280600b81526020017f506573746963696461204200000000000000000000000000000000000000000081525081526020016040518060400160405280600b81526020017f506573746963696461204300000000000000000000000000000000000000000081525081526020016040518060400160405280600b81526020017f506573746963696461204400000000000000000000000000000000000000000081525081526020016040518060400160405280600b81526020017f5065737469636964612045000000000000000000000000000000000000000000815250815250600690600562000195929190620001fc565b5033600760006101000a81548173ffffffffffffffffffffffffffffffffffffffff021916908373ffffffffffffffffffffffffffffffffffffffff1602179055506001600760146101000a81548160ff0219169083151502179055505050505062000497565b82805482825590600052602060002090810192821562000250579160200282015b828111156200024f5782518290805190602001906200023e92919062000263565b50916020019190600101906200021d565b5b5090506200025f9190620002f4565b5090565b828054620002719062000462565b90600052602060002090601f016020900481019282620002955760008555620002e1565b82601f10620002b057805160ff1916838001178555620002e1565b82800160010185558215620002e1579182015b82811115620002e0578251825591602001919060010190620002c3565b5b509050620002f091906200031c565b5090565b5b808211156200031857600081816200030e91906200033b565b50600101620002f5565b5090565b5b80821115620003375760008160009055506001016200031d565b5090565b508054620003499062000462565b6000825580601f106200035d57506200037e565b601f0160209004906000526020600020908101906200037d91906200031c565b5b50565b600080fd5b6000819050919050565b6200039b8162000386565b8114620003a757600080fd5b50565b600081519050620003bb8162000390565b92915050565b60008060008060808587031215620003de57620003dd62000381565b5b6000620003ee87828801620003aa565b94505060206200040187828801620003aa565b93505060406200041487828801620003aa565b92505060606200042787828801620003aa565b91505092959194509250565b7f4e487b7100000000000000000000000000000000000000000000000000000000600052602260045260246000fd5b600060028204905060018216806200047b57607f821691505b60208210810362000491576200049062000433565b5b50919050565b6113ce80620004a76000396000f3fe608060405234801561001057600080fd5b50600436106101155760003560e01c80636352211e116100a2578063b3e1c71811610071578063b3e1c718146102e2578063bd3e19d4146102fe578063cf22b5771461031c578063e2fb98931461033a578063e7bcebf01461035657610115565b80636352211e146102485780636a4f832b1461027857806370a08231146102945780638da5cb5b146102c457610115565b80631e7ec0f3116100e95780631e7ec0f3146101b65780632b81ff95146101d257806332b93996146101ee5780633fbaa4751461020c57806349befa851461022a57610115565b8062fef8561461011a57806301ffc9a71461013857806313faede614610168578063175f4eae14610186575b600080fd5b610122610374565b60405161012f9190610ac0565b60405180910390f35b610152600480360381019061014d9190610b47565b61038b565b60405161015f9190610ac0565b60405180910390f35b6101706103f5565b60405161017d9190610b8d565b60405180910390f35b6101a0600480360381019061019b9190610bd4565b6103fb565b6040516101ad9190610c9a565b60405180910390f35b6101d060048036038101906101cb9190610bd4565b6104a7565b005b6101ec60048036038101906101e79190610ce8565b61053b565b005b6101f6610558565b6040516102039190610b8d565b60405180910390f35b61021461055e565b6040516102219190610b8d565b60405180910390f35b610232610564565b60405161023f9190610b8d565b60405180910390f35b610262600480360381019061025d9190610bd4565b61056e565b60405161026f9190610d56565b60405180910390f35b610292600480360381019061028d9190610ed2565b61061e565b005b6102ae60048036038101906102a99190610f41565b610643565b6040516102bb9190610b8d565b60405180910390f35b6102cc61068c565b6040516102d99190610d56565b60405180910390f35b6102fc60048036038101906102f79190610f6e565b6106b2565b005b6103066106d0565b6040516103139190610b8d565b60405180910390f35b6103246106da565b6040516103319190610b8d565b60405180910390f35b610354600480360381019061034f9190610f6e565b6106e4565b005b61035e6106f2565b60405161036b9190610b8d565b60405180910390f35b6000600760149054906101000a900460ff16905090565b60007f01ffc9a7000000000000000000000000000000000000000000000000000000007bffffffffffffffffffffffffffffffffffffffffffffffffffffffff1916827bffffffffffffffffffffffffffffffffffffffffffffffffffffffff1916149050919050565b60055481565b6006818154811061040b57600080fd5b90600052602060002001600091509050805461042690610fdd565b80601f016020809104026020016040519081016040528092919081815260200182805461045290610fdd565b801561049f5780601f106104745761010080835404028352916020019161049f565b820191906000526020600020905b81548152906001019060200180831161048257829003601f168201915b505050505081565b600760009054906101000a900473ffffffffffffffffffffffffffffffffffffffff1673ffffffffffffffffffffffffffffffffffffffff163373ffffffffffffffffffffffffffffffffffffffff161461050157600080fd5b7f127988bd735ffa5c5534fd889e7069d274b48e633535f314e203463f4ebf87a3816040516105309190610b8d565b60405180910390a150565b80600760146101000a81548160ff02191690831515021790555050565b60045481565b60035481565b6000600454905090565b60008060008084815260200190815260200160002060009054906101000a900473ffffffffffffffffffffffffffffffffffffffff169050600073ffffffffffffffffffffffffffffffffffffffff168173ffffffffffffffffffffffffffffffffffffffff1603610615576040517f08c379a000000000000000000000000000000000000000000000000000000000815260040161060c9061105a565b60405180910390fd5b80915050919050565b61062883836106f8565b61063560008484846108b7565b61063e57600080fd5b505050565b6000600160008373ffffffffffffffffffffffffffffffffffffffff1673ffffffffffffffffffffffffffffffffffffffff168152602001908152602001600020549050919050565b600760009054906101000a900473ffffffffffffffffffffffffffffffffffffffff1681565b6106cc82826040518060200160405280600081525061061e565b5050565b6000600554905090565b6000600354905090565b6106ee82826106b2565b5050565b60025481565b600073ffffffffffffffffffffffffffffffffffffffff168273ffffffffffffffffffffffffffffffffffffffff1603610767576040517f08c379a000000000000000000000000000000000000000000000000000000000815260040161075e906110ec565b60405180910390fd5b61077081610a21565b156107b0576040517f08c379a00000000000000000000000000000000000000000000000000000000081526004016107a79061117e565b60405180910390fd5b60018060008473ffffffffffffffffffffffffffffffffffffffff1673ffffffffffffffffffffffffffffffffffffffff16815260200190815260200160002060008282546107ff91906111cd565b925050819055508160008083815260200190815260200160002060006101000a81548173ffffffffffffffffffffffffffffffffffffffff021916908373ffffffffffffffffffffffffffffffffffffffff160217905550808273ffffffffffffffffffffffffffffffffffffffff16600073ffffffffffffffffffffffffffffffffffffffff167fddf252ad1be2c89b69c2b068fc378daa952ba7f163c4a11628f55a4df523b3ef60405160405180910390a45050565b60006108c284610a8c565b15610a14578373ffffffffffffffffffffffffffffffffffffffff1663150b7a02338786866040518563ffffffff1660e01b81526004016109069493929190611278565b6020604051808303816000875af192505050801561094257506040513d601f19601f8201168201806040525081019061093f91906112d9565b60015b6109c4573d8060008114610972576040519150601f19603f3d011682016040523d82523d6000602084013e610977565b606091505b5060008151036109bc576040517f08c379a00000000000000000000000000000000000000000000000000000000081526004016109b390611378565b60405180910390fd5b805181602001fd5b63150b7a0260e01b7bffffffffffffffffffffffffffffffffffffffffffffffffffffffff1916817bffffffffffffffffffffffffffffffffffffffffffffffffffffffff191614915050610a19565b600190505b949350505050565b60008073ffffffffffffffffffffffffffffffffffffffff1660008084815260200190815260200160002060009054906101000a900473ffffffffffffffffffffffffffffffffffffffff1673ffffffffffffffffffffffffffffffffffffffff1614159050919050565b600080823b905060008163ffffffff1611915050919050565b60008115159050919050565b610aba81610aa5565b82525050565b6000602082019050610ad56000830184610ab1565b92915050565b6000604051905090565b600080fd5b600080fd5b60007fffffffff0000000000000000000000000000000000000000000000000000000082169050919050565b610b2481610aef565b8114610b2f57600080fd5b50565b600081359050610b4181610b1b565b92915050565b600060208284031215610b5d57610b5c610ae5565b5b6000610b6b84828501610b32565b91505092915050565b6000819050919050565b610b8781610b74565b82525050565b6000602082019050610ba26000830184610b7e565b92915050565b610bb181610b74565b8114610bbc57600080fd5b50565b600081359050610bce81610ba8565b92915050565b600060208284031215610bea57610be9610ae5565b5b6000610bf884828501610bbf565b91505092915050565b600081519050919050565b600082825260208201905092915050565b60005b83811015610c3b578082015181840152602081019050610c20565b83811115610c4a576000848401525b50505050565b6000601f19601f8301169050919050565b6000610c6c82610c01565b610c768185610c0c565b9350610c86818560208601610c1d565b610c8f81610c50565b840191505092915050565b60006020820190508181036000830152610cb48184610c61565b905092915050565b610cc581610aa5565b8114610cd057600080fd5b50565b600081359050610ce281610cbc565b92915050565b600060208284031215610cfe57610cfd610ae5565b5b6000610d0c84828501610cd3565b91505092915050565b600073ffffffffffffffffffffffffffffffffffffffff82169050919050565b6000610d4082610d15565b9050919050565b610d5081610d35565b82525050565b6000602082019050610d6b6000830184610d47565b92915050565b610d7a81610d35565b8114610d8557600080fd5b50565b600081359050610d9781610d71565b92915050565b600080fd5b600080fd5b7f4e487b7100000000000000000000000000000000000000000000000000000000600052604160045260246000fd5b610ddf82610c50565b810181811067ffffffffffffffff82111715610dfe57610dfd610da7565b5b80604052505050565b6000610e11610adb565b9050610e1d8282610dd6565b919050565b600067ffffffffffffffff821115610e3d57610e3c610da7565b5b610e4682610c50565b9050602081019050919050565b82818337600083830152505050565b6000610e75610e7084610e22565b610e07565b905082815260208101848484011115610e9157610e90610da2565b5b610e9c848285610e53565b509392505050565b600082601f830112610eb957610eb8610d9d565b5b8135610ec9848260208601610e62565b91505092915050565b600080600060608486031215610eeb57610eea610ae5565b5b6000610ef986828701610d88565b9350506020610f0a86828701610bbf565b925050604084013567ffffffffffffffff811115610f2b57610f2a610aea565b5b610f3786828701610ea4565b9150509250925092565b600060208284031215610f5757610f56610ae5565b5b6000610f6584828501610d88565b91505092915050565b60008060408385031215610f8557610f84610ae5565b5b6000610f9385828601610d88565b9250506020610fa485828601610bbf565b9150509250929050565b7f4e487b7100000000000000000000000000000000000000000000000000000000600052602260045260246000fd5b60006002820490506001821680610ff557607f821691505b60208210810361100857611007610fae565b5b50919050565b7f546f6b656e20696420646f6573206e6f74206578697374000000000000000000600082015250565b6000611044601783610c0c565b915061104f8261100e565b602082019050919050565b6000602082019050818103600083015261107381611037565b9050919050565b7f455243373231204552524f523a206d696e7420746f20746865207a65726f206160008201527f6464726573730000000000000000000000000000000000000000000000000000602082015250565b60006110d6602683610c0c565b91506110e18261107a565b604082019050919050565b60006020820190508181036000830152611105816110c9565b9050919050565b7f455243373231204552524f523a20546f6b656e20616c7265616479206d696e7460008201527f6564000000000000000000000000000000000000000000000000000000000000602082015250565b6000611168602283610c0c565b91506111738261110c565b604082019050919050565b600060208201905081810360008301526111978161115b565b9050919050565b7f4e487b7100000000000000000000000000000000000000000000000000000000600052601160045260246000fd5b60006111d882610b74565b91506111e383610b74565b9250827fffffffffffffffffffffffffffffffffffffffffffffffffffffffffffffffff038211156112185761121761119e565b5b828201905092915050565b600081519050919050565b600082825260208201905092915050565b600061124a82611223565b611254818561122e565b9350611264818560208601610c1d565b61126d81610c50565b840191505092915050565b600060808201905061128d6000830187610d47565b61129a6020830186610d47565b6112a76040830185610b7e565b81810360608301526112b9818461123f565b905095945050505050565b6000815190506112d381610b1b565b92915050565b6000602082840312156112ef576112ee610ae5565b5b60006112fd848285016112c4565b91505092915050565b7f4552433732313a207472616e7366657220746f206e6f6e20455243373231526560008201527f63656976657220696d706c656d656e7465720000000000000000000000000000602082015250565b6000611362603283610c0c565b915061136d82611306565b604082019050919050565b6000602082019050818103600083015261139181611355565b905091905056fea264697066735822122035dea26807b63f4bc6d6320d16cbf7d8a3038a555aecb4e72a0c1d746e671b3e64736f6c634300080d003360806040523480156200001157600080fd5b50604051620016da380380620016da833981810160405281019062000037919062000353565b836003819055508260048190555033600560006101000a81548173ffffffffffffffffffffffffffffffffffffffff021916908373ffffffffffffffffffffffffffffffffffffffff160217905550816002819055508060069080519060200190620000a5929190620000cb565b506000600760006101000a81548160ff0219169083151502179055505050505062000448565b828054620000d99062000413565b90600052602060002090601f016020900481019282620000fd576000855562000149565b82601f106200011857805160ff191683800117855562000149565b8280016001018555821562000149579182015b82811115620001485782518255916020019190600101906200012b565b5b5090506200015891906200015c565b5090565b5b80821115620001775760008160009055506001016200015d565b5090565b6000604051905090565b600080fd5b600080fd5b6000819050919050565b620001a4816200018f565b8114620001b057600080fd5b50565b600081519050620001c48162000199565b92915050565b600080fd5b600080fd5b6000601f19601f8301169050919050565b7f4e487b7100000000000000000000000000000000000000000000000000000000600052604160045260246000fd5b6200021f82620001d4565b810181811067ffffffffffffffff82111715620002415762000240620001e5565b5b80604052505050565b6000620002566200017b565b905062000264828262000214565b919050565b600067ffffffffffffffff821115620002875762000286620001e5565b5b6200029282620001d4565b9050602081019050919050565b60005b83811015620002bf578082015181840152602081019050620002a2565b83811115620002cf576000848401525b50505050565b6000620002ec620002e68462000269565b6200024a565b9050828152602081018484840111156200030b576200030a620001cf565b5b620003188482856200029f565b509392505050565b600082601f830112620003385762000337620001ca565b5b81516200034a848260208601620002d5565b91505092915050565b6000806000806080858703121562000370576200036f62000185565b5b60006200038087828801620001b3565b94505060206200039387828801620001b3565b9350506040620003a687828801620001b3565b925050606085015167ffffffffffffffff811115620003ca57620003c96200018a565b5b620003d88782880162000320565b91505092959194509250565b7f4e487b7100000000000000000000000000000000000000000000000000000000600052602260045260246000fd5b600060028204905060018216806200042c57607f821691505b602082108103620004425762000441620003e4565b5b50919050565b61128280620004586000396000f3fe608060405234801561001057600080fd5b50600436106100f55760003560e01c80636352211e116100975780637cf6b53b116100665780637cf6b53b146102745780638da5cb5b14610292578063b3e1c718146102b0578063cf22b577146102cc576100f5565b80636352211e146101dc5780636a4f832b1461020c57806370a08231146102285780637194c2e814610258576100f5565b80633fbaa475116100d35780633fbaa4751461016657806349befa85146101845780634a627aeb146101a25780635ee1773d146101be576100f5565b806301ffc9a7146100fa57806323b1ff001461012a57806332b9399614610148575b600080fd5b610114600480360381019061010f91906109c5565b6102ea565b6040516101219190610a0d565b60405180910390f35b610132610354565b60405161013f9190610ac1565b60405180910390f35b6101506103e2565b60405161015d9190610afc565b60405180910390f35b61016e6103e8565b60405161017b9190610afc565b60405180910390f35b61018c6103ee565b6040516101999190610afc565b60405180910390f35b6101bc60048036038101906101b79190610b43565b6103f8565b005b6101c6610415565b6040516101d39190610afc565b60405180910390f35b6101f660048036038101906101f19190610b9c565b61041b565b6040516102039190610c0a565b60405180910390f35b61022660048036038101906102219190610d86565b6104cb565b005b610242600480360381019061023d9190610df5565b6104f0565b60405161024f9190610afc565b60405180910390f35b610272600480360381019061026d9190610e22565b610539565b005b61027c610547565b6040516102899190610a0d565b60405180910390f35b61029a61055e565b6040516102a79190610c0a565b60405180910390f35b6102ca60048036038101906102c59190610e22565b610584565b005b6102d46105a2565b6040516102e19190610afc565b60405180910390f35b60007f01ffc9a7000000000000000000000000000000000000000000000000000000007bffffffffffffffffffffffffffffffffffffffffffffffffffffffff1916827bffffffffffffffffffffffffffffffffffffffffffffffffffffffff1916149050919050565b6006805461036190610e91565b80601f016020809104026020016040519081016040528092919081815260200182805461038d90610e91565b80156103da5780601f106103af576101008083540402835291602001916103da565b820191906000526020600020905b8154815290600101906020018083116103bd57829003601f168201915b505050505081565b60045481565b60035481565b6000600454905090565b80600760006101000a81548160ff02191690831515021790555050565b60025481565b60008060008084815260200190815260200160002060009054906101000a900473ffffffffffffffffffffffffffffffffffffffff169050600073ffffffffffffffffffffffffffffffffffffffff168173ffffffffffffffffffffffffffffffffffffffff16036104c2576040517f08c379a00000000000000000000000000000000000000000000000000000000081526004016104b990610f0e565b60405180910390fd5b80915050919050565b6104d583836105ac565b6104e2600084848461076b565b6104eb57600080fd5b505050565b6000600160008373ffffffffffffffffffffffffffffffffffffffff1673ffffffffffffffffffffffffffffffffffffffff168152602001908152602001600020549050919050565b6105438282610584565b5050565b6000600760009054906101000a900460ff16905090565b600560009054906101000a900473ffffffffffffffffffffffffffffffffffffffff1681565b61059e8282604051806020016040528060008152506104cb565b5050565b6000600354905090565b600073ffffffffffffffffffffffffffffffffffffffff168273ffffffffffffffffffffffffffffffffffffffff160361061b576040517f08c379a000000000000000000000000000000000000000000000000000000000815260040161061290610fa0565b60405180910390fd5b610624816108d5565b15610664576040517f08c379a000000000000000000000000000000000000000000000000000000000815260040161065b90611032565b60405180910390fd5b60018060008473ffffffffffffffffffffffffffffffffffffffff1673ffffffffffffffffffffffffffffffffffffffff16815260200190815260200160002060008282546106b39190611081565b925050819055508160008083815260200190815260200160002060006101000a81548173ffffffffffffffffffffffffffffffffffffffff021916908373ffffffffffffffffffffffffffffffffffffffff160217905550808273ffffffffffffffffffffffffffffffffffffffff16600073ffffffffffffffffffffffffffffffffffffffff167fddf252ad1be2c89b69c2b068fc378daa952ba7f163c4a11628f55a4df523b3ef60405160405180910390a45050565b600061077684610940565b156108c8578373ffffffffffffffffffffffffffffffffffffffff1663150b7a02338786866040518563ffffffff1660e01b81526004016107ba949392919061112c565b6020604051808303816000875af19250505080156107f657506040513d601f19601f820116820180604052508101906107f3919061118d565b60015b610878573d8060008114610826576040519150601f19603f3d011682016040523d82523d6000602084013e61082b565b606091505b506000815103610870576040517f08c379a00000000000000000000000000000000000000000000000000000000081526004016108679061122c565b60405180910390fd5b805181602001fd5b63150b7a0260e01b7bffffffffffffffffffffffffffffffffffffffffffffffffffffffff1916817bffffffffffffffffffffffffffffffffffffffffffffffffffffffff1916149150506108cd565b600190505b949350505050565b60008073ffffffffffffffffffffffffffffffffffffffff1660008084815260200190815260200160002060009054906101000a900473ffffffffffffffffffffffffffffffffffffffff1673ffffffffffffffffffffffffffffffffffffffff1614159050919050565b600080823b905060008163ffffffff1611915050919050565b6000604051905090565b600080fd5b600080fd5b60007fffffffff0000000000000000000000000000000000000000000000000000000082169050919050565b6109a28161096d565b81146109ad57600080fd5b50565b6000813590506109bf81610999565b92915050565b6000602082840312156109db576109da610963565b5b60006109e9848285016109b0565b91505092915050565b60008115159050919050565b610a07816109f2565b82525050565b6000602082019050610a2260008301846109fe565b92915050565b600081519050919050565b600082825260208201905092915050565b60005b83811015610a62578082015181840152602081019050610a47565b83811115610a71576000848401525b50505050565b6000601f19601f8301169050919050565b6000610a9382610a28565b610a9d8185610a33565b9350610aad818560208601610a44565b610ab681610a77565b840191505092915050565b60006020820190508181036000830152610adb8184610a88565b905092915050565b6000819050919050565b610af681610ae3565b82525050565b6000602082019050610b116000830184610aed565b92915050565b610b20816109f2565b8114610b2b57600080fd5b50565b600081359050610b3d81610b17565b92915050565b600060208284031215610b5957610b58610963565b5b6000610b6784828501610b2e565b91505092915050565b610b7981610ae3565b8114610b8457600080fd5b50565b600081359050610b9681610b70565b92915050565b600060208284031215610bb257610bb1610963565b5b6000610bc084828501610b87565b91505092915050565b600073ffffffffffffffffffffffffffffffffffffffff82169050919050565b6000610bf482610bc9565b9050919050565b610c0481610be9565b82525050565b6000602082019050610c1f6000830184610bfb565b92915050565b610c2e81610be9565b8114610c3957600080fd5b50565b600081359050610c4b81610c25565b92915050565b600080fd5b600080fd5b7f4e487b7100000000000000000000000000000000000000000000000000000000600052604160045260246000fd5b610c9382610a77565b810181811067ffffffffffffffff82111715610cb257610cb1610c5b565b5b80604052505050565b6000610cc5610959565b9050610cd18282610c8a565b919050565b600067ffffffffffffffff821115610cf157610cf0610c5b565b5b610cfa82610a77565b9050602081019050919050565b82818337600083830152505050565b6000610d29610d2484610cd6565b610cbb565b905082815260208101848484011115610d4557610d44610c56565b5b610d50848285610d07565b509392505050565b600082601f830112610d6d57610d6c610c51565b5b8135610d7d848260208601610d16565b91505092915050565b600080600060608486031215610d9f57610d9e610963565b5b6000610dad86828701610c3c565b9350506020610dbe86828701610b87565b925050604084013567ffffffffffffffff811115610ddf57610dde610968565b5b610deb86828701610d58565b9150509250925092565b600060208284031215610e0b57610e0a610963565b5b6000610e1984828501610c3c565b91505092915050565b60008060408385031215610e3957610e38610963565b5b6000610e4785828601610c3c565b9250506020610e5885828601610b87565b9150509250929050565b7f4e487b7100000000000000000000000000000000000000000000000000000000600052602260045260246000fd5b60006002820490506001821680610ea957607f821691505b602082108103610ebc57610ebb610e62565b5b50919050565b7f546f6b656e20696420646f6573206e6f74206578697374000000000000000000600082015250565b6000610ef8601783610a33565b9150610f0382610ec2565b602082019050919050565b60006020820190508181036000830152610f2781610eeb565b9050919050565b7f455243373231204552524f523a206d696e7420746f20746865207a65726f206160008201527f6464726573730000000000000000000000000000000000000000000000000000602082015250565b6000610f8a602683610a33565b9150610f9582610f2e565b604082019050919050565b60006020820190508181036000830152610fb981610f7d565b9050919050565b7f455243373231204552524f523a20546f6b656e20616c7265616479206d696e7460008201527f6564000000000000000000000000000000000000000000000000000000000000602082015250565b600061101c602283610a33565b915061102782610fc0565b604082019050919050565b6000602082019050818103600083015261104b8161100f565b9050919050565b7f4e487b7100000000000000000000000000000000000000000000000000000000600052601160045260246000fd5b600061108c82610ae3565b915061109783610ae3565b9250827fffffffffffffffffffffffffffffffffffffffffffffffffffffffffffffffff038211156110cc576110cb611052565b5b828201905092915050565b600081519050919050565b600082825260208201905092915050565b60006110fe826110d7565b61110881856110e2565b9350611118818560208601610a44565b61112181610a77565b840191505092915050565b60006080820190506111416000830187610bfb565b61114e6020830186610bfb565b61115b6040830185610aed565b818103606083015261116d81846110f3565b905095945050505050565b60008151905061118781610999565b92915050565b6000602082840312156111a3576111a2610963565b5b60006111b184828501611178565b91505092915050565b7f4552433732313a207472616e7366657220746f206e6f6e20455243373231526560008201527f63656976657220696d706c656d656e7465720000000000000000000000000000602082015250565b6000611216603283610a33565b9150611221826111ba565b604082019050919050565b6000602082019050818103600083015261124581611209565b905091905056fea2646970667358221220ebd8b68419cad969fc7b8ff50457a1469e336f7fe52a9f85ab7a69b14fbd538964736f6c634300080d0033a26469706673582212206bdcbdcedfec65d89e26043596f3170223a00de59cf80b2dfce7575201c44cc964736f6c634300080d003360806040523480156200001157600080fd5b506040518060400160405280600981526020017f554e4952544f4b454e0000000000000000000000000000000000000000000000815250600090805190602001906200005f92919062000191565b506040518060400160405280600481526020017f554e544b0000000000000000000000000000000000000000000000000000000081525060019080519060200190620000ad92919062000191565b506012600260006101000a81548160ff021916908360ff16021790555069152d02c7e14af6800000600381905550600354600460003373ffffffffffffffffffffffffffffffffffffffff1673ffffffffffffffffffffffffffffffffffffffff168152602001908152602001600020819055503073ffffffffffffffffffffffffffffffffffffffff16600073ffffffffffffffffffffffffffffffffffffffff167fddf252ad1be2c89b69c2b068fc378daa952ba7f163c4a11628f55a4df523b3ef6003546040516200018391906200025c565b60405180910390a3620002dd565b8280546200019f90620002a8565b90600052602060002090601f016020900481019282620001c357600085556200020f565b82601f10620001de57805160ff19168380011785556200020f565b828001600101855582156200020f579182015b828111156200020e578251825591602001919060010190620001f1565b5b5090506200021e919062000222565b5090565b5b808211156200023d57600081600090555060010162000223565b5090565b6000819050919050565b620002568162000241565b82525050565b60006020820190506200027360008301846200024b565b92915050565b7f4e487b7100000000000000000000000000000000000000000000000000000000600052602260045260246000fd5b60006002820490506001821680620002c157607f821691505b602082108103620002d757620002d662000279565b5b50919050565b61100780620002ed6000396000f3fe608060405234801561001057600080fd5b50600436106100ea5760003560e01c806395d89b411161008c578063b5931f7c11610066578063b5931f7c14610275578063d05c78da146102a5578063dd62ed3e146102d5578063e6cb901314610305576100ea565b806395d89b41146101f7578063a293d1e814610215578063a9059cbb14610245576100ea565b806323b872dd116100c857806323b872dd1461015b578063313ce5671461018b5780633eaaf86b146101a957806370a08231146101c7576100ea565b806306fdde03146100ef578063095ea7b31461010d57806318160ddd1461013d575b600080fd5b6100f7610335565b6040516101049190610b6c565b60405180910390f35b61012760048036038101906101229190610c27565b6103c3565b6040516101349190610c82565b60405180910390f35b6101456104b5565b6040516101529190610cac565b60405180910390f35b61017560048036038101906101709190610cc7565b610509565b6040516101829190610c82565b60405180910390f35b6101936106db565b6040516101a09190610d36565b60405180910390f35b6101b16106ee565b6040516101be9190610cac565b60405180910390f35b6101e160048036038101906101dc9190610d51565b6106f4565b6040516101ee9190610cac565b60405180910390f35b6101ff61073d565b60405161020c9190610b6c565b60405180910390f35b61022f600480360381019061022a9190610d7e565b6107cb565b60405161023c9190610cac565b60405180910390f35b61025f600480360381019061025a9190610c27565b6107ee565b60405161026c9190610c82565b60405180910390f35b61028f600480360381019061028a9190610d7e565b6109cf565b60405161029c9190610cac565b60405180910390f35b6102bf60048036038101906102ba9190610d7e565b6109f1565b6040516102cc9190610cac565b60405180910390f35b6102ef60048036038101906102ea9190610dbe565b610a29565b6040516102fc9190610cac565b60405180910390f35b61031f600480360381019061031a9190610d7e565b610ab0565b60405161032c9190610cac565b60405180910390f35b6000805461034290610e2d565b80601f016020809104026020016040519081016040528092919081815260200182805461036e90610e2d565b80156103bb5780601f10610390576101008083540402835291602001916103bb565b820191906000526020600020905b81548152906001019060200180831161039e57829003601f168201915b505050505081565b600081600560003373ffffffffffffffffffffffffffffffffffffffff1673ffffffffffffffffffffffffffffffffffffffff16815260200190815260200160002060008573ffffffffffffffffffffffffffffffffffffffff1673ffffffffffffffffffffffffffffffffffffffff168152602001908152602001600020819055508273ffffffffffffffffffffffffffffffffffffffff163373ffffffffffffffffffffffffffffffffffffffff167f8c5be1e5ebec7d5bd14f71427d1e84f3dd0314c0f7b2291e5b200ac8c7c3b925846040516104a39190610cac565b60405180910390a36001905092915050565b6000600460008073ffffffffffffffffffffffffffffffffffffffff1673ffffffffffffffffffffffffffffffffffffffff168152602001908152602001600020546003546105049190610e8d565b905090565b60008073ffffffffffffffffffffffffffffffffffffffff168373ffffffffffffffffffffffffffffffffffffffff160361054357600080fd5b81600560003373ffffffffffffffffffffffffffffffffffffffff1673ffffffffffffffffffffffffffffffffffffffff16815260200190815260200160002060008673ffffffffffffffffffffffffffffffffffffffff1673ffffffffffffffffffffffffffffffffffffffff1681526020019081526020016000205410156105cc57600080fd5b81600460008673ffffffffffffffffffffffffffffffffffffffff1673ffffffffffffffffffffffffffffffffffffffff168152602001908152602001600020541015801561061b5750600082115b61062457600080fd5b81600460008673ffffffffffffffffffffffffffffffffffffffff1673ffffffffffffffffffffffffffffffffffffffff16815260200190815260200160002060008282546106739190610e8d565b9250508190555081600460008573ffffffffffffffffffffffffffffffffffffffff1673ffffffffffffffffffffffffffffffffffffffff16815260200190815260200160002060008282546106c99190610ec1565b92505081905550600190509392505050565b600260009054906101000a900460ff1681565b60035481565b6000600460008373ffffffffffffffffffffffffffffffffffffffff1673ffffffffffffffffffffffffffffffffffffffff168152602001908152602001600020549050919050565b6001805461074a90610e2d565b80601f016020809104026020016040519081016040528092919081815260200182805461077690610e2d565b80156107c35780601f10610798576101008083540402835291602001916107c3565b820191906000526020600020905b8154815290600101906020018083116107a657829003601f168201915b505050505081565b6000828211156107da57600080fd5b81836107e69190610e8d565b905092915050565b600081600460003373ffffffffffffffffffffffffffffffffffffffff1673ffffffffffffffffffffffffffffffffffffffff168152602001908152602001600020541015801561083f5750600082115b61084857600080fd5b610891600460003373ffffffffffffffffffffffffffffffffffffffff1673ffffffffffffffffffffffffffffffffffffffff16815260200190815260200160002054836107cb565b600460003373ffffffffffffffffffffffffffffffffffffffff1673ffffffffffffffffffffffffffffffffffffffff1681526020019081526020016000208190555061091d600460008573ffffffffffffffffffffffffffffffffffffffff1673ffffffffffffffffffffffffffffffffffffffff1681526020019081526020016000205483610ab0565b600460008573ffffffffffffffffffffffffffffffffffffffff1673ffffffffffffffffffffffffffffffffffffffff168152602001908152602001600020819055508273ffffffffffffffffffffffffffffffffffffffff163373ffffffffffffffffffffffffffffffffffffffff167fddf252ad1be2c89b69c2b068fc378daa952ba7f163c4a11628f55a4df523b3ef846040516109bd9190610cac565b60405180910390a36001905092915050565b60008082116109dd57600080fd5b81836109e99190610f46565b905092915050565b600081836109ff9190610f77565b90506000831480610a1a5750818382610a189190610f46565b145b610a2357600080fd5b92915050565b6000600560008473ffffffffffffffffffffffffffffffffffffffff1673ffffffffffffffffffffffffffffffffffffffff16815260200190815260200160002060008373ffffffffffffffffffffffffffffffffffffffff1673ffffffffffffffffffffffffffffffffffffffff16815260200190815260200160002054905092915050565b60008183610abe9190610ec1565b905082811015610acd57600080fd5b92915050565b600081519050919050565b600082825260208201905092915050565b60005b83811015610b0d578082015181840152602081019050610af2565b83811115610b1c576000848401525b50505050565b6000601f19601f8301169050919050565b6000610b3e82610ad3565b610b488185610ade565b9350610b58818560208601610aef565b610b6181610b22565b840191505092915050565b60006020820190508181036000830152610b868184610b33565b905092915050565b600080fd5b600073ffffffffffffffffffffffffffffffffffffffff82169050919050565b6000610bbe82610b93565b9050919050565b610bce81610bb3565b8114610bd957600080fd5b50565b600081359050610beb81610bc5565b92915050565b6000819050919050565b610c0481610bf1565b8114610c0f57600080fd5b50565b600081359050610c2181610bfb565b92915050565b60008060408385031215610c3e57610c3d610b8e565b5b6000610c4c85828601610bdc565b9250506020610c5d85828601610c12565b9150509250929050565b60008115159050919050565b610c7c81610c67565b82525050565b6000602082019050610c976000830184610c73565b92915050565b610ca681610bf1565b82525050565b6000602082019050610cc16000830184610c9d565b92915050565b600080600060608486031215610ce057610cdf610b8e565b5b6000610cee86828701610bdc565b9350506020610cff86828701610bdc565b9250506040610d1086828701610c12565b9150509250925092565b600060ff82169050919050565b610d3081610d1a565b82525050565b6000602082019050610d4b6000830184610d27565b92915050565b600060208284031215610d6757610d66610b8e565b5b6000610d7584828501610bdc565b91505092915050565b60008060408385031215610d9557610d94610b8e565b5b6000610da385828601610c12565b9250506020610db485828601610c12565b9150509250929050565b60008060408385031215610dd557610dd4610b8e565b5b6000610de385828601610bdc565b9250506020610df485828601610bdc565b9150509250929050565b7f4e487b7100000000000000000000000000000000000000000000000000000000600052602260045260246000fd5b60006002820490506001821680610e4557607f821691505b602082108103610e5857610e57610dfe565b5b50919050565b7f4e487b7100000000000000000000000000000000000000000000000000000000600052601160045260246000fd5b6000610e9882610bf1565b9150610ea383610bf1565b925082821015610eb657610eb5610e5e565b5b828203905092915050565b6000610ecc82610bf1565b9150610ed783610bf1565b9250827fffffffffffffffffffffffffffffffffffffffffffffffffffffffffffffffff03821115610f0c57610f0b610e5e565b5b828201905092915050565b7f4e487b7100000000000000000000000000000000000000000000000000000000600052601260045260246000fd5b6000610f5182610bf1565b9150610f5c83610bf1565b925082610f6c57610f6b610f17565b5b828204905092915050565b6000610f8282610bf1565b9150610f8d83610bf1565b9250817fffffffffffffffffffffffffffffffffffffffffffffffffffffffffffffffff0483118215151615610fc657610fc5610e5e565b5b82820290509291505056fea2646970667358221220dcf758d0502bc5fffc6693979998f5c444c5213f7bf2aa65d658fa373b2be32f64736f6c634300080d0033","opcodes":"PUSH1 0x80 PUSH1 0x40 MSTORE CALLVALUE DUP1 ISZERO PUSH3 0x11 JUMPI PUSH1 0x0 DUP1 REVERT JUMPDEST POP CALLER PUSH1 0x3 PUSH1 0x0 PUSH2 0x100 EXP DUP2 SLOAD DUP2 PUSH20 0xFFFFFFFFFFFFFFFFFFFFFFFFFFFFFFFFFFFFFFFF MUL NOT AND SWAP1 DUP4 PUSH20 0xFFFFFFFFFFFFFFFFFFFFFFFFFFFFFFFFFFFFFFFF AND MUL OR SWAP1 SSTORE POP PUSH1 0x40 MLOAD PUSH3 0x61 SWAP1 PUSH3 0xD4 JUMP JUMPDEST PUSH1 0x40 MLOAD DUP1 SWAP2 SUB SWAP1 PUSH1 0x0 CREATE DUP1 ISZERO DUP1 ISZERO PUSH3 0x7E JUMPI RETURNDATASIZE PUSH1 0x0 DUP1 RETURNDATACOPY RETURNDATASIZE PUSH1 0x0 REVERT JUMPDEST POP PUSH1 0x7 PUSH1 0x0 PUSH2 0x100 EXP DUP2 SLOAD DUP2 PUSH20 0xFFFFFFFFFFFFFFFFFFFFFFFFFFFFFFFFFFFFFFFF MUL NOT AND SWAP1 DUP4 PUSH20 0xFFFFFFFFFFFFFFFFFFFFFFFFFFFFFFFFFFFFFFFF AND MUL OR SWAP1 SSTORE POP PUSH1 0x0 DUP1 DUP2 SWAP1 SSTORE POP PUSH1 0x0 PUSH1 0x1 DUP2 SWAP1 SSTORE POP PUSH3 0xE2 JUMP JUMPDEST PUSH2 0x12F4 DUP1 PUSH3 0x5C69 DUP4 CODECOPY ADD SWAP1 JUMP JUMPDEST PUSH2 0x5B77 DUP1 PUSH3 0xF2 PUSH1 0x0 CODECOPY PUSH1 0x0 RETURN INVALID PUSH1 0x80 PUSH1 0x40 MSTORE PUSH1 0x4 CALLDATASIZE LT PUSH3 0x116 JUMPI PUSH1 0x0 CALLDATALOAD PUSH1 0xE0 SHR DUP1 PUSH4 0xA293D1E8 GT PUSH3 0xA3 JUMPI DUP1 PUSH4 0xCAC43EB4 GT PUSH3 0x6D JUMPI DUP1 PUSH4 0xCAC43EB4 EQ PUSH3 0x3F1 JUMPI DUP1 PUSH4 0xCE308132 EQ PUSH3 0x435 JUMPI DUP1 PUSH4 0xD05C78DA EQ PUSH3 0x465 JUMPI DUP1 PUSH4 0xD3838F52 EQ PUSH3 0x4A9 JUMPI DUP1 PUSH4 0xE6CB9013 EQ PUSH3 0x4D9 JUMPI PUSH3 0x116 JUMP JUMPDEST DUP1 PUSH4 0xA293D1E8 EQ PUSH3 0x303 JUMPI DUP1 PUSH4 0xB5931F7C EQ PUSH3 0x347 JUMPI DUP1 PUSH4 0xB6AC6DE5 EQ PUSH3 0x38B JUMPI DUP1 PUSH4 0xB9058947 EQ PUSH3 0x3C1 JUMPI PUSH3 0x116 JUMP JUMPDEST DUP1 PUSH4 0x46C12C47 GT PUSH3 0xE5 JUMPI DUP1 PUSH4 0x46C12C47 EQ PUSH3 0x207 JUMPI DUP1 PUSH4 0x5792C584 EQ PUSH3 0x237 JUMPI DUP1 PUSH4 0x5A4DD47D EQ PUSH3 0x27B JUMPI DUP1 PUSH4 0x9B96EECE EQ PUSH3 0x2BF JUMPI PUSH3 0x116 JUMP JUMPDEST DUP1 PUSH4 0xAEFD3A9 EQ PUSH3 0x11B JUMPI DUP1 PUSH4 0xC8946DC EQ PUSH3 0x15F JUMPI DUP1 PUSH4 0x15740214 EQ PUSH3 0x1A3 JUMPI DUP1 PUSH4 0x3610724E EQ PUSH3 0x1D1 JUMPI JUMPDEST PUSH1 0x0 DUP1 REVERT JUMPDEST CALLVALUE DUP1 ISZERO PUSH3 0x128 JUMPI PUSH1 0x0 DUP1 REVERT JUMPDEST POP PUSH3 0x147 PUSH1 0x4 DUP1 CALLDATASIZE SUB DUP2 ADD SWAP1 PUSH3 0x141 SWAP2 SWAP1 PUSH3 0x1FD7 JUMP JUMPDEST PUSH3 0x51D JUMP JUMPDEST PUSH1 0x40 MLOAD PUSH3 0x156 SWAP2 SWAP1 PUSH3 0x2050 JUMP JUMPDEST PUSH1 0x40 MLOAD DUP1 SWAP2 SUB SWAP1 RETURN JUMPDEST CALLVALUE DUP1 ISZERO PUSH3 0x16C JUMPI PUSH1 0x0 DUP1 REVERT JUMPDEST POP PUSH3 0x18B PUSH1 0x4 DUP1 CALLDATASIZE SUB DUP2 ADD SWAP1 PUSH3 0x185 SWAP2 SWAP1 PUSH3 0x206D JUMP JUMPDEST PUSH3 0x688 JUMP JUMPDEST PUSH1 0x40 MLOAD PUSH3 0x19A SWAP2 SWAP1 PUSH3 0x20B0 JUMP JUMPDEST PUSH1 0x40 MLOAD DUP1 SWAP2 SUB SWAP1 RETURN JUMPDEST CALLVALUE DUP1 ISZERO PUSH3 0x1B0 JUMPI PUSH1 0x0 DUP1 REVERT JUMPDEST POP PUSH3 0x1CF PUSH1 0x4 DUP1 CALLDATASIZE SUB DUP2 ADD SWAP1 PUSH3 0x1C9 SWAP2 SWAP1 PUSH3 0x20CD JUMP JUMPDEST PUSH3 0x736 JUMP JUMPDEST STOP JUMPDEST PUSH3 0x1EF PUSH1 0x4 DUP1 CALLDATASIZE SUB DUP2 ADD SWAP1 PUSH3 0x1E9 SWAP2 SWAP1 PUSH3 0x206D JUMP JUMPDEST PUSH3 0xA79 JUMP JUMPDEST PUSH1 0x40 MLOAD PUSH3 0x1FE SWAP2 SWAP1 PUSH3 0x2050 JUMP JUMPDEST PUSH1 0x40 MLOAD DUP1 SWAP2 SUB SWAP1 RETURN JUMPDEST CALLVALUE DUP1 ISZERO PUSH3 0x214 JUMPI PUSH1 0x0 DUP1 REVERT JUMPDEST POP PUSH3 0x21F PUSH3 0xC56 JUMP JUMPDEST PUSH1 0x40 MLOAD PUSH3 0x22E SWAP2 SWAP1 PUSH3 0x21E2 JUMP JUMPDEST PUSH1 0x40 MLOAD DUP1 SWAP2 SUB SWAP1 RETURN JUMPDEST CALLVALUE DUP1 ISZERO PUSH3 0x244 JUMPI PUSH1 0x0 DUP1 REVERT JUMPDEST POP PUSH3 0x263 PUSH1 0x4 DUP1 CALLDATASIZE SUB DUP2 ADD SWAP1 PUSH3 0x25D SWAP2 SWAP1 PUSH3 0x2368 JUMP JUMPDEST PUSH3 0xE1E JUMP JUMPDEST PUSH1 0x40 MLOAD PUSH3 0x272 SWAP2 SWAP1 PUSH3 0x2050 JUMP JUMPDEST PUSH1 0x40 MLOAD DUP1 SWAP2 SUB SWAP1 RETURN JUMPDEST CALLVALUE DUP1 ISZERO PUSH3 0x288 JUMPI PUSH1 0x0 DUP1 REVERT JUMPDEST POP PUSH3 0x2A7 PUSH1 0x4 DUP1 CALLDATASIZE SUB DUP2 ADD SWAP1 PUSH3 0x2A1 SWAP2 SWAP1 PUSH3 0x206D JUMP JUMPDEST PUSH3 0x10EB JUMP JUMPDEST PUSH1 0x40 MLOAD PUSH3 0x2B6 SWAP2 SWAP1 PUSH3 0x20B0 JUMP JUMPDEST PUSH1 0x40 MLOAD DUP1 SWAP2 SUB SWAP1 RETURN JUMPDEST CALLVALUE DUP1 ISZERO PUSH3 0x2CC JUMPI PUSH1 0x0 DUP1 REVERT JUMPDEST POP PUSH3 0x2EB PUSH1 0x4 DUP1 CALLDATASIZE SUB DUP2 ADD SWAP1 PUSH3 0x2E5 SWAP2 SWAP1 PUSH3 0x2448 JUMP JUMPDEST PUSH3 0x1199 JUMP JUMPDEST PUSH1 0x40 MLOAD PUSH3 0x2FA SWAP2 SWAP1 PUSH3 0x20B0 JUMP JUMPDEST PUSH1 0x40 MLOAD DUP1 SWAP2 SUB SWAP1 RETURN JUMPDEST CALLVALUE DUP1 ISZERO PUSH3 0x310 JUMPI PUSH1 0x0 DUP1 REVERT JUMPDEST POP PUSH3 0x32F PUSH1 0x4 DUP1 CALLDATASIZE SUB DUP2 ADD SWAP1 PUSH3 0x329 SWAP2 SWAP1 PUSH3 0x20CD JUMP JUMPDEST PUSH3 0x1243 JUMP JUMPDEST PUSH1 0x40 MLOAD PUSH3 0x33E SWAP2 SWAP1 PUSH3 0x20B0 JUMP JUMPDEST PUSH1 0x40 MLOAD DUP1 SWAP2 SUB SWAP1 RETURN JUMPDEST CALLVALUE DUP1 ISZERO PUSH3 0x354 JUMPI PUSH1 0x0 DUP1 REVERT JUMPDEST POP PUSH3 0x373 PUSH1 0x4 DUP1 CALLDATASIZE SUB DUP2 ADD SWAP1 PUSH3 0x36D SWAP2 SWAP1 PUSH3 0x20CD JUMP JUMPDEST PUSH3 0x1269 JUMP JUMPDEST PUSH1 0x40 MLOAD PUSH3 0x382 SWAP2 SWAP1 PUSH3 0x20B0 JUMP JUMPDEST PUSH1 0x40 MLOAD DUP1 SWAP2 SUB SWAP1 RETURN JUMPDEST PUSH3 0x3A9 PUSH1 0x4 DUP1 CALLDATASIZE SUB DUP2 ADD SWAP1 PUSH3 0x3A3 SWAP2 SWAP1 PUSH3 0x20CD JUMP JUMPDEST PUSH3 0x128E JUMP JUMPDEST PUSH1 0x40 MLOAD PUSH3 0x3B8 SWAP2 SWAP1 PUSH3 0x2050 JUMP JUMPDEST PUSH1 0x40 MLOAD DUP1 SWAP2 SUB SWAP1 RETURN JUMPDEST CALLVALUE DUP1 ISZERO PUSH3 0x3CE JUMPI PUSH1 0x0 DUP1 REVERT JUMPDEST POP PUSH3 0x3D9 PUSH3 0x1C87 JUMP JUMPDEST PUSH1 0x40 MLOAD PUSH3 0x3E8 SWAP2 SWAP1 PUSH3 0x20B0 JUMP JUMPDEST PUSH1 0x40 MLOAD DUP1 SWAP2 SUB SWAP1 RETURN JUMPDEST CALLVALUE DUP1 ISZERO PUSH3 0x3FE JUMPI PUSH1 0x0 DUP1 REVERT JUMPDEST POP PUSH3 0x41D PUSH1 0x4 DUP1 CALLDATASIZE SUB DUP2 ADD SWAP1 PUSH3 0x417 SWAP2 SWAP1 PUSH3 0x206D JUMP JUMPDEST PUSH3 0x1C90 JUMP JUMPDEST PUSH1 0x40 MLOAD PUSH3 0x42C SWAP2 SWAP1 PUSH3 0x20B0 JUMP JUMPDEST PUSH1 0x40 MLOAD DUP1 SWAP2 SUB SWAP1 RETURN JUMPDEST CALLVALUE DUP1 ISZERO PUSH3 0x442 JUMPI PUSH1 0x0 DUP1 REVERT JUMPDEST POP PUSH3 0x44D PUSH3 0x1D3E JUMP JUMPDEST PUSH1 0x40 MLOAD PUSH3 0x45C SWAP2 SWAP1 PUSH3 0x20B0 JUMP JUMPDEST PUSH1 0x40 MLOAD DUP1 SWAP2 SUB SWAP1 RETURN JUMPDEST CALLVALUE DUP1 ISZERO PUSH3 0x472 JUMPI PUSH1 0x0 DUP1 REVERT JUMPDEST POP PUSH3 0x491 PUSH1 0x4 DUP1 CALLDATASIZE SUB DUP2 ADD SWAP1 PUSH3 0x48B SWAP2 SWAP1 PUSH3 0x20CD JUMP JUMPDEST PUSH3 0x1D48 JUMP JUMPDEST PUSH1 0x40 MLOAD PUSH3 0x4A0 SWAP2 SWAP1 PUSH3 0x20B0 JUMP JUMPDEST PUSH1 0x40 MLOAD DUP1 SWAP2 SUB SWAP1 RETURN JUMPDEST CALLVALUE DUP1 ISZERO PUSH3 0x4B6 JUMPI PUSH1 0x0 DUP1 REVERT JUMPDEST POP PUSH3 0x4C1 PUSH3 0x1D86 JUMP JUMPDEST PUSH1 0x40 MLOAD PUSH3 0x4D0 SWAP2 SWAP1 PUSH3 0x21E2 JUMP JUMPDEST PUSH1 0x40 MLOAD DUP1 SWAP2 SUB SWAP1 RETURN JUMPDEST CALLVALUE DUP1 ISZERO PUSH3 0x4E6 JUMPI PUSH1 0x0 DUP1 REVERT JUMPDEST POP PUSH3 0x505 PUSH1 0x4 DUP1 CALLDATASIZE SUB DUP2 ADD SWAP1 PUSH3 0x4FF SWAP2 SWAP1 PUSH3 0x20CD JUMP JUMPDEST PUSH3 0x1EE9 JUMP JUMPDEST PUSH1 0x40 MLOAD PUSH3 0x514 SWAP2 SWAP1 PUSH3 0x20B0 JUMP JUMPDEST PUSH1 0x40 MLOAD DUP1 SWAP2 SUB SWAP1 RETURN JUMPDEST PUSH1 0x0 DUP3 DUP5 GT PUSH3 0x52C JUMPI PUSH1 0x0 DUP1 REVERT JUMPDEST PUSH1 0x0 DUP3 GT PUSH3 0x53A JUMPI PUSH1 0x0 DUP1 REVERT JUMPDEST PUSH1 0x0 DUP5 GT PUSH3 0x548 JUMPI PUSH1 0x0 DUP1 REVERT JUMPDEST PUSH1 0x0 DUP4 GT PUSH3 0x556 JUMPI PUSH1 0x0 DUP1 REVERT JUMPDEST PUSH1 0x1 PUSH1 0x0 DUP1 DUP3 DUP3 SLOAD PUSH3 0x56A SWAP2 SWAP1 PUSH3 0x24A9 JUMP JUMPDEST SWAP3 POP POP DUP2 SWAP1 SSTORE POP PUSH1 0x0 DUP5 DUP5 DUP5 PUSH1 0x0 SLOAD PUSH1 0x40 MLOAD PUSH3 0x587 SWAP1 PUSH3 0x1F6C JUMP JUMPDEST PUSH3 0x596 SWAP5 SWAP4 SWAP3 SWAP2 SWAP1 PUSH3 0x2506 JUMP JUMPDEST PUSH1 0x40 MLOAD DUP1 SWAP2 SUB SWAP1 PUSH1 0x0 CREATE DUP1 ISZERO DUP1 ISZERO PUSH3 0x5B3 JUMPI RETURNDATASIZE PUSH1 0x0 DUP1 RETURNDATACOPY RETURNDATASIZE PUSH1 0x0 REVERT JUMPDEST POP SWAP1 POP DUP1 PUSH1 0x4 PUSH1 0x0 DUP1 SLOAD DUP2 MSTORE PUSH1 0x20 ADD SWAP1 DUP2 MSTORE PUSH1 0x20 ADD PUSH1 0x0 KECCAK256 PUSH1 0x0 PUSH2 0x100 EXP DUP2 SLOAD DUP2 PUSH20 0xFFFFFFFFFFFFFFFFFFFFFFFFFFFFFFFFFFFFFFFF MUL NOT AND SWAP1 DUP4 PUSH20 0xFFFFFFFFFFFFFFFFFFFFFFFFFFFFFFFFFFFFFFFF AND MUL OR SWAP1 SSTORE POP DUP1 PUSH20 0xFFFFFFFFFFFFFFFFFFFFFFFFFFFFFFFFFFFFFFFF AND PUSH4 0xE2FB9893 CALLER PUSH1 0x0 SLOAD PUSH1 0x40 MLOAD DUP4 PUSH4 0xFFFFFFFF AND PUSH1 0xE0 SHL DUP2 MSTORE PUSH1 0x4 ADD PUSH3 0x648 SWAP3 SWAP2 SWAP1 PUSH3 0x2564 JUMP JUMPDEST PUSH1 0x0 PUSH1 0x40 MLOAD DUP1 DUP4 SUB DUP2 PUSH1 0x0 DUP8 DUP1 EXTCODESIZE ISZERO DUP1 ISZERO PUSH3 0x663 JUMPI PUSH1 0x0 DUP1 REVERT JUMPDEST POP GAS CALL ISZERO DUP1 ISZERO PUSH3 0x678 JUMPI RETURNDATASIZE PUSH1 0x0 DUP1 RETURNDATACOPY RETURNDATASIZE PUSH1 0x0 REVERT JUMPDEST POP POP POP POP PUSH1 0x1 SWAP2 POP POP SWAP4 SWAP3 POP POP POP JUMP JUMPDEST PUSH1 0x0 PUSH1 0x4 PUSH1 0x0 DUP4 DUP2 MSTORE PUSH1 0x20 ADD SWAP1 DUP2 MSTORE PUSH1 0x20 ADD PUSH1 0x0 KECCAK256 PUSH1 0x0 SWAP1 SLOAD SWAP1 PUSH2 0x100 EXP SWAP1 DIV PUSH20 0xFFFFFFFFFFFFFFFFFFFFFFFFFFFFFFFFFFFFFFFF AND PUSH20 0xFFFFFFFFFFFFFFFFFFFFFFFFFFFFFFFFFFFFFFFF AND PUSH4 0xCF22B577 PUSH1 0x40 MLOAD DUP2 PUSH4 0xFFFFFFFF AND PUSH1 0xE0 SHL DUP2 MSTORE PUSH1 0x4 ADD PUSH1 0x20 PUSH1 0x40 MLOAD DUP1 DUP4 SUB DUP2 DUP7 GAS STATICCALL ISZERO DUP1 ISZERO PUSH3 0x709 JUMPI RETURNDATASIZE PUSH1 0x0 DUP1 RETURNDATACOPY RETURNDATASIZE PUSH1 0x0 REVERT JUMPDEST POP POP POP POP PUSH1 0x40 MLOAD RETURNDATASIZE PUSH1 0x1F NOT PUSH1 0x1F DUP3 ADD AND DUP3 ADD DUP1 PUSH1 0x40 MSTORE POP DUP2 ADD SWAP1 PUSH3 0x72F SWAP2 SWAP1 PUSH3 0x25A8 JUMP JUMPDEST SWAP1 POP SWAP2 SWAP1 POP JUMP JUMPDEST PUSH1 0x0 DUP3 EQ ISZERO DUP1 ISZERO PUSH3 0x749 JUMPI POP PUSH1 0x0 DUP2 EQ ISZERO JUMPDEST PUSH3 0x753 JUMPI PUSH1 0x0 DUP1 REVERT JUMPDEST PUSH1 0x4 PUSH1 0x0 DUP4 DUP2 MSTORE PUSH1 0x20 ADD SWAP1 DUP2 MSTORE PUSH1 0x20 ADD PUSH1 0x0 KECCAK256 PUSH1 0x0 SWAP1 SLOAD SWAP1 PUSH2 0x100 EXP SWAP1 DIV PUSH20 0xFFFFFFFFFFFFFFFFFFFFFFFFFFFFFFFFFFFFFFFF AND PUSH20 0xFFFFFFFFFFFFFFFFFFFFFFFFFFFFFFFFFFFFFFFF AND PUSH4 0x6352211E DUP4 PUSH1 0x40 MLOAD DUP3 PUSH4 0xFFFFFFFF AND PUSH1 0xE0 SHL DUP2 MSTORE PUSH1 0x4 ADD PUSH3 0x7C1 SWAP2 SWAP1 PUSH3 0x20B0 JUMP JUMPDEST PUSH1 0x20 PUSH1 0x40 MLOAD DUP1 DUP4 SUB DUP2 DUP7 GAS STATICCALL ISZERO DUP1 ISZERO PUSH3 0x7DF JUMPI RETURNDATASIZE PUSH1 0x0 DUP1 RETURNDATACOPY RETURNDATASIZE PUSH1 0x0 REVERT JUMPDEST POP POP POP POP PUSH1 0x40 MLOAD RETURNDATASIZE PUSH1 0x1F NOT PUSH1 0x1F DUP3 ADD AND DUP3 ADD DUP1 PUSH1 0x40 MSTORE POP DUP2 ADD SWAP1 PUSH3 0x805 SWAP2 SWAP1 PUSH3 0x25F1 JUMP JUMPDEST PUSH20 0xFFFFFFFFFFFFFFFFFFFFFFFFFFFFFFFFFFFFFFFF AND CALLER PUSH20 0xFFFFFFFFFFFFFFFFFFFFFFFFFFFFFFFFFFFFFFFF AND EQ PUSH3 0x83D JUMPI PUSH1 0x0 DUP1 REVERT JUMPDEST DUP2 PUSH1 0x6 PUSH1 0x0 DUP4 DUP2 MSTORE PUSH1 0x20 ADD SWAP1 DUP2 MSTORE PUSH1 0x20 ADD PUSH1 0x0 KECCAK256 SLOAD EQ PUSH3 0x85D JUMPI PUSH1 0x0 DUP1 REVERT JUMPDEST PUSH1 0x4 PUSH1 0x0 DUP4 DUP2 MSTORE PUSH1 0x20 ADD SWAP1 DUP2 MSTORE PUSH1 0x20 ADD PUSH1 0x0 KECCAK256 PUSH1 0x0 SWAP1 SLOAD SWAP1 PUSH2 0x100 EXP SWAP1 DIV PUSH20 0xFFFFFFFFFFFFFFFFFFFFFFFFFFFFFFFFFFFFFFFF AND PUSH20 0xFFFFFFFFFFFFFFFFFFFFFFFFFFFFFFFFFFFFFFFF AND PUSH4 0x1E7EC0F3 DUP3 PUSH1 0x40 MLOAD DUP3 PUSH4 0xFFFFFFFF AND PUSH1 0xE0 SHL DUP2 MSTORE PUSH1 0x4 ADD PUSH3 0x8CB SWAP2 SWAP1 PUSH3 0x20B0 JUMP JUMPDEST PUSH1 0x0 PUSH1 0x40 MLOAD DUP1 DUP4 SUB DUP2 PUSH1 0x0 DUP8 DUP1 EXTCODESIZE ISZERO DUP1 ISZERO PUSH3 0x8E6 JUMPI PUSH1 0x0 DUP1 REVERT JUMPDEST POP GAS CALL ISZERO DUP1 ISZERO PUSH3 0x8FB JUMPI RETURNDATASIZE PUSH1 0x0 DUP1 RETURNDATACOPY RETURNDATASIZE PUSH1 0x0 REVERT JUMPDEST POP POP POP POP PUSH1 0x5 PUSH1 0x0 DUP3 DUP2 MSTORE PUSH1 0x20 ADD SWAP1 DUP2 MSTORE PUSH1 0x20 ADD PUSH1 0x0 KECCAK256 PUSH1 0x0 SWAP1 SLOAD SWAP1 PUSH2 0x100 EXP SWAP1 DIV PUSH20 0xFFFFFFFFFFFFFFFFFFFFFFFFFFFFFFFFFFFFFFFF AND PUSH20 0xFFFFFFFFFFFFFFFFFFFFFFFFFFFFFFFFFFFFFFFF AND PUSH4 0x4A627AEB PUSH1 0x1 PUSH1 0x40 MLOAD DUP3 PUSH4 0xFFFFFFFF AND PUSH1 0xE0 SHL DUP2 MSTORE PUSH1 0x4 ADD PUSH3 0x96E SWAP2 SWAP1 PUSH3 0x2050 JUMP JUMPDEST PUSH1 0x0 PUSH1 0x40 MLOAD DUP1 DUP4 SUB DUP2 PUSH1 0x0 DUP8 DUP1 EXTCODESIZE ISZERO DUP1 ISZERO PUSH3 0x989 JUMPI PUSH1 0x0 DUP1 REVERT JUMPDEST POP GAS CALL ISZERO DUP1 ISZERO PUSH3 0x99E JUMPI RETURNDATASIZE PUSH1 0x0 DUP1 RETURNDATACOPY RETURNDATASIZE PUSH1 0x0 REVERT JUMPDEST POP POP POP POP PUSH1 0x4 PUSH1 0x0 DUP4 DUP2 MSTORE PUSH1 0x20 ADD SWAP1 DUP2 MSTORE PUSH1 0x20 ADD PUSH1 0x0 KECCAK256 PUSH1 0x0 SWAP1 SLOAD SWAP1 PUSH2 0x100 EXP SWAP1 DIV PUSH20 0xFFFFFFFFFFFFFFFFFFFFFFFFFFFFFFFFFFFFFFFF AND PUSH20 0xFFFFFFFFFFFFFFFFFFFFFFFFFFFFFFFFFFFFFFFF AND PUSH4 0x2B81FF95 PUSH1 0x1 PUSH1 0x40 MLOAD DUP3 PUSH4 0xFFFFFFFF AND PUSH1 0xE0 SHL DUP2 MSTORE PUSH1 0x4 ADD PUSH3 0xA11 SWAP2 SWAP1 PUSH3 0x2050 JUMP JUMPDEST PUSH1 0x0 PUSH1 0x40 MLOAD DUP1 DUP4 SUB DUP2 PUSH1 0x0 DUP8 DUP1 EXTCODESIZE ISZERO DUP1 ISZERO PUSH3 0xA2C JUMPI PUSH1 0x0 DUP1 REVERT JUMPDEST POP GAS CALL ISZERO DUP1 ISZERO PUSH3 0xA41 JUMPI RETURNDATASIZE PUSH1 0x0 DUP1 RETURNDATACOPY RETURNDATASIZE PUSH1 0x0 REVERT JUMPDEST POP POP POP POP PUSH1 0x0 PUSH1 0x6 PUSH1 0x0 DUP4 DUP2 MSTORE PUSH1 0x20 ADD SWAP1 DUP2 MSTORE PUSH1 0x20 ADD PUSH1 0x0 KECCAK256 DUP2 SWAP1 SSTORE POP PUSH1 0x1 PUSH1 0x2 SLOAD PUSH3 0xA6F SWAP2 SWAP1 PUSH3 0x2623 JUMP JUMPDEST PUSH1 0x2 DUP2 SWAP1 SSTORE POP POP POP JUMP JUMPDEST PUSH1 0x0 PUSH3 0xA89 DUP3 PUSH2 0x3E8 PUSH3 0x1D48 JUMP JUMPDEST CALLVALUE GT PUSH3 0xA95 JUMPI PUSH1 0x0 DUP1 REVERT JUMPDEST PUSH1 0x0 PUSH3 0xAB2 DUP4 PUSH1 0x12 PUSH1 0xA PUSH3 0xAAC SWAP2 SWAP1 PUSH3 0x27BF JUMP JUMPDEST PUSH3 0x1D48 JUMP JUMPDEST SWAP1 POP DUP1 PUSH1 0x7 PUSH1 0x0 SWAP1 SLOAD SWAP1 PUSH2 0x100 EXP SWAP1 DIV PUSH20 0xFFFFFFFFFFFFFFFFFFFFFFFFFFFFFFFFFFFFFFFF AND PUSH20 0xFFFFFFFFFFFFFFFFFFFFFFFFFFFFFFFFFFFFFFFF AND PUSH4 0x70A08231 ADDRESS PUSH1 0x40 MLOAD DUP3 PUSH4 0xFFFFFFFF AND PUSH1 0xE0 SHL DUP2 MSTORE PUSH1 0x4 ADD PUSH3 0xB12 SWAP2 SWAP1 PUSH3 0x2810 JUMP JUMPDEST PUSH1 0x20 PUSH1 0x40 MLOAD DUP1 DUP4 SUB DUP2 DUP7 GAS STATICCALL ISZERO DUP1 ISZERO PUSH3 0xB30 JUMPI RETURNDATASIZE PUSH1 0x0 DUP1 RETURNDATACOPY RETURNDATASIZE PUSH1 0x0 REVERT JUMPDEST POP POP POP POP PUSH1 0x40 MLOAD RETURNDATASIZE PUSH1 0x1F NOT PUSH1 0x1F DUP3 ADD AND DUP3 ADD DUP1 PUSH1 0x40 MSTORE POP DUP2 ADD SWAP1 PUSH3 0xB56 SWAP2 SWAP1 PUSH3 0x25A8 JUMP JUMPDEST LT ISZERO PUSH3 0xB62 JUMPI PUSH1 0x0 DUP1 REVERT JUMPDEST PUSH1 0x7 PUSH1 0x0 SWAP1 SLOAD SWAP1 PUSH2 0x100 EXP SWAP1 DIV PUSH20 0xFFFFFFFFFFFFFFFFFFFFFFFFFFFFFFFFFFFFFFFF AND PUSH20 0xFFFFFFFFFFFFFFFFFFFFFFFFFFFFFFFFFFFFFFFF AND PUSH4 0xA9059CBB CALLER DUP4 PUSH1 0x40 MLOAD DUP4 PUSH4 0xFFFFFFFF AND PUSH1 0xE0 SHL DUP2 MSTORE PUSH1 0x4 ADD PUSH3 0xBC1 SWAP3 SWAP2 SWAP1 PUSH3 0x2564 JUMP JUMPDEST PUSH1 0x20 PUSH1 0x40 MLOAD DUP1 DUP4 SUB DUP2 PUSH1 0x0 DUP8 GAS CALL ISZERO DUP1 ISZERO PUSH3 0xBE1 JUMPI RETURNDATASIZE PUSH1 0x0 DUP1 RETURNDATACOPY RETURNDATASIZE PUSH1 0x0 REVERT JUMPDEST POP POP POP POP PUSH1 0x40 MLOAD RETURNDATASIZE PUSH1 0x1F NOT PUSH1 0x1F DUP3 ADD AND DUP3 ADD DUP1 PUSH1 0x40 MSTORE POP DUP2 ADD SWAP1 PUSH3 0xC07 SWAP2 SWAP1 PUSH3 0x285E JUMP JUMPDEST PUSH3 0xC11 JUMPI PUSH1 0x0 DUP1 REVERT JUMPDEST PUSH32 0xAE92AB4B6F8F401EAD768D3273E6BB937A13E39827D19C6376E8FD4512A05D9A CALLER DUP3 PUSH1 0x40 MLOAD PUSH3 0xC44 SWAP3 SWAP2 SWAP1 PUSH3 0x2564 JUMP JUMPDEST PUSH1 0x40 MLOAD DUP1 SWAP2 SUB SWAP1 LOG1 PUSH1 0x1 SWAP2 POP POP SWAP2 SWAP1 POP JUMP JUMPDEST PUSH1 0x60 PUSH1 0x0 PUSH1 0x2 SLOAD PUSH8 0xFFFFFFFFFFFFFFFF DUP2 GT ISZERO PUSH3 0xC79 JUMPI PUSH3 0xC78 PUSH3 0x2221 JUMP JUMPDEST JUMPDEST PUSH1 0x40 MLOAD SWAP1 DUP1 DUP3 MSTORE DUP1 PUSH1 0x20 MUL PUSH1 0x20 ADD DUP3 ADD PUSH1 0x40 MSTORE DUP1 ISZERO PUSH3 0xCA8 JUMPI DUP2 PUSH1 0x20 ADD PUSH1 0x20 DUP3 MUL DUP1 CALLDATASIZE DUP4 CALLDATACOPY DUP1 DUP3 ADD SWAP2 POP POP SWAP1 POP JUMPDEST POP SWAP1 POP PUSH1 0x0 DUP1 PUSH1 0x1 SWAP1 POP JUMPDEST PUSH1 0x2 SLOAD DUP2 GT PUSH3 0xE15 JUMPI PUSH1 0x0 PUSH1 0x6 PUSH1 0x0 DUP4 DUP2 MSTORE PUSH1 0x20 ADD SWAP1 DUP2 MSTORE PUSH1 0x20 ADD PUSH1 0x0 KECCAK256 SLOAD SWAP1 POP PUSH1 0x0 DUP2 EQ PUSH3 0xDFE JUMPI PUSH1 0x0 PUSH1 0x4 PUSH1 0x0 DUP4 DUP2 MSTORE PUSH1 0x20 ADD SWAP1 DUP2 MSTORE PUSH1 0x20 ADD PUSH1 0x0 KECCAK256 PUSH1 0x0 SWAP1 SLOAD SWAP1 PUSH2 0x100 EXP SWAP1 DIV PUSH20 0xFFFFFFFFFFFFFFFFFFFFFFFFFFFFFFFFFFFFFFFF AND PUSH20 0xFFFFFFFFFFFFFFFFFFFFFFFFFFFFFFFFFFFFFFFF AND PUSH4 0x6352211E DUP4 PUSH1 0x40 MLOAD DUP3 PUSH4 0xFFFFFFFF AND PUSH1 0xE0 SHL DUP2 MSTORE PUSH1 0x4 ADD PUSH3 0xD4E SWAP2 SWAP1 PUSH3 0x20B0 JUMP JUMPDEST PUSH1 0x20 PUSH1 0x40 MLOAD DUP1 DUP4 SUB DUP2 DUP7 GAS STATICCALL ISZERO DUP1 ISZERO PUSH3 0xD6C JUMPI RETURNDATASIZE PUSH1 0x0 DUP1 RETURNDATACOPY RETURNDATASIZE PUSH1 0x0 REVERT JUMPDEST POP POP POP POP PUSH1 0x40 MLOAD RETURNDATASIZE PUSH1 0x1F NOT PUSH1 0x1F DUP3 ADD AND DUP3 ADD DUP1 PUSH1 0x40 MSTORE POP DUP2 ADD SWAP1 PUSH3 0xD92 SWAP2 SWAP1 PUSH3 0x25F1 JUMP JUMPDEST SWAP1 POP CALLER PUSH20 0xFFFFFFFFFFFFFFFFFFFFFFFFFFFFFFFFFFFFFFFF AND DUP2 PUSH20 0xFFFFFFFFFFFFFFFFFFFFFFFFFFFFFFFFFFFFFFFF AND SUB PUSH3 0xDFC JUMPI DUP3 DUP6 DUP6 DUP2 MLOAD DUP2 LT PUSH3 0xDDF JUMPI PUSH3 0xDDE PUSH3 0x2890 JUMP JUMPDEST JUMPDEST PUSH1 0x20 MUL PUSH1 0x20 ADD ADD DUP2 DUP2 MSTORE POP POP DUP4 DUP1 PUSH3 0xDF8 SWAP1 PUSH3 0x28BF JUMP JUMPDEST SWAP5 POP POP JUMPDEST POP JUMPDEST POP DUP1 DUP1 PUSH3 0xE0C SWAP1 PUSH3 0x28BF JUMP JUMPDEST SWAP2 POP POP PUSH3 0xCB3 JUMP JUMPDEST POP DUP2 SWAP3 POP POP POP SWAP1 JUMP JUMPDEST PUSH1 0x0 DUP3 DUP5 GT PUSH3 0xE2D JUMPI PUSH1 0x0 DUP1 REVERT JUMPDEST PUSH1 0x0 DUP5 GT PUSH3 0xE3B JUMPI PUSH1 0x0 DUP1 REVERT JUMPDEST PUSH1 0x0 DUP4 GT PUSH3 0xE49 JUMPI PUSH1 0x0 DUP1 REVERT JUMPDEST PUSH3 0xE8A DUP3 PUSH1 0x40 MLOAD DUP1 PUSH1 0x40 ADD PUSH1 0x40 MSTORE DUP1 PUSH1 0xB DUP2 MSTORE PUSH1 0x20 ADD PUSH32 0x5065737469636964612041000000000000000000000000000000000000000000 DUP2 MSTORE POP PUSH3 0x1F0F JUMP JUMPDEST DUP1 PUSH3 0xED3 JUMPI POP PUSH3 0xED2 DUP3 PUSH1 0x40 MLOAD DUP1 PUSH1 0x40 ADD PUSH1 0x40 MSTORE DUP1 PUSH1 0xB DUP2 MSTORE PUSH1 0x20 ADD PUSH32 0x5065737469636964612042000000000000000000000000000000000000000000 DUP2 MSTORE POP PUSH3 0x1F0F JUMP JUMPDEST JUMPDEST DUP1 PUSH3 0xF1C JUMPI POP PUSH3 0xF1B DUP3 PUSH1 0x40 MLOAD DUP1 PUSH1 0x40 ADD PUSH1 0x40 MSTORE DUP1 PUSH1 0xB DUP2 MSTORE PUSH1 0x20 ADD PUSH32 0x5065737469636964612043000000000000000000000000000000000000000000 DUP2 MSTORE POP PUSH3 0x1F0F JUMP JUMPDEST JUMPDEST DUP1 PUSH3 0xF65 JUMPI POP PUSH3 0xF64 DUP3 PUSH1 0x40 MLOAD DUP1 PUSH1 0x40 ADD PUSH1 0x40 MSTORE DUP1 PUSH1 0xB DUP2 MSTORE PUSH1 0x20 ADD PUSH32 0x5065737469636964612044000000000000000000000000000000000000000000 DUP2 MSTORE POP PUSH3 0x1F0F JUMP JUMPDEST JUMPDEST DUP1 PUSH3 0xFAE JUMPI POP PUSH3 0xFAD DUP3 PUSH1 0x40 MLOAD DUP1 PUSH1 0x40 ADD PUSH1 0x40 MSTORE DUP1 PUSH1 0xB DUP2 MSTORE PUSH1 0x20 ADD PUSH32 0x5065737469636964612045000000000000000000000000000000000000000000 DUP2 MSTORE POP PUSH3 0x1F0F JUMP JUMPDEST JUMPDEST PUSH3 0xFB8 JUMPI PUSH1 0x0 DUP1 REVERT JUMPDEST PUSH1 0x1 DUP1 PUSH1 0x0 DUP3 DUP3 SLOAD PUSH3 0xFCC SWAP2 SWAP1 PUSH3 0x24A9 JUMP JUMPDEST SWAP3 POP POP DUP2 SWAP1 SSTORE POP PUSH1 0x0 DUP5 DUP5 PUSH1 0x1 SLOAD DUP6 PUSH1 0x40 MLOAD PUSH3 0xFE9 SWAP1 PUSH3 0x1F7A JUMP JUMPDEST PUSH3 0xFF8 SWAP5 SWAP4 SWAP3 SWAP2 SWAP1 PUSH3 0x299F JUMP JUMPDEST PUSH1 0x40 MLOAD DUP1 SWAP2 SUB SWAP1 PUSH1 0x0 CREATE DUP1 ISZERO DUP1 ISZERO PUSH3 0x1015 JUMPI RETURNDATASIZE PUSH1 0x0 DUP1 RETURNDATACOPY RETURNDATASIZE PUSH1 0x0 REVERT JUMPDEST POP SWAP1 POP DUP1 PUSH1 0x5 PUSH1 0x0 PUSH1 0x1 SLOAD DUP2 MSTORE PUSH1 0x20 ADD SWAP1 DUP2 MSTORE PUSH1 0x20 ADD PUSH1 0x0 KECCAK256 PUSH1 0x0 PUSH2 0x100 EXP DUP2 SLOAD DUP2 PUSH20 0xFFFFFFFFFFFFFFFFFFFFFFFFFFFFFFFFFFFFFFFF MUL NOT AND SWAP1 DUP4 PUSH20 0xFFFFFFFFFFFFFFFFFFFFFFFFFFFFFFFFFFFFFFFF AND MUL OR SWAP1 SSTORE POP DUP1 PUSH20 0xFFFFFFFFFFFFFFFFFFFFFFFFFFFFFFFFFFFFFFFF AND PUSH4 0x7194C2E8 CALLER PUSH1 0x1 SLOAD PUSH1 0x40 MLOAD DUP4 PUSH4 0xFFFFFFFF AND PUSH1 0xE0 SHL DUP2 MSTORE PUSH1 0x4 ADD PUSH3 0x10AB SWAP3 SWAP2 SWAP1 PUSH3 0x2564 JUMP JUMPDEST PUSH1 0x0 PUSH1 0x40 MLOAD DUP1 DUP4 SUB DUP2 PUSH1 0x0 DUP8 DUP1 EXTCODESIZE ISZERO DUP1 ISZERO PUSH3 0x10C6 JUMPI PUSH1 0x0 DUP1 REVERT JUMPDEST POP GAS CALL ISZERO DUP1 ISZERO PUSH3 0x10DB JUMPI RETURNDATASIZE PUSH1 0x0 DUP1 RETURNDATACOPY RETURNDATASIZE PUSH1 0x0 REVERT JUMPDEST POP POP POP POP PUSH1 0x1 SWAP2 POP POP SWAP4 SWAP3 POP POP POP JUMP JUMPDEST PUSH1 0x0 PUSH1 0x4 PUSH1 0x0 DUP4 DUP2 MSTORE PUSH1 0x20 ADD SWAP1 DUP2 MSTORE PUSH1 0x20 ADD PUSH1 0x0 KECCAK256 PUSH1 0x0 SWAP1 SLOAD SWAP1 PUSH2 0x100 EXP SWAP1 DIV PUSH20 0xFFFFFFFFFFFFFFFFFFFFFFFFFFFFFFFFFFFFFFFF AND PUSH20 0xFFFFFFFFFFFFFFFFFFFFFFFFFFFFFFFFFFFFFFFF AND PUSH4 0xBD3E19D4 PUSH1 0x40 MLOAD DUP2 PUSH4 0xFFFFFFFF AND PUSH1 0xE0 SHL DUP2 MSTORE PUSH1 0x4 ADD PUSH1 0x20 PUSH1 0x40 MLOAD DUP1 DUP4 SUB DUP2 DUP7 GAS STATICCALL ISZERO DUP1 ISZERO PUSH3 0x116C JUMPI RETURNDATASIZE PUSH1 0x0 DUP1 RETURNDATACOPY RETURNDATASIZE PUSH1 0x0 REVERT JUMPDEST POP POP POP POP PUSH1 0x40 MLOAD RETURNDATASIZE PUSH1 0x1F NOT PUSH1 0x1F DUP3 ADD AND DUP3 ADD DUP1 PUSH1 0x40 MSTORE POP DUP2 ADD SWAP1 PUSH3 0x1192 SWAP2 SWAP1 PUSH3 0x25A8 JUMP JUMPDEST SWAP1 POP SWAP2 SWAP1 POP JUMP JUMPDEST PUSH1 0x0 PUSH1 0x7 PUSH1 0x0 SWAP1 SLOAD SWAP1 PUSH2 0x100 EXP SWAP1 DIV PUSH20 0xFFFFFFFFFFFFFFFFFFFFFFFFFFFFFFFFFFFFFFFF AND PUSH20 0xFFFFFFFFFFFFFFFFFFFFFFFFFFFFFFFFFFFFFFFF AND PUSH4 0x70A08231 DUP4 PUSH1 0x40 MLOAD DUP3 PUSH4 0xFFFFFFFF AND PUSH1 0xE0 SHL DUP2 MSTORE PUSH1 0x4 ADD PUSH3 0x11F8 SWAP2 SWAP1 PUSH3 0x2810 JUMP JUMPDEST PUSH1 0x20 PUSH1 0x40 MLOAD DUP1 DUP4 SUB DUP2 DUP7 GAS STATICCALL ISZERO DUP1 ISZERO PUSH3 0x1216 JUMPI RETURNDATASIZE PUSH1 0x0 DUP1 RETURNDATACOPY RETURNDATASIZE PUSH1 0x0 REVERT JUMPDEST POP POP POP POP PUSH1 0x40 MLOAD RETURNDATASIZE PUSH1 0x1F NOT PUSH1 0x1F DUP3 ADD AND DUP3 ADD DUP1 PUSH1 0x40 MSTORE POP DUP2 ADD SWAP1 PUSH3 0x123C SWAP2 SWAP1 PUSH3 0x25A8 JUMP JUMPDEST SWAP1 POP SWAP2 SWAP1 POP JUMP JUMPDEST PUSH1 0x0 DUP3 DUP3 GT ISZERO PUSH3 0x1253 JUMPI PUSH1 0x0 DUP1 REVERT JUMPDEST DUP2 DUP4 PUSH3 0x1261 SWAP2 SWAP1 PUSH3 0x2623 JUMP JUMPDEST SWAP1 POP SWAP3 SWAP2 POP POP JUMP JUMPDEST PUSH1 0x0 DUP1 DUP3 GT PUSH3 0x1278 JUMPI PUSH1 0x0 DUP1 REVERT JUMPDEST DUP2 DUP4 PUSH3 0x1286 SWAP2 SWAP1 PUSH3 0x2A22 JUMP JUMPDEST SWAP1 POP SWAP3 SWAP2 POP POP JUMP JUMPDEST PUSH1 0x0 DUP1 DUP4 EQ ISZERO DUP1 ISZERO PUSH3 0x12A2 JUMPI POP PUSH1 0x0 DUP3 EQ ISZERO JUMPDEST PUSH3 0x12AC JUMPI PUSH1 0x0 DUP1 REVERT JUMPDEST PUSH1 0x0 PUSH1 0x4 PUSH1 0x0 DUP6 DUP2 MSTORE PUSH1 0x20 ADD SWAP1 DUP2 MSTORE PUSH1 0x20 ADD PUSH1 0x0 KECCAK256 PUSH1 0x0 SWAP1 SLOAD SWAP1 PUSH2 0x100 EXP SWAP1 DIV PUSH20 0xFFFFFFFFFFFFFFFFFFFFFFFFFFFFFFFFFFFFFFFF AND PUSH20 0xFFFFFFFFFFFFFFFFFFFFFFFFFFFFFFFFFFFFFFFF AND PUSH4 0x6352211E DUP6 PUSH1 0x40 MLOAD DUP3 PUSH4 0xFFFFFFFF AND PUSH1 0xE0 SHL DUP2 MSTORE PUSH1 0x4 ADD PUSH3 0x131C SWAP2 SWAP1 PUSH3 0x20B0 JUMP JUMPDEST PUSH1 0x20 PUSH1 0x40 MLOAD DUP1 DUP4 SUB DUP2 DUP7 GAS STATICCALL ISZERO DUP1 ISZERO PUSH3 0x133A JUMPI RETURNDATASIZE PUSH1 0x0 DUP1 RETURNDATACOPY RETURNDATASIZE PUSH1 0x0 REVERT JUMPDEST POP POP POP POP PUSH1 0x40 MLOAD RETURNDATASIZE PUSH1 0x1F NOT PUSH1 0x1F DUP3 ADD AND DUP3 ADD DUP1 PUSH1 0x40 MSTORE POP DUP2 ADD SWAP1 PUSH3 0x1360 SWAP2 SWAP1 PUSH3 0x25F1 JUMP JUMPDEST SWAP1 POP PUSH1 0x0 PUSH1 0x5 PUSH1 0x0 DUP6 DUP2 MSTORE PUSH1 0x20 ADD SWAP1 DUP2 MSTORE PUSH1 0x20 ADD PUSH1 0x0 KECCAK256 PUSH1 0x0 SWAP1 SLOAD SWAP1 PUSH2 0x100 EXP SWAP1 DIV PUSH20 0xFFFFFFFFFFFFFFFFFFFFFFFFFFFFFFFFFFFFFFFF AND PUSH20 0xFFFFFFFFFFFFFFFFFFFFFFFFFFFFFFFFFFFFFFFF AND PUSH4 0x6352211E DUP6 PUSH1 0x40 MLOAD DUP3 PUSH4 0xFFFFFFFF AND PUSH1 0xE0 SHL DUP2 MSTORE PUSH1 0x4 ADD PUSH3 0x13D2 SWAP2 SWAP1 PUSH3 0x20B0 JUMP JUMPDEST PUSH1 0x20 PUSH1 0x40 MLOAD DUP1 DUP4 SUB DUP2 DUP7 GAS STATICCALL ISZERO DUP1 ISZERO PUSH3 0x13F0 JUMPI RETURNDATASIZE PUSH1 0x0 DUP1 RETURNDATACOPY RETURNDATASIZE PUSH1 0x0 REVERT JUMPDEST POP POP POP POP PUSH1 0x40 MLOAD RETURNDATASIZE PUSH1 0x1F NOT PUSH1 0x1F DUP3 ADD AND DUP3 ADD DUP1 PUSH1 0x40 MSTORE POP DUP2 ADD SWAP1 PUSH3 0x1416 SWAP2 SWAP1 PUSH3 0x25F1 JUMP JUMPDEST SWAP1 POP DUP1 PUSH20 0xFFFFFFFFFFFFFFFFFFFFFFFFFFFFFFFFFFFFFFFF AND CALLER PUSH20 0xFFFFFFFFFFFFFFFFFFFFFFFFFFFFFFFFFFFFFFFF AND EQ PUSH3 0x1451 JUMPI PUSH1 0x0 DUP1 REVERT JUMPDEST PUSH1 0x5 PUSH1 0x0 DUP6 DUP2 MSTORE PUSH1 0x20 ADD SWAP1 DUP2 MSTORE PUSH1 0x20 ADD PUSH1 0x0 KECCAK256 PUSH1 0x0 SWAP1 SLOAD SWAP1 PUSH2 0x100 EXP SWAP1 DIV PUSH20 0xFFFFFFFFFFFFFFFFFFFFFFFFFFFFFFFFFFFFFFFF AND PUSH20 0xFFFFFFFFFFFFFFFFFFFFFFFFFFFFFFFFFFFFFFFF AND PUSH4 0x7CF6B53B PUSH1 0x40 MLOAD DUP2 PUSH4 0xFFFFFFFF AND PUSH1 0xE0 SHL DUP2 MSTORE PUSH1 0x4 ADD PUSH1 0x20 PUSH1 0x40 MLOAD DUP1 DUP4 SUB DUP2 DUP7 GAS STATICCALL ISZERO DUP1 ISZERO PUSH3 0x14D0 JUMPI RETURNDATASIZE PUSH1 0x0 DUP1 RETURNDATACOPY RETURNDATASIZE PUSH1 0x0 REVERT JUMPDEST POP POP POP POP PUSH1 0x40 MLOAD RETURNDATASIZE PUSH1 0x1F NOT PUSH1 0x1F DUP3 ADD AND DUP3 ADD DUP1 PUSH1 0x40 MSTORE POP DUP2 ADD SWAP1 PUSH3 0x14F6 SWAP2 SWAP1 PUSH3 0x285E JUMP JUMPDEST ISZERO PUSH3 0x1501 JUMPI PUSH1 0x0 DUP1 REVERT JUMPDEST PUSH1 0x4 PUSH1 0x0 DUP7 DUP2 MSTORE PUSH1 0x20 ADD SWAP1 DUP2 MSTORE PUSH1 0x20 ADD PUSH1 0x0 KECCAK256 PUSH1 0x0 SWAP1 SLOAD SWAP1 PUSH2 0x100 EXP SWAP1 DIV PUSH20 0xFFFFFFFFFFFFFFFFFFFFFFFFFFFFFFFFFFFFFFFF AND PUSH20 0xFFFFFFFFFFFFFFFFFFFFFFFFFFFFFFFFFFFFFFFF AND PUSH3 0xFEF856 PUSH1 0x40 MLOAD DUP2 PUSH4 0xFFFFFFFF AND PUSH1 0xE0 SHL DUP2 MSTORE PUSH1 0x4 ADD PUSH1 0x20 PUSH1 0x40 MLOAD DUP1 DUP4 SUB DUP2 DUP7 GAS STATICCALL ISZERO DUP1 ISZERO PUSH3 0x157F JUMPI RETURNDATASIZE PUSH1 0x0 DUP1 RETURNDATACOPY RETURNDATASIZE PUSH1 0x0 REVERT JUMPDEST POP POP POP POP PUSH1 0x40 MLOAD RETURNDATASIZE PUSH1 0x1F NOT PUSH1 0x1F DUP3 ADD AND DUP3 ADD DUP1 PUSH1 0x40 MSTORE POP DUP2 ADD SWAP1 PUSH3 0x15A5 SWAP2 SWAP1 PUSH3 0x285E JUMP JUMPDEST PUSH3 0x15AF JUMPI PUSH1 0x0 DUP1 REVERT JUMPDEST PUSH1 0x4 PUSH1 0x0 DUP7 DUP2 MSTORE PUSH1 0x20 ADD SWAP1 DUP2 MSTORE PUSH1 0x20 ADD PUSH1 0x0 KECCAK256 PUSH1 0x0 SWAP1 SLOAD SWAP1 PUSH2 0x100 EXP SWAP1 DIV PUSH20 0xFFFFFFFFFFFFFFFFFFFFFFFFFFFFFFFFFFFFFFFF AND PUSH20 0xFFFFFFFFFFFFFFFFFFFFFFFFFFFFFFFFFFFFFFFF AND PUSH4 0xCF22B577 PUSH1 0x40 MLOAD DUP2 PUSH4 0xFFFFFFFF AND PUSH1 0xE0 SHL DUP2 MSTORE PUSH1 0x4 ADD PUSH1 0x20 PUSH1 0x40 MLOAD DUP1 DUP4 SUB DUP2 DUP7 GAS STATICCALL ISZERO DUP1 ISZERO PUSH3 0x162E JUMPI RETURNDATASIZE PUSH1 0x0 DUP1 RETURNDATACOPY RETURNDATASIZE PUSH1 0x0 REVERT JUMPDEST POP POP POP POP PUSH1 0x40 MLOAD RETURNDATASIZE PUSH1 0x1F NOT PUSH1 0x1F DUP3 ADD AND DUP3 ADD DUP1 PUSH1 0x40 MSTORE POP DUP2 ADD SWAP1 PUSH3 0x1654 SWAP2 SWAP1 PUSH3 0x25A8 JUMP JUMPDEST PUSH1 0x5 PUSH1 0x0 DUP7 DUP2 MSTORE PUSH1 0x20 ADD SWAP1 DUP2 MSTORE PUSH1 0x20 ADD PUSH1 0x0 KECCAK256 PUSH1 0x0 SWAP1 SLOAD SWAP1 PUSH2 0x100 EXP SWAP1 DIV PUSH20 0xFFFFFFFFFFFFFFFFFFFFFFFFFFFFFFFFFFFFFFFF AND PUSH20 0xFFFFFFFFFFFFFFFFFFFFFFFFFFFFFFFFFFFFFFFF AND PUSH4 0xCF22B577 PUSH1 0x40 MLOAD DUP2 PUSH4 0xFFFFFFFF AND PUSH1 0xE0 SHL DUP2 MSTORE PUSH1 0x4 ADD PUSH1 0x20 PUSH1 0x40 MLOAD DUP1 DUP4 SUB DUP2 DUP7 GAS STATICCALL ISZERO DUP1 ISZERO PUSH3 0x16D3 JUMPI RETURNDATASIZE PUSH1 0x0 DUP1 RETURNDATACOPY RETURNDATASIZE PUSH1 0x0 REVERT JUMPDEST POP POP POP POP PUSH1 0x40 MLOAD RETURNDATASIZE PUSH1 0x1F NOT PUSH1 0x1F DUP3 ADD AND DUP3 ADD DUP1 PUSH1 0x40 MSTORE POP DUP2 ADD SWAP1 PUSH3 0x16F9 SWAP2 SWAP1 PUSH3 0x25A8 JUMP JUMPDEST LT ISZERO PUSH3 0x1705 JUMPI PUSH1 0x0 DUP1 REVERT JUMPDEST PUSH1 0x4 PUSH1 0x0 DUP7 DUP2 MSTORE PUSH1 0x20 ADD SWAP1 DUP2 MSTORE PUSH1 0x20 ADD PUSH1 0x0 KECCAK256 PUSH1 0x0 SWAP1 SLOAD SWAP1 PUSH2 0x100 EXP SWAP1 DIV PUSH20 0xFFFFFFFFFFFFFFFFFFFFFFFFFFFFFFFFFFFFFFFF AND PUSH20 0xFFFFFFFFFFFFFFFFFFFFFFFFFFFFFFFFFFFFFFFF AND PUSH4 0x49BEFA85 PUSH1 0x40 MLOAD DUP2 PUSH4 0xFFFFFFFF AND PUSH1 0xE0 SHL DUP2 MSTORE PUSH1 0x4 ADD PUSH1 0x20 PUSH1 0x40 MLOAD DUP1 DUP4 SUB DUP2 DUP7 GAS STATICCALL ISZERO DUP1 ISZERO PUSH3 0x1784 JUMPI RETURNDATASIZE PUSH1 0x0 DUP1 RETURNDATACOPY RETURNDATASIZE PUSH1 0x0 REVERT JUMPDEST POP POP POP POP PUSH1 0x40 MLOAD RETURNDATASIZE PUSH1 0x1F NOT PUSH1 0x1F DUP3 ADD AND DUP3 ADD DUP1 PUSH1 0x40 MSTORE POP DUP2 ADD SWAP1 PUSH3 0x17AA SWAP2 SWAP1 PUSH3 0x25A8 JUMP JUMPDEST PUSH1 0x5 PUSH1 0x0 DUP7 DUP2 MSTORE PUSH1 0x20 ADD SWAP1 DUP2 MSTORE PUSH1 0x20 ADD PUSH1 0x0 KECCAK256 PUSH1 0x0 SWAP1 SLOAD SWAP1 PUSH2 0x100 EXP SWAP1 DIV PUSH20 0xFFFFFFFFFFFFFFFFFFFFFFFFFFFFFFFFFFFFFFFF AND PUSH20 0xFFFFFFFFFFFFFFFFFFFFFFFFFFFFFFFFFFFFFFFF AND PUSH4 0x49BEFA85 PUSH1 0x40 MLOAD DUP2 PUSH4 0xFFFFFFFF AND PUSH1 0xE0 SHL DUP2 MSTORE PUSH1 0x4 ADD PUSH1 0x20 PUSH1 0x40 MLOAD DUP1 DUP4 SUB DUP2 DUP7 GAS STATICCALL ISZERO DUP1 ISZERO PUSH3 0x1829 JUMPI RETURNDATASIZE PUSH1 0x0 DUP1 RETURNDATACOPY RETURNDATASIZE PUSH1 0x0 REVERT JUMPDEST POP POP POP POP PUSH1 0x40 MLOAD RETURNDATASIZE PUSH1 0x1F NOT PUSH1 0x1F DUP3 ADD AND DUP3 ADD DUP1 PUSH1 0x40 MSTORE POP DUP2 ADD SWAP1 PUSH3 0x184F SWAP2 SWAP1 PUSH3 0x25A8 JUMP JUMPDEST GT ISZERO PUSH3 0x185B JUMPI PUSH1 0x0 DUP1 REVERT JUMPDEST PUSH1 0x0 PUSH1 0x4 PUSH1 0x0 DUP8 DUP2 MSTORE PUSH1 0x20 ADD SWAP1 DUP2 MSTORE PUSH1 0x20 ADD PUSH1 0x0 KECCAK256 PUSH1 0x0 SWAP1 SLOAD SWAP1 PUSH2 0x100 EXP SWAP1 DIV PUSH20 0xFFFFFFFFFFFFFFFFFFFFFFFFFFFFFFFFFFFFFFFF AND PUSH20 0xFFFFFFFFFFFFFFFFFFFFFFFFFFFFFFFFFFFFFFFF AND PUSH4 0xBD3E19D4 PUSH1 0x40 MLOAD DUP2 PUSH4 0xFFFFFFFF AND PUSH1 0xE0 SHL DUP2 MSTORE PUSH1 0x4 ADD PUSH1 0x20 PUSH1 0x40 MLOAD DUP1 DUP4 SUB DUP2 DUP7 GAS STATICCALL ISZERO DUP1 ISZERO PUSH3 0x18DC JUMPI RETURNDATASIZE PUSH1 0x0 DUP1 RETURNDATACOPY RETURNDATASIZE PUSH1 0x0 REVERT JUMPDEST POP POP POP POP PUSH1 0x40 MLOAD RETURNDATASIZE PUSH1 0x1F NOT PUSH1 0x1F DUP3 ADD AND DUP3 ADD DUP1 PUSH1 0x40 MSTORE POP DUP2 ADD SWAP1 PUSH3 0x1902 SWAP2 SWAP1 PUSH3 0x25A8 JUMP JUMPDEST SWAP1 POP PUSH1 0x0 PUSH3 0x1921 DUP3 PUSH1 0x12 PUSH1 0xA PUSH3 0x191B SWAP2 SWAP1 PUSH3 0x27BF JUMP JUMPDEST PUSH3 0x1D48 JUMP JUMPDEST SWAP1 POP DUP1 PUSH1 0x7 PUSH1 0x0 SWAP1 SLOAD SWAP1 PUSH2 0x100 EXP SWAP1 DIV PUSH20 0xFFFFFFFFFFFFFFFFFFFFFFFFFFFFFFFFFFFFFFFF AND PUSH20 0xFFFFFFFFFFFFFFFFFFFFFFFFFFFFFFFFFFFFFFFF AND PUSH4 0x70A08231 CALLER PUSH1 0x40 MLOAD DUP3 PUSH4 0xFFFFFFFF AND PUSH1 0xE0 SHL DUP2 MSTORE PUSH1 0x4 ADD PUSH3 0x1981 SWAP2 SWAP1 PUSH3 0x2810 JUMP JUMPDEST PUSH1 0x20 PUSH1 0x40 MLOAD DUP1 DUP4 SUB DUP2 DUP7 GAS STATICCALL ISZERO DUP1 ISZERO PUSH3 0x199F JUMPI RETURNDATASIZE PUSH1 0x0 DUP1 RETURNDATACOPY RETURNDATASIZE PUSH1 0x0 REVERT JUMPDEST POP POP POP POP PUSH1 0x40 MLOAD RETURNDATASIZE PUSH1 0x1F NOT PUSH1 0x1F DUP3 ADD AND DUP3 ADD DUP1 PUSH1 0x40 MSTORE POP DUP2 ADD SWAP1 PUSH3 0x19C5 SWAP2 SWAP1 PUSH3 0x25A8 JUMP JUMPDEST LT ISZERO PUSH3 0x19D1 JUMPI PUSH1 0x0 DUP1 REVERT JUMPDEST PUSH1 0x7 PUSH1 0x0 SWAP1 SLOAD SWAP1 PUSH2 0x100 EXP SWAP1 DIV PUSH20 0xFFFFFFFFFFFFFFFFFFFFFFFFFFFFFFFFFFFFFFFF AND PUSH20 0xFFFFFFFFFFFFFFFFFFFFFFFFFFFFFFFFFFFFFFFF AND PUSH4 0x95EA7B3 DUP5 DUP4 PUSH1 0x40 MLOAD DUP4 PUSH4 0xFFFFFFFF AND PUSH1 0xE0 SHL DUP2 MSTORE PUSH1 0x4 ADD PUSH3 0x1A30 SWAP3 SWAP2 SWAP1 PUSH3 0x2564 JUMP JUMPDEST PUSH1 0x20 PUSH1 0x40 MLOAD DUP1 DUP4 SUB DUP2 PUSH1 0x0 DUP8 GAS CALL ISZERO DUP1 ISZERO PUSH3 0x1A50 JUMPI RETURNDATASIZE PUSH1 0x0 DUP1 RETURNDATACOPY RETURNDATASIZE PUSH1 0x0 REVERT JUMPDEST POP POP POP POP PUSH1 0x40 MLOAD RETURNDATASIZE PUSH1 0x1F NOT PUSH1 0x1F DUP3 ADD AND DUP3 ADD DUP1 PUSH1 0x40 MSTORE POP DUP2 ADD SWAP1 PUSH3 0x1A76 SWAP2 SWAP1 PUSH3 0x285E JUMP JUMPDEST PUSH3 0x1A80 JUMPI PUSH1 0x0 DUP1 REVERT JUMPDEST PUSH1 0x7 PUSH1 0x0 SWAP1 SLOAD SWAP1 PUSH2 0x100 EXP SWAP1 DIV PUSH20 0xFFFFFFFFFFFFFFFFFFFFFFFFFFFFFFFFFFFFFFFF AND PUSH20 0xFFFFFFFFFFFFFFFFFFFFFFFFFFFFFFFFFFFFFFFF AND PUSH4 0x23B872DD DUP5 DUP7 DUP5 PUSH1 0x40 MLOAD DUP5 PUSH4 0xFFFFFFFF AND PUSH1 0xE0 SHL DUP2 MSTORE PUSH1 0x4 ADD PUSH3 0x1AE1 SWAP4 SWAP3 SWAP2 SWAP1 PUSH3 0x2A5A JUMP JUMPDEST PUSH1 0x20 PUSH1 0x40 MLOAD DUP1 DUP4 SUB DUP2 PUSH1 0x0 DUP8 GAS CALL ISZERO DUP1 ISZERO PUSH3 0x1B01 JUMPI RETURNDATASIZE PUSH1 0x0 DUP1 RETURNDATACOPY RETURNDATASIZE PUSH1 0x0 REVERT JUMPDEST POP POP POP POP PUSH1 0x40 MLOAD RETURNDATASIZE PUSH1 0x1F NOT PUSH1 0x1F DUP3 ADD AND DUP3 ADD DUP1 PUSH1 0x40 MSTORE POP DUP2 ADD SWAP1 PUSH3 0x1B27 SWAP2 SWAP1 PUSH3 0x285E JUMP JUMPDEST PUSH3 0x1B69 JUMPI PUSH1 0x40 MLOAD PUSH32 0x8C379A000000000000000000000000000000000000000000000000000000000 DUP2 MSTORE PUSH1 0x4 ADD PUSH3 0x1B60 SWAP1 PUSH3 0x2AE7 JUMP JUMPDEST PUSH1 0x40 MLOAD DUP1 SWAP2 SUB SWAP1 REVERT JUMPDEST PUSH1 0x2 PUSH1 0x0 DUP2 SLOAD DUP1 SWAP3 SWAP2 SWAP1 PUSH3 0x1B7E SWAP1 PUSH3 0x28BF JUMP JUMPDEST SWAP2 SWAP1 POP SSTORE POP DUP7 PUSH1 0x6 PUSH1 0x0 DUP9 DUP2 MSTORE PUSH1 0x20 ADD SWAP1 DUP2 MSTORE PUSH1 0x20 ADD PUSH1 0x0 KECCAK256 DUP2 SWAP1 SSTORE POP PUSH1 0x4 PUSH1 0x0 DUP9 DUP2 MSTORE PUSH1 0x20 ADD SWAP1 DUP2 MSTORE PUSH1 0x20 ADD PUSH1 0x0 KECCAK256 PUSH1 0x0 SWAP1 SLOAD SWAP1 PUSH2 0x100 EXP SWAP1 DIV PUSH20 0xFFFFFFFFFFFFFFFFFFFFFFFFFFFFFFFFFFFFFFFF AND PUSH20 0xFFFFFFFFFFFFFFFFFFFFFFFFFFFFFFFFFFFFFFFF AND PUSH4 0x2B81FF95 PUSH1 0x0 PUSH1 0x40 MLOAD DUP3 PUSH4 0xFFFFFFFF AND PUSH1 0xE0 SHL DUP2 MSTORE PUSH1 0x4 ADD PUSH3 0x1C0A SWAP2 SWAP1 PUSH3 0x2050 JUMP JUMPDEST PUSH1 0x0 PUSH1 0x40 MLOAD DUP1 DUP4 SUB DUP2 PUSH1 0x0 DUP8 DUP1 EXTCODESIZE ISZERO DUP1 ISZERO PUSH3 0x1C25 JUMPI PUSH1 0x0 DUP1 REVERT JUMPDEST POP GAS CALL ISZERO DUP1 ISZERO PUSH3 0x1C3A JUMPI RETURNDATASIZE PUSH1 0x0 DUP1 RETURNDATACOPY RETURNDATASIZE PUSH1 0x0 REVERT JUMPDEST POP POP POP POP PUSH32 0xAD6D0C0810A0BD7CFC65B4FA3F7E7DDEA11A181FA6F2CE924480219DADB0D560 DUP8 DUP8 PUSH1 0x40 MLOAD PUSH3 0x1C71 SWAP3 SWAP2 SWAP1 PUSH3 0x2B09 JUMP JUMPDEST PUSH1 0x40 MLOAD DUP1 SWAP2 SUB SWAP1 LOG1 PUSH1 0x1 SWAP5 POP POP POP POP POP SWAP3 SWAP2 POP POP JUMP JUMPDEST PUSH1 0x0 DUP1 SLOAD SWAP1 POP SWAP1 JUMP JUMPDEST PUSH1 0x0 PUSH1 0x4 PUSH1 0x0 DUP4 DUP2 MSTORE PUSH1 0x20 ADD SWAP1 DUP2 MSTORE PUSH1 0x20 ADD PUSH1 0x0 KECCAK256 PUSH1 0x0 SWAP1 SLOAD SWAP1 PUSH2 0x100 EXP SWAP1 DIV PUSH20 0xFFFFFFFFFFFFFFFFFFFFFFFFFFFFFFFFFFFFFFFF AND PUSH20 0xFFFFFFFFFFFFFFFFFFFFFFFFFFFFFFFFFFFFFFFF AND PUSH4 0x49BEFA85 PUSH1 0x40 MLOAD DUP2 PUSH4 0xFFFFFFFF AND PUSH1 0xE0 SHL DUP2 MSTORE PUSH1 0x4 ADD PUSH1 0x20 PUSH1 0x40 MLOAD DUP1 DUP4 SUB DUP2 DUP7 GAS STATICCALL ISZERO DUP1 ISZERO PUSH3 0x1D11 JUMPI RETURNDATASIZE PUSH1 0x0 DUP1 RETURNDATACOPY RETURNDATASIZE PUSH1 0x0 REVERT JUMPDEST POP POP POP POP PUSH1 0x40 MLOAD RETURNDATASIZE PUSH1 0x1F NOT PUSH1 0x1F DUP3 ADD AND DUP3 ADD DUP1 PUSH1 0x40 MSTORE POP DUP2 ADD SWAP1 PUSH3 0x1D37 SWAP2 SWAP1 PUSH3 0x25A8 JUMP JUMPDEST SWAP1 POP SWAP2 SWAP1 POP JUMP JUMPDEST PUSH1 0x0 PUSH1 0x1 SLOAD SWAP1 POP SWAP1 JUMP JUMPDEST PUSH1 0x0 DUP2 DUP4 PUSH3 0x1D58 SWAP2 SWAP1 PUSH3 0x2B36 JUMP JUMPDEST SWAP1 POP PUSH1 0x0 DUP4 EQ DUP1 PUSH3 0x1D76 JUMPI POP DUP2 DUP4 DUP3 PUSH3 0x1D74 SWAP2 SWAP1 PUSH3 0x2A22 JUMP JUMPDEST EQ JUMPDEST PUSH3 0x1D80 JUMPI PUSH1 0x0 DUP1 REVERT JUMPDEST SWAP3 SWAP2 POP POP JUMP JUMPDEST PUSH1 0x60 PUSH1 0x0 DUP1 SLOAD PUSH8 0xFFFFFFFFFFFFFFFF DUP2 GT ISZERO PUSH3 0x1DA8 JUMPI PUSH3 0x1DA7 PUSH3 0x2221 JUMP JUMPDEST JUMPDEST PUSH1 0x40 MLOAD SWAP1 DUP1 DUP3 MSTORE DUP1 PUSH1 0x20 MUL PUSH1 0x20 ADD DUP3 ADD PUSH1 0x40 MSTORE DUP1 ISZERO PUSH3 0x1DD7 JUMPI DUP2 PUSH1 0x20 ADD PUSH1 0x20 DUP3 MUL DUP1 CALLDATASIZE DUP4 CALLDATACOPY DUP1 DUP3 ADD SWAP2 POP POP SWAP1 POP JUMPDEST POP SWAP1 POP PUSH1 0x0 DUP1 PUSH1 0x1 SWAP1 POP JUMPDEST PUSH1 0x0 SLOAD DUP2 GT PUSH3 0x1EE0 JUMPI PUSH1 0x4 PUSH1 0x0 DUP3 DUP2 MSTORE PUSH1 0x20 ADD SWAP1 DUP2 MSTORE PUSH1 0x20 ADD PUSH1 0x0 KECCAK256 PUSH1 0x0 SWAP1 SLOAD SWAP1 PUSH2 0x100 EXP SWAP1 DIV PUSH20 0xFFFFFFFFFFFFFFFFFFFFFFFFFFFFFFFFFFFFFFFF AND PUSH20 0xFFFFFFFFFFFFFFFFFFFFFFFFFFFFFFFFFFFFFFFF AND PUSH3 0xFEF856 PUSH1 0x40 MLOAD DUP2 PUSH4 0xFFFFFFFF AND PUSH1 0xE0 SHL DUP2 MSTORE PUSH1 0x4 ADD PUSH1 0x20 PUSH1 0x40 MLOAD DUP1 DUP4 SUB DUP2 DUP7 GAS STATICCALL ISZERO DUP1 ISZERO PUSH3 0x1E6A JUMPI RETURNDATASIZE PUSH1 0x0 DUP1 RETURNDATACOPY RETURNDATASIZE PUSH1 0x0 REVERT JUMPDEST POP POP POP POP PUSH1 0x40 MLOAD RETURNDATASIZE PUSH1 0x1F NOT PUSH1 0x1F DUP3 ADD AND DUP3 ADD DUP1 PUSH1 0x40 MSTORE POP DUP2 ADD SWAP1 PUSH3 0x1E90 SWAP2 SWAP1 PUSH3 0x285E JUMP JUMPDEST ISZERO PUSH3 0x1ECA JUMPI DUP1 DUP4 DUP4 DUP2 MLOAD DUP2 LT PUSH3 0x1EAD JUMPI PUSH3 0x1EAC PUSH3 0x2890 JUMP JUMPDEST JUMPDEST PUSH1 0x20 MUL PUSH1 0x20 ADD ADD DUP2 DUP2 MSTORE POP POP DUP2 DUP1 PUSH3 0x1EC6 SWAP1 PUSH3 0x28BF JUMP JUMPDEST SWAP3 POP POP JUMPDEST DUP1 DUP1 PUSH3 0x1ED7 SWAP1 PUSH3 0x28BF JUMP JUMPDEST SWAP2 POP POP PUSH3 0x1DE2 JUMP JUMPDEST POP DUP2 SWAP3 POP POP POP SWAP1 JUMP JUMPDEST PUSH1 0x0 DUP2 DUP4 PUSH3 0x1EF9 SWAP2 SWAP1 PUSH3 0x24A9 JUMP JUMPDEST SWAP1 POP DUP3 DUP2 LT ISZERO PUSH3 0x1F09 JUMPI PUSH1 0x0 DUP1 REVERT JUMPDEST SWAP3 SWAP2 POP POP JUMP JUMPDEST PUSH1 0x0 DUP2 PUSH1 0x40 MLOAD PUSH1 0x20 ADD PUSH3 0x1F24 SWAP2 SWAP1 PUSH3 0x2BD9 JUMP JUMPDEST PUSH1 0x40 MLOAD PUSH1 0x20 DUP2 DUP4 SUB SUB DUP2 MSTORE SWAP1 PUSH1 0x40 MSTORE DUP1 MLOAD SWAP1 PUSH1 0x20 ADD KECCAK256 DUP4 PUSH1 0x40 MLOAD PUSH1 0x20 ADD PUSH3 0x1F4D SWAP2 SWAP1 PUSH3 0x2BD9 JUMP JUMPDEST PUSH1 0x40 MLOAD PUSH1 0x20 DUP2 DUP4 SUB SUB DUP2 MSTORE SWAP1 PUSH1 0x40 MSTORE DUP1 MLOAD SWAP1 PUSH1 0x20 ADD KECCAK256 EQ SWAP1 POP SWAP3 SWAP2 POP POP JUMP JUMPDEST PUSH2 0x1875 DUP1 PUSH3 0x2BF3 DUP4 CODECOPY ADD SWAP1 JUMP JUMPDEST PUSH2 0x16DA DUP1 PUSH3 0x4468 DUP4 CODECOPY ADD SWAP1 JUMP JUMPDEST PUSH1 0x0 PUSH1 0x40 MLOAD SWAP1 POP SWAP1 JUMP JUMPDEST PUSH1 0x0 DUP1 REVERT JUMPDEST PUSH1 0x0 DUP1 REVERT JUMPDEST PUSH1 0x0 DUP2 SWAP1 POP SWAP2 SWAP1 POP JUMP JUMPDEST PUSH3 0x1FB1 DUP2 PUSH3 0x1F9C JUMP JUMPDEST DUP2 EQ PUSH3 0x1FBD JUMPI PUSH1 0x0 DUP1 REVERT JUMPDEST POP JUMP JUMPDEST PUSH1 0x0 DUP2 CALLDATALOAD SWAP1 POP PUSH3 0x1FD1 DUP2 PUSH3 0x1FA6 JUMP JUMPDEST SWAP3 SWAP2 POP POP JUMP JUMPDEST PUSH1 0x0 DUP1 PUSH1 0x0 PUSH1 0x60 DUP5 DUP7 SUB SLT ISZERO PUSH3 0x1FF3 JUMPI PUSH3 0x1FF2 PUSH3 0x1F92 JUMP JUMPDEST JUMPDEST PUSH1 0x0 PUSH3 0x2003 DUP7 DUP3 DUP8 ADD PUSH3 0x1FC0 JUMP JUMPDEST SWAP4 POP POP PUSH1 0x20 PUSH3 0x2016 DUP7 DUP3 DUP8 ADD PUSH3 0x1FC0 JUMP JUMPDEST SWAP3 POP POP PUSH1 0x40 PUSH3 0x2029 DUP7 DUP3 DUP8 ADD PUSH3 0x1FC0 JUMP JUMPDEST SWAP2 POP POP SWAP3 POP SWAP3 POP SWAP3 JUMP JUMPDEST PUSH1 0x0 DUP2 ISZERO ISZERO SWAP1 POP SWAP2 SWAP1 POP JUMP JUMPDEST PUSH3 0x204A DUP2 PUSH3 0x2033 JUMP JUMPDEST DUP3 MSTORE POP POP JUMP JUMPDEST PUSH1 0x0 PUSH1 0x20 DUP3 ADD SWAP1 POP PUSH3 0x2067 PUSH1 0x0 DUP4 ADD DUP5 PUSH3 0x203F JUMP JUMPDEST SWAP3 SWAP2 POP POP JUMP JUMPDEST PUSH1 0x0 PUSH1 0x20 DUP3 DUP5 SUB SLT ISZERO PUSH3 0x2086 JUMPI PUSH3 0x2085 PUSH3 0x1F92 JUMP JUMPDEST JUMPDEST PUSH1 0x0 PUSH3 0x2096 DUP5 DUP3 DUP6 ADD PUSH3 0x1FC0 JUMP JUMPDEST SWAP2 POP POP SWAP3 SWAP2 POP POP JUMP JUMPDEST PUSH3 0x20AA DUP2 PUSH3 0x1F9C JUMP JUMPDEST DUP3 MSTORE POP POP JUMP JUMPDEST PUSH1 0x0 PUSH1 0x20 DUP3 ADD SWAP1 POP PUSH3 0x20C7 PUSH1 0x0 DUP4 ADD DUP5 PUSH3 0x209F JUMP JUMPDEST SWAP3 SWAP2 POP POP JUMP JUMPDEST PUSH1 0x0 DUP1 PUSH1 0x40 DUP4 DUP6 SUB SLT ISZERO PUSH3 0x20E7 JUMPI PUSH3 0x20E6 PUSH3 0x1F92 JUMP JUMPDEST JUMPDEST PUSH1 0x0 PUSH3 0x20F7 DUP6 DUP3 DUP7 ADD PUSH3 0x1FC0 JUMP JUMPDEST SWAP3 POP POP PUSH1 0x20 PUSH3 0x210A DUP6 DUP3 DUP7 ADD PUSH3 0x1FC0 JUMP JUMPDEST SWAP2 POP POP SWAP3 POP SWAP3 SWAP1 POP JUMP JUMPDEST PUSH1 0x0 DUP2 MLOAD SWAP1 POP SWAP2 SWAP1 POP JUMP JUMPDEST PUSH1 0x0 DUP3 DUP3 MSTORE PUSH1 0x20 DUP3 ADD SWAP1 POP SWAP3 SWAP2 POP POP JUMP JUMPDEST PUSH1 0x0 DUP2 SWAP1 POP PUSH1 0x20 DUP3 ADD SWAP1 POP SWAP2 SWAP1 POP JUMP JUMPDEST PUSH3 0x214B DUP2 PUSH3 0x1F9C JUMP JUMPDEST DUP3 MSTORE POP POP JUMP JUMPDEST PUSH1 0x0 PUSH3 0x215F DUP4 DUP4 PUSH3 0x2140 JUMP JUMPDEST PUSH1 0x20 DUP4 ADD SWAP1 POP SWAP3 SWAP2 POP POP JUMP JUMPDEST PUSH1 0x0 PUSH1 0x20 DUP3 ADD SWAP1 POP SWAP2 SWAP1 POP JUMP JUMPDEST PUSH1 0x0 PUSH3 0x2185 DUP3 PUSH3 0x2114 JUMP JUMPDEST PUSH3 0x2191 DUP2 DUP6 PUSH3 0x211F JUMP JUMPDEST SWAP4 POP PUSH3 0x219E DUP4 PUSH3 0x2130 JUMP JUMPDEST DUP1 PUSH1 0x0 JUMPDEST DUP4 DUP2 LT ISZERO PUSH3 0x21D5 JUMPI DUP2 MLOAD PUSH3 0x21B9 DUP9 DUP3 PUSH3 0x2151 JUMP JUMPDEST SWAP8 POP PUSH3 0x21C6 DUP4 PUSH3 0x216B JUMP JUMPDEST SWAP3 POP POP PUSH1 0x1 DUP2 ADD SWAP1 POP PUSH3 0x21A2 JUMP JUMPDEST POP DUP6 SWAP4 POP POP POP POP SWAP3 SWAP2 POP POP JUMP JUMPDEST PUSH1 0x0 PUSH1 0x20 DUP3 ADD SWAP1 POP DUP2 DUP2 SUB PUSH1 0x0 DUP4 ADD MSTORE PUSH3 0x21FE DUP2 DUP5 PUSH3 0x2178 JUMP JUMPDEST SWAP1 POP SWAP3 SWAP2 POP POP JUMP JUMPDEST PUSH1 0x0 DUP1 REVERT JUMPDEST PUSH1 0x0 DUP1 REVERT JUMPDEST PUSH1 0x0 PUSH1 0x1F NOT PUSH1 0x1F DUP4 ADD AND SWAP1 POP SWAP2 SWAP1 POP JUMP JUMPDEST PUSH32 0x4E487B7100000000000000000000000000000000000000000000000000000000 PUSH1 0x0 MSTORE PUSH1 0x41 PUSH1 0x4 MSTORE PUSH1 0x24 PUSH1 0x0 REVERT JUMPDEST PUSH3 0x225B DUP3 PUSH3 0x2210 JUMP JUMPDEST DUP2 ADD DUP2 DUP2 LT PUSH8 0xFFFFFFFFFFFFFFFF DUP3 GT OR ISZERO PUSH3 0x227D JUMPI PUSH3 0x227C PUSH3 0x2221 JUMP JUMPDEST JUMPDEST DUP1 PUSH1 0x40 MSTORE POP POP POP JUMP JUMPDEST PUSH1 0x0 PUSH3 0x2292 PUSH3 0x1F88 JUMP JUMPDEST SWAP1 POP PUSH3 0x22A0 DUP3 DUP3 PUSH3 0x2250 JUMP JUMPDEST SWAP2 SWAP1 POP JUMP JUMPDEST PUSH1 0x0 PUSH8 0xFFFFFFFFFFFFFFFF DUP3 GT ISZERO PUSH3 0x22C3 JUMPI PUSH3 0x22C2 PUSH3 0x2221 JUMP JUMPDEST JUMPDEST PUSH3 0x22CE DUP3 PUSH3 0x2210 JUMP JUMPDEST SWAP1 POP PUSH1 0x20 DUP2 ADD SWAP1 POP SWAP2 SWAP1 POP JUMP JUMPDEST DUP3 DUP2 DUP4 CALLDATACOPY PUSH1 0x0 DUP4 DUP4 ADD MSTORE POP POP POP JUMP JUMPDEST PUSH1 0x0 PUSH3 0x2301 PUSH3 0x22FB DUP5 PUSH3 0x22A5 JUMP JUMPDEST PUSH3 0x2286 JUMP JUMPDEST SWAP1 POP DUP3 DUP2 MSTORE PUSH1 0x20 DUP2 ADD DUP5 DUP5 DUP5 ADD GT ISZERO PUSH3 0x2320 JUMPI PUSH3 0x231F PUSH3 0x220B JUMP JUMPDEST JUMPDEST PUSH3 0x232D DUP5 DUP3 DUP6 PUSH3 0x22DB JUMP JUMPDEST POP SWAP4 SWAP3 POP POP POP JUMP JUMPDEST PUSH1 0x0 DUP3 PUSH1 0x1F DUP4 ADD SLT PUSH3 0x234D JUMPI PUSH3 0x234C PUSH3 0x2206 JUMP JUMPDEST JUMPDEST DUP2 CALLDATALOAD PUSH3 0x235F DUP5 DUP3 PUSH1 0x20 DUP7 ADD PUSH3 0x22EA JUMP JUMPDEST SWAP2 POP POP SWAP3 SWAP2 POP POP JUMP JUMPDEST PUSH1 0x0 DUP1 PUSH1 0x0 PUSH1 0x60 DUP5 DUP7 SUB SLT ISZERO PUSH3 0x2384 JUMPI PUSH3 0x2383 PUSH3 0x1F92 JUMP JUMPDEST JUMPDEST PUSH1 0x0 PUSH3 0x2394 DUP7 DUP3 DUP8 ADD PUSH3 0x1FC0 JUMP JUMPDEST SWAP4 POP POP PUSH1 0x20 PUSH3 0x23A7 DUP7 DUP3 DUP8 ADD PUSH3 0x1FC0 JUMP JUMPDEST SWAP3 POP POP PUSH1 0x40 DUP5 ADD CALLDATALOAD PUSH8 0xFFFFFFFFFFFFFFFF DUP2 GT ISZERO PUSH3 0x23CB JUMPI PUSH3 0x23CA PUSH3 0x1F97 JUMP JUMPDEST JUMPDEST PUSH3 0x23D9 DUP7 DUP3 DUP8 ADD PUSH3 0x2335 JUMP JUMPDEST SWAP2 POP POP SWAP3 POP SWAP3 POP SWAP3 JUMP JUMPDEST PUSH1 0x0 PUSH20 0xFFFFFFFFFFFFFFFFFFFFFFFFFFFFFFFFFFFFFFFF DUP3 AND SWAP1 POP SWAP2 SWAP1 POP JUMP JUMPDEST PUSH1 0x0 PUSH3 0x2410 DUP3 PUSH3 0x23E3 JUMP JUMPDEST SWAP1 POP SWAP2 SWAP1 POP JUMP JUMPDEST PUSH3 0x2422 DUP2 PUSH3 0x2403 JUMP JUMPDEST DUP2 EQ PUSH3 0x242E JUMPI PUSH1 0x0 DUP1 REVERT JUMPDEST POP JUMP JUMPDEST PUSH1 0x0 DUP2 CALLDATALOAD SWAP1 POP PUSH3 0x2442 DUP2 PUSH3 0x2417 JUMP JUMPDEST SWAP3 SWAP2 POP POP JUMP JUMPDEST PUSH1 0x0 PUSH1 0x20 DUP3 DUP5 SUB SLT ISZERO PUSH3 0x2461 JUMPI PUSH3 0x2460 PUSH3 0x1F92 JUMP JUMPDEST JUMPDEST PUSH1 0x0 PUSH3 0x2471 DUP5 DUP3 DUP6 ADD PUSH3 0x2431 JUMP JUMPDEST SWAP2 POP POP SWAP3 SWAP2 POP POP JUMP JUMPDEST PUSH32 0x4E487B7100000000000000000000000000000000000000000000000000000000 PUSH1 0x0 MSTORE PUSH1 0x11 PUSH1 0x4 MSTORE PUSH1 0x24 PUSH1 0x0 REVERT JUMPDEST PUSH1 0x0 PUSH3 0x24B6 DUP3 PUSH3 0x1F9C JUMP JUMPDEST SWAP2 POP PUSH3 0x24C3 DUP4 PUSH3 0x1F9C JUMP JUMPDEST SWAP3 POP DUP3 PUSH32 0xFFFFFFFFFFFFFFFFFFFFFFFFFFFFFFFFFFFFFFFFFFFFFFFFFFFFFFFFFFFFFFFF SUB DUP3 GT ISZERO PUSH3 0x24FB JUMPI PUSH3 0x24FA PUSH3 0x247A JUMP JUMPDEST JUMPDEST DUP3 DUP3 ADD SWAP1 POP SWAP3 SWAP2 POP POP JUMP JUMPDEST PUSH1 0x0 PUSH1 0x80 DUP3 ADD SWAP1 POP PUSH3 0x251D PUSH1 0x0 DUP4 ADD DUP8 PUSH3 0x209F JUMP JUMPDEST PUSH3 0x252C PUSH1 0x20 DUP4 ADD DUP7 PUSH3 0x209F JUMP JUMPDEST PUSH3 0x253B PUSH1 0x40 DUP4 ADD DUP6 PUSH3 0x209F JUMP JUMPDEST PUSH3 0x254A PUSH1 0x60 DUP4 ADD DUP5 PUSH3 0x209F JUMP JUMPDEST SWAP6 SWAP5 POP POP POP POP POP JUMP JUMPDEST PUSH3 0x255E DUP2 PUSH3 0x2403 JUMP JUMPDEST DUP3 MSTORE POP POP JUMP JUMPDEST PUSH1 0x0 PUSH1 0x40 DUP3 ADD SWAP1 POP PUSH3 0x257B PUSH1 0x0 DUP4 ADD DUP6 PUSH3 0x2553 JUMP JUMPDEST PUSH3 0x258A PUSH1 0x20 DUP4 ADD DUP5 PUSH3 0x209F JUMP JUMPDEST SWAP4 SWAP3 POP POP POP JUMP JUMPDEST PUSH1 0x0 DUP2 MLOAD SWAP1 POP PUSH3 0x25A2 DUP2 PUSH3 0x1FA6 JUMP JUMPDEST SWAP3 SWAP2 POP POP JUMP JUMPDEST PUSH1 0x0 PUSH1 0x20 DUP3 DUP5 SUB SLT ISZERO PUSH3 0x25C1 JUMPI PUSH3 0x25C0 PUSH3 0x1F92 JUMP JUMPDEST JUMPDEST PUSH1 0x0 PUSH3 0x25D1 DUP5 DUP3 DUP6 ADD PUSH3 0x2591 JUMP JUMPDEST SWAP2 POP POP SWAP3 SWAP2 POP POP JUMP JUMPDEST PUSH1 0x0 DUP2 MLOAD SWAP1 POP PUSH3 0x25EB DUP2 PUSH3 0x2417 JUMP JUMPDEST SWAP3 SWAP2 POP POP JUMP JUMPDEST PUSH1 0x0 PUSH1 0x20 DUP3 DUP5 SUB SLT ISZERO PUSH3 0x260A JUMPI PUSH3 0x2609 PUSH3 0x1F92 JUMP JUMPDEST JUMPDEST PUSH1 0x0 PUSH3 0x261A DUP5 DUP3 DUP6 ADD PUSH3 0x25DA JUMP JUMPDEST SWAP2 POP POP SWAP3 SWAP2 POP POP JUMP JUMPDEST PUSH1 0x0 PUSH3 0x2630 DUP3 PUSH3 0x1F9C JUMP JUMPDEST SWAP2 POP PUSH3 0x263D DUP4 PUSH3 0x1F9C JUMP JUMPDEST SWAP3 POP DUP3 DUP3 LT ISZERO PUSH3 0x2653 JUMPI PUSH3 0x2652 PUSH3 0x247A JUMP JUMPDEST JUMPDEST DUP3 DUP3 SUB SWAP1 POP SWAP3 SWAP2 POP POP JUMP JUMPDEST PUSH1 0x0 DUP2 PUSH1 0x1 SHR SWAP1 POP SWAP2 SWAP1 POP JUMP JUMPDEST PUSH1 0x0 DUP1 DUP3 SWAP2 POP DUP4 SWAP1 POP JUMPDEST PUSH1 0x1 DUP6 GT ISZERO PUSH3 0x26BD JUMPI DUP1 DUP7 DIV DUP2 GT ISZERO PUSH3 0x2695 JUMPI PUSH3 0x2694 PUSH3 0x247A JUMP JUMPDEST JUMPDEST PUSH1 0x1 DUP6 AND ISZERO PUSH3 0x26A5 JUMPI DUP1 DUP3 MUL SWAP2 POP JUMPDEST DUP1 DUP2 MUL SWAP1 POP PUSH3 0x26B5 DUP6 PUSH3 0x265E JUMP JUMPDEST SWAP5 POP PUSH3 0x2675 JUMP JUMPDEST SWAP5 POP SWAP5 SWAP3 POP POP POP JUMP JUMPDEST PUSH1 0x0 DUP3 PUSH3 0x26D8 JUMPI PUSH1 0x1 SWAP1 POP PUSH3 0x27AB JUMP JUMPDEST DUP2 PUSH3 0x26E8 JUMPI PUSH1 0x0 SWAP1 POP PUSH3 0x27AB JUMP JUMPDEST DUP2 PUSH1 0x1 DUP2 EQ PUSH3 0x2701 JUMPI PUSH1 0x2 DUP2 EQ PUSH3 0x270C JUMPI PUSH3 0x2742 JUMP JUMPDEST PUSH1 0x1 SWAP2 POP POP PUSH3 0x27AB JUMP JUMPDEST PUSH1 0xFF DUP5 GT ISZERO PUSH3 0x2721 JUMPI PUSH3 0x2720 PUSH3 0x247A JUMP JUMPDEST JUMPDEST DUP4 PUSH1 0x2 EXP SWAP2 POP DUP5 DUP3 GT ISZERO PUSH3 0x273B JUMPI PUSH3 0x273A PUSH3 0x247A JUMP JUMPDEST JUMPDEST POP PUSH3 0x27AB JUMP JUMPDEST POP PUSH1 0x20 DUP4 LT PUSH2 0x133 DUP4 LT AND PUSH1 0x4E DUP5 LT PUSH1 0xB DUP5 LT AND OR ISZERO PUSH3 0x277C JUMPI DUP3 DUP3 EXP SWAP1 POP DUP4 DUP2 GT ISZERO PUSH3 0x2776 JUMPI PUSH3 0x2775 PUSH3 0x247A JUMP JUMPDEST JUMPDEST PUSH3 0x27AB JUMP JUMPDEST PUSH3 0x278B DUP5 DUP5 DUP5 PUSH1 0x1 PUSH3 0x266B JUMP JUMPDEST SWAP3 POP SWAP1 POP DUP2 DUP5 DIV DUP2 GT ISZERO PUSH3 0x27A5 JUMPI PUSH3 0x27A4 PUSH3 0x247A JUMP JUMPDEST JUMPDEST DUP2 DUP2 MUL SWAP1 POP JUMPDEST SWAP4 SWAP3 POP POP POP JUMP JUMPDEST PUSH1 0x0 PUSH1 0xFF DUP3 AND SWAP1 POP SWAP2 SWAP1 POP JUMP JUMPDEST PUSH1 0x0 PUSH3 0x27CC DUP3 PUSH3 0x1F9C JUMP JUMPDEST SWAP2 POP PUSH3 0x27D9 DUP4 PUSH3 0x27B2 JUMP JUMPDEST SWAP3 POP PUSH3 0x2808 PUSH32 0xFFFFFFFFFFFFFFFFFFFFFFFFFFFFFFFFFFFFFFFFFFFFFFFFFFFFFFFFFFFFFFFF DUP5 DUP5 PUSH3 0x26C6 JUMP JUMPDEST SWAP1 POP SWAP3 SWAP2 POP POP JUMP JUMPDEST PUSH1 0x0 PUSH1 0x20 DUP3 ADD SWAP1 POP PUSH3 0x2827 PUSH1 0x0 DUP4 ADD DUP5 PUSH3 0x2553 JUMP JUMPDEST SWAP3 SWAP2 POP POP JUMP JUMPDEST PUSH3 0x2838 DUP2 PUSH3 0x2033 JUMP JUMPDEST DUP2 EQ PUSH3 0x2844 JUMPI PUSH1 0x0 DUP1 REVERT JUMPDEST POP JUMP JUMPDEST PUSH1 0x0 DUP2 MLOAD SWAP1 POP PUSH3 0x2858 DUP2 PUSH3 0x282D JUMP JUMPDEST SWAP3 SWAP2 POP POP JUMP JUMPDEST PUSH1 0x0 PUSH1 0x20 DUP3 DUP5 SUB SLT ISZERO PUSH3 0x2877 JUMPI PUSH3 0x2876 PUSH3 0x1F92 JUMP JUMPDEST JUMPDEST PUSH1 0x0 PUSH3 0x2887 DUP5 DUP3 DUP6 ADD PUSH3 0x2847 JUMP JUMPDEST SWAP2 POP POP SWAP3 SWAP2 POP POP JUMP JUMPDEST PUSH32 0x4E487B7100000000000000000000000000000000000000000000000000000000 PUSH1 0x0 MSTORE PUSH1 0x32 PUSH1 0x4 MSTORE PUSH1 0x24 PUSH1 0x0 REVERT JUMPDEST PUSH1 0x0 PUSH3 0x28CC DUP3 PUSH3 0x1F9C JUMP JUMPDEST SWAP2 POP PUSH32 0xFFFFFFFFFFFFFFFFFFFFFFFFFFFFFFFFFFFFFFFFFFFFFFFFFFFFFFFFFFFFFFFF DUP3 SUB PUSH3 0x2901 JUMPI PUSH3 0x2900 PUSH3 0x247A JUMP JUMPDEST JUMPDEST PUSH1 0x1 DUP3 ADD SWAP1 POP SWAP2 SWAP1 POP JUMP JUMPDEST PUSH1 0x0 DUP2 MLOAD SWAP1 POP SWAP2 SWAP1 POP JUMP JUMPDEST PUSH1 0x0 DUP3 DUP3 MSTORE PUSH1 0x20 DUP3 ADD SWAP1 POP SWAP3 SWAP2 POP POP JUMP JUMPDEST PUSH1 0x0 JUMPDEST DUP4 DUP2 LT ISZERO PUSH3 0x2948 JUMPI DUP1 DUP3 ADD MLOAD DUP2 DUP5 ADD MSTORE PUSH1 0x20 DUP2 ADD SWAP1 POP PUSH3 0x292B JUMP JUMPDEST DUP4 DUP2 GT ISZERO PUSH3 0x2958 JUMPI PUSH1 0x0 DUP5 DUP5 ADD MSTORE JUMPDEST POP POP POP POP JUMP JUMPDEST PUSH1 0x0 PUSH3 0x296B DUP3 PUSH3 0x290C JUMP JUMPDEST PUSH3 0x2977 DUP2 DUP6 PUSH3 0x2917 JUMP JUMPDEST SWAP4 POP PUSH3 0x2989 DUP2 DUP6 PUSH1 0x20 DUP7 ADD PUSH3 0x2928 JUMP JUMPDEST PUSH3 0x2994 DUP2 PUSH3 0x2210 JUMP JUMPDEST DUP5 ADD SWAP2 POP POP SWAP3 SWAP2 POP POP JUMP JUMPDEST PUSH1 0x0 PUSH1 0x80 DUP3 ADD SWAP1 POP PUSH3 0x29B6 PUSH1 0x0 DUP4 ADD DUP8 PUSH3 0x209F JUMP JUMPDEST PUSH3 0x29C5 PUSH1 0x20 DUP4 ADD DUP7 PUSH3 0x209F JUMP JUMPDEST PUSH3 0x29D4 PUSH1 0x40 DUP4 ADD DUP6 PUSH3 0x209F JUMP JUMPDEST DUP2 DUP2 SUB PUSH1 0x60 DUP4 ADD MSTORE PUSH3 0x29E8 DUP2 DUP5 PUSH3 0x295E JUMP JUMPDEST SWAP1 POP SWAP6 SWAP5 POP POP POP POP POP JUMP JUMPDEST PUSH32 0x4E487B7100000000000000000000000000000000000000000000000000000000 PUSH1 0x0 MSTORE PUSH1 0x12 PUSH1 0x4 MSTORE PUSH1 0x24 PUSH1 0x0 REVERT JUMPDEST PUSH1 0x0 PUSH3 0x2A2F DUP3 PUSH3 0x1F9C JUMP JUMPDEST SWAP2 POP PUSH3 0x2A3C DUP4 PUSH3 0x1F9C JUMP JUMPDEST SWAP3 POP DUP3 PUSH3 0x2A4F JUMPI PUSH3 0x2A4E PUSH3 0x29F3 JUMP JUMPDEST JUMPDEST DUP3 DUP3 DIV SWAP1 POP SWAP3 SWAP2 POP POP JUMP JUMPDEST PUSH1 0x0 PUSH1 0x60 DUP3 ADD SWAP1 POP PUSH3 0x2A71 PUSH1 0x0 DUP4 ADD DUP7 PUSH3 0x2553 JUMP JUMPDEST PUSH3 0x2A80 PUSH1 0x20 DUP4 ADD DUP6 PUSH3 0x2553 JUMP JUMPDEST PUSH3 0x2A8F PUSH1 0x40 DUP4 ADD DUP5 PUSH3 0x209F JUMP JUMPDEST SWAP5 SWAP4 POP POP POP POP JUMP JUMPDEST PUSH32 0x4552524F5220414C205452414E53464552495200000000000000000000000000 PUSH1 0x0 DUP3 ADD MSTORE POP JUMP JUMPDEST PUSH1 0x0 PUSH3 0x2ACF PUSH1 0x13 DUP4 PUSH3 0x2917 JUMP JUMPDEST SWAP2 POP PUSH3 0x2ADC DUP3 PUSH3 0x2A97 JUMP JUMPDEST PUSH1 0x20 DUP3 ADD SWAP1 POP SWAP2 SWAP1 POP JUMP JUMPDEST PUSH1 0x0 PUSH1 0x20 DUP3 ADD SWAP1 POP DUP2 DUP2 SUB PUSH1 0x0 DUP4 ADD MSTORE PUSH3 0x2B02 DUP2 PUSH3 0x2AC0 JUMP JUMPDEST SWAP1 POP SWAP2 SWAP1 POP JUMP JUMPDEST PUSH1 0x0 PUSH1 0x40 DUP3 ADD SWAP1 POP PUSH3 0x2B20 PUSH1 0x0 DUP4 ADD DUP6 PUSH3 0x209F JUMP JUMPDEST PUSH3 0x2B2F PUSH1 0x20 DUP4 ADD DUP5 PUSH3 0x209F JUMP JUMPDEST SWAP4 SWAP3 POP POP POP JUMP JUMPDEST PUSH1 0x0 PUSH3 0x2B43 DUP3 PUSH3 0x1F9C JUMP JUMPDEST SWAP2 POP PUSH3 0x2B50 DUP4 PUSH3 0x1F9C JUMP JUMPDEST SWAP3 POP DUP2 PUSH32 0xFFFFFFFFFFFFFFFFFFFFFFFFFFFFFFFFFFFFFFFFFFFFFFFFFFFFFFFFFFFFFFFF DIV DUP4 GT DUP3 ISZERO ISZERO AND ISZERO PUSH3 0x2B8C JUMPI PUSH3 0x2B8B PUSH3 0x247A JUMP JUMPDEST JUMPDEST DUP3 DUP3 MUL SWAP1 POP SWAP3 SWAP2 POP POP JUMP JUMPDEST PUSH1 0x0 DUP2 SWAP1 POP SWAP3 SWAP2 POP POP JUMP JUMPDEST PUSH1 0x0 PUSH3 0x2BAF DUP3 PUSH3 0x290C JUMP JUMPDEST PUSH3 0x2BBB DUP2 DUP6 PUSH3 0x2B97 JUMP JUMPDEST SWAP4 POP PUSH3 0x2BCD DUP2 DUP6 PUSH1 0x20 DUP7 ADD PUSH3 0x2928 JUMP JUMPDEST DUP1 DUP5 ADD SWAP2 POP POP SWAP3 SWAP2 POP POP JUMP JUMPDEST PUSH1 0x0 PUSH3 0x2BE7 DUP3 DUP5 PUSH3 0x2BA2 JUMP JUMPDEST SWAP2 POP DUP2 SWAP1 POP SWAP3 SWAP2 POP POP JUMP INVALID PUSH1 0x80 PUSH1 0x40 MSTORE CALLVALUE DUP1 ISZERO PUSH3 0x11 JUMPI PUSH1 0x0 DUP1 REVERT JUMPDEST POP PUSH1 0x40 MLOAD PUSH3 0x1875 CODESIZE SUB DUP1 PUSH3 0x1875 DUP4 CODECOPY DUP2 DUP2 ADD PUSH1 0x40 MSTORE DUP2 ADD SWAP1 PUSH3 0x37 SWAP2 SWAP1 PUSH3 0x3C1 JUMP JUMPDEST DUP4 PUSH1 0x3 DUP2 SWAP1 SSTORE POP DUP3 PUSH1 0x4 DUP2 SWAP1 SSTORE POP DUP2 PUSH1 0x5 DUP2 SWAP1 SSTORE POP DUP1 PUSH1 0x2 DUP2 SWAP1 SSTORE POP PUSH1 0x40 MLOAD DUP1 PUSH1 0xA0 ADD PUSH1 0x40 MSTORE DUP1 PUSH1 0x40 MLOAD DUP1 PUSH1 0x40 ADD PUSH1 0x40 MSTORE DUP1 PUSH1 0xB DUP2 MSTORE PUSH1 0x20 ADD PUSH32 0x5065737469636964612041000000000000000000000000000000000000000000 DUP2 MSTORE POP DUP2 MSTORE PUSH1 0x20 ADD PUSH1 0x40 MLOAD DUP1 PUSH1 0x40 ADD PUSH1 0x40 MSTORE DUP1 PUSH1 0xB DUP2 MSTORE PUSH1 0x20 ADD PUSH32 0x5065737469636964612042000000000000000000000000000000000000000000 DUP2 MSTORE POP DUP2 MSTORE PUSH1 0x20 ADD PUSH1 0x40 MLOAD DUP1 PUSH1 0x40 ADD PUSH1 0x40 MSTORE DUP1 PUSH1 0xB DUP2 MSTORE PUSH1 0x20 ADD PUSH32 0x5065737469636964612043000000000000000000000000000000000000000000 DUP2 MSTORE POP DUP2 MSTORE PUSH1 0x20 ADD PUSH1 0x40 MLOAD DUP1 PUSH1 0x40 ADD PUSH1 0x40 MSTORE DUP1 PUSH1 0xB DUP2 MSTORE PUSH1 0x20 ADD PUSH32 0x5065737469636964612044000000000000000000000000000000000000000000 DUP2 MSTORE POP DUP2 MSTORE PUSH1 0x20 ADD PUSH1 0x40 MLOAD DUP1 PUSH1 0x40 ADD PUSH1 0x40 MSTORE DUP1 PUSH1 0xB DUP2 MSTORE PUSH1 0x20 ADD PUSH32 0x5065737469636964612045000000000000000000000000000000000000000000 DUP2 MSTORE POP DUP2 MSTORE POP PUSH1 0x6 SWAP1 PUSH1 0x5 PUSH3 0x195 SWAP3 SWAP2 SWAP1 PUSH3 0x1FC JUMP JUMPDEST POP CALLER PUSH1 0x7 PUSH1 0x0 PUSH2 0x100 EXP DUP2 SLOAD DUP2 PUSH20 0xFFFFFFFFFFFFFFFFFFFFFFFFFFFFFFFFFFFFFFFF MUL NOT AND SWAP1 DUP4 PUSH20 0xFFFFFFFFFFFFFFFFFFFFFFFFFFFFFFFFFFFFFFFF AND MUL OR SWAP1 SSTORE POP PUSH1 0x1 PUSH1 0x7 PUSH1 0x14 PUSH2 0x100 EXP DUP2 SLOAD DUP2 PUSH1 0xFF MUL NOT AND SWAP1 DUP4 ISZERO ISZERO MUL OR SWAP1 SSTORE POP POP POP POP POP PUSH3 0x497 JUMP JUMPDEST DUP3 DUP1 SLOAD DUP3 DUP3 SSTORE SWAP1 PUSH1 0x0 MSTORE PUSH1 0x20 PUSH1 0x0 KECCAK256 SWAP1 DUP2 ADD SWAP3 DUP3 ISZERO PUSH3 0x250 JUMPI SWAP2 PUSH1 0x20 MUL DUP3 ADD JUMPDEST DUP3 DUP2 GT ISZERO PUSH3 0x24F JUMPI DUP3 MLOAD DUP3 SWAP1 DUP1 MLOAD SWAP1 PUSH1 0x20 ADD SWAP1 PUSH3 0x23E SWAP3 SWAP2 SWAP1 PUSH3 0x263 JUMP JUMPDEST POP SWAP2 PUSH1 0x20 ADD SWAP2 SWAP1 PUSH1 0x1 ADD SWAP1 PUSH3 0x21D JUMP JUMPDEST JUMPDEST POP SWAP1 POP PUSH3 0x25F SWAP2 SWAP1 PUSH3 0x2F4 JUMP JUMPDEST POP SWAP1 JUMP JUMPDEST DUP3 DUP1 SLOAD PUSH3 0x271 SWAP1 PUSH3 0x462 JUMP JUMPDEST SWAP1 PUSH1 0x0 MSTORE PUSH1 0x20 PUSH1 0x0 KECCAK256 SWAP1 PUSH1 0x1F ADD PUSH1 0x20 SWAP1 DIV DUP2 ADD SWAP3 DUP3 PUSH3 0x295 JUMPI PUSH1 0x0 DUP6 SSTORE PUSH3 0x2E1 JUMP JUMPDEST DUP3 PUSH1 0x1F LT PUSH3 0x2B0 JUMPI DUP1 MLOAD PUSH1 0xFF NOT AND DUP4 DUP1 ADD OR DUP6 SSTORE PUSH3 0x2E1 JUMP JUMPDEST DUP3 DUP1 ADD PUSH1 0x1 ADD DUP6 SSTORE DUP3 ISZERO PUSH3 0x2E1 JUMPI SWAP2 DUP3 ADD JUMPDEST DUP3 DUP2 GT ISZERO PUSH3 0x2E0 JUMPI DUP3 MLOAD DUP3 SSTORE SWAP2 PUSH1 0x20 ADD SWAP2 SWAP1 PUSH1 0x1 ADD SWAP1 PUSH3 0x2C3 JUMP JUMPDEST JUMPDEST POP SWAP1 POP PUSH3 0x2F0 SWAP2 SWAP1 PUSH3 0x31C JUMP JUMPDEST POP SWAP1 JUMP JUMPDEST JUMPDEST DUP1 DUP3 GT ISZERO PUSH3 0x318 JUMPI PUSH1 0x0 DUP2 DUP2 PUSH3 0x30E SWAP2 SWAP1 PUSH3 0x33B JUMP JUMPDEST POP PUSH1 0x1 ADD PUSH3 0x2F5 JUMP JUMPDEST POP SWAP1 JUMP JUMPDEST JUMPDEST DUP1 DUP3 GT ISZERO PUSH3 0x337 JUMPI PUSH1 0x0 DUP2 PUSH1 0x0 SWAP1 SSTORE POP PUSH1 0x1 ADD PUSH3 0x31D JUMP JUMPDEST POP SWAP1 JUMP JUMPDEST POP DUP1 SLOAD PUSH3 0x349 SWAP1 PUSH3 0x462 JUMP JUMPDEST PUSH1 0x0 DUP3 SSTORE DUP1 PUSH1 0x1F LT PUSH3 0x35D JUMPI POP PUSH3 0x37E JUMP JUMPDEST PUSH1 0x1F ADD PUSH1 0x20 SWAP1 DIV SWAP1 PUSH1 0x0 MSTORE PUSH1 0x20 PUSH1 0x0 KECCAK256 SWAP1 DUP2 ADD SWAP1 PUSH3 0x37D SWAP2 SWAP1 PUSH3 0x31C JUMP JUMPDEST JUMPDEST POP JUMP JUMPDEST PUSH1 0x0 DUP1 REVERT JUMPDEST PUSH1 0x0 DUP2 SWAP1 POP SWAP2 SWAP1 POP JUMP JUMPDEST PUSH3 0x39B DUP2 PUSH3 0x386 JUMP JUMPDEST DUP2 EQ PUSH3 0x3A7 JUMPI PUSH1 0x0 DUP1 REVERT JUMPDEST POP JUMP JUMPDEST PUSH1 0x0 DUP2 MLOAD SWAP1 POP PUSH3 0x3BB DUP2 PUSH3 0x390 JUMP JUMPDEST SWAP3 SWAP2 POP POP JUMP JUMPDEST PUSH1 0x0 DUP1 PUSH1 0x0 DUP1 PUSH1 0x80 DUP6 DUP8 SUB SLT ISZERO PUSH3 0x3DE JUMPI PUSH3 0x3DD PUSH3 0x381 JUMP JUMPDEST JUMPDEST PUSH1 0x0 PUSH3 0x3EE DUP8 DUP3 DUP9 ADD PUSH3 0x3AA JUMP JUMPDEST SWAP5 POP POP PUSH1 0x20 PUSH3 0x401 DUP8 DUP3 DUP9 ADD PUSH3 0x3AA JUMP JUMPDEST SWAP4 POP POP PUSH1 0x40 PUSH3 0x414 DUP8 DUP3 DUP9 ADD PUSH3 0x3AA JUMP JUMPDEST SWAP3 POP POP PUSH1 0x60 PUSH3 0x427 DUP8 DUP3 DUP9 ADD PUSH3 0x3AA JUMP JUMPDEST SWAP2 POP POP SWAP3 SWAP6 SWAP2 SWAP5 POP SWAP3 POP JUMP JUMPDEST PUSH32 0x4E487B7100000000000000000000000000000000000000000000000000000000 PUSH1 0x0 MSTORE PUSH1 0x22 PUSH1 0x4 MSTORE PUSH1 0x24 PUSH1 0x0 REVERT JUMPDEST PUSH1 0x0 PUSH1 0x2 DUP3 DIV SWAP1 POP PUSH1 0x1 DUP3 AND DUP1 PUSH3 0x47B JUMPI PUSH1 0x7F DUP3 AND SWAP2 POP JUMPDEST PUSH1 0x20 DUP3 LT DUP2 SUB PUSH3 0x491 JUMPI PUSH3 0x490 PUSH3 0x433 JUMP JUMPDEST JUMPDEST POP SWAP2 SWAP1 POP JUMP JUMPDEST PUSH2 0x13CE DUP1 PUSH3 0x4A7 PUSH1 0x0 CODECOPY PUSH1 0x0 RETURN INVALID PUSH1 0x80 PUSH1 0x40 MSTORE CALLVALUE DUP1 ISZERO PUSH2 0x10 JUMPI PUSH1 0x0 DUP1 REVERT JUMPDEST POP PUSH1 0x4 CALLDATASIZE LT PUSH2 0x115 JUMPI PUSH1 0x0 CALLDATALOAD PUSH1 0xE0 SHR DUP1 PUSH4 0x6352211E GT PUSH2 0xA2 JUMPI DUP1 PUSH4 0xB3E1C718 GT PUSH2 0x71 JUMPI DUP1 PUSH4 0xB3E1C718 EQ PUSH2 0x2E2 JUMPI DUP1 PUSH4 0xBD3E19D4 EQ PUSH2 0x2FE JUMPI DUP1 PUSH4 0xCF22B577 EQ PUSH2 0x31C JUMPI DUP1 PUSH4 0xE2FB9893 EQ PUSH2 0x33A JUMPI DUP1 PUSH4 0xE7BCEBF0 EQ PUSH2 0x356 JUMPI PUSH2 0x115 JUMP JUMPDEST DUP1 PUSH4 0x6352211E EQ PUSH2 0x248 JUMPI DUP1 PUSH4 0x6A4F832B EQ PUSH2 0x278 JUMPI DUP1 PUSH4 0x70A08231 EQ PUSH2 0x294 JUMPI DUP1 PUSH4 0x8DA5CB5B EQ PUSH2 0x2C4 JUMPI PUSH2 0x115 JUMP JUMPDEST DUP1 PUSH4 0x1E7EC0F3 GT PUSH2 0xE9 JUMPI DUP1 PUSH4 0x1E7EC0F3 EQ PUSH2 0x1B6 JUMPI DUP1 PUSH4 0x2B81FF95 EQ PUSH2 0x1D2 JUMPI DUP1 PUSH4 0x32B93996 EQ PUSH2 0x1EE JUMPI DUP1 PUSH4 0x3FBAA475 EQ PUSH2 0x20C JUMPI DUP1 PUSH4 0x49BEFA85 EQ PUSH2 0x22A JUMPI PUSH2 0x115 JUMP JUMPDEST DUP1 PUSH3 0xFEF856 EQ PUSH2 0x11A JUMPI DUP1 PUSH4 0x1FFC9A7 EQ PUSH2 0x138 JUMPI DUP1 PUSH4 0x13FAEDE6 EQ PUSH2 0x168 JUMPI DUP1 PUSH4 0x175F4EAE EQ PUSH2 0x186 JUMPI JUMPDEST PUSH1 0x0 DUP1 REVERT JUMPDEST PUSH2 0x122 PUSH2 0x374 JUMP JUMPDEST PUSH1 0x40 MLOAD PUSH2 0x12F SWAP2 SWAP1 PUSH2 0xAC0 JUMP JUMPDEST PUSH1 0x40 MLOAD DUP1 SWAP2 SUB SWAP1 RETURN JUMPDEST PUSH2 0x152 PUSH1 0x4 DUP1 CALLDATASIZE SUB DUP2 ADD SWAP1 PUSH2 0x14D SWAP2 SWAP1 PUSH2 0xB47 JUMP JUMPDEST PUSH2 0x38B JUMP JUMPDEST PUSH1 0x40 MLOAD PUSH2 0x15F SWAP2 SWAP1 PUSH2 0xAC0 JUMP JUMPDEST PUSH1 0x40 MLOAD DUP1 SWAP2 SUB SWAP1 RETURN JUMPDEST PUSH2 0x170 PUSH2 0x3F5 JUMP JUMPDEST PUSH1 0x40 MLOAD PUSH2 0x17D SWAP2 SWAP1 PUSH2 0xB8D JUMP JUMPDEST PUSH1 0x40 MLOAD DUP1 SWAP2 SUB SWAP1 RETURN JUMPDEST PUSH2 0x1A0 PUSH1 0x4 DUP1 CALLDATASIZE SUB DUP2 ADD SWAP1 PUSH2 0x19B SWAP2 SWAP1 PUSH2 0xBD4 JUMP JUMPDEST PUSH2 0x3FB JUMP JUMPDEST PUSH1 0x40 MLOAD PUSH2 0x1AD SWAP2 SWAP1 PUSH2 0xC9A JUMP JUMPDEST PUSH1 0x40 MLOAD DUP1 SWAP2 SUB SWAP1 RETURN JUMPDEST PUSH2 0x1D0 PUSH1 0x4 DUP1 CALLDATASIZE SUB DUP2 ADD SWAP1 PUSH2 0x1CB SWAP2 SWAP1 PUSH2 0xBD4 JUMP JUMPDEST PUSH2 0x4A7 JUMP JUMPDEST STOP JUMPDEST PUSH2 0x1EC PUSH1 0x4 DUP1 CALLDATASIZE SUB DUP2 ADD SWAP1 PUSH2 0x1E7 SWAP2 SWAP1 PUSH2 0xCE8 JUMP JUMPDEST PUSH2 0x53B JUMP JUMPDEST STOP JUMPDEST PUSH2 0x1F6 PUSH2 0x558 JUMP JUMPDEST PUSH1 0x40 MLOAD PUSH2 0x203 SWAP2 SWAP1 PUSH2 0xB8D JUMP JUMPDEST PUSH1 0x40 MLOAD DUP1 SWAP2 SUB SWAP1 RETURN JUMPDEST PUSH2 0x214 PUSH2 0x55E JUMP JUMPDEST PUSH1 0x40 MLOAD PUSH2 0x221 SWAP2 SWAP1 PUSH2 0xB8D JUMP JUMPDEST PUSH1 0x40 MLOAD DUP1 SWAP2 SUB SWAP1 RETURN JUMPDEST PUSH2 0x232 PUSH2 0x564 JUMP JUMPDEST PUSH1 0x40 MLOAD PUSH2 0x23F SWAP2 SWAP1 PUSH2 0xB8D JUMP JUMPDEST PUSH1 0x40 MLOAD DUP1 SWAP2 SUB SWAP1 RETURN JUMPDEST PUSH2 0x262 PUSH1 0x4 DUP1 CALLDATASIZE SUB DUP2 ADD SWAP1 PUSH2 0x25D SWAP2 SWAP1 PUSH2 0xBD4 JUMP JUMPDEST PUSH2 0x56E JUMP JUMPDEST PUSH1 0x40 MLOAD PUSH2 0x26F SWAP2 SWAP1 PUSH2 0xD56 JUMP JUMPDEST PUSH1 0x40 MLOAD DUP1 SWAP2 SUB SWAP1 RETURN JUMPDEST PUSH2 0x292 PUSH1 0x4 DUP1 CALLDATASIZE SUB DUP2 ADD SWAP1 PUSH2 0x28D SWAP2 SWAP1 PUSH2 0xED2 JUMP JUMPDEST PUSH2 0x61E JUMP JUMPDEST STOP JUMPDEST PUSH2 0x2AE PUSH1 0x4 DUP1 CALLDATASIZE SUB DUP2 ADD SWAP1 PUSH2 0x2A9 SWAP2 SWAP1 PUSH2 0xF41 JUMP JUMPDEST PUSH2 0x643 JUMP JUMPDEST PUSH1 0x40 MLOAD PUSH2 0x2BB SWAP2 SWAP1 PUSH2 0xB8D JUMP JUMPDEST PUSH1 0x40 MLOAD DUP1 SWAP2 SUB SWAP1 RETURN JUMPDEST PUSH2 0x2CC PUSH2 0x68C JUMP JUMPDEST PUSH1 0x40 MLOAD PUSH2 0x2D9 SWAP2 SWAP1 PUSH2 0xD56 JUMP JUMPDEST PUSH1 0x40 MLOAD DUP1 SWAP2 SUB SWAP1 RETURN JUMPDEST PUSH2 0x2FC PUSH1 0x4 DUP1 CALLDATASIZE SUB DUP2 ADD SWAP1 PUSH2 0x2F7 SWAP2 SWAP1 PUSH2 0xF6E JUMP JUMPDEST PUSH2 0x6B2 JUMP JUMPDEST STOP JUMPDEST PUSH2 0x306 PUSH2 0x6D0 JUMP JUMPDEST PUSH1 0x40 MLOAD PUSH2 0x313 SWAP2 SWAP1 PUSH2 0xB8D JUMP JUMPDEST PUSH1 0x40 MLOAD DUP1 SWAP2 SUB SWAP1 RETURN JUMPDEST PUSH2 0x324 PUSH2 0x6DA JUMP JUMPDEST PUSH1 0x40 MLOAD PUSH2 0x331 SWAP2 SWAP1 PUSH2 0xB8D JUMP JUMPDEST PUSH1 0x40 MLOAD DUP1 SWAP2 SUB SWAP1 RETURN JUMPDEST PUSH2 0x354 PUSH1 0x4 DUP1 CALLDATASIZE SUB DUP2 ADD SWAP1 PUSH2 0x34F SWAP2 SWAP1 PUSH2 0xF6E JUMP JUMPDEST PUSH2 0x6E4 JUMP JUMPDEST STOP JUMPDEST PUSH2 0x35E PUSH2 0x6F2 JUMP JUMPDEST PUSH1 0x40 MLOAD PUSH2 0x36B SWAP2 SWAP1 PUSH2 0xB8D JUMP JUMPDEST PUSH1 0x40 MLOAD DUP1 SWAP2 SUB SWAP1 RETURN JUMPDEST PUSH1 0x0 PUSH1 0x7 PUSH1 0x14 SWAP1 SLOAD SWAP1 PUSH2 0x100 EXP SWAP1 DIV PUSH1 0xFF AND SWAP1 POP SWAP1 JUMP JUMPDEST PUSH1 0x0 PUSH32 0x1FFC9A700000000000000000000000000000000000000000000000000000000 PUSH28 0xFFFFFFFFFFFFFFFFFFFFFFFFFFFFFFFFFFFFFFFFFFFFFFFFFFFFFFFF NOT AND DUP3 PUSH28 0xFFFFFFFFFFFFFFFFFFFFFFFFFFFFFFFFFFFFFFFFFFFFFFFFFFFFFFFF NOT AND EQ SWAP1 POP SWAP2 SWAP1 POP JUMP JUMPDEST PUSH1 0x5 SLOAD DUP2 JUMP JUMPDEST PUSH1 0x6 DUP2 DUP2 SLOAD DUP2 LT PUSH2 0x40B JUMPI PUSH1 0x0 DUP1 REVERT JUMPDEST SWAP1 PUSH1 0x0 MSTORE PUSH1 0x20 PUSH1 0x0 KECCAK256 ADD PUSH1 0x0 SWAP2 POP SWAP1 POP DUP1 SLOAD PUSH2 0x426 SWAP1 PUSH2 0xFDD JUMP JUMPDEST DUP1 PUSH1 0x1F ADD PUSH1 0x20 DUP1 SWAP2 DIV MUL PUSH1 0x20 ADD PUSH1 0x40 MLOAD SWAP1 DUP2 ADD PUSH1 0x40 MSTORE DUP1 SWAP3 SWAP2 SWAP1 DUP2 DUP2 MSTORE PUSH1 0x20 ADD DUP3 DUP1 SLOAD PUSH2 0x452 SWAP1 PUSH2 0xFDD JUMP JUMPDEST DUP1 ISZERO PUSH2 0x49F JUMPI DUP1 PUSH1 0x1F LT PUSH2 0x474 JUMPI PUSH2 0x100 DUP1 DUP4 SLOAD DIV MUL DUP4 MSTORE SWAP2 PUSH1 0x20 ADD SWAP2 PUSH2 0x49F JUMP JUMPDEST DUP3 ADD SWAP2 SWAP1 PUSH1 0x0 MSTORE PUSH1 0x20 PUSH1 0x0 KECCAK256 SWAP1 JUMPDEST DUP2 SLOAD DUP2 MSTORE SWAP1 PUSH1 0x1 ADD SWAP1 PUSH1 0x20 ADD DUP1 DUP4 GT PUSH2 0x482 JUMPI DUP3 SWAP1 SUB PUSH1 0x1F AND DUP3 ADD SWAP2 JUMPDEST POP POP POP POP POP DUP2 JUMP JUMPDEST PUSH1 0x7 PUSH1 0x0 SWAP1 SLOAD SWAP1 PUSH2 0x100 EXP SWAP1 DIV PUSH20 0xFFFFFFFFFFFFFFFFFFFFFFFFFFFFFFFFFFFFFFFF AND PUSH20 0xFFFFFFFFFFFFFFFFFFFFFFFFFFFFFFFFFFFFFFFF AND CALLER PUSH20 0xFFFFFFFFFFFFFFFFFFFFFFFFFFFFFFFFFFFFFFFF AND EQ PUSH2 0x501 JUMPI PUSH1 0x0 DUP1 REVERT JUMPDEST PUSH32 0x127988BD735FFA5C5534FD889E7069D274B48E633535F314E203463F4EBF87A3 DUP2 PUSH1 0x40 MLOAD PUSH2 0x530 SWAP2 SWAP1 PUSH2 0xB8D JUMP JUMPDEST PUSH1 0x40 MLOAD DUP1 SWAP2 SUB SWAP1 LOG1 POP JUMP JUMPDEST DUP1 PUSH1 0x7 PUSH1 0x14 PUSH2 0x100 EXP DUP2 SLOAD DUP2 PUSH1 0xFF MUL NOT AND SWAP1 DUP4 ISZERO ISZERO MUL OR SWAP1 SSTORE POP POP JUMP JUMPDEST PUSH1 0x4 SLOAD DUP2 JUMP JUMPDEST PUSH1 0x3 SLOAD DUP2 JUMP JUMPDEST PUSH1 0x0 PUSH1 0x4 SLOAD SWAP1 POP SWAP1 JUMP JUMPDEST PUSH1 0x0 DUP1 PUSH1 0x0 DUP1 DUP5 DUP2 MSTORE PUSH1 0x20 ADD SWAP1 DUP2 MSTORE PUSH1 0x20 ADD PUSH1 0x0 KECCAK256 PUSH1 0x0 SWAP1 SLOAD SWAP1 PUSH2 0x100 EXP SWAP1 DIV PUSH20 0xFFFFFFFFFFFFFFFFFFFFFFFFFFFFFFFFFFFFFFFF AND SWAP1 POP PUSH1 0x0 PUSH20 0xFFFFFFFFFFFFFFFFFFFFFFFFFFFFFFFFFFFFFFFF AND DUP2 PUSH20 0xFFFFFFFFFFFFFFFFFFFFFFFFFFFFFFFFFFFFFFFF AND SUB PUSH2 0x615 JUMPI PUSH1 0x40 MLOAD PUSH32 0x8C379A000000000000000000000000000000000000000000000000000000000 DUP2 MSTORE PUSH1 0x4 ADD PUSH2 0x60C SWAP1 PUSH2 0x105A JUMP JUMPDEST PUSH1 0x40 MLOAD DUP1 SWAP2 SUB SWAP1 REVERT JUMPDEST DUP1 SWAP2 POP POP SWAP2 SWAP1 POP JUMP JUMPDEST PUSH2 0x628 DUP4 DUP4 PUSH2 0x6F8 JUMP JUMPDEST PUSH2 0x635 PUSH1 0x0 DUP5 DUP5 DUP5 PUSH2 0x8B7 JUMP JUMPDEST PUSH2 0x63E JUMPI PUSH1 0x0 DUP1 REVERT JUMPDEST POP POP POP JUMP JUMPDEST PUSH1 0x0 PUSH1 0x1 PUSH1 0x0 DUP4 PUSH20 0xFFFFFFFFFFFFFFFFFFFFFFFFFFFFFFFFFFFFFFFF AND PUSH20 0xFFFFFFFFFFFFFFFFFFFFFFFFFFFFFFFFFFFFFFFF AND DUP2 MSTORE PUSH1 0x20 ADD SWAP1 DUP2 MSTORE PUSH1 0x20 ADD PUSH1 0x0 KECCAK256 SLOAD SWAP1 POP SWAP2 SWAP1 POP JUMP JUMPDEST PUSH1 0x7 PUSH1 0x0 SWAP1 SLOAD SWAP1 PUSH2 0x100 EXP SWAP1 DIV PUSH20 0xFFFFFFFFFFFFFFFFFFFFFFFFFFFFFFFFFFFFFFFF AND DUP2 JUMP JUMPDEST PUSH2 0x6CC DUP3 DUP3 PUSH1 0x40 MLOAD DUP1 PUSH1 0x20 ADD PUSH1 0x40 MSTORE DUP1 PUSH1 0x0 DUP2 MSTORE POP PUSH2 0x61E JUMP JUMPDEST POP POP JUMP JUMPDEST PUSH1 0x0 PUSH1 0x5 SLOAD SWAP1 POP SWAP1 JUMP JUMPDEST PUSH1 0x0 PUSH1 0x3 SLOAD SWAP1 POP SWAP1 JUMP JUMPDEST PUSH2 0x6EE DUP3 DUP3 PUSH2 0x6B2 JUMP JUMPDEST POP POP JUMP JUMPDEST PUSH1 0x2 SLOAD DUP2 JUMP JUMPDEST PUSH1 0x0 PUSH20 0xFFFFFFFFFFFFFFFFFFFFFFFFFFFFFFFFFFFFFFFF AND DUP3 PUSH20 0xFFFFFFFFFFFFFFFFFFFFFFFFFFFFFFFFFFFFFFFF AND SUB PUSH2 0x767 JUMPI PUSH1 0x40 MLOAD PUSH32 0x8C379A000000000000000000000000000000000000000000000000000000000 DUP2 MSTORE PUSH1 0x4 ADD PUSH2 0x75E SWAP1 PUSH2 0x10EC JUMP JUMPDEST PUSH1 0x40 MLOAD DUP1 SWAP2 SUB SWAP1 REVERT JUMPDEST PUSH2 0x770 DUP2 PUSH2 0xA21 JUMP JUMPDEST ISZERO PUSH2 0x7B0 JUMPI PUSH1 0x40 MLOAD PUSH32 0x8C379A000000000000000000000000000000000000000000000000000000000 DUP2 MSTORE PUSH1 0x4 ADD PUSH2 0x7A7 SWAP1 PUSH2 0x117E JUMP JUMPDEST PUSH1 0x40 MLOAD DUP1 SWAP2 SUB SWAP1 REVERT JUMPDEST PUSH1 0x1 DUP1 PUSH1 0x0 DUP5 PUSH20 0xFFFFFFFFFFFFFFFFFFFFFFFFFFFFFFFFFFFFFFFF AND PUSH20 0xFFFFFFFFFFFFFFFFFFFFFFFFFFFFFFFFFFFFFFFF AND DUP2 MSTORE PUSH1 0x20 ADD SWAP1 DUP2 MSTORE PUSH1 0x20 ADD PUSH1 0x0 KECCAK256 PUSH1 0x0 DUP3 DUP3 SLOAD PUSH2 0x7FF SWAP2 SWAP1 PUSH2 0x11CD JUMP JUMPDEST SWAP3 POP POP DUP2 SWAP1 SSTORE POP DUP2 PUSH1 0x0 DUP1 DUP4 DUP2 MSTORE PUSH1 0x20 ADD SWAP1 DUP2 MSTORE PUSH1 0x20 ADD PUSH1 0x0 KECCAK256 PUSH1 0x0 PUSH2 0x100 EXP DUP2 SLOAD DUP2 PUSH20 0xFFFFFFFFFFFFFFFFFFFFFFFFFFFFFFFFFFFFFFFF MUL NOT AND SWAP1 DUP4 PUSH20 0xFFFFFFFFFFFFFFFFFFFFFFFFFFFFFFFFFFFFFFFF AND MUL OR SWAP1 SSTORE POP DUP1 DUP3 PUSH20 0xFFFFFFFFFFFFFFFFFFFFFFFFFFFFFFFFFFFFFFFF AND PUSH1 0x0 PUSH20 0xFFFFFFFFFFFFFFFFFFFFFFFFFFFFFFFFFFFFFFFF AND PUSH32 0xDDF252AD1BE2C89B69C2B068FC378DAA952BA7F163C4A11628F55A4DF523B3EF PUSH1 0x40 MLOAD PUSH1 0x40 MLOAD DUP1 SWAP2 SUB SWAP1 LOG4 POP POP JUMP JUMPDEST PUSH1 0x0 PUSH2 0x8C2 DUP5 PUSH2 0xA8C JUMP JUMPDEST ISZERO PUSH2 0xA14 JUMPI DUP4 PUSH20 0xFFFFFFFFFFFFFFFFFFFFFFFFFFFFFFFFFFFFFFFF AND PUSH4 0x150B7A02 CALLER DUP8 DUP7 DUP7 PUSH1 0x40 MLOAD DUP6 PUSH4 0xFFFFFFFF AND PUSH1 0xE0 SHL DUP2 MSTORE PUSH1 0x4 ADD PUSH2 0x906 SWAP5 SWAP4 SWAP3 SWAP2 SWAP1 PUSH2 0x1278 JUMP JUMPDEST PUSH1 0x20 PUSH1 0x40 MLOAD DUP1 DUP4 SUB DUP2 PUSH1 0x0 DUP8 GAS CALL SWAP3 POP POP POP DUP1 ISZERO PUSH2 0x942 JUMPI POP PUSH1 0x40 MLOAD RETURNDATASIZE PUSH1 0x1F NOT PUSH1 0x1F DUP3 ADD AND DUP3 ADD DUP1 PUSH1 0x40 MSTORE POP DUP2 ADD SWAP1 PUSH2 0x93F SWAP2 SWAP1 PUSH2 0x12D9 JUMP JUMPDEST PUSH1 0x1 JUMPDEST PUSH2 0x9C4 JUMPI RETURNDATASIZE DUP1 PUSH1 0x0 DUP2 EQ PUSH2 0x972 JUMPI PUSH1 0x40 MLOAD SWAP2 POP PUSH1 0x1F NOT PUSH1 0x3F RETURNDATASIZE ADD AND DUP3 ADD PUSH1 0x40 MSTORE RETURNDATASIZE DUP3 MSTORE RETURNDATASIZE PUSH1 0x0 PUSH1 0x20 DUP5 ADD RETURNDATACOPY PUSH2 0x977 JUMP JUMPDEST PUSH1 0x60 SWAP2 POP JUMPDEST POP PUSH1 0x0 DUP2 MLOAD SUB PUSH2 0x9BC JUMPI PUSH1 0x40 MLOAD PUSH32 0x8C379A000000000000000000000000000000000000000000000000000000000 DUP2 MSTORE PUSH1 0x4 ADD PUSH2 0x9B3 SWAP1 PUSH2 0x1378 JUMP JUMPDEST PUSH1 0x40 MLOAD DUP1 SWAP2 SUB SWAP1 REVERT JUMPDEST DUP1 MLOAD DUP2 PUSH1 0x20 ADD REVERT JUMPDEST PUSH4 0x150B7A02 PUSH1 0xE0 SHL PUSH28 0xFFFFFFFFFFFFFFFFFFFFFFFFFFFFFFFFFFFFFFFFFFFFFFFFFFFFFFFF NOT AND DUP2 PUSH28 0xFFFFFFFFFFFFFFFFFFFFFFFFFFFFFFFFFFFFFFFFFFFFFFFFFFFFFFFF NOT AND EQ SWAP2 POP POP PUSH2 0xA19 JUMP JUMPDEST PUSH1 0x1 SWAP1 POP JUMPDEST SWAP5 SWAP4 POP POP POP POP JUMP JUMPDEST PUSH1 0x0 DUP1 PUSH20 0xFFFFFFFFFFFFFFFFFFFFFFFFFFFFFFFFFFFFFFFF AND PUSH1 0x0 DUP1 DUP5 DUP2 MSTORE PUSH1 0x20 ADD SWAP1 DUP2 MSTORE PUSH1 0x20 ADD PUSH1 0x0 KECCAK256 PUSH1 0x0 SWAP1 SLOAD SWAP1 PUSH2 0x100 EXP SWAP1 DIV PUSH20 0xFFFFFFFFFFFFFFFFFFFFFFFFFFFFFFFFFFFFFFFF AND PUSH20 0xFFFFFFFFFFFFFFFFFFFFFFFFFFFFFFFFFFFFFFFF AND EQ ISZERO SWAP1 POP SWAP2 SWAP1 POP JUMP JUMPDEST PUSH1 0x0 DUP1 DUP3 EXTCODESIZE SWAP1 POP PUSH1 0x0 DUP2 PUSH4 0xFFFFFFFF AND GT SWAP2 POP POP SWAP2 SWAP1 POP JUMP JUMPDEST PUSH1 0x0 DUP2 ISZERO ISZERO SWAP1 POP SWAP2 SWAP1 POP JUMP JUMPDEST PUSH2 0xABA DUP2 PUSH2 0xAA5 JUMP JUMPDEST DUP3 MSTORE POP POP JUMP JUMPDEST PUSH1 0x0 PUSH1 0x20 DUP3 ADD SWAP1 POP PUSH2 0xAD5 PUSH1 0x0 DUP4 ADD DUP5 PUSH2 0xAB1 JUMP JUMPDEST SWAP3 SWAP2 POP POP JUMP JUMPDEST PUSH1 0x0 PUSH1 0x40 MLOAD SWAP1 POP SWAP1 JUMP JUMPDEST PUSH1 0x0 DUP1 REVERT JUMPDEST PUSH1 0x0 DUP1 REVERT JUMPDEST PUSH1 0x0 PUSH32 0xFFFFFFFF00000000000000000000000000000000000000000000000000000000 DUP3 AND SWAP1 POP SWAP2 SWAP1 POP JUMP JUMPDEST PUSH2 0xB24 DUP2 PUSH2 0xAEF JUMP JUMPDEST DUP2 EQ PUSH2 0xB2F JUMPI PUSH1 0x0 DUP1 REVERT JUMPDEST POP JUMP JUMPDEST PUSH1 0x0 DUP2 CALLDATALOAD SWAP1 POP PUSH2 0xB41 DUP2 PUSH2 0xB1B JUMP JUMPDEST SWAP3 SWAP2 POP POP JUMP JUMPDEST PUSH1 0x0 PUSH1 0x20 DUP3 DUP5 SUB SLT ISZERO PUSH2 0xB5D JUMPI PUSH2 0xB5C PUSH2 0xAE5 JUMP JUMPDEST JUMPDEST PUSH1 0x0 PUSH2 0xB6B DUP5 DUP3 DUP6 ADD PUSH2 0xB32 JUMP JUMPDEST SWAP2 POP POP SWAP3 SWAP2 POP POP JUMP JUMPDEST PUSH1 0x0 DUP2 SWAP1 POP SWAP2 SWAP1 POP JUMP JUMPDEST PUSH2 0xB87 DUP2 PUSH2 0xB74 JUMP JUMPDEST DUP3 MSTORE POP POP JUMP JUMPDEST PUSH1 0x0 PUSH1 0x20 DUP3 ADD SWAP1 POP PUSH2 0xBA2 PUSH1 0x0 DUP4 ADD DUP5 PUSH2 0xB7E JUMP JUMPDEST SWAP3 SWAP2 POP POP JUMP JUMPDEST PUSH2 0xBB1 DUP2 PUSH2 0xB74 JUMP JUMPDEST DUP2 EQ PUSH2 0xBBC JUMPI PUSH1 0x0 DUP1 REVERT JUMPDEST POP JUMP JUMPDEST PUSH1 0x0 DUP2 CALLDATALOAD SWAP1 POP PUSH2 0xBCE DUP2 PUSH2 0xBA8 JUMP JUMPDEST SWAP3 SWAP2 POP POP JUMP JUMPDEST PUSH1 0x0 PUSH1 0x20 DUP3 DUP5 SUB SLT ISZERO PUSH2 0xBEA JUMPI PUSH2 0xBE9 PUSH2 0xAE5 JUMP JUMPDEST JUMPDEST PUSH1 0x0 PUSH2 0xBF8 DUP5 DUP3 DUP6 ADD PUSH2 0xBBF JUMP JUMPDEST SWAP2 POP POP SWAP3 SWAP2 POP POP JUMP JUMPDEST PUSH1 0x0 DUP2 MLOAD SWAP1 POP SWAP2 SWAP1 POP JUMP JUMPDEST PUSH1 0x0 DUP3 DUP3 MSTORE PUSH1 0x20 DUP3 ADD SWAP1 POP SWAP3 SWAP2 POP POP JUMP JUMPDEST PUSH1 0x0 JUMPDEST DUP4 DUP2 LT ISZERO PUSH2 0xC3B JUMPI DUP1 DUP3 ADD MLOAD DUP2 DUP5 ADD MSTORE PUSH1 0x20 DUP2 ADD SWAP1 POP PUSH2 0xC20 JUMP JUMPDEST DUP4 DUP2 GT ISZERO PUSH2 0xC4A JUMPI PUSH1 0x0 DUP5 DUP5 ADD MSTORE JUMPDEST POP POP POP POP JUMP JUMPDEST PUSH1 0x0 PUSH1 0x1F NOT PUSH1 0x1F DUP4 ADD AND SWAP1 POP SWAP2 SWAP1 POP JUMP JUMPDEST PUSH1 0x0 PUSH2 0xC6C DUP3 PUSH2 0xC01 JUMP JUMPDEST PUSH2 0xC76 DUP2 DUP6 PUSH2 0xC0C JUMP JUMPDEST SWAP4 POP PUSH2 0xC86 DUP2 DUP6 PUSH1 0x20 DUP7 ADD PUSH2 0xC1D JUMP JUMPDEST PUSH2 0xC8F DUP2 PUSH2 0xC50 JUMP JUMPDEST DUP5 ADD SWAP2 POP POP SWAP3 SWAP2 POP POP JUMP JUMPDEST PUSH1 0x0 PUSH1 0x20 DUP3 ADD SWAP1 POP DUP2 DUP2 SUB PUSH1 0x0 DUP4 ADD MSTORE PUSH2 0xCB4 DUP2 DUP5 PUSH2 0xC61 JUMP JUMPDEST SWAP1 POP SWAP3 SWAP2 POP POP JUMP JUMPDEST PUSH2 0xCC5 DUP2 PUSH2 0xAA5 JUMP JUMPDEST DUP2 EQ PUSH2 0xCD0 JUMPI PUSH1 0x0 DUP1 REVERT JUMPDEST POP JUMP JUMPDEST PUSH1 0x0 DUP2 CALLDATALOAD SWAP1 POP PUSH2 0xCE2 DUP2 PUSH2 0xCBC JUMP JUMPDEST SWAP3 SWAP2 POP POP JUMP JUMPDEST PUSH1 0x0 PUSH1 0x20 DUP3 DUP5 SUB SLT ISZERO PUSH2 0xCFE JUMPI PUSH2 0xCFD PUSH2 0xAE5 JUMP JUMPDEST JUMPDEST PUSH1 0x0 PUSH2 0xD0C DUP5 DUP3 DUP6 ADD PUSH2 0xCD3 JUMP JUMPDEST SWAP2 POP POP SWAP3 SWAP2 POP POP JUMP JUMPDEST PUSH1 0x0 PUSH20 0xFFFFFFFFFFFFFFFFFFFFFFFFFFFFFFFFFFFFFFFF DUP3 AND SWAP1 POP SWAP2 SWAP1 POP JUMP JUMPDEST PUSH1 0x0 PUSH2 0xD40 DUP3 PUSH2 0xD15 JUMP JUMPDEST SWAP1 POP SWAP2 SWAP1 POP JUMP JUMPDEST PUSH2 0xD50 DUP2 PUSH2 0xD35 JUMP JUMPDEST DUP3 MSTORE POP POP JUMP JUMPDEST PUSH1 0x0 PUSH1 0x20 DUP3 ADD SWAP1 POP PUSH2 0xD6B PUSH1 0x0 DUP4 ADD DUP5 PUSH2 0xD47 JUMP JUMPDEST SWAP3 SWAP2 POP POP JUMP JUMPDEST PUSH2 0xD7A DUP2 PUSH2 0xD35 JUMP JUMPDEST DUP2 EQ PUSH2 0xD85 JUMPI PUSH1 0x0 DUP1 REVERT JUMPDEST POP JUMP JUMPDEST PUSH1 0x0 DUP2 CALLDATALOAD SWAP1 POP PUSH2 0xD97 DUP2 PUSH2 0xD71 JUMP JUMPDEST SWAP3 SWAP2 POP POP JUMP JUMPDEST PUSH1 0x0 DUP1 REVERT JUMPDEST PUSH1 0x0 DUP1 REVERT JUMPDEST PUSH32 0x4E487B7100000000000000000000000000000000000000000000000000000000 PUSH1 0x0 MSTORE PUSH1 0x41 PUSH1 0x4 MSTORE PUSH1 0x24 PUSH1 0x0 REVERT JUMPDEST PUSH2 0xDDF DUP3 PUSH2 0xC50 JUMP JUMPDEST DUP2 ADD DUP2 DUP2 LT PUSH8 0xFFFFFFFFFFFFFFFF DUP3 GT OR ISZERO PUSH2 0xDFE JUMPI PUSH2 0xDFD PUSH2 0xDA7 JUMP JUMPDEST JUMPDEST DUP1 PUSH1 0x40 MSTORE POP POP POP JUMP JUMPDEST PUSH1 0x0 PUSH2 0xE11 PUSH2 0xADB JUMP JUMPDEST SWAP1 POP PUSH2 0xE1D DUP3 DUP3 PUSH2 0xDD6 JUMP JUMPDEST SWAP2 SWAP1 POP JUMP JUMPDEST PUSH1 0x0 PUSH8 0xFFFFFFFFFFFFFFFF DUP3 GT ISZERO PUSH2 0xE3D JUMPI PUSH2 0xE3C PUSH2 0xDA7 JUMP JUMPDEST JUMPDEST PUSH2 0xE46 DUP3 PUSH2 0xC50 JUMP JUMPDEST SWAP1 POP PUSH1 0x20 DUP2 ADD SWAP1 POP SWAP2 SWAP1 POP JUMP JUMPDEST DUP3 DUP2 DUP4 CALLDATACOPY PUSH1 0x0 DUP4 DUP4 ADD MSTORE POP POP POP JUMP JUMPDEST PUSH1 0x0 PUSH2 0xE75 PUSH2 0xE70 DUP5 PUSH2 0xE22 JUMP JUMPDEST PUSH2 0xE07 JUMP JUMPDEST SWAP1 POP DUP3 DUP2 MSTORE PUSH1 0x20 DUP2 ADD DUP5 DUP5 DUP5 ADD GT ISZERO PUSH2 0xE91 JUMPI PUSH2 0xE90 PUSH2 0xDA2 JUMP JUMPDEST JUMPDEST PUSH2 0xE9C DUP5 DUP3 DUP6 PUSH2 0xE53 JUMP JUMPDEST POP SWAP4 SWAP3 POP POP POP JUMP JUMPDEST PUSH1 0x0 DUP3 PUSH1 0x1F DUP4 ADD SLT PUSH2 0xEB9 JUMPI PUSH2 0xEB8 PUSH2 0xD9D JUMP JUMPDEST JUMPDEST DUP2 CALLDATALOAD PUSH2 0xEC9 DUP5 DUP3 PUSH1 0x20 DUP7 ADD PUSH2 0xE62 JUMP JUMPDEST SWAP2 POP POP SWAP3 SWAP2 POP POP JUMP JUMPDEST PUSH1 0x0 DUP1 PUSH1 0x0 PUSH1 0x60 DUP5 DUP7 SUB SLT ISZERO PUSH2 0xEEB JUMPI PUSH2 0xEEA PUSH2 0xAE5 JUMP JUMPDEST JUMPDEST PUSH1 0x0 PUSH2 0xEF9 DUP7 DUP3 DUP8 ADD PUSH2 0xD88 JUMP JUMPDEST SWAP4 POP POP PUSH1 0x20 PUSH2 0xF0A DUP7 DUP3 DUP8 ADD PUSH2 0xBBF JUMP JUMPDEST SWAP3 POP POP PUSH1 0x40 DUP5 ADD CALLDATALOAD PUSH8 0xFFFFFFFFFFFFFFFF DUP2 GT ISZERO PUSH2 0xF2B JUMPI PUSH2 0xF2A PUSH2 0xAEA JUMP JUMPDEST JUMPDEST PUSH2 0xF37 DUP7 DUP3 DUP8 ADD PUSH2 0xEA4 JUMP JUMPDEST SWAP2 POP POP SWAP3 POP SWAP3 POP SWAP3 JUMP JUMPDEST PUSH1 0x0 PUSH1 0x20 DUP3 DUP5 SUB SLT ISZERO PUSH2 0xF57 JUMPI PUSH2 0xF56 PUSH2 0xAE5 JUMP JUMPDEST JUMPDEST PUSH1 0x0 PUSH2 0xF65 DUP5 DUP3 DUP6 ADD PUSH2 0xD88 JUMP JUMPDEST SWAP2 POP POP SWAP3 SWAP2 POP POP JUMP JUMPDEST PUSH1 0x0 DUP1 PUSH1 0x40 DUP4 DUP6 SUB SLT ISZERO PUSH2 0xF85 JUMPI PUSH2 0xF84 PUSH2 0xAE5 JUMP JUMPDEST JUMPDEST PUSH1 0x0 PUSH2 0xF93 DUP6 DUP3 DUP7 ADD PUSH2 0xD88 JUMP JUMPDEST SWAP3 POP POP PUSH1 0x20 PUSH2 0xFA4 DUP6 DUP3 DUP7 ADD PUSH2 0xBBF JUMP JUMPDEST SWAP2 POP POP SWAP3 POP SWAP3 SWAP1 POP JUMP JUMPDEST PUSH32 0x4E487B7100000000000000000000000000000000000000000000000000000000 PUSH1 0x0 MSTORE PUSH1 0x22 PUSH1 0x4 MSTORE PUSH1 0x24 PUSH1 0x0 REVERT JUMPDEST PUSH1 0x0 PUSH1 0x2 DUP3 DIV SWAP1 POP PUSH1 0x1 DUP3 AND DUP1 PUSH2 0xFF5 JUMPI PUSH1 0x7F DUP3 AND SWAP2 POP JUMPDEST PUSH1 0x20 DUP3 LT DUP2 SUB PUSH2 0x1008 JUMPI PUSH2 0x1007 PUSH2 0xFAE JUMP JUMPDEST JUMPDEST POP SWAP2 SWAP1 POP JUMP JUMPDEST PUSH32 0x546F6B656E20696420646F6573206E6F74206578697374000000000000000000 PUSH1 0x0 DUP3 ADD MSTORE POP JUMP JUMPDEST PUSH1 0x0 PUSH2 0x1044 PUSH1 0x17 DUP4 PUSH2 0xC0C JUMP JUMPDEST SWAP2 POP PUSH2 0x104F DUP3 PUSH2 0x100E JUMP JUMPDEST PUSH1 0x20 DUP3 ADD SWAP1 POP SWAP2 SWAP1 POP JUMP JUMPDEST PUSH1 0x0 PUSH1 0x20 DUP3 ADD SWAP1 POP DUP2 DUP2 SUB PUSH1 0x0 DUP4 ADD MSTORE PUSH2 0x1073 DUP2 PUSH2 0x1037 JUMP JUMPDEST SWAP1 POP SWAP2 SWAP1 POP JUMP JUMPDEST PUSH32 0x455243373231204552524F523A206D696E7420746F20746865207A65726F2061 PUSH1 0x0 DUP3 ADD MSTORE PUSH32 0x6464726573730000000000000000000000000000000000000000000000000000 PUSH1 0x20 DUP3 ADD MSTORE POP JUMP JUMPDEST PUSH1 0x0 PUSH2 0x10D6 PUSH1 0x26 DUP4 PUSH2 0xC0C JUMP JUMPDEST SWAP2 POP PUSH2 0x10E1 DUP3 PUSH2 0x107A JUMP JUMPDEST PUSH1 0x40 DUP3 ADD SWAP1 POP SWAP2 SWAP1 POP JUMP JUMPDEST PUSH1 0x0 PUSH1 0x20 DUP3 ADD SWAP1 POP DUP2 DUP2 SUB PUSH1 0x0 DUP4 ADD MSTORE PUSH2 0x1105 DUP2 PUSH2 0x10C9 JUMP JUMPDEST SWAP1 POP SWAP2 SWAP1 POP JUMP JUMPDEST PUSH32 0x455243373231204552524F523A20546F6B656E20616C7265616479206D696E74 PUSH1 0x0 DUP3 ADD MSTORE PUSH32 0x6564000000000000000000000000000000000000000000000000000000000000 PUSH1 0x20 DUP3 ADD MSTORE POP JUMP JUMPDEST PUSH1 0x0 PUSH2 0x1168 PUSH1 0x22 DUP4 PUSH2 0xC0C JUMP JUMPDEST SWAP2 POP PUSH2 0x1173 DUP3 PUSH2 0x110C JUMP JUMPDEST PUSH1 0x40 DUP3 ADD SWAP1 POP SWAP2 SWAP1 POP JUMP JUMPDEST PUSH1 0x0 PUSH1 0x20 DUP3 ADD SWAP1 POP DUP2 DUP2 SUB PUSH1 0x0 DUP4 ADD MSTORE PUSH2 0x1197 DUP2 PUSH2 0x115B JUMP JUMPDEST SWAP1 POP SWAP2 SWAP1 POP JUMP JUMPDEST PUSH32 0x4E487B7100000000000000000000000000000000000000000000000000000000 PUSH1 0x0 MSTORE PUSH1 0x11 PUSH1 0x4 MSTORE PUSH1 0x24 PUSH1 0x0 REVERT JUMPDEST PUSH1 0x0 PUSH2 0x11D8 DUP3 PUSH2 0xB74 JUMP JUMPDEST SWAP2 POP PUSH2 0x11E3 DUP4 PUSH2 0xB74 JUMP JUMPDEST SWAP3 POP DUP3 PUSH32 0xFFFFFFFFFFFFFFFFFFFFFFFFFFFFFFFFFFFFFFFFFFFFFFFFFFFFFFFFFFFFFFFF SUB DUP3 GT ISZERO PUSH2 0x1218 JUMPI PUSH2 0x1217 PUSH2 0x119E JUMP JUMPDEST JUMPDEST DUP3 DUP3 ADD SWAP1 POP SWAP3 SWAP2 POP POP JUMP JUMPDEST PUSH1 0x0 DUP2 MLOAD SWAP1 POP SWAP2 SWAP1 POP JUMP JUMPDEST PUSH1 0x0 DUP3 DUP3 MSTORE PUSH1 0x20 DUP3 ADD SWAP1 POP SWAP3 SWAP2 POP POP JUMP JUMPDEST PUSH1 0x0 PUSH2 0x124A DUP3 PUSH2 0x1223 JUMP JUMPDEST PUSH2 0x1254 DUP2 DUP6 PUSH2 0x122E JUMP JUMPDEST SWAP4 POP PUSH2 0x1264 DUP2 DUP6 PUSH1 0x20 DUP7 ADD PUSH2 0xC1D JUMP JUMPDEST PUSH2 0x126D DUP2 PUSH2 0xC50 JUMP JUMPDEST DUP5 ADD SWAP2 POP POP SWAP3 SWAP2 POP POP JUMP JUMPDEST PUSH1 0x0 PUSH1 0x80 DUP3 ADD SWAP1 POP PUSH2 0x128D PUSH1 0x0 DUP4 ADD DUP8 PUSH2 0xD47 JUMP JUMPDEST PUSH2 0x129A PUSH1 0x20 DUP4 ADD DUP7 PUSH2 0xD47 JUMP JUMPDEST PUSH2 0x12A7 PUSH1 0x40 DUP4 ADD DUP6 PUSH2 0xB7E JUMP JUMPDEST DUP2 DUP2 SUB PUSH1 0x60 DUP4 ADD MSTORE PUSH2 0x12B9 DUP2 DUP5 PUSH2 0x123F JUMP JUMPDEST SWAP1 POP SWAP6 SWAP5 POP POP POP POP POP JUMP JUMPDEST PUSH1 0x0 DUP2 MLOAD SWAP1 POP PUSH2 0x12D3 DUP2 PUSH2 0xB1B JUMP JUMPDEST SWAP3 SWAP2 POP POP JUMP JUMPDEST PUSH1 0x0 PUSH1 0x20 DUP3 DUP5 SUB SLT ISZERO PUSH2 0x12EF JUMPI PUSH2 0x12EE PUSH2 0xAE5 JUMP JUMPDEST JUMPDEST PUSH1 0x0 PUSH2 0x12FD DUP5 DUP3 DUP6 ADD PUSH2 0x12C4 JUMP JUMPDEST SWAP2 POP POP SWAP3 SWAP2 POP POP JUMP JUMPDEST PUSH32 0x4552433732313A207472616E7366657220746F206E6F6E204552433732315265 PUSH1 0x0 DUP3 ADD MSTORE PUSH32 0x63656976657220696D706C656D656E7465720000000000000000000000000000 PUSH1 0x20 DUP3 ADD MSTORE POP JUMP JUMPDEST PUSH1 0x0 PUSH2 0x1362 PUSH1 0x32 DUP4 PUSH2 0xC0C JUMP JUMPDEST SWAP2 POP PUSH2 0x136D DUP3 PUSH2 0x1306 JUMP JUMPDEST PUSH1 0x40 DUP3 ADD SWAP1 POP SWAP2 SWAP1 POP JUMP JUMPDEST PUSH1 0x0 PUSH1 0x20 DUP3 ADD SWAP1 POP DUP2 DUP2 SUB PUSH1 0x0 DUP4 ADD MSTORE PUSH2 0x1391 DUP2 PUSH2 0x1355 JUMP JUMPDEST SWAP1 POP SWAP2 SWAP1 POP JUMP INVALID LOG2 PUSH5 0x6970667358 0x22 SLT KECCAK256 CALLDATALOAD 0xDE LOG2 PUSH9 0x7B63F4BC6D6320D16 0xCB 0xF7 0xD8 LOG3 SUB DUP11 SSTORE GAS 0xEC 0xB4 0xE7 0x2A 0xC SAR PUSH21 0x6E671B3E64736F6C634300080D0033608060405234 DUP1 ISZERO PUSH3 0x11 JUMPI PUSH1 0x0 DUP1 REVERT JUMPDEST POP PUSH1 0x40 MLOAD PUSH3 0x16DA CODESIZE SUB DUP1 PUSH3 0x16DA DUP4 CODECOPY DUP2 DUP2 ADD PUSH1 0x40 MSTORE DUP2 ADD SWAP1 PUSH3 0x37 SWAP2 SWAP1 PUSH3 0x353 JUMP JUMPDEST DUP4 PUSH1 0x3 DUP2 SWAP1 SSTORE POP DUP3 PUSH1 0x4 DUP2 SWAP1 SSTORE POP CALLER PUSH1 0x5 PUSH1 0x0 PUSH2 0x100 EXP DUP2 SLOAD DUP2 PUSH20 0xFFFFFFFFFFFFFFFFFFFFFFFFFFFFFFFFFFFFFFFF MUL NOT AND SWAP1 DUP4 PUSH20 0xFFFFFFFFFFFFFFFFFFFFFFFFFFFFFFFFFFFFFFFF AND MUL OR SWAP1 SSTORE POP DUP2 PUSH1 0x2 DUP2 SWAP1 SSTORE POP DUP1 PUSH1 0x6 SWAP1 DUP1 MLOAD SWAP1 PUSH1 0x20 ADD SWAP1 PUSH3 0xA5 SWAP3 SWAP2 SWAP1 PUSH3 0xCB JUMP JUMPDEST POP PUSH1 0x0 PUSH1 0x7 PUSH1 0x0 PUSH2 0x100 EXP DUP2 SLOAD DUP2 PUSH1 0xFF MUL NOT AND SWAP1 DUP4 ISZERO ISZERO MUL OR SWAP1 SSTORE POP POP POP POP POP PUSH3 0x448 JUMP JUMPDEST DUP3 DUP1 SLOAD PUSH3 0xD9 SWAP1 PUSH3 0x413 JUMP JUMPDEST SWAP1 PUSH1 0x0 MSTORE PUSH1 0x20 PUSH1 0x0 KECCAK256 SWAP1 PUSH1 0x1F ADD PUSH1 0x20 SWAP1 DIV DUP2 ADD SWAP3 DUP3 PUSH3 0xFD JUMPI PUSH1 0x0 DUP6 SSTORE PUSH3 0x149 JUMP JUMPDEST DUP3 PUSH1 0x1F LT PUSH3 0x118 JUMPI DUP1 MLOAD PUSH1 0xFF NOT AND DUP4 DUP1 ADD OR DUP6 SSTORE PUSH3 0x149 JUMP JUMPDEST DUP3 DUP1 ADD PUSH1 0x1 ADD DUP6 SSTORE DUP3 ISZERO PUSH3 0x149 JUMPI SWAP2 DUP3 ADD JUMPDEST DUP3 DUP2 GT ISZERO PUSH3 0x148 JUMPI DUP3 MLOAD DUP3 SSTORE SWAP2 PUSH1 0x20 ADD SWAP2 SWAP1 PUSH1 0x1 ADD SWAP1 PUSH3 0x12B JUMP JUMPDEST JUMPDEST POP SWAP1 POP PUSH3 0x158 SWAP2 SWAP1 PUSH3 0x15C JUMP JUMPDEST POP SWAP1 JUMP JUMPDEST JUMPDEST DUP1 DUP3 GT ISZERO PUSH3 0x177 JUMPI PUSH1 0x0 DUP2 PUSH1 0x0 SWAP1 SSTORE POP PUSH1 0x1 ADD PUSH3 0x15D JUMP JUMPDEST POP SWAP1 JUMP JUMPDEST PUSH1 0x0 PUSH1 0x40 MLOAD SWAP1 POP SWAP1 JUMP JUMPDEST PUSH1 0x0 DUP1 REVERT JUMPDEST PUSH1 0x0 DUP1 REVERT JUMPDEST PUSH1 0x0 DUP2 SWAP1 POP SWAP2 SWAP1 POP JUMP JUMPDEST PUSH3 0x1A4 DUP2 PUSH3 0x18F JUMP JUMPDEST DUP2 EQ PUSH3 0x1B0 JUMPI PUSH1 0x0 DUP1 REVERT JUMPDEST POP JUMP JUMPDEST PUSH1 0x0 DUP2 MLOAD SWAP1 POP PUSH3 0x1C4 DUP2 PUSH3 0x199 JUMP JUMPDEST SWAP3 SWAP2 POP POP JUMP JUMPDEST PUSH1 0x0 DUP1 REVERT JUMPDEST PUSH1 0x0 DUP1 REVERT JUMPDEST PUSH1 0x0 PUSH1 0x1F NOT PUSH1 0x1F DUP4 ADD AND SWAP1 POP SWAP2 SWAP1 POP JUMP JUMPDEST PUSH32 0x4E487B7100000000000000000000000000000000000000000000000000000000 PUSH1 0x0 MSTORE PUSH1 0x41 PUSH1 0x4 MSTORE PUSH1 0x24 PUSH1 0x0 REVERT JUMPDEST PUSH3 0x21F DUP3 PUSH3 0x1D4 JUMP JUMPDEST DUP2 ADD DUP2 DUP2 LT PUSH8 0xFFFFFFFFFFFFFFFF DUP3 GT OR ISZERO PUSH3 0x241 JUMPI PUSH3 0x240 PUSH3 0x1E5 JUMP JUMPDEST JUMPDEST DUP1 PUSH1 0x40 MSTORE POP POP POP JUMP JUMPDEST PUSH1 0x0 PUSH3 0x256 PUSH3 0x17B JUMP JUMPDEST SWAP1 POP PUSH3 0x264 DUP3 DUP3 PUSH3 0x214 JUMP JUMPDEST SWAP2 SWAP1 POP JUMP JUMPDEST PUSH1 0x0 PUSH8 0xFFFFFFFFFFFFFFFF DUP3 GT ISZERO PUSH3 0x287 JUMPI PUSH3 0x286 PUSH3 0x1E5 JUMP JUMPDEST JUMPDEST PUSH3 0x292 DUP3 PUSH3 0x1D4 JUMP JUMPDEST SWAP1 POP PUSH1 0x20 DUP2 ADD SWAP1 POP SWAP2 SWAP1 POP JUMP JUMPDEST PUSH1 0x0 JUMPDEST DUP4 DUP2 LT ISZERO PUSH3 0x2BF JUMPI DUP1 DUP3 ADD MLOAD DUP2 DUP5 ADD MSTORE PUSH1 0x20 DUP2 ADD SWAP1 POP PUSH3 0x2A2 JUMP JUMPDEST DUP4 DUP2 GT ISZERO PUSH3 0x2CF JUMPI PUSH1 0x0 DUP5 DUP5 ADD MSTORE JUMPDEST POP POP POP POP JUMP JUMPDEST PUSH1 0x0 PUSH3 0x2EC PUSH3 0x2E6 DUP5 PUSH3 0x269 JUMP JUMPDEST PUSH3 0x24A JUMP JUMPDEST SWAP1 POP DUP3 DUP2 MSTORE PUSH1 0x20 DUP2 ADD DUP5 DUP5 DUP5 ADD GT ISZERO PUSH3 0x30B JUMPI PUSH3 0x30A PUSH3 0x1CF JUMP JUMPDEST JUMPDEST PUSH3 0x318 DUP5 DUP3 DUP6 PUSH3 0x29F JUMP JUMPDEST POP SWAP4 SWAP3 POP POP POP JUMP JUMPDEST PUSH1 0x0 DUP3 PUSH1 0x1F DUP4 ADD SLT PUSH3 0x338 JUMPI PUSH3 0x337 PUSH3 0x1CA JUMP JUMPDEST JUMPDEST DUP2 MLOAD PUSH3 0x34A DUP5 DUP3 PUSH1 0x20 DUP7 ADD PUSH3 0x2D5 JUMP JUMPDEST SWAP2 POP POP SWAP3 SWAP2 POP POP JUMP JUMPDEST PUSH1 0x0 DUP1 PUSH1 0x0 DUP1 PUSH1 0x80 DUP6 DUP8 SUB SLT ISZERO PUSH3 0x370 JUMPI PUSH3 0x36F PUSH3 0x185 JUMP JUMPDEST JUMPDEST PUSH1 0x0 PUSH3 0x380 DUP8 DUP3 DUP9 ADD PUSH3 0x1B3 JUMP JUMPDEST SWAP5 POP POP PUSH1 0x20 PUSH3 0x393 DUP8 DUP3 DUP9 ADD PUSH3 0x1B3 JUMP JUMPDEST SWAP4 POP POP PUSH1 0x40 PUSH3 0x3A6 DUP8 DUP3 DUP9 ADD PUSH3 0x1B3 JUMP JUMPDEST SWAP3 POP POP PUSH1 0x60 DUP6 ADD MLOAD PUSH8 0xFFFFFFFFFFFFFFFF DUP2 GT ISZERO PUSH3 0x3CA JUMPI PUSH3 0x3C9 PUSH3 0x18A JUMP JUMPDEST JUMPDEST PUSH3 0x3D8 DUP8 DUP3 DUP9 ADD PUSH3 0x320 JUMP JUMPDEST SWAP2 POP POP SWAP3 SWAP6 SWAP2 SWAP5 POP SWAP3 POP JUMP JUMPDEST PUSH32 0x4E487B7100000000000000000000000000000000000000000000000000000000 PUSH1 0x0 MSTORE PUSH1 0x22 PUSH1 0x4 MSTORE PUSH1 0x24 PUSH1 0x0 REVERT JUMPDEST PUSH1 0x0 PUSH1 0x2 DUP3 DIV SWAP1 POP PUSH1 0x1 DUP3 AND DUP1 PUSH3 0x42C JUMPI PUSH1 0x7F DUP3 AND SWAP2 POP JUMPDEST PUSH1 0x20 DUP3 LT DUP2 SUB PUSH3 0x442 JUMPI PUSH3 0x441 PUSH3 0x3E4 JUMP JUMPDEST JUMPDEST POP SWAP2 SWAP1 POP JUMP JUMPDEST PUSH2 0x1282 DUP1 PUSH3 0x458 PUSH1 0x0 CODECOPY PUSH1 0x0 RETURN INVALID PUSH1 0x80 PUSH1 0x40 MSTORE CALLVALUE DUP1 ISZERO PUSH2 0x10 JUMPI PUSH1 0x0 DUP1 REVERT JUMPDEST POP PUSH1 0x4 CALLDATASIZE LT PUSH2 0xF5 JUMPI PUSH1 0x0 CALLDATALOAD PUSH1 0xE0 SHR DUP1 PUSH4 0x6352211E GT PUSH2 0x97 JUMPI DUP1 PUSH4 0x7CF6B53B GT PUSH2 0x66 JUMPI DUP1 PUSH4 0x7CF6B53B EQ PUSH2 0x274 JUMPI DUP1 PUSH4 0x8DA5CB5B EQ PUSH2 0x292 JUMPI DUP1 PUSH4 0xB3E1C718 EQ PUSH2 0x2B0 JUMPI DUP1 PUSH4 0xCF22B577 EQ PUSH2 0x2CC JUMPI PUSH2 0xF5 JUMP JUMPDEST DUP1 PUSH4 0x6352211E EQ PUSH2 0x1DC JUMPI DUP1 PUSH4 0x6A4F832B EQ PUSH2 0x20C JUMPI DUP1 PUSH4 0x70A08231 EQ PUSH2 0x228 JUMPI DUP1 PUSH4 0x7194C2E8 EQ PUSH2 0x258 JUMPI PUSH2 0xF5 JUMP JUMPDEST DUP1 PUSH4 0x3FBAA475 GT PUSH2 0xD3 JUMPI DUP1 PUSH4 0x3FBAA475 EQ PUSH2 0x166 JUMPI DUP1 PUSH4 0x49BEFA85 EQ PUSH2 0x184 JUMPI DUP1 PUSH4 0x4A627AEB EQ PUSH2 0x1A2 JUMPI DUP1 PUSH4 0x5EE1773D EQ PUSH2 0x1BE JUMPI PUSH2 0xF5 JUMP JUMPDEST DUP1 PUSH4 0x1FFC9A7 EQ PUSH2 0xFA JUMPI DUP1 PUSH4 0x23B1FF00 EQ PUSH2 0x12A JUMPI DUP1 PUSH4 0x32B93996 EQ PUSH2 0x148 JUMPI JUMPDEST PUSH1 0x0 DUP1 REVERT JUMPDEST PUSH2 0x114 PUSH1 0x4 DUP1 CALLDATASIZE SUB DUP2 ADD SWAP1 PUSH2 0x10F SWAP2 SWAP1 PUSH2 0x9C5 JUMP JUMPDEST PUSH2 0x2EA JUMP JUMPDEST PUSH1 0x40 MLOAD PUSH2 0x121 SWAP2 SWAP1 PUSH2 0xA0D JUMP JUMPDEST PUSH1 0x40 MLOAD DUP1 SWAP2 SUB SWAP1 RETURN JUMPDEST PUSH2 0x132 PUSH2 0x354 JUMP JUMPDEST PUSH1 0x40 MLOAD PUSH2 0x13F SWAP2 SWAP1 PUSH2 0xAC1 JUMP JUMPDEST PUSH1 0x40 MLOAD DUP1 SWAP2 SUB SWAP1 RETURN JUMPDEST PUSH2 0x150 PUSH2 0x3E2 JUMP JUMPDEST PUSH1 0x40 MLOAD PUSH2 0x15D SWAP2 SWAP1 PUSH2 0xAFC JUMP JUMPDEST PUSH1 0x40 MLOAD DUP1 SWAP2 SUB SWAP1 RETURN JUMPDEST PUSH2 0x16E PUSH2 0x3E8 JUMP JUMPDEST PUSH1 0x40 MLOAD PUSH2 0x17B SWAP2 SWAP1 PUSH2 0xAFC JUMP JUMPDEST PUSH1 0x40 MLOAD DUP1 SWAP2 SUB SWAP1 RETURN JUMPDEST PUSH2 0x18C PUSH2 0x3EE JUMP JUMPDEST PUSH1 0x40 MLOAD PUSH2 0x199 SWAP2 SWAP1 PUSH2 0xAFC JUMP JUMPDEST PUSH1 0x40 MLOAD DUP1 SWAP2 SUB SWAP1 RETURN JUMPDEST PUSH2 0x1BC PUSH1 0x4 DUP1 CALLDATASIZE SUB DUP2 ADD SWAP1 PUSH2 0x1B7 SWAP2 SWAP1 PUSH2 0xB43 JUMP JUMPDEST PUSH2 0x3F8 JUMP JUMPDEST STOP JUMPDEST PUSH2 0x1C6 PUSH2 0x415 JUMP JUMPDEST PUSH1 0x40 MLOAD PUSH2 0x1D3 SWAP2 SWAP1 PUSH2 0xAFC JUMP JUMPDEST PUSH1 0x40 MLOAD DUP1 SWAP2 SUB SWAP1 RETURN JUMPDEST PUSH2 0x1F6 PUSH1 0x4 DUP1 CALLDATASIZE SUB DUP2 ADD SWAP1 PUSH2 0x1F1 SWAP2 SWAP1 PUSH2 0xB9C JUMP JUMPDEST PUSH2 0x41B JUMP JUMPDEST PUSH1 0x40 MLOAD PUSH2 0x203 SWAP2 SWAP1 PUSH2 0xC0A JUMP JUMPDEST PUSH1 0x40 MLOAD DUP1 SWAP2 SUB SWAP1 RETURN JUMPDEST PUSH2 0x226 PUSH1 0x4 DUP1 CALLDATASIZE SUB DUP2 ADD SWAP1 PUSH2 0x221 SWAP2 SWAP1 PUSH2 0xD86 JUMP JUMPDEST PUSH2 0x4CB JUMP JUMPDEST STOP JUMPDEST PUSH2 0x242 PUSH1 0x4 DUP1 CALLDATASIZE SUB DUP2 ADD SWAP1 PUSH2 0x23D SWAP2 SWAP1 PUSH2 0xDF5 JUMP JUMPDEST PUSH2 0x4F0 JUMP JUMPDEST PUSH1 0x40 MLOAD PUSH2 0x24F SWAP2 SWAP1 PUSH2 0xAFC JUMP JUMPDEST PUSH1 0x40 MLOAD DUP1 SWAP2 SUB SWAP1 RETURN JUMPDEST PUSH2 0x272 PUSH1 0x4 DUP1 CALLDATASIZE SUB DUP2 ADD SWAP1 PUSH2 0x26D SWAP2 SWAP1 PUSH2 0xE22 JUMP JUMPDEST PUSH2 0x539 JUMP JUMPDEST STOP JUMPDEST PUSH2 0x27C PUSH2 0x547 JUMP JUMPDEST PUSH1 0x40 MLOAD PUSH2 0x289 SWAP2 SWAP1 PUSH2 0xA0D JUMP JUMPDEST PUSH1 0x40 MLOAD DUP1 SWAP2 SUB SWAP1 RETURN JUMPDEST PUSH2 0x29A PUSH2 0x55E JUMP JUMPDEST PUSH1 0x40 MLOAD PUSH2 0x2A7 SWAP2 SWAP1 PUSH2 0xC0A JUMP JUMPDEST PUSH1 0x40 MLOAD DUP1 SWAP2 SUB SWAP1 RETURN JUMPDEST PUSH2 0x2CA PUSH1 0x4 DUP1 CALLDATASIZE SUB DUP2 ADD SWAP1 PUSH2 0x2C5 SWAP2 SWAP1 PUSH2 0xE22 JUMP JUMPDEST PUSH2 0x584 JUMP JUMPDEST STOP JUMPDEST PUSH2 0x2D4 PUSH2 0x5A2 JUMP JUMPDEST PUSH1 0x40 MLOAD PUSH2 0x2E1 SWAP2 SWAP1 PUSH2 0xAFC JUMP JUMPDEST PUSH1 0x40 MLOAD DUP1 SWAP2 SUB SWAP1 RETURN JUMPDEST PUSH1 0x0 PUSH32 0x1FFC9A700000000000000000000000000000000000000000000000000000000 PUSH28 0xFFFFFFFFFFFFFFFFFFFFFFFFFFFFFFFFFFFFFFFFFFFFFFFFFFFFFFFF NOT AND DUP3 PUSH28 0xFFFFFFFFFFFFFFFFFFFFFFFFFFFFFFFFFFFFFFFFFFFFFFFFFFFFFFFF NOT AND EQ SWAP1 POP SWAP2 SWAP1 POP JUMP JUMPDEST PUSH1 0x6 DUP1 SLOAD PUSH2 0x361 SWAP1 PUSH2 0xE91 JUMP JUMPDEST DUP1 PUSH1 0x1F ADD PUSH1 0x20 DUP1 SWAP2 DIV MUL PUSH1 0x20 ADD PUSH1 0x40 MLOAD SWAP1 DUP2 ADD PUSH1 0x40 MSTORE DUP1 SWAP3 SWAP2 SWAP1 DUP2 DUP2 MSTORE PUSH1 0x20 ADD DUP3 DUP1 SLOAD PUSH2 0x38D SWAP1 PUSH2 0xE91 JUMP JUMPDEST DUP1 ISZERO PUSH2 0x3DA JUMPI DUP1 PUSH1 0x1F LT PUSH2 0x3AF JUMPI PUSH2 0x100 DUP1 DUP4 SLOAD DIV MUL DUP4 MSTORE SWAP2 PUSH1 0x20 ADD SWAP2 PUSH2 0x3DA JUMP JUMPDEST DUP3 ADD SWAP2 SWAP1 PUSH1 0x0 MSTORE PUSH1 0x20 PUSH1 0x0 KECCAK256 SWAP1 JUMPDEST DUP2 SLOAD DUP2 MSTORE SWAP1 PUSH1 0x1 ADD SWAP1 PUSH1 0x20 ADD DUP1 DUP4 GT PUSH2 0x3BD JUMPI DUP3 SWAP1 SUB PUSH1 0x1F AND DUP3 ADD SWAP2 JUMPDEST POP POP POP POP POP DUP2 JUMP JUMPDEST PUSH1 0x4 SLOAD DUP2 JUMP JUMPDEST PUSH1 0x3 SLOAD DUP2 JUMP JUMPDEST PUSH1 0x0 PUSH1 0x4 SLOAD SWAP1 POP SWAP1 JUMP JUMPDEST DUP1 PUSH1 0x7 PUSH1 0x0 PUSH2 0x100 EXP DUP2 SLOAD DUP2 PUSH1 0xFF MUL NOT AND SWAP1 DUP4 ISZERO ISZERO MUL OR SWAP1 SSTORE POP POP JUMP JUMPDEST PUSH1 0x2 SLOAD DUP2 JUMP JUMPDEST PUSH1 0x0 DUP1 PUSH1 0x0 DUP1 DUP5 DUP2 MSTORE PUSH1 0x20 ADD SWAP1 DUP2 MSTORE PUSH1 0x20 ADD PUSH1 0x0 KECCAK256 PUSH1 0x0 SWAP1 SLOAD SWAP1 PUSH2 0x100 EXP SWAP1 DIV PUSH20 0xFFFFFFFFFFFFFFFFFFFFFFFFFFFFFFFFFFFFFFFF AND SWAP1 POP PUSH1 0x0 PUSH20 0xFFFFFFFFFFFFFFFFFFFFFFFFFFFFFFFFFFFFFFFF AND DUP2 PUSH20 0xFFFFFFFFFFFFFFFFFFFFFFFFFFFFFFFFFFFFFFFF AND SUB PUSH2 0x4C2 JUMPI PUSH1 0x40 MLOAD PUSH32 0x8C379A000000000000000000000000000000000000000000000000000000000 DUP2 MSTORE PUSH1 0x4 ADD PUSH2 0x4B9 SWAP1 PUSH2 0xF0E JUMP JUMPDEST PUSH1 0x40 MLOAD DUP1 SWAP2 SUB SWAP1 REVERT JUMPDEST DUP1 SWAP2 POP POP SWAP2 SWAP1 POP JUMP JUMPDEST PUSH2 0x4D5 DUP4 DUP4 PUSH2 0x5AC JUMP JUMPDEST PUSH2 0x4E2 PUSH1 0x0 DUP5 DUP5 DUP5 PUSH2 0x76B JUMP JUMPDEST PUSH2 0x4EB JUMPI PUSH1 0x0 DUP1 REVERT JUMPDEST POP POP POP JUMP JUMPDEST PUSH1 0x0 PUSH1 0x1 PUSH1 0x0 DUP4 PUSH20 0xFFFFFFFFFFFFFFFFFFFFFFFFFFFFFFFFFFFFFFFF AND PUSH20 0xFFFFFFFFFFFFFFFFFFFFFFFFFFFFFFFFFFFFFFFF AND DUP2 MSTORE PUSH1 0x20 ADD SWAP1 DUP2 MSTORE PUSH1 0x20 ADD PUSH1 0x0 KECCAK256 SLOAD SWAP1 POP SWAP2 SWAP1 POP JUMP JUMPDEST PUSH2 0x543 DUP3 DUP3 PUSH2 0x584 JUMP JUMPDEST POP POP JUMP JUMPDEST PUSH1 0x0 PUSH1 0x7 PUSH1 0x0 SWAP1 SLOAD SWAP1 PUSH2 0x100 EXP SWAP1 DIV PUSH1 0xFF AND SWAP1 POP SWAP1 JUMP JUMPDEST PUSH1 0x5 PUSH1 0x0 SWAP1 SLOAD SWAP1 PUSH2 0x100 EXP SWAP1 DIV PUSH20 0xFFFFFFFFFFFFFFFFFFFFFFFFFFFFFFFFFFFFFFFF AND DUP2 JUMP JUMPDEST PUSH2 0x59E DUP3 DUP3 PUSH1 0x40 MLOAD DUP1 PUSH1 0x20 ADD PUSH1 0x40 MSTORE DUP1 PUSH1 0x0 DUP2 MSTORE POP PUSH2 0x4CB JUMP JUMPDEST POP POP JUMP JUMPDEST PUSH1 0x0 PUSH1 0x3 SLOAD SWAP1 POP SWAP1 JUMP JUMPDEST PUSH1 0x0 PUSH20 0xFFFFFFFFFFFFFFFFFFFFFFFFFFFFFFFFFFFFFFFF AND DUP3 PUSH20 0xFFFFFFFFFFFFFFFFFFFFFFFFFFFFFFFFFFFFFFFF AND SUB PUSH2 0x61B JUMPI PUSH1 0x40 MLOAD PUSH32 0x8C379A000000000000000000000000000000000000000000000000000000000 DUP2 MSTORE PUSH1 0x4 ADD PUSH2 0x612 SWAP1 PUSH2 0xFA0 JUMP JUMPDEST PUSH1 0x40 MLOAD DUP1 SWAP2 SUB SWAP1 REVERT JUMPDEST PUSH2 0x624 DUP2 PUSH2 0x8D5 JUMP JUMPDEST ISZERO PUSH2 0x664 JUMPI PUSH1 0x40 MLOAD PUSH32 0x8C379A000000000000000000000000000000000000000000000000000000000 DUP2 MSTORE PUSH1 0x4 ADD PUSH2 0x65B SWAP1 PUSH2 0x1032 JUMP JUMPDEST PUSH1 0x40 MLOAD DUP1 SWAP2 SUB SWAP1 REVERT JUMPDEST PUSH1 0x1 DUP1 PUSH1 0x0 DUP5 PUSH20 0xFFFFFFFFFFFFFFFFFFFFFFFFFFFFFFFFFFFFFFFF AND PUSH20 0xFFFFFFFFFFFFFFFFFFFFFFFFFFFFFFFFFFFFFFFF AND DUP2 MSTORE PUSH1 0x20 ADD SWAP1 DUP2 MSTORE PUSH1 0x20 ADD PUSH1 0x0 KECCAK256 PUSH1 0x0 DUP3 DUP3 SLOAD PUSH2 0x6B3 SWAP2 SWAP1 PUSH2 0x1081 JUMP JUMPDEST SWAP3 POP POP DUP2 SWAP1 SSTORE POP DUP2 PUSH1 0x0 DUP1 DUP4 DUP2 MSTORE PUSH1 0x20 ADD SWAP1 DUP2 MSTORE PUSH1 0x20 ADD PUSH1 0x0 KECCAK256 PUSH1 0x0 PUSH2 0x100 EXP DUP2 SLOAD DUP2 PUSH20 0xFFFFFFFFFFFFFFFFFFFFFFFFFFFFFFFFFFFFFFFF MUL NOT AND SWAP1 DUP4 PUSH20 0xFFFFFFFFFFFFFFFFFFFFFFFFFFFFFFFFFFFFFFFF AND MUL OR SWAP1 SSTORE POP DUP1 DUP3 PUSH20 0xFFFFFFFFFFFFFFFFFFFFFFFFFFFFFFFFFFFFFFFF AND PUSH1 0x0 PUSH20 0xFFFFFFFFFFFFFFFFFFFFFFFFFFFFFFFFFFFFFFFF AND PUSH32 0xDDF252AD1BE2C89B69C2B068FC378DAA952BA7F163C4A11628F55A4DF523B3EF PUSH1 0x40 MLOAD PUSH1 0x40 MLOAD DUP1 SWAP2 SUB SWAP1 LOG4 POP POP JUMP JUMPDEST PUSH1 0x0 PUSH2 0x776 DUP5 PUSH2 0x940 JUMP JUMPDEST ISZERO PUSH2 0x8C8 JUMPI DUP4 PUSH20 0xFFFFFFFFFFFFFFFFFFFFFFFFFFFFFFFFFFFFFFFF AND PUSH4 0x150B7A02 CALLER DUP8 DUP7 DUP7 PUSH1 0x40 MLOAD DUP6 PUSH4 0xFFFFFFFF AND PUSH1 0xE0 SHL DUP2 MSTORE PUSH1 0x4 ADD PUSH2 0x7BA SWAP5 SWAP4 SWAP3 SWAP2 SWAP1 PUSH2 0x112C JUMP JUMPDEST PUSH1 0x20 PUSH1 0x40 MLOAD DUP1 DUP4 SUB DUP2 PUSH1 0x0 DUP8 GAS CALL SWAP3 POP POP POP DUP1 ISZERO PUSH2 0x7F6 JUMPI POP PUSH1 0x40 MLOAD RETURNDATASIZE PUSH1 0x1F NOT PUSH1 0x1F DUP3 ADD AND DUP3 ADD DUP1 PUSH1 0x40 MSTORE POP DUP2 ADD SWAP1 PUSH2 0x7F3 SWAP2 SWAP1 PUSH2 0x118D JUMP JUMPDEST PUSH1 0x1 JUMPDEST PUSH2 0x878 JUMPI RETURNDATASIZE DUP1 PUSH1 0x0 DUP2 EQ PUSH2 0x826 JUMPI PUSH1 0x40 MLOAD SWAP2 POP PUSH1 0x1F NOT PUSH1 0x3F RETURNDATASIZE ADD AND DUP3 ADD PUSH1 0x40 MSTORE RETURNDATASIZE DUP3 MSTORE RETURNDATASIZE PUSH1 0x0 PUSH1 0x20 DUP5 ADD RETURNDATACOPY PUSH2 0x82B JUMP JUMPDEST PUSH1 0x60 SWAP2 POP JUMPDEST POP PUSH1 0x0 DUP2 MLOAD SUB PUSH2 0x870 JUMPI PUSH1 0x40 MLOAD PUSH32 0x8C379A000000000000000000000000000000000000000000000000000000000 DUP2 MSTORE PUSH1 0x4 ADD PUSH2 0x867 SWAP1 PUSH2 0x122C JUMP JUMPDEST PUSH1 0x40 MLOAD DUP1 SWAP2 SUB SWAP1 REVERT JUMPDEST DUP1 MLOAD DUP2 PUSH1 0x20 ADD REVERT JUMPDEST PUSH4 0x150B7A02 PUSH1 0xE0 SHL PUSH28 0xFFFFFFFFFFFFFFFFFFFFFFFFFFFFFFFFFFFFFFFFFFFFFFFFFFFFFFFF NOT AND DUP2 PUSH28 0xFFFFFFFFFFFFFFFFFFFFFFFFFFFFFFFFFFFFFFFFFFFFFFFFFFFFFFFF NOT AND EQ SWAP2 POP POP PUSH2 0x8CD JUMP JUMPDEST PUSH1 0x1 SWAP1 POP JUMPDEST SWAP5 SWAP4 POP POP POP POP JUMP JUMPDEST PUSH1 0x0 DUP1 PUSH20 0xFFFFFFFFFFFFFFFFFFFFFFFFFFFFFFFFFFFFFFFF AND PUSH1 0x0 DUP1 DUP5 DUP2 MSTORE PUSH1 0x20 ADD SWAP1 DUP2 MSTORE PUSH1 0x20 ADD PUSH1 0x0 KECCAK256 PUSH1 0x0 SWAP1 SLOAD SWAP1 PUSH2 0x100 EXP SWAP1 DIV PUSH20 0xFFFFFFFFFFFFFFFFFFFFFFFFFFFFFFFFFFFFFFFF AND PUSH20 0xFFFFFFFFFFFFFFFFFFFFFFFFFFFFFFFFFFFFFFFF AND EQ ISZERO SWAP1 POP SWAP2 SWAP1 POP JUMP JUMPDEST PUSH1 0x0 DUP1 DUP3 EXTCODESIZE SWAP1 POP PUSH1 0x0 DUP2 PUSH4 0xFFFFFFFF AND GT SWAP2 POP POP SWAP2 SWAP1 POP JUMP JUMPDEST PUSH1 0x0 PUSH1 0x40 MLOAD SWAP1 POP SWAP1 JUMP JUMPDEST PUSH1 0x0 DUP1 REVERT JUMPDEST PUSH1 0x0 DUP1 REVERT JUMPDEST PUSH1 0x0 PUSH32 0xFFFFFFFF00000000000000000000000000000000000000000000000000000000 DUP3 AND SWAP1 POP SWAP2 SWAP1 POP JUMP JUMPDEST PUSH2 0x9A2 DUP2 PUSH2 0x96D JUMP JUMPDEST DUP2 EQ PUSH2 0x9AD JUMPI PUSH1 0x0 DUP1 REVERT JUMPDEST POP JUMP JUMPDEST PUSH1 0x0 DUP2 CALLDATALOAD SWAP1 POP PUSH2 0x9BF DUP2 PUSH2 0x999 JUMP JUMPDEST SWAP3 SWAP2 POP POP JUMP JUMPDEST PUSH1 0x0 PUSH1 0x20 DUP3 DUP5 SUB SLT ISZERO PUSH2 0x9DB JUMPI PUSH2 0x9DA PUSH2 0x963 JUMP JUMPDEST JUMPDEST PUSH1 0x0 PUSH2 0x9E9 DUP5 DUP3 DUP6 ADD PUSH2 0x9B0 JUMP JUMPDEST SWAP2 POP POP SWAP3 SWAP2 POP POP JUMP JUMPDEST PUSH1 0x0 DUP2 ISZERO ISZERO SWAP1 POP SWAP2 SWAP1 POP JUMP JUMPDEST PUSH2 0xA07 DUP2 PUSH2 0x9F2 JUMP JUMPDEST DUP3 MSTORE POP POP JUMP JUMPDEST PUSH1 0x0 PUSH1 0x20 DUP3 ADD SWAP1 POP PUSH2 0xA22 PUSH1 0x0 DUP4 ADD DUP5 PUSH2 0x9FE JUMP JUMPDEST SWAP3 SWAP2 POP POP JUMP JUMPDEST PUSH1 0x0 DUP2 MLOAD SWAP1 POP SWAP2 SWAP1 POP JUMP JUMPDEST PUSH1 0x0 DUP3 DUP3 MSTORE PUSH1 0x20 DUP3 ADD SWAP1 POP SWAP3 SWAP2 POP POP JUMP JUMPDEST PUSH1 0x0 JUMPDEST DUP4 DUP2 LT ISZERO PUSH2 0xA62 JUMPI DUP1 DUP3 ADD MLOAD DUP2 DUP5 ADD MSTORE PUSH1 0x20 DUP2 ADD SWAP1 POP PUSH2 0xA47 JUMP JUMPDEST DUP4 DUP2 GT ISZERO PUSH2 0xA71 JUMPI PUSH1 0x0 DUP5 DUP5 ADD MSTORE JUMPDEST POP POP POP POP JUMP JUMPDEST PUSH1 0x0 PUSH1 0x1F NOT PUSH1 0x1F DUP4 ADD AND SWAP1 POP SWAP2 SWAP1 POP JUMP JUMPDEST PUSH1 0x0 PUSH2 0xA93 DUP3 PUSH2 0xA28 JUMP JUMPDEST PUSH2 0xA9D DUP2 DUP6 PUSH2 0xA33 JUMP JUMPDEST SWAP4 POP PUSH2 0xAAD DUP2 DUP6 PUSH1 0x20 DUP7 ADD PUSH2 0xA44 JUMP JUMPDEST PUSH2 0xAB6 DUP2 PUSH2 0xA77 JUMP JUMPDEST DUP5 ADD SWAP2 POP POP SWAP3 SWAP2 POP POP JUMP JUMPDEST PUSH1 0x0 PUSH1 0x20 DUP3 ADD SWAP1 POP DUP2 DUP2 SUB PUSH1 0x0 DUP4 ADD MSTORE PUSH2 0xADB DUP2 DUP5 PUSH2 0xA88 JUMP JUMPDEST SWAP1 POP SWAP3 SWAP2 POP POP JUMP JUMPDEST PUSH1 0x0 DUP2 SWAP1 POP SWAP2 SWAP1 POP JUMP JUMPDEST PUSH2 0xAF6 DUP2 PUSH2 0xAE3 JUMP JUMPDEST DUP3 MSTORE POP POP JUMP JUMPDEST PUSH1 0x0 PUSH1 0x20 DUP3 ADD SWAP1 POP PUSH2 0xB11 PUSH1 0x0 DUP4 ADD DUP5 PUSH2 0xAED JUMP JUMPDEST SWAP3 SWAP2 POP POP JUMP JUMPDEST PUSH2 0xB20 DUP2 PUSH2 0x9F2 JUMP JUMPDEST DUP2 EQ PUSH2 0xB2B JUMPI PUSH1 0x0 DUP1 REVERT JUMPDEST POP JUMP JUMPDEST PUSH1 0x0 DUP2 CALLDATALOAD SWAP1 POP PUSH2 0xB3D DUP2 PUSH2 0xB17 JUMP JUMPDEST SWAP3 SWAP2 POP POP JUMP JUMPDEST PUSH1 0x0 PUSH1 0x20 DUP3 DUP5 SUB SLT ISZERO PUSH2 0xB59 JUMPI PUSH2 0xB58 PUSH2 0x963 JUMP JUMPDEST JUMPDEST PUSH1 0x0 PUSH2 0xB67 DUP5 DUP3 DUP6 ADD PUSH2 0xB2E JUMP JUMPDEST SWAP2 POP POP SWAP3 SWAP2 POP POP JUMP JUMPDEST PUSH2 0xB79 DUP2 PUSH2 0xAE3 JUMP JUMPDEST DUP2 EQ PUSH2 0xB84 JUMPI PUSH1 0x0 DUP1 REVERT JUMPDEST POP JUMP JUMPDEST PUSH1 0x0 DUP2 CALLDATALOAD SWAP1 POP PUSH2 0xB96 DUP2 PUSH2 0xB70 JUMP JUMPDEST SWAP3 SWAP2 POP POP JUMP JUMPDEST PUSH1 0x0 PUSH1 0x20 DUP3 DUP5 SUB SLT ISZERO PUSH2 0xBB2 JUMPI PUSH2 0xBB1 PUSH2 0x963 JUMP JUMPDEST JUMPDEST PUSH1 0x0 PUSH2 0xBC0 DUP5 DUP3 DUP6 ADD PUSH2 0xB87 JUMP JUMPDEST SWAP2 POP POP SWAP3 SWAP2 POP POP JUMP JUMPDEST PUSH1 0x0 PUSH20 0xFFFFFFFFFFFFFFFFFFFFFFFFFFFFFFFFFFFFFFFF DUP3 AND SWAP1 POP SWAP2 SWAP1 POP JUMP JUMPDEST PUSH1 0x0 PUSH2 0xBF4 DUP3 PUSH2 0xBC9 JUMP JUMPDEST SWAP1 POP SWAP2 SWAP1 POP JUMP JUMPDEST PUSH2 0xC04 DUP2 PUSH2 0xBE9 JUMP JUMPDEST DUP3 MSTORE POP POP JUMP JUMPDEST PUSH1 0x0 PUSH1 0x20 DUP3 ADD SWAP1 POP PUSH2 0xC1F PUSH1 0x0 DUP4 ADD DUP5 PUSH2 0xBFB JUMP JUMPDEST SWAP3 SWAP2 POP POP JUMP JUMPDEST PUSH2 0xC2E DUP2 PUSH2 0xBE9 JUMP JUMPDEST DUP2 EQ PUSH2 0xC39 JUMPI PUSH1 0x0 DUP1 REVERT JUMPDEST POP JUMP JUMPDEST PUSH1 0x0 DUP2 CALLDATALOAD SWAP1 POP PUSH2 0xC4B DUP2 PUSH2 0xC25 JUMP JUMPDEST SWAP3 SWAP2 POP POP JUMP JUMPDEST PUSH1 0x0 DUP1 REVERT JUMPDEST PUSH1 0x0 DUP1 REVERT JUMPDEST PUSH32 0x4E487B7100000000000000000000000000000000000000000000000000000000 PUSH1 0x0 MSTORE PUSH1 0x41 PUSH1 0x4 MSTORE PUSH1 0x24 PUSH1 0x0 REVERT JUMPDEST PUSH2 0xC93 DUP3 PUSH2 0xA77 JUMP JUMPDEST DUP2 ADD DUP2 DUP2 LT PUSH8 0xFFFFFFFFFFFFFFFF DUP3 GT OR ISZERO PUSH2 0xCB2 JUMPI PUSH2 0xCB1 PUSH2 0xC5B JUMP JUMPDEST JUMPDEST DUP1 PUSH1 0x40 MSTORE POP POP POP JUMP JUMPDEST PUSH1 0x0 PUSH2 0xCC5 PUSH2 0x959 JUMP JUMPDEST SWAP1 POP PUSH2 0xCD1 DUP3 DUP3 PUSH2 0xC8A JUMP JUMPDEST SWAP2 SWAP1 POP JUMP JUMPDEST PUSH1 0x0 PUSH8 0xFFFFFFFFFFFFFFFF DUP3 GT ISZERO PUSH2 0xCF1 JUMPI PUSH2 0xCF0 PUSH2 0xC5B JUMP JUMPDEST JUMPDEST PUSH2 0xCFA DUP3 PUSH2 0xA77 JUMP JUMPDEST SWAP1 POP PUSH1 0x20 DUP2 ADD SWAP1 POP SWAP2 SWAP1 POP JUMP JUMPDEST DUP3 DUP2 DUP4 CALLDATACOPY PUSH1 0x0 DUP4 DUP4 ADD MSTORE POP POP POP JUMP JUMPDEST PUSH1 0x0 PUSH2 0xD29 PUSH2 0xD24 DUP5 PUSH2 0xCD6 JUMP JUMPDEST PUSH2 0xCBB JUMP JUMPDEST SWAP1 POP DUP3 DUP2 MSTORE PUSH1 0x20 DUP2 ADD DUP5 DUP5 DUP5 ADD GT ISZERO PUSH2 0xD45 JUMPI PUSH2 0xD44 PUSH2 0xC56 JUMP JUMPDEST JUMPDEST PUSH2 0xD50 DUP5 DUP3 DUP6 PUSH2 0xD07 JUMP JUMPDEST POP SWAP4 SWAP3 POP POP POP JUMP JUMPDEST PUSH1 0x0 DUP3 PUSH1 0x1F DUP4 ADD SLT PUSH2 0xD6D JUMPI PUSH2 0xD6C PUSH2 0xC51 JUMP JUMPDEST JUMPDEST DUP2 CALLDATALOAD PUSH2 0xD7D DUP5 DUP3 PUSH1 0x20 DUP7 ADD PUSH2 0xD16 JUMP JUMPDEST SWAP2 POP POP SWAP3 SWAP2 POP POP JUMP JUMPDEST PUSH1 0x0 DUP1 PUSH1 0x0 PUSH1 0x60 DUP5 DUP7 SUB SLT ISZERO PUSH2 0xD9F JUMPI PUSH2 0xD9E PUSH2 0x963 JUMP JUMPDEST JUMPDEST PUSH1 0x0 PUSH2 0xDAD DUP7 DUP3 DUP8 ADD PUSH2 0xC3C JUMP JUMPDEST SWAP4 POP POP PUSH1 0x20 PUSH2 0xDBE DUP7 DUP3 DUP8 ADD PUSH2 0xB87 JUMP JUMPDEST SWAP3 POP POP PUSH1 0x40 DUP5 ADD CALLDATALOAD PUSH8 0xFFFFFFFFFFFFFFFF DUP2 GT ISZERO PUSH2 0xDDF JUMPI PUSH2 0xDDE PUSH2 0x968 JUMP JUMPDEST JUMPDEST PUSH2 0xDEB DUP7 DUP3 DUP8 ADD PUSH2 0xD58 JUMP JUMPDEST SWAP2 POP POP SWAP3 POP SWAP3 POP SWAP3 JUMP JUMPDEST PUSH1 0x0 PUSH1 0x20 DUP3 DUP5 SUB SLT ISZERO PUSH2 0xE0B JUMPI PUSH2 0xE0A PUSH2 0x963 JUMP JUMPDEST JUMPDEST PUSH1 0x0 PUSH2 0xE19 DUP5 DUP3 DUP6 ADD PUSH2 0xC3C JUMP JUMPDEST SWAP2 POP POP SWAP3 SWAP2 POP POP JUMP JUMPDEST PUSH1 0x0 DUP1 PUSH1 0x40 DUP4 DUP6 SUB SLT ISZERO PUSH2 0xE39 JUMPI PUSH2 0xE38 PUSH2 0x963 JUMP JUMPDEST JUMPDEST PUSH1 0x0 PUSH2 0xE47 DUP6 DUP3 DUP7 ADD PUSH2 0xC3C JUMP JUMPDEST SWAP3 POP POP PUSH1 0x20 PUSH2 0xE58 DUP6 DUP3 DUP7 ADD PUSH2 0xB87 JUMP JUMPDEST SWAP2 POP POP SWAP3 POP SWAP3 SWAP1 POP JUMP JUMPDEST PUSH32 0x4E487B7100000000000000000000000000000000000000000000000000000000 PUSH1 0x0 MSTORE PUSH1 0x22 PUSH1 0x4 MSTORE PUSH1 0x24 PUSH1 0x0 REVERT JUMPDEST PUSH1 0x0 PUSH1 0x2 DUP3 DIV SWAP1 POP PUSH1 0x1 DUP3 AND DUP1 PUSH2 0xEA9 JUMPI PUSH1 0x7F DUP3 AND SWAP2 POP JUMPDEST PUSH1 0x20 DUP3 LT DUP2 SUB PUSH2 0xEBC JUMPI PUSH2 0xEBB PUSH2 0xE62 JUMP JUMPDEST JUMPDEST POP SWAP2 SWAP1 POP JUMP JUMPDEST PUSH32 0x546F6B656E20696420646F6573206E6F74206578697374000000000000000000 PUSH1 0x0 DUP3 ADD MSTORE POP JUMP JUMPDEST PUSH1 0x0 PUSH2 0xEF8 PUSH1 0x17 DUP4 PUSH2 0xA33 JUMP JUMPDEST SWAP2 POP PUSH2 0xF03 DUP3 PUSH2 0xEC2 JUMP JUMPDEST PUSH1 0x20 DUP3 ADD SWAP1 POP SWAP2 SWAP1 POP JUMP JUMPDEST PUSH1 0x0 PUSH1 0x20 DUP3 ADD SWAP1 POP DUP2 DUP2 SUB PUSH1 0x0 DUP4 ADD MSTORE PUSH2 0xF27 DUP2 PUSH2 0xEEB JUMP JUMPDEST SWAP1 POP SWAP2 SWAP1 POP JUMP JUMPDEST PUSH32 0x455243373231204552524F523A206D696E7420746F20746865207A65726F2061 PUSH1 0x0 DUP3 ADD MSTORE PUSH32 0x6464726573730000000000000000000000000000000000000000000000000000 PUSH1 0x20 DUP3 ADD MSTORE POP JUMP JUMPDEST PUSH1 0x0 PUSH2 0xF8A PUSH1 0x26 DUP4 PUSH2 0xA33 JUMP JUMPDEST SWAP2 POP PUSH2 0xF95 DUP3 PUSH2 0xF2E JUMP JUMPDEST PUSH1 0x40 DUP3 ADD SWAP1 POP SWAP2 SWAP1 POP JUMP JUMPDEST PUSH1 0x0 PUSH1 0x20 DUP3 ADD SWAP1 POP DUP2 DUP2 SUB PUSH1 0x0 DUP4 ADD MSTORE PUSH2 0xFB9 DUP2 PUSH2 0xF7D JUMP JUMPDEST SWAP1 POP SWAP2 SWAP1 POP JUMP JUMPDEST PUSH32 0x455243373231204552524F523A20546F6B656E20616C7265616479206D696E74 PUSH1 0x0 DUP3 ADD MSTORE PUSH32 0x6564000000000000000000000000000000000000000000000000000000000000 PUSH1 0x20 DUP3 ADD MSTORE POP JUMP JUMPDEST PUSH1 0x0 PUSH2 0x101C PUSH1 0x22 DUP4 PUSH2 0xA33 JUMP JUMPDEST SWAP2 POP PUSH2 0x1027 DUP3 PUSH2 0xFC0 JUMP JUMPDEST PUSH1 0x40 DUP3 ADD SWAP1 POP SWAP2 SWAP1 POP JUMP JUMPDEST PUSH1 0x0 PUSH1 0x20 DUP3 ADD SWAP1 POP DUP2 DUP2 SUB PUSH1 0x0 DUP4 ADD MSTORE PUSH2 0x104B DUP2 PUSH2 0x100F JUMP JUMPDEST SWAP1 POP SWAP2 SWAP1 POP JUMP JUMPDEST PUSH32 0x4E487B7100000000000000000000000000000000000000000000000000000000 PUSH1 0x0 MSTORE PUSH1 0x11 PUSH1 0x4 MSTORE PUSH1 0x24 PUSH1 0x0 REVERT JUMPDEST PUSH1 0x0 PUSH2 0x108C DUP3 PUSH2 0xAE3 JUMP JUMPDEST SWAP2 POP PUSH2 0x1097 DUP4 PUSH2 0xAE3 JUMP JUMPDEST SWAP3 POP DUP3 PUSH32 0xFFFFFFFFFFFFFFFFFFFFFFFFFFFFFFFFFFFFFFFFFFFFFFFFFFFFFFFFFFFFFFFF SUB DUP3 GT ISZERO PUSH2 0x10CC JUMPI PUSH2 0x10CB PUSH2 0x1052 JUMP JUMPDEST JUMPDEST DUP3 DUP3 ADD SWAP1 POP SWAP3 SWAP2 POP POP JUMP JUMPDEST PUSH1 0x0 DUP2 MLOAD SWAP1 POP SWAP2 SWAP1 POP JUMP JUMPDEST PUSH1 0x0 DUP3 DUP3 MSTORE PUSH1 0x20 DUP3 ADD SWAP1 POP SWAP3 SWAP2 POP POP JUMP JUMPDEST PUSH1 0x0 PUSH2 0x10FE DUP3 PUSH2 0x10D7 JUMP JUMPDEST PUSH2 0x1108 DUP2 DUP6 PUSH2 0x10E2 JUMP JUMPDEST SWAP4 POP PUSH2 0x1118 DUP2 DUP6 PUSH1 0x20 DUP7 ADD PUSH2 0xA44 JUMP JUMPDEST PUSH2 0x1121 DUP2 PUSH2 0xA77 JUMP JUMPDEST DUP5 ADD SWAP2 POP POP SWAP3 SWAP2 POP POP JUMP JUMPDEST PUSH1 0x0 PUSH1 0x80 DUP3 ADD SWAP1 POP PUSH2 0x1141 PUSH1 0x0 DUP4 ADD DUP8 PUSH2 0xBFB JUMP JUMPDEST PUSH2 0x114E PUSH1 0x20 DUP4 ADD DUP7 PUSH2 0xBFB JUMP JUMPDEST PUSH2 0x115B PUSH1 0x40 DUP4 ADD DUP6 PUSH2 0xAED JUMP JUMPDEST DUP2 DUP2 SUB PUSH1 0x60 DUP4 ADD MSTORE PUSH2 0x116D DUP2 DUP5 PUSH2 0x10F3 JUMP JUMPDEST SWAP1 POP SWAP6 SWAP5 POP POP POP POP POP JUMP JUMPDEST PUSH1 0x0 DUP2 MLOAD SWAP1 POP PUSH2 0x1187 DUP2 PUSH2 0x999 JUMP JUMPDEST SWAP3 SWAP2 POP POP JUMP JUMPDEST PUSH1 0x0 PUSH1 0x20 DUP3 DUP5 SUB SLT ISZERO PUSH2 0x11A3 JUMPI PUSH2 0x11A2 PUSH2 0x963 JUMP JUMPDEST JUMPDEST PUSH1 0x0 PUSH2 0x11B1 DUP5 DUP3 DUP6 ADD PUSH2 0x1178 JUMP JUMPDEST SWAP2 POP POP SWAP3 SWAP2 POP POP JUMP JUMPDEST PUSH32 0x4552433732313A207472616E7366657220746F206E6F6E204552433732315265 PUSH1 0x0 DUP3 ADD MSTORE PUSH32 0x63656976657220696D706C656D656E7465720000000000000000000000000000 PUSH1 0x20 DUP3 ADD MSTORE POP JUMP JUMPDEST PUSH1 0x0 PUSH2 0x1216 PUSH1 0x32 DUP4 PUSH2 0xA33 JUMP JUMPDEST SWAP2 POP PUSH2 0x1221 DUP3 PUSH2 0x11BA JUMP JUMPDEST PUSH1 0x40 DUP3 ADD SWAP1 POP SWAP2 SWAP1 POP JUMP JUMPDEST PUSH1 0x0 PUSH1 0x20 DUP3 ADD SWAP1 POP DUP2 DUP2 SUB PUSH1 0x0 DUP4 ADD MSTORE PUSH2 0x1245 DUP2 PUSH2 0x1209 JUMP JUMPDEST SWAP1 POP SWAP2 SWAP1 POP JUMP INVALID LOG2 PUSH5 0x6970667358 0x22 SLT KECCAK256 0xEB 0xD8 0xB6 DUP5 NOT 0xCA 0xD9 PUSH10 0xFC7B8FF50457A1469E33 PUSH16 0x7FE52A9F85AB7A69B14FBD538964736F PUSH13 0x634300080D0033A26469706673 PC 0x22 SLT KECCAK256 PUSH12 0xDCBDCEDFEC65D89E26043596 RETURN OR MUL 0x23 LOG0 0xD 0xE5 SWAP13 0xF8 SIGNEXTEND 0x2D 0xFC 0xE7 JUMPI MSTORE ADD 0xC4 0x4C 0xC9 PUSH5 0x736F6C6343 STOP ADDMOD 0xD STOP CALLER PUSH1 0x80 PUSH1 0x40 MSTORE CALLVALUE DUP1 ISZERO PUSH3 0x11 JUMPI PUSH1 0x0 DUP1 REVERT JUMPDEST POP PUSH1 0x40 MLOAD DUP1 PUSH1 0x40 ADD PUSH1 0x40 MSTORE DUP1 PUSH1 0x9 DUP2 MSTORE PUSH1 0x20 ADD PUSH32 0x554E4952544F4B454E0000000000000000000000000000000000000000000000 DUP2 MSTORE POP PUSH1 0x0 SWAP1 DUP1 MLOAD SWAP1 PUSH1 0x20 ADD SWAP1 PUSH3 0x5F SWAP3 SWAP2 SWAP1 PUSH3 0x191 JUMP JUMPDEST POP PUSH1 0x40 MLOAD DUP1 PUSH1 0x40 ADD PUSH1 0x40 MSTORE DUP1 PUSH1 0x4 DUP2 MSTORE PUSH1 0x20 ADD PUSH32 0x554E544B00000000000000000000000000000000000000000000000000000000 DUP2 MSTORE POP PUSH1 0x1 SWAP1 DUP1 MLOAD SWAP1 PUSH1 0x20 ADD SWAP1 PUSH3 0xAD SWAP3 SWAP2 SWAP1 PUSH3 0x191 JUMP JUMPDEST POP PUSH1 0x12 PUSH1 0x2 PUSH1 0x0 PUSH2 0x100 EXP DUP2 SLOAD DUP2 PUSH1 0xFF MUL NOT AND SWAP1 DUP4 PUSH1 0xFF AND MUL OR SWAP1 SSTORE POP PUSH10 0x152D02C7E14AF6800000 PUSH1 0x3 DUP2 SWAP1 SSTORE POP PUSH1 0x3 SLOAD PUSH1 0x4 PUSH1 0x0 CALLER PUSH20 0xFFFFFFFFFFFFFFFFFFFFFFFFFFFFFFFFFFFFFFFF AND PUSH20 0xFFFFFFFFFFFFFFFFFFFFFFFFFFFFFFFFFFFFFFFF AND DUP2 MSTORE PUSH1 0x20 ADD SWAP1 DUP2 MSTORE PUSH1 0x20 ADD PUSH1 0x0 KECCAK256 DUP2 SWAP1 SSTORE POP ADDRESS PUSH20 0xFFFFFFFFFFFFFFFFFFFFFFFFFFFFFFFFFFFFFFFF AND PUSH1 0x0 PUSH20 0xFFFFFFFFFFFFFFFFFFFFFFFFFFFFFFFFFFFFFFFF AND PUSH32 0xDDF252AD1BE2C89B69C2B068FC378DAA952BA7F163C4A11628F55A4DF523B3EF PUSH1 0x3 SLOAD PUSH1 0x40 MLOAD PUSH3 0x183 SWAP2 SWAP1 PUSH3 0x25C JUMP JUMPDEST PUSH1 0x40 MLOAD DUP1 SWAP2 SUB SWAP1 LOG3 PUSH3 0x2DD JUMP JUMPDEST DUP3 DUP1 SLOAD PUSH3 0x19F SWAP1 PUSH3 0x2A8 JUMP JUMPDEST SWAP1 PUSH1 0x0 MSTORE PUSH1 0x20 PUSH1 0x0 KECCAK256 SWAP1 PUSH1 0x1F ADD PUSH1 0x20 SWAP1 DIV DUP2 ADD SWAP3 DUP3 PUSH3 0x1C3 JUMPI PUSH1 0x0 DUP6 SSTORE PUSH3 0x20F JUMP JUMPDEST DUP3 PUSH1 0x1F LT PUSH3 0x1DE JUMPI DUP1 MLOAD PUSH1 0xFF NOT AND DUP4 DUP1 ADD OR DUP6 SSTORE PUSH3 0x20F JUMP JUMPDEST DUP3 DUP1 ADD PUSH1 0x1 ADD DUP6 SSTORE DUP3 ISZERO PUSH3 0x20F JUMPI SWAP2 DUP3 ADD JUMPDEST DUP3 DUP2 GT ISZERO PUSH3 0x20E JUMPI DUP3 MLOAD DUP3 SSTORE SWAP2 PUSH1 0x20 ADD SWAP2 SWAP1 PUSH1 0x1 ADD SWAP1 PUSH3 0x1F1 JUMP JUMPDEST JUMPDEST POP SWAP1 POP PUSH3 0x21E SWAP2 SWAP1 PUSH3 0x222 JUMP JUMPDEST POP SWAP1 JUMP JUMPDEST JUMPDEST DUP1 DUP3 GT ISZERO PUSH3 0x23D JUMPI PUSH1 0x0 DUP2 PUSH1 0x0 SWAP1 SSTORE POP PUSH1 0x1 ADD PUSH3 0x223 JUMP JUMPDEST POP SWAP1 JUMP JUMPDEST PUSH1 0x0 DUP2 SWAP1 POP SWAP2 SWAP1 POP JUMP JUMPDEST PUSH3 0x256 DUP2 PUSH3 0x241 JUMP JUMPDEST DUP3 MSTORE POP POP JUMP JUMPDEST PUSH1 0x0 PUSH1 0x20 DUP3 ADD SWAP1 POP PUSH3 0x273 PUSH1 0x0 DUP4 ADD DUP5 PUSH3 0x24B JUMP JUMPDEST SWAP3 SWAP2 POP POP JUMP JUMPDEST PUSH32 0x4E487B7100000000000000000000000000000000000000000000000000000000 PUSH1 0x0 MSTORE PUSH1 0x22 PUSH1 0x4 MSTORE PUSH1 0x24 PUSH1 0x0 REVERT JUMPDEST PUSH1 0x0 PUSH1 0x2 DUP3 DIV SWAP1 POP PUSH1 0x1 DUP3 AND DUP1 PUSH3 0x2C1 JUMPI PUSH1 0x7F DUP3 AND SWAP2 POP JUMPDEST PUSH1 0x20 DUP3 LT DUP2 SUB PUSH3 0x2D7 JUMPI PUSH3 0x2D6 PUSH3 0x279 JUMP JUMPDEST JUMPDEST POP SWAP2 SWAP1 POP JUMP JUMPDEST PUSH2 0x1007 DUP1 PUSH3 0x2ED PUSH1 0x0 CODECOPY PUSH1 0x0 RETURN INVALID PUSH1 0x80 PUSH1 0x40 MSTORE CALLVALUE DUP1 ISZERO PUSH2 0x10 JUMPI PUSH1 0x0 DUP1 REVERT JUMPDEST POP PUSH1 0x4 CALLDATASIZE LT PUSH2 0xEA JUMPI PUSH1 0x0 CALLDATALOAD PUSH1 0xE0 SHR DUP1 PUSH4 0x95D89B41 GT PUSH2 0x8C JUMPI DUP1 PUSH4 0xB5931F7C GT PUSH2 0x66 JUMPI DUP1 PUSH4 0xB5931F7C EQ PUSH2 0x275 JUMPI DUP1 PUSH4 0xD05C78DA EQ PUSH2 0x2A5 JUMPI DUP1 PUSH4 0xDD62ED3E EQ PUSH2 0x2D5 JUMPI DUP1 PUSH4 0xE6CB9013 EQ PUSH2 0x305 JUMPI PUSH2 0xEA JUMP JUMPDEST DUP1 PUSH4 0x95D89B41 EQ PUSH2 0x1F7 JUMPI DUP1 PUSH4 0xA293D1E8 EQ PUSH2 0x215 JUMPI DUP1 PUSH4 0xA9059CBB EQ PUSH2 0x245 JUMPI PUSH2 0xEA JUMP JUMPDEST DUP1 PUSH4 0x23B872DD GT PUSH2 0xC8 JUMPI DUP1 PUSH4 0x23B872DD EQ PUSH2 0x15B JUMPI DUP1 PUSH4 0x313CE567 EQ PUSH2 0x18B JUMPI DUP1 PUSH4 0x3EAAF86B EQ PUSH2 0x1A9 JUMPI DUP1 PUSH4 0x70A08231 EQ PUSH2 0x1C7 JUMPI PUSH2 0xEA JUMP JUMPDEST DUP1 PUSH4 0x6FDDE03 EQ PUSH2 0xEF JUMPI DUP1 PUSH4 0x95EA7B3 EQ PUSH2 0x10D JUMPI DUP1 PUSH4 0x18160DDD EQ PUSH2 0x13D JUMPI JUMPDEST PUSH1 0x0 DUP1 REVERT JUMPDEST PUSH2 0xF7 PUSH2 0x335 JUMP JUMPDEST PUSH1 0x40 MLOAD PUSH2 0x104 SWAP2 SWAP1 PUSH2 0xB6C JUMP JUMPDEST PUSH1 0x40 MLOAD DUP1 SWAP2 SUB SWAP1 RETURN JUMPDEST PUSH2 0x127 PUSH1 0x4 DUP1 CALLDATASIZE SUB DUP2 ADD SWAP1 PUSH2 0x122 SWAP2 SWAP1 PUSH2 0xC27 JUMP JUMPDEST PUSH2 0x3C3 JUMP JUMPDEST PUSH1 0x40 MLOAD PUSH2 0x134 SWAP2 SWAP1 PUSH2 0xC82 JUMP JUMPDEST PUSH1 0x40 MLOAD DUP1 SWAP2 SUB SWAP1 RETURN JUMPDEST PUSH2 0x145 PUSH2 0x4B5 JUMP JUMPDEST PUSH1 0x40 MLOAD PUSH2 0x152 SWAP2 SWAP1 PUSH2 0xCAC JUMP JUMPDEST PUSH1 0x40 MLOAD DUP1 SWAP2 SUB SWAP1 RETURN JUMPDEST PUSH2 0x175 PUSH1 0x4 DUP1 CALLDATASIZE SUB DUP2 ADD SWAP1 PUSH2 0x170 SWAP2 SWAP1 PUSH2 0xCC7 JUMP JUMPDEST PUSH2 0x509 JUMP JUMPDEST PUSH1 0x40 MLOAD PUSH2 0x182 SWAP2 SWAP1 PUSH2 0xC82 JUMP JUMPDEST PUSH1 0x40 MLOAD DUP1 SWAP2 SUB SWAP1 RETURN JUMPDEST PUSH2 0x193 PUSH2 0x6DB JUMP JUMPDEST PUSH1 0x40 MLOAD PUSH2 0x1A0 SWAP2 SWAP1 PUSH2 0xD36 JUMP JUMPDEST PUSH1 0x40 MLOAD DUP1 SWAP2 SUB SWAP1 RETURN JUMPDEST PUSH2 0x1B1 PUSH2 0x6EE JUMP JUMPDEST PUSH1 0x40 MLOAD PUSH2 0x1BE SWAP2 SWAP1 PUSH2 0xCAC JUMP JUMPDEST PUSH1 0x40 MLOAD DUP1 SWAP2 SUB SWAP1 RETURN JUMPDEST PUSH2 0x1E1 PUSH1 0x4 DUP1 CALLDATASIZE SUB DUP2 ADD SWAP1 PUSH2 0x1DC SWAP2 SWAP1 PUSH2 0xD51 JUMP JUMPDEST PUSH2 0x6F4 JUMP JUMPDEST PUSH1 0x40 MLOAD PUSH2 0x1EE SWAP2 SWAP1 PUSH2 0xCAC JUMP JUMPDEST PUSH1 0x40 MLOAD DUP1 SWAP2 SUB SWAP1 RETURN JUMPDEST PUSH2 0x1FF PUSH2 0x73D JUMP JUMPDEST PUSH1 0x40 MLOAD PUSH2 0x20C SWAP2 SWAP1 PUSH2 0xB6C JUMP JUMPDEST PUSH1 0x40 MLOAD DUP1 SWAP2 SUB SWAP1 RETURN JUMPDEST PUSH2 0x22F PUSH1 0x4 DUP1 CALLDATASIZE SUB DUP2 ADD SWAP1 PUSH2 0x22A SWAP2 SWAP1 PUSH2 0xD7E JUMP JUMPDEST PUSH2 0x7CB JUMP JUMPDEST PUSH1 0x40 MLOAD PUSH2 0x23C SWAP2 SWAP1 PUSH2 0xCAC JUMP JUMPDEST PUSH1 0x40 MLOAD DUP1 SWAP2 SUB SWAP1 RETURN JUMPDEST PUSH2 0x25F PUSH1 0x4 DUP1 CALLDATASIZE SUB DUP2 ADD SWAP1 PUSH2 0x25A SWAP2 SWAP1 PUSH2 0xC27 JUMP JUMPDEST PUSH2 0x7EE JUMP JUMPDEST PUSH1 0x40 MLOAD PUSH2 0x26C SWAP2 SWAP1 PUSH2 0xC82 JUMP JUMPDEST PUSH1 0x40 MLOAD DUP1 SWAP2 SUB SWAP1 RETURN JUMPDEST PUSH2 0x28F PUSH1 0x4 DUP1 CALLDATASIZE SUB DUP2 ADD SWAP1 PUSH2 0x28A SWAP2 SWAP1 PUSH2 0xD7E JUMP JUMPDEST PUSH2 0x9CF JUMP JUMPDEST PUSH1 0x40 MLOAD PUSH2 0x29C SWAP2 SWAP1 PUSH2 0xCAC JUMP JUMPDEST PUSH1 0x40 MLOAD DUP1 SWAP2 SUB SWAP1 RETURN JUMPDEST PUSH2 0x2BF PUSH1 0x4 DUP1 CALLDATASIZE SUB DUP2 ADD SWAP1 PUSH2 0x2BA SWAP2 SWAP1 PUSH2 0xD7E JUMP JUMPDEST PUSH2 0x9F1 JUMP JUMPDEST PUSH1 0x40 MLOAD PUSH2 0x2CC SWAP2 SWAP1 PUSH2 0xCAC JUMP JUMPDEST PUSH1 0x40 MLOAD DUP1 SWAP2 SUB SWAP1 RETURN JUMPDEST PUSH2 0x2EF PUSH1 0x4 DUP1 CALLDATASIZE SUB DUP2 ADD SWAP1 PUSH2 0x2EA SWAP2 SWAP1 PUSH2 0xDBE JUMP JUMPDEST PUSH2 0xA29 JUMP JUMPDEST PUSH1 0x40 MLOAD PUSH2 0x2FC SWAP2 SWAP1 PUSH2 0xCAC JUMP JUMPDEST PUSH1 0x40 MLOAD DUP1 SWAP2 SUB SWAP1 RETURN JUMPDEST PUSH2 0x31F PUSH1 0x4 DUP1 CALLDATASIZE SUB DUP2 ADD SWAP1 PUSH2 0x31A SWAP2 SWAP1 PUSH2 0xD7E JUMP JUMPDEST PUSH2 0xAB0 JUMP JUMPDEST PUSH1 0x40 MLOAD PUSH2 0x32C SWAP2 SWAP1 PUSH2 0xCAC JUMP JUMPDEST PUSH1 0x40 MLOAD DUP1 SWAP2 SUB SWAP1 RETURN JUMPDEST PUSH1 0x0 DUP1 SLOAD PUSH2 0x342 SWAP1 PUSH2 0xE2D JUMP JUMPDEST DUP1 PUSH1 0x1F ADD PUSH1 0x20 DUP1 SWAP2 DIV MUL PUSH1 0x20 ADD PUSH1 0x40 MLOAD SWAP1 DUP2 ADD PUSH1 0x40 MSTORE DUP1 SWAP3 SWAP2 SWAP1 DUP2 DUP2 MSTORE PUSH1 0x20 ADD DUP3 DUP1 SLOAD PUSH2 0x36E SWAP1 PUSH2 0xE2D JUMP JUMPDEST DUP1 ISZERO PUSH2 0x3BB JUMPI DUP1 PUSH1 0x1F LT PUSH2 0x390 JUMPI PUSH2 0x100 DUP1 DUP4 SLOAD DIV MUL DUP4 MSTORE SWAP2 PUSH1 0x20 ADD SWAP2 PUSH2 0x3BB JUMP JUMPDEST DUP3 ADD SWAP2 SWAP1 PUSH1 0x0 MSTORE PUSH1 0x20 PUSH1 0x0 KECCAK256 SWAP1 JUMPDEST DUP2 SLOAD DUP2 MSTORE SWAP1 PUSH1 0x1 ADD SWAP1 PUSH1 0x20 ADD DUP1 DUP4 GT PUSH2 0x39E JUMPI DUP3 SWAP1 SUB PUSH1 0x1F AND DUP3 ADD SWAP2 JUMPDEST POP POP POP POP POP DUP2 JUMP JUMPDEST PUSH1 0x0 DUP2 PUSH1 0x5 PUSH1 0x0 CALLER PUSH20 0xFFFFFFFFFFFFFFFFFFFFFFFFFFFFFFFFFFFFFFFF AND PUSH20 0xFFFFFFFFFFFFFFFFFFFFFFFFFFFFFFFFFFFFFFFF AND DUP2 MSTORE PUSH1 0x20 ADD SWAP1 DUP2 MSTORE PUSH1 0x20 ADD PUSH1 0x0 KECCAK256 PUSH1 0x0 DUP6 PUSH20 0xFFFFFFFFFFFFFFFFFFFFFFFFFFFFFFFFFFFFFFFF AND PUSH20 0xFFFFFFFFFFFFFFFFFFFFFFFFFFFFFFFFFFFFFFFF AND DUP2 MSTORE PUSH1 0x20 ADD SWAP1 DUP2 MSTORE PUSH1 0x20 ADD PUSH1 0x0 KECCAK256 DUP2 SWAP1 SSTORE POP DUP3 PUSH20 0xFFFFFFFFFFFFFFFFFFFFFFFFFFFFFFFFFFFFFFFF AND CALLER PUSH20 0xFFFFFFFFFFFFFFFFFFFFFFFFFFFFFFFFFFFFFFFF AND PUSH32 0x8C5BE1E5EBEC7D5BD14F71427D1E84F3DD0314C0F7B2291E5B200AC8C7C3B925 DUP5 PUSH1 0x40 MLOAD PUSH2 0x4A3 SWAP2 SWAP1 PUSH2 0xCAC JUMP JUMPDEST PUSH1 0x40 MLOAD DUP1 SWAP2 SUB SWAP1 LOG3 PUSH1 0x1 SWAP1 POP SWAP3 SWAP2 POP POP JUMP JUMPDEST PUSH1 0x0 PUSH1 0x4 PUSH1 0x0 DUP1 PUSH20 0xFFFFFFFFFFFFFFFFFFFFFFFFFFFFFFFFFFFFFFFF AND PUSH20 0xFFFFFFFFFFFFFFFFFFFFFFFFFFFFFFFFFFFFFFFF AND DUP2 MSTORE PUSH1 0x20 ADD SWAP1 DUP2 MSTORE PUSH1 0x20 ADD PUSH1 0x0 KECCAK256 SLOAD PUSH1 0x3 SLOAD PUSH2 0x504 SWAP2 SWAP1 PUSH2 0xE8D JUMP JUMPDEST SWAP1 POP SWAP1 JUMP JUMPDEST PUSH1 0x0 DUP1 PUSH20 0xFFFFFFFFFFFFFFFFFFFFFFFFFFFFFFFFFFFFFFFF AND DUP4 PUSH20 0xFFFFFFFFFFFFFFFFFFFFFFFFFFFFFFFFFFFFFFFF AND SUB PUSH2 0x543 JUMPI PUSH1 0x0 DUP1 REVERT JUMPDEST DUP2 PUSH1 0x5 PUSH1 0x0 CALLER PUSH20 0xFFFFFFFFFFFFFFFFFFFFFFFFFFFFFFFFFFFFFFFF AND PUSH20 0xFFFFFFFFFFFFFFFFFFFFFFFFFFFFFFFFFFFFFFFF AND DUP2 MSTORE PUSH1 0x20 ADD SWAP1 DUP2 MSTORE PUSH1 0x20 ADD PUSH1 0x0 KECCAK256 PUSH1 0x0 DUP7 PUSH20 0xFFFFFFFFFFFFFFFFFFFFFFFFFFFFFFFFFFFFFFFF AND PUSH20 0xFFFFFFFFFFFFFFFFFFFFFFFFFFFFFFFFFFFFFFFF AND DUP2 MSTORE PUSH1 0x20 ADD SWAP1 DUP2 MSTORE PUSH1 0x20 ADD PUSH1 0x0 KECCAK256 SLOAD LT ISZERO PUSH2 0x5CC JUMPI PUSH1 0x0 DUP1 REVERT JUMPDEST DUP2 PUSH1 0x4 PUSH1 0x0 DUP7 PUSH20 0xFFFFFFFFFFFFFFFFFFFFFFFFFFFFFFFFFFFFFFFF AND PUSH20 0xFFFFFFFFFFFFFFFFFFFFFFFFFFFFFFFFFFFFFFFF AND DUP2 MSTORE PUSH1 0x20 ADD SWAP1 DUP2 MSTORE PUSH1 0x20 ADD PUSH1 0x0 KECCAK256 SLOAD LT ISZERO DUP1 ISZERO PUSH2 0x61B JUMPI POP PUSH1 0x0 DUP3 GT JUMPDEST PUSH2 0x624 JUMPI PUSH1 0x0 DUP1 REVERT JUMPDEST DUP2 PUSH1 0x4 PUSH1 0x0 DUP7 PUSH20 0xFFFFFFFFFFFFFFFFFFFFFFFFFFFFFFFFFFFFFFFF AND PUSH20 0xFFFFFFFFFFFFFFFFFFFFFFFFFFFFFFFFFFFFFFFF AND DUP2 MSTORE PUSH1 0x20 ADD SWAP1 DUP2 MSTORE PUSH1 0x20 ADD PUSH1 0x0 KECCAK256 PUSH1 0x0 DUP3 DUP3 SLOAD PUSH2 0x673 SWAP2 SWAP1 PUSH2 0xE8D JUMP JUMPDEST SWAP3 POP POP DUP2 SWAP1 SSTORE POP DUP2 PUSH1 0x4 PUSH1 0x0 DUP6 PUSH20 0xFFFFFFFFFFFFFFFFFFFFFFFFFFFFFFFFFFFFFFFF AND PUSH20 0xFFFFFFFFFFFFFFFFFFFFFFFFFFFFFFFFFFFFFFFF AND DUP2 MSTORE PUSH1 0x20 ADD SWAP1 DUP2 MSTORE PUSH1 0x20 ADD PUSH1 0x0 KECCAK256 PUSH1 0x0 DUP3 DUP3 SLOAD PUSH2 0x6C9 SWAP2 SWAP1 PUSH2 0xEC1 JUMP JUMPDEST SWAP3 POP POP DUP2 SWAP1 SSTORE POP PUSH1 0x1 SWAP1 POP SWAP4 SWAP3 POP POP POP JUMP JUMPDEST PUSH1 0x2 PUSH1 0x0 SWAP1 SLOAD SWAP1 PUSH2 0x100 EXP SWAP1 DIV PUSH1 0xFF AND DUP2 JUMP JUMPDEST PUSH1 0x3 SLOAD DUP2 JUMP JUMPDEST PUSH1 0x0 PUSH1 0x4 PUSH1 0x0 DUP4 PUSH20 0xFFFFFFFFFFFFFFFFFFFFFFFFFFFFFFFFFFFFFFFF AND PUSH20 0xFFFFFFFFFFFFFFFFFFFFFFFFFFFFFFFFFFFFFFFF AND DUP2 MSTORE PUSH1 0x20 ADD SWAP1 DUP2 MSTORE PUSH1 0x20 ADD PUSH1 0x0 KECCAK256 SLOAD SWAP1 POP SWAP2 SWAP1 POP JUMP JUMPDEST PUSH1 0x1 DUP1 SLOAD PUSH2 0x74A SWAP1 PUSH2 0xE2D JUMP JUMPDEST DUP1 PUSH1 0x1F ADD PUSH1 0x20 DUP1 SWAP2 DIV MUL PUSH1 0x20 ADD PUSH1 0x40 MLOAD SWAP1 DUP2 ADD PUSH1 0x40 MSTORE DUP1 SWAP3 SWAP2 SWAP1 DUP2 DUP2 MSTORE PUSH1 0x20 ADD DUP3 DUP1 SLOAD PUSH2 0x776 SWAP1 PUSH2 0xE2D JUMP JUMPDEST DUP1 ISZERO PUSH2 0x7C3 JUMPI DUP1 PUSH1 0x1F LT PUSH2 0x798 JUMPI PUSH2 0x100 DUP1 DUP4 SLOAD DIV MUL DUP4 MSTORE SWAP2 PUSH1 0x20 ADD SWAP2 PUSH2 0x7C3 JUMP JUMPDEST DUP3 ADD SWAP2 SWAP1 PUSH1 0x0 MSTORE PUSH1 0x20 PUSH1 0x0 KECCAK256 SWAP1 JUMPDEST DUP2 SLOAD DUP2 MSTORE SWAP1 PUSH1 0x1 ADD SWAP1 PUSH1 0x20 ADD DUP1 DUP4 GT PUSH2 0x7A6 JUMPI DUP3 SWAP1 SUB PUSH1 0x1F AND DUP3 ADD SWAP2 JUMPDEST POP POP POP POP POP DUP2 JUMP JUMPDEST PUSH1 0x0 DUP3 DUP3 GT ISZERO PUSH2 0x7DA JUMPI PUSH1 0x0 DUP1 REVERT JUMPDEST DUP2 DUP4 PUSH2 0x7E6 SWAP2 SWAP1 PUSH2 0xE8D JUMP JUMPDEST SWAP1 POP SWAP3 SWAP2 POP POP JUMP JUMPDEST PUSH1 0x0 DUP2 PUSH1 0x4 PUSH1 0x0 CALLER PUSH20 0xFFFFFFFFFFFFFFFFFFFFFFFFFFFFFFFFFFFFFFFF AND PUSH20 0xFFFFFFFFFFFFFFFFFFFFFFFFFFFFFFFFFFFFFFFF AND DUP2 MSTORE PUSH1 0x20 ADD SWAP1 DUP2 MSTORE PUSH1 0x20 ADD PUSH1 0x0 KECCAK256 SLOAD LT ISZERO DUP1 ISZERO PUSH2 0x83F JUMPI POP PUSH1 0x0 DUP3 GT JUMPDEST PUSH2 0x848 JUMPI PUSH1 0x0 DUP1 REVERT JUMPDEST PUSH2 0x891 PUSH1 0x4 PUSH1 0x0 CALLER PUSH20 0xFFFFFFFFFFFFFFFFFFFFFFFFFFFFFFFFFFFFFFFF AND PUSH20 0xFFFFFFFFFFFFFFFFFFFFFFFFFFFFFFFFFFFFFFFF AND DUP2 MSTORE PUSH1 0x20 ADD SWAP1 DUP2 MSTORE PUSH1 0x20 ADD PUSH1 0x0 KECCAK256 SLOAD DUP4 PUSH2 0x7CB JUMP JUMPDEST PUSH1 0x4 PUSH1 0x0 CALLER PUSH20 0xFFFFFFFFFFFFFFFFFFFFFFFFFFFFFFFFFFFFFFFF AND PUSH20 0xFFFFFFFFFFFFFFFFFFFFFFFFFFFFFFFFFFFFFFFF AND DUP2 MSTORE PUSH1 0x20 ADD SWAP1 DUP2 MSTORE PUSH1 0x20 ADD PUSH1 0x0 KECCAK256 DUP2 SWAP1 SSTORE POP PUSH2 0x91D PUSH1 0x4 PUSH1 0x0 DUP6 PUSH20 0xFFFFFFFFFFFFFFFFFFFFFFFFFFFFFFFFFFFFFFFF AND PUSH20 0xFFFFFFFFFFFFFFFFFFFFFFFFFFFFFFFFFFFFFFFF AND DUP2 MSTORE PUSH1 0x20 ADD SWAP1 DUP2 MSTORE PUSH1 0x20 ADD PUSH1 0x0 KECCAK256 SLOAD DUP4 PUSH2 0xAB0 JUMP JUMPDEST PUSH1 0x4 PUSH1 0x0 DUP6 PUSH20 0xFFFFFFFFFFFFFFFFFFFFFFFFFFFFFFFFFFFFFFFF AND PUSH20 0xFFFFFFFFFFFFFFFFFFFFFFFFFFFFFFFFFFFFFFFF AND DUP2 MSTORE PUSH1 0x20 ADD SWAP1 DUP2 MSTORE PUSH1 0x20 ADD PUSH1 0x0 KECCAK256 DUP2 SWAP1 SSTORE POP DUP3 PUSH20 0xFFFFFFFFFFFFFFFFFFFFFFFFFFFFFFFFFFFFFFFF AND CALLER PUSH20 0xFFFFFFFFFFFFFFFFFFFFFFFFFFFFFFFFFFFFFFFF AND PUSH32 0xDDF252AD1BE2C89B69C2B068FC378DAA952BA7F163C4A11628F55A4DF523B3EF DUP5 PUSH1 0x40 MLOAD PUSH2 0x9BD SWAP2 SWAP1 PUSH2 0xCAC JUMP JUMPDEST PUSH1 0x40 MLOAD DUP1 SWAP2 SUB SWAP1 LOG3 PUSH1 0x1 SWAP1 POP SWAP3 SWAP2 POP POP JUMP JUMPDEST PUSH1 0x0 DUP1 DUP3 GT PUSH2 0x9DD JUMPI PUSH1 0x0 DUP1 REVERT JUMPDEST DUP2 DUP4 PUSH2 0x9E9 SWAP2 SWAP1 PUSH2 0xF46 JUMP JUMPDEST SWAP1 POP SWAP3 SWAP2 POP POP JUMP JUMPDEST PUSH1 0x0 DUP2 DUP4 PUSH2 0x9FF SWAP2 SWAP1 PUSH2 0xF77 JUMP JUMPDEST SWAP1 POP PUSH1 0x0 DUP4 EQ DUP1 PUSH2 0xA1A JUMPI POP DUP2 DUP4 DUP3 PUSH2 0xA18 SWAP2 SWAP1 PUSH2 0xF46 JUMP JUMPDEST EQ JUMPDEST PUSH2 0xA23 JUMPI PUSH1 0x0 DUP1 REVERT JUMPDEST SWAP3 SWAP2 POP POP JUMP JUMPDEST PUSH1 0x0 PUSH1 0x5 PUSH1 0x0 DUP5 PUSH20 0xFFFFFFFFFFFFFFFFFFFFFFFFFFFFFFFFFFFFFFFF AND PUSH20 0xFFFFFFFFFFFFFFFFFFFFFFFFFFFFFFFFFFFFFFFF AND DUP2 MSTORE PUSH1 0x20 ADD SWAP1 DUP2 MSTORE PUSH1 0x20 ADD PUSH1 0x0 KECCAK256 PUSH1 0x0 DUP4 PUSH20 0xFFFFFFFFFFFFFFFFFFFFFFFFFFFFFFFFFFFFFFFF AND PUSH20 0xFFFFFFFFFFFFFFFFFFFFFFFFFFFFFFFFFFFFFFFF AND DUP2 MSTORE PUSH1 0x20 ADD SWAP1 DUP2 MSTORE PUSH1 0x20 ADD PUSH1 0x0 KECCAK256 SLOAD SWAP1 POP SWAP3 SWAP2 POP POP JUMP JUMPDEST PUSH1 0x0 DUP2 DUP4 PUSH2 0xABE SWAP2 SWAP1 PUSH2 0xEC1 JUMP JUMPDEST SWAP1 POP DUP3 DUP2 LT ISZERO PUSH2 0xACD JUMPI PUSH1 0x0 DUP1 REVERT JUMPDEST SWAP3 SWAP2 POP POP JUMP JUMPDEST PUSH1 0x0 DUP2 MLOAD SWAP1 POP SWAP2 SWAP1 POP JUMP JUMPDEST PUSH1 0x0 DUP3 DUP3 MSTORE PUSH1 0x20 DUP3 ADD SWAP1 POP SWAP3 SWAP2 POP POP JUMP JUMPDEST PUSH1 0x0 JUMPDEST DUP4 DUP2 LT ISZERO PUSH2 0xB0D JUMPI DUP1 DUP3 ADD MLOAD DUP2 DUP5 ADD MSTORE PUSH1 0x20 DUP2 ADD SWAP1 POP PUSH2 0xAF2 JUMP JUMPDEST DUP4 DUP2 GT ISZERO PUSH2 0xB1C JUMPI PUSH1 0x0 DUP5 DUP5 ADD MSTORE JUMPDEST POP POP POP POP JUMP JUMPDEST PUSH1 0x0 PUSH1 0x1F NOT PUSH1 0x1F DUP4 ADD AND SWAP1 POP SWAP2 SWAP1 POP JUMP JUMPDEST PUSH1 0x0 PUSH2 0xB3E DUP3 PUSH2 0xAD3 JUMP JUMPDEST PUSH2 0xB48 DUP2 DUP6 PUSH2 0xADE JUMP JUMPDEST SWAP4 POP PUSH2 0xB58 DUP2 DUP6 PUSH1 0x20 DUP7 ADD PUSH2 0xAEF JUMP JUMPDEST PUSH2 0xB61 DUP2 PUSH2 0xB22 JUMP JUMPDEST DUP5 ADD SWAP2 POP POP SWAP3 SWAP2 POP POP JUMP JUMPDEST PUSH1 0x0 PUSH1 0x20 DUP3 ADD SWAP1 POP DUP2 DUP2 SUB PUSH1 0x0 DUP4 ADD MSTORE PUSH2 0xB86 DUP2 DUP5 PUSH2 0xB33 JUMP JUMPDEST SWAP1 POP SWAP3 SWAP2 POP POP JUMP JUMPDEST PUSH1 0x0 DUP1 REVERT JUMPDEST PUSH1 0x0 PUSH20 0xFFFFFFFFFFFFFFFFFFFFFFFFFFFFFFFFFFFFFFFF DUP3 AND SWAP1 POP SWAP2 SWAP1 POP JUMP JUMPDEST PUSH1 0x0 PUSH2 0xBBE DUP3 PUSH2 0xB93 JUMP JUMPDEST SWAP1 POP SWAP2 SWAP1 POP JUMP JUMPDEST PUSH2 0xBCE DUP2 PUSH2 0xBB3 JUMP JUMPDEST DUP2 EQ PUSH2 0xBD9 JUMPI PUSH1 0x0 DUP1 REVERT JUMPDEST POP JUMP JUMPDEST PUSH1 0x0 DUP2 CALLDATALOAD SWAP1 POP PUSH2 0xBEB DUP2 PUSH2 0xBC5 JUMP JUMPDEST SWAP3 SWAP2 POP POP JUMP JUMPDEST PUSH1 0x0 DUP2 SWAP1 POP SWAP2 SWAP1 POP JUMP JUMPDEST PUSH2 0xC04 DUP2 PUSH2 0xBF1 JUMP JUMPDEST DUP2 EQ PUSH2 0xC0F JUMPI PUSH1 0x0 DUP1 REVERT JUMPDEST POP JUMP JUMPDEST PUSH1 0x0 DUP2 CALLDATALOAD SWAP1 POP PUSH2 0xC21 DUP2 PUSH2 0xBFB JUMP JUMPDEST SWAP3 SWAP2 POP POP JUMP JUMPDEST PUSH1 0x0 DUP1 PUSH1 0x40 DUP4 DUP6 SUB SLT ISZERO PUSH2 0xC3E JUMPI PUSH2 0xC3D PUSH2 0xB8E JUMP JUMPDEST JUMPDEST PUSH1 0x0 PUSH2 0xC4C DUP6 DUP3 DUP7 ADD PUSH2 0xBDC JUMP JUMPDEST SWAP3 POP POP PUSH1 0x20 PUSH2 0xC5D DUP6 DUP3 DUP7 ADD PUSH2 0xC12 JUMP JUMPDEST SWAP2 POP POP SWAP3 POP SWAP3 SWAP1 POP JUMP JUMPDEST PUSH1 0x0 DUP2 ISZERO ISZERO SWAP1 POP SWAP2 SWAP1 POP JUMP JUMPDEST PUSH2 0xC7C DUP2 PUSH2 0xC67 JUMP JUMPDEST DUP3 MSTORE POP POP JUMP JUMPDEST PUSH1 0x0 PUSH1 0x20 DUP3 ADD SWAP1 POP PUSH2 0xC97 PUSH1 0x0 DUP4 ADD DUP5 PUSH2 0xC73 JUMP JUMPDEST SWAP3 SWAP2 POP POP JUMP JUMPDEST PUSH2 0xCA6 DUP2 PUSH2 0xBF1 JUMP JUMPDEST DUP3 MSTORE POP POP JUMP JUMPDEST PUSH1 0x0 PUSH1 0x20 DUP3 ADD SWAP1 POP PUSH2 0xCC1 PUSH1 0x0 DUP4 ADD DUP5 PUSH2 0xC9D JUMP JUMPDEST SWAP3 SWAP2 POP POP JUMP JUMPDEST PUSH1 0x0 DUP1 PUSH1 0x0 PUSH1 0x60 DUP5 DUP7 SUB SLT ISZERO PUSH2 0xCE0 JUMPI PUSH2 0xCDF PUSH2 0xB8E JUMP JUMPDEST JUMPDEST PUSH1 0x0 PUSH2 0xCEE DUP7 DUP3 DUP8 ADD PUSH2 0xBDC JUMP JUMPDEST SWAP4 POP POP PUSH1 0x20 PUSH2 0xCFF DUP7 DUP3 DUP8 ADD PUSH2 0xBDC JUMP JUMPDEST SWAP3 POP POP PUSH1 0x40 PUSH2 0xD10 DUP7 DUP3 DUP8 ADD PUSH2 0xC12 JUMP JUMPDEST SWAP2 POP POP SWAP3 POP SWAP3 POP SWAP3 JUMP JUMPDEST PUSH1 0x0 PUSH1 0xFF DUP3 AND SWAP1 POP SWAP2 SWAP1 POP JUMP JUMPDEST PUSH2 0xD30 DUP2 PUSH2 0xD1A JUMP JUMPDEST DUP3 MSTORE POP POP JUMP JUMPDEST PUSH1 0x0 PUSH1 0x20 DUP3 ADD SWAP1 POP PUSH2 0xD4B PUSH1 0x0 DUP4 ADD DUP5 PUSH2 0xD27 JUMP JUMPDEST SWAP3 SWAP2 POP POP JUMP JUMPDEST PUSH1 0x0 PUSH1 0x20 DUP3 DUP5 SUB SLT ISZERO PUSH2 0xD67 JUMPI PUSH2 0xD66 PUSH2 0xB8E JUMP JUMPDEST JUMPDEST PUSH1 0x0 PUSH2 0xD75 DUP5 DUP3 DUP6 ADD PUSH2 0xBDC JUMP JUMPDEST SWAP2 POP POP SWAP3 SWAP2 POP POP JUMP JUMPDEST PUSH1 0x0 DUP1 PUSH1 0x40 DUP4 DUP6 SUB SLT ISZERO PUSH2 0xD95 JUMPI PUSH2 0xD94 PUSH2 0xB8E JUMP JUMPDEST JUMPDEST PUSH1 0x0 PUSH2 0xDA3 DUP6 DUP3 DUP7 ADD PUSH2 0xC12 JUMP JUMPDEST SWAP3 POP POP PUSH1 0x20 PUSH2 0xDB4 DUP6 DUP3 DUP7 ADD PUSH2 0xC12 JUMP JUMPDEST SWAP2 POP POP SWAP3 POP SWAP3 SWAP1 POP JUMP JUMPDEST PUSH1 0x0 DUP1 PUSH1 0x40 DUP4 DUP6 SUB SLT ISZERO PUSH2 0xDD5 JUMPI PUSH2 0xDD4 PUSH2 0xB8E JUMP JUMPDEST JUMPDEST PUSH1 0x0 PUSH2 0xDE3 DUP6 DUP3 DUP7 ADD PUSH2 0xBDC JUMP JUMPDEST SWAP3 POP POP PUSH1 0x20 PUSH2 0xDF4 DUP6 DUP3 DUP7 ADD PUSH2 0xBDC JUMP JUMPDEST SWAP2 POP POP SWAP3 POP SWAP3 SWAP1 POP JUMP JUMPDEST PUSH32 0x4E487B7100000000000000000000000000000000000000000000000000000000 PUSH1 0x0 MSTORE PUSH1 0x22 PUSH1 0x4 MSTORE PUSH1 0x24 PUSH1 0x0 REVERT JUMPDEST PUSH1 0x0 PUSH1 0x2 DUP3 DIV SWAP1 POP PUSH1 0x1 DUP3 AND DUP1 PUSH2 0xE45 JUMPI PUSH1 0x7F DUP3 AND SWAP2 POP JUMPDEST PUSH1 0x20 DUP3 LT DUP2 SUB PUSH2 0xE58 JUMPI PUSH2 0xE57 PUSH2 0xDFE JUMP JUMPDEST JUMPDEST POP SWAP2 SWAP1 POP JUMP JUMPDEST PUSH32 0x4E487B7100000000000000000000000000000000000000000000000000000000 PUSH1 0x0 MSTORE PUSH1 0x11 PUSH1 0x4 MSTORE PUSH1 0x24 PUSH1 0x0 REVERT JUMPDEST PUSH1 0x0 PUSH2 0xE98 DUP3 PUSH2 0xBF1 JUMP JUMPDEST SWAP2 POP PUSH2 0xEA3 DUP4 PUSH2 0xBF1 JUMP JUMPDEST SWAP3 POP DUP3 DUP3 LT ISZERO PUSH2 0xEB6 JUMPI PUSH2 0xEB5 PUSH2 0xE5E JUMP JUMPDEST JUMPDEST DUP3 DUP3 SUB SWAP1 POP SWAP3 SWAP2 POP POP JUMP JUMPDEST PUSH1 0x0 PUSH2 0xECC DUP3 PUSH2 0xBF1 JUMP JUMPDEST SWAP2 POP PUSH2 0xED7 DUP4 PUSH2 0xBF1 JUMP JUMPDEST SWAP3 POP DUP3 PUSH32 0xFFFFFFFFFFFFFFFFFFFFFFFFFFFFFFFFFFFFFFFFFFFFFFFFFFFFFFFFFFFFFFFF SUB DUP3 GT ISZERO PUSH2 0xF0C JUMPI PUSH2 0xF0B PUSH2 0xE5E JUMP JUMPDEST JUMPDEST DUP3 DUP3 ADD SWAP1 POP SWAP3 SWAP2 POP POP JUMP JUMPDEST PUSH32 0x4E487B7100000000000000000000000000000000000000000000000000000000 PUSH1 0x0 MSTORE PUSH1 0x12 PUSH1 0x4 MSTORE PUSH1 0x24 PUSH1 0x0 REVERT JUMPDEST PUSH1 0x0 PUSH2 0xF51 DUP3 PUSH2 0xBF1 JUMP JUMPDEST SWAP2 POP PUSH2 0xF5C DUP4 PUSH2 0xBF1 JUMP JUMPDEST SWAP3 POP DUP3 PUSH2 0xF6C JUMPI PUSH2 0xF6B PUSH2 0xF17 JUMP JUMPDEST JUMPDEST DUP3 DUP3 DIV SWAP1 POP SWAP3 SWAP2 POP POP JUMP JUMPDEST PUSH1 0x0 PUSH2 0xF82 DUP3 PUSH2 0xBF1 JUMP JUMPDEST SWAP2 POP PUSH2 0xF8D DUP4 PUSH2 0xBF1 JUMP JUMPDEST SWAP3 POP DUP2 PUSH32 0xFFFFFFFFFFFFFFFFFFFFFFFFFFFFFFFFFFFFFFFFFFFFFFFFFFFFFFFFFFFFFFFF DIV DUP4 GT DUP3 ISZERO ISZERO AND ISZERO PUSH2 0xFC6 JUMPI PUSH2 0xFC5 PUSH2 0xE5E JUMP JUMPDEST JUMPDEST DUP3 DUP3 MUL SWAP1 POP SWAP3 SWAP2 POP POP JUMP INVALID LOG2 PUSH5 0x6970667358 0x22 SLT KECCAK256 0xDC 0xF7 PC 0xD0 POP 0x2B 0xC5 SELFDESTRUCT 0xFC PUSH7 0x93979998F5C444 0xC5 0x21 EXTCODEHASH PUSH28 0xF2AA65D658FA373B2BE32F64736F6C634300080D0033000000000000 "},"gasEstimates":{"creation":{"codeDepositCost":"4683000","executionCost":"infinite","totalCost":"infinite"},"external":{"ContrataDron(uint256,uint256)":"infinite","aceptaTrabajos(uint256,uint256)":"infinite","buyTokens(uint256)":"infinite","getBalanceOf(address)":"infinite","getCost(uint256)":"infinite","getDronesDisponibles()":"infinite","getMaxHeight(uint256)":"infinite","getMinHeight(uint256)":"infinite","getTrabajosDisponibles()":"infinite","get_idDron()":"2526","get_idPlot()":"2481","registraDron(uint256,uint256,uint256)":"infinite","registraPlot(uint256,uint256,string)":"infinite","safeAdd(uint256,uint256)":"infinite","safeDiv(uint256,uint256)":"infinite","safeMul(uint256,uint256)":"infinite","safeSub(uint256,uint256)":"infinite"},"internal":{"compareStrings(string memory,string memory)":"infinite"}},"methodIdentifiers":{"ContrataDron(uint256,uint256)":"b6ac6de5","aceptaTrabajos(uint256,uint256)":"15740214","buyTokens(uint256)":"3610724e","getBalanceOf(address)":"9b96eece","getCost(uint256)":"5a4dd47d","getDronesDisponibles()":"d3838f52","getMaxHeight(uint256)":"0c8946dc","getMinHeight(uint256)":"cac43eb4","getTrabajosDisponibles()":"46c12c47","get_idDron()":"b9058947","get_idPlot()":"ce308132","registraDron(uint256,uint256,uint256)":"0aefd3a9","registraPlot(uint256,uint256,string)":"5792c584","safeAdd(uint256,uint256)":"e6cb9013","safeDiv(uint256,uint256)":"b5931f7c","safeMul(uint256,uint256)":"d05c78da","safeSub(uint256,uint256)":"a293d1e8"}},"storageLayout":{"storage":[{"astId":9,"contract":"Dron_Company.sol:Dron_Company","label":"id_dron","offset":0,"slot":"0","type":"t_uint256"},{"astId":11,"contract":"Dron_Company.sol:Dron_Company","label":"id_plot","offset":0,"slot":"1","type":"t_uint256"},{"astId":13,"contract":"Dron_Company.sol:Dron_Company","label":"n_trabajos","offset":0,"slot":"2","type":"t_uint256"},{"astId":15,"contract":"Dron_Company.sol:Dron_Company","label":"owner","offset":0,"slot":"3","type":"t_address"},{"astId":20,"contract":"Dron_Company.sol:Dron_Company","label":"drones","offset":0,"slot":"4","type":"t_mapping(t_uint256,t_contract(Dron)883)"},{"astId":25,"contract":"Dron_Company.sol:Dron_Company","label":"plots","offset":0,"slot":"5","type":"t_mapping(t_uint256,t_contract(Plot)1240)"},{"astId":29,"contract":"Dron_Company.sol:Dron_Company","label":"trabajosPendientes","offset":0,"slot":"6","type":"t_mapping(t_uint256,t_uint256)"},{"astId":32,"contract":"Dron_Company.sol:Dron_Company","label":"token","offset":0,"slot":"7","type":"t_contract(ERC20)1135"}],"types":{"t_address":{"encoding":"inplace","label":"address","numberOfBytes":"20"},"t_contract(Dron)883":{"encoding":"inplace","label":"contract Dron","numberOfBytes":"20"},"t_contract(ERC20)1135":{"encoding":"inplace","label":"contract ERC20","numberOfBytes":"20"},"t_contract(Plot)1240":{"encoding":"inplace","label":"contract Plot","numberOfBytes":"20"},"t_mapping(t_uint256,t_contract(Dron)883)":{"encoding":"mapping","key":"t_uint256","label":"mapping(uint256 => contract Dron)","numberOfBytes":"32","value":"t_contract(Dron)883"},"t_mapping(t_uint256,t_contract(Plot)1240)":{"encoding":"mapping","key":"t_uint256","label":"mapping(uint256 => contract Plot)","numberOfBytes":"32","value":"t_contract(Plot)1240"},"t_mapping(t_uint256,t_uint256)":{"encoding":"mapping","key":"t_uint256","label":"mapping(uint256 => uint256)","numberOfBytes":"32","value":"t_uint256"},"t_uint256":{"encoding":"inplace","label":"uint256","numberOfBytes":"32"}}},"userdoc":{"kind":"user","methods":{},"version":1}}