{"abi":[{"anonymous":false,"inputs":[{"indexed":true,"internalType":"address","name":"from","type":"address"},{"indexed":true,"internalType":"address","name":"to","type":"address"},{"indexed":true,"internalType":"uint256","name":"tokenId","type":"uint256"}],"name":"Transfer","type":"event"},{"inputs":[{"internalType":"address","name":"to","type":"address"},{"internalType":"uint256","name":"tokenId","type":"uint256"},{"internalType":"bytes","name":"_data","type":"bytes"}],"name":"_safeMint","outputs":[],"stateMutability":"nonpayable","type":"function"},{"inputs":[{"internalType":"address","name":"to","type":"address"},{"internalType":"uint256","name":"tokenId","type":"uint256"}],"name":"_safeMint","outputs":[],"stateMutability":"nonpayable","type":"function"},{"inputs":[{"internalType":"address","name":"owner","type":"address"}],"name":"balanceOf","outputs":[{"internalType":"uint256","name":"balance","type":"uint256"}],"stateMutability":"view","type":"function"},{"inputs":[{"internalType":"uint256","name":"tokenId","type":"uint256"}],"name":"ownerOf","outputs":[{"internalType":"address","name":"","type":"address"}],"stateMutability":"view","type":"function"},{"inputs":[{"internalType":"bytes4","name":"interfaceId","type":"bytes4"}],"name":"supportsInterface","outputs":[{"internalType":"bool","name":"","type":"bool"}],"stateMutability":"view","type":"function"}],"devdoc":{"kind":"dev","methods":{},"version":1},"evm":{"assembly":"    /* \"ERC721.sol\":145:2983   */\n  mstore(0x40, 0x80)\n  callvalue\n  dup1\n  iszero\n  tag_1\n  jumpi\n  0x00\n  dup1\n  revert\ntag_1:\n  pop\n  dataSize(sub_0)\n  dup1\n  dataOffset(sub_0)\n  0x00\n  codecopy\n  0x00\n  return\nstop\n\nsub_0: assembly {\n        /* \"ERC721.sol\":145:2983   */\n      mstore(0x40, 0x80)\n      callvalue\n      dup1\n      iszero\n      tag_1\n      jumpi\n      0x00\n      dup1\n      revert\n    tag_1:\n      pop\n      jumpi(tag_2, lt(calldatasize, 0x04))\n      shr(0xe0, calldataload(0x00))\n      dup1\n      0x01ffc9a7\n      eq\n      tag_3\n      jumpi\n      dup1\n      0x6352211e\n      eq\n      tag_4\n      jumpi\n      dup1\n      0x6a4f832b\n      eq\n      tag_5\n      jumpi\n      dup1\n      0x70a08231\n      eq\n      tag_6\n      jumpi\n      dup1\n      0xb3e1c718\n      eq\n      tag_7\n      jumpi\n    tag_2:\n      0x00\n      dup1\n      revert\n        /* \"ERC165.sol\":128:290   */\n    tag_3:\n      tag_8\n      0x04\n      dup1\n      calldatasize\n      sub\n      dup2\n      add\n      swap1\n      tag_9\n      swap2\n      swap1\n      tag_10\n      jump\t// in\n    tag_9:\n      tag_11\n      jump\t// in\n    tag_8:\n      mload(0x40)\n      tag_12\n      swap2\n      swap1\n      tag_13\n      jump\t// in\n    tag_12:\n      mload(0x40)\n      dup1\n      swap2\n      sub\n      swap1\n      return\n        /* \"ERC721.sol\":624:852   */\n    tag_4:\n      tag_14\n      0x04\n      dup1\n      calldatasize\n      sub\n      dup2\n      add\n      swap1\n      tag_15\n      swap2\n      swap1\n      tag_16\n      jump\t// in\n    tag_15:\n      tag_17\n      jump\t// in\n    tag_14:\n      mload(0x40)\n      tag_18\n      swap2\n      swap1\n      tag_19\n      jump\t// in\n    tag_18:\n      mload(0x40)\n      dup1\n      swap2\n      sub\n      swap1\n      return\n        /* \"ERC721.sol\":1108:1302   */\n    tag_5:\n      tag_20\n      0x04\n      dup1\n      calldatasize\n      sub\n      dup2\n      add\n      swap1\n      tag_21\n      swap2\n      swap1\n      tag_22\n      jump\t// in\n    tag_21:\n      tag_23\n      jump\t// in\n    tag_20:\n      stop\n        /* \"ERC721.sol\":863:984   */\n    tag_6:\n      tag_24\n      0x04\n      dup1\n      calldatasize\n      sub\n      dup2\n      add\n      swap1\n      tag_25\n      swap2\n      swap1\n      tag_26\n      jump\t// in\n    tag_25:\n      tag_27\n      jump\t// in\n    tag_24:\n      mload(0x40)\n      tag_28\n      swap2\n      swap1\n      tag_29\n      jump\t// in\n    tag_28:\n      mload(0x40)\n      dup1\n      swap2\n      sub\n      swap1\n      return\n        /* \"ERC721.sol\":992:1099   */\n    tag_7:\n      tag_30\n      0x04\n      dup1\n      calldatasize\n      sub\n      dup2\n      add\n      swap1\n      tag_31\n      swap2\n      swap1\n      tag_32\n      jump\t// in\n    tag_31:\n      tag_33\n      jump\t// in\n    tag_30:\n      stop\n        /* \"ERC165.sol\":128:290   */\n    tag_11:\n        /* \"ERC165.sol\":213:217   */\n      0x00\n        /* \"ERC165.sol\":257:282   */\n      0x01ffc9a700000000000000000000000000000000000000000000000000000000\n        /* \"ERC165.sol\":242:282   */\n      not(0xffffffffffffffffffffffffffffffffffffffffffffffffffffffff)\n      and\n        /* \"ERC165.sol\":242:253   */\n      dup3\n        /* \"ERC165.sol\":242:282   */\n      not(0xffffffffffffffffffffffffffffffffffffffffffffffffffffffff)\n      and\n      eq\n        /* \"ERC165.sol\":235:282   */\n      swap1\n      pop\n        /* \"ERC165.sol\":128:290   */\n      swap2\n      swap1\n      pop\n      jump\t// out\n        /* \"ERC721.sol\":624:852   */\n    tag_17:\n        /* \"ERC721.sol\":697:704   */\n      0x00\n        /* \"ERC721.sol\":722:735   */\n      dup1\n        /* \"ERC721.sol\":738:745   */\n      0x00\n        /* \"ERC721.sol\":738:754   */\n      dup1\n        /* \"ERC721.sol\":746:753   */\n      dup5\n        /* \"ERC721.sol\":738:754   */\n      dup2\n      mstore\n      0x20\n      add\n      swap1\n      dup2\n      mstore\n      0x20\n      add\n      0x00\n      keccak256\n      0x00\n      swap1\n      sload\n      swap1\n      0x0100\n      exp\n      swap1\n      div\n      0xffffffffffffffffffffffffffffffffffffffff\n      and\n        /* \"ERC721.sol\":722:754   */\n      swap1\n      pop\n        /* \"ERC721.sol\":791:792   */\n      0x00\n        /* \"ERC721.sol\":774:793   */\n      0xffffffffffffffffffffffffffffffffffffffff\n      and\n        /* \"ERC721.sol\":774:779   */\n      dup2\n        /* \"ERC721.sol\":774:793   */\n      0xffffffffffffffffffffffffffffffffffffffff\n      and\n      sub\n        /* \"ERC721.sol\":765:821   */\n      tag_36\n      jumpi\n      mload(0x40)\n      0x08c379a000000000000000000000000000000000000000000000000000000000\n      dup2\n      mstore\n      0x04\n      add\n      tag_37\n      swap1\n      tag_38\n      jump\t// in\n    tag_37:\n      mload(0x40)\n      dup1\n      swap2\n      sub\n      swap1\n      revert\n    tag_36:\n        /* \"ERC721.sol\":839:844   */\n      dup1\n        /* \"ERC721.sol\":832:844   */\n      swap2\n      pop\n      pop\n        /* \"ERC721.sol\":624:852   */\n      swap2\n      swap1\n      pop\n      jump\t// out\n        /* \"ERC721.sol\":1108:1302   */\n    tag_23:\n        /* \"ERC721.sol\":1202:1220   */\n      tag_40\n        /* \"ERC721.sol\":1208:1210   */\n      dup4\n        /* \"ERC721.sol\":1212:1219   */\n      dup4\n        /* \"ERC721.sol\":1202:1207   */\n      tag_41\n        /* \"ERC721.sol\":1202:1220   */\n      jump\t// in\n    tag_40:\n        /* \"ERC721.sol\":1239:1293   */\n      tag_42\n        /* \"ERC721.sol\":1270:1271   */\n      0x00\n        /* \"ERC721.sol\":1274:1276   */\n      dup5\n        /* \"ERC721.sol\":1278:1285   */\n      dup5\n        /* \"ERC721.sol\":1287:1292   */\n      dup5\n        /* \"ERC721.sol\":1239:1261   */\n      tag_43\n        /* \"ERC721.sol\":1239:1293   */\n      jump\t// in\n    tag_42:\n        /* \"ERC721.sol\":1231:1294   */\n      tag_44\n      jumpi\n      0x00\n      dup1\n      revert\n    tag_44:\n        /* \"ERC721.sol\":1108:1302   */\n      pop\n      pop\n      pop\n      jump\t// out\n        /* \"ERC721.sol\":863:984   */\n    tag_27:\n        /* \"ERC721.sol\":920:935   */\n      0x00\n        /* \"ERC721.sol\":960:969   */\n      0x01\n        /* \"ERC721.sol\":960:976   */\n      0x00\n        /* \"ERC721.sol\":970:975   */\n      dup4\n        /* \"ERC721.sol\":960:976   */\n      0xffffffffffffffffffffffffffffffffffffffff\n      and\n      0xffffffffffffffffffffffffffffffffffffffff\n      and\n      dup2\n      mstore\n      0x20\n      add\n      swap1\n      dup2\n      mstore\n      0x20\n      add\n      0x00\n      keccak256\n      sload\n        /* \"ERC721.sol\":953:976   */\n      swap1\n      pop\n        /* \"ERC721.sol\":863:984   */\n      swap2\n      swap1\n      pop\n      jump\t// out\n        /* \"ERC721.sol\":992:1099   */\n    tag_33:\n        /* \"ERC721.sol\":1065:1091   */\n      tag_47\n        /* \"ERC721.sol\":1076:1078   */\n      dup3\n        /* \"ERC721.sol\":1079:1086   */\n      dup3\n        /* \"ERC721.sol\":1065:1091   */\n      mload(0x40)\n      dup1\n      0x20\n      add\n      0x40\n      mstore\n      dup1\n      0x00\n      dup2\n      mstore\n      pop\n        /* \"ERC721.sol\":1065:1074   */\n      tag_23\n        /* \"ERC721.sol\":1065:1091   */\n      jump\t// in\n    tag_47:\n        /* \"ERC721.sol\":992:1099   */\n      pop\n      pop\n      jump\t// out\n        /* \"ERC721.sol\":1310:1786   */\n    tag_41:\n        /* \"ERC721.sol\":1410:1411   */\n      0x00\n        /* \"ERC721.sol\":1396:1412   */\n      0xffffffffffffffffffffffffffffffffffffffff\n      and\n        /* \"ERC721.sol\":1396:1398   */\n      dup3\n        /* \"ERC721.sol\":1396:1412   */\n      0xffffffffffffffffffffffffffffffffffffffff\n      and\n      sub\n        /* \"ERC721.sol\":1388:1455   */\n      tag_49\n      jumpi\n      mload(0x40)\n      0x08c379a000000000000000000000000000000000000000000000000000000000\n      dup2\n      mstore\n      0x04\n      add\n      tag_50\n      swap1\n      tag_51\n      jump\t// in\n    tag_50:\n      mload(0x40)\n      dup1\n      swap2\n      sub\n      swap1\n      revert\n    tag_49:\n        /* \"ERC721.sol\":1476:1492   */\n      tag_52\n        /* \"ERC721.sol\":1484:1491   */\n      dup2\n        /* \"ERC721.sol\":1476:1483   */\n      tag_53\n        /* \"ERC721.sol\":1476:1492   */\n      jump\t// in\n    tag_52:\n        /* \"ERC721.sol\":1475:1492   */\n      iszero\n        /* \"ERC721.sol\":1466:1531   */\n      tag_54\n      jumpi\n      mload(0x40)\n      0x08c379a000000000000000000000000000000000000000000000000000000000\n      dup2\n      mstore\n      0x04\n      add\n      tag_55\n      swap1\n      tag_56\n      jump\t// in\n    tag_55:\n      mload(0x40)\n      dup1\n      swap2\n      sub\n      swap1\n      revert\n    tag_54:\n        /* \"ERC721.sol\":1694:1695   */\n      0x01\n        /* \"ERC721.sol\":1679:1688   */\n      dup1\n        /* \"ERC721.sol\":1679:1692   */\n      0x00\n        /* \"ERC721.sol\":1689:1691   */\n      dup5\n        /* \"ERC721.sol\":1679:1692   */\n      0xffffffffffffffffffffffffffffffffffffffff\n      and\n      0xffffffffffffffffffffffffffffffffffffffff\n      and\n      dup2\n      mstore\n      0x20\n      add\n      swap1\n      dup2\n      mstore\n      0x20\n      add\n      0x00\n      keccak256\n      0x00\n        /* \"ERC721.sol\":1679:1695   */\n      dup3\n      dup3\n      sload\n      tag_57\n      swap2\n      swap1\n      tag_58\n      jump\t// in\n    tag_57:\n      swap3\n      pop\n      pop\n      dup2\n      swap1\n      sstore\n      pop\n        /* \"ERC721.sol\":1725:1727   */\n      dup2\n        /* \"ERC721.sol\":1706:1713   */\n      0x00\n        /* \"ERC721.sol\":1706:1722   */\n      dup1\n        /* \"ERC721.sol\":1714:1721   */\n      dup4\n        /* \"ERC721.sol\":1706:1722   */\n      dup2\n      mstore\n      0x20\n      add\n      swap1\n      dup2\n      mstore\n      0x20\n      add\n      0x00\n      keccak256\n      0x00\n        /* \"ERC721.sol\":1706:1727   */\n      0x0100\n      exp\n      dup2\n      sload\n      dup2\n      0xffffffffffffffffffffffffffffffffffffffff\n      mul\n      not\n      and\n      swap1\n      dup4\n      0xffffffffffffffffffffffffffffffffffffffff\n      and\n      mul\n      or\n      swap1\n      sstore\n      pop\n        /* \"ERC721.sol\":1770:1777   */\n      dup1\n        /* \"ERC721.sol\":1766:1768   */\n      dup3\n        /* \"ERC721.sol\":1745:1778   */\n      0xffffffffffffffffffffffffffffffffffffffff\n      and\n        /* \"ERC721.sol\":1762:1763   */\n      0x00\n        /* \"ERC721.sol\":1745:1778   */\n      0xffffffffffffffffffffffffffffffffffffffff\n      and\n      0xddf252ad1be2c89b69c2b068fc378daa952ba7f163c4a11628f55a4df523b3ef\n      mload(0x40)\n      mload(0x40)\n      dup1\n      swap2\n      sub\n      swap1\n      log4\n        /* \"ERC721.sol\":1310:1786   */\n      pop\n      pop\n      jump\t// out\n        /* \"ERC721.sol\":1965:2754   */\n    tag_43:\n        /* \"ERC721.sol\":2077:2081   */\n      0x00\n        /* \"ERC721.sol\":2104:2118   */\n      tag_60\n        /* \"ERC721.sol\":2115:2117   */\n      dup5\n        /* \"ERC721.sol\":2104:2114   */\n      tag_61\n        /* \"ERC721.sol\":2104:2118   */\n      jump\t// in\n    tag_60:\n        /* \"ERC721.sol\":2100:2747   */\n      iszero\n      tag_62\n      jumpi\n        /* \"ERC721.sol\":2165:2167   */\n      dup4\n        /* \"ERC721.sol\":2149:2185   */\n      0xffffffffffffffffffffffffffffffffffffffff\n      and\n      0x150b7a02\n        /* \"ERC721.sol\":2186:2196   */\n      caller\n        /* \"ERC721.sol\":2198:2202   */\n      dup8\n        /* \"ERC721.sol\":2204:2211   */\n      dup7\n        /* \"ERC721.sol\":2213:2218   */\n      dup7\n        /* \"ERC721.sol\":2149:2219   */\n      mload(0x40)\n      dup6\n      0xffffffff\n      and\n      0xe0\n      shl\n      dup2\n      mstore\n      0x04\n      add\n      tag_63\n      swap5\n      swap4\n      swap3\n      swap2\n      swap1\n      tag_64\n      jump\t// in\n    tag_63:\n      0x20\n      mload(0x40)\n      dup1\n      dup4\n      sub\n      dup2\n      0x00\n      dup8\n      gas\n      call\n      swap3\n      pop\n      pop\n      pop\n      dup1\n      iszero\n      tag_65\n      jumpi\n      pop\n      mload(0x40)\n      returndatasize\n      not(0x1f)\n      0x1f\n      dup3\n      add\n      and\n      dup3\n      add\n      dup1\n      0x40\n      mstore\n      pop\n      dup2\n      add\n      swap1\n      tag_66\n      swap2\n      swap1\n      tag_67\n      jump\t// in\n    tag_66:\n      0x01\n    tag_65:\n        /* \"ERC721.sol\":2145:2672   */\n      tag_68\n      jumpi\n      returndatasize\n      dup1\n      0x00\n      dup2\n      eq\n      tag_73\n      jumpi\n      mload(0x40)\n      swap2\n      pop\n      and(add(returndatasize, 0x3f), not(0x1f))\n      dup3\n      add\n      0x40\n      mstore\n      returndatasize\n      dup3\n      mstore\n      returndatasize\n      0x00\n      0x20\n      dup5\n      add\n      returndatacopy\n      jump(tag_72)\n    tag_73:\n      0x60\n      swap2\n      pop\n    tag_72:\n      pop\n        /* \"ERC721.sol\":2406:2407   */\n      0x00\n        /* \"ERC721.sol\":2389:2395   */\n      dup2\n        /* \"ERC721.sol\":2389:2402   */\n      mload\n        /* \"ERC721.sol\":2389:2407   */\n      sub\n        /* \"ERC721.sol\":2385:2657   */\n      tag_74\n      jumpi\n        /* \"ERC721.sol\":2432:2492   */\n      mload(0x40)\n      0x08c379a000000000000000000000000000000000000000000000000000000000\n      dup2\n      mstore\n      0x04\n      add\n      tag_75\n      swap1\n      tag_76\n      jump\t// in\n    tag_75:\n      mload(0x40)\n      dup1\n      swap2\n      sub\n      swap1\n      revert\n        /* \"ERC721.sol\":2385:2657   */\n    tag_74:\n        /* \"ERC721.sol\":2607:2613   */\n      dup1\n        /* \"ERC721.sol\":2601:2614   */\n      mload\n        /* \"ERC721.sol\":2592:2598   */\n      dup2\n        /* \"ERC721.sol\":2588:2590   */\n      0x20\n        /* \"ERC721.sol\":2584:2599   */\n      add\n        /* \"ERC721.sol\":2577:2615   */\n      revert\n        /* \"ERC721.sol\":2145:2672   */\n    tag_68:\n        /* \"ERC721.sol\":2280:2321   */\n      shl(0xe0, 0x150b7a02)\n        /* \"ERC721.sol\":2270:2321   */\n      not(0xffffffffffffffffffffffffffffffffffffffffffffffffffffffff)\n      and\n        /* \"ERC721.sol\":2270:2276   */\n      dup2\n        /* \"ERC721.sol\":2270:2321   */\n      not(0xffffffffffffffffffffffffffffffffffffffffffffffffffffffff)\n      and\n      eq\n        /* \"ERC721.sol\":2263:2321   */\n      swap2\n      pop\n      pop\n      jump(tag_59)\n        /* \"ERC721.sol\":2100:2747   */\n    tag_62:\n        /* \"ERC721.sol\":2731:2735   */\n      0x01\n        /* \"ERC721.sol\":2724:2735   */\n      swap1\n      pop\n        /* \"ERC721.sol\":1965:2754   */\n    tag_59:\n      swap5\n      swap4\n      pop\n      pop\n      pop\n      pop\n      jump\t// out\n        /* \"ERC721.sol\":1797:1957   */\n    tag_53:\n        /* \"ERC721.sol\":1862:1866   */\n      0x00\n        /* \"ERC721.sol\":1918:1919   */\n      dup1\n        /* \"ERC721.sol\":1891:1920   */\n      0xffffffffffffffffffffffffffffffffffffffff\n      and\n        /* \"ERC721.sol\":1891:1898   */\n      0x00\n        /* \"ERC721.sol\":1891:1907   */\n      dup1\n        /* \"ERC721.sol\":1899:1906   */\n      dup5\n        /* \"ERC721.sol\":1891:1907   */\n      dup2\n      mstore\n      0x20\n      add\n      swap1\n      dup2\n      mstore\n      0x20\n      add\n      0x00\n      keccak256\n      0x00\n      swap1\n      sload\n      swap1\n      0x0100\n      exp\n      swap1\n      div\n      0xffffffffffffffffffffffffffffffffffffffff\n      and\n        /* \"ERC721.sol\":1891:1920   */\n      0xffffffffffffffffffffffffffffffffffffffff\n      and\n      eq\n      iszero\n        /* \"ERC721.sol\":1884:1920   */\n      swap1\n      pop\n        /* \"ERC721.sol\":1797:1957   */\n      swap2\n      swap1\n      pop\n      jump\t// out\n        /* \"ERC721.sol\":2762:2967   */\n    tag_61:\n        /* \"ERC721.sol\":2819:2823   */\n      0x00\n        /* \"ERC721.sol\":2841:2852   */\n      dup1\n        /* \"ERC721.sol\":2917:2922   */\n      dup3\n        /* \"ERC721.sol\":2905:2923   */\n      extcodesize\n        /* \"ERC721.sol\":2897:2923   */\n      swap1\n      pop\n        /* \"ERC721.sol\":2957:2958   */\n      0x00\n        /* \"ERC721.sol\":2952:2956   */\n      dup2\n        /* \"ERC721.sol\":2952:2958   */\n      0xffffffff\n      and\n      gt\n        /* \"ERC721.sol\":2944:2959   */\n      swap2\n      pop\n      pop\n        /* \"ERC721.sol\":2762:2967   */\n      swap2\n      swap1\n      pop\n      jump\t// out\n        /* \"#utility.yul\":7:82   */\n    tag_82:\n        /* \"#utility.yul\":40:46   */\n      0x00\n        /* \"#utility.yul\":73:75   */\n      0x40\n        /* \"#utility.yul\":67:76   */\n      mload\n        /* \"#utility.yul\":57:76   */\n      swap1\n      pop\n        /* \"#utility.yul\":7:82   */\n      swap1\n      jump\t// out\n        /* \"#utility.yul\":88:205   */\n    tag_83:\n        /* \"#utility.yul\":197:198   */\n      0x00\n        /* \"#utility.yul\":194:195   */\n      dup1\n        /* \"#utility.yul\":187:199   */\n      revert\n        /* \"#utility.yul\":211:328   */\n    tag_84:\n        /* \"#utility.yul\":320:321   */\n      0x00\n        /* \"#utility.yul\":317:318   */\n      dup1\n        /* \"#utility.yul\":310:322   */\n      revert\n        /* \"#utility.yul\":334:483   */\n    tag_85:\n        /* \"#utility.yul\":370:377   */\n      0x00\n        /* \"#utility.yul\":410:476   */\n      0xffffffff00000000000000000000000000000000000000000000000000000000\n        /* \"#utility.yul\":403:408   */\n      dup3\n        /* \"#utility.yul\":399:477   */\n      and\n        /* \"#utility.yul\":388:477   */\n      swap1\n      pop\n        /* \"#utility.yul\":334:483   */\n      swap2\n      swap1\n      pop\n      jump\t// out\n        /* \"#utility.yul\":489:609   */\n    tag_86:\n        /* \"#utility.yul\":561:584   */\n      tag_130\n        /* \"#utility.yul\":578:583   */\n      dup2\n        /* \"#utility.yul\":561:584   */\n      tag_85\n      jump\t// in\n    tag_130:\n        /* \"#utility.yul\":554:559   */\n      dup2\n        /* \"#utility.yul\":551:585   */\n      eq\n        /* \"#utility.yul\":541:603   */\n      tag_131\n      jumpi\n        /* \"#utility.yul\":599:600   */\n      0x00\n        /* \"#utility.yul\":596:597   */\n      dup1\n        /* \"#utility.yul\":589:601   */\n      revert\n        /* \"#utility.yul\":541:603   */\n    tag_131:\n        /* \"#utility.yul\":489:609   */\n      pop\n      jump\t// out\n        /* \"#utility.yul\":615:752   */\n    tag_87:\n        /* \"#utility.yul\":660:665   */\n      0x00\n        /* \"#utility.yul\":698:704   */\n      dup2\n        /* \"#utility.yul\":685:705   */\n      calldataload\n        /* \"#utility.yul\":676:705   */\n      swap1\n      pop\n        /* \"#utility.yul\":714:746   */\n      tag_133\n        /* \"#utility.yul\":740:745   */\n      dup2\n        /* \"#utility.yul\":714:746   */\n      tag_86\n      jump\t// in\n    tag_133:\n        /* \"#utility.yul\":615:752   */\n      swap3\n      swap2\n      pop\n      pop\n      jump\t// out\n        /* \"#utility.yul\":758:1085   */\n    tag_10:\n        /* \"#utility.yul\":816:822   */\n      0x00\n        /* \"#utility.yul\":865:867   */\n      0x20\n        /* \"#utility.yul\":853:862   */\n      dup3\n        /* \"#utility.yul\":844:851   */\n      dup5\n        /* \"#utility.yul\":840:863   */\n      sub\n        /* \"#utility.yul\":836:868   */\n      slt\n        /* \"#utility.yul\":833:952   */\n      iszero\n      tag_135\n      jumpi\n        /* \"#utility.yul\":871:950   */\n      tag_136\n      tag_83\n      jump\t// in\n    tag_136:\n        /* \"#utility.yul\":833:952   */\n    tag_135:\n        /* \"#utility.yul\":991:992   */\n      0x00\n        /* \"#utility.yul\":1016:1068   */\n      tag_137\n        /* \"#utility.yul\":1060:1067   */\n      dup5\n        /* \"#utility.yul\":1051:1057   */\n      dup3\n        /* \"#utility.yul\":1040:1049   */\n      dup6\n        /* \"#utility.yul\":1036:1058   */\n      add\n        /* \"#utility.yul\":1016:1068   */\n      tag_87\n      jump\t// in\n    tag_137:\n        /* \"#utility.yul\":1006:1068   */\n      swap2\n      pop\n        /* \"#utility.yul\":962:1078   */\n      pop\n        /* \"#utility.yul\":758:1085   */\n      swap3\n      swap2\n      pop\n      pop\n      jump\t// out\n        /* \"#utility.yul\":1091:1181   */\n    tag_88:\n        /* \"#utility.yul\":1125:1132   */\n      0x00\n        /* \"#utility.yul\":1168:1173   */\n      dup2\n        /* \"#utility.yul\":1161:1174   */\n      iszero\n        /* \"#utility.yul\":1154:1175   */\n      iszero\n        /* \"#utility.yul\":1143:1175   */\n      swap1\n      pop\n        /* \"#utility.yul\":1091:1181   */\n      swap2\n      swap1\n      pop\n      jump\t// out\n        /* \"#utility.yul\":1187:1296   */\n    tag_89:\n        /* \"#utility.yul\":1268:1289   */\n      tag_140\n        /* \"#utility.yul\":1283:1288   */\n      dup2\n        /* \"#utility.yul\":1268:1289   */\n      tag_88\n      jump\t// in\n    tag_140:\n        /* \"#utility.yul\":1263:1266   */\n      dup3\n        /* \"#utility.yul\":1256:1290   */\n      mstore\n        /* \"#utility.yul\":1187:1296   */\n      pop\n      pop\n      jump\t// out\n        /* \"#utility.yul\":1302:1512   */\n    tag_13:\n        /* \"#utility.yul\":1389:1393   */\n      0x00\n        /* \"#utility.yul\":1427:1429   */\n      0x20\n        /* \"#utility.yul\":1416:1425   */\n      dup3\n        /* \"#utility.yul\":1412:1430   */\n      add\n        /* \"#utility.yul\":1404:1430   */\n      swap1\n      pop\n        /* \"#utility.yul\":1440:1505   */\n      tag_142\n        /* \"#utility.yul\":1502:1503   */\n      0x00\n        /* \"#utility.yul\":1491:1500   */\n      dup4\n        /* \"#utility.yul\":1487:1504   */\n      add\n        /* \"#utility.yul\":1478:1484   */\n      dup5\n        /* \"#utility.yul\":1440:1505   */\n      tag_89\n      jump\t// in\n    tag_142:\n        /* \"#utility.yul\":1302:1512   */\n      swap3\n      swap2\n      pop\n      pop\n      jump\t// out\n        /* \"#utility.yul\":1518:1595   */\n    tag_90:\n        /* \"#utility.yul\":1555:1562   */\n      0x00\n        /* \"#utility.yul\":1584:1589   */\n      dup2\n        /* \"#utility.yul\":1573:1589   */\n      swap1\n      pop\n        /* \"#utility.yul\":1518:1595   */\n      swap2\n      swap1\n      pop\n      jump\t// out\n        /* \"#utility.yul\":1601:1723   */\n    tag_91:\n        /* \"#utility.yul\":1674:1698   */\n      tag_145\n        /* \"#utility.yul\":1692:1697   */\n      dup2\n        /* \"#utility.yul\":1674:1698   */\n      tag_90\n      jump\t// in\n    tag_145:\n        /* \"#utility.yul\":1667:1672   */\n      dup2\n        /* \"#utility.yul\":1664:1699   */\n      eq\n        /* \"#utility.yul\":1654:1717   */\n      tag_146\n      jumpi\n        /* \"#utility.yul\":1713:1714   */\n      0x00\n        /* \"#utility.yul\":1710:1711   */\n      dup1\n        /* \"#utility.yul\":1703:1715   */\n      revert\n        /* \"#utility.yul\":1654:1717   */\n    tag_146:\n        /* \"#utility.yul\":1601:1723   */\n      pop\n      jump\t// out\n        /* \"#utility.yul\":1729:1868   */\n    tag_92:\n        /* \"#utility.yul\":1775:1780   */\n      0x00\n        /* \"#utility.yul\":1813:1819   */\n      dup2\n        /* \"#utility.yul\":1800:1820   */\n      calldataload\n        /* \"#utility.yul\":1791:1820   */\n      swap1\n      pop\n        /* \"#utility.yul\":1829:1862   */\n      tag_148\n        /* \"#utility.yul\":1856:1861   */\n      dup2\n        /* \"#utility.yul\":1829:1862   */\n      tag_91\n      jump\t// in\n    tag_148:\n        /* \"#utility.yul\":1729:1868   */\n      swap3\n      swap2\n      pop\n      pop\n      jump\t// out\n        /* \"#utility.yul\":1874:2203   */\n    tag_16:\n        /* \"#utility.yul\":1933:1939   */\n      0x00\n        /* \"#utility.yul\":1982:1984   */\n      0x20\n        /* \"#utility.yul\":1970:1979   */\n      dup3\n        /* \"#utility.yul\":1961:1968   */\n      dup5\n        /* \"#utility.yul\":1957:1980   */\n      sub\n        /* \"#utility.yul\":1953:1985   */\n      slt\n        /* \"#utility.yul\":1950:2069   */\n      iszero\n      tag_150\n      jumpi\n        /* \"#utility.yul\":1988:2067   */\n      tag_151\n      tag_83\n      jump\t// in\n    tag_151:\n        /* \"#utility.yul\":1950:2069   */\n    tag_150:\n        /* \"#utility.yul\":2108:2109   */\n      0x00\n        /* \"#utility.yul\":2133:2186   */\n      tag_152\n        /* \"#utility.yul\":2178:2185   */\n      dup5\n        /* \"#utility.yul\":2169:2175   */\n      dup3\n        /* \"#utility.yul\":2158:2167   */\n      dup6\n        /* \"#utility.yul\":2154:2176   */\n      add\n        /* \"#utility.yul\":2133:2186   */\n      tag_92\n      jump\t// in\n    tag_152:\n        /* \"#utility.yul\":2123:2186   */\n      swap2\n      pop\n        /* \"#utility.yul\":2079:2196   */\n      pop\n        /* \"#utility.yul\":1874:2203   */\n      swap3\n      swap2\n      pop\n      pop\n      jump\t// out\n        /* \"#utility.yul\":2209:2335   */\n    tag_93:\n        /* \"#utility.yul\":2246:2253   */\n      0x00\n        /* \"#utility.yul\":2286:2328   */\n      0xffffffffffffffffffffffffffffffffffffffff\n        /* \"#utility.yul\":2279:2284   */\n      dup3\n        /* \"#utility.yul\":2275:2329   */\n      and\n        /* \"#utility.yul\":2264:2329   */\n      swap1\n      pop\n        /* \"#utility.yul\":2209:2335   */\n      swap2\n      swap1\n      pop\n      jump\t// out\n        /* \"#utility.yul\":2341:2437   */\n    tag_94:\n        /* \"#utility.yul\":2378:2385   */\n      0x00\n        /* \"#utility.yul\":2407:2431   */\n      tag_155\n        /* \"#utility.yul\":2425:2430   */\n      dup3\n        /* \"#utility.yul\":2407:2431   */\n      tag_93\n      jump\t// in\n    tag_155:\n        /* \"#utility.yul\":2396:2431   */\n      swap1\n      pop\n        /* \"#utility.yul\":2341:2437   */\n      swap2\n      swap1\n      pop\n      jump\t// out\n        /* \"#utility.yul\":2443:2561   */\n    tag_95:\n        /* \"#utility.yul\":2530:2554   */\n      tag_157\n        /* \"#utility.yul\":2548:2553   */\n      dup2\n        /* \"#utility.yul\":2530:2554   */\n      tag_94\n      jump\t// in\n    tag_157:\n        /* \"#utility.yul\":2525:2528   */\n      dup3\n        /* \"#utility.yul\":2518:2555   */\n      mstore\n        /* \"#utility.yul\":2443:2561   */\n      pop\n      pop\n      jump\t// out\n        /* \"#utility.yul\":2567:2789   */\n    tag_19:\n        /* \"#utility.yul\":2660:2664   */\n      0x00\n        /* \"#utility.yul\":2698:2700   */\n      0x20\n        /* \"#utility.yul\":2687:2696   */\n      dup3\n        /* \"#utility.yul\":2683:2701   */\n      add\n        /* \"#utility.yul\":2675:2701   */\n      swap1\n      pop\n        /* \"#utility.yul\":2711:2782   */\n      tag_159\n        /* \"#utility.yul\":2779:2780   */\n      0x00\n        /* \"#utility.yul\":2768:2777   */\n      dup4\n        /* \"#utility.yul\":2764:2781   */\n      add\n        /* \"#utility.yul\":2755:2761   */\n      dup5\n        /* \"#utility.yul\":2711:2782   */\n      tag_95\n      jump\t// in\n    tag_159:\n        /* \"#utility.yul\":2567:2789   */\n      swap3\n      swap2\n      pop\n      pop\n      jump\t// out\n        /* \"#utility.yul\":2795:2917   */\n    tag_96:\n        /* \"#utility.yul\":2868:2892   */\n      tag_161\n        /* \"#utility.yul\":2886:2891   */\n      dup2\n        /* \"#utility.yul\":2868:2892   */\n      tag_94\n      jump\t// in\n    tag_161:\n        /* \"#utility.yul\":2861:2866   */\n      dup2\n        /* \"#utility.yul\":2858:2893   */\n      eq\n        /* \"#utility.yul\":2848:2911   */\n      tag_162\n      jumpi\n        /* \"#utility.yul\":2907:2908   */\n      0x00\n        /* \"#utility.yul\":2904:2905   */\n      dup1\n        /* \"#utility.yul\":2897:2909   */\n      revert\n        /* \"#utility.yul\":2848:2911   */\n    tag_162:\n        /* \"#utility.yul\":2795:2917   */\n      pop\n      jump\t// out\n        /* \"#utility.yul\":2923:3062   */\n    tag_97:\n        /* \"#utility.yul\":2969:2974   */\n      0x00\n        /* \"#utility.yul\":3007:3013   */\n      dup2\n        /* \"#utility.yul\":2994:3014   */\n      calldataload\n        /* \"#utility.yul\":2985:3014   */\n      swap1\n      pop\n        /* \"#utility.yul\":3023:3056   */\n      tag_164\n        /* \"#utility.yul\":3050:3055   */\n      dup2\n        /* \"#utility.yul\":3023:3056   */\n      tag_96\n      jump\t// in\n    tag_164:\n        /* \"#utility.yul\":2923:3062   */\n      swap3\n      swap2\n      pop\n      pop\n      jump\t// out\n        /* \"#utility.yul\":3068:3185   */\n    tag_98:\n        /* \"#utility.yul\":3177:3178   */\n      0x00\n        /* \"#utility.yul\":3174:3175   */\n      dup1\n        /* \"#utility.yul\":3167:3179   */\n      revert\n        /* \"#utility.yul\":3191:3308   */\n    tag_99:\n        /* \"#utility.yul\":3300:3301   */\n      0x00\n        /* \"#utility.yul\":3297:3298   */\n      dup1\n        /* \"#utility.yul\":3290:3302   */\n      revert\n        /* \"#utility.yul\":3314:3416   */\n    tag_100:\n        /* \"#utility.yul\":3355:3361   */\n      0x00\n        /* \"#utility.yul\":3406:3408   */\n      0x1f\n        /* \"#utility.yul\":3402:3409   */\n      not\n        /* \"#utility.yul\":3397:3399   */\n      0x1f\n        /* \"#utility.yul\":3390:3395   */\n      dup4\n        /* \"#utility.yul\":3386:3400   */\n      add\n        /* \"#utility.yul\":3382:3410   */\n      and\n        /* \"#utility.yul\":3372:3410   */\n      swap1\n      pop\n        /* \"#utility.yul\":3314:3416   */\n      swap2\n      swap1\n      pop\n      jump\t// out\n        /* \"#utility.yul\":3422:3602   */\n    tag_101:\n        /* \"#utility.yul\":3470:3547   */\n      0x4e487b7100000000000000000000000000000000000000000000000000000000\n        /* \"#utility.yul\":3467:3468   */\n      0x00\n        /* \"#utility.yul\":3460:3548   */\n      mstore\n        /* \"#utility.yul\":3567:3571   */\n      0x41\n        /* \"#utility.yul\":3564:3565   */\n      0x04\n        /* \"#utility.yul\":3557:3572   */\n      mstore\n        /* \"#utility.yul\":3591:3595   */\n      0x24\n        /* \"#utility.yul\":3588:3589   */\n      0x00\n        /* \"#utility.yul\":3581:3596   */\n      revert\n        /* \"#utility.yul\":3608:3889   */\n    tag_102:\n        /* \"#utility.yul\":3691:3718   */\n      tag_170\n        /* \"#utility.yul\":3713:3717   */\n      dup3\n        /* \"#utility.yul\":3691:3718   */\n      tag_100\n      jump\t// in\n    tag_170:\n        /* \"#utility.yul\":3683:3689   */\n      dup2\n        /* \"#utility.yul\":3679:3719   */\n      add\n        /* \"#utility.yul\":3821:3827   */\n      dup2\n        /* \"#utility.yul\":3809:3819   */\n      dup2\n        /* \"#utility.yul\":3806:3828   */\n      lt\n        /* \"#utility.yul\":3785:3803   */\n      0xffffffffffffffff\n        /* \"#utility.yul\":3773:3783   */\n      dup3\n        /* \"#utility.yul\":3770:3804   */\n      gt\n        /* \"#utility.yul\":3767:3829   */\n      or\n        /* \"#utility.yul\":3764:3852   */\n      iszero\n      tag_171\n      jumpi\n        /* \"#utility.yul\":3832:3850   */\n      tag_172\n      tag_101\n      jump\t// in\n    tag_172:\n        /* \"#utility.yul\":3764:3852   */\n    tag_171:\n        /* \"#utility.yul\":3872:3882   */\n      dup1\n        /* \"#utility.yul\":3868:3870   */\n      0x40\n        /* \"#utility.yul\":3861:3883   */\n      mstore\n        /* \"#utility.yul\":3651:3889   */\n      pop\n        /* \"#utility.yul\":3608:3889   */\n      pop\n      pop\n      jump\t// out\n        /* \"#utility.yul\":3895:4024   */\n    tag_103:\n        /* \"#utility.yul\":3929:3935   */\n      0x00\n        /* \"#utility.yul\":3956:3976   */\n      tag_174\n      tag_82\n      jump\t// in\n    tag_174:\n        /* \"#utility.yul\":3946:3976   */\n      swap1\n      pop\n        /* \"#utility.yul\":3985:4018   */\n      tag_175\n        /* \"#utility.yul\":4013:4017   */\n      dup3\n        /* \"#utility.yul\":4005:4011   */\n      dup3\n        /* \"#utility.yul\":3985:4018   */\n      tag_102\n      jump\t// in\n    tag_175:\n        /* \"#utility.yul\":3895:4024   */\n      swap2\n      swap1\n      pop\n      jump\t// out\n        /* \"#utility.yul\":4030:4337   */\n    tag_104:\n        /* \"#utility.yul\":4091:4095   */\n      0x00\n        /* \"#utility.yul\":4181:4199   */\n      0xffffffffffffffff\n        /* \"#utility.yul\":4173:4179   */\n      dup3\n        /* \"#utility.yul\":4170:4200   */\n      gt\n        /* \"#utility.yul\":4167:4223   */\n      iszero\n      tag_177\n      jumpi\n        /* \"#utility.yul\":4203:4221   */\n      tag_178\n      tag_101\n      jump\t// in\n    tag_178:\n        /* \"#utility.yul\":4167:4223   */\n    tag_177:\n        /* \"#utility.yul\":4241:4270   */\n      tag_179\n        /* \"#utility.yul\":4263:4269   */\n      dup3\n        /* \"#utility.yul\":4241:4270   */\n      tag_100\n      jump\t// in\n    tag_179:\n        /* \"#utility.yul\":4233:4270   */\n      swap1\n      pop\n        /* \"#utility.yul\":4325:4329   */\n      0x20\n        /* \"#utility.yul\":4319:4323   */\n      dup2\n        /* \"#utility.yul\":4315:4330   */\n      add\n        /* \"#utility.yul\":4307:4330   */\n      swap1\n      pop\n        /* \"#utility.yul\":4030:4337   */\n      swap2\n      swap1\n      pop\n      jump\t// out\n        /* \"#utility.yul\":4343:4497   */\n    tag_105:\n        /* \"#utility.yul\":4427:4433   */\n      dup3\n        /* \"#utility.yul\":4422:4425   */\n      dup2\n        /* \"#utility.yul\":4417:4420   */\n      dup4\n        /* \"#utility.yul\":4404:4434   */\n      calldatacopy\n        /* \"#utility.yul\":4489:4490   */\n      0x00\n        /* \"#utility.yul\":4480:4486   */\n      dup4\n        /* \"#utility.yul\":4475:4478   */\n      dup4\n        /* \"#utility.yul\":4471:4487   */\n      add\n        /* \"#utility.yul\":4464:4491   */\n      mstore\n        /* \"#utility.yul\":4343:4497   */\n      pop\n      pop\n      pop\n      jump\t// out\n        /* \"#utility.yul\":4503:4913   */\n    tag_106:\n        /* \"#utility.yul\":4580:4585   */\n      0x00\n        /* \"#utility.yul\":4605:4670   */\n      tag_182\n        /* \"#utility.yul\":4621:4669   */\n      tag_183\n        /* \"#utility.yul\":4662:4668   */\n      dup5\n        /* \"#utility.yul\":4621:4669   */\n      tag_104\n      jump\t// in\n    tag_183:\n        /* \"#utility.yul\":4605:4670   */\n      tag_103\n      jump\t// in\n    tag_182:\n        /* \"#utility.yul\":4596:4670   */\n      swap1\n      pop\n        /* \"#utility.yul\":4693:4699   */\n      dup3\n        /* \"#utility.yul\":4686:4691   */\n      dup2\n        /* \"#utility.yul\":4679:4700   */\n      mstore\n        /* \"#utility.yul\":4731:4735   */\n      0x20\n        /* \"#utility.yul\":4724:4729   */\n      dup2\n        /* \"#utility.yul\":4720:4736   */\n      add\n        /* \"#utility.yul\":4769:4772   */\n      dup5\n        /* \"#utility.yul\":4760:4766   */\n      dup5\n        /* \"#utility.yul\":4755:4758   */\n      dup5\n        /* \"#utility.yul\":4751:4767   */\n      add\n        /* \"#utility.yul\":4748:4773   */\n      gt\n        /* \"#utility.yul\":4745:4857   */\n      iszero\n      tag_184\n      jumpi\n        /* \"#utility.yul\":4776:4855   */\n      tag_185\n      tag_99\n      jump\t// in\n    tag_185:\n        /* \"#utility.yul\":4745:4857   */\n    tag_184:\n        /* \"#utility.yul\":4866:4907   */\n      tag_186\n        /* \"#utility.yul\":4900:4906   */\n      dup5\n        /* \"#utility.yul\":4895:4898   */\n      dup3\n        /* \"#utility.yul\":4890:4893   */\n      dup6\n        /* \"#utility.yul\":4866:4907   */\n      tag_105\n      jump\t// in\n    tag_186:\n        /* \"#utility.yul\":4586:4913   */\n      pop\n        /* \"#utility.yul\":4503:4913   */\n      swap4\n      swap3\n      pop\n      pop\n      pop\n      jump\t// out\n        /* \"#utility.yul\":4932:5270   */\n    tag_107:\n        /* \"#utility.yul\":4987:4992   */\n      0x00\n        /* \"#utility.yul\":5036:5039   */\n      dup3\n        /* \"#utility.yul\":5029:5033   */\n      0x1f\n        /* \"#utility.yul\":5021:5027   */\n      dup4\n        /* \"#utility.yul\":5017:5034   */\n      add\n        /* \"#utility.yul\":5013:5040   */\n      slt\n        /* \"#utility.yul\":5003:5125   */\n      tag_188\n      jumpi\n        /* \"#utility.yul\":5044:5123   */\n      tag_189\n      tag_98\n      jump\t// in\n    tag_189:\n        /* \"#utility.yul\":5003:5125   */\n    tag_188:\n        /* \"#utility.yul\":5161:5167   */\n      dup2\n        /* \"#utility.yul\":5148:5168   */\n      calldataload\n        /* \"#utility.yul\":5186:5264   */\n      tag_190\n        /* \"#utility.yul\":5260:5263   */\n      dup5\n        /* \"#utility.yul\":5252:5258   */\n      dup3\n        /* \"#utility.yul\":5245:5249   */\n      0x20\n        /* \"#utility.yul\":5237:5243   */\n      dup7\n        /* \"#utility.yul\":5233:5250   */\n      add\n        /* \"#utility.yul\":5186:5264   */\n      tag_106\n      jump\t// in\n    tag_190:\n        /* \"#utility.yul\":5177:5264   */\n      swap2\n      pop\n        /* \"#utility.yul\":4993:5270   */\n      pop\n        /* \"#utility.yul\":4932:5270   */\n      swap3\n      swap2\n      pop\n      pop\n      jump\t// out\n        /* \"#utility.yul\":5276:6073   */\n    tag_22:\n        /* \"#utility.yul\":5362:5368   */\n      0x00\n        /* \"#utility.yul\":5370:5376   */\n      dup1\n        /* \"#utility.yul\":5378:5384   */\n      0x00\n        /* \"#utility.yul\":5427:5429   */\n      0x60\n        /* \"#utility.yul\":5415:5424   */\n      dup5\n        /* \"#utility.yul\":5406:5413   */\n      dup7\n        /* \"#utility.yul\":5402:5425   */\n      sub\n        /* \"#utility.yul\":5398:5430   */\n      slt\n        /* \"#utility.yul\":5395:5514   */\n      iszero\n      tag_192\n      jumpi\n        /* \"#utility.yul\":5433:5512   */\n      tag_193\n      tag_83\n      jump\t// in\n    tag_193:\n        /* \"#utility.yul\":5395:5514   */\n    tag_192:\n        /* \"#utility.yul\":5553:5554   */\n      0x00\n        /* \"#utility.yul\":5578:5631   */\n      tag_194\n        /* \"#utility.yul\":5623:5630   */\n      dup7\n        /* \"#utility.yul\":5614:5620   */\n      dup3\n        /* \"#utility.yul\":5603:5612   */\n      dup8\n        /* \"#utility.yul\":5599:5621   */\n      add\n        /* \"#utility.yul\":5578:5631   */\n      tag_97\n      jump\t// in\n    tag_194:\n        /* \"#utility.yul\":5568:5631   */\n      swap4\n      pop\n        /* \"#utility.yul\":5524:5641   */\n      pop\n        /* \"#utility.yul\":5680:5682   */\n      0x20\n        /* \"#utility.yul\":5706:5759   */\n      tag_195\n        /* \"#utility.yul\":5751:5758   */\n      dup7\n        /* \"#utility.yul\":5742:5748   */\n      dup3\n        /* \"#utility.yul\":5731:5740   */\n      dup8\n        /* \"#utility.yul\":5727:5749   */\n      add\n        /* \"#utility.yul\":5706:5759   */\n      tag_92\n      jump\t// in\n    tag_195:\n        /* \"#utility.yul\":5696:5759   */\n      swap3\n      pop\n        /* \"#utility.yul\":5651:5769   */\n      pop\n        /* \"#utility.yul\":5836:5838   */\n      0x40\n        /* \"#utility.yul\":5825:5834   */\n      dup5\n        /* \"#utility.yul\":5821:5839   */\n      add\n        /* \"#utility.yul\":5808:5840   */\n      calldataload\n        /* \"#utility.yul\":5867:5885   */\n      0xffffffffffffffff\n        /* \"#utility.yul\":5859:5865   */\n      dup2\n        /* \"#utility.yul\":5856:5886   */\n      gt\n        /* \"#utility.yul\":5853:5970   */\n      iszero\n      tag_196\n      jumpi\n        /* \"#utility.yul\":5889:5968   */\n      tag_197\n      tag_84\n      jump\t// in\n    tag_197:\n        /* \"#utility.yul\":5853:5970   */\n    tag_196:\n        /* \"#utility.yul\":5994:6056   */\n      tag_198\n        /* \"#utility.yul\":6048:6055   */\n      dup7\n        /* \"#utility.yul\":6039:6045   */\n      dup3\n        /* \"#utility.yul\":6028:6037   */\n      dup8\n        /* \"#utility.yul\":6024:6046   */\n      add\n        /* \"#utility.yul\":5994:6056   */\n      tag_107\n      jump\t// in\n    tag_198:\n        /* \"#utility.yul\":5984:6056   */\n      swap2\n      pop\n        /* \"#utility.yul\":5779:6066   */\n      pop\n        /* \"#utility.yul\":5276:6073   */\n      swap3\n      pop\n      swap3\n      pop\n      swap3\n      jump\t// out\n        /* \"#utility.yul\":6079:6408   */\n    tag_26:\n        /* \"#utility.yul\":6138:6144   */\n      0x00\n        /* \"#utility.yul\":6187:6189   */\n      0x20\n        /* \"#utility.yul\":6175:6184   */\n      dup3\n        /* \"#utility.yul\":6166:6173   */\n      dup5\n        /* \"#utility.yul\":6162:6185   */\n      sub\n        /* \"#utility.yul\":6158:6190   */\n      slt\n        /* \"#utility.yul\":6155:6274   */\n      iszero\n      tag_200\n      jumpi\n        /* \"#utility.yul\":6193:6272   */\n      tag_201\n      tag_83\n      jump\t// in\n    tag_201:\n        /* \"#utility.yul\":6155:6274   */\n    tag_200:\n        /* \"#utility.yul\":6313:6314   */\n      0x00\n        /* \"#utility.yul\":6338:6391   */\n      tag_202\n        /* \"#utility.yul\":6383:6390   */\n      dup5\n        /* \"#utility.yul\":6374:6380   */\n      dup3\n        /* \"#utility.yul\":6363:6372   */\n      dup6\n        /* \"#utility.yul\":6359:6381   */\n      add\n        /* \"#utility.yul\":6338:6391   */\n      tag_97\n      jump\t// in\n    tag_202:\n        /* \"#utility.yul\":6328:6391   */\n      swap2\n      pop\n        /* \"#utility.yul\":6284:6401   */\n      pop\n        /* \"#utility.yul\":6079:6408   */\n      swap3\n      swap2\n      pop\n      pop\n      jump\t// out\n        /* \"#utility.yul\":6414:6532   */\n    tag_108:\n        /* \"#utility.yul\":6501:6525   */\n      tag_204\n        /* \"#utility.yul\":6519:6524   */\n      dup2\n        /* \"#utility.yul\":6501:6525   */\n      tag_90\n      jump\t// in\n    tag_204:\n        /* \"#utility.yul\":6496:6499   */\n      dup3\n        /* \"#utility.yul\":6489:6526   */\n      mstore\n        /* \"#utility.yul\":6414:6532   */\n      pop\n      pop\n      jump\t// out\n        /* \"#utility.yul\":6538:6760   */\n    tag_29:\n        /* \"#utility.yul\":6631:6635   */\n      0x00\n        /* \"#utility.yul\":6669:6671   */\n      0x20\n        /* \"#utility.yul\":6658:6667   */\n      dup3\n        /* \"#utility.yul\":6654:6672   */\n      add\n        /* \"#utility.yul\":6646:6672   */\n      swap1\n      pop\n        /* \"#utility.yul\":6682:6753   */\n      tag_206\n        /* \"#utility.yul\":6750:6751   */\n      0x00\n        /* \"#utility.yul\":6739:6748   */\n      dup4\n        /* \"#utility.yul\":6735:6752   */\n      add\n        /* \"#utility.yul\":6726:6732   */\n      dup5\n        /* \"#utility.yul\":6682:6753   */\n      tag_108\n      jump\t// in\n    tag_206:\n        /* \"#utility.yul\":6538:6760   */\n      swap3\n      swap2\n      pop\n      pop\n      jump\t// out\n        /* \"#utility.yul\":6766:7240   */\n    tag_32:\n        /* \"#utility.yul\":6834:6840   */\n      0x00\n        /* \"#utility.yul\":6842:6848   */\n      dup1\n        /* \"#utility.yul\":6891:6893   */\n      0x40\n        /* \"#utility.yul\":6879:6888   */\n      dup4\n        /* \"#utility.yul\":6870:6877   */\n      dup6\n        /* \"#utility.yul\":6866:6889   */\n      sub\n        /* \"#utility.yul\":6862:6894   */\n      slt\n        /* \"#utility.yul\":6859:6978   */\n      iszero\n      tag_208\n      jumpi\n        /* \"#utility.yul\":6897:6976   */\n      tag_209\n      tag_83\n      jump\t// in\n    tag_209:\n        /* \"#utility.yul\":6859:6978   */\n    tag_208:\n        /* \"#utility.yul\":7017:7018   */\n      0x00\n        /* \"#utility.yul\":7042:7095   */\n      tag_210\n        /* \"#utility.yul\":7087:7094   */\n      dup6\n        /* \"#utility.yul\":7078:7084   */\n      dup3\n        /* \"#utility.yul\":7067:7076   */\n      dup7\n        /* \"#utility.yul\":7063:7085   */\n      add\n        /* \"#utility.yul\":7042:7095   */\n      tag_97\n      jump\t// in\n    tag_210:\n        /* \"#utility.yul\":7032:7095   */\n      swap3\n      pop\n        /* \"#utility.yul\":6988:7105   */\n      pop\n        /* \"#utility.yul\":7144:7146   */\n      0x20\n        /* \"#utility.yul\":7170:7223   */\n      tag_211\n        /* \"#utility.yul\":7215:7222   */\n      dup6\n        /* \"#utility.yul\":7206:7212   */\n      dup3\n        /* \"#utility.yul\":7195:7204   */\n      dup7\n        /* \"#utility.yul\":7191:7213   */\n      add\n        /* \"#utility.yul\":7170:7223   */\n      tag_92\n      jump\t// in\n    tag_211:\n        /* \"#utility.yul\":7160:7223   */\n      swap2\n      pop\n        /* \"#utility.yul\":7115:7233   */\n      pop\n        /* \"#utility.yul\":6766:7240   */\n      swap3\n      pop\n      swap3\n      swap1\n      pop\n      jump\t// out\n        /* \"#utility.yul\":7246:7415   */\n    tag_109:\n        /* \"#utility.yul\":7330:7341   */\n      0x00\n        /* \"#utility.yul\":7364:7370   */\n      dup3\n        /* \"#utility.yul\":7359:7362   */\n      dup3\n        /* \"#utility.yul\":7352:7371   */\n      mstore\n        /* \"#utility.yul\":7404:7408   */\n      0x20\n        /* \"#utility.yul\":7399:7402   */\n      dup3\n        /* \"#utility.yul\":7395:7409   */\n      add\n        /* \"#utility.yul\":7380:7409   */\n      swap1\n      pop\n        /* \"#utility.yul\":7246:7415   */\n      swap3\n      swap2\n      pop\n      pop\n      jump\t// out\n        /* \"#utility.yul\":7421:7594   */\n    tag_110:\n        /* \"#utility.yul\":7561:7586   */\n      0x546f6b656e20696420646f6573206e6f74206578697374000000000000000000\n        /* \"#utility.yul\":7557:7558   */\n      0x00\n        /* \"#utility.yul\":7549:7555   */\n      dup3\n        /* \"#utility.yul\":7545:7559   */\n      add\n        /* \"#utility.yul\":7538:7587   */\n      mstore\n        /* \"#utility.yul\":7421:7594   */\n      pop\n      jump\t// out\n        /* \"#utility.yul\":7600:7966   */\n    tag_111:\n        /* \"#utility.yul\":7742:7745   */\n      0x00\n        /* \"#utility.yul\":7763:7830   */\n      tag_215\n        /* \"#utility.yul\":7827:7829   */\n      0x17\n        /* \"#utility.yul\":7822:7825   */\n      dup4\n        /* \"#utility.yul\":7763:7830   */\n      tag_109\n      jump\t// in\n    tag_215:\n        /* \"#utility.yul\":7756:7830   */\n      swap2\n      pop\n        /* \"#utility.yul\":7839:7932   */\n      tag_216\n        /* \"#utility.yul\":7928:7931   */\n      dup3\n        /* \"#utility.yul\":7839:7932   */\n      tag_110\n      jump\t// in\n    tag_216:\n        /* \"#utility.yul\":7957:7959   */\n      0x20\n        /* \"#utility.yul\":7952:7955   */\n      dup3\n        /* \"#utility.yul\":7948:7960   */\n      add\n        /* \"#utility.yul\":7941:7960   */\n      swap1\n      pop\n        /* \"#utility.yul\":7600:7966   */\n      swap2\n      swap1\n      pop\n      jump\t// out\n        /* \"#utility.yul\":7972:8391   */\n    tag_38:\n        /* \"#utility.yul\":8138:8142   */\n      0x00\n        /* \"#utility.yul\":8176:8178   */\n      0x20\n        /* \"#utility.yul\":8165:8174   */\n      dup3\n        /* \"#utility.yul\":8161:8179   */\n      add\n        /* \"#utility.yul\":8153:8179   */\n      swap1\n      pop\n        /* \"#utility.yul\":8225:8234   */\n      dup2\n        /* \"#utility.yul\":8219:8223   */\n      dup2\n        /* \"#utility.yul\":8215:8235   */\n      sub\n        /* \"#utility.yul\":8211:8212   */\n      0x00\n        /* \"#utility.yul\":8200:8209   */\n      dup4\n        /* \"#utility.yul\":8196:8213   */\n      add\n        /* \"#utility.yul\":8189:8236   */\n      mstore\n        /* \"#utility.yul\":8253:8384   */\n      tag_218\n        /* \"#utility.yul\":8379:8383   */\n      dup2\n        /* \"#utility.yul\":8253:8384   */\n      tag_111\n      jump\t// in\n    tag_218:\n        /* \"#utility.yul\":8245:8384   */\n      swap1\n      pop\n        /* \"#utility.yul\":7972:8391   */\n      swap2\n      swap1\n      pop\n      jump\t// out\n        /* \"#utility.yul\":8397:8622   */\n    tag_112:\n        /* \"#utility.yul\":8537:8571   */\n      0x455243373231204552524f523a206d696e7420746f20746865207a65726f2061\n        /* \"#utility.yul\":8533:8534   */\n      0x00\n        /* \"#utility.yul\":8525:8531   */\n      dup3\n        /* \"#utility.yul\":8521:8535   */\n      add\n        /* \"#utility.yul\":8514:8572   */\n      mstore\n        /* \"#utility.yul\":8606:8614   */\n      0x6464726573730000000000000000000000000000000000000000000000000000\n        /* \"#utility.yul\":8601:8603   */\n      0x20\n        /* \"#utility.yul\":8593:8599   */\n      dup3\n        /* \"#utility.yul\":8589:8604   */\n      add\n        /* \"#utility.yul\":8582:8615   */\n      mstore\n        /* \"#utility.yul\":8397:8622   */\n      pop\n      jump\t// out\n        /* \"#utility.yul\":8628:8994   */\n    tag_113:\n        /* \"#utility.yul\":8770:8773   */\n      0x00\n        /* \"#utility.yul\":8791:8858   */\n      tag_221\n        /* \"#utility.yul\":8855:8857   */\n      0x26\n        /* \"#utility.yul\":8850:8853   */\n      dup4\n        /* \"#utility.yul\":8791:8858   */\n      tag_109\n      jump\t// in\n    tag_221:\n        /* \"#utility.yul\":8784:8858   */\n      swap2\n      pop\n        /* \"#utility.yul\":8867:8960   */\n      tag_222\n        /* \"#utility.yul\":8956:8959   */\n      dup3\n        /* \"#utility.yul\":8867:8960   */\n      tag_112\n      jump\t// in\n    tag_222:\n        /* \"#utility.yul\":8985:8987   */\n      0x40\n        /* \"#utility.yul\":8980:8983   */\n      dup3\n        /* \"#utility.yul\":8976:8988   */\n      add\n        /* \"#utility.yul\":8969:8988   */\n      swap1\n      pop\n        /* \"#utility.yul\":8628:8994   */\n      swap2\n      swap1\n      pop\n      jump\t// out\n        /* \"#utility.yul\":9000:9419   */\n    tag_51:\n        /* \"#utility.yul\":9166:9170   */\n      0x00\n        /* \"#utility.yul\":9204:9206   */\n      0x20\n        /* \"#utility.yul\":9193:9202   */\n      dup3\n        /* \"#utility.yul\":9189:9207   */\n      add\n        /* \"#utility.yul\":9181:9207   */\n      swap1\n      pop\n        /* \"#utility.yul\":9253:9262   */\n      dup2\n        /* \"#utility.yul\":9247:9251   */\n      dup2\n        /* \"#utility.yul\":9243:9263   */\n      sub\n        /* \"#utility.yul\":9239:9240   */\n      0x00\n        /* \"#utility.yul\":9228:9237   */\n      dup4\n        /* \"#utility.yul\":9224:9241   */\n      add\n        /* \"#utility.yul\":9217:9264   */\n      mstore\n        /* \"#utility.yul\":9281:9412   */\n      tag_224\n        /* \"#utility.yul\":9407:9411   */\n      dup2\n        /* \"#utility.yul\":9281:9412   */\n      tag_113\n      jump\t// in\n    tag_224:\n        /* \"#utility.yul\":9273:9412   */\n      swap1\n      pop\n        /* \"#utility.yul\":9000:9419   */\n      swap2\n      swap1\n      pop\n      jump\t// out\n        /* \"#utility.yul\":9425:9646   */\n    tag_114:\n        /* \"#utility.yul\":9565:9599   */\n      0x455243373231204552524f523a20546f6b656e20616c7265616479206d696e74\n        /* \"#utility.yul\":9561:9562   */\n      0x00\n        /* \"#utility.yul\":9553:9559   */\n      dup3\n        /* \"#utility.yul\":9549:9563   */\n      add\n        /* \"#utility.yul\":9542:9600   */\n      mstore\n        /* \"#utility.yul\":9634:9638   */\n      0x6564000000000000000000000000000000000000000000000000000000000000\n        /* \"#utility.yul\":9629:9631   */\n      0x20\n        /* \"#utility.yul\":9621:9627   */\n      dup3\n        /* \"#utility.yul\":9617:9632   */\n      add\n        /* \"#utility.yul\":9610:9639   */\n      mstore\n        /* \"#utility.yul\":9425:9646   */\n      pop\n      jump\t// out\n        /* \"#utility.yul\":9652:10018   */\n    tag_115:\n        /* \"#utility.yul\":9794:9797   */\n      0x00\n        /* \"#utility.yul\":9815:9882   */\n      tag_227\n        /* \"#utility.yul\":9879:9881   */\n      0x22\n        /* \"#utility.yul\":9874:9877   */\n      dup4\n        /* \"#utility.yul\":9815:9882   */\n      tag_109\n      jump\t// in\n    tag_227:\n        /* \"#utility.yul\":9808:9882   */\n      swap2\n      pop\n        /* \"#utility.yul\":9891:9984   */\n      tag_228\n        /* \"#utility.yul\":9980:9983   */\n      dup3\n        /* \"#utility.yul\":9891:9984   */\n      tag_114\n      jump\t// in\n    tag_228:\n        /* \"#utility.yul\":10009:10011   */\n      0x40\n        /* \"#utility.yul\":10004:10007   */\n      dup3\n        /* \"#utility.yul\":10000:10012   */\n      add\n        /* \"#utility.yul\":9993:10012   */\n      swap1\n      pop\n        /* \"#utility.yul\":9652:10018   */\n      swap2\n      swap1\n      pop\n      jump\t// out\n        /* \"#utility.yul\":10024:10443   */\n    tag_56:\n        /* \"#utility.yul\":10190:10194   */\n      0x00\n        /* \"#utility.yul\":10228:10230   */\n      0x20\n        /* \"#utility.yul\":10217:10226   */\n      dup3\n        /* \"#utility.yul\":10213:10231   */\n      add\n        /* \"#utility.yul\":10205:10231   */\n      swap1\n      pop\n        /* \"#utility.yul\":10277:10286   */\n      dup2\n        /* \"#utility.yul\":10271:10275   */\n      dup2\n        /* \"#utility.yul\":10267:10287   */\n      sub\n        /* \"#utility.yul\":10263:10264   */\n      0x00\n        /* \"#utility.yul\":10252:10261   */\n      dup4\n        /* \"#utility.yul\":10248:10265   */\n      add\n        /* \"#utility.yul\":10241:10288   */\n      mstore\n        /* \"#utility.yul\":10305:10436   */\n      tag_230\n        /* \"#utility.yul\":10431:10435   */\n      dup2\n        /* \"#utility.yul\":10305:10436   */\n      tag_115\n      jump\t// in\n    tag_230:\n        /* \"#utility.yul\":10297:10436   */\n      swap1\n      pop\n        /* \"#utility.yul\":10024:10443   */\n      swap2\n      swap1\n      pop\n      jump\t// out\n        /* \"#utility.yul\":10449:10629   */\n    tag_116:\n        /* \"#utility.yul\":10497:10574   */\n      0x4e487b7100000000000000000000000000000000000000000000000000000000\n        /* \"#utility.yul\":10494:10495   */\n      0x00\n        /* \"#utility.yul\":10487:10575   */\n      mstore\n        /* \"#utility.yul\":10594:10598   */\n      0x11\n        /* \"#utility.yul\":10591:10592   */\n      0x04\n        /* \"#utility.yul\":10584:10599   */\n      mstore\n        /* \"#utility.yul\":10618:10622   */\n      0x24\n        /* \"#utility.yul\":10615:10616   */\n      0x00\n        /* \"#utility.yul\":10608:10623   */\n      revert\n        /* \"#utility.yul\":10635:10940   */\n    tag_58:\n        /* \"#utility.yul\":10675:10678   */\n      0x00\n        /* \"#utility.yul\":10694:10714   */\n      tag_233\n        /* \"#utility.yul\":10712:10713   */\n      dup3\n        /* \"#utility.yul\":10694:10714   */\n      tag_90\n      jump\t// in\n    tag_233:\n        /* \"#utility.yul\":10689:10714   */\n      swap2\n      pop\n        /* \"#utility.yul\":10728:10748   */\n      tag_234\n        /* \"#utility.yul\":10746:10747   */\n      dup4\n        /* \"#utility.yul\":10728:10748   */\n      tag_90\n      jump\t// in\n    tag_234:\n        /* \"#utility.yul\":10723:10748   */\n      swap3\n      pop\n        /* \"#utility.yul\":10882:10883   */\n      dup3\n        /* \"#utility.yul\":10814:10880   */\n      0xffffffffffffffffffffffffffffffffffffffffffffffffffffffffffffffff\n        /* \"#utility.yul\":10810:10884   */\n      sub\n        /* \"#utility.yul\":10807:10808   */\n      dup3\n        /* \"#utility.yul\":10804:10885   */\n      gt\n        /* \"#utility.yul\":10801:10908   */\n      iszero\n      tag_235\n      jumpi\n        /* \"#utility.yul\":10888:10906   */\n      tag_236\n      tag_116\n      jump\t// in\n    tag_236:\n        /* \"#utility.yul\":10801:10908   */\n    tag_235:\n        /* \"#utility.yul\":10932:10933   */\n      dup3\n        /* \"#utility.yul\":10929:10930   */\n      dup3\n        /* \"#utility.yul\":10925:10934   */\n      add\n        /* \"#utility.yul\":10918:10934   */\n      swap1\n      pop\n        /* \"#utility.yul\":10635:10940   */\n      swap3\n      swap2\n      pop\n      pop\n      jump\t// out\n        /* \"#utility.yul\":10946:11044   */\n    tag_117:\n        /* \"#utility.yul\":10997:11003   */\n      0x00\n        /* \"#utility.yul\":11031:11036   */\n      dup2\n        /* \"#utility.yul\":11025:11037   */\n      mload\n        /* \"#utility.yul\":11015:11037   */\n      swap1\n      pop\n        /* \"#utility.yul\":10946:11044   */\n      swap2\n      swap1\n      pop\n      jump\t// out\n        /* \"#utility.yul\":11050:11218   */\n    tag_118:\n        /* \"#utility.yul\":11133:11144   */\n      0x00\n        /* \"#utility.yul\":11167:11173   */\n      dup3\n        /* \"#utility.yul\":11162:11165   */\n      dup3\n        /* \"#utility.yul\":11155:11174   */\n      mstore\n        /* \"#utility.yul\":11207:11211   */\n      0x20\n        /* \"#utility.yul\":11202:11205   */\n      dup3\n        /* \"#utility.yul\":11198:11212   */\n      add\n        /* \"#utility.yul\":11183:11212   */\n      swap1\n      pop\n        /* \"#utility.yul\":11050:11218   */\n      swap3\n      swap2\n      pop\n      pop\n      jump\t// out\n        /* \"#utility.yul\":11224:11531   */\n    tag_119:\n        /* \"#utility.yul\":11292:11293   */\n      0x00\n        /* \"#utility.yul\":11302:11415   */\n    tag_240:\n        /* \"#utility.yul\":11316:11322   */\n      dup4\n        /* \"#utility.yul\":11313:11314   */\n      dup2\n        /* \"#utility.yul\":11310:11323   */\n      lt\n        /* \"#utility.yul\":11302:11415   */\n      iszero\n      tag_242\n      jumpi\n        /* \"#utility.yul\":11401:11402   */\n      dup1\n        /* \"#utility.yul\":11396:11399   */\n      dup3\n        /* \"#utility.yul\":11392:11403   */\n      add\n        /* \"#utility.yul\":11386:11404   */\n      mload\n        /* \"#utility.yul\":11382:11383   */\n      dup2\n        /* \"#utility.yul\":11377:11380   */\n      dup5\n        /* \"#utility.yul\":11373:11384   */\n      add\n        /* \"#utility.yul\":11366:11405   */\n      mstore\n        /* \"#utility.yul\":11338:11340   */\n      0x20\n        /* \"#utility.yul\":11335:11336   */\n      dup2\n        /* \"#utility.yul\":11331:11341   */\n      add\n        /* \"#utility.yul\":11326:11341   */\n      swap1\n      pop\n        /* \"#utility.yul\":11302:11415   */\n      jump(tag_240)\n    tag_242:\n        /* \"#utility.yul\":11433:11439   */\n      dup4\n        /* \"#utility.yul\":11430:11431   */\n      dup2\n        /* \"#utility.yul\":11427:11440   */\n      gt\n        /* \"#utility.yul\":11424:11525   */\n      iszero\n      tag_243\n      jumpi\n        /* \"#utility.yul\":11513:11514   */\n      0x00\n        /* \"#utility.yul\":11504:11510   */\n      dup5\n        /* \"#utility.yul\":11499:11502   */\n      dup5\n        /* \"#utility.yul\":11495:11511   */\n      add\n        /* \"#utility.yul\":11488:11515   */\n      mstore\n        /* \"#utility.yul\":11424:11525   */\n    tag_243:\n        /* \"#utility.yul\":11273:11531   */\n      pop\n        /* \"#utility.yul\":11224:11531   */\n      pop\n      pop\n      pop\n      jump\t// out\n        /* \"#utility.yul\":11537:11897   */\n    tag_120:\n        /* \"#utility.yul\":11623:11626   */\n      0x00\n        /* \"#utility.yul\":11651:11689   */\n      tag_245\n        /* \"#utility.yul\":11683:11688   */\n      dup3\n        /* \"#utility.yul\":11651:11689   */\n      tag_117\n      jump\t// in\n    tag_245:\n        /* \"#utility.yul\":11705:11775   */\n      tag_246\n        /* \"#utility.yul\":11768:11774   */\n      dup2\n        /* \"#utility.yul\":11763:11766   */\n      dup6\n        /* \"#utility.yul\":11705:11775   */\n      tag_118\n      jump\t// in\n    tag_246:\n        /* \"#utility.yul\":11698:11775   */\n      swap4\n      pop\n        /* \"#utility.yul\":11784:11836   */\n      tag_247\n        /* \"#utility.yul\":11829:11835   */\n      dup2\n        /* \"#utility.yul\":11824:11827   */\n      dup6\n        /* \"#utility.yul\":11817:11821   */\n      0x20\n        /* \"#utility.yul\":11810:11815   */\n      dup7\n        /* \"#utility.yul\":11806:11822   */\n      add\n        /* \"#utility.yul\":11784:11836   */\n      tag_119\n      jump\t// in\n    tag_247:\n        /* \"#utility.yul\":11861:11890   */\n      tag_248\n        /* \"#utility.yul\":11883:11889   */\n      dup2\n        /* \"#utility.yul\":11861:11890   */\n      tag_100\n      jump\t// in\n    tag_248:\n        /* \"#utility.yul\":11856:11859   */\n      dup5\n        /* \"#utility.yul\":11852:11891   */\n      add\n        /* \"#utility.yul\":11845:11891   */\n      swap2\n      pop\n        /* \"#utility.yul\":11627:11897   */\n      pop\n        /* \"#utility.yul\":11537:11897   */\n      swap3\n      swap2\n      pop\n      pop\n      jump\t// out\n        /* \"#utility.yul\":11903:12543   */\n    tag_64:\n        /* \"#utility.yul\":12098:12102   */\n      0x00\n        /* \"#utility.yul\":12136:12139   */\n      0x80\n        /* \"#utility.yul\":12125:12134   */\n      dup3\n        /* \"#utility.yul\":12121:12140   */\n      add\n        /* \"#utility.yul\":12113:12140   */\n      swap1\n      pop\n        /* \"#utility.yul\":12150:12221   */\n      tag_250\n        /* \"#utility.yul\":12218:12219   */\n      0x00\n        /* \"#utility.yul\":12207:12216   */\n      dup4\n        /* \"#utility.yul\":12203:12220   */\n      add\n        /* \"#utility.yul\":12194:12200   */\n      dup8\n        /* \"#utility.yul\":12150:12221   */\n      tag_95\n      jump\t// in\n    tag_250:\n        /* \"#utility.yul\":12231:12303   */\n      tag_251\n        /* \"#utility.yul\":12299:12301   */\n      0x20\n        /* \"#utility.yul\":12288:12297   */\n      dup4\n        /* \"#utility.yul\":12284:12302   */\n      add\n        /* \"#utility.yul\":12275:12281   */\n      dup7\n        /* \"#utility.yul\":12231:12303   */\n      tag_95\n      jump\t// in\n    tag_251:\n        /* \"#utility.yul\":12313:12385   */\n      tag_252\n        /* \"#utility.yul\":12381:12383   */\n      0x40\n        /* \"#utility.yul\":12370:12379   */\n      dup4\n        /* \"#utility.yul\":12366:12384   */\n      add\n        /* \"#utility.yul\":12357:12363   */\n      dup6\n        /* \"#utility.yul\":12313:12385   */\n      tag_108\n      jump\t// in\n    tag_252:\n        /* \"#utility.yul\":12432:12441   */\n      dup2\n        /* \"#utility.yul\":12426:12430   */\n      dup2\n        /* \"#utility.yul\":12422:12442   */\n      sub\n        /* \"#utility.yul\":12417:12419   */\n      0x60\n        /* \"#utility.yul\":12406:12415   */\n      dup4\n        /* \"#utility.yul\":12402:12420   */\n      add\n        /* \"#utility.yul\":12395:12443   */\n      mstore\n        /* \"#utility.yul\":12460:12536   */\n      tag_253\n        /* \"#utility.yul\":12531:12535   */\n      dup2\n        /* \"#utility.yul\":12522:12528   */\n      dup5\n        /* \"#utility.yul\":12460:12536   */\n      tag_120\n      jump\t// in\n    tag_253:\n        /* \"#utility.yul\":12452:12536   */\n      swap1\n      pop\n        /* \"#utility.yul\":11903:12543   */\n      swap6\n      swap5\n      pop\n      pop\n      pop\n      pop\n      pop\n      jump\t// out\n        /* \"#utility.yul\":12549:12690   */\n    tag_121:\n        /* \"#utility.yul\":12605:12610   */\n      0x00\n        /* \"#utility.yul\":12636:12642   */\n      dup2\n        /* \"#utility.yul\":12630:12643   */\n      mload\n        /* \"#utility.yul\":12621:12643   */\n      swap1\n      pop\n        /* \"#utility.yul\":12652:12684   */\n      tag_255\n        /* \"#utility.yul\":12678:12683   */\n      dup2\n        /* \"#utility.yul\":12652:12684   */\n      tag_86\n      jump\t// in\n    tag_255:\n        /* \"#utility.yul\":12549:12690   */\n      swap3\n      swap2\n      pop\n      pop\n      jump\t// out\n        /* \"#utility.yul\":12696:13045   */\n    tag_67:\n        /* \"#utility.yul\":12765:12771   */\n      0x00\n        /* \"#utility.yul\":12814:12816   */\n      0x20\n        /* \"#utility.yul\":12802:12811   */\n      dup3\n        /* \"#utility.yul\":12793:12800   */\n      dup5\n        /* \"#utility.yul\":12789:12812   */\n      sub\n        /* \"#utility.yul\":12785:12817   */\n      slt\n        /* \"#utility.yul\":12782:12901   */\n      iszero\n      tag_257\n      jumpi\n        /* \"#utility.yul\":12820:12899   */\n      tag_258\n      tag_83\n      jump\t// in\n    tag_258:\n        /* \"#utility.yul\":12782:12901   */\n    tag_257:\n        /* \"#utility.yul\":12940:12941   */\n      0x00\n        /* \"#utility.yul\":12965:13028   */\n      tag_259\n        /* \"#utility.yul\":13020:13027   */\n      dup5\n        /* \"#utility.yul\":13011:13017   */\n      dup3\n        /* \"#utility.yul\":13000:13009   */\n      dup6\n        /* \"#utility.yul\":12996:13018   */\n      add\n        /* \"#utility.yul\":12965:13028   */\n      tag_121\n      jump\t// in\n    tag_259:\n        /* \"#utility.yul\":12955:13028   */\n      swap2\n      pop\n        /* \"#utility.yul\":12911:13038   */\n      pop\n        /* \"#utility.yul\":12696:13045   */\n      swap3\n      swap2\n      pop\n      pop\n      jump\t// out\n        /* \"#utility.yul\":13051:13288   */\n    tag_122:\n        /* \"#utility.yul\":13191:13225   */\n      0x4552433732313a207472616e7366657220746f206e6f6e204552433732315265\n        /* \"#utility.yul\":13187:13188   */\n      0x00\n        /* \"#utility.yul\":13179:13185   */\n      dup3\n        /* \"#utility.yul\":13175:13189   */\n      add\n        /* \"#utility.yul\":13168:13226   */\n      mstore\n        /* \"#utility.yul\":13260:13280   */\n      0x63656976657220696d706c656d656e7465720000000000000000000000000000\n        /* \"#utility.yul\":13255:13257   */\n      0x20\n        /* \"#utility.yul\":13247:13253   */\n      dup3\n        /* \"#utility.yul\":13243:13258   */\n      add\n        /* \"#utility.yul\":13236:13281   */\n      mstore\n        /* \"#utility.yul\":13051:13288   */\n      pop\n      jump\t// out\n        /* \"#utility.yul\":13294:13660   */\n    tag_123:\n        /* \"#utility.yul\":13436:13439   */\n      0x00\n        /* \"#utility.yul\":13457:13524   */\n      tag_262\n        /* \"#utility.yul\":13521:13523   */\n      0x32\n        /* \"#utility.yul\":13516:13519   */\n      dup4\n        /* \"#utility.yul\":13457:13524   */\n      tag_109\n      jump\t// in\n    tag_262:\n        /* \"#utility.yul\":13450:13524   */\n      swap2\n      pop\n        /* \"#utility.yul\":13533:13626   */\n      tag_263\n        /* \"#utility.yul\":13622:13625   */\n      dup3\n        /* \"#utility.yul\":13533:13626   */\n      tag_122\n      jump\t// in\n    tag_263:\n        /* \"#utility.yul\":13651:13653   */\n      0x40\n        /* \"#utility.yul\":13646:13649   */\n      dup3\n        /* \"#utility.yul\":13642:13654   */\n      add\n        /* \"#utility.yul\":13635:13654   */\n      swap1\n      pop\n        /* \"#utility.yul\":13294:13660   */\n      swap2\n      swap1\n      pop\n      jump\t// out\n        /* \"#utility.yul\":13666:14085   */\n    tag_76:\n        /* \"#utility.yul\":13832:13836   */\n      0x00\n        /* \"#utility.yul\":13870:13872   */\n      0x20\n        /* \"#utility.yul\":13859:13868   */\n      dup3\n        /* \"#utility.yul\":13855:13873   */\n      add\n        /* \"#utility.yul\":13847:13873   */\n      swap1\n      pop\n        /* \"#utility.yul\":13919:13928   */\n      dup2\n        /* \"#utility.yul\":13913:13917   */\n      dup2\n        /* \"#utility.yul\":13909:13929   */\n      sub\n        /* \"#utility.yul\":13905:13906   */\n      0x00\n        /* \"#utility.yul\":13894:13903   */\n      dup4\n        /* \"#utility.yul\":13890:13907   */\n      add\n        /* \"#utility.yul\":13883:13930   */\n      mstore\n        /* \"#utility.yul\":13947:14078   */\n      tag_265\n        /* \"#utility.yul\":14073:14077   */\n      dup2\n        /* \"#utility.yul\":13947:14078   */\n      tag_123\n      jump\t// in\n    tag_265:\n        /* \"#utility.yul\":13939:14078   */\n      swap1\n      pop\n        /* \"#utility.yul\":13666:14085   */\n      swap2\n      swap1\n      pop\n      jump\t// out\n\n    auxdata: 0xa2646970667358221220a2e0d0e91926c0cd82786a0f15f099e32d1768dbe04325f6fbe7ad7d5360679a64736f6c634300080d0033\n}\n","bytecode":{"linkReferences":{},"object":"608060405234801561001057600080fd5b50610e81806100206000396000f3fe608060405234801561001057600080fd5b50600436106100575760003560e01c806301ffc9a71461005c5780636352211e1461008c5780636a4f832b146100bc57806370a08231146100d8578063b3e1c71814610108575b600080fd5b610076600480360381019061007191906106e3565b610124565b604051610083919061072b565b60405180910390f35b6100a660048036038101906100a1919061077c565b61018e565b6040516100b391906107ea565b60405180910390f35b6100d660048036038101906100d19190610977565b61023e565b005b6100f260048036038101906100ed91906109e6565b610263565b6040516100ff9190610a22565b60405180910390f35b610122600480360381019061011d9190610a3d565b6102ac565b005b60007f01ffc9a7000000000000000000000000000000000000000000000000000000007bffffffffffffffffffffffffffffffffffffffffffffffffffffffff1916827bffffffffffffffffffffffffffffffffffffffffffffffffffffffff1916149050919050565b60008060008084815260200190815260200160002060009054906101000a900473ffffffffffffffffffffffffffffffffffffffff169050600073ffffffffffffffffffffffffffffffffffffffff168173ffffffffffffffffffffffffffffffffffffffff1603610235576040517f08c379a000000000000000000000000000000000000000000000000000000000815260040161022c90610ada565b60405180910390fd5b80915050919050565b61024883836102ca565b6102556000848484610489565b61025e57600080fd5b505050565b6000600160008373ffffffffffffffffffffffffffffffffffffffff1673ffffffffffffffffffffffffffffffffffffffff168152602001908152602001600020549050919050565b6102c682826040518060200160405280600081525061023e565b5050565b600073ffffffffffffffffffffffffffffffffffffffff168273ffffffffffffffffffffffffffffffffffffffff1603610339576040517f08c379a000000000000000000000000000000000000000000000000000000000815260040161033090610b6c565b60405180910390fd5b610342816105f3565b15610382576040517f08c379a000000000000000000000000000000000000000000000000000000000815260040161037990610bfe565b60405180910390fd5b60018060008473ffffffffffffffffffffffffffffffffffffffff1673ffffffffffffffffffffffffffffffffffffffff16815260200190815260200160002060008282546103d19190610c4d565b925050819055508160008083815260200190815260200160002060006101000a81548173ffffffffffffffffffffffffffffffffffffffff021916908373ffffffffffffffffffffffffffffffffffffffff160217905550808273ffffffffffffffffffffffffffffffffffffffff16600073ffffffffffffffffffffffffffffffffffffffff167fddf252ad1be2c89b69c2b068fc378daa952ba7f163c4a11628f55a4df523b3ef60405160405180910390a45050565b60006104948461065e565b156105e6578373ffffffffffffffffffffffffffffffffffffffff1663150b7a02338786866040518563ffffffff1660e01b81526004016104d89493929190610d2b565b6020604051808303816000875af192505050801561051457506040513d601f19601f820116820180604052508101906105119190610d8c565b60015b610596573d8060008114610544576040519150601f19603f3d011682016040523d82523d6000602084013e610549565b606091505b50600081510361058e576040517f08c379a000000000000000000000000000000000000000000000000000000000815260040161058590610e2b565b60405180910390fd5b805181602001fd5b63150b7a0260e01b7bffffffffffffffffffffffffffffffffffffffffffffffffffffffff1916817bffffffffffffffffffffffffffffffffffffffffffffffffffffffff1916149150506105eb565b600190505b949350505050565b60008073ffffffffffffffffffffffffffffffffffffffff1660008084815260200190815260200160002060009054906101000a900473ffffffffffffffffffffffffffffffffffffffff1673ffffffffffffffffffffffffffffffffffffffff1614159050919050565b600080823b905060008163ffffffff1611915050919050565b6000604051905090565b600080fd5b600080fd5b60007fffffffff0000000000000000000000000000000000000000000000000000000082169050919050565b6106c08161068b565b81146106cb57600080fd5b50565b6000813590506106dd816106b7565b92915050565b6000602082840312156106f9576106f8610681565b5b6000610707848285016106ce565b91505092915050565b60008115159050919050565b61072581610710565b82525050565b6000602082019050610740600083018461071c565b92915050565b6000819050919050565b61075981610746565b811461076457600080fd5b50565b60008135905061077681610750565b92915050565b60006020828403121561079257610791610681565b5b60006107a084828501610767565b91505092915050565b600073ffffffffffffffffffffffffffffffffffffffff82169050919050565b60006107d4826107a9565b9050919050565b6107e4816107c9565b82525050565b60006020820190506107ff60008301846107db565b92915050565b61080e816107c9565b811461081957600080fd5b50565b60008135905061082b81610805565b92915050565b600080fd5b600080fd5b6000601f19601f8301169050919050565b7f4e487b7100000000000000000000000000000000000000000000000000000000600052604160045260246000fd5b6108848261083b565b810181811067ffffffffffffffff821117156108a3576108a261084c565b5b80604052505050565b60006108b6610677565b90506108c2828261087b565b919050565b600067ffffffffffffffff8211156108e2576108e161084c565b5b6108eb8261083b565b9050602081019050919050565b82818337600083830152505050565b600061091a610915846108c7565b6108ac565b90508281526020810184848401111561093657610935610836565b5b6109418482856108f8565b509392505050565b600082601f83011261095e5761095d610831565b5b813561096e848260208601610907565b91505092915050565b6000806000606084860312156109905761098f610681565b5b600061099e8682870161081c565b93505060206109af86828701610767565b925050604084013567ffffffffffffffff8111156109d0576109cf610686565b5b6109dc86828701610949565b9150509250925092565b6000602082840312156109fc576109fb610681565b5b6000610a0a8482850161081c565b91505092915050565b610a1c81610746565b82525050565b6000602082019050610a376000830184610a13565b92915050565b60008060408385031215610a5457610a53610681565b5b6000610a628582860161081c565b9250506020610a7385828601610767565b9150509250929050565b600082825260208201905092915050565b7f546f6b656e20696420646f6573206e6f74206578697374000000000000000000600082015250565b6000610ac4601783610a7d565b9150610acf82610a8e565b602082019050919050565b60006020820190508181036000830152610af381610ab7565b9050919050565b7f455243373231204552524f523a206d696e7420746f20746865207a65726f206160008201527f6464726573730000000000000000000000000000000000000000000000000000602082015250565b6000610b56602683610a7d565b9150610b6182610afa565b604082019050919050565b60006020820190508181036000830152610b8581610b49565b9050919050565b7f455243373231204552524f523a20546f6b656e20616c7265616479206d696e7460008201527f6564000000000000000000000000000000000000000000000000000000000000602082015250565b6000610be8602283610a7d565b9150610bf382610b8c565b604082019050919050565b60006020820190508181036000830152610c1781610bdb565b9050919050565b7f4e487b7100000000000000000000000000000000000000000000000000000000600052601160045260246000fd5b6000610c5882610746565b9150610c6383610746565b9250827fffffffffffffffffffffffffffffffffffffffffffffffffffffffffffffffff03821115610c9857610c97610c1e565b5b828201905092915050565b600081519050919050565b600082825260208201905092915050565b60005b83811015610cdd578082015181840152602081019050610cc2565b83811115610cec576000848401525b50505050565b6000610cfd82610ca3565b610d078185610cae565b9350610d17818560208601610cbf565b610d208161083b565b840191505092915050565b6000608082019050610d4060008301876107db565b610d4d60208301866107db565b610d5a6040830185610a13565b8181036060830152610d6c8184610cf2565b905095945050505050565b600081519050610d86816106b7565b92915050565b600060208284031215610da257610da1610681565b5b6000610db084828501610d77565b91505092915050565b7f4552433732313a207472616e7366657220746f206e6f6e20455243373231526560008201527f63656976657220696d706c656d656e7465720000000000000000000000000000602082015250565b6000610e15603283610a7d565b9150610e2082610db9565b604082019050919050565b60006020820190508181036000830152610e4481610e08565b905091905056fea2646970667358221220a2e0d0e91926c0cd82786a0f15f099e32d1768dbe04325f6fbe7ad7d5360679a64736f6c634300080d0033","opcodes":"PUSH1 0x80 PUSH1 0x40 MSTORE CALLVALUE DUP1 ISZERO PUSH2 0x10 JUMPI PUSH1 0x0 DUP1 REVERT JUMPDEST POP PUSH2 0xE81 DUP1 PUSH2 0x20 PUSH1 0x0 CODECOPY PUSH1 0x0 RETURN INVALID PUSH1 0x80 PUSH1 0x40 MSTORE CALLVALUE DUP1 ISZERO PUSH2 0x10 JUMPI PUSH1 0x0 DUP1 REVERT JUMPDEST POP PUSH1 0x4 CALLDATASIZE LT PUSH2 0x57 JUMPI PUSH1 0x0 CALLDATALOAD PUSH1 0xE0 SHR DUP1 PUSH4 0x1FFC9A7 EQ PUSH2 0x5C JUMPI DUP1 PUSH4 0x6352211E EQ PUSH2 0x8C JUMPI DUP1 PUSH4 0x6A4F832B EQ PUSH2 0xBC JUMPI DUP1 PUSH4 0x70A08231 EQ PUSH2 0xD8 JUMPI DUP1 PUSH4 0xB3E1C718 EQ PUSH2 0x108 JUMPI JUMPDEST PUSH1 0x0 DUP1 REVERT JUMPDEST PUSH2 0x76 PUSH1 0x4 DUP1 CALLDATASIZE SUB DUP2 ADD SWAP1 PUSH2 0x71 SWAP2 SWAP1 PUSH2 0x6E3 JUMP JUMPDEST PUSH2 0x124 JUMP JUMPDEST PUSH1 0x40 MLOAD PUSH2 0x83 SWAP2 SWAP1 PUSH2 0x72B JUMP JUMPDEST PUSH1 0x40 MLOAD DUP1 SWAP2 SUB SWAP1 RETURN JUMPDEST PUSH2 0xA6 PUSH1 0x4 DUP1 CALLDATASIZE SUB DUP2 ADD SWAP1 PUSH2 0xA1 SWAP2 SWAP1 PUSH2 0x77C JUMP JUMPDEST PUSH2 0x18E JUMP JUMPDEST PUSH1 0x40 MLOAD PUSH2 0xB3 SWAP2 SWAP1 PUSH2 0x7EA JUMP JUMPDEST PUSH1 0x40 MLOAD DUP1 SWAP2 SUB SWAP1 RETURN JUMPDEST PUSH2 0xD6 PUSH1 0x4 DUP1 CALLDATASIZE SUB DUP2 ADD SWAP1 PUSH2 0xD1 SWAP2 SWAP1 PUSH2 0x977 JUMP JUMPDEST PUSH2 0x23E JUMP JUMPDEST STOP JUMPDEST PUSH2 0xF2 PUSH1 0x4 DUP1 CALLDATASIZE SUB DUP2 ADD SWAP1 PUSH2 0xED SWAP2 SWAP1 PUSH2 0x9E6 JUMP JUMPDEST PUSH2 0x263 JUMP JUMPDEST PUSH1 0x40 MLOAD PUSH2 0xFF SWAP2 SWAP1 PUSH2 0xA22 JUMP JUMPDEST PUSH1 0x40 MLOAD DUP1 SWAP2 SUB SWAP1 RETURN JUMPDEST PUSH2 0x122 PUSH1 0x4 DUP1 CALLDATASIZE SUB DUP2 ADD SWAP1 PUSH2 0x11D SWAP2 SWAP1 PUSH2 0xA3D JUMP JUMPDEST PUSH2 0x2AC JUMP JUMPDEST STOP JUMPDEST PUSH1 0x0 PUSH32 0x1FFC9A700000000000000000000000000000000000000000000000000000000 PUSH28 0xFFFFFFFFFFFFFFFFFFFFFFFFFFFFFFFFFFFFFFFFFFFFFFFFFFFFFFFF NOT AND DUP3 PUSH28 0xFFFFFFFFFFFFFFFFFFFFFFFFFFFFFFFFFFFFFFFFFFFFFFFFFFFFFFFF NOT AND EQ SWAP1 POP SWAP2 SWAP1 POP JUMP JUMPDEST PUSH1 0x0 DUP1 PUSH1 0x0 DUP1 DUP5 DUP2 MSTORE PUSH1 0x20 ADD SWAP1 DUP2 MSTORE PUSH1 0x20 ADD PUSH1 0x0 KECCAK256 PUSH1 0x0 SWAP1 SLOAD SWAP1 PUSH2 0x100 EXP SWAP1 DIV PUSH20 0xFFFFFFFFFFFFFFFFFFFFFFFFFFFFFFFFFFFFFFFF AND SWAP1 POP PUSH1 0x0 PUSH20 0xFFFFFFFFFFFFFFFFFFFFFFFFFFFFFFFFFFFFFFFF AND DUP2 PUSH20 0xFFFFFFFFFFFFFFFFFFFFFFFFFFFFFFFFFFFFFFFF AND SUB PUSH2 0x235 JUMPI PUSH1 0x40 MLOAD PUSH32 0x8C379A000000000000000000000000000000000000000000000000000000000 DUP2 MSTORE PUSH1 0x4 ADD PUSH2 0x22C SWAP1 PUSH2 0xADA JUMP JUMPDEST PUSH1 0x40 MLOAD DUP1 SWAP2 SUB SWAP1 REVERT JUMPDEST DUP1 SWAP2 POP POP SWAP2 SWAP1 POP JUMP JUMPDEST PUSH2 0x248 DUP4 DUP4 PUSH2 0x2CA JUMP JUMPDEST PUSH2 0x255 PUSH1 0x0 DUP5 DUP5 DUP5 PUSH2 0x489 JUMP JUMPDEST PUSH2 0x25E JUMPI PUSH1 0x0 DUP1 REVERT JUMPDEST POP POP POP JUMP JUMPDEST PUSH1 0x0 PUSH1 0x1 PUSH1 0x0 DUP4 PUSH20 0xFFFFFFFFFFFFFFFFFFFFFFFFFFFFFFFFFFFFFFFF AND PUSH20 0xFFFFFFFFFFFFFFFFFFFFFFFFFFFFFFFFFFFFFFFF AND DUP2 MSTORE PUSH1 0x20 ADD SWAP1 DUP2 MSTORE PUSH1 0x20 ADD PUSH1 0x0 KECCAK256 SLOAD SWAP1 POP SWAP2 SWAP1 POP JUMP JUMPDEST PUSH2 0x2C6 DUP3 DUP3 PUSH1 0x40 MLOAD DUP1 PUSH1 0x20 ADD PUSH1 0x40 MSTORE DUP1 PUSH1 0x0 DUP2 MSTORE POP PUSH2 0x23E JUMP JUMPDEST POP POP JUMP JUMPDEST PUSH1 0x0 PUSH20 0xFFFFFFFFFFFFFFFFFFFFFFFFFFFFFFFFFFFFFFFF AND DUP3 PUSH20 0xFFFFFFFFFFFFFFFFFFFFFFFFFFFFFFFFFFFFFFFF AND SUB PUSH2 0x339 JUMPI PUSH1 0x40 MLOAD PUSH32 0x8C379A000000000000000000000000000000000000000000000000000000000 DUP2 MSTORE PUSH1 0x4 ADD PUSH2 0x330 SWAP1 PUSH2 0xB6C JUMP JUMPDEST PUSH1 0x40 MLOAD DUP1 SWAP2 SUB SWAP1 REVERT JUMPDEST PUSH2 0x342 DUP2 PUSH2 0x5F3 JUMP JUMPDEST ISZERO PUSH2 0x382 JUMPI PUSH1 0x40 MLOAD PUSH32 0x8C379A000000000000000000000000000000000000000000000000000000000 DUP2 MSTORE PUSH1 0x4 ADD PUSH2 0x379 SWAP1 PUSH2 0xBFE JUMP JUMPDEST PUSH1 0x40 MLOAD DUP1 SWAP2 SUB SWAP1 REVERT JUMPDEST PUSH1 0x1 DUP1 PUSH1 0x0 DUP5 PUSH20 0xFFFFFFFFFFFFFFFFFFFFFFFFFFFFFFFFFFFFFFFF AND PUSH20 0xFFFFFFFFFFFFFFFFFFFFFFFFFFFFFFFFFFFFFFFF AND DUP2 MSTORE PUSH1 0x20 ADD SWAP1 DUP2 MSTORE PUSH1 0x20 ADD PUSH1 0x0 KECCAK256 PUSH1 0x0 DUP3 DUP3 SLOAD PUSH2 0x3D1 SWAP2 SWAP1 PUSH2 0xC4D JUMP JUMPDEST SWAP3 POP POP DUP2 SWAP1 SSTORE POP DUP2 PUSH1 0x0 DUP1 DUP4 DUP2 MSTORE PUSH1 0x20 ADD SWAP1 DUP2 MSTORE PUSH1 0x20 ADD PUSH1 0x0 KECCAK256 PUSH1 0x0 PUSH2 0x100 EXP DUP2 SLOAD DUP2 PUSH20 0xFFFFFFFFFFFFFFFFFFFFFFFFFFFFFFFFFFFFFFFF MUL NOT AND SWAP1 DUP4 PUSH20 0xFFFFFFFFFFFFFFFFFFFFFFFFFFFFFFFFFFFFFFFF AND MUL OR SWAP1 SSTORE POP DUP1 DUP3 PUSH20 0xFFFFFFFFFFFFFFFFFFFFFFFFFFFFFFFFFFFFFFFF AND PUSH1 0x0 PUSH20 0xFFFFFFFFFFFFFFFFFFFFFFFFFFFFFFFFFFFFFFFF AND PUSH32 0xDDF252AD1BE2C89B69C2B068FC378DAA952BA7F163C4A11628F55A4DF523B3EF PUSH1 0x40 MLOAD PUSH1 0x40 MLOAD DUP1 SWAP2 SUB SWAP1 LOG4 POP POP JUMP JUMPDEST PUSH1 0x0 PUSH2 0x494 DUP5 PUSH2 0x65E JUMP JUMPDEST ISZERO PUSH2 0x5E6 JUMPI DUP4 PUSH20 0xFFFFFFFFFFFFFFFFFFFFFFFFFFFFFFFFFFFFFFFF AND PUSH4 0x150B7A02 CALLER DUP8 DUP7 DUP7 PUSH1 0x40 MLOAD DUP6 PUSH4 0xFFFFFFFF AND PUSH1 0xE0 SHL DUP2 MSTORE PUSH1 0x4 ADD PUSH2 0x4D8 SWAP5 SWAP4 SWAP3 SWAP2 SWAP1 PUSH2 0xD2B JUMP JUMPDEST PUSH1 0x20 PUSH1 0x40 MLOAD DUP1 DUP4 SUB DUP2 PUSH1 0x0 DUP8 GAS CALL SWAP3 POP POP POP DUP1 ISZERO PUSH2 0x514 JUMPI POP PUSH1 0x40 MLOAD RETURNDATASIZE PUSH1 0x1F NOT PUSH1 0x1F DUP3 ADD AND DUP3 ADD DUP1 PUSH1 0x40 MSTORE POP DUP2 ADD SWAP1 PUSH2 0x511 SWAP2 SWAP1 PUSH2 0xD8C JUMP JUMPDEST PUSH1 0x1 JUMPDEST PUSH2 0x596 JUMPI RETURNDATASIZE DUP1 PUSH1 0x0 DUP2 EQ PUSH2 0x544 JUMPI PUSH1 0x40 MLOAD SWAP2 POP PUSH1 0x1F NOT PUSH1 0x3F RETURNDATASIZE ADD AND DUP3 ADD PUSH1 0x40 MSTORE RETURNDATASIZE DUP3 MSTORE RETURNDATASIZE PUSH1 0x0 PUSH1 0x20 DUP5 ADD RETURNDATACOPY PUSH2 0x549 JUMP JUMPDEST PUSH1 0x60 SWAP2 POP JUMPDEST POP PUSH1 0x0 DUP2 MLOAD SUB PUSH2 0x58E JUMPI PUSH1 0x40 MLOAD PUSH32 0x8C379A000000000000000000000000000000000000000000000000000000000 DUP2 MSTORE PUSH1 0x4 ADD PUSH2 0x585 SWAP1 PUSH2 0xE2B JUMP JUMPDEST PUSH1 0x40 MLOAD DUP1 SWAP2 SUB SWAP1 REVERT JUMPDEST DUP1 MLOAD DUP2 PUSH1 0x20 ADD REVERT JUMPDEST PUSH4 0x150B7A02 PUSH1 0xE0 SHL PUSH28 0xFFFFFFFFFFFFFFFFFFFFFFFFFFFFFFFFFFFFFFFFFFFFFFFFFFFFFFFF NOT AND DUP2 PUSH28 0xFFFFFFFFFFFFFFFFFFFFFFFFFFFFFFFFFFFFFFFFFFFFFFFFFFFFFFFF NOT AND EQ SWAP2 POP POP PUSH2 0x5EB JUMP JUMPDEST PUSH1 0x1 SWAP1 POP JUMPDEST SWAP5 SWAP4 POP POP POP POP JUMP JUMPDEST PUSH1 0x0 DUP1 PUSH20 0xFFFFFFFFFFFFFFFFFFFFFFFFFFFFFFFFFFFFFFFF AND PUSH1 0x0 DUP1 DUP5 DUP2 MSTORE PUSH1 0x20 ADD SWAP1 DUP2 MSTORE PUSH1 0x20 ADD PUSH1 0x0 KECCAK256 PUSH1 0x0 SWAP1 SLOAD SWAP1 PUSH2 0x100 EXP SWAP1 DIV PUSH20 0xFFFFFFFFFFFFFFFFFFFFFFFFFFFFFFFFFFFFFFFF AND PUSH20 0xFFFFFFFFFFFFFFFFFFFFFFFFFFFFFFFFFFFFFFFF AND EQ ISZERO SWAP1 POP SWAP2 SWAP1 POP JUMP JUMPDEST PUSH1 0x0 DUP1 DUP3 EXTCODESIZE SWAP1 POP PUSH1 0x0 DUP2 PUSH4 0xFFFFFFFF AND GT SWAP2 POP POP SWAP2 SWAP1 POP JUMP JUMPDEST PUSH1 0x0 PUSH1 0x40 MLOAD SWAP1 POP SWAP1 JUMP JUMPDEST PUSH1 0x0 DUP1 REVERT JUMPDEST PUSH1 0x0 DUP1 REVERT JUMPDEST PUSH1 0x0 PUSH32 0xFFFFFFFF00000000000000000000000000000000000000000000000000000000 DUP3 AND SWAP1 POP SWAP2 SWAP1 POP JUMP JUMPDEST PUSH2 0x6C0 DUP2 PUSH2 0x68B JUMP JUMPDEST DUP2 EQ PUSH2 0x6CB JUMPI PUSH1 0x0 DUP1 REVERT JUMPDEST POP JUMP JUMPDEST PUSH1 0x0 DUP2 CALLDATALOAD SWAP1 POP PUSH2 0x6DD DUP2 PUSH2 0x6B7 JUMP JUMPDEST SWAP3 SWAP2 POP POP JUMP JUMPDEST PUSH1 0x0 PUSH1 0x20 DUP3 DUP5 SUB SLT ISZERO PUSH2 0x6F9 JUMPI PUSH2 0x6F8 PUSH2 0x681 JUMP JUMPDEST JUMPDEST PUSH1 0x0 PUSH2 0x707 DUP5 DUP3 DUP6 ADD PUSH2 0x6CE JUMP JUMPDEST SWAP2 POP POP SWAP3 SWAP2 POP POP JUMP JUMPDEST PUSH1 0x0 DUP2 ISZERO ISZERO SWAP1 POP SWAP2 SWAP1 POP JUMP JUMPDEST PUSH2 0x725 DUP2 PUSH2 0x710 JUMP JUMPDEST DUP3 MSTORE POP POP JUMP JUMPDEST PUSH1 0x0 PUSH1 0x20 DUP3 ADD SWAP1 POP PUSH2 0x740 PUSH1 0x0 DUP4 ADD DUP5 PUSH2 0x71C JUMP JUMPDEST SWAP3 SWAP2 POP POP JUMP JUMPDEST PUSH1 0x0 DUP2 SWAP1 POP SWAP2 SWAP1 POP JUMP JUMPDEST PUSH2 0x759 DUP2 PUSH2 0x746 JUMP JUMPDEST DUP2 EQ PUSH2 0x764 JUMPI PUSH1 0x0 DUP1 REVERT JUMPDEST POP JUMP JUMPDEST PUSH1 0x0 DUP2 CALLDATALOAD SWAP1 POP PUSH2 0x776 DUP2 PUSH2 0x750 JUMP JUMPDEST SWAP3 SWAP2 POP POP JUMP JUMPDEST PUSH1 0x0 PUSH1 0x20 DUP3 DUP5 SUB SLT ISZERO PUSH2 0x792 JUMPI PUSH2 0x791 PUSH2 0x681 JUMP JUMPDEST JUMPDEST PUSH1 0x0 PUSH2 0x7A0 DUP5 DUP3 DUP6 ADD PUSH2 0x767 JUMP JUMPDEST SWAP2 POP POP SWAP3 SWAP2 POP POP JUMP JUMPDEST PUSH1 0x0 PUSH20 0xFFFFFFFFFFFFFFFFFFFFFFFFFFFFFFFFFFFFFFFF DUP3 AND SWAP1 POP SWAP2 SWAP1 POP JUMP JUMPDEST PUSH1 0x0 PUSH2 0x7D4 DUP3 PUSH2 0x7A9 JUMP JUMPDEST SWAP1 POP SWAP2 SWAP1 POP JUMP JUMPDEST PUSH2 0x7E4 DUP2 PUSH2 0x7C9 JUMP JUMPDEST DUP3 MSTORE POP POP JUMP JUMPDEST PUSH1 0x0 PUSH1 0x20 DUP3 ADD SWAP1 POP PUSH2 0x7FF PUSH1 0x0 DUP4 ADD DUP5 PUSH2 0x7DB JUMP JUMPDEST SWAP3 SWAP2 POP POP JUMP JUMPDEST PUSH2 0x80E DUP2 PUSH2 0x7C9 JUMP JUMPDEST DUP2 EQ PUSH2 0x819 JUMPI PUSH1 0x0 DUP1 REVERT JUMPDEST POP JUMP JUMPDEST PUSH1 0x0 DUP2 CALLDATALOAD SWAP1 POP PUSH2 0x82B DUP2 PUSH2 0x805 JUMP JUMPDEST SWAP3 SWAP2 POP POP JUMP JUMPDEST PUSH1 0x0 DUP1 REVERT JUMPDEST PUSH1 0x0 DUP1 REVERT JUMPDEST PUSH1 0x0 PUSH1 0x1F NOT PUSH1 0x1F DUP4 ADD AND SWAP1 POP SWAP2 SWAP1 POP JUMP JUMPDEST PUSH32 0x4E487B7100000000000000000000000000000000000000000000000000000000 PUSH1 0x0 MSTORE PUSH1 0x41 PUSH1 0x4 MSTORE PUSH1 0x24 PUSH1 0x0 REVERT JUMPDEST PUSH2 0x884 DUP3 PUSH2 0x83B JUMP JUMPDEST DUP2 ADD DUP2 DUP2 LT PUSH8 0xFFFFFFFFFFFFFFFF DUP3 GT OR ISZERO PUSH2 0x8A3 JUMPI PUSH2 0x8A2 PUSH2 0x84C JUMP JUMPDEST JUMPDEST DUP1 PUSH1 0x40 MSTORE POP POP POP JUMP JUMPDEST PUSH1 0x0 PUSH2 0x8B6 PUSH2 0x677 JUMP JUMPDEST SWAP1 POP PUSH2 0x8C2 DUP3 DUP3 PUSH2 0x87B JUMP JUMPDEST SWAP2 SWAP1 POP JUMP JUMPDEST PUSH1 0x0 PUSH8 0xFFFFFFFFFFFFFFFF DUP3 GT ISZERO PUSH2 0x8E2 JUMPI PUSH2 0x8E1 PUSH2 0x84C JUMP JUMPDEST JUMPDEST PUSH2 0x8EB DUP3 PUSH2 0x83B JUMP JUMPDEST SWAP1 POP PUSH1 0x20 DUP2 ADD SWAP1 POP SWAP2 SWAP1 POP JUMP JUMPDEST DUP3 DUP2 DUP4 CALLDATACOPY PUSH1 0x0 DUP4 DUP4 ADD MSTORE POP POP POP JUMP JUMPDEST PUSH1 0x0 PUSH2 0x91A PUSH2 0x915 DUP5 PUSH2 0x8C7 JUMP JUMPDEST PUSH2 0x8AC JUMP JUMPDEST SWAP1 POP DUP3 DUP2 MSTORE PUSH1 0x20 DUP2 ADD DUP5 DUP5 DUP5 ADD GT ISZERO PUSH2 0x936 JUMPI PUSH2 0x935 PUSH2 0x836 JUMP JUMPDEST JUMPDEST PUSH2 0x941 DUP5 DUP3 DUP6 PUSH2 0x8F8 JUMP JUMPDEST POP SWAP4 SWAP3 POP POP POP JUMP JUMPDEST PUSH1 0x0 DUP3 PUSH1 0x1F DUP4 ADD SLT PUSH2 0x95E JUMPI PUSH2 0x95D PUSH2 0x831 JUMP JUMPDEST JUMPDEST DUP2 CALLDATALOAD PUSH2 0x96E DUP5 DUP3 PUSH1 0x20 DUP7 ADD PUSH2 0x907 JUMP JUMPDEST SWAP2 POP POP SWAP3 SWAP2 POP POP JUMP JUMPDEST PUSH1 0x0 DUP1 PUSH1 0x0 PUSH1 0x60 DUP5 DUP7 SUB SLT ISZERO PUSH2 0x990 JUMPI PUSH2 0x98F PUSH2 0x681 JUMP JUMPDEST JUMPDEST PUSH1 0x0 PUSH2 0x99E DUP7 DUP3 DUP8 ADD PUSH2 0x81C JUMP JUMPDEST SWAP4 POP POP PUSH1 0x20 PUSH2 0x9AF DUP7 DUP3 DUP8 ADD PUSH2 0x767 JUMP JUMPDEST SWAP3 POP POP PUSH1 0x40 DUP5 ADD CALLDATALOAD PUSH8 0xFFFFFFFFFFFFFFFF DUP2 GT ISZERO PUSH2 0x9D0 JUMPI PUSH2 0x9CF PUSH2 0x686 JUMP JUMPDEST JUMPDEST PUSH2 0x9DC DUP7 DUP3 DUP8 ADD PUSH2 0x949 JUMP JUMPDEST SWAP2 POP POP SWAP3 POP SWAP3 POP SWAP3 JUMP JUMPDEST PUSH1 0x0 PUSH1 0x20 DUP3 DUP5 SUB SLT ISZERO PUSH2 0x9FC JUMPI PUSH2 0x9FB PUSH2 0x681 JUMP JUMPDEST JUMPDEST PUSH1 0x0 PUSH2 0xA0A DUP5 DUP3 DUP6 ADD PUSH2 0x81C JUMP JUMPDEST SWAP2 POP POP SWAP3 SWAP2 POP POP JUMP JUMPDEST PUSH2 0xA1C DUP2 PUSH2 0x746 JUMP JUMPDEST DUP3 MSTORE POP POP JUMP JUMPDEST PUSH1 0x0 PUSH1 0x20 DUP3 ADD SWAP1 POP PUSH2 0xA37 PUSH1 0x0 DUP4 ADD DUP5 PUSH2 0xA13 JUMP JUMPDEST SWAP3 SWAP2 POP POP JUMP JUMPDEST PUSH1 0x0 DUP1 PUSH1 0x40 DUP4 DUP6 SUB SLT ISZERO PUSH2 0xA54 JUMPI PUSH2 0xA53 PUSH2 0x681 JUMP JUMPDEST JUMPDEST PUSH1 0x0 PUSH2 0xA62 DUP6 DUP3 DUP7 ADD PUSH2 0x81C JUMP JUMPDEST SWAP3 POP POP PUSH1 0x20 PUSH2 0xA73 DUP6 DUP3 DUP7 ADD PUSH2 0x767 JUMP JUMPDEST SWAP2 POP POP SWAP3 POP SWAP3 SWAP1 POP JUMP JUMPDEST PUSH1 0x0 DUP3 DUP3 MSTORE PUSH1 0x20 DUP3 ADD SWAP1 POP SWAP3 SWAP2 POP POP JUMP JUMPDEST PUSH32 0x546F6B656E20696420646F6573206E6F74206578697374000000000000000000 PUSH1 0x0 DUP3 ADD MSTORE POP JUMP JUMPDEST PUSH1 0x0 PUSH2 0xAC4 PUSH1 0x17 DUP4 PUSH2 0xA7D JUMP JUMPDEST SWAP2 POP PUSH2 0xACF DUP3 PUSH2 0xA8E JUMP JUMPDEST PUSH1 0x20 DUP3 ADD SWAP1 POP SWAP2 SWAP1 POP JUMP JUMPDEST PUSH1 0x0 PUSH1 0x20 DUP3 ADD SWAP1 POP DUP2 DUP2 SUB PUSH1 0x0 DUP4 ADD MSTORE PUSH2 0xAF3 DUP2 PUSH2 0xAB7 JUMP JUMPDEST SWAP1 POP SWAP2 SWAP1 POP JUMP JUMPDEST PUSH32 0x455243373231204552524F523A206D696E7420746F20746865207A65726F2061 PUSH1 0x0 DUP3 ADD MSTORE PUSH32 0x6464726573730000000000000000000000000000000000000000000000000000 PUSH1 0x20 DUP3 ADD MSTORE POP JUMP JUMPDEST PUSH1 0x0 PUSH2 0xB56 PUSH1 0x26 DUP4 PUSH2 0xA7D JUMP JUMPDEST SWAP2 POP PUSH2 0xB61 DUP3 PUSH2 0xAFA JUMP JUMPDEST PUSH1 0x40 DUP3 ADD SWAP1 POP SWAP2 SWAP1 POP JUMP JUMPDEST PUSH1 0x0 PUSH1 0x20 DUP3 ADD SWAP1 POP DUP2 DUP2 SUB PUSH1 0x0 DUP4 ADD MSTORE PUSH2 0xB85 DUP2 PUSH2 0xB49 JUMP JUMPDEST SWAP1 POP SWAP2 SWAP1 POP JUMP JUMPDEST PUSH32 0x455243373231204552524F523A20546F6B656E20616C7265616479206D696E74 PUSH1 0x0 DUP3 ADD MSTORE PUSH32 0x6564000000000000000000000000000000000000000000000000000000000000 PUSH1 0x20 DUP3 ADD MSTORE POP JUMP JUMPDEST PUSH1 0x0 PUSH2 0xBE8 PUSH1 0x22 DUP4 PUSH2 0xA7D JUMP JUMPDEST SWAP2 POP PUSH2 0xBF3 DUP3 PUSH2 0xB8C JUMP JUMPDEST PUSH1 0x40 DUP3 ADD SWAP1 POP SWAP2 SWAP1 POP JUMP JUMPDEST PUSH1 0x0 PUSH1 0x20 DUP3 ADD SWAP1 POP DUP2 DUP2 SUB PUSH1 0x0 DUP4 ADD MSTORE PUSH2 0xC17 DUP2 PUSH2 0xBDB JUMP JUMPDEST SWAP1 POP SWAP2 SWAP1 POP JUMP JUMPDEST PUSH32 0x4E487B7100000000000000000000000000000000000000000000000000000000 PUSH1 0x0 MSTORE PUSH1 0x11 PUSH1 0x4 MSTORE PUSH1 0x24 PUSH1 0x0 REVERT JUMPDEST PUSH1 0x0 PUSH2 0xC58 DUP3 PUSH2 0x746 JUMP JUMPDEST SWAP2 POP PUSH2 0xC63 DUP4 PUSH2 0x746 JUMP JUMPDEST SWAP3 POP DUP3 PUSH32 0xFFFFFFFFFFFFFFFFFFFFFFFFFFFFFFFFFFFFFFFFFFFFFFFFFFFFFFFFFFFFFFFF SUB DUP3 GT ISZERO PUSH2 0xC98 JUMPI PUSH2 0xC97 PUSH2 0xC1E JUMP JUMPDEST JUMPDEST DUP3 DUP3 ADD SWAP1 POP SWAP3 SWAP2 POP POP JUMP JUMPDEST PUSH1 0x0 DUP2 MLOAD SWAP1 POP SWAP2 SWAP1 POP JUMP JUMPDEST PUSH1 0x0 DUP3 DUP3 MSTORE PUSH1 0x20 DUP3 ADD SWAP1 POP SWAP3 SWAP2 POP POP JUMP JUMPDEST PUSH1 0x0 JUMPDEST DUP4 DUP2 LT ISZERO PUSH2 0xCDD JUMPI DUP1 DUP3 ADD MLOAD DUP2 DUP5 ADD MSTORE PUSH1 0x20 DUP2 ADD SWAP1 POP PUSH2 0xCC2 JUMP JUMPDEST DUP4 DUP2 GT ISZERO PUSH2 0xCEC JUMPI PUSH1 0x0 DUP5 DUP5 ADD MSTORE JUMPDEST POP POP POP POP JUMP JUMPDEST PUSH1 0x0 PUSH2 0xCFD DUP3 PUSH2 0xCA3 JUMP JUMPDEST PUSH2 0xD07 DUP2 DUP6 PUSH2 0xCAE JUMP JUMPDEST SWAP4 POP PUSH2 0xD17 DUP2 DUP6 PUSH1 0x20 DUP7 ADD PUSH2 0xCBF JUMP JUMPDEST PUSH2 0xD20 DUP2 PUSH2 0x83B JUMP JUMPDEST DUP5 ADD SWAP2 POP POP SWAP3 SWAP2 POP POP JUMP JUMPDEST PUSH1 0x0 PUSH1 0x80 DUP3 ADD SWAP1 POP PUSH2 0xD40 PUSH1 0x0 DUP4 ADD DUP8 PUSH2 0x7DB JUMP JUMPDEST PUSH2 0xD4D PUSH1 0x20 DUP4 ADD DUP7 PUSH2 0x7DB JUMP JUMPDEST PUSH2 0xD5A PUSH1 0x40 DUP4 ADD DUP6 PUSH2 0xA13 JUMP JUMPDEST DUP2 DUP2 SUB PUSH1 0x60 DUP4 ADD MSTORE PUSH2 0xD6C DUP2 DUP5 PUSH2 0xCF2 JUMP JUMPDEST SWAP1 POP SWAP6 SWAP5 POP POP POP POP POP JUMP JUMPDEST PUSH1 0x0 DUP2 MLOAD SWAP1 POP PUSH2 0xD86 DUP2 PUSH2 0x6B7 JUMP JUMPDEST SWAP3 SWAP2 POP POP JUMP JUMPDEST PUSH1 0x0 PUSH1 0x20 DUP3 DUP5 SUB SLT ISZERO PUSH2 0xDA2 JUMPI PUSH2 0xDA1 PUSH2 0x681 JUMP JUMPDEST JUMPDEST PUSH1 0x0 PUSH2 0xDB0 DUP5 DUP3 DUP6 ADD PUSH2 0xD77 JUMP JUMPDEST SWAP2 POP POP SWAP3 SWAP2 POP POP JUMP JUMPDEST PUSH32 0x4552433732313A207472616E7366657220746F206E6F6E204552433732315265 PUSH1 0x0 DUP3 ADD MSTORE PUSH32 0x63656976657220696D706C656D656E7465720000000000000000000000000000 PUSH1 0x20 DUP3 ADD MSTORE POP JUMP JUMPDEST PUSH1 0x0 PUSH2 0xE15 PUSH1 0x32 DUP4 PUSH2 0xA7D JUMP JUMPDEST SWAP2 POP PUSH2 0xE20 DUP3 PUSH2 0xDB9 JUMP JUMPDEST PUSH1 0x40 DUP3 ADD SWAP1 POP SWAP2 SWAP1 POP JUMP JUMPDEST PUSH1 0x0 PUSH1 0x20 DUP3 ADD SWAP1 POP DUP2 DUP2 SUB PUSH1 0x0 DUP4 ADD MSTORE PUSH2 0xE44 DUP2 PUSH2 0xE08 JUMP JUMPDEST SWAP1 POP SWAP2 SWAP1 POP JUMP INVALID LOG2 PUSH5 0x6970667358 0x22 SLT KECCAK256 LOG2 0xE0 0xD0 0xE9 NOT 0x26 0xC0 0xCD DUP3 PUSH25 0x6A0F15F099E32D1768DBE04325F6FBE7AD7D5360679A64736F PUSH13 0x634300080D0033000000000000 "},"gasEstimates":{"creation":{"codeDepositCost":"742600","executionCost":"779","totalCost":"743379"},"external":{"_safeMint(address,uint256)":"infinite","_safeMint(address,uint256,bytes)":"infinite","balanceOf(address)":"2885","ownerOf(uint256)":"2956","supportsInterface(bytes4)":"616"},"internal":{"_checkOnERC721Received(address,address,uint256,bytes memory)":"infinite","_exists(uint256)":"2269","_mint(address,uint256)":"infinite","isContract(address)":"2653"}},"methodIdentifiers":{"_safeMint(address,uint256)":"b3e1c718","_safeMint(address,uint256,bytes)":"6a4f832b","balanceOf(address)":"70a08231","ownerOf(uint256)":"6352211e","supportsInterface(bytes4)":"01ffc9a7"}},"storageLayout":{"storage":[{"astId":1383,"contract":"ERC721.sol:ERC721","label":"_owners","offset":0,"slot":"0","type":"t_mapping(t_uint256,t_address)"},{"astId":1387,"contract":"ERC721.sol:ERC721","label":"_balances","offset":0,"slot":"1","type":"t_mapping(t_address,t_uint256)"}],"types":{"t_address":{"encoding":"inplace","label":"address","numberOfBytes":"20"},"t_mapping(t_address,t_uint256)":{"encoding":"mapping","key":"t_address","label":"mapping(address => uint256)","numberOfBytes":"32","value":"t_uint256"},"t_mapping(t_uint256,t_address)":{"encoding":"mapping","key":"t_uint256","label":"mapping(uint256 => address)","numberOfBytes":"32","value":"t_address"},"t_uint256":{"encoding":"inplace","label":"uint256","numberOfBytes":"32"}}},"userdoc":{"kind":"user","methods":{},"version":1}}