{"abi":[{"inputs":[{"internalType":"uint256","name":"maxheight","type":"uint256"},{"internalType":"uint256","name":"minheight","type":"uint256"},{"internalType":"uint256","name":"id","type":"uint256"},{"internalType":"string","name":"_pesticide","type":"string"}],"stateMutability":"nonpayable","type":"constructor"},{"anonymous":false,"inputs":[{"indexed":true,"internalType":"address","name":"from","type":"address"},{"indexed":true,"internalType":"address","name":"to","type":"address"},{"indexed":true,"internalType":"uint256","name":"tokenId","type":"uint256"}],"name":"Transfer","type":"event"},{"inputs":[{"internalType":"address","name":"to","type":"address"},{"internalType":"uint256","name":"tokenId","type":"uint256"}],"name":"_mintPlot","outputs":[],"stateMutability":"nonpayable","type":"function"},{"inputs":[{"internalType":"address","name":"to","type":"address"},{"internalType":"uint256","name":"tokenId","type":"uint256"},{"internalType":"bytes","name":"_data","type":"bytes"}],"name":"_safeMint","outputs":[],"stateMutability":"nonpayable","type":"function"},{"inputs":[{"internalType":"address","name":"to","type":"address"},{"internalType":"uint256","name":"tokenId","type":"uint256"}],"name":"_safeMint","outputs":[],"stateMutability":"nonpayable","type":"function"},{"inputs":[{"internalType":"address","name":"owner","type":"address"}],"name":"balanceOf","outputs":[{"internalType":"uint256","name":"balance","type":"uint256"}],"stateMutability":"view","type":"function"},{"inputs":[],"name":"getAtendido","outputs":[{"internalType":"bool","name":"","type":"bool"}],"stateMutability":"view","type":"function"},{"inputs":[],"name":"getMaxHeight","outputs":[{"internalType":"uint256","name":"","type":"uint256"}],"stateMutability":"view","type":"function"},{"inputs":[],"name":"getMinHeight","outputs":[{"internalType":"uint256","name":"","type":"uint256"}],"stateMutability":"view","type":"function"},{"inputs":[],"name":"id_plot","outputs":[{"internalType":"uint256","name":"","type":"uint256"}],"stateMutability":"view","type":"function"},{"inputs":[],"name":"max_height","outputs":[{"internalType":"uint256","name":"","type":"uint256"}],"stateMutability":"view","type":"function"},{"inputs":[],"name":"min_height","outputs":[{"internalType":"uint256","name":"","type":"uint256"}],"stateMutability":"view","type":"function"},{"inputs":[],"name":"owner","outputs":[{"internalType":"address","name":"","type":"address"}],"stateMutability":"view","type":"function"},{"inputs":[{"internalType":"uint256","name":"tokenId","type":"uint256"}],"name":"ownerOf","outputs":[{"internalType":"address","name":"","type":"address"}],"stateMutability":"view","type":"function"},{"inputs":[],"name":"pesticide","outputs":[{"internalType":"string","name":"","type":"string"}],"stateMutability":"view","type":"function"},{"inputs":[{"internalType":"bool","name":"estado","type":"bool"}],"name":"setAtendido","outputs":[],"stateMutability":"nonpayable","type":"function"},{"inputs":[{"internalType":"bytes4","name":"interfaceId","type":"bytes4"}],"name":"supportsInterface","outputs":[{"internalType":"bool","name":"","type":"bool"}],"stateMutability":"view","type":"function"}],"devdoc":{"kind":"dev","methods":{},"version":1},"evm":{"assembly":"    /* \"Plot.sol\":107:1219   */\n  mstore(0x40, 0x80)\n    /* \"Plot.sol\":316:599   */\n  callvalue\n  dup1\n  iszero\n  tag_1\n  jumpi\n  0x00\n  dup1\n  revert\ntag_1:\n  pop\n  mload(0x40)\n  sub(codesize, bytecodeSize)\n  dup1\n  bytecodeSize\n  dup4\n  codecopy\n  dup2\n  dup2\n  add\n  0x40\n  mstore\n  dup2\n  add\n  swap1\n  tag_2\n  swap2\n  swap1\n  tag_3\n  jump\t// in\ntag_2:\n    /* \"Plot.sol\":435:444   */\n  dup4\n    /* \"Plot.sol\":422:432   */\n  0x03\n    /* \"Plot.sol\":422:444   */\n  dup2\n  swap1\n  sstore\n  pop\n    /* \"Plot.sol\":468:477   */\n  dup3\n    /* \"Plot.sol\":455:465   */\n  0x04\n    /* \"Plot.sol\":455:477   */\n  dup2\n  swap1\n  sstore\n  pop\n    /* \"Plot.sol\":496:506   */\n  caller\n    /* \"Plot.sol\":488:493   */\n  0x05\n  0x00\n    /* \"Plot.sol\":488:506   */\n  0x0100\n  exp\n  dup2\n  sload\n  dup2\n  0xffffffffffffffffffffffffffffffffffffffff\n  mul\n  not\n  and\n  swap1\n  dup4\n  0xffffffffffffffffffffffffffffffffffffffff\n  and\n  mul\n  or\n  swap1\n  sstore\n  pop\n    /* \"Plot.sol\":527:529   */\n  dup2\n    /* \"Plot.sol\":517:524   */\n  0x02\n    /* \"Plot.sol\":517:529   */\n  dup2\n  swap1\n  sstore\n  pop\n    /* \"Plot.sol\":552:562   */\n  dup1\n    /* \"Plot.sol\":540:549   */\n  0x06\n    /* \"Plot.sol\":540:562   */\n  swap1\n  dup1\n  mload\n  swap1\n  0x20\n  add\n  swap1\n  tag_6\n  swap3\n  swap2\n  swap1\n  tag_7\n  jump\t// in\ntag_6:\n  pop\n    /* \"Plot.sol\":584:589   */\n  0x00\n    /* \"Plot.sol\":573:581   */\n  0x07\n  0x00\n    /* \"Plot.sol\":573:589   */\n  0x0100\n  exp\n  dup2\n  sload\n  dup2\n  0xff\n  mul\n  not\n  and\n  swap1\n  dup4\n  iszero\n  iszero\n  mul\n  or\n  swap1\n  sstore\n  pop\n    /* \"Plot.sol\":316:599   */\n  pop\n  pop\n  pop\n  pop\n    /* \"Plot.sol\":107:1219   */\n  jump(tag_8)\ntag_7:\n  dup3\n  dup1\n  sload\n  tag_9\n  swap1\n  tag_10\n  jump\t// in\ntag_9:\n  swap1\n  0x00\n  mstore\n  keccak256(0x00, 0x20)\n  swap1\n  0x1f\n  add\n  0x20\n  swap1\n  div\n  dup2\n  add\n  swap3\n  dup3\n  tag_12\n  jumpi\n  0x00\n  dup6\n  sstore\n  jump(tag_11)\ntag_12:\n  dup3\n  0x1f\n  lt\n  tag_13\n  jumpi\n  dup1\n  mload\n  not(0xff)\n  and\n  dup4\n  dup1\n  add\n  or\n  dup6\n  sstore\n  jump(tag_11)\ntag_13:\n  dup3\n  dup1\n  add\n  0x01\n  add\n  dup6\n  sstore\n  dup3\n  iszero\n  tag_11\n  jumpi\n  swap2\n  dup3\n  add\ntag_14:\n  dup3\n  dup2\n  gt\n  iszero\n  tag_15\n  jumpi\n  dup3\n  mload\n  dup3\n  sstore\n  swap2\n  0x20\n  add\n  swap2\n  swap1\n  0x01\n  add\n  swap1\n  jump(tag_14)\ntag_15:\ntag_11:\n  pop\n  swap1\n  pop\n  tag_16\n  swap2\n  swap1\n  tag_17\n  jump\t// in\ntag_16:\n  pop\n  swap1\n  jump\t// out\ntag_17:\ntag_18:\n  dup1\n  dup3\n  gt\n  iszero\n  tag_19\n  jumpi\n  0x00\n  dup2\n  0x00\n  swap1\n  sstore\n  pop\n  0x01\n  add\n  jump(tag_18)\ntag_19:\n  pop\n  swap1\n  jump\t// out\n    /* \"#utility.yul\":7:82   */\ntag_20:\n    /* \"#utility.yul\":40:46   */\n  0x00\n    /* \"#utility.yul\":73:75   */\n  0x40\n    /* \"#utility.yul\":67:76   */\n  mload\n    /* \"#utility.yul\":57:76   */\n  swap1\n  pop\n    /* \"#utility.yul\":7:82   */\n  swap1\n  jump\t// out\n    /* \"#utility.yul\":88:205   */\ntag_21:\n    /* \"#utility.yul\":197:198   */\n  0x00\n    /* \"#utility.yul\":194:195   */\n  dup1\n    /* \"#utility.yul\":187:199   */\n  revert\n    /* \"#utility.yul\":211:328   */\ntag_22:\n    /* \"#utility.yul\":320:321   */\n  0x00\n    /* \"#utility.yul\":317:318   */\n  dup1\n    /* \"#utility.yul\":310:322   */\n  revert\n    /* \"#utility.yul\":334:411   */\ntag_23:\n    /* \"#utility.yul\":371:378   */\n  0x00\n    /* \"#utility.yul\":400:405   */\n  dup2\n    /* \"#utility.yul\":389:405   */\n  swap1\n  pop\n    /* \"#utility.yul\":334:411   */\n  swap2\n  swap1\n  pop\n  jump\t// out\n    /* \"#utility.yul\":417:539   */\ntag_24:\n    /* \"#utility.yul\":490:514   */\n  tag_43\n    /* \"#utility.yul\":508:513   */\n  dup2\n    /* \"#utility.yul\":490:514   */\n  tag_23\n  jump\t// in\ntag_43:\n    /* \"#utility.yul\":483:488   */\n  dup2\n    /* \"#utility.yul\":480:515   */\n  eq\n    /* \"#utility.yul\":470:533   */\n  tag_44\n  jumpi\n    /* \"#utility.yul\":529:530   */\n  0x00\n    /* \"#utility.yul\":526:527   */\n  dup1\n    /* \"#utility.yul\":519:531   */\n  revert\n    /* \"#utility.yul\":470:533   */\ntag_44:\n    /* \"#utility.yul\":417:539   */\n  pop\n  jump\t// out\n    /* \"#utility.yul\":545:688   */\ntag_25:\n    /* \"#utility.yul\":602:607   */\n  0x00\n    /* \"#utility.yul\":633:639   */\n  dup2\n    /* \"#utility.yul\":627:640   */\n  mload\n    /* \"#utility.yul\":618:640   */\n  swap1\n  pop\n    /* \"#utility.yul\":649:682   */\n  tag_46\n    /* \"#utility.yul\":676:681   */\n  dup2\n    /* \"#utility.yul\":649:682   */\n  tag_24\n  jump\t// in\ntag_46:\n    /* \"#utility.yul\":545:688   */\n  swap3\n  swap2\n  pop\n  pop\n  jump\t// out\n    /* \"#utility.yul\":694:811   */\ntag_26:\n    /* \"#utility.yul\":803:804   */\n  0x00\n    /* \"#utility.yul\":800:801   */\n  dup1\n    /* \"#utility.yul\":793:805   */\n  revert\n    /* \"#utility.yul\":817:934   */\ntag_27:\n    /* \"#utility.yul\":926:927   */\n  0x00\n    /* \"#utility.yul\":923:924   */\n  dup1\n    /* \"#utility.yul\":916:928   */\n  revert\n    /* \"#utility.yul\":940:1042   */\ntag_28:\n    /* \"#utility.yul\":981:987   */\n  0x00\n    /* \"#utility.yul\":1032:1034   */\n  0x1f\n    /* \"#utility.yul\":1028:1035   */\n  not\n    /* \"#utility.yul\":1023:1025   */\n  0x1f\n    /* \"#utility.yul\":1016:1021   */\n  dup4\n    /* \"#utility.yul\":1012:1026   */\n  add\n    /* \"#utility.yul\":1008:1036   */\n  and\n    /* \"#utility.yul\":998:1036   */\n  swap1\n  pop\n    /* \"#utility.yul\":940:1042   */\n  swap2\n  swap1\n  pop\n  jump\t// out\n    /* \"#utility.yul\":1048:1228   */\ntag_29:\n    /* \"#utility.yul\":1096:1173   */\n  0x4e487b7100000000000000000000000000000000000000000000000000000000\n    /* \"#utility.yul\":1093:1094   */\n  0x00\n    /* \"#utility.yul\":1086:1174   */\n  mstore\n    /* \"#utility.yul\":1193:1197   */\n  0x41\n    /* \"#utility.yul\":1190:1191   */\n  0x04\n    /* \"#utility.yul\":1183:1198   */\n  mstore\n    /* \"#utility.yul\":1217:1221   */\n  0x24\n    /* \"#utility.yul\":1214:1215   */\n  0x00\n    /* \"#utility.yul\":1207:1222   */\n  revert\n    /* \"#utility.yul\":1234:1515   */\ntag_30:\n    /* \"#utility.yul\":1317:1344   */\n  tag_52\n    /* \"#utility.yul\":1339:1343   */\n  dup3\n    /* \"#utility.yul\":1317:1344   */\n  tag_28\n  jump\t// in\ntag_52:\n    /* \"#utility.yul\":1309:1315   */\n  dup2\n    /* \"#utility.yul\":1305:1345   */\n  add\n    /* \"#utility.yul\":1447:1453   */\n  dup2\n    /* \"#utility.yul\":1435:1445   */\n  dup2\n    /* \"#utility.yul\":1432:1454   */\n  lt\n    /* \"#utility.yul\":1411:1429   */\n  0xffffffffffffffff\n    /* \"#utility.yul\":1399:1409   */\n  dup3\n    /* \"#utility.yul\":1396:1430   */\n  gt\n    /* \"#utility.yul\":1393:1455   */\n  or\n    /* \"#utility.yul\":1390:1478   */\n  iszero\n  tag_53\n  jumpi\n    /* \"#utility.yul\":1458:1476   */\n  tag_54\n  tag_29\n  jump\t// in\ntag_54:\n    /* \"#utility.yul\":1390:1478   */\ntag_53:\n    /* \"#utility.yul\":1498:1508   */\n  dup1\n    /* \"#utility.yul\":1494:1496   */\n  0x40\n    /* \"#utility.yul\":1487:1509   */\n  mstore\n    /* \"#utility.yul\":1277:1515   */\n  pop\n    /* \"#utility.yul\":1234:1515   */\n  pop\n  pop\n  jump\t// out\n    /* \"#utility.yul\":1521:1650   */\ntag_31:\n    /* \"#utility.yul\":1555:1561   */\n  0x00\n    /* \"#utility.yul\":1582:1602   */\n  tag_56\n  tag_20\n  jump\t// in\ntag_56:\n    /* \"#utility.yul\":1572:1602   */\n  swap1\n  pop\n    /* \"#utility.yul\":1611:1644   */\n  tag_57\n    /* \"#utility.yul\":1639:1643   */\n  dup3\n    /* \"#utility.yul\":1631:1637   */\n  dup3\n    /* \"#utility.yul\":1611:1644   */\n  tag_30\n  jump\t// in\ntag_57:\n    /* \"#utility.yul\":1521:1650   */\n  swap2\n  swap1\n  pop\n  jump\t// out\n    /* \"#utility.yul\":1656:1964   */\ntag_32:\n    /* \"#utility.yul\":1718:1722   */\n  0x00\n    /* \"#utility.yul\":1808:1826   */\n  0xffffffffffffffff\n    /* \"#utility.yul\":1800:1806   */\n  dup3\n    /* \"#utility.yul\":1797:1827   */\n  gt\n    /* \"#utility.yul\":1794:1850   */\n  iszero\n  tag_59\n  jumpi\n    /* \"#utility.yul\":1830:1848   */\n  tag_60\n  tag_29\n  jump\t// in\ntag_60:\n    /* \"#utility.yul\":1794:1850   */\ntag_59:\n    /* \"#utility.yul\":1868:1897   */\n  tag_61\n    /* \"#utility.yul\":1890:1896   */\n  dup3\n    /* \"#utility.yul\":1868:1897   */\n  tag_28\n  jump\t// in\ntag_61:\n    /* \"#utility.yul\":1860:1897   */\n  swap1\n  pop\n    /* \"#utility.yul\":1952:1956   */\n  0x20\n    /* \"#utility.yul\":1946:1950   */\n  dup2\n    /* \"#utility.yul\":1942:1957   */\n  add\n    /* \"#utility.yul\":1934:1957   */\n  swap1\n  pop\n    /* \"#utility.yul\":1656:1964   */\n  swap2\n  swap1\n  pop\n  jump\t// out\n    /* \"#utility.yul\":1970:2277   */\ntag_33:\n    /* \"#utility.yul\":2038:2039   */\n  0x00\n    /* \"#utility.yul\":2048:2161   */\ntag_63:\n    /* \"#utility.yul\":2062:2068   */\n  dup4\n    /* \"#utility.yul\":2059:2060   */\n  dup2\n    /* \"#utility.yul\":2056:2069   */\n  lt\n    /* \"#utility.yul\":2048:2161   */\n  iszero\n  tag_65\n  jumpi\n    /* \"#utility.yul\":2147:2148   */\n  dup1\n    /* \"#utility.yul\":2142:2145   */\n  dup3\n    /* \"#utility.yul\":2138:2149   */\n  add\n    /* \"#utility.yul\":2132:2150   */\n  mload\n    /* \"#utility.yul\":2128:2129   */\n  dup2\n    /* \"#utility.yul\":2123:2126   */\n  dup5\n    /* \"#utility.yul\":2119:2130   */\n  add\n    /* \"#utility.yul\":2112:2151   */\n  mstore\n    /* \"#utility.yul\":2084:2086   */\n  0x20\n    /* \"#utility.yul\":2081:2082   */\n  dup2\n    /* \"#utility.yul\":2077:2087   */\n  add\n    /* \"#utility.yul\":2072:2087   */\n  swap1\n  pop\n    /* \"#utility.yul\":2048:2161   */\n  jump(tag_63)\ntag_65:\n    /* \"#utility.yul\":2179:2185   */\n  dup4\n    /* \"#utility.yul\":2176:2177   */\n  dup2\n    /* \"#utility.yul\":2173:2186   */\n  gt\n    /* \"#utility.yul\":2170:2271   */\n  iszero\n  tag_66\n  jumpi\n    /* \"#utility.yul\":2259:2260   */\n  0x00\n    /* \"#utility.yul\":2250:2256   */\n  dup5\n    /* \"#utility.yul\":2245:2248   */\n  dup5\n    /* \"#utility.yul\":2241:2257   */\n  add\n    /* \"#utility.yul\":2234:2261   */\n  mstore\n    /* \"#utility.yul\":2170:2271   */\ntag_66:\n    /* \"#utility.yul\":2019:2277   */\n  pop\n    /* \"#utility.yul\":1970:2277   */\n  pop\n  pop\n  pop\n  jump\t// out\n    /* \"#utility.yul\":2283:2704   */\ntag_34:\n    /* \"#utility.yul\":2372:2377   */\n  0x00\n    /* \"#utility.yul\":2397:2463   */\n  tag_68\n    /* \"#utility.yul\":2413:2462   */\n  tag_69\n    /* \"#utility.yul\":2455:2461   */\n  dup5\n    /* \"#utility.yul\":2413:2462   */\n  tag_32\n  jump\t// in\ntag_69:\n    /* \"#utility.yul\":2397:2463   */\n  tag_31\n  jump\t// in\ntag_68:\n    /* \"#utility.yul\":2388:2463   */\n  swap1\n  pop\n    /* \"#utility.yul\":2486:2492   */\n  dup3\n    /* \"#utility.yul\":2479:2484   */\n  dup2\n    /* \"#utility.yul\":2472:2493   */\n  mstore\n    /* \"#utility.yul\":2524:2528   */\n  0x20\n    /* \"#utility.yul\":2517:2522   */\n  dup2\n    /* \"#utility.yul\":2513:2529   */\n  add\n    /* \"#utility.yul\":2562:2565   */\n  dup5\n    /* \"#utility.yul\":2553:2559   */\n  dup5\n    /* \"#utility.yul\":2548:2551   */\n  dup5\n    /* \"#utility.yul\":2544:2560   */\n  add\n    /* \"#utility.yul\":2541:2566   */\n  gt\n    /* \"#utility.yul\":2538:2650   */\n  iszero\n  tag_70\n  jumpi\n    /* \"#utility.yul\":2569:2648   */\n  tag_71\n  tag_27\n  jump\t// in\ntag_71:\n    /* \"#utility.yul\":2538:2650   */\ntag_70:\n    /* \"#utility.yul\":2659:2698   */\n  tag_72\n    /* \"#utility.yul\":2691:2697   */\n  dup5\n    /* \"#utility.yul\":2686:2689   */\n  dup3\n    /* \"#utility.yul\":2681:2684   */\n  dup6\n    /* \"#utility.yul\":2659:2698   */\n  tag_33\n  jump\t// in\ntag_72:\n    /* \"#utility.yul\":2378:2704   */\n  pop\n    /* \"#utility.yul\":2283:2704   */\n  swap4\n  swap3\n  pop\n  pop\n  pop\n  jump\t// out\n    /* \"#utility.yul\":2724:3079   */\ntag_35:\n    /* \"#utility.yul\":2791:2796   */\n  0x00\n    /* \"#utility.yul\":2840:2843   */\n  dup3\n    /* \"#utility.yul\":2833:2837   */\n  0x1f\n    /* \"#utility.yul\":2825:2831   */\n  dup4\n    /* \"#utility.yul\":2821:2838   */\n  add\n    /* \"#utility.yul\":2817:2844   */\n  slt\n    /* \"#utility.yul\":2807:2929   */\n  tag_74\n  jumpi\n    /* \"#utility.yul\":2848:2927   */\n  tag_75\n  tag_26\n  jump\t// in\ntag_75:\n    /* \"#utility.yul\":2807:2929   */\ntag_74:\n    /* \"#utility.yul\":2958:2964   */\n  dup2\n    /* \"#utility.yul\":2952:2965   */\n  mload\n    /* \"#utility.yul\":2983:3073   */\n  tag_76\n    /* \"#utility.yul\":3069:3072   */\n  dup5\n    /* \"#utility.yul\":3061:3067   */\n  dup3\n    /* \"#utility.yul\":3054:3058   */\n  0x20\n    /* \"#utility.yul\":3046:3052   */\n  dup7\n    /* \"#utility.yul\":3042:3059   */\n  add\n    /* \"#utility.yul\":2983:3073   */\n  tag_34\n  jump\t// in\ntag_76:\n    /* \"#utility.yul\":2974:3073   */\n  swap2\n  pop\n    /* \"#utility.yul\":2797:3079   */\n  pop\n    /* \"#utility.yul\":2724:3079   */\n  swap3\n  swap2\n  pop\n  pop\n  jump\t// out\n    /* \"#utility.yul\":3085:4078   */\ntag_3:\n    /* \"#utility.yul\":3192:3198   */\n  0x00\n    /* \"#utility.yul\":3200:3206   */\n  dup1\n    /* \"#utility.yul\":3208:3214   */\n  0x00\n    /* \"#utility.yul\":3216:3222   */\n  dup1\n    /* \"#utility.yul\":3265:3268   */\n  0x80\n    /* \"#utility.yul\":3253:3262   */\n  dup6\n    /* \"#utility.yul\":3244:3251   */\n  dup8\n    /* \"#utility.yul\":3240:3263   */\n  sub\n    /* \"#utility.yul\":3236:3269   */\n  slt\n    /* \"#utility.yul\":3233:3353   */\n  iszero\n  tag_78\n  jumpi\n    /* \"#utility.yul\":3272:3351   */\n  tag_79\n  tag_21\n  jump\t// in\ntag_79:\n    /* \"#utility.yul\":3233:3353   */\ntag_78:\n    /* \"#utility.yul\":3392:3393   */\n  0x00\n    /* \"#utility.yul\":3417:3481   */\n  tag_80\n    /* \"#utility.yul\":3473:3480   */\n  dup8\n    /* \"#utility.yul\":3464:3470   */\n  dup3\n    /* \"#utility.yul\":3453:3462   */\n  dup9\n    /* \"#utility.yul\":3449:3471   */\n  add\n    /* \"#utility.yul\":3417:3481   */\n  tag_25\n  jump\t// in\ntag_80:\n    /* \"#utility.yul\":3407:3481   */\n  swap5\n  pop\n    /* \"#utility.yul\":3363:3491   */\n  pop\n    /* \"#utility.yul\":3530:3532   */\n  0x20\n    /* \"#utility.yul\":3556:3620   */\n  tag_81\n    /* \"#utility.yul\":3612:3619   */\n  dup8\n    /* \"#utility.yul\":3603:3609   */\n  dup3\n    /* \"#utility.yul\":3592:3601   */\n  dup9\n    /* \"#utility.yul\":3588:3610   */\n  add\n    /* \"#utility.yul\":3556:3620   */\n  tag_25\n  jump\t// in\ntag_81:\n    /* \"#utility.yul\":3546:3620   */\n  swap4\n  pop\n    /* \"#utility.yul\":3501:3630   */\n  pop\n    /* \"#utility.yul\":3669:3671   */\n  0x40\n    /* \"#utility.yul\":3695:3759   */\n  tag_82\n    /* \"#utility.yul\":3751:3758   */\n  dup8\n    /* \"#utility.yul\":3742:3748   */\n  dup3\n    /* \"#utility.yul\":3731:3740   */\n  dup9\n    /* \"#utility.yul\":3727:3749   */\n  add\n    /* \"#utility.yul\":3695:3759   */\n  tag_25\n  jump\t// in\ntag_82:\n    /* \"#utility.yul\":3685:3759   */\n  swap3\n  pop\n    /* \"#utility.yul\":3640:3769   */\n  pop\n    /* \"#utility.yul\":3829:3831   */\n  0x60\n    /* \"#utility.yul\":3818:3827   */\n  dup6\n    /* \"#utility.yul\":3814:3832   */\n  add\n    /* \"#utility.yul\":3808:3833   */\n  mload\n    /* \"#utility.yul\":3860:3878   */\n  0xffffffffffffffff\n    /* \"#utility.yul\":3852:3858   */\n  dup2\n    /* \"#utility.yul\":3849:3879   */\n  gt\n    /* \"#utility.yul\":3846:3963   */\n  iszero\n  tag_83\n  jumpi\n    /* \"#utility.yul\":3882:3961   */\n  tag_84\n  tag_22\n  jump\t// in\ntag_84:\n    /* \"#utility.yul\":3846:3963   */\ntag_83:\n    /* \"#utility.yul\":3987:4061   */\n  tag_85\n    /* \"#utility.yul\":4053:4060   */\n  dup8\n    /* \"#utility.yul\":4044:4050   */\n  dup3\n    /* \"#utility.yul\":4033:4042   */\n  dup9\n    /* \"#utility.yul\":4029:4051   */\n  add\n    /* \"#utility.yul\":3987:4061   */\n  tag_35\n  jump\t// in\ntag_85:\n    /* \"#utility.yul\":3977:4061   */\n  swap2\n  pop\n    /* \"#utility.yul\":3779:4071   */\n  pop\n    /* \"#utility.yul\":3085:4078   */\n  swap3\n  swap6\n  swap2\n  swap5\n  pop\n  swap3\n  pop\n  jump\t// out\n    /* \"#utility.yul\":4084:4264   */\ntag_36:\n    /* \"#utility.yul\":4132:4209   */\n  0x4e487b7100000000000000000000000000000000000000000000000000000000\n    /* \"#utility.yul\":4129:4130   */\n  0x00\n    /* \"#utility.yul\":4122:4210   */\n  mstore\n    /* \"#utility.yul\":4229:4233   */\n  0x22\n    /* \"#utility.yul\":4226:4227   */\n  0x04\n    /* \"#utility.yul\":4219:4234   */\n  mstore\n    /* \"#utility.yul\":4253:4257   */\n  0x24\n    /* \"#utility.yul\":4250:4251   */\n  0x00\n    /* \"#utility.yul\":4243:4258   */\n  revert\n    /* \"#utility.yul\":4270:4590   */\ntag_10:\n    /* \"#utility.yul\":4314:4320   */\n  0x00\n    /* \"#utility.yul\":4351:4352   */\n  0x02\n    /* \"#utility.yul\":4345:4349   */\n  dup3\n    /* \"#utility.yul\":4341:4353   */\n  div\n    /* \"#utility.yul\":4331:4353   */\n  swap1\n  pop\n    /* \"#utility.yul\":4398:4399   */\n  0x01\n    /* \"#utility.yul\":4392:4396   */\n  dup3\n    /* \"#utility.yul\":4388:4400   */\n  and\n    /* \"#utility.yul\":4419:4437   */\n  dup1\n    /* \"#utility.yul\":4409:4490   */\n  tag_88\n  jumpi\n    /* \"#utility.yul\":4475:4479   */\n  0x7f\n    /* \"#utility.yul\":4467:4473   */\n  dup3\n    /* \"#utility.yul\":4463:4480   */\n  and\n    /* \"#utility.yul\":4453:4480   */\n  swap2\n  pop\n    /* \"#utility.yul\":4409:4490   */\ntag_88:\n    /* \"#utility.yul\":4537:4539   */\n  0x20\n    /* \"#utility.yul\":4529:4535   */\n  dup3\n    /* \"#utility.yul\":4526:4540   */\n  lt\n    /* \"#utility.yul\":4506:4524   */\n  dup2\n    /* \"#utility.yul\":4503:4541   */\n  sub\n    /* \"#utility.yul\":4500:4584   */\n  tag_89\n  jumpi\n    /* \"#utility.yul\":4556:4574   */\n  tag_90\n  tag_36\n  jump\t// in\ntag_90:\n    /* \"#utility.yul\":4500:4584   */\ntag_89:\n    /* \"#utility.yul\":4321:4590   */\n  pop\n    /* \"#utility.yul\":4270:4590   */\n  swap2\n  swap1\n  pop\n  jump\t// out\n    /* \"Plot.sol\":107:1219   */\ntag_8:\n  dataSize(sub_0)\n  dup1\n  dataOffset(sub_0)\n  0x00\n  codecopy\n  0x00\n  return\nstop\n\nsub_0: assembly {\n        /* \"Plot.sol\":107:1219   */\n      mstore(0x40, 0x80)\n      callvalue\n      dup1\n      iszero\n      tag_1\n      jumpi\n      0x00\n      dup1\n      revert\n    tag_1:\n      pop\n      jumpi(tag_2, lt(calldatasize, 0x04))\n      shr(0xe0, calldataload(0x00))\n      dup1\n      0x6352211e\n      gt\n      tag_18\n      jumpi\n      dup1\n      0x7cf6b53b\n      gt\n      tag_19\n      jumpi\n      dup1\n      0x7cf6b53b\n      eq\n      tag_14\n      jumpi\n      dup1\n      0x8da5cb5b\n      eq\n      tag_15\n      jumpi\n      dup1\n      0xb3e1c718\n      eq\n      tag_16\n      jumpi\n      dup1\n      0xcf22b577\n      eq\n      tag_17\n      jumpi\n      jump(tag_2)\n    tag_19:\n      dup1\n      0x6352211e\n      eq\n      tag_10\n      jumpi\n      dup1\n      0x6a4f832b\n      eq\n      tag_11\n      jumpi\n      dup1\n      0x70a08231\n      eq\n      tag_12\n      jumpi\n      dup1\n      0x7194c2e8\n      eq\n      tag_13\n      jumpi\n      jump(tag_2)\n    tag_18:\n      dup1\n      0x3fbaa475\n      gt\n      tag_20\n      jumpi\n      dup1\n      0x3fbaa475\n      eq\n      tag_6\n      jumpi\n      dup1\n      0x49befa85\n      eq\n      tag_7\n      jumpi\n      dup1\n      0x4a627aeb\n      eq\n      tag_8\n      jumpi\n      dup1\n      0x5ee1773d\n      eq\n      tag_9\n      jumpi\n      jump(tag_2)\n    tag_20:\n      dup1\n      0x01ffc9a7\n      eq\n      tag_3\n      jumpi\n      dup1\n      0x23b1ff00\n      eq\n      tag_4\n      jumpi\n      dup1\n      0x32b93996\n      eq\n      tag_5\n      jumpi\n    tag_2:\n      0x00\n      dup1\n      revert\n        /* \"ERC165.sol\":128:290   */\n    tag_3:\n      tag_21\n      0x04\n      dup1\n      calldatasize\n      sub\n      dup2\n      add\n      swap1\n      tag_22\n      swap2\n      swap1\n      tag_23\n      jump\t// in\n    tag_22:\n      tag_24\n      jump\t// in\n    tag_21:\n      mload(0x40)\n      tag_25\n      swap2\n      swap1\n      tag_26\n      jump\t// in\n    tag_25:\n      mload(0x40)\n      dup1\n      swap2\n      sub\n      swap1\n      return\n        /* \"Plot.sol\":260:283   */\n    tag_4:\n      tag_27\n      tag_28\n      jump\t// in\n    tag_27:\n      mload(0x40)\n      tag_29\n      swap2\n      swap1\n      tag_30\n      jump\t// in\n    tag_29:\n      mload(0x40)\n      dup1\n      swap2\n      sub\n      swap1\n      return\n        /* \"Plot.sol\":201:226   */\n    tag_5:\n      tag_31\n      tag_32\n      jump\t// in\n    tag_31:\n      mload(0x40)\n      tag_33\n      swap2\n      swap1\n      tag_34\n      jump\t// in\n    tag_33:\n      mload(0x40)\n      dup1\n      swap2\n      sub\n      swap1\n      return\n        /* \"Plot.sol\":169:194   */\n    tag_6:\n      tag_35\n      tag_36\n      jump\t// in\n    tag_35:\n      mload(0x40)\n      tag_37\n      swap2\n      swap1\n      tag_34\n      jump\t// in\n    tag_37:\n      mload(0x40)\n      dup1\n      swap2\n      sub\n      swap1\n      return\n        /* \"Plot.sol\":935:1031   */\n    tag_7:\n      tag_38\n      tag_39\n      jump\t// in\n    tag_38:\n      mload(0x40)\n      tag_40\n      swap2\n      swap1\n      tag_34\n      jump\t// in\n    tag_40:\n      mload(0x40)\n      dup1\n      swap2\n      sub\n      swap1\n      return\n        /* \"Plot.sol\":1133:1216   */\n    tag_8:\n      tag_41\n      0x04\n      dup1\n      calldatasize\n      sub\n      dup2\n      add\n      swap1\n      tag_42\n      swap2\n      swap1\n      tag_43\n      jump\t// in\n    tag_42:\n      tag_44\n      jump\t// in\n    tag_41:\n      stop\n        /* \"Plot.sol\":140:162   */\n    tag_9:\n      tag_45\n      tag_46\n      jump\t// in\n    tag_45:\n      mload(0x40)\n      tag_47\n      swap2\n      swap1\n      tag_34\n      jump\t// in\n    tag_47:\n      mload(0x40)\n      dup1\n      swap2\n      sub\n      swap1\n      return\n        /* \"ERC721.sol\":624:852   */\n    tag_10:\n      tag_48\n      0x04\n      dup1\n      calldatasize\n      sub\n      dup2\n      add\n      swap1\n      tag_49\n      swap2\n      swap1\n      tag_50\n      jump\t// in\n    tag_49:\n      tag_51\n      jump\t// in\n    tag_48:\n      mload(0x40)\n      tag_52\n      swap2\n      swap1\n      tag_53\n      jump\t// in\n    tag_52:\n      mload(0x40)\n      dup1\n      swap2\n      sub\n      swap1\n      return\n        /* \"ERC721.sol\":1108:1302   */\n    tag_11:\n      tag_54\n      0x04\n      dup1\n      calldatasize\n      sub\n      dup2\n      add\n      swap1\n      tag_55\n      swap2\n      swap1\n      tag_56\n      jump\t// in\n    tag_55:\n      tag_57\n      jump\t// in\n    tag_54:\n      stop\n        /* \"ERC721.sol\":863:984   */\n    tag_12:\n      tag_58\n      0x04\n      dup1\n      calldatasize\n      sub\n      dup2\n      add\n      swap1\n      tag_59\n      swap2\n      swap1\n      tag_60\n      jump\t// in\n    tag_59:\n      tag_61\n      jump\t// in\n    tag_58:\n      mload(0x40)\n      tag_62\n      swap2\n      swap1\n      tag_34\n      jump\t// in\n    tag_62:\n      mload(0x40)\n      dup1\n      swap2\n      sub\n      swap1\n      return\n        /* \"Plot.sol\":607:758   */\n    tag_13:\n      tag_63\n      0x04\n      dup1\n      calldatasize\n      sub\n      dup2\n      add\n      swap1\n      tag_64\n      swap2\n      swap1\n      tag_65\n      jump\t// in\n    tag_64:\n      tag_66\n      jump\t// in\n    tag_63:\n      stop\n        /* \"Plot.sol\":1039:1127   */\n    tag_14:\n      tag_67\n      tag_68\n      jump\t// in\n    tag_67:\n      mload(0x40)\n      tag_69\n      swap2\n      swap1\n      tag_26\n      jump\t// in\n    tag_69:\n      mload(0x40)\n      dup1\n      swap2\n      sub\n      swap1\n      return\n        /* \"Plot.sol\":233:253   */\n    tag_15:\n      tag_70\n      tag_71\n      jump\t// in\n    tag_70:\n      mload(0x40)\n      tag_72\n      swap2\n      swap1\n      tag_53\n      jump\t// in\n    tag_72:\n      mload(0x40)\n      dup1\n      swap2\n      sub\n      swap1\n      return\n        /* \"ERC721.sol\":992:1099   */\n    tag_16:\n      tag_73\n      0x04\n      dup1\n      calldatasize\n      sub\n      dup2\n      add\n      swap1\n      tag_74\n      swap2\n      swap1\n      tag_65\n      jump\t// in\n    tag_74:\n      tag_75\n      jump\t// in\n    tag_73:\n      stop\n        /* \"Plot.sol\":830:926   */\n    tag_17:\n      tag_76\n      tag_77\n      jump\t// in\n    tag_76:\n      mload(0x40)\n      tag_78\n      swap2\n      swap1\n      tag_34\n      jump\t// in\n    tag_78:\n      mload(0x40)\n      dup1\n      swap2\n      sub\n      swap1\n      return\n        /* \"ERC165.sol\":128:290   */\n    tag_24:\n        /* \"ERC165.sol\":213:217   */\n      0x00\n        /* \"ERC165.sol\":257:282   */\n      0x01ffc9a700000000000000000000000000000000000000000000000000000000\n        /* \"ERC165.sol\":242:282   */\n      not(0xffffffffffffffffffffffffffffffffffffffffffffffffffffffff)\n      and\n        /* \"ERC165.sol\":242:253   */\n      dup3\n        /* \"ERC165.sol\":242:282   */\n      not(0xffffffffffffffffffffffffffffffffffffffffffffffffffffffff)\n      and\n      eq\n        /* \"ERC165.sol\":235:282   */\n      swap1\n      pop\n        /* \"ERC165.sol\":128:290   */\n      swap2\n      swap1\n      pop\n      jump\t// out\n        /* \"Plot.sol\":260:283   */\n    tag_28:\n      0x06\n      dup1\n      sload\n      tag_80\n      swap1\n      tag_81\n      jump\t// in\n    tag_80:\n      dup1\n      0x1f\n      add\n      0x20\n      dup1\n      swap2\n      div\n      mul\n      0x20\n      add\n      mload(0x40)\n      swap1\n      dup2\n      add\n      0x40\n      mstore\n      dup1\n      swap3\n      swap2\n      swap1\n      dup2\n      dup2\n      mstore\n      0x20\n      add\n      dup3\n      dup1\n      sload\n      tag_82\n      swap1\n      tag_81\n      jump\t// in\n    tag_82:\n      dup1\n      iszero\n      tag_83\n      jumpi\n      dup1\n      0x1f\n      lt\n      tag_84\n      jumpi\n      0x0100\n      dup1\n      dup4\n      sload\n      div\n      mul\n      dup4\n      mstore\n      swap2\n      0x20\n      add\n      swap2\n      jump(tag_83)\n    tag_84:\n      dup3\n      add\n      swap2\n      swap1\n      0x00\n      mstore\n      keccak256(0x00, 0x20)\n      swap1\n    tag_85:\n      dup2\n      sload\n      dup2\n      mstore\n      swap1\n      0x01\n      add\n      swap1\n      0x20\n      add\n      dup1\n      dup4\n      gt\n      tag_85\n      jumpi\n      dup3\n      swap1\n      sub\n      0x1f\n      and\n      dup3\n      add\n      swap2\n    tag_83:\n      pop\n      pop\n      pop\n      pop\n      pop\n      dup2\n      jump\t// out\n        /* \"Plot.sol\":201:226   */\n    tag_32:\n      sload(0x04)\n      dup2\n      jump\t// out\n        /* \"Plot.sol\":169:194   */\n    tag_36:\n      sload(0x03)\n      dup2\n      jump\t// out\n        /* \"Plot.sol\":935:1031   */\n    tag_39:\n        /* \"Plot.sol\":981:988   */\n      0x00\n        /* \"Plot.sol\":1013:1023   */\n      sload(0x04)\n        /* \"Plot.sol\":1006:1023   */\n      swap1\n      pop\n        /* \"Plot.sol\":935:1031   */\n      swap1\n      jump\t// out\n        /* \"Plot.sol\":1133:1216   */\n    tag_44:\n        /* \"Plot.sol\":1202:1208   */\n      dup1\n        /* \"Plot.sol\":1193:1201   */\n      0x07\n      0x00\n        /* \"Plot.sol\":1193:1208   */\n      0x0100\n      exp\n      dup2\n      sload\n      dup2\n      0xff\n      mul\n      not\n      and\n      swap1\n      dup4\n      iszero\n      iszero\n      mul\n      or\n      swap1\n      sstore\n      pop\n        /* \"Plot.sol\":1133:1216   */\n      pop\n      jump\t// out\n        /* \"Plot.sol\":140:162   */\n    tag_46:\n      sload(0x02)\n      dup2\n      jump\t// out\n        /* \"ERC721.sol\":624:852   */\n    tag_51:\n        /* \"ERC721.sol\":697:704   */\n      0x00\n        /* \"ERC721.sol\":722:735   */\n      dup1\n        /* \"ERC721.sol\":738:745   */\n      0x00\n        /* \"ERC721.sol\":738:754   */\n      dup1\n        /* \"ERC721.sol\":746:753   */\n      dup5\n        /* \"ERC721.sol\":738:754   */\n      dup2\n      mstore\n      0x20\n      add\n      swap1\n      dup2\n      mstore\n      0x20\n      add\n      0x00\n      keccak256\n      0x00\n      swap1\n      sload\n      swap1\n      0x0100\n      exp\n      swap1\n      div\n      0xffffffffffffffffffffffffffffffffffffffff\n      and\n        /* \"ERC721.sol\":722:754   */\n      swap1\n      pop\n        /* \"ERC721.sol\":791:792   */\n      0x00\n        /* \"ERC721.sol\":774:793   */\n      0xffffffffffffffffffffffffffffffffffffffff\n      and\n        /* \"ERC721.sol\":774:779   */\n      dup2\n        /* \"ERC721.sol\":774:793   */\n      0xffffffffffffffffffffffffffffffffffffffff\n      and\n      sub\n        /* \"ERC721.sol\":765:821   */\n      tag_89\n      jumpi\n      mload(0x40)\n      0x08c379a000000000000000000000000000000000000000000000000000000000\n      dup2\n      mstore\n      0x04\n      add\n      tag_90\n      swap1\n      tag_91\n      jump\t// in\n    tag_90:\n      mload(0x40)\n      dup1\n      swap2\n      sub\n      swap1\n      revert\n    tag_89:\n        /* \"ERC721.sol\":839:844   */\n      dup1\n        /* \"ERC721.sol\":832:844   */\n      swap2\n      pop\n      pop\n        /* \"ERC721.sol\":624:852   */\n      swap2\n      swap1\n      pop\n      jump\t// out\n        /* \"ERC721.sol\":1108:1302   */\n    tag_57:\n        /* \"ERC721.sol\":1202:1220   */\n      tag_93\n        /* \"ERC721.sol\":1208:1210   */\n      dup4\n        /* \"ERC721.sol\":1212:1219   */\n      dup4\n        /* \"ERC721.sol\":1202:1207   */\n      tag_94\n        /* \"ERC721.sol\":1202:1220   */\n      jump\t// in\n    tag_93:\n        /* \"ERC721.sol\":1239:1293   */\n      tag_95\n        /* \"ERC721.sol\":1270:1271   */\n      0x00\n        /* \"ERC721.sol\":1274:1276   */\n      dup5\n        /* \"ERC721.sol\":1278:1285   */\n      dup5\n        /* \"ERC721.sol\":1287:1292   */\n      dup5\n        /* \"ERC721.sol\":1239:1261   */\n      tag_96\n        /* \"ERC721.sol\":1239:1293   */\n      jump\t// in\n    tag_95:\n        /* \"ERC721.sol\":1231:1294   */\n      tag_97\n      jumpi\n      0x00\n      dup1\n      revert\n    tag_97:\n        /* \"ERC721.sol\":1108:1302   */\n      pop\n      pop\n      pop\n      jump\t// out\n        /* \"ERC721.sol\":863:984   */\n    tag_61:\n        /* \"ERC721.sol\":920:935   */\n      0x00\n        /* \"ERC721.sol\":960:969   */\n      0x01\n        /* \"ERC721.sol\":960:976   */\n      0x00\n        /* \"ERC721.sol\":970:975   */\n      dup4\n        /* \"ERC721.sol\":960:976   */\n      0xffffffffffffffffffffffffffffffffffffffff\n      and\n      0xffffffffffffffffffffffffffffffffffffffff\n      and\n      dup2\n      mstore\n      0x20\n      add\n      swap1\n      dup2\n      mstore\n      0x20\n      add\n      0x00\n      keccak256\n      sload\n        /* \"ERC721.sol\":953:976   */\n      swap1\n      pop\n        /* \"ERC721.sol\":863:984   */\n      swap2\n      swap1\n      pop\n      jump\t// out\n        /* \"Plot.sol\":607:758   */\n    tag_66:\n        /* \"Plot.sol\":721:750   */\n      tag_100\n        /* \"Plot.sol\":738:740   */\n      dup3\n        /* \"Plot.sol\":742:749   */\n      dup3\n        /* \"Plot.sol\":721:737   */\n      tag_75\n        /* \"Plot.sol\":721:750   */\n      jump\t// in\n    tag_100:\n        /* \"Plot.sol\":607:758   */\n      pop\n      pop\n      jump\t// out\n        /* \"Plot.sol\":1039:1127   */\n    tag_68:\n        /* \"Plot.sol\":1082:1086   */\n      0x00\n        /* \"Plot.sol\":1111:1119   */\n      0x07\n      0x00\n      swap1\n      sload\n      swap1\n      0x0100\n      exp\n      swap1\n      div\n      0xff\n      and\n        /* \"Plot.sol\":1104:1119   */\n      swap1\n      pop\n        /* \"Plot.sol\":1039:1127   */\n      swap1\n      jump\t// out\n        /* \"Plot.sol\":233:253   */\n    tag_71:\n      0x05\n      0x00\n      swap1\n      sload\n      swap1\n      0x0100\n      exp\n      swap1\n      div\n      0xffffffffffffffffffffffffffffffffffffffff\n      and\n      dup2\n      jump\t// out\n        /* \"ERC721.sol\":992:1099   */\n    tag_75:\n        /* \"ERC721.sol\":1065:1091   */\n      tag_103\n        /* \"ERC721.sol\":1076:1078   */\n      dup3\n        /* \"ERC721.sol\":1079:1086   */\n      dup3\n        /* \"ERC721.sol\":1065:1091   */\n      mload(0x40)\n      dup1\n      0x20\n      add\n      0x40\n      mstore\n      dup1\n      0x00\n      dup2\n      mstore\n      pop\n        /* \"ERC721.sol\":1065:1074   */\n      tag_57\n        /* \"ERC721.sol\":1065:1091   */\n      jump\t// in\n    tag_103:\n        /* \"ERC721.sol\":992:1099   */\n      pop\n      pop\n      jump\t// out\n        /* \"Plot.sol\":830:926   */\n    tag_77:\n        /* \"Plot.sol\":876:883   */\n      0x00\n        /* \"Plot.sol\":908:918   */\n      sload(0x03)\n        /* \"Plot.sol\":901:918   */\n      swap1\n      pop\n        /* \"Plot.sol\":830:926   */\n      swap1\n      jump\t// out\n        /* \"ERC721.sol\":1310:1786   */\n    tag_94:\n        /* \"ERC721.sol\":1410:1411   */\n      0x00\n        /* \"ERC721.sol\":1396:1412   */\n      0xffffffffffffffffffffffffffffffffffffffff\n      and\n        /* \"ERC721.sol\":1396:1398   */\n      dup3\n        /* \"ERC721.sol\":1396:1412   */\n      0xffffffffffffffffffffffffffffffffffffffff\n      and\n      sub\n        /* \"ERC721.sol\":1388:1455   */\n      tag_106\n      jumpi\n      mload(0x40)\n      0x08c379a000000000000000000000000000000000000000000000000000000000\n      dup2\n      mstore\n      0x04\n      add\n      tag_107\n      swap1\n      tag_108\n      jump\t// in\n    tag_107:\n      mload(0x40)\n      dup1\n      swap2\n      sub\n      swap1\n      revert\n    tag_106:\n        /* \"ERC721.sol\":1476:1492   */\n      tag_109\n        /* \"ERC721.sol\":1484:1491   */\n      dup2\n        /* \"ERC721.sol\":1476:1483   */\n      tag_110\n        /* \"ERC721.sol\":1476:1492   */\n      jump\t// in\n    tag_109:\n        /* \"ERC721.sol\":1475:1492   */\n      iszero\n        /* \"ERC721.sol\":1466:1531   */\n      tag_111\n      jumpi\n      mload(0x40)\n      0x08c379a000000000000000000000000000000000000000000000000000000000\n      dup2\n      mstore\n      0x04\n      add\n      tag_112\n      swap1\n      tag_113\n      jump\t// in\n    tag_112:\n      mload(0x40)\n      dup1\n      swap2\n      sub\n      swap1\n      revert\n    tag_111:\n        /* \"ERC721.sol\":1694:1695   */\n      0x01\n        /* \"ERC721.sol\":1679:1688   */\n      dup1\n        /* \"ERC721.sol\":1679:1692   */\n      0x00\n        /* \"ERC721.sol\":1689:1691   */\n      dup5\n        /* \"ERC721.sol\":1679:1692   */\n      0xffffffffffffffffffffffffffffffffffffffff\n      and\n      0xffffffffffffffffffffffffffffffffffffffff\n      and\n      dup2\n      mstore\n      0x20\n      add\n      swap1\n      dup2\n      mstore\n      0x20\n      add\n      0x00\n      keccak256\n      0x00\n        /* \"ERC721.sol\":1679:1695   */\n      dup3\n      dup3\n      sload\n      tag_114\n      swap2\n      swap1\n      tag_115\n      jump\t// in\n    tag_114:\n      swap3\n      pop\n      pop\n      dup2\n      swap1\n      sstore\n      pop\n        /* \"ERC721.sol\":1725:1727   */\n      dup2\n        /* \"ERC721.sol\":1706:1713   */\n      0x00\n        /* \"ERC721.sol\":1706:1722   */\n      dup1\n        /* \"ERC721.sol\":1714:1721   */\n      dup4\n        /* \"ERC721.sol\":1706:1722   */\n      dup2\n      mstore\n      0x20\n      add\n      swap1\n      dup2\n      mstore\n      0x20\n      add\n      0x00\n      keccak256\n      0x00\n        /* \"ERC721.sol\":1706:1727   */\n      0x0100\n      exp\n      dup2\n      sload\n      dup2\n      0xffffffffffffffffffffffffffffffffffffffff\n      mul\n      not\n      and\n      swap1\n      dup4\n      0xffffffffffffffffffffffffffffffffffffffff\n      and\n      mul\n      or\n      swap1\n      sstore\n      pop\n        /* \"ERC721.sol\":1770:1777   */\n      dup1\n        /* \"ERC721.sol\":1766:1768   */\n      dup3\n        /* \"ERC721.sol\":1745:1778   */\n      0xffffffffffffffffffffffffffffffffffffffff\n      and\n        /* \"ERC721.sol\":1762:1763   */\n      0x00\n        /* \"ERC721.sol\":1745:1778   */\n      0xffffffffffffffffffffffffffffffffffffffff\n      and\n      0xddf252ad1be2c89b69c2b068fc378daa952ba7f163c4a11628f55a4df523b3ef\n      mload(0x40)\n      mload(0x40)\n      dup1\n      swap2\n      sub\n      swap1\n      log4\n        /* \"ERC721.sol\":1310:1786   */\n      pop\n      pop\n      jump\t// out\n        /* \"ERC721.sol\":1965:2754   */\n    tag_96:\n        /* \"ERC721.sol\":2077:2081   */\n      0x00\n        /* \"ERC721.sol\":2104:2118   */\n      tag_117\n        /* \"ERC721.sol\":2115:2117   */\n      dup5\n        /* \"ERC721.sol\":2104:2114   */\n      tag_118\n        /* \"ERC721.sol\":2104:2118   */\n      jump\t// in\n    tag_117:\n        /* \"ERC721.sol\":2100:2747   */\n      iszero\n      tag_119\n      jumpi\n        /* \"ERC721.sol\":2165:2167   */\n      dup4\n        /* \"ERC721.sol\":2149:2185   */\n      0xffffffffffffffffffffffffffffffffffffffff\n      and\n      0x150b7a02\n        /* \"ERC721.sol\":2186:2196   */\n      caller\n        /* \"ERC721.sol\":2198:2202   */\n      dup8\n        /* \"ERC721.sol\":2204:2211   */\n      dup7\n        /* \"ERC721.sol\":2213:2218   */\n      dup7\n        /* \"ERC721.sol\":2149:2219   */\n      mload(0x40)\n      dup6\n      0xffffffff\n      and\n      0xe0\n      shl\n      dup2\n      mstore\n      0x04\n      add\n      tag_120\n      swap5\n      swap4\n      swap3\n      swap2\n      swap1\n      tag_121\n      jump\t// in\n    tag_120:\n      0x20\n      mload(0x40)\n      dup1\n      dup4\n      sub\n      dup2\n      0x00\n      dup8\n      gas\n      call\n      swap3\n      pop\n      pop\n      pop\n      dup1\n      iszero\n      tag_122\n      jumpi\n      pop\n      mload(0x40)\n      returndatasize\n      not(0x1f)\n      0x1f\n      dup3\n      add\n      and\n      dup3\n      add\n      dup1\n      0x40\n      mstore\n      pop\n      dup2\n      add\n      swap1\n      tag_123\n      swap2\n      swap1\n      tag_124\n      jump\t// in\n    tag_123:\n      0x01\n    tag_122:\n        /* \"ERC721.sol\":2145:2672   */\n      tag_125\n      jumpi\n      returndatasize\n      dup1\n      0x00\n      dup2\n      eq\n      tag_130\n      jumpi\n      mload(0x40)\n      swap2\n      pop\n      and(add(returndatasize, 0x3f), not(0x1f))\n      dup3\n      add\n      0x40\n      mstore\n      returndatasize\n      dup3\n      mstore\n      returndatasize\n      0x00\n      0x20\n      dup5\n      add\n      returndatacopy\n      jump(tag_129)\n    tag_130:\n      0x60\n      swap2\n      pop\n    tag_129:\n      pop\n        /* \"ERC721.sol\":2406:2407   */\n      0x00\n        /* \"ERC721.sol\":2389:2395   */\n      dup2\n        /* \"ERC721.sol\":2389:2402   */\n      mload\n        /* \"ERC721.sol\":2389:2407   */\n      sub\n        /* \"ERC721.sol\":2385:2657   */\n      tag_131\n      jumpi\n        /* \"ERC721.sol\":2432:2492   */\n      mload(0x40)\n      0x08c379a000000000000000000000000000000000000000000000000000000000\n      dup2\n      mstore\n      0x04\n      add\n      tag_132\n      swap1\n      tag_133\n      jump\t// in\n    tag_132:\n      mload(0x40)\n      dup1\n      swap2\n      sub\n      swap1\n      revert\n        /* \"ERC721.sol\":2385:2657   */\n    tag_131:\n        /* \"ERC721.sol\":2607:2613   */\n      dup1\n        /* \"ERC721.sol\":2601:2614   */\n      mload\n        /* \"ERC721.sol\":2592:2598   */\n      dup2\n        /* \"ERC721.sol\":2588:2590   */\n      0x20\n        /* \"ERC721.sol\":2584:2599   */\n      add\n        /* \"ERC721.sol\":2577:2615   */\n      revert\n        /* \"ERC721.sol\":2145:2672   */\n    tag_125:\n        /* \"ERC721.sol\":2280:2321   */\n      shl(0xe0, 0x150b7a02)\n        /* \"ERC721.sol\":2270:2321   */\n      not(0xffffffffffffffffffffffffffffffffffffffffffffffffffffffff)\n      and\n        /* \"ERC721.sol\":2270:2276   */\n      dup2\n        /* \"ERC721.sol\":2270:2321   */\n      not(0xffffffffffffffffffffffffffffffffffffffffffffffffffffffff)\n      and\n      eq\n        /* \"ERC721.sol\":2263:2321   */\n      swap2\n      pop\n      pop\n      jump(tag_116)\n        /* \"ERC721.sol\":2100:2747   */\n    tag_119:\n        /* \"ERC721.sol\":2731:2735   */\n      0x01\n        /* \"ERC721.sol\":2724:2735   */\n      swap1\n      pop\n        /* \"ERC721.sol\":1965:2754   */\n    tag_116:\n      swap5\n      swap4\n      pop\n      pop\n      pop\n      pop\n      jump\t// out\n        /* \"ERC721.sol\":1797:1957   */\n    tag_110:\n        /* \"ERC721.sol\":1862:1866   */\n      0x00\n        /* \"ERC721.sol\":1918:1919   */\n      dup1\n        /* \"ERC721.sol\":1891:1920   */\n      0xffffffffffffffffffffffffffffffffffffffff\n      and\n        /* \"ERC721.sol\":1891:1898   */\n      0x00\n        /* \"ERC721.sol\":1891:1907   */\n      dup1\n        /* \"ERC721.sol\":1899:1906   */\n      dup5\n        /* \"ERC721.sol\":1891:1907   */\n      dup2\n      mstore\n      0x20\n      add\n      swap1\n      dup2\n      mstore\n      0x20\n      add\n      0x00\n      keccak256\n      0x00\n      swap1\n      sload\n      swap1\n      0x0100\n      exp\n      swap1\n      div\n      0xffffffffffffffffffffffffffffffffffffffff\n      and\n        /* \"ERC721.sol\":1891:1920   */\n      0xffffffffffffffffffffffffffffffffffffffff\n      and\n      eq\n      iszero\n        /* \"ERC721.sol\":1884:1920   */\n      swap1\n      pop\n        /* \"ERC721.sol\":1797:1957   */\n      swap2\n      swap1\n      pop\n      jump\t// out\n        /* \"ERC721.sol\":2762:2967   */\n    tag_118:\n        /* \"ERC721.sol\":2819:2823   */\n      0x00\n        /* \"ERC721.sol\":2841:2852   */\n      dup1\n        /* \"ERC721.sol\":2917:2922   */\n      dup3\n        /* \"ERC721.sol\":2905:2923   */\n      extcodesize\n        /* \"ERC721.sol\":2897:2923   */\n      swap1\n      pop\n        /* \"ERC721.sol\":2957:2958   */\n      0x00\n        /* \"ERC721.sol\":2952:2956   */\n      dup2\n        /* \"ERC721.sol\":2952:2958   */\n      0xffffffff\n      and\n      gt\n        /* \"ERC721.sol\":2944:2959   */\n      swap2\n      pop\n      pop\n        /* \"ERC721.sol\":2762:2967   */\n      swap2\n      swap1\n      pop\n      jump\t// out\n        /* \"#utility.yul\":7:82   */\n    tag_139:\n        /* \"#utility.yul\":40:46   */\n      0x00\n        /* \"#utility.yul\":73:75   */\n      0x40\n        /* \"#utility.yul\":67:76   */\n      mload\n        /* \"#utility.yul\":57:76   */\n      swap1\n      pop\n        /* \"#utility.yul\":7:82   */\n      swap1\n      jump\t// out\n        /* \"#utility.yul\":88:205   */\n    tag_140:\n        /* \"#utility.yul\":197:198   */\n      0x00\n        /* \"#utility.yul\":194:195   */\n      dup1\n        /* \"#utility.yul\":187:199   */\n      revert\n        /* \"#utility.yul\":211:328   */\n    tag_141:\n        /* \"#utility.yul\":320:321   */\n      0x00\n        /* \"#utility.yul\":317:318   */\n      dup1\n        /* \"#utility.yul\":310:322   */\n      revert\n        /* \"#utility.yul\":334:483   */\n    tag_142:\n        /* \"#utility.yul\":370:377   */\n      0x00\n        /* \"#utility.yul\":410:476   */\n      0xffffffff00000000000000000000000000000000000000000000000000000000\n        /* \"#utility.yul\":403:408   */\n      dup3\n        /* \"#utility.yul\":399:477   */\n      and\n        /* \"#utility.yul\":388:477   */\n      swap1\n      pop\n        /* \"#utility.yul\":334:483   */\n      swap2\n      swap1\n      pop\n      jump\t// out\n        /* \"#utility.yul\":489:609   */\n    tag_143:\n        /* \"#utility.yul\":561:584   */\n      tag_192\n        /* \"#utility.yul\":578:583   */\n      dup2\n        /* \"#utility.yul\":561:584   */\n      tag_142\n      jump\t// in\n    tag_192:\n        /* \"#utility.yul\":554:559   */\n      dup2\n        /* \"#utility.yul\":551:585   */\n      eq\n        /* \"#utility.yul\":541:603   */\n      tag_193\n      jumpi\n        /* \"#utility.yul\":599:600   */\n      0x00\n        /* \"#utility.yul\":596:597   */\n      dup1\n        /* \"#utility.yul\":589:601   */\n      revert\n        /* \"#utility.yul\":541:603   */\n    tag_193:\n        /* \"#utility.yul\":489:609   */\n      pop\n      jump\t// out\n        /* \"#utility.yul\":615:752   */\n    tag_144:\n        /* \"#utility.yul\":660:665   */\n      0x00\n        /* \"#utility.yul\":698:704   */\n      dup2\n        /* \"#utility.yul\":685:705   */\n      calldataload\n        /* \"#utility.yul\":676:705   */\n      swap1\n      pop\n        /* \"#utility.yul\":714:746   */\n      tag_195\n        /* \"#utility.yul\":740:745   */\n      dup2\n        /* \"#utility.yul\":714:746   */\n      tag_143\n      jump\t// in\n    tag_195:\n        /* \"#utility.yul\":615:752   */\n      swap3\n      swap2\n      pop\n      pop\n      jump\t// out\n        /* \"#utility.yul\":758:1085   */\n    tag_23:\n        /* \"#utility.yul\":816:822   */\n      0x00\n        /* \"#utility.yul\":865:867   */\n      0x20\n        /* \"#utility.yul\":853:862   */\n      dup3\n        /* \"#utility.yul\":844:851   */\n      dup5\n        /* \"#utility.yul\":840:863   */\n      sub\n        /* \"#utility.yul\":836:868   */\n      slt\n        /* \"#utility.yul\":833:952   */\n      iszero\n      tag_197\n      jumpi\n        /* \"#utility.yul\":871:950   */\n      tag_198\n      tag_140\n      jump\t// in\n    tag_198:\n        /* \"#utility.yul\":833:952   */\n    tag_197:\n        /* \"#utility.yul\":991:992   */\n      0x00\n        /* \"#utility.yul\":1016:1068   */\n      tag_199\n        /* \"#utility.yul\":1060:1067   */\n      dup5\n        /* \"#utility.yul\":1051:1057   */\n      dup3\n        /* \"#utility.yul\":1040:1049   */\n      dup6\n        /* \"#utility.yul\":1036:1058   */\n      add\n        /* \"#utility.yul\":1016:1068   */\n      tag_144\n      jump\t// in\n    tag_199:\n        /* \"#utility.yul\":1006:1068   */\n      swap2\n      pop\n        /* \"#utility.yul\":962:1078   */\n      pop\n        /* \"#utility.yul\":758:1085   */\n      swap3\n      swap2\n      pop\n      pop\n      jump\t// out\n        /* \"#utility.yul\":1091:1181   */\n    tag_145:\n        /* \"#utility.yul\":1125:1132   */\n      0x00\n        /* \"#utility.yul\":1168:1173   */\n      dup2\n        /* \"#utility.yul\":1161:1174   */\n      iszero\n        /* \"#utility.yul\":1154:1175   */\n      iszero\n        /* \"#utility.yul\":1143:1175   */\n      swap1\n      pop\n        /* \"#utility.yul\":1091:1181   */\n      swap2\n      swap1\n      pop\n      jump\t// out\n        /* \"#utility.yul\":1187:1296   */\n    tag_146:\n        /* \"#utility.yul\":1268:1289   */\n      tag_202\n        /* \"#utility.yul\":1283:1288   */\n      dup2\n        /* \"#utility.yul\":1268:1289   */\n      tag_145\n      jump\t// in\n    tag_202:\n        /* \"#utility.yul\":1263:1266   */\n      dup3\n        /* \"#utility.yul\":1256:1290   */\n      mstore\n        /* \"#utility.yul\":1187:1296   */\n      pop\n      pop\n      jump\t// out\n        /* \"#utility.yul\":1302:1512   */\n    tag_26:\n        /* \"#utility.yul\":1389:1393   */\n      0x00\n        /* \"#utility.yul\":1427:1429   */\n      0x20\n        /* \"#utility.yul\":1416:1425   */\n      dup3\n        /* \"#utility.yul\":1412:1430   */\n      add\n        /* \"#utility.yul\":1404:1430   */\n      swap1\n      pop\n        /* \"#utility.yul\":1440:1505   */\n      tag_204\n        /* \"#utility.yul\":1502:1503   */\n      0x00\n        /* \"#utility.yul\":1491:1500   */\n      dup4\n        /* \"#utility.yul\":1487:1504   */\n      add\n        /* \"#utility.yul\":1478:1484   */\n      dup5\n        /* \"#utility.yul\":1440:1505   */\n      tag_146\n      jump\t// in\n    tag_204:\n        /* \"#utility.yul\":1302:1512   */\n      swap3\n      swap2\n      pop\n      pop\n      jump\t// out\n        /* \"#utility.yul\":1518:1617   */\n    tag_147:\n        /* \"#utility.yul\":1570:1576   */\n      0x00\n        /* \"#utility.yul\":1604:1609   */\n      dup2\n        /* \"#utility.yul\":1598:1610   */\n      mload\n        /* \"#utility.yul\":1588:1610   */\n      swap1\n      pop\n        /* \"#utility.yul\":1518:1617   */\n      swap2\n      swap1\n      pop\n      jump\t// out\n        /* \"#utility.yul\":1623:1792   */\n    tag_148:\n        /* \"#utility.yul\":1707:1718   */\n      0x00\n        /* \"#utility.yul\":1741:1747   */\n      dup3\n        /* \"#utility.yul\":1736:1739   */\n      dup3\n        /* \"#utility.yul\":1729:1748   */\n      mstore\n        /* \"#utility.yul\":1781:1785   */\n      0x20\n        /* \"#utility.yul\":1776:1779   */\n      dup3\n        /* \"#utility.yul\":1772:1786   */\n      add\n        /* \"#utility.yul\":1757:1786   */\n      swap1\n      pop\n        /* \"#utility.yul\":1623:1792   */\n      swap3\n      swap2\n      pop\n      pop\n      jump\t// out\n        /* \"#utility.yul\":1798:2105   */\n    tag_149:\n        /* \"#utility.yul\":1866:1867   */\n      0x00\n        /* \"#utility.yul\":1876:1989   */\n    tag_208:\n        /* \"#utility.yul\":1890:1896   */\n      dup4\n        /* \"#utility.yul\":1887:1888   */\n      dup2\n        /* \"#utility.yul\":1884:1897   */\n      lt\n        /* \"#utility.yul\":1876:1989   */\n      iszero\n      tag_210\n      jumpi\n        /* \"#utility.yul\":1975:1976   */\n      dup1\n        /* \"#utility.yul\":1970:1973   */\n      dup3\n        /* \"#utility.yul\":1966:1977   */\n      add\n        /* \"#utility.yul\":1960:1978   */\n      mload\n        /* \"#utility.yul\":1956:1957   */\n      dup2\n        /* \"#utility.yul\":1951:1954   */\n      dup5\n        /* \"#utility.yul\":1947:1958   */\n      add\n        /* \"#utility.yul\":1940:1979   */\n      mstore\n        /* \"#utility.yul\":1912:1914   */\n      0x20\n        /* \"#utility.yul\":1909:1910   */\n      dup2\n        /* \"#utility.yul\":1905:1915   */\n      add\n        /* \"#utility.yul\":1900:1915   */\n      swap1\n      pop\n        /* \"#utility.yul\":1876:1989   */\n      jump(tag_208)\n    tag_210:\n        /* \"#utility.yul\":2007:2013   */\n      dup4\n        /* \"#utility.yul\":2004:2005   */\n      dup2\n        /* \"#utility.yul\":2001:2014   */\n      gt\n        /* \"#utility.yul\":1998:2099   */\n      iszero\n      tag_211\n      jumpi\n        /* \"#utility.yul\":2087:2088   */\n      0x00\n        /* \"#utility.yul\":2078:2084   */\n      dup5\n        /* \"#utility.yul\":2073:2076   */\n      dup5\n        /* \"#utility.yul\":2069:2085   */\n      add\n        /* \"#utility.yul\":2062:2089   */\n      mstore\n        /* \"#utility.yul\":1998:2099   */\n    tag_211:\n        /* \"#utility.yul\":1847:2105   */\n      pop\n        /* \"#utility.yul\":1798:2105   */\n      pop\n      pop\n      pop\n      jump\t// out\n        /* \"#utility.yul\":2111:2213   */\n    tag_150:\n        /* \"#utility.yul\":2152:2158   */\n      0x00\n        /* \"#utility.yul\":2203:2205   */\n      0x1f\n        /* \"#utility.yul\":2199:2206   */\n      not\n        /* \"#utility.yul\":2194:2196   */\n      0x1f\n        /* \"#utility.yul\":2187:2192   */\n      dup4\n        /* \"#utility.yul\":2183:2197   */\n      add\n        /* \"#utility.yul\":2179:2207   */\n      and\n        /* \"#utility.yul\":2169:2207   */\n      swap1\n      pop\n        /* \"#utility.yul\":2111:2213   */\n      swap2\n      swap1\n      pop\n      jump\t// out\n        /* \"#utility.yul\":2219:2583   */\n    tag_151:\n        /* \"#utility.yul\":2307:2310   */\n      0x00\n        /* \"#utility.yul\":2335:2374   */\n      tag_214\n        /* \"#utility.yul\":2368:2373   */\n      dup3\n        /* \"#utility.yul\":2335:2374   */\n      tag_147\n      jump\t// in\n    tag_214:\n        /* \"#utility.yul\":2390:2461   */\n      tag_215\n        /* \"#utility.yul\":2454:2460   */\n      dup2\n        /* \"#utility.yul\":2449:2452   */\n      dup6\n        /* \"#utility.yul\":2390:2461   */\n      tag_148\n      jump\t// in\n    tag_215:\n        /* \"#utility.yul\":2383:2461   */\n      swap4\n      pop\n        /* \"#utility.yul\":2470:2522   */\n      tag_216\n        /* \"#utility.yul\":2515:2521   */\n      dup2\n        /* \"#utility.yul\":2510:2513   */\n      dup6\n        /* \"#utility.yul\":2503:2507   */\n      0x20\n        /* \"#utility.yul\":2496:2501   */\n      dup7\n        /* \"#utility.yul\":2492:2508   */\n      add\n        /* \"#utility.yul\":2470:2522   */\n      tag_149\n      jump\t// in\n    tag_216:\n        /* \"#utility.yul\":2547:2576   */\n      tag_217\n        /* \"#utility.yul\":2569:2575   */\n      dup2\n        /* \"#utility.yul\":2547:2576   */\n      tag_150\n      jump\t// in\n    tag_217:\n        /* \"#utility.yul\":2542:2545   */\n      dup5\n        /* \"#utility.yul\":2538:2577   */\n      add\n        /* \"#utility.yul\":2531:2577   */\n      swap2\n      pop\n        /* \"#utility.yul\":2311:2583   */\n      pop\n        /* \"#utility.yul\":2219:2583   */\n      swap3\n      swap2\n      pop\n      pop\n      jump\t// out\n        /* \"#utility.yul\":2589:2902   */\n    tag_30:\n        /* \"#utility.yul\":2702:2706   */\n      0x00\n        /* \"#utility.yul\":2740:2742   */\n      0x20\n        /* \"#utility.yul\":2729:2738   */\n      dup3\n        /* \"#utility.yul\":2725:2743   */\n      add\n        /* \"#utility.yul\":2717:2743   */\n      swap1\n      pop\n        /* \"#utility.yul\":2789:2798   */\n      dup2\n        /* \"#utility.yul\":2783:2787   */\n      dup2\n        /* \"#utility.yul\":2779:2799   */\n      sub\n        /* \"#utility.yul\":2775:2776   */\n      0x00\n        /* \"#utility.yul\":2764:2773   */\n      dup4\n        /* \"#utility.yul\":2760:2777   */\n      add\n        /* \"#utility.yul\":2753:2800   */\n      mstore\n        /* \"#utility.yul\":2817:2895   */\n      tag_219\n        /* \"#utility.yul\":2890:2894   */\n      dup2\n        /* \"#utility.yul\":2881:2887   */\n      dup5\n        /* \"#utility.yul\":2817:2895   */\n      tag_151\n      jump\t// in\n    tag_219:\n        /* \"#utility.yul\":2809:2895   */\n      swap1\n      pop\n        /* \"#utility.yul\":2589:2902   */\n      swap3\n      swap2\n      pop\n      pop\n      jump\t// out\n        /* \"#utility.yul\":2908:2985   */\n    tag_152:\n        /* \"#utility.yul\":2945:2952   */\n      0x00\n        /* \"#utility.yul\":2974:2979   */\n      dup2\n        /* \"#utility.yul\":2963:2979   */\n      swap1\n      pop\n        /* \"#utility.yul\":2908:2985   */\n      swap2\n      swap1\n      pop\n      jump\t// out\n        /* \"#utility.yul\":2991:3109   */\n    tag_153:\n        /* \"#utility.yul\":3078:3102   */\n      tag_222\n        /* \"#utility.yul\":3096:3101   */\n      dup2\n        /* \"#utility.yul\":3078:3102   */\n      tag_152\n      jump\t// in\n    tag_222:\n        /* \"#utility.yul\":3073:3076   */\n      dup3\n        /* \"#utility.yul\":3066:3103   */\n      mstore\n        /* \"#utility.yul\":2991:3109   */\n      pop\n      pop\n      jump\t// out\n        /* \"#utility.yul\":3115:3337   */\n    tag_34:\n        /* \"#utility.yul\":3208:3212   */\n      0x00\n        /* \"#utility.yul\":3246:3248   */\n      0x20\n        /* \"#utility.yul\":3235:3244   */\n      dup3\n        /* \"#utility.yul\":3231:3249   */\n      add\n        /* \"#utility.yul\":3223:3249   */\n      swap1\n      pop\n        /* \"#utility.yul\":3259:3330   */\n      tag_224\n        /* \"#utility.yul\":3327:3328   */\n      0x00\n        /* \"#utility.yul\":3316:3325   */\n      dup4\n        /* \"#utility.yul\":3312:3329   */\n      add\n        /* \"#utility.yul\":3303:3309   */\n      dup5\n        /* \"#utility.yul\":3259:3330   */\n      tag_153\n      jump\t// in\n    tag_224:\n        /* \"#utility.yul\":3115:3337   */\n      swap3\n      swap2\n      pop\n      pop\n      jump\t// out\n        /* \"#utility.yul\":3343:3459   */\n    tag_154:\n        /* \"#utility.yul\":3413:3434   */\n      tag_226\n        /* \"#utility.yul\":3428:3433   */\n      dup2\n        /* \"#utility.yul\":3413:3434   */\n      tag_145\n      jump\t// in\n    tag_226:\n        /* \"#utility.yul\":3406:3411   */\n      dup2\n        /* \"#utility.yul\":3403:3435   */\n      eq\n        /* \"#utility.yul\":3393:3453   */\n      tag_227\n      jumpi\n        /* \"#utility.yul\":3449:3450   */\n      0x00\n        /* \"#utility.yul\":3446:3447   */\n      dup1\n        /* \"#utility.yul\":3439:3451   */\n      revert\n        /* \"#utility.yul\":3393:3453   */\n    tag_227:\n        /* \"#utility.yul\":3343:3459   */\n      pop\n      jump\t// out\n        /* \"#utility.yul\":3465:3598   */\n    tag_155:\n        /* \"#utility.yul\":3508:3513   */\n      0x00\n        /* \"#utility.yul\":3546:3552   */\n      dup2\n        /* \"#utility.yul\":3533:3553   */\n      calldataload\n        /* \"#utility.yul\":3524:3553   */\n      swap1\n      pop\n        /* \"#utility.yul\":3562:3592   */\n      tag_229\n        /* \"#utility.yul\":3586:3591   */\n      dup2\n        /* \"#utility.yul\":3562:3592   */\n      tag_154\n      jump\t// in\n    tag_229:\n        /* \"#utility.yul\":3465:3598   */\n      swap3\n      swap2\n      pop\n      pop\n      jump\t// out\n        /* \"#utility.yul\":3604:3927   */\n    tag_43:\n        /* \"#utility.yul\":3660:3666   */\n      0x00\n        /* \"#utility.yul\":3709:3711   */\n      0x20\n        /* \"#utility.yul\":3697:3706   */\n      dup3\n        /* \"#utility.yul\":3688:3695   */\n      dup5\n        /* \"#utility.yul\":3684:3707   */\n      sub\n        /* \"#utility.yul\":3680:3712   */\n      slt\n        /* \"#utility.yul\":3677:3796   */\n      iszero\n      tag_231\n      jumpi\n        /* \"#utility.yul\":3715:3794   */\n      tag_232\n      tag_140\n      jump\t// in\n    tag_232:\n        /* \"#utility.yul\":3677:3796   */\n    tag_231:\n        /* \"#utility.yul\":3835:3836   */\n      0x00\n        /* \"#utility.yul\":3860:3910   */\n      tag_233\n        /* \"#utility.yul\":3902:3909   */\n      dup5\n        /* \"#utility.yul\":3893:3899   */\n      dup3\n        /* \"#utility.yul\":3882:3891   */\n      dup6\n        /* \"#utility.yul\":3878:3900   */\n      add\n        /* \"#utility.yul\":3860:3910   */\n      tag_155\n      jump\t// in\n    tag_233:\n        /* \"#utility.yul\":3850:3910   */\n      swap2\n      pop\n        /* \"#utility.yul\":3806:3920   */\n      pop\n        /* \"#utility.yul\":3604:3927   */\n      swap3\n      swap2\n      pop\n      pop\n      jump\t// out\n        /* \"#utility.yul\":3933:4055   */\n    tag_156:\n        /* \"#utility.yul\":4006:4030   */\n      tag_235\n        /* \"#utility.yul\":4024:4029   */\n      dup2\n        /* \"#utility.yul\":4006:4030   */\n      tag_152\n      jump\t// in\n    tag_235:\n        /* \"#utility.yul\":3999:4004   */\n      dup2\n        /* \"#utility.yul\":3996:4031   */\n      eq\n        /* \"#utility.yul\":3986:4049   */\n      tag_236\n      jumpi\n        /* \"#utility.yul\":4045:4046   */\n      0x00\n        /* \"#utility.yul\":4042:4043   */\n      dup1\n        /* \"#utility.yul\":4035:4047   */\n      revert\n        /* \"#utility.yul\":3986:4049   */\n    tag_236:\n        /* \"#utility.yul\":3933:4055   */\n      pop\n      jump\t// out\n        /* \"#utility.yul\":4061:4200   */\n    tag_157:\n        /* \"#utility.yul\":4107:4112   */\n      0x00\n        /* \"#utility.yul\":4145:4151   */\n      dup2\n        /* \"#utility.yul\":4132:4152   */\n      calldataload\n        /* \"#utility.yul\":4123:4152   */\n      swap1\n      pop\n        /* \"#utility.yul\":4161:4194   */\n      tag_238\n        /* \"#utility.yul\":4188:4193   */\n      dup2\n        /* \"#utility.yul\":4161:4194   */\n      tag_156\n      jump\t// in\n    tag_238:\n        /* \"#utility.yul\":4061:4200   */\n      swap3\n      swap2\n      pop\n      pop\n      jump\t// out\n        /* \"#utility.yul\":4206:4535   */\n    tag_50:\n        /* \"#utility.yul\":4265:4271   */\n      0x00\n        /* \"#utility.yul\":4314:4316   */\n      0x20\n        /* \"#utility.yul\":4302:4311   */\n      dup3\n        /* \"#utility.yul\":4293:4300   */\n      dup5\n        /* \"#utility.yul\":4289:4312   */\n      sub\n        /* \"#utility.yul\":4285:4317   */\n      slt\n        /* \"#utility.yul\":4282:4401   */\n      iszero\n      tag_240\n      jumpi\n        /* \"#utility.yul\":4320:4399   */\n      tag_241\n      tag_140\n      jump\t// in\n    tag_241:\n        /* \"#utility.yul\":4282:4401   */\n    tag_240:\n        /* \"#utility.yul\":4440:4441   */\n      0x00\n        /* \"#utility.yul\":4465:4518   */\n      tag_242\n        /* \"#utility.yul\":4510:4517   */\n      dup5\n        /* \"#utility.yul\":4501:4507   */\n      dup3\n        /* \"#utility.yul\":4490:4499   */\n      dup6\n        /* \"#utility.yul\":4486:4508   */\n      add\n        /* \"#utility.yul\":4465:4518   */\n      tag_157\n      jump\t// in\n    tag_242:\n        /* \"#utility.yul\":4455:4518   */\n      swap2\n      pop\n        /* \"#utility.yul\":4411:4528   */\n      pop\n        /* \"#utility.yul\":4206:4535   */\n      swap3\n      swap2\n      pop\n      pop\n      jump\t// out\n        /* \"#utility.yul\":4541:4667   */\n    tag_158:\n        /* \"#utility.yul\":4578:4585   */\n      0x00\n        /* \"#utility.yul\":4618:4660   */\n      0xffffffffffffffffffffffffffffffffffffffff\n        /* \"#utility.yul\":4611:4616   */\n      dup3\n        /* \"#utility.yul\":4607:4661   */\n      and\n        /* \"#utility.yul\":4596:4661   */\n      swap1\n      pop\n        /* \"#utility.yul\":4541:4667   */\n      swap2\n      swap1\n      pop\n      jump\t// out\n        /* \"#utility.yul\":4673:4769   */\n    tag_159:\n        /* \"#utility.yul\":4710:4717   */\n      0x00\n        /* \"#utility.yul\":4739:4763   */\n      tag_245\n        /* \"#utility.yul\":4757:4762   */\n      dup3\n        /* \"#utility.yul\":4739:4763   */\n      tag_158\n      jump\t// in\n    tag_245:\n        /* \"#utility.yul\":4728:4763   */\n      swap1\n      pop\n        /* \"#utility.yul\":4673:4769   */\n      swap2\n      swap1\n      pop\n      jump\t// out\n        /* \"#utility.yul\":4775:4893   */\n    tag_160:\n        /* \"#utility.yul\":4862:4886   */\n      tag_247\n        /* \"#utility.yul\":4880:4885   */\n      dup2\n        /* \"#utility.yul\":4862:4886   */\n      tag_159\n      jump\t// in\n    tag_247:\n        /* \"#utility.yul\":4857:4860   */\n      dup3\n        /* \"#utility.yul\":4850:4887   */\n      mstore\n        /* \"#utility.yul\":4775:4893   */\n      pop\n      pop\n      jump\t// out\n        /* \"#utility.yul\":4899:5121   */\n    tag_53:\n        /* \"#utility.yul\":4992:4996   */\n      0x00\n        /* \"#utility.yul\":5030:5032   */\n      0x20\n        /* \"#utility.yul\":5019:5028   */\n      dup3\n        /* \"#utility.yul\":5015:5033   */\n      add\n        /* \"#utility.yul\":5007:5033   */\n      swap1\n      pop\n        /* \"#utility.yul\":5043:5114   */\n      tag_249\n        /* \"#utility.yul\":5111:5112   */\n      0x00\n        /* \"#utility.yul\":5100:5109   */\n      dup4\n        /* \"#utility.yul\":5096:5113   */\n      add\n        /* \"#utility.yul\":5087:5093   */\n      dup5\n        /* \"#utility.yul\":5043:5114   */\n      tag_160\n      jump\t// in\n    tag_249:\n        /* \"#utility.yul\":4899:5121   */\n      swap3\n      swap2\n      pop\n      pop\n      jump\t// out\n        /* \"#utility.yul\":5127:5249   */\n    tag_161:\n        /* \"#utility.yul\":5200:5224   */\n      tag_251\n        /* \"#utility.yul\":5218:5223   */\n      dup2\n        /* \"#utility.yul\":5200:5224   */\n      tag_159\n      jump\t// in\n    tag_251:\n        /* \"#utility.yul\":5193:5198   */\n      dup2\n        /* \"#utility.yul\":5190:5225   */\n      eq\n        /* \"#utility.yul\":5180:5243   */\n      tag_252\n      jumpi\n        /* \"#utility.yul\":5239:5240   */\n      0x00\n        /* \"#utility.yul\":5236:5237   */\n      dup1\n        /* \"#utility.yul\":5229:5241   */\n      revert\n        /* \"#utility.yul\":5180:5243   */\n    tag_252:\n        /* \"#utility.yul\":5127:5249   */\n      pop\n      jump\t// out\n        /* \"#utility.yul\":5255:5394   */\n    tag_162:\n        /* \"#utility.yul\":5301:5306   */\n      0x00\n        /* \"#utility.yul\":5339:5345   */\n      dup2\n        /* \"#utility.yul\":5326:5346   */\n      calldataload\n        /* \"#utility.yul\":5317:5346   */\n      swap1\n      pop\n        /* \"#utility.yul\":5355:5388   */\n      tag_254\n        /* \"#utility.yul\":5382:5387   */\n      dup2\n        /* \"#utility.yul\":5355:5388   */\n      tag_161\n      jump\t// in\n    tag_254:\n        /* \"#utility.yul\":5255:5394   */\n      swap3\n      swap2\n      pop\n      pop\n      jump\t// out\n        /* \"#utility.yul\":5400:5517   */\n    tag_163:\n        /* \"#utility.yul\":5509:5510   */\n      0x00\n        /* \"#utility.yul\":5506:5507   */\n      dup1\n        /* \"#utility.yul\":5499:5511   */\n      revert\n        /* \"#utility.yul\":5523:5640   */\n    tag_164:\n        /* \"#utility.yul\":5632:5633   */\n      0x00\n        /* \"#utility.yul\":5629:5630   */\n      dup1\n        /* \"#utility.yul\":5622:5634   */\n      revert\n        /* \"#utility.yul\":5646:5826   */\n    tag_165:\n        /* \"#utility.yul\":5694:5771   */\n      0x4e487b7100000000000000000000000000000000000000000000000000000000\n        /* \"#utility.yul\":5691:5692   */\n      0x00\n        /* \"#utility.yul\":5684:5772   */\n      mstore\n        /* \"#utility.yul\":5791:5795   */\n      0x41\n        /* \"#utility.yul\":5788:5789   */\n      0x04\n        /* \"#utility.yul\":5781:5796   */\n      mstore\n        /* \"#utility.yul\":5815:5819   */\n      0x24\n        /* \"#utility.yul\":5812:5813   */\n      0x00\n        /* \"#utility.yul\":5805:5820   */\n      revert\n        /* \"#utility.yul\":5832:6113   */\n    tag_166:\n        /* \"#utility.yul\":5915:5942   */\n      tag_259\n        /* \"#utility.yul\":5937:5941   */\n      dup3\n        /* \"#utility.yul\":5915:5942   */\n      tag_150\n      jump\t// in\n    tag_259:\n        /* \"#utility.yul\":5907:5913   */\n      dup2\n        /* \"#utility.yul\":5903:5943   */\n      add\n        /* \"#utility.yul\":6045:6051   */\n      dup2\n        /* \"#utility.yul\":6033:6043   */\n      dup2\n        /* \"#utility.yul\":6030:6052   */\n      lt\n        /* \"#utility.yul\":6009:6027   */\n      0xffffffffffffffff\n        /* \"#utility.yul\":5997:6007   */\n      dup3\n        /* \"#utility.yul\":5994:6028   */\n      gt\n        /* \"#utility.yul\":5991:6053   */\n      or\n        /* \"#utility.yul\":5988:6076   */\n      iszero\n      tag_260\n      jumpi\n        /* \"#utility.yul\":6056:6074   */\n      tag_261\n      tag_165\n      jump\t// in\n    tag_261:\n        /* \"#utility.yul\":5988:6076   */\n    tag_260:\n        /* \"#utility.yul\":6096:6106   */\n      dup1\n        /* \"#utility.yul\":6092:6094   */\n      0x40\n        /* \"#utility.yul\":6085:6107   */\n      mstore\n        /* \"#utility.yul\":5875:6113   */\n      pop\n        /* \"#utility.yul\":5832:6113   */\n      pop\n      pop\n      jump\t// out\n        /* \"#utility.yul\":6119:6248   */\n    tag_167:\n        /* \"#utility.yul\":6153:6159   */\n      0x00\n        /* \"#utility.yul\":6180:6200   */\n      tag_263\n      tag_139\n      jump\t// in\n    tag_263:\n        /* \"#utility.yul\":6170:6200   */\n      swap1\n      pop\n        /* \"#utility.yul\":6209:6242   */\n      tag_264\n        /* \"#utility.yul\":6237:6241   */\n      dup3\n        /* \"#utility.yul\":6229:6235   */\n      dup3\n        /* \"#utility.yul\":6209:6242   */\n      tag_166\n      jump\t// in\n    tag_264:\n        /* \"#utility.yul\":6119:6248   */\n      swap2\n      swap1\n      pop\n      jump\t// out\n        /* \"#utility.yul\":6254:6561   */\n    tag_168:\n        /* \"#utility.yul\":6315:6319   */\n      0x00\n        /* \"#utility.yul\":6405:6423   */\n      0xffffffffffffffff\n        /* \"#utility.yul\":6397:6403   */\n      dup3\n        /* \"#utility.yul\":6394:6424   */\n      gt\n        /* \"#utility.yul\":6391:6447   */\n      iszero\n      tag_266\n      jumpi\n        /* \"#utility.yul\":6427:6445   */\n      tag_267\n      tag_165\n      jump\t// in\n    tag_267:\n        /* \"#utility.yul\":6391:6447   */\n    tag_266:\n        /* \"#utility.yul\":6465:6494   */\n      tag_268\n        /* \"#utility.yul\":6487:6493   */\n      dup3\n        /* \"#utility.yul\":6465:6494   */\n      tag_150\n      jump\t// in\n    tag_268:\n        /* \"#utility.yul\":6457:6494   */\n      swap1\n      pop\n        /* \"#utility.yul\":6549:6553   */\n      0x20\n        /* \"#utility.yul\":6543:6547   */\n      dup2\n        /* \"#utility.yul\":6539:6554   */\n      add\n        /* \"#utility.yul\":6531:6554   */\n      swap1\n      pop\n        /* \"#utility.yul\":6254:6561   */\n      swap2\n      swap1\n      pop\n      jump\t// out\n        /* \"#utility.yul\":6567:6721   */\n    tag_169:\n        /* \"#utility.yul\":6651:6657   */\n      dup3\n        /* \"#utility.yul\":6646:6649   */\n      dup2\n        /* \"#utility.yul\":6641:6644   */\n      dup4\n        /* \"#utility.yul\":6628:6658   */\n      calldatacopy\n        /* \"#utility.yul\":6713:6714   */\n      0x00\n        /* \"#utility.yul\":6704:6710   */\n      dup4\n        /* \"#utility.yul\":6699:6702   */\n      dup4\n        /* \"#utility.yul\":6695:6711   */\n      add\n        /* \"#utility.yul\":6688:6715   */\n      mstore\n        /* \"#utility.yul\":6567:6721   */\n      pop\n      pop\n      pop\n      jump\t// out\n        /* \"#utility.yul\":6727:7137   */\n    tag_170:\n        /* \"#utility.yul\":6804:6809   */\n      0x00\n        /* \"#utility.yul\":6829:6894   */\n      tag_271\n        /* \"#utility.yul\":6845:6893   */\n      tag_272\n        /* \"#utility.yul\":6886:6892   */\n      dup5\n        /* \"#utility.yul\":6845:6893   */\n      tag_168\n      jump\t// in\n    tag_272:\n        /* \"#utility.yul\":6829:6894   */\n      tag_167\n      jump\t// in\n    tag_271:\n        /* \"#utility.yul\":6820:6894   */\n      swap1\n      pop\n        /* \"#utility.yul\":6917:6923   */\n      dup3\n        /* \"#utility.yul\":6910:6915   */\n      dup2\n        /* \"#utility.yul\":6903:6924   */\n      mstore\n        /* \"#utility.yul\":6955:6959   */\n      0x20\n        /* \"#utility.yul\":6948:6953   */\n      dup2\n        /* \"#utility.yul\":6944:6960   */\n      add\n        /* \"#utility.yul\":6993:6996   */\n      dup5\n        /* \"#utility.yul\":6984:6990   */\n      dup5\n        /* \"#utility.yul\":6979:6982   */\n      dup5\n        /* \"#utility.yul\":6975:6991   */\n      add\n        /* \"#utility.yul\":6972:6997   */\n      gt\n        /* \"#utility.yul\":6969:7081   */\n      iszero\n      tag_273\n      jumpi\n        /* \"#utility.yul\":7000:7079   */\n      tag_274\n      tag_164\n      jump\t// in\n    tag_274:\n        /* \"#utility.yul\":6969:7081   */\n    tag_273:\n        /* \"#utility.yul\":7090:7131   */\n      tag_275\n        /* \"#utility.yul\":7124:7130   */\n      dup5\n        /* \"#utility.yul\":7119:7122   */\n      dup3\n        /* \"#utility.yul\":7114:7117   */\n      dup6\n        /* \"#utility.yul\":7090:7131   */\n      tag_169\n      jump\t// in\n    tag_275:\n        /* \"#utility.yul\":6810:7137   */\n      pop\n        /* \"#utility.yul\":6727:7137   */\n      swap4\n      swap3\n      pop\n      pop\n      pop\n      jump\t// out\n        /* \"#utility.yul\":7156:7494   */\n    tag_171:\n        /* \"#utility.yul\":7211:7216   */\n      0x00\n        /* \"#utility.yul\":7260:7263   */\n      dup3\n        /* \"#utility.yul\":7253:7257   */\n      0x1f\n        /* \"#utility.yul\":7245:7251   */\n      dup4\n        /* \"#utility.yul\":7241:7258   */\n      add\n        /* \"#utility.yul\":7237:7264   */\n      slt\n        /* \"#utility.yul\":7227:7349   */\n      tag_277\n      jumpi\n        /* \"#utility.yul\":7268:7347   */\n      tag_278\n      tag_163\n      jump\t// in\n    tag_278:\n        /* \"#utility.yul\":7227:7349   */\n    tag_277:\n        /* \"#utility.yul\":7385:7391   */\n      dup2\n        /* \"#utility.yul\":7372:7392   */\n      calldataload\n        /* \"#utility.yul\":7410:7488   */\n      tag_279\n        /* \"#utility.yul\":7484:7487   */\n      dup5\n        /* \"#utility.yul\":7476:7482   */\n      dup3\n        /* \"#utility.yul\":7469:7473   */\n      0x20\n        /* \"#utility.yul\":7461:7467   */\n      dup7\n        /* \"#utility.yul\":7457:7474   */\n      add\n        /* \"#utility.yul\":7410:7488   */\n      tag_170\n      jump\t// in\n    tag_279:\n        /* \"#utility.yul\":7401:7488   */\n      swap2\n      pop\n        /* \"#utility.yul\":7217:7494   */\n      pop\n        /* \"#utility.yul\":7156:7494   */\n      swap3\n      swap2\n      pop\n      pop\n      jump\t// out\n        /* \"#utility.yul\":7500:8297   */\n    tag_56:\n        /* \"#utility.yul\":7586:7592   */\n      0x00\n        /* \"#utility.yul\":7594:7600   */\n      dup1\n        /* \"#utility.yul\":7602:7608   */\n      0x00\n        /* \"#utility.yul\":7651:7653   */\n      0x60\n        /* \"#utility.yul\":7639:7648   */\n      dup5\n        /* \"#utility.yul\":7630:7637   */\n      dup7\n        /* \"#utility.yul\":7626:7649   */\n      sub\n        /* \"#utility.yul\":7622:7654   */\n      slt\n        /* \"#utility.yul\":7619:7738   */\n      iszero\n      tag_281\n      jumpi\n        /* \"#utility.yul\":7657:7736   */\n      tag_282\n      tag_140\n      jump\t// in\n    tag_282:\n        /* \"#utility.yul\":7619:7738   */\n    tag_281:\n        /* \"#utility.yul\":7777:7778   */\n      0x00\n        /* \"#utility.yul\":7802:7855   */\n      tag_283\n        /* \"#utility.yul\":7847:7854   */\n      dup7\n        /* \"#utility.yul\":7838:7844   */\n      dup3\n        /* \"#utility.yul\":7827:7836   */\n      dup8\n        /* \"#utility.yul\":7823:7845   */\n      add\n        /* \"#utility.yul\":7802:7855   */\n      tag_162\n      jump\t// in\n    tag_283:\n        /* \"#utility.yul\":7792:7855   */\n      swap4\n      pop\n        /* \"#utility.yul\":7748:7865   */\n      pop\n        /* \"#utility.yul\":7904:7906   */\n      0x20\n        /* \"#utility.yul\":7930:7983   */\n      tag_284\n        /* \"#utility.yul\":7975:7982   */\n      dup7\n        /* \"#utility.yul\":7966:7972   */\n      dup3\n        /* \"#utility.yul\":7955:7964   */\n      dup8\n        /* \"#utility.yul\":7951:7973   */\n      add\n        /* \"#utility.yul\":7930:7983   */\n      tag_157\n      jump\t// in\n    tag_284:\n        /* \"#utility.yul\":7920:7983   */\n      swap3\n      pop\n        /* \"#utility.yul\":7875:7993   */\n      pop\n        /* \"#utility.yul\":8060:8062   */\n      0x40\n        /* \"#utility.yul\":8049:8058   */\n      dup5\n        /* \"#utility.yul\":8045:8063   */\n      add\n        /* \"#utility.yul\":8032:8064   */\n      calldataload\n        /* \"#utility.yul\":8091:8109   */\n      0xffffffffffffffff\n        /* \"#utility.yul\":8083:8089   */\n      dup2\n        /* \"#utility.yul\":8080:8110   */\n      gt\n        /* \"#utility.yul\":8077:8194   */\n      iszero\n      tag_285\n      jumpi\n        /* \"#utility.yul\":8113:8192   */\n      tag_286\n      tag_141\n      jump\t// in\n    tag_286:\n        /* \"#utility.yul\":8077:8194   */\n    tag_285:\n        /* \"#utility.yul\":8218:8280   */\n      tag_287\n        /* \"#utility.yul\":8272:8279   */\n      dup7\n        /* \"#utility.yul\":8263:8269   */\n      dup3\n        /* \"#utility.yul\":8252:8261   */\n      dup8\n        /* \"#utility.yul\":8248:8270   */\n      add\n        /* \"#utility.yul\":8218:8280   */\n      tag_171\n      jump\t// in\n    tag_287:\n        /* \"#utility.yul\":8208:8280   */\n      swap2\n      pop\n        /* \"#utility.yul\":8003:8290   */\n      pop\n        /* \"#utility.yul\":7500:8297   */\n      swap3\n      pop\n      swap3\n      pop\n      swap3\n      jump\t// out\n        /* \"#utility.yul\":8303:8632   */\n    tag_60:\n        /* \"#utility.yul\":8362:8368   */\n      0x00\n        /* \"#utility.yul\":8411:8413   */\n      0x20\n        /* \"#utility.yul\":8399:8408   */\n      dup3\n        /* \"#utility.yul\":8390:8397   */\n      dup5\n        /* \"#utility.yul\":8386:8409   */\n      sub\n        /* \"#utility.yul\":8382:8414   */\n      slt\n        /* \"#utility.yul\":8379:8498   */\n      iszero\n      tag_289\n      jumpi\n        /* \"#utility.yul\":8417:8496   */\n      tag_290\n      tag_140\n      jump\t// in\n    tag_290:\n        /* \"#utility.yul\":8379:8498   */\n    tag_289:\n        /* \"#utility.yul\":8537:8538   */\n      0x00\n        /* \"#utility.yul\":8562:8615   */\n      tag_291\n        /* \"#utility.yul\":8607:8614   */\n      dup5\n        /* \"#utility.yul\":8598:8604   */\n      dup3\n        /* \"#utility.yul\":8587:8596   */\n      dup6\n        /* \"#utility.yul\":8583:8605   */\n      add\n        /* \"#utility.yul\":8562:8615   */\n      tag_162\n      jump\t// in\n    tag_291:\n        /* \"#utility.yul\":8552:8615   */\n      swap2\n      pop\n        /* \"#utility.yul\":8508:8625   */\n      pop\n        /* \"#utility.yul\":8303:8632   */\n      swap3\n      swap2\n      pop\n      pop\n      jump\t// out\n        /* \"#utility.yul\":8638:9112   */\n    tag_65:\n        /* \"#utility.yul\":8706:8712   */\n      0x00\n        /* \"#utility.yul\":8714:8720   */\n      dup1\n        /* \"#utility.yul\":8763:8765   */\n      0x40\n        /* \"#utility.yul\":8751:8760   */\n      dup4\n        /* \"#utility.yul\":8742:8749   */\n      dup6\n        /* \"#utility.yul\":8738:8761   */\n      sub\n        /* \"#utility.yul\":8734:8766   */\n      slt\n        /* \"#utility.yul\":8731:8850   */\n      iszero\n      tag_293\n      jumpi\n        /* \"#utility.yul\":8769:8848   */\n      tag_294\n      tag_140\n      jump\t// in\n    tag_294:\n        /* \"#utility.yul\":8731:8850   */\n    tag_293:\n        /* \"#utility.yul\":8889:8890   */\n      0x00\n        /* \"#utility.yul\":8914:8967   */\n      tag_295\n        /* \"#utility.yul\":8959:8966   */\n      dup6\n        /* \"#utility.yul\":8950:8956   */\n      dup3\n        /* \"#utility.yul\":8939:8948   */\n      dup7\n        /* \"#utility.yul\":8935:8957   */\n      add\n        /* \"#utility.yul\":8914:8967   */\n      tag_162\n      jump\t// in\n    tag_295:\n        /* \"#utility.yul\":8904:8967   */\n      swap3\n      pop\n        /* \"#utility.yul\":8860:8977   */\n      pop\n        /* \"#utility.yul\":9016:9018   */\n      0x20\n        /* \"#utility.yul\":9042:9095   */\n      tag_296\n        /* \"#utility.yul\":9087:9094   */\n      dup6\n        /* \"#utility.yul\":9078:9084   */\n      dup3\n        /* \"#utility.yul\":9067:9076   */\n      dup7\n        /* \"#utility.yul\":9063:9085   */\n      add\n        /* \"#utility.yul\":9042:9095   */\n      tag_157\n      jump\t// in\n    tag_296:\n        /* \"#utility.yul\":9032:9095   */\n      swap2\n      pop\n        /* \"#utility.yul\":8987:9105   */\n      pop\n        /* \"#utility.yul\":8638:9112   */\n      swap3\n      pop\n      swap3\n      swap1\n      pop\n      jump\t// out\n        /* \"#utility.yul\":9118:9298   */\n    tag_172:\n        /* \"#utility.yul\":9166:9243   */\n      0x4e487b7100000000000000000000000000000000000000000000000000000000\n        /* \"#utility.yul\":9163:9164   */\n      0x00\n        /* \"#utility.yul\":9156:9244   */\n      mstore\n        /* \"#utility.yul\":9263:9267   */\n      0x22\n        /* \"#utility.yul\":9260:9261   */\n      0x04\n        /* \"#utility.yul\":9253:9268   */\n      mstore\n        /* \"#utility.yul\":9287:9291   */\n      0x24\n        /* \"#utility.yul\":9284:9285   */\n      0x00\n        /* \"#utility.yul\":9277:9292   */\n      revert\n        /* \"#utility.yul\":9304:9624   */\n    tag_81:\n        /* \"#utility.yul\":9348:9354   */\n      0x00\n        /* \"#utility.yul\":9385:9386   */\n      0x02\n        /* \"#utility.yul\":9379:9383   */\n      dup3\n        /* \"#utility.yul\":9375:9387   */\n      div\n        /* \"#utility.yul\":9365:9387   */\n      swap1\n      pop\n        /* \"#utility.yul\":9432:9433   */\n      0x01\n        /* \"#utility.yul\":9426:9430   */\n      dup3\n        /* \"#utility.yul\":9422:9434   */\n      and\n        /* \"#utility.yul\":9453:9471   */\n      dup1\n        /* \"#utility.yul\":9443:9524   */\n      tag_299\n      jumpi\n        /* \"#utility.yul\":9509:9513   */\n      0x7f\n        /* \"#utility.yul\":9501:9507   */\n      dup3\n        /* \"#utility.yul\":9497:9514   */\n      and\n        /* \"#utility.yul\":9487:9514   */\n      swap2\n      pop\n        /* \"#utility.yul\":9443:9524   */\n    tag_299:\n        /* \"#utility.yul\":9571:9573   */\n      0x20\n        /* \"#utility.yul\":9563:9569   */\n      dup3\n        /* \"#utility.yul\":9560:9574   */\n      lt\n        /* \"#utility.yul\":9540:9558   */\n      dup2\n        /* \"#utility.yul\":9537:9575   */\n      sub\n        /* \"#utility.yul\":9534:9618   */\n      tag_300\n      jumpi\n        /* \"#utility.yul\":9590:9608   */\n      tag_301\n      tag_172\n      jump\t// in\n    tag_301:\n        /* \"#utility.yul\":9534:9618   */\n    tag_300:\n        /* \"#utility.yul\":9355:9624   */\n      pop\n        /* \"#utility.yul\":9304:9624   */\n      swap2\n      swap1\n      pop\n      jump\t// out\n        /* \"#utility.yul\":9630:9803   */\n    tag_173:\n        /* \"#utility.yul\":9770:9795   */\n      0x546f6b656e20696420646f6573206e6f74206578697374000000000000000000\n        /* \"#utility.yul\":9766:9767   */\n      0x00\n        /* \"#utility.yul\":9758:9764   */\n      dup3\n        /* \"#utility.yul\":9754:9768   */\n      add\n        /* \"#utility.yul\":9747:9796   */\n      mstore\n        /* \"#utility.yul\":9630:9803   */\n      pop\n      jump\t// out\n        /* \"#utility.yul\":9809:10175   */\n    tag_174:\n        /* \"#utility.yul\":9951:9954   */\n      0x00\n        /* \"#utility.yul\":9972:10039   */\n      tag_304\n        /* \"#utility.yul\":10036:10038   */\n      0x17\n        /* \"#utility.yul\":10031:10034   */\n      dup4\n        /* \"#utility.yul\":9972:10039   */\n      tag_148\n      jump\t// in\n    tag_304:\n        /* \"#utility.yul\":9965:10039   */\n      swap2\n      pop\n        /* \"#utility.yul\":10048:10141   */\n      tag_305\n        /* \"#utility.yul\":10137:10140   */\n      dup3\n        /* \"#utility.yul\":10048:10141   */\n      tag_173\n      jump\t// in\n    tag_305:\n        /* \"#utility.yul\":10166:10168   */\n      0x20\n        /* \"#utility.yul\":10161:10164   */\n      dup3\n        /* \"#utility.yul\":10157:10169   */\n      add\n        /* \"#utility.yul\":10150:10169   */\n      swap1\n      pop\n        /* \"#utility.yul\":9809:10175   */\n      swap2\n      swap1\n      pop\n      jump\t// out\n        /* \"#utility.yul\":10181:10600   */\n    tag_91:\n        /* \"#utility.yul\":10347:10351   */\n      0x00\n        /* \"#utility.yul\":10385:10387   */\n      0x20\n        /* \"#utility.yul\":10374:10383   */\n      dup3\n        /* \"#utility.yul\":10370:10388   */\n      add\n        /* \"#utility.yul\":10362:10388   */\n      swap1\n      pop\n        /* \"#utility.yul\":10434:10443   */\n      dup2\n        /* \"#utility.yul\":10428:10432   */\n      dup2\n        /* \"#utility.yul\":10424:10444   */\n      sub\n        /* \"#utility.yul\":10420:10421   */\n      0x00\n        /* \"#utility.yul\":10409:10418   */\n      dup4\n        /* \"#utility.yul\":10405:10422   */\n      add\n        /* \"#utility.yul\":10398:10445   */\n      mstore\n        /* \"#utility.yul\":10462:10593   */\n      tag_307\n        /* \"#utility.yul\":10588:10592   */\n      dup2\n        /* \"#utility.yul\":10462:10593   */\n      tag_174\n      jump\t// in\n    tag_307:\n        /* \"#utility.yul\":10454:10593   */\n      swap1\n      pop\n        /* \"#utility.yul\":10181:10600   */\n      swap2\n      swap1\n      pop\n      jump\t// out\n        /* \"#utility.yul\":10606:10831   */\n    tag_175:\n        /* \"#utility.yul\":10746:10780   */\n      0x455243373231204552524f523a206d696e7420746f20746865207a65726f2061\n        /* \"#utility.yul\":10742:10743   */\n      0x00\n        /* \"#utility.yul\":10734:10740   */\n      dup3\n        /* \"#utility.yul\":10730:10744   */\n      add\n        /* \"#utility.yul\":10723:10781   */\n      mstore\n        /* \"#utility.yul\":10815:10823   */\n      0x6464726573730000000000000000000000000000000000000000000000000000\n        /* \"#utility.yul\":10810:10812   */\n      0x20\n        /* \"#utility.yul\":10802:10808   */\n      dup3\n        /* \"#utility.yul\":10798:10813   */\n      add\n        /* \"#utility.yul\":10791:10824   */\n      mstore\n        /* \"#utility.yul\":10606:10831   */\n      pop\n      jump\t// out\n        /* \"#utility.yul\":10837:11203   */\n    tag_176:\n        /* \"#utility.yul\":10979:10982   */\n      0x00\n        /* \"#utility.yul\":11000:11067   */\n      tag_310\n        /* \"#utility.yul\":11064:11066   */\n      0x26\n        /* \"#utility.yul\":11059:11062   */\n      dup4\n        /* \"#utility.yul\":11000:11067   */\n      tag_148\n      jump\t// in\n    tag_310:\n        /* \"#utility.yul\":10993:11067   */\n      swap2\n      pop\n        /* \"#utility.yul\":11076:11169   */\n      tag_311\n        /* \"#utility.yul\":11165:11168   */\n      dup3\n        /* \"#utility.yul\":11076:11169   */\n      tag_175\n      jump\t// in\n    tag_311:\n        /* \"#utility.yul\":11194:11196   */\n      0x40\n        /* \"#utility.yul\":11189:11192   */\n      dup3\n        /* \"#utility.yul\":11185:11197   */\n      add\n        /* \"#utility.yul\":11178:11197   */\n      swap1\n      pop\n        /* \"#utility.yul\":10837:11203   */\n      swap2\n      swap1\n      pop\n      jump\t// out\n        /* \"#utility.yul\":11209:11628   */\n    tag_108:\n        /* \"#utility.yul\":11375:11379   */\n      0x00\n        /* \"#utility.yul\":11413:11415   */\n      0x20\n        /* \"#utility.yul\":11402:11411   */\n      dup3\n        /* \"#utility.yul\":11398:11416   */\n      add\n        /* \"#utility.yul\":11390:11416   */\n      swap1\n      pop\n        /* \"#utility.yul\":11462:11471   */\n      dup2\n        /* \"#utility.yul\":11456:11460   */\n      dup2\n        /* \"#utility.yul\":11452:11472   */\n      sub\n        /* \"#utility.yul\":11448:11449   */\n      0x00\n        /* \"#utility.yul\":11437:11446   */\n      dup4\n        /* \"#utility.yul\":11433:11450   */\n      add\n        /* \"#utility.yul\":11426:11473   */\n      mstore\n        /* \"#utility.yul\":11490:11621   */\n      tag_313\n        /* \"#utility.yul\":11616:11620   */\n      dup2\n        /* \"#utility.yul\":11490:11621   */\n      tag_176\n      jump\t// in\n    tag_313:\n        /* \"#utility.yul\":11482:11621   */\n      swap1\n      pop\n        /* \"#utility.yul\":11209:11628   */\n      swap2\n      swap1\n      pop\n      jump\t// out\n        /* \"#utility.yul\":11634:11855   */\n    tag_177:\n        /* \"#utility.yul\":11774:11808   */\n      0x455243373231204552524f523a20546f6b656e20616c7265616479206d696e74\n        /* \"#utility.yul\":11770:11771   */\n      0x00\n        /* \"#utility.yul\":11762:11768   */\n      dup3\n        /* \"#utility.yul\":11758:11772   */\n      add\n        /* \"#utility.yul\":11751:11809   */\n      mstore\n        /* \"#utility.yul\":11843:11847   */\n      0x6564000000000000000000000000000000000000000000000000000000000000\n        /* \"#utility.yul\":11838:11840   */\n      0x20\n        /* \"#utility.yul\":11830:11836   */\n      dup3\n        /* \"#utility.yul\":11826:11841   */\n      add\n        /* \"#utility.yul\":11819:11848   */\n      mstore\n        /* \"#utility.yul\":11634:11855   */\n      pop\n      jump\t// out\n        /* \"#utility.yul\":11861:12227   */\n    tag_178:\n        /* \"#utility.yul\":12003:12006   */\n      0x00\n        /* \"#utility.yul\":12024:12091   */\n      tag_316\n        /* \"#utility.yul\":12088:12090   */\n      0x22\n        /* \"#utility.yul\":12083:12086   */\n      dup4\n        /* \"#utility.yul\":12024:12091   */\n      tag_148\n      jump\t// in\n    tag_316:\n        /* \"#utility.yul\":12017:12091   */\n      swap2\n      pop\n        /* \"#utility.yul\":12100:12193   */\n      tag_317\n        /* \"#utility.yul\":12189:12192   */\n      dup3\n        /* \"#utility.yul\":12100:12193   */\n      tag_177\n      jump\t// in\n    tag_317:\n        /* \"#utility.yul\":12218:12220   */\n      0x40\n        /* \"#utility.yul\":12213:12216   */\n      dup3\n        /* \"#utility.yul\":12209:12221   */\n      add\n        /* \"#utility.yul\":12202:12221   */\n      swap1\n      pop\n        /* \"#utility.yul\":11861:12227   */\n      swap2\n      swap1\n      pop\n      jump\t// out\n        /* \"#utility.yul\":12233:12652   */\n    tag_113:\n        /* \"#utility.yul\":12399:12403   */\n      0x00\n        /* \"#utility.yul\":12437:12439   */\n      0x20\n        /* \"#utility.yul\":12426:12435   */\n      dup3\n        /* \"#utility.yul\":12422:12440   */\n      add\n        /* \"#utility.yul\":12414:12440   */\n      swap1\n      pop\n        /* \"#utility.yul\":12486:12495   */\n      dup2\n        /* \"#utility.yul\":12480:12484   */\n      dup2\n        /* \"#utility.yul\":12476:12496   */\n      sub\n        /* \"#utility.yul\":12472:12473   */\n      0x00\n        /* \"#utility.yul\":12461:12470   */\n      dup4\n        /* \"#utility.yul\":12457:12474   */\n      add\n        /* \"#utility.yul\":12450:12497   */\n      mstore\n        /* \"#utility.yul\":12514:12645   */\n      tag_319\n        /* \"#utility.yul\":12640:12644   */\n      dup2\n        /* \"#utility.yul\":12514:12645   */\n      tag_178\n      jump\t// in\n    tag_319:\n        /* \"#utility.yul\":12506:12645   */\n      swap1\n      pop\n        /* \"#utility.yul\":12233:12652   */\n      swap2\n      swap1\n      pop\n      jump\t// out\n        /* \"#utility.yul\":12658:12838   */\n    tag_179:\n        /* \"#utility.yul\":12706:12783   */\n      0x4e487b7100000000000000000000000000000000000000000000000000000000\n        /* \"#utility.yul\":12703:12704   */\n      0x00\n        /* \"#utility.yul\":12696:12784   */\n      mstore\n        /* \"#utility.yul\":12803:12807   */\n      0x11\n        /* \"#utility.yul\":12800:12801   */\n      0x04\n        /* \"#utility.yul\":12793:12808   */\n      mstore\n        /* \"#utility.yul\":12827:12831   */\n      0x24\n        /* \"#utility.yul\":12824:12825   */\n      0x00\n        /* \"#utility.yul\":12817:12832   */\n      revert\n        /* \"#utility.yul\":12844:13149   */\n    tag_115:\n        /* \"#utility.yul\":12884:12887   */\n      0x00\n        /* \"#utility.yul\":12903:12923   */\n      tag_322\n        /* \"#utility.yul\":12921:12922   */\n      dup3\n        /* \"#utility.yul\":12903:12923   */\n      tag_152\n      jump\t// in\n    tag_322:\n        /* \"#utility.yul\":12898:12923   */\n      swap2\n      pop\n        /* \"#utility.yul\":12937:12957   */\n      tag_323\n        /* \"#utility.yul\":12955:12956   */\n      dup4\n        /* \"#utility.yul\":12937:12957   */\n      tag_152\n      jump\t// in\n    tag_323:\n        /* \"#utility.yul\":12932:12957   */\n      swap3\n      pop\n        /* \"#utility.yul\":13091:13092   */\n      dup3\n        /* \"#utility.yul\":13023:13089   */\n      0xffffffffffffffffffffffffffffffffffffffffffffffffffffffffffffffff\n        /* \"#utility.yul\":13019:13093   */\n      sub\n        /* \"#utility.yul\":13016:13017   */\n      dup3\n        /* \"#utility.yul\":13013:13094   */\n      gt\n        /* \"#utility.yul\":13010:13117   */\n      iszero\n      tag_324\n      jumpi\n        /* \"#utility.yul\":13097:13115   */\n      tag_325\n      tag_179\n      jump\t// in\n    tag_325:\n        /* \"#utility.yul\":13010:13117   */\n    tag_324:\n        /* \"#utility.yul\":13141:13142   */\n      dup3\n        /* \"#utility.yul\":13138:13139   */\n      dup3\n        /* \"#utility.yul\":13134:13143   */\n      add\n        /* \"#utility.yul\":13127:13143   */\n      swap1\n      pop\n        /* \"#utility.yul\":12844:13149   */\n      swap3\n      swap2\n      pop\n      pop\n      jump\t// out\n        /* \"#utility.yul\":13155:13253   */\n    tag_180:\n        /* \"#utility.yul\":13206:13212   */\n      0x00\n        /* \"#utility.yul\":13240:13245   */\n      dup2\n        /* \"#utility.yul\":13234:13246   */\n      mload\n        /* \"#utility.yul\":13224:13246   */\n      swap1\n      pop\n        /* \"#utility.yul\":13155:13253   */\n      swap2\n      swap1\n      pop\n      jump\t// out\n        /* \"#utility.yul\":13259:13427   */\n    tag_181:\n        /* \"#utility.yul\":13342:13353   */\n      0x00\n        /* \"#utility.yul\":13376:13382   */\n      dup3\n        /* \"#utility.yul\":13371:13374   */\n      dup3\n        /* \"#utility.yul\":13364:13383   */\n      mstore\n        /* \"#utility.yul\":13416:13420   */\n      0x20\n        /* \"#utility.yul\":13411:13414   */\n      dup3\n        /* \"#utility.yul\":13407:13421   */\n      add\n        /* \"#utility.yul\":13392:13421   */\n      swap1\n      pop\n        /* \"#utility.yul\":13259:13427   */\n      swap3\n      swap2\n      pop\n      pop\n      jump\t// out\n        /* \"#utility.yul\":13433:13793   */\n    tag_182:\n        /* \"#utility.yul\":13519:13522   */\n      0x00\n        /* \"#utility.yul\":13547:13585   */\n      tag_329\n        /* \"#utility.yul\":13579:13584   */\n      dup3\n        /* \"#utility.yul\":13547:13585   */\n      tag_180\n      jump\t// in\n    tag_329:\n        /* \"#utility.yul\":13601:13671   */\n      tag_330\n        /* \"#utility.yul\":13664:13670   */\n      dup2\n        /* \"#utility.yul\":13659:13662   */\n      dup6\n        /* \"#utility.yul\":13601:13671   */\n      tag_181\n      jump\t// in\n    tag_330:\n        /* \"#utility.yul\":13594:13671   */\n      swap4\n      pop\n        /* \"#utility.yul\":13680:13732   */\n      tag_331\n        /* \"#utility.yul\":13725:13731   */\n      dup2\n        /* \"#utility.yul\":13720:13723   */\n      dup6\n        /* \"#utility.yul\":13713:13717   */\n      0x20\n        /* \"#utility.yul\":13706:13711   */\n      dup7\n        /* \"#utility.yul\":13702:13718   */\n      add\n        /* \"#utility.yul\":13680:13732   */\n      tag_149\n      jump\t// in\n    tag_331:\n        /* \"#utility.yul\":13757:13786   */\n      tag_332\n        /* \"#utility.yul\":13779:13785   */\n      dup2\n        /* \"#utility.yul\":13757:13786   */\n      tag_150\n      jump\t// in\n    tag_332:\n        /* \"#utility.yul\":13752:13755   */\n      dup5\n        /* \"#utility.yul\":13748:13787   */\n      add\n        /* \"#utility.yul\":13741:13787   */\n      swap2\n      pop\n        /* \"#utility.yul\":13523:13793   */\n      pop\n        /* \"#utility.yul\":13433:13793   */\n      swap3\n      swap2\n      pop\n      pop\n      jump\t// out\n        /* \"#utility.yul\":13799:14439   */\n    tag_121:\n        /* \"#utility.yul\":13994:13998   */\n      0x00\n        /* \"#utility.yul\":14032:14035   */\n      0x80\n        /* \"#utility.yul\":14021:14030   */\n      dup3\n        /* \"#utility.yul\":14017:14036   */\n      add\n        /* \"#utility.yul\":14009:14036   */\n      swap1\n      pop\n        /* \"#utility.yul\":14046:14117   */\n      tag_334\n        /* \"#utility.yul\":14114:14115   */\n      0x00\n        /* \"#utility.yul\":14103:14112   */\n      dup4\n        /* \"#utility.yul\":14099:14116   */\n      add\n        /* \"#utility.yul\":14090:14096   */\n      dup8\n        /* \"#utility.yul\":14046:14117   */\n      tag_160\n      jump\t// in\n    tag_334:\n        /* \"#utility.yul\":14127:14199   */\n      tag_335\n        /* \"#utility.yul\":14195:14197   */\n      0x20\n        /* \"#utility.yul\":14184:14193   */\n      dup4\n        /* \"#utility.yul\":14180:14198   */\n      add\n        /* \"#utility.yul\":14171:14177   */\n      dup7\n        /* \"#utility.yul\":14127:14199   */\n      tag_160\n      jump\t// in\n    tag_335:\n        /* \"#utility.yul\":14209:14281   */\n      tag_336\n        /* \"#utility.yul\":14277:14279   */\n      0x40\n        /* \"#utility.yul\":14266:14275   */\n      dup4\n        /* \"#utility.yul\":14262:14280   */\n      add\n        /* \"#utility.yul\":14253:14259   */\n      dup6\n        /* \"#utility.yul\":14209:14281   */\n      tag_153\n      jump\t// in\n    tag_336:\n        /* \"#utility.yul\":14328:14337   */\n      dup2\n        /* \"#utility.yul\":14322:14326   */\n      dup2\n        /* \"#utility.yul\":14318:14338   */\n      sub\n        /* \"#utility.yul\":14313:14315   */\n      0x60\n        /* \"#utility.yul\":14302:14311   */\n      dup4\n        /* \"#utility.yul\":14298:14316   */\n      add\n        /* \"#utility.yul\":14291:14339   */\n      mstore\n        /* \"#utility.yul\":14356:14432   */\n      tag_337\n        /* \"#utility.yul\":14427:14431   */\n      dup2\n        /* \"#utility.yul\":14418:14424   */\n      dup5\n        /* \"#utility.yul\":14356:14432   */\n      tag_182\n      jump\t// in\n    tag_337:\n        /* \"#utility.yul\":14348:14432   */\n      swap1\n      pop\n        /* \"#utility.yul\":13799:14439   */\n      swap6\n      swap5\n      pop\n      pop\n      pop\n      pop\n      pop\n      jump\t// out\n        /* \"#utility.yul\":14445:14586   */\n    tag_183:\n        /* \"#utility.yul\":14501:14506   */\n      0x00\n        /* \"#utility.yul\":14532:14538   */\n      dup2\n        /* \"#utility.yul\":14526:14539   */\n      mload\n        /* \"#utility.yul\":14517:14539   */\n      swap1\n      pop\n        /* \"#utility.yul\":14548:14580   */\n      tag_339\n        /* \"#utility.yul\":14574:14579   */\n      dup2\n        /* \"#utility.yul\":14548:14580   */\n      tag_143\n      jump\t// in\n    tag_339:\n        /* \"#utility.yul\":14445:14586   */\n      swap3\n      swap2\n      pop\n      pop\n      jump\t// out\n        /* \"#utility.yul\":14592:14941   */\n    tag_124:\n        /* \"#utility.yul\":14661:14667   */\n      0x00\n        /* \"#utility.yul\":14710:14712   */\n      0x20\n        /* \"#utility.yul\":14698:14707   */\n      dup3\n        /* \"#utility.yul\":14689:14696   */\n      dup5\n        /* \"#utility.yul\":14685:14708   */\n      sub\n        /* \"#utility.yul\":14681:14713   */\n      slt\n        /* \"#utility.yul\":14678:14797   */\n      iszero\n      tag_341\n      jumpi\n        /* \"#utility.yul\":14716:14795   */\n      tag_342\n      tag_140\n      jump\t// in\n    tag_342:\n        /* \"#utility.yul\":14678:14797   */\n    tag_341:\n        /* \"#utility.yul\":14836:14837   */\n      0x00\n        /* \"#utility.yul\":14861:14924   */\n      tag_343\n        /* \"#utility.yul\":14916:14923   */\n      dup5\n        /* \"#utility.yul\":14907:14913   */\n      dup3\n        /* \"#utility.yul\":14896:14905   */\n      dup6\n        /* \"#utility.yul\":14892:14914   */\n      add\n        /* \"#utility.yul\":14861:14924   */\n      tag_183\n      jump\t// in\n    tag_343:\n        /* \"#utility.yul\":14851:14924   */\n      swap2\n      pop\n        /* \"#utility.yul\":14807:14934   */\n      pop\n        /* \"#utility.yul\":14592:14941   */\n      swap3\n      swap2\n      pop\n      pop\n      jump\t// out\n        /* \"#utility.yul\":14947:15184   */\n    tag_184:\n        /* \"#utility.yul\":15087:15121   */\n      0x4552433732313a207472616e7366657220746f206e6f6e204552433732315265\n        /* \"#utility.yul\":15083:15084   */\n      0x00\n        /* \"#utility.yul\":15075:15081   */\n      dup3\n        /* \"#utility.yul\":15071:15085   */\n      add\n        /* \"#utility.yul\":15064:15122   */\n      mstore\n        /* \"#utility.yul\":15156:15176   */\n      0x63656976657220696d706c656d656e7465720000000000000000000000000000\n        /* \"#utility.yul\":15151:15153   */\n      0x20\n        /* \"#utility.yul\":15143:15149   */\n      dup3\n        /* \"#utility.yul\":15139:15154   */\n      add\n        /* \"#utility.yul\":15132:15177   */\n      mstore\n        /* \"#utility.yul\":14947:15184   */\n      pop\n      jump\t// out\n        /* \"#utility.yul\":15190:15556   */\n    tag_185:\n        /* \"#utility.yul\":15332:15335   */\n      0x00\n        /* \"#utility.yul\":15353:15420   */\n      tag_346\n        /* \"#utility.yul\":15417:15419   */\n      0x32\n        /* \"#utility.yul\":15412:15415   */\n      dup4\n        /* \"#utility.yul\":15353:15420   */\n      tag_148\n      jump\t// in\n    tag_346:\n        /* \"#utility.yul\":15346:15420   */\n      swap2\n      pop\n        /* \"#utility.yul\":15429:15522   */\n      tag_347\n        /* \"#utility.yul\":15518:15521   */\n      dup3\n        /* \"#utility.yul\":15429:15522   */\n      tag_184\n      jump\t// in\n    tag_347:\n        /* \"#utility.yul\":15547:15549   */\n      0x40\n        /* \"#utility.yul\":15542:15545   */\n      dup3\n        /* \"#utility.yul\":15538:15550   */\n      add\n        /* \"#utility.yul\":15531:15550   */\n      swap1\n      pop\n        /* \"#utility.yul\":15190:15556   */\n      swap2\n      swap1\n      pop\n      jump\t// out\n        /* \"#utility.yul\":15562:15981   */\n    tag_133:\n        /* \"#utility.yul\":15728:15732   */\n      0x00\n        /* \"#utility.yul\":15766:15768   */\n      0x20\n        /* \"#utility.yul\":15755:15764   */\n      dup3\n        /* \"#utility.yul\":15751:15769   */\n      add\n        /* \"#utility.yul\":15743:15769   */\n      swap1\n      pop\n        /* \"#utility.yul\":15815:15824   */\n      dup2\n        /* \"#utility.yul\":15809:15813   */\n      dup2\n        /* \"#utility.yul\":15805:15825   */\n      sub\n        /* \"#utility.yul\":15801:15802   */\n      0x00\n        /* \"#utility.yul\":15790:15799   */\n      dup4\n        /* \"#utility.yul\":15786:15803   */\n      add\n        /* \"#utility.yul\":15779:15826   */\n      mstore\n        /* \"#utility.yul\":15843:15974   */\n      tag_349\n        /* \"#utility.yul\":15969:15973   */\n      dup2\n        /* \"#utility.yul\":15843:15974   */\n      tag_185\n      jump\t// in\n    tag_349:\n        /* \"#utility.yul\":15835:15974   */\n      swap1\n      pop\n        /* \"#utility.yul\":15562:15981   */\n      swap2\n      swap1\n      pop\n      jump\t// out\n\n    auxdata: 0xa2646970667358221220ebd8b68419cad969fc7b8ff50457a1469e336f7fe52a9f85ab7a69b14fbd538964736f6c634300080d0033\n}\n","bytecode":{"linkReferences":{},"object":"60806040523480156200001157600080fd5b50604051620016da380380620016da833981810160405281019062000037919062000353565b836003819055508260048190555033600560006101000a81548173ffffffffffffffffffffffffffffffffffffffff021916908373ffffffffffffffffffffffffffffffffffffffff160217905550816002819055508060069080519060200190620000a5929190620000cb565b506000600760006101000a81548160ff0219169083151502179055505050505062000448565b828054620000d99062000413565b90600052602060002090601f016020900481019282620000fd576000855562000149565b82601f106200011857805160ff191683800117855562000149565b8280016001018555821562000149579182015b82811115620001485782518255916020019190600101906200012b565b5b5090506200015891906200015c565b5090565b5b80821115620001775760008160009055506001016200015d565b5090565b6000604051905090565b600080fd5b600080fd5b6000819050919050565b620001a4816200018f565b8114620001b057600080fd5b50565b600081519050620001c48162000199565b92915050565b600080fd5b600080fd5b6000601f19601f8301169050919050565b7f4e487b7100000000000000000000000000000000000000000000000000000000600052604160045260246000fd5b6200021f82620001d4565b810181811067ffffffffffffffff82111715620002415762000240620001e5565b5b80604052505050565b6000620002566200017b565b905062000264828262000214565b919050565b600067ffffffffffffffff821115620002875762000286620001e5565b5b6200029282620001d4565b9050602081019050919050565b60005b83811015620002bf578082015181840152602081019050620002a2565b83811115620002cf576000848401525b50505050565b6000620002ec620002e68462000269565b6200024a565b9050828152602081018484840111156200030b576200030a620001cf565b5b620003188482856200029f565b509392505050565b600082601f830112620003385762000337620001ca565b5b81516200034a848260208601620002d5565b91505092915050565b6000806000806080858703121562000370576200036f62000185565b5b60006200038087828801620001b3565b94505060206200039387828801620001b3565b9350506040620003a687828801620001b3565b925050606085015167ffffffffffffffff811115620003ca57620003c96200018a565b5b620003d88782880162000320565b91505092959194509250565b7f4e487b7100000000000000000000000000000000000000000000000000000000600052602260045260246000fd5b600060028204905060018216806200042c57607f821691505b602082108103620004425762000441620003e4565b5b50919050565b61128280620004586000396000f3fe608060405234801561001057600080fd5b50600436106100f55760003560e01c80636352211e116100975780637cf6b53b116100665780637cf6b53b146102745780638da5cb5b14610292578063b3e1c718146102b0578063cf22b577146102cc576100f5565b80636352211e146101dc5780636a4f832b1461020c57806370a08231146102285780637194c2e814610258576100f5565b80633fbaa475116100d35780633fbaa4751461016657806349befa85146101845780634a627aeb146101a25780635ee1773d146101be576100f5565b806301ffc9a7146100fa57806323b1ff001461012a57806332b9399614610148575b600080fd5b610114600480360381019061010f91906109c5565b6102ea565b6040516101219190610a0d565b60405180910390f35b610132610354565b60405161013f9190610ac1565b60405180910390f35b6101506103e2565b60405161015d9190610afc565b60405180910390f35b61016e6103e8565b60405161017b9190610afc565b60405180910390f35b61018c6103ee565b6040516101999190610afc565b60405180910390f35b6101bc60048036038101906101b79190610b43565b6103f8565b005b6101c6610415565b6040516101d39190610afc565b60405180910390f35b6101f660048036038101906101f19190610b9c565b61041b565b6040516102039190610c0a565b60405180910390f35b61022660048036038101906102219190610d86565b6104cb565b005b610242600480360381019061023d9190610df5565b6104f0565b60405161024f9190610afc565b60405180910390f35b610272600480360381019061026d9190610e22565b610539565b005b61027c610547565b6040516102899190610a0d565b60405180910390f35b61029a61055e565b6040516102a79190610c0a565b60405180910390f35b6102ca60048036038101906102c59190610e22565b610584565b005b6102d46105a2565b6040516102e19190610afc565b60405180910390f35b60007f01ffc9a7000000000000000000000000000000000000000000000000000000007bffffffffffffffffffffffffffffffffffffffffffffffffffffffff1916827bffffffffffffffffffffffffffffffffffffffffffffffffffffffff1916149050919050565b6006805461036190610e91565b80601f016020809104026020016040519081016040528092919081815260200182805461038d90610e91565b80156103da5780601f106103af576101008083540402835291602001916103da565b820191906000526020600020905b8154815290600101906020018083116103bd57829003601f168201915b505050505081565b60045481565b60035481565b6000600454905090565b80600760006101000a81548160ff02191690831515021790555050565b60025481565b60008060008084815260200190815260200160002060009054906101000a900473ffffffffffffffffffffffffffffffffffffffff169050600073ffffffffffffffffffffffffffffffffffffffff168173ffffffffffffffffffffffffffffffffffffffff16036104c2576040517f08c379a00000000000000000000000000000000000000000000000000000000081526004016104b990610f0e565b60405180910390fd5b80915050919050565b6104d583836105ac565b6104e2600084848461076b565b6104eb57600080fd5b505050565b6000600160008373ffffffffffffffffffffffffffffffffffffffff1673ffffffffffffffffffffffffffffffffffffffff168152602001908152602001600020549050919050565b6105438282610584565b5050565b6000600760009054906101000a900460ff16905090565b600560009054906101000a900473ffffffffffffffffffffffffffffffffffffffff1681565b61059e8282604051806020016040528060008152506104cb565b5050565b6000600354905090565b600073ffffffffffffffffffffffffffffffffffffffff168273ffffffffffffffffffffffffffffffffffffffff160361061b576040517f08c379a000000000000000000000000000000000000000000000000000000000815260040161061290610fa0565b60405180910390fd5b610624816108d5565b15610664576040517f08c379a000000000000000000000000000000000000000000000000000000000815260040161065b90611032565b60405180910390fd5b60018060008473ffffffffffffffffffffffffffffffffffffffff1673ffffffffffffffffffffffffffffffffffffffff16815260200190815260200160002060008282546106b39190611081565b925050819055508160008083815260200190815260200160002060006101000a81548173ffffffffffffffffffffffffffffffffffffffff021916908373ffffffffffffffffffffffffffffffffffffffff160217905550808273ffffffffffffffffffffffffffffffffffffffff16600073ffffffffffffffffffffffffffffffffffffffff167fddf252ad1be2c89b69c2b068fc378daa952ba7f163c4a11628f55a4df523b3ef60405160405180910390a45050565b600061077684610940565b156108c8578373ffffffffffffffffffffffffffffffffffffffff1663150b7a02338786866040518563ffffffff1660e01b81526004016107ba949392919061112c565b6020604051808303816000875af19250505080156107f657506040513d601f19601f820116820180604052508101906107f3919061118d565b60015b610878573d8060008114610826576040519150601f19603f3d011682016040523d82523d6000602084013e61082b565b606091505b506000815103610870576040517f08c379a00000000000000000000000000000000000000000000000000000000081526004016108679061122c565b60405180910390fd5b805181602001fd5b63150b7a0260e01b7bffffffffffffffffffffffffffffffffffffffffffffffffffffffff1916817bffffffffffffffffffffffffffffffffffffffffffffffffffffffff1916149150506108cd565b600190505b949350505050565b60008073ffffffffffffffffffffffffffffffffffffffff1660008084815260200190815260200160002060009054906101000a900473ffffffffffffffffffffffffffffffffffffffff1673ffffffffffffffffffffffffffffffffffffffff1614159050919050565b600080823b905060008163ffffffff1611915050919050565b6000604051905090565b600080fd5b600080fd5b60007fffffffff0000000000000000000000000000000000000000000000000000000082169050919050565b6109a28161096d565b81146109ad57600080fd5b50565b6000813590506109bf81610999565b92915050565b6000602082840312156109db576109da610963565b5b60006109e9848285016109b0565b91505092915050565b60008115159050919050565b610a07816109f2565b82525050565b6000602082019050610a2260008301846109fe565b92915050565b600081519050919050565b600082825260208201905092915050565b60005b83811015610a62578082015181840152602081019050610a47565b83811115610a71576000848401525b50505050565b6000601f19601f8301169050919050565b6000610a9382610a28565b610a9d8185610a33565b9350610aad818560208601610a44565b610ab681610a77565b840191505092915050565b60006020820190508181036000830152610adb8184610a88565b905092915050565b6000819050919050565b610af681610ae3565b82525050565b6000602082019050610b116000830184610aed565b92915050565b610b20816109f2565b8114610b2b57600080fd5b50565b600081359050610b3d81610b17565b92915050565b600060208284031215610b5957610b58610963565b5b6000610b6784828501610b2e565b91505092915050565b610b7981610ae3565b8114610b8457600080fd5b50565b600081359050610b9681610b70565b92915050565b600060208284031215610bb257610bb1610963565b5b6000610bc084828501610b87565b91505092915050565b600073ffffffffffffffffffffffffffffffffffffffff82169050919050565b6000610bf482610bc9565b9050919050565b610c0481610be9565b82525050565b6000602082019050610c1f6000830184610bfb565b92915050565b610c2e81610be9565b8114610c3957600080fd5b50565b600081359050610c4b81610c25565b92915050565b600080fd5b600080fd5b7f4e487b7100000000000000000000000000000000000000000000000000000000600052604160045260246000fd5b610c9382610a77565b810181811067ffffffffffffffff82111715610cb257610cb1610c5b565b5b80604052505050565b6000610cc5610959565b9050610cd18282610c8a565b919050565b600067ffffffffffffffff821115610cf157610cf0610c5b565b5b610cfa82610a77565b9050602081019050919050565b82818337600083830152505050565b6000610d29610d2484610cd6565b610cbb565b905082815260208101848484011115610d4557610d44610c56565b5b610d50848285610d07565b509392505050565b600082601f830112610d6d57610d6c610c51565b5b8135610d7d848260208601610d16565b91505092915050565b600080600060608486031215610d9f57610d9e610963565b5b6000610dad86828701610c3c565b9350506020610dbe86828701610b87565b925050604084013567ffffffffffffffff811115610ddf57610dde610968565b5b610deb86828701610d58565b9150509250925092565b600060208284031215610e0b57610e0a610963565b5b6000610e1984828501610c3c565b91505092915050565b60008060408385031215610e3957610e38610963565b5b6000610e4785828601610c3c565b9250506020610e5885828601610b87565b9150509250929050565b7f4e487b7100000000000000000000000000000000000000000000000000000000600052602260045260246000fd5b60006002820490506001821680610ea957607f821691505b602082108103610ebc57610ebb610e62565b5b50919050565b7f546f6b656e20696420646f6573206e6f74206578697374000000000000000000600082015250565b6000610ef8601783610a33565b9150610f0382610ec2565b602082019050919050565b60006020820190508181036000830152610f2781610eeb565b9050919050565b7f455243373231204552524f523a206d696e7420746f20746865207a65726f206160008201527f6464726573730000000000000000000000000000000000000000000000000000602082015250565b6000610f8a602683610a33565b9150610f9582610f2e565b604082019050919050565b60006020820190508181036000830152610fb981610f7d565b9050919050565b7f455243373231204552524f523a20546f6b656e20616c7265616479206d696e7460008201527f6564000000000000000000000000000000000000000000000000000000000000602082015250565b600061101c602283610a33565b915061102782610fc0565b604082019050919050565b6000602082019050818103600083015261104b8161100f565b9050919050565b7f4e487b7100000000000000000000000000000000000000000000000000000000600052601160045260246000fd5b600061108c82610ae3565b915061109783610ae3565b9250827fffffffffffffffffffffffffffffffffffffffffffffffffffffffffffffffff038211156110cc576110cb611052565b5b828201905092915050565b600081519050919050565b600082825260208201905092915050565b60006110fe826110d7565b61110881856110e2565b9350611118818560208601610a44565b61112181610a77565b840191505092915050565b60006080820190506111416000830187610bfb565b61114e6020830186610bfb565b61115b6040830185610aed565b818103606083015261116d81846110f3565b905095945050505050565b60008151905061118781610999565b92915050565b6000602082840312156111a3576111a2610963565b5b60006111b184828501611178565b91505092915050565b7f4552433732313a207472616e7366657220746f206e6f6e20455243373231526560008201527f63656976657220696d706c656d656e7465720000000000000000000000000000602082015250565b6000611216603283610a33565b9150611221826111ba565b604082019050919050565b6000602082019050818103600083015261124581611209565b905091905056fea2646970667358221220ebd8b68419cad969fc7b8ff50457a1469e336f7fe52a9f85ab7a69b14fbd538964736f6c634300080d0033","opcodes":"PUSH1 0x80 PUSH1 0x40 MSTORE CALLVALUE DUP1 ISZERO PUSH3 0x11 JUMPI PUSH1 0x0 DUP1 REVERT JUMPDEST POP PUSH1 0x40 MLOAD PUSH3 0x16DA CODESIZE SUB DUP1 PUSH3 0x16DA DUP4 CODECOPY DUP2 DUP2 ADD PUSH1 0x40 MSTORE DUP2 ADD SWAP1 PUSH3 0x37 SWAP2 SWAP1 PUSH3 0x353 JUMP JUMPDEST DUP4 PUSH1 0x3 DUP2 SWAP1 SSTORE POP DUP3 PUSH1 0x4 DUP2 SWAP1 SSTORE POP CALLER PUSH1 0x5 PUSH1 0x0 PUSH2 0x100 EXP DUP2 SLOAD DUP2 PUSH20 0xFFFFFFFFFFFFFFFFFFFFFFFFFFFFFFFFFFFFFFFF MUL NOT AND SWAP1 DUP4 PUSH20 0xFFFFFFFFFFFFFFFFFFFFFFFFFFFFFFFFFFFFFFFF AND MUL OR SWAP1 SSTORE POP DUP2 PUSH1 0x2 DUP2 SWAP1 SSTORE POP DUP1 PUSH1 0x6 SWAP1 DUP1 MLOAD SWAP1 PUSH1 0x20 ADD SWAP1 PUSH3 0xA5 SWAP3 SWAP2 SWAP1 PUSH3 0xCB JUMP JUMPDEST POP PUSH1 0x0 PUSH1 0x7 PUSH1 0x0 PUSH2 0x100 EXP DUP2 SLOAD DUP2 PUSH1 0xFF MUL NOT AND SWAP1 DUP4 ISZERO ISZERO MUL OR SWAP1 SSTORE POP POP POP POP POP PUSH3 0x448 JUMP JUMPDEST DUP3 DUP1 SLOAD PUSH3 0xD9 SWAP1 PUSH3 0x413 JUMP JUMPDEST SWAP1 PUSH1 0x0 MSTORE PUSH1 0x20 PUSH1 0x0 KECCAK256 SWAP1 PUSH1 0x1F ADD PUSH1 0x20 SWAP1 DIV DUP2 ADD SWAP3 DUP3 PUSH3 0xFD JUMPI PUSH1 0x0 DUP6 SSTORE PUSH3 0x149 JUMP JUMPDEST DUP3 PUSH1 0x1F LT PUSH3 0x118 JUMPI DUP1 MLOAD PUSH1 0xFF NOT AND DUP4 DUP1 ADD OR DUP6 SSTORE PUSH3 0x149 JUMP JUMPDEST DUP3 DUP1 ADD PUSH1 0x1 ADD DUP6 SSTORE DUP3 ISZERO PUSH3 0x149 JUMPI SWAP2 DUP3 ADD JUMPDEST DUP3 DUP2 GT ISZERO PUSH3 0x148 JUMPI DUP3 MLOAD DUP3 SSTORE SWAP2 PUSH1 0x20 ADD SWAP2 SWAP1 PUSH1 0x1 ADD SWAP1 PUSH3 0x12B JUMP JUMPDEST JUMPDEST POP SWAP1 POP PUSH3 0x158 SWAP2 SWAP1 PUSH3 0x15C JUMP JUMPDEST POP SWAP1 JUMP JUMPDEST JUMPDEST DUP1 DUP3 GT ISZERO PUSH3 0x177 JUMPI PUSH1 0x0 DUP2 PUSH1 0x0 SWAP1 SSTORE POP PUSH1 0x1 ADD PUSH3 0x15D JUMP JUMPDEST POP SWAP1 JUMP JUMPDEST PUSH1 0x0 PUSH1 0x40 MLOAD SWAP1 POP SWAP1 JUMP JUMPDEST PUSH1 0x0 DUP1 REVERT JUMPDEST PUSH1 0x0 DUP1 REVERT JUMPDEST PUSH1 0x0 DUP2 SWAP1 POP SWAP2 SWAP1 POP JUMP JUMPDEST PUSH3 0x1A4 DUP2 PUSH3 0x18F JUMP JUMPDEST DUP2 EQ PUSH3 0x1B0 JUMPI PUSH1 0x0 DUP1 REVERT JUMPDEST POP JUMP JUMPDEST PUSH1 0x0 DUP2 MLOAD SWAP1 POP PUSH3 0x1C4 DUP2 PUSH3 0x199 JUMP JUMPDEST SWAP3 SWAP2 POP POP JUMP JUMPDEST PUSH1 0x0 DUP1 REVERT JUMPDEST PUSH1 0x0 DUP1 REVERT JUMPDEST PUSH1 0x0 PUSH1 0x1F NOT PUSH1 0x1F DUP4 ADD AND SWAP1 POP SWAP2 SWAP1 POP JUMP JUMPDEST PUSH32 0x4E487B7100000000000000000000000000000000000000000000000000000000 PUSH1 0x0 MSTORE PUSH1 0x41 PUSH1 0x4 MSTORE PUSH1 0x24 PUSH1 0x0 REVERT JUMPDEST PUSH3 0x21F DUP3 PUSH3 0x1D4 JUMP JUMPDEST DUP2 ADD DUP2 DUP2 LT PUSH8 0xFFFFFFFFFFFFFFFF DUP3 GT OR ISZERO PUSH3 0x241 JUMPI PUSH3 0x240 PUSH3 0x1E5 JUMP JUMPDEST JUMPDEST DUP1 PUSH1 0x40 MSTORE POP POP POP JUMP JUMPDEST PUSH1 0x0 PUSH3 0x256 PUSH3 0x17B JUMP JUMPDEST SWAP1 POP PUSH3 0x264 DUP3 DUP3 PUSH3 0x214 JUMP JUMPDEST SWAP2 SWAP1 POP JUMP JUMPDEST PUSH1 0x0 PUSH8 0xFFFFFFFFFFFFFFFF DUP3 GT ISZERO PUSH3 0x287 JUMPI PUSH3 0x286 PUSH3 0x1E5 JUMP JUMPDEST JUMPDEST PUSH3 0x292 DUP3 PUSH3 0x1D4 JUMP JUMPDEST SWAP1 POP PUSH1 0x20 DUP2 ADD SWAP1 POP SWAP2 SWAP1 POP JUMP JUMPDEST PUSH1 0x0 JUMPDEST DUP4 DUP2 LT ISZERO PUSH3 0x2BF JUMPI DUP1 DUP3 ADD MLOAD DUP2 DUP5 ADD MSTORE PUSH1 0x20 DUP2 ADD SWAP1 POP PUSH3 0x2A2 JUMP JUMPDEST DUP4 DUP2 GT ISZERO PUSH3 0x2CF JUMPI PUSH1 0x0 DUP5 DUP5 ADD MSTORE JUMPDEST POP POP POP POP JUMP JUMPDEST PUSH1 0x0 PUSH3 0x2EC PUSH3 0x2E6 DUP5 PUSH3 0x269 JUMP JUMPDEST PUSH3 0x24A JUMP JUMPDEST SWAP1 POP DUP3 DUP2 MSTORE PUSH1 0x20 DUP2 ADD DUP5 DUP5 DUP5 ADD GT ISZERO PUSH3 0x30B JUMPI PUSH3 0x30A PUSH3 0x1CF JUMP JUMPDEST JUMPDEST PUSH3 0x318 DUP5 DUP3 DUP6 PUSH3 0x29F JUMP JUMPDEST POP SWAP4 SWAP3 POP POP POP JUMP JUMPDEST PUSH1 0x0 DUP3 PUSH1 0x1F DUP4 ADD SLT PUSH3 0x338 JUMPI PUSH3 0x337 PUSH3 0x1CA JUMP JUMPDEST JUMPDEST DUP2 MLOAD PUSH3 0x34A DUP5 DUP3 PUSH1 0x20 DUP7 ADD PUSH3 0x2D5 JUMP JUMPDEST SWAP2 POP POP SWAP3 SWAP2 POP POP JUMP JUMPDEST PUSH1 0x0 DUP1 PUSH1 0x0 DUP1 PUSH1 0x80 DUP6 DUP8 SUB SLT ISZERO PUSH3 0x370 JUMPI PUSH3 0x36F PUSH3 0x185 JUMP JUMPDEST JUMPDEST PUSH1 0x0 PUSH3 0x380 DUP8 DUP3 DUP9 ADD PUSH3 0x1B3 JUMP JUMPDEST SWAP5 POP POP PUSH1 0x20 PUSH3 0x393 DUP8 DUP3 DUP9 ADD PUSH3 0x1B3 JUMP JUMPDEST SWAP4 POP POP PUSH1 0x40 PUSH3 0x3A6 DUP8 DUP3 DUP9 ADD PUSH3 0x1B3 JUMP JUMPDEST SWAP3 POP POP PUSH1 0x60 DUP6 ADD MLOAD PUSH8 0xFFFFFFFFFFFFFFFF DUP2 GT ISZERO PUSH3 0x3CA JUMPI PUSH3 0x3C9 PUSH3 0x18A JUMP JUMPDEST JUMPDEST PUSH3 0x3D8 DUP8 DUP3 DUP9 ADD PUSH3 0x320 JUMP JUMPDEST SWAP2 POP POP SWAP3 SWAP6 SWAP2 SWAP5 POP SWAP3 POP JUMP JUMPDEST PUSH32 0x4E487B7100000000000000000000000000000000000000000000000000000000 PUSH1 0x0 MSTORE PUSH1 0x22 PUSH1 0x4 MSTORE PUSH1 0x24 PUSH1 0x0 REVERT JUMPDEST PUSH1 0x0 PUSH1 0x2 DUP3 DIV SWAP1 POP PUSH1 0x1 DUP3 AND DUP1 PUSH3 0x42C JUMPI PUSH1 0x7F DUP3 AND SWAP2 POP JUMPDEST PUSH1 0x20 DUP3 LT DUP2 SUB PUSH3 0x442 JUMPI PUSH3 0x441 PUSH3 0x3E4 JUMP JUMPDEST JUMPDEST POP SWAP2 SWAP1 POP JUMP JUMPDEST PUSH2 0x1282 DUP1 PUSH3 0x458 PUSH1 0x0 CODECOPY PUSH1 0x0 RETURN INVALID PUSH1 0x80 PUSH1 0x40 MSTORE CALLVALUE DUP1 ISZERO PUSH2 0x10 JUMPI PUSH1 0x0 DUP1 REVERT JUMPDEST POP PUSH1 0x4 CALLDATASIZE LT PUSH2 0xF5 JUMPI PUSH1 0x0 CALLDATALOAD PUSH1 0xE0 SHR DUP1 PUSH4 0x6352211E GT PUSH2 0x97 JUMPI DUP1 PUSH4 0x7CF6B53B GT PUSH2 0x66 JUMPI DUP1 PUSH4 0x7CF6B53B EQ PUSH2 0x274 JUMPI DUP1 PUSH4 0x8DA5CB5B EQ PUSH2 0x292 JUMPI DUP1 PUSH4 0xB3E1C718 EQ PUSH2 0x2B0 JUMPI DUP1 PUSH4 0xCF22B577 EQ PUSH2 0x2CC JUMPI PUSH2 0xF5 JUMP JUMPDEST DUP1 PUSH4 0x6352211E EQ PUSH2 0x1DC JUMPI DUP1 PUSH4 0x6A4F832B EQ PUSH2 0x20C JUMPI DUP1 PUSH4 0x70A08231 EQ PUSH2 0x228 JUMPI DUP1 PUSH4 0x7194C2E8 EQ PUSH2 0x258 JUMPI PUSH2 0xF5 JUMP JUMPDEST DUP1 PUSH4 0x3FBAA475 GT PUSH2 0xD3 JUMPI DUP1 PUSH4 0x3FBAA475 EQ PUSH2 0x166 JUMPI DUP1 PUSH4 0x49BEFA85 EQ PUSH2 0x184 JUMPI DUP1 PUSH4 0x4A627AEB EQ PUSH2 0x1A2 JUMPI DUP1 PUSH4 0x5EE1773D EQ PUSH2 0x1BE JUMPI PUSH2 0xF5 JUMP JUMPDEST DUP1 PUSH4 0x1FFC9A7 EQ PUSH2 0xFA JUMPI DUP1 PUSH4 0x23B1FF00 EQ PUSH2 0x12A JUMPI DUP1 PUSH4 0x32B93996 EQ PUSH2 0x148 JUMPI JUMPDEST PUSH1 0x0 DUP1 REVERT JUMPDEST PUSH2 0x114 PUSH1 0x4 DUP1 CALLDATASIZE SUB DUP2 ADD SWAP1 PUSH2 0x10F SWAP2 SWAP1 PUSH2 0x9C5 JUMP JUMPDEST PUSH2 0x2EA JUMP JUMPDEST PUSH1 0x40 MLOAD PUSH2 0x121 SWAP2 SWAP1 PUSH2 0xA0D JUMP JUMPDEST PUSH1 0x40 MLOAD DUP1 SWAP2 SUB SWAP1 RETURN JUMPDEST PUSH2 0x132 PUSH2 0x354 JUMP JUMPDEST PUSH1 0x40 MLOAD PUSH2 0x13F SWAP2 SWAP1 PUSH2 0xAC1 JUMP JUMPDEST PUSH1 0x40 MLOAD DUP1 SWAP2 SUB SWAP1 RETURN JUMPDEST PUSH2 0x150 PUSH2 0x3E2 JUMP JUMPDEST PUSH1 0x40 MLOAD PUSH2 0x15D SWAP2 SWAP1 PUSH2 0xAFC JUMP JUMPDEST PUSH1 0x40 MLOAD DUP1 SWAP2 SUB SWAP1 RETURN JUMPDEST PUSH2 0x16E PUSH2 0x3E8 JUMP JUMPDEST PUSH1 0x40 MLOAD PUSH2 0x17B SWAP2 SWAP1 PUSH2 0xAFC JUMP JUMPDEST PUSH1 0x40 MLOAD DUP1 SWAP2 SUB SWAP1 RETURN JUMPDEST PUSH2 0x18C PUSH2 0x3EE JUMP JUMPDEST PUSH1 0x40 MLOAD PUSH2 0x199 SWAP2 SWAP1 PUSH2 0xAFC JUMP JUMPDEST PUSH1 0x40 MLOAD DUP1 SWAP2 SUB SWAP1 RETURN JUMPDEST PUSH2 0x1BC PUSH1 0x4 DUP1 CALLDATASIZE SUB DUP2 ADD SWAP1 PUSH2 0x1B7 SWAP2 SWAP1 PUSH2 0xB43 JUMP JUMPDEST PUSH2 0x3F8 JUMP JUMPDEST STOP JUMPDEST PUSH2 0x1C6 PUSH2 0x415 JUMP JUMPDEST PUSH1 0x40 MLOAD PUSH2 0x1D3 SWAP2 SWAP1 PUSH2 0xAFC JUMP JUMPDEST PUSH1 0x40 MLOAD DUP1 SWAP2 SUB SWAP1 RETURN JUMPDEST PUSH2 0x1F6 PUSH1 0x4 DUP1 CALLDATASIZE SUB DUP2 ADD SWAP1 PUSH2 0x1F1 SWAP2 SWAP1 PUSH2 0xB9C JUMP JUMPDEST PUSH2 0x41B JUMP JUMPDEST PUSH1 0x40 MLOAD PUSH2 0x203 SWAP2 SWAP1 PUSH2 0xC0A JUMP JUMPDEST PUSH1 0x40 MLOAD DUP1 SWAP2 SUB SWAP1 RETURN JUMPDEST PUSH2 0x226 PUSH1 0x4 DUP1 CALLDATASIZE SUB DUP2 ADD SWAP1 PUSH2 0x221 SWAP2 SWAP1 PUSH2 0xD86 JUMP JUMPDEST PUSH2 0x4CB JUMP JUMPDEST STOP JUMPDEST PUSH2 0x242 PUSH1 0x4 DUP1 CALLDATASIZE SUB DUP2 ADD SWAP1 PUSH2 0x23D SWAP2 SWAP1 PUSH2 0xDF5 JUMP JUMPDEST PUSH2 0x4F0 JUMP JUMPDEST PUSH1 0x40 MLOAD PUSH2 0x24F SWAP2 SWAP1 PUSH2 0xAFC JUMP JUMPDEST PUSH1 0x40 MLOAD DUP1 SWAP2 SUB SWAP1 RETURN JUMPDEST PUSH2 0x272 PUSH1 0x4 DUP1 CALLDATASIZE SUB DUP2 ADD SWAP1 PUSH2 0x26D SWAP2 SWAP1 PUSH2 0xE22 JUMP JUMPDEST PUSH2 0x539 JUMP JUMPDEST STOP JUMPDEST PUSH2 0x27C PUSH2 0x547 JUMP JUMPDEST PUSH1 0x40 MLOAD PUSH2 0x289 SWAP2 SWAP1 PUSH2 0xA0D JUMP JUMPDEST PUSH1 0x40 MLOAD DUP1 SWAP2 SUB SWAP1 RETURN JUMPDEST PUSH2 0x29A PUSH2 0x55E JUMP JUMPDEST PUSH1 0x40 MLOAD PUSH2 0x2A7 SWAP2 SWAP1 PUSH2 0xC0A JUMP JUMPDEST PUSH1 0x40 MLOAD DUP1 SWAP2 SUB SWAP1 RETURN JUMPDEST PUSH2 0x2CA PUSH1 0x4 DUP1 CALLDATASIZE SUB DUP2 ADD SWAP1 PUSH2 0x2C5 SWAP2 SWAP1 PUSH2 0xE22 JUMP JUMPDEST PUSH2 0x584 JUMP JUMPDEST STOP JUMPDEST PUSH2 0x2D4 PUSH2 0x5A2 JUMP JUMPDEST PUSH1 0x40 MLOAD PUSH2 0x2E1 SWAP2 SWAP1 PUSH2 0xAFC JUMP JUMPDEST PUSH1 0x40 MLOAD DUP1 SWAP2 SUB SWAP1 RETURN JUMPDEST PUSH1 0x0 PUSH32 0x1FFC9A700000000000000000000000000000000000000000000000000000000 PUSH28 0xFFFFFFFFFFFFFFFFFFFFFFFFFFFFFFFFFFFFFFFFFFFFFFFFFFFFFFFF NOT AND DUP3 PUSH28 0xFFFFFFFFFFFFFFFFFFFFFFFFFFFFFFFFFFFFFFFFFFFFFFFFFFFFFFFF NOT AND EQ SWAP1 POP SWAP2 SWAP1 POP JUMP JUMPDEST PUSH1 0x6 DUP1 SLOAD PUSH2 0x361 SWAP1 PUSH2 0xE91 JUMP JUMPDEST DUP1 PUSH1 0x1F ADD PUSH1 0x20 DUP1 SWAP2 DIV MUL PUSH1 0x20 ADD PUSH1 0x40 MLOAD SWAP1 DUP2 ADD PUSH1 0x40 MSTORE DUP1 SWAP3 SWAP2 SWAP1 DUP2 DUP2 MSTORE PUSH1 0x20 ADD DUP3 DUP1 SLOAD PUSH2 0x38D SWAP1 PUSH2 0xE91 JUMP JUMPDEST DUP1 ISZERO PUSH2 0x3DA JUMPI DUP1 PUSH1 0x1F LT PUSH2 0x3AF JUMPI PUSH2 0x100 DUP1 DUP4 SLOAD DIV MUL DUP4 MSTORE SWAP2 PUSH1 0x20 ADD SWAP2 PUSH2 0x3DA JUMP JUMPDEST DUP3 ADD SWAP2 SWAP1 PUSH1 0x0 MSTORE PUSH1 0x20 PUSH1 0x0 KECCAK256 SWAP1 JUMPDEST DUP2 SLOAD DUP2 MSTORE SWAP1 PUSH1 0x1 ADD SWAP1 PUSH1 0x20 ADD DUP1 DUP4 GT PUSH2 0x3BD JUMPI DUP3 SWAP1 SUB PUSH1 0x1F AND DUP3 ADD SWAP2 JUMPDEST POP POP POP POP POP DUP2 JUMP JUMPDEST PUSH1 0x4 SLOAD DUP2 JUMP JUMPDEST PUSH1 0x3 SLOAD DUP2 JUMP JUMPDEST PUSH1 0x0 PUSH1 0x4 SLOAD SWAP1 POP SWAP1 JUMP JUMPDEST DUP1 PUSH1 0x7 PUSH1 0x0 PUSH2 0x100 EXP DUP2 SLOAD DUP2 PUSH1 0xFF MUL NOT AND SWAP1 DUP4 ISZERO ISZERO MUL OR SWAP1 SSTORE POP POP JUMP JUMPDEST PUSH1 0x2 SLOAD DUP2 JUMP JUMPDEST PUSH1 0x0 DUP1 PUSH1 0x0 DUP1 DUP5 DUP2 MSTORE PUSH1 0x20 ADD SWAP1 DUP2 MSTORE PUSH1 0x20 ADD PUSH1 0x0 KECCAK256 PUSH1 0x0 SWAP1 SLOAD SWAP1 PUSH2 0x100 EXP SWAP1 DIV PUSH20 0xFFFFFFFFFFFFFFFFFFFFFFFFFFFFFFFFFFFFFFFF AND SWAP1 POP PUSH1 0x0 PUSH20 0xFFFFFFFFFFFFFFFFFFFFFFFFFFFFFFFFFFFFFFFF AND DUP2 PUSH20 0xFFFFFFFFFFFFFFFFFFFFFFFFFFFFFFFFFFFFFFFF AND SUB PUSH2 0x4C2 JUMPI PUSH1 0x40 MLOAD PUSH32 0x8C379A000000000000000000000000000000000000000000000000000000000 DUP2 MSTORE PUSH1 0x4 ADD PUSH2 0x4B9 SWAP1 PUSH2 0xF0E JUMP JUMPDEST PUSH1 0x40 MLOAD DUP1 SWAP2 SUB SWAP1 REVERT JUMPDEST DUP1 SWAP2 POP POP SWAP2 SWAP1 POP JUMP JUMPDEST PUSH2 0x4D5 DUP4 DUP4 PUSH2 0x5AC JUMP JUMPDEST PUSH2 0x4E2 PUSH1 0x0 DUP5 DUP5 DUP5 PUSH2 0x76B JUMP JUMPDEST PUSH2 0x4EB JUMPI PUSH1 0x0 DUP1 REVERT JUMPDEST POP POP POP JUMP JUMPDEST PUSH1 0x0 PUSH1 0x1 PUSH1 0x0 DUP4 PUSH20 0xFFFFFFFFFFFFFFFFFFFFFFFFFFFFFFFFFFFFFFFF AND PUSH20 0xFFFFFFFFFFFFFFFFFFFFFFFFFFFFFFFFFFFFFFFF AND DUP2 MSTORE PUSH1 0x20 ADD SWAP1 DUP2 MSTORE PUSH1 0x20 ADD PUSH1 0x0 KECCAK256 SLOAD SWAP1 POP SWAP2 SWAP1 POP JUMP JUMPDEST PUSH2 0x543 DUP3 DUP3 PUSH2 0x584 JUMP JUMPDEST POP POP JUMP JUMPDEST PUSH1 0x0 PUSH1 0x7 PUSH1 0x0 SWAP1 SLOAD SWAP1 PUSH2 0x100 EXP SWAP1 DIV PUSH1 0xFF AND SWAP1 POP SWAP1 JUMP JUMPDEST PUSH1 0x5 PUSH1 0x0 SWAP1 SLOAD SWAP1 PUSH2 0x100 EXP SWAP1 DIV PUSH20 0xFFFFFFFFFFFFFFFFFFFFFFFFFFFFFFFFFFFFFFFF AND DUP2 JUMP JUMPDEST PUSH2 0x59E DUP3 DUP3 PUSH1 0x40 MLOAD DUP1 PUSH1 0x20 ADD PUSH1 0x40 MSTORE DUP1 PUSH1 0x0 DUP2 MSTORE POP PUSH2 0x4CB JUMP JUMPDEST POP POP JUMP JUMPDEST PUSH1 0x0 PUSH1 0x3 SLOAD SWAP1 POP SWAP1 JUMP JUMPDEST PUSH1 0x0 PUSH20 0xFFFFFFFFFFFFFFFFFFFFFFFFFFFFFFFFFFFFFFFF AND DUP3 PUSH20 0xFFFFFFFFFFFFFFFFFFFFFFFFFFFFFFFFFFFFFFFF AND SUB PUSH2 0x61B JUMPI PUSH1 0x40 MLOAD PUSH32 0x8C379A000000000000000000000000000000000000000000000000000000000 DUP2 MSTORE PUSH1 0x4 ADD PUSH2 0x612 SWAP1 PUSH2 0xFA0 JUMP JUMPDEST PUSH1 0x40 MLOAD DUP1 SWAP2 SUB SWAP1 REVERT JUMPDEST PUSH2 0x624 DUP2 PUSH2 0x8D5 JUMP JUMPDEST ISZERO PUSH2 0x664 JUMPI PUSH1 0x40 MLOAD PUSH32 0x8C379A000000000000000000000000000000000000000000000000000000000 DUP2 MSTORE PUSH1 0x4 ADD PUSH2 0x65B SWAP1 PUSH2 0x1032 JUMP JUMPDEST PUSH1 0x40 MLOAD DUP1 SWAP2 SUB SWAP1 REVERT JUMPDEST PUSH1 0x1 DUP1 PUSH1 0x0 DUP5 PUSH20 0xFFFFFFFFFFFFFFFFFFFFFFFFFFFFFFFFFFFFFFFF AND PUSH20 0xFFFFFFFFFFFFFFFFFFFFFFFFFFFFFFFFFFFFFFFF AND DUP2 MSTORE PUSH1 0x20 ADD SWAP1 DUP2 MSTORE PUSH1 0x20 ADD PUSH1 0x0 KECCAK256 PUSH1 0x0 DUP3 DUP3 SLOAD PUSH2 0x6B3 SWAP2 SWAP1 PUSH2 0x1081 JUMP JUMPDEST SWAP3 POP POP DUP2 SWAP1 SSTORE POP DUP2 PUSH1 0x0 DUP1 DUP4 DUP2 MSTORE PUSH1 0x20 ADD SWAP1 DUP2 MSTORE PUSH1 0x20 ADD PUSH1 0x0 KECCAK256 PUSH1 0x0 PUSH2 0x100 EXP DUP2 SLOAD DUP2 PUSH20 0xFFFFFFFFFFFFFFFFFFFFFFFFFFFFFFFFFFFFFFFF MUL NOT AND SWAP1 DUP4 PUSH20 0xFFFFFFFFFFFFFFFFFFFFFFFFFFFFFFFFFFFFFFFF AND MUL OR SWAP1 SSTORE POP DUP1 DUP3 PUSH20 0xFFFFFFFFFFFFFFFFFFFFFFFFFFFFFFFFFFFFFFFF AND PUSH1 0x0 PUSH20 0xFFFFFFFFFFFFFFFFFFFFFFFFFFFFFFFFFFFFFFFF AND PUSH32 0xDDF252AD1BE2C89B69C2B068FC378DAA952BA7F163C4A11628F55A4DF523B3EF PUSH1 0x40 MLOAD PUSH1 0x40 MLOAD DUP1 SWAP2 SUB SWAP1 LOG4 POP POP JUMP JUMPDEST PUSH1 0x0 PUSH2 0x776 DUP5 PUSH2 0x940 JUMP JUMPDEST ISZERO PUSH2 0x8C8 JUMPI DUP4 PUSH20 0xFFFFFFFFFFFFFFFFFFFFFFFFFFFFFFFFFFFFFFFF AND PUSH4 0x150B7A02 CALLER DUP8 DUP7 DUP7 PUSH1 0x40 MLOAD DUP6 PUSH4 0xFFFFFFFF AND PUSH1 0xE0 SHL DUP2 MSTORE PUSH1 0x4 ADD PUSH2 0x7BA SWAP5 SWAP4 SWAP3 SWAP2 SWAP1 PUSH2 0x112C JUMP JUMPDEST PUSH1 0x20 PUSH1 0x40 MLOAD DUP1 DUP4 SUB DUP2 PUSH1 0x0 DUP8 GAS CALL SWAP3 POP POP POP DUP1 ISZERO PUSH2 0x7F6 JUMPI POP PUSH1 0x40 MLOAD RETURNDATASIZE PUSH1 0x1F NOT PUSH1 0x1F DUP3 ADD AND DUP3 ADD DUP1 PUSH1 0x40 MSTORE POP DUP2 ADD SWAP1 PUSH2 0x7F3 SWAP2 SWAP1 PUSH2 0x118D JUMP JUMPDEST PUSH1 0x1 JUMPDEST PUSH2 0x878 JUMPI RETURNDATASIZE DUP1 PUSH1 0x0 DUP2 EQ PUSH2 0x826 JUMPI PUSH1 0x40 MLOAD SWAP2 POP PUSH1 0x1F NOT PUSH1 0x3F RETURNDATASIZE ADD AND DUP3 ADD PUSH1 0x40 MSTORE RETURNDATASIZE DUP3 MSTORE RETURNDATASIZE PUSH1 0x0 PUSH1 0x20 DUP5 ADD RETURNDATACOPY PUSH2 0x82B JUMP JUMPDEST PUSH1 0x60 SWAP2 POP JUMPDEST POP PUSH1 0x0 DUP2 MLOAD SUB PUSH2 0x870 JUMPI PUSH1 0x40 MLOAD PUSH32 0x8C379A000000000000000000000000000000000000000000000000000000000 DUP2 MSTORE PUSH1 0x4 ADD PUSH2 0x867 SWAP1 PUSH2 0x122C JUMP JUMPDEST PUSH1 0x40 MLOAD DUP1 SWAP2 SUB SWAP1 REVERT JUMPDEST DUP1 MLOAD DUP2 PUSH1 0x20 ADD REVERT JUMPDEST PUSH4 0x150B7A02 PUSH1 0xE0 SHL PUSH28 0xFFFFFFFFFFFFFFFFFFFFFFFFFFFFFFFFFFFFFFFFFFFFFFFFFFFFFFFF NOT AND DUP2 PUSH28 0xFFFFFFFFFFFFFFFFFFFFFFFFFFFFFFFFFFFFFFFFFFFFFFFFFFFFFFFF NOT AND EQ SWAP2 POP POP PUSH2 0x8CD JUMP JUMPDEST PUSH1 0x1 SWAP1 POP JUMPDEST SWAP5 SWAP4 POP POP POP POP JUMP JUMPDEST PUSH1 0x0 DUP1 PUSH20 0xFFFFFFFFFFFFFFFFFFFFFFFFFFFFFFFFFFFFFFFF AND PUSH1 0x0 DUP1 DUP5 DUP2 MSTORE PUSH1 0x20 ADD SWAP1 DUP2 MSTORE PUSH1 0x20 ADD PUSH1 0x0 KECCAK256 PUSH1 0x0 SWAP1 SLOAD SWAP1 PUSH2 0x100 EXP SWAP1 DIV PUSH20 0xFFFFFFFFFFFFFFFFFFFFFFFFFFFFFFFFFFFFFFFF AND PUSH20 0xFFFFFFFFFFFFFFFFFFFFFFFFFFFFFFFFFFFFFFFF AND EQ ISZERO SWAP1 POP SWAP2 SWAP1 POP JUMP JUMPDEST PUSH1 0x0 DUP1 DUP3 EXTCODESIZE SWAP1 POP PUSH1 0x0 DUP2 PUSH4 0xFFFFFFFF AND GT SWAP2 POP POP SWAP2 SWAP1 POP JUMP JUMPDEST PUSH1 0x0 PUSH1 0x40 MLOAD SWAP1 POP SWAP1 JUMP JUMPDEST PUSH1 0x0 DUP1 REVERT JUMPDEST PUSH1 0x0 DUP1 REVERT JUMPDEST PUSH1 0x0 PUSH32 0xFFFFFFFF00000000000000000000000000000000000000000000000000000000 DUP3 AND SWAP1 POP SWAP2 SWAP1 POP JUMP JUMPDEST PUSH2 0x9A2 DUP2 PUSH2 0x96D JUMP JUMPDEST DUP2 EQ PUSH2 0x9AD JUMPI PUSH1 0x0 DUP1 REVERT JUMPDEST POP JUMP JUMPDEST PUSH1 0x0 DUP2 CALLDATALOAD SWAP1 POP PUSH2 0x9BF DUP2 PUSH2 0x999 JUMP JUMPDEST SWAP3 SWAP2 POP POP JUMP JUMPDEST PUSH1 0x0 PUSH1 0x20 DUP3 DUP5 SUB SLT ISZERO PUSH2 0x9DB JUMPI PUSH2 0x9DA PUSH2 0x963 JUMP JUMPDEST JUMPDEST PUSH1 0x0 PUSH2 0x9E9 DUP5 DUP3 DUP6 ADD PUSH2 0x9B0 JUMP JUMPDEST SWAP2 POP POP SWAP3 SWAP2 POP POP JUMP JUMPDEST PUSH1 0x0 DUP2 ISZERO ISZERO SWAP1 POP SWAP2 SWAP1 POP JUMP JUMPDEST PUSH2 0xA07 DUP2 PUSH2 0x9F2 JUMP JUMPDEST DUP3 MSTORE POP POP JUMP JUMPDEST PUSH1 0x0 PUSH1 0x20 DUP3 ADD SWAP1 POP PUSH2 0xA22 PUSH1 0x0 DUP4 ADD DUP5 PUSH2 0x9FE JUMP JUMPDEST SWAP3 SWAP2 POP POP JUMP JUMPDEST PUSH1 0x0 DUP2 MLOAD SWAP1 POP SWAP2 SWAP1 POP JUMP JUMPDEST PUSH1 0x0 DUP3 DUP3 MSTORE PUSH1 0x20 DUP3 ADD SWAP1 POP SWAP3 SWAP2 POP POP JUMP JUMPDEST PUSH1 0x0 JUMPDEST DUP4 DUP2 LT ISZERO PUSH2 0xA62 JUMPI DUP1 DUP3 ADD MLOAD DUP2 DUP5 ADD MSTORE PUSH1 0x20 DUP2 ADD SWAP1 POP PUSH2 0xA47 JUMP JUMPDEST DUP4 DUP2 GT ISZERO PUSH2 0xA71 JUMPI PUSH1 0x0 DUP5 DUP5 ADD MSTORE JUMPDEST POP POP POP POP JUMP JUMPDEST PUSH1 0x0 PUSH1 0x1F NOT PUSH1 0x1F DUP4 ADD AND SWAP1 POP SWAP2 SWAP1 POP JUMP JUMPDEST PUSH1 0x0 PUSH2 0xA93 DUP3 PUSH2 0xA28 JUMP JUMPDEST PUSH2 0xA9D DUP2 DUP6 PUSH2 0xA33 JUMP JUMPDEST SWAP4 POP PUSH2 0xAAD DUP2 DUP6 PUSH1 0x20 DUP7 ADD PUSH2 0xA44 JUMP JUMPDEST PUSH2 0xAB6 DUP2 PUSH2 0xA77 JUMP JUMPDEST DUP5 ADD SWAP2 POP POP SWAP3 SWAP2 POP POP JUMP JUMPDEST PUSH1 0x0 PUSH1 0x20 DUP3 ADD SWAP1 POP DUP2 DUP2 SUB PUSH1 0x0 DUP4 ADD MSTORE PUSH2 0xADB DUP2 DUP5 PUSH2 0xA88 JUMP JUMPDEST SWAP1 POP SWAP3 SWAP2 POP POP JUMP JUMPDEST PUSH1 0x0 DUP2 SWAP1 POP SWAP2 SWAP1 POP JUMP JUMPDEST PUSH2 0xAF6 DUP2 PUSH2 0xAE3 JUMP JUMPDEST DUP3 MSTORE POP POP JUMP JUMPDEST PUSH1 0x0 PUSH1 0x20 DUP3 ADD SWAP1 POP PUSH2 0xB11 PUSH1 0x0 DUP4 ADD DUP5 PUSH2 0xAED JUMP JUMPDEST SWAP3 SWAP2 POP POP JUMP JUMPDEST PUSH2 0xB20 DUP2 PUSH2 0x9F2 JUMP JUMPDEST DUP2 EQ PUSH2 0xB2B JUMPI PUSH1 0x0 DUP1 REVERT JUMPDEST POP JUMP JUMPDEST PUSH1 0x0 DUP2 CALLDATALOAD SWAP1 POP PUSH2 0xB3D DUP2 PUSH2 0xB17 JUMP JUMPDEST SWAP3 SWAP2 POP POP JUMP JUMPDEST PUSH1 0x0 PUSH1 0x20 DUP3 DUP5 SUB SLT ISZERO PUSH2 0xB59 JUMPI PUSH2 0xB58 PUSH2 0x963 JUMP JUMPDEST JUMPDEST PUSH1 0x0 PUSH2 0xB67 DUP5 DUP3 DUP6 ADD PUSH2 0xB2E JUMP JUMPDEST SWAP2 POP POP SWAP3 SWAP2 POP POP JUMP JUMPDEST PUSH2 0xB79 DUP2 PUSH2 0xAE3 JUMP JUMPDEST DUP2 EQ PUSH2 0xB84 JUMPI PUSH1 0x0 DUP1 REVERT JUMPDEST POP JUMP JUMPDEST PUSH1 0x0 DUP2 CALLDATALOAD SWAP1 POP PUSH2 0xB96 DUP2 PUSH2 0xB70 JUMP JUMPDEST SWAP3 SWAP2 POP POP JUMP JUMPDEST PUSH1 0x0 PUSH1 0x20 DUP3 DUP5 SUB SLT ISZERO PUSH2 0xBB2 JUMPI PUSH2 0xBB1 PUSH2 0x963 JUMP JUMPDEST JUMPDEST PUSH1 0x0 PUSH2 0xBC0 DUP5 DUP3 DUP6 ADD PUSH2 0xB87 JUMP JUMPDEST SWAP2 POP POP SWAP3 SWAP2 POP POP JUMP JUMPDEST PUSH1 0x0 PUSH20 0xFFFFFFFFFFFFFFFFFFFFFFFFFFFFFFFFFFFFFFFF DUP3 AND SWAP1 POP SWAP2 SWAP1 POP JUMP JUMPDEST PUSH1 0x0 PUSH2 0xBF4 DUP3 PUSH2 0xBC9 JUMP JUMPDEST SWAP1 POP SWAP2 SWAP1 POP JUMP JUMPDEST PUSH2 0xC04 DUP2 PUSH2 0xBE9 JUMP JUMPDEST DUP3 MSTORE POP POP JUMP JUMPDEST PUSH1 0x0 PUSH1 0x20 DUP3 ADD SWAP1 POP PUSH2 0xC1F PUSH1 0x0 DUP4 ADD DUP5 PUSH2 0xBFB JUMP JUMPDEST SWAP3 SWAP2 POP POP JUMP JUMPDEST PUSH2 0xC2E DUP2 PUSH2 0xBE9 JUMP JUMPDEST DUP2 EQ PUSH2 0xC39 JUMPI PUSH1 0x0 DUP1 REVERT JUMPDEST POP JUMP JUMPDEST PUSH1 0x0 DUP2 CALLDATALOAD SWAP1 POP PUSH2 0xC4B DUP2 PUSH2 0xC25 JUMP JUMPDEST SWAP3 SWAP2 POP POP JUMP JUMPDEST PUSH1 0x0 DUP1 REVERT JUMPDEST PUSH1 0x0 DUP1 REVERT JUMPDEST PUSH32 0x4E487B7100000000000000000000000000000000000000000000000000000000 PUSH1 0x0 MSTORE PUSH1 0x41 PUSH1 0x4 MSTORE PUSH1 0x24 PUSH1 0x0 REVERT JUMPDEST PUSH2 0xC93 DUP3 PUSH2 0xA77 JUMP JUMPDEST DUP2 ADD DUP2 DUP2 LT PUSH8 0xFFFFFFFFFFFFFFFF DUP3 GT OR ISZERO PUSH2 0xCB2 JUMPI PUSH2 0xCB1 PUSH2 0xC5B JUMP JUMPDEST JUMPDEST DUP1 PUSH1 0x40 MSTORE POP POP POP JUMP JUMPDEST PUSH1 0x0 PUSH2 0xCC5 PUSH2 0x959 JUMP JUMPDEST SWAP1 POP PUSH2 0xCD1 DUP3 DUP3 PUSH2 0xC8A JUMP JUMPDEST SWAP2 SWAP1 POP JUMP JUMPDEST PUSH1 0x0 PUSH8 0xFFFFFFFFFFFFFFFF DUP3 GT ISZERO PUSH2 0xCF1 JUMPI PUSH2 0xCF0 PUSH2 0xC5B JUMP JUMPDEST JUMPDEST PUSH2 0xCFA DUP3 PUSH2 0xA77 JUMP JUMPDEST SWAP1 POP PUSH1 0x20 DUP2 ADD SWAP1 POP SWAP2 SWAP1 POP JUMP JUMPDEST DUP3 DUP2 DUP4 CALLDATACOPY PUSH1 0x0 DUP4 DUP4 ADD MSTORE POP POP POP JUMP JUMPDEST PUSH1 0x0 PUSH2 0xD29 PUSH2 0xD24 DUP5 PUSH2 0xCD6 JUMP JUMPDEST PUSH2 0xCBB JUMP JUMPDEST SWAP1 POP DUP3 DUP2 MSTORE PUSH1 0x20 DUP2 ADD DUP5 DUP5 DUP5 ADD GT ISZERO PUSH2 0xD45 JUMPI PUSH2 0xD44 PUSH2 0xC56 JUMP JUMPDEST JUMPDEST PUSH2 0xD50 DUP5 DUP3 DUP6 PUSH2 0xD07 JUMP JUMPDEST POP SWAP4 SWAP3 POP POP POP JUMP JUMPDEST PUSH1 0x0 DUP3 PUSH1 0x1F DUP4 ADD SLT PUSH2 0xD6D JUMPI PUSH2 0xD6C PUSH2 0xC51 JUMP JUMPDEST JUMPDEST DUP2 CALLDATALOAD PUSH2 0xD7D DUP5 DUP3 PUSH1 0x20 DUP7 ADD PUSH2 0xD16 JUMP JUMPDEST SWAP2 POP POP SWAP3 SWAP2 POP POP JUMP JUMPDEST PUSH1 0x0 DUP1 PUSH1 0x0 PUSH1 0x60 DUP5 DUP7 SUB SLT ISZERO PUSH2 0xD9F JUMPI PUSH2 0xD9E PUSH2 0x963 JUMP JUMPDEST JUMPDEST PUSH1 0x0 PUSH2 0xDAD DUP7 DUP3 DUP8 ADD PUSH2 0xC3C JUMP JUMPDEST SWAP4 POP POP PUSH1 0x20 PUSH2 0xDBE DUP7 DUP3 DUP8 ADD PUSH2 0xB87 JUMP JUMPDEST SWAP3 POP POP PUSH1 0x40 DUP5 ADD CALLDATALOAD PUSH8 0xFFFFFFFFFFFFFFFF DUP2 GT ISZERO PUSH2 0xDDF JUMPI PUSH2 0xDDE PUSH2 0x968 JUMP JUMPDEST JUMPDEST PUSH2 0xDEB DUP7 DUP3 DUP8 ADD PUSH2 0xD58 JUMP JUMPDEST SWAP2 POP POP SWAP3 POP SWAP3 POP SWAP3 JUMP JUMPDEST PUSH1 0x0 PUSH1 0x20 DUP3 DUP5 SUB SLT ISZERO PUSH2 0xE0B JUMPI PUSH2 0xE0A PUSH2 0x963 JUMP JUMPDEST JUMPDEST PUSH1 0x0 PUSH2 0xE19 DUP5 DUP3 DUP6 ADD PUSH2 0xC3C JUMP JUMPDEST SWAP2 POP POP SWAP3 SWAP2 POP POP JUMP JUMPDEST PUSH1 0x0 DUP1 PUSH1 0x40 DUP4 DUP6 SUB SLT ISZERO PUSH2 0xE39 JUMPI PUSH2 0xE38 PUSH2 0x963 JUMP JUMPDEST JUMPDEST PUSH1 0x0 PUSH2 0xE47 DUP6 DUP3 DUP7 ADD PUSH2 0xC3C JUMP JUMPDEST SWAP3 POP POP PUSH1 0x20 PUSH2 0xE58 DUP6 DUP3 DUP7 ADD PUSH2 0xB87 JUMP JUMPDEST SWAP2 POP POP SWAP3 POP SWAP3 SWAP1 POP JUMP JUMPDEST PUSH32 0x4E487B7100000000000000000000000000000000000000000000000000000000 PUSH1 0x0 MSTORE PUSH1 0x22 PUSH1 0x4 MSTORE PUSH1 0x24 PUSH1 0x0 REVERT JUMPDEST PUSH1 0x0 PUSH1 0x2 DUP3 DIV SWAP1 POP PUSH1 0x1 DUP3 AND DUP1 PUSH2 0xEA9 JUMPI PUSH1 0x7F DUP3 AND SWAP2 POP JUMPDEST PUSH1 0x20 DUP3 LT DUP2 SUB PUSH2 0xEBC JUMPI PUSH2 0xEBB PUSH2 0xE62 JUMP JUMPDEST JUMPDEST POP SWAP2 SWAP1 POP JUMP JUMPDEST PUSH32 0x546F6B656E20696420646F6573206E6F74206578697374000000000000000000 PUSH1 0x0 DUP3 ADD MSTORE POP JUMP JUMPDEST PUSH1 0x0 PUSH2 0xEF8 PUSH1 0x17 DUP4 PUSH2 0xA33 JUMP JUMPDEST SWAP2 POP PUSH2 0xF03 DUP3 PUSH2 0xEC2 JUMP JUMPDEST PUSH1 0x20 DUP3 ADD SWAP1 POP SWAP2 SWAP1 POP JUMP JUMPDEST PUSH1 0x0 PUSH1 0x20 DUP3 ADD SWAP1 POP DUP2 DUP2 SUB PUSH1 0x0 DUP4 ADD MSTORE PUSH2 0xF27 DUP2 PUSH2 0xEEB JUMP JUMPDEST SWAP1 POP SWAP2 SWAP1 POP JUMP JUMPDEST PUSH32 0x455243373231204552524F523A206D696E7420746F20746865207A65726F2061 PUSH1 0x0 DUP3 ADD MSTORE PUSH32 0x6464726573730000000000000000000000000000000000000000000000000000 PUSH1 0x20 DUP3 ADD MSTORE POP JUMP JUMPDEST PUSH1 0x0 PUSH2 0xF8A PUSH1 0x26 DUP4 PUSH2 0xA33 JUMP JUMPDEST SWAP2 POP PUSH2 0xF95 DUP3 PUSH2 0xF2E JUMP JUMPDEST PUSH1 0x40 DUP3 ADD SWAP1 POP SWAP2 SWAP1 POP JUMP JUMPDEST PUSH1 0x0 PUSH1 0x20 DUP3 ADD SWAP1 POP DUP2 DUP2 SUB PUSH1 0x0 DUP4 ADD MSTORE PUSH2 0xFB9 DUP2 PUSH2 0xF7D JUMP JUMPDEST SWAP1 POP SWAP2 SWAP1 POP JUMP JUMPDEST PUSH32 0x455243373231204552524F523A20546F6B656E20616C7265616479206D696E74 PUSH1 0x0 DUP3 ADD MSTORE PUSH32 0x6564000000000000000000000000000000000000000000000000000000000000 PUSH1 0x20 DUP3 ADD MSTORE POP JUMP JUMPDEST PUSH1 0x0 PUSH2 0x101C PUSH1 0x22 DUP4 PUSH2 0xA33 JUMP JUMPDEST SWAP2 POP PUSH2 0x1027 DUP3 PUSH2 0xFC0 JUMP JUMPDEST PUSH1 0x40 DUP3 ADD SWAP1 POP SWAP2 SWAP1 POP JUMP JUMPDEST PUSH1 0x0 PUSH1 0x20 DUP3 ADD SWAP1 POP DUP2 DUP2 SUB PUSH1 0x0 DUP4 ADD MSTORE PUSH2 0x104B DUP2 PUSH2 0x100F JUMP JUMPDEST SWAP1 POP SWAP2 SWAP1 POP JUMP JUMPDEST PUSH32 0x4E487B7100000000000000000000000000000000000000000000000000000000 PUSH1 0x0 MSTORE PUSH1 0x11 PUSH1 0x4 MSTORE PUSH1 0x24 PUSH1 0x0 REVERT JUMPDEST PUSH1 0x0 PUSH2 0x108C DUP3 PUSH2 0xAE3 JUMP JUMPDEST SWAP2 POP PUSH2 0x1097 DUP4 PUSH2 0xAE3 JUMP JUMPDEST SWAP3 POP DUP3 PUSH32 0xFFFFFFFFFFFFFFFFFFFFFFFFFFFFFFFFFFFFFFFFFFFFFFFFFFFFFFFFFFFFFFFF SUB DUP3 GT ISZERO PUSH2 0x10CC JUMPI PUSH2 0x10CB PUSH2 0x1052 JUMP JUMPDEST JUMPDEST DUP3 DUP3 ADD SWAP1 POP SWAP3 SWAP2 POP POP JUMP JUMPDEST PUSH1 0x0 DUP2 MLOAD SWAP1 POP SWAP2 SWAP1 POP JUMP JUMPDEST PUSH1 0x0 DUP3 DUP3 MSTORE PUSH1 0x20 DUP3 ADD SWAP1 POP SWAP3 SWAP2 POP POP JUMP JUMPDEST PUSH1 0x0 PUSH2 0x10FE DUP3 PUSH2 0x10D7 JUMP JUMPDEST PUSH2 0x1108 DUP2 DUP6 PUSH2 0x10E2 JUMP JUMPDEST SWAP4 POP PUSH2 0x1118 DUP2 DUP6 PUSH1 0x20 DUP7 ADD PUSH2 0xA44 JUMP JUMPDEST PUSH2 0x1121 DUP2 PUSH2 0xA77 JUMP JUMPDEST DUP5 ADD SWAP2 POP POP SWAP3 SWAP2 POP POP JUMP JUMPDEST PUSH1 0x0 PUSH1 0x80 DUP3 ADD SWAP1 POP PUSH2 0x1141 PUSH1 0x0 DUP4 ADD DUP8 PUSH2 0xBFB JUMP JUMPDEST PUSH2 0x114E PUSH1 0x20 DUP4 ADD DUP7 PUSH2 0xBFB JUMP JUMPDEST PUSH2 0x115B PUSH1 0x40 DUP4 ADD DUP6 PUSH2 0xAED JUMP JUMPDEST DUP2 DUP2 SUB PUSH1 0x60 DUP4 ADD MSTORE PUSH2 0x116D DUP2 DUP5 PUSH2 0x10F3 JUMP JUMPDEST SWAP1 POP SWAP6 SWAP5 POP POP POP POP POP JUMP JUMPDEST PUSH1 0x0 DUP2 MLOAD SWAP1 POP PUSH2 0x1187 DUP2 PUSH2 0x999 JUMP JUMPDEST SWAP3 SWAP2 POP POP JUMP JUMPDEST PUSH1 0x0 PUSH1 0x20 DUP3 DUP5 SUB SLT ISZERO PUSH2 0x11A3 JUMPI PUSH2 0x11A2 PUSH2 0x963 JUMP JUMPDEST JUMPDEST PUSH1 0x0 PUSH2 0x11B1 DUP5 DUP3 DUP6 ADD PUSH2 0x1178 JUMP JUMPDEST SWAP2 POP POP SWAP3 SWAP2 POP POP JUMP JUMPDEST PUSH32 0x4552433732313A207472616E7366657220746F206E6F6E204552433732315265 PUSH1 0x0 DUP3 ADD MSTORE PUSH32 0x63656976657220696D706C656D656E7465720000000000000000000000000000 PUSH1 0x20 DUP3 ADD MSTORE POP JUMP JUMPDEST PUSH1 0x0 PUSH2 0x1216 PUSH1 0x32 DUP4 PUSH2 0xA33 JUMP JUMPDEST SWAP2 POP PUSH2 0x1221 DUP3 PUSH2 0x11BA JUMP JUMPDEST PUSH1 0x40 DUP3 ADD SWAP1 POP SWAP2 SWAP1 POP JUMP JUMPDEST PUSH1 0x0 PUSH1 0x20 DUP3 ADD SWAP1 POP DUP2 DUP2 SUB PUSH1 0x0 DUP4 ADD MSTORE PUSH2 0x1245 DUP2 PUSH2 0x1209 JUMP JUMPDEST SWAP1 POP SWAP2 SWAP1 POP JUMP INVALID LOG2 PUSH5 0x6970667358 0x22 SLT KECCAK256 0xEB 0xD8 0xB6 DUP5 NOT 0xCA 0xD9 PUSH10 0xFC7B8FF50457A1469E33 PUSH16 0x7FE52A9F85AB7A69B14FBD538964736F PUSH13 0x634300080D0033000000000000 "},"gasEstimates":{"creation":{"codeDepositCost":"947600","executionCost":"infinite","totalCost":"infinite"},"external":{"_mintPlot(address,uint256)":"infinite","_safeMint(address,uint256)":"infinite","_safeMint(address,uint256,bytes)":"infinite","balanceOf(address)":"2908","getAtendido()":"2501","getMaxHeight()":"2525","getMinHeight()":"2482","id_plot()":"2518","max_height()":"2452","min_height()":"2497","owner()":"2558","ownerOf(uint256)":"2979","pesticide()":"infinite","setAtendido(bool)":"24746","supportsInterface(bytes4)":"662"}},"methodIdentifiers":{"_mintPlot(address,uint256)":"7194c2e8","_safeMint(address,uint256)":"b3e1c718","_safeMint(address,uint256,bytes)":"6a4f832b","balanceOf(address)":"70a08231","getAtendido()":"7cf6b53b","getMaxHeight()":"cf22b577","getMinHeight()":"49befa85","id_plot()":"5ee1773d","max_height()":"3fbaa475","min_height()":"32b93996","owner()":"8da5cb5b","ownerOf(uint256)":"6352211e","pesticide()":"23b1ff00","setAtendido(bool)":"4a627aeb","supportsInterface(bytes4)":"01ffc9a7"}},"storageLayout":{"storage":[{"astId":1383,"contract":"Plot.sol:Plot","label":"_owners","offset":0,"slot":"0","type":"t_mapping(t_uint256,t_address)"},{"astId":1387,"contract":"Plot.sol:Plot","label":"_balances","offset":0,"slot":"1","type":"t_mapping(t_address,t_uint256)"},{"astId":1143,"contract":"Plot.sol:Plot","label":"id_plot","offset":0,"slot":"2","type":"t_uint256"},{"astId":1145,"contract":"Plot.sol:Plot","label":"max_height","offset":0,"slot":"3","type":"t_uint256"},{"astId":1147,"contract":"Plot.sol:Plot","label":"min_height","offset":0,"slot":"4","type":"t_uint256"},{"astId":1149,"contract":"Plot.sol:Plot","label":"owner","offset":0,"slot":"5","type":"t_address"},{"astId":1151,"contract":"Plot.sol:Plot","label":"pesticide","offset":0,"slot":"6","type":"t_string_storage"},{"astId":1153,"contract":"Plot.sol:Plot","label":"atendido","offset":0,"slot":"7","type":"t_bool"}],"types":{"t_address":{"encoding":"inplace","label":"address","numberOfBytes":"20"},"t_bool":{"encoding":"inplace","label":"bool","numberOfBytes":"1"},"t_mapping(t_address,t_uint256)":{"encoding":"mapping","key":"t_address","label":"mapping(address => uint256)","numberOfBytes":"32","value":"t_uint256"},"t_mapping(t_uint256,t_address)":{"encoding":"mapping","key":"t_uint256","label":"mapping(uint256 => address)","numberOfBytes":"32","value":"t_address"},"t_string_storage":{"encoding":"bytes","label":"string","numberOfBytes":"32"},"t_uint256":{"encoding":"inplace","label":"uint256","numberOfBytes":"32"}}},"userdoc":{"kind":"user","methods":{},"version":1}}